{
  "_format": "hh-sol-artifact-1",
  "contractName": "CommunityRoom",
  "sourceName": "contracts/CommunityRoom.sol",
  "abi": [
    {
      "inputs": [
        {
          "internalType": "address",
          "name": "_creator",
          "type": "address"
        },
        {
          "internalType": "string",
          "name": "_communityName",
          "type": "string"
        },
        {
          "internalType": "string",
          "name": "_communityLogo",
          "type": "string"
        },
        {
          "internalType": "string",
          "name": "_systemPrompt",
          "type": "string"
        },
        {
          "internalType": "uint256",
          "name": "_assistantUnlockCost",
          "type": "uint256"
        }
      ],
      "stateMutability": "nonpayable",
      "type": "constructor"
    },
    {
      "anonymous": false,
      "inputs": [
        {
          "indexed": true,
          "internalType": "address",
          "name": "user",
          "type": "address"
        }
      ],
      "name": "MemberJoined",
      "type": "event"
    },
    {
      "anonymous": false,
      "inputs": [
        {
          "indexed": true,
          "internalType": "address",
          "name": "user",
          "type": "address"
        }
      ],
      "name": "MemberLeft",
      "type": "event"
    },
    {
      "anonymous": false,
      "inputs": [
        {
          "indexed": true,
          "internalType": "address",
          "name": "user",
          "type": "address"
        },
        {
          "indexed": false,
          "internalType": "string",
          "name": "text",
          "type": "string"
        },
        {
          "indexed": false,
          "internalType": "string",
          "name": "ipfsImageUrl",
          "type": "string"
        },
        {
          "indexed": false,
          "internalType": "uint256",
          "name": "timestamp",
          "type": "uint256"
        }
      ],
      "name": "MessageSent",
      "type": "event"
    },
    {
      "anonymous": false,
      "inputs": [
        {
          "indexed": true,
          "internalType": "address",
          "name": "user",
          "type": "address"
        },
        {
          "indexed": true,
          "internalType": "address",
          "name": "assistantAddress",
          "type": "address"
        }
      ],
      "name": "PersonalAssistantUnlocked",
      "type": "event"
    },
    {
      "inputs": [
        {
          "internalType": "string",
          "name": "_text",
          "type": "string"
        },
        {
          "internalType": "string",
          "name": "_ipfsImageUrl",
          "type": "string"
        }
      ],
      "name": "aiSendMessage",
      "outputs": [],
      "stateMutability": "nonpayable",
      "type": "function"
    },
    {
      "inputs": [],
      "name": "assistantUnlockCostInEth",
      "outputs": [
        {
          "internalType": "uint256",
          "name": "",
          "type": "uint256"
        }
      ],
      "stateMutability": "view",
      "type": "function"
    },
    {
      "inputs": [],
      "name": "communityLogo",
      "outputs": [
        {
          "internalType": "string",
          "name": "",
          "type": "string"
        }
      ],
      "stateMutability": "view",
      "type": "function"
    },
    {
      "inputs": [],
      "name": "communityName",
      "outputs": [
        {
          "internalType": "string",
          "name": "",
          "type": "string"
        }
      ],
      "stateMutability": "view",
      "type": "function"
    },
    {
      "inputs": [],
      "name": "createdBy",
      "outputs": [
        {
          "internalType": "address",
          "name": "",
          "type": "address"
        }
      ],
      "stateMutability": "view",
      "type": "function"
    },
    {
      "inputs": [],
      "name": "getDeployedPersonalAssistants",
      "outputs": [
        {
          "internalType": "address[]",
          "name": "",
          "type": "address[]"
        }
      ],
      "stateMutability": "view",
      "type": "function"
    },
    {
      "inputs": [
        {
          "internalType": "address",
          "name": "_user",
          "type": "address"
        }
      ],
      "name": "getMemberStatus",
      "outputs": [
        {
          "internalType": "bool",
          "name": "",
          "type": "bool"
        }
      ],
      "stateMutability": "view",
      "type": "function"
    },
    {
      "inputs": [],
      "name": "getMessages",
      "outputs": [
        {
          "components": [
            {
              "internalType": "string",
              "name": "text",
              "type": "string"
            },
            {
              "internalType": "address",
              "name": "userAddress",
              "type": "address"
            },
            {
              "internalType": "string",
              "name": "ipfsImageUrl",
              "type": "string"
            },
            {
              "internalType": "uint256",
              "name": "timestamp",
              "type": "uint256"
            }
          ],
          "internalType": "struct CommunityRoom.Message[]",
          "name": "",
          "type": "tuple[]"
        }
      ],
      "stateMutability": "view",
      "type": "function"
    },
    {
      "inputs": [],
      "name": "joinCommunity",
      "outputs": [],
      "stateMutability": "nonpayable",
      "type": "function"
    },
    {
      "inputs": [],
      "name": "leaveCommunity",
      "outputs": [],
      "stateMutability": "nonpayable",
      "type": "function"
    },
    {
      "inputs": [],
      "name": "systemPrompt",
      "outputs": [
        {
          "internalType": "string",
          "name": "",
          "type": "string"
        }
      ],
      "stateMutability": "view",
      "type": "function"
    },
    {
      "inputs": [],
      "name": "unlockPersonalAssistant",
      "outputs": [],
      "stateMutability": "payable",
      "type": "function"
    },
    {
      "inputs": [
        {
          "internalType": "string",
          "name": "_text",
          "type": "string"
        },
        {
          "internalType": "string",
          "name": "_ipfsImageUrl",
          "type": "string"
        }
      ],
      "name": "userSendMessage",
      "outputs": [],
      "stateMutability": "nonpayable",
      "type": "function"
    }
  ],
  "bytecode": "0x60806040523480156200001157600080fd5b5060405162003d9e38038062003d9e833981810160405281019062000037919062000349565b846000806101000a81548173ffffffffffffffffffffffffffffffffffffffff021916908373ffffffffffffffffffffffffffffffffffffffff16021790555083600590816200008891906200066f565b5082600690816200009a91906200066f565b508160079081620000ac91906200066f565b5060018060008773ffffffffffffffffffffffffffffffffffffffff1673ffffffffffffffffffffffffffffffffffffffff16815260200190815260200160002060006101000a81548160ff02191690831515021790555080600381905550505050505062000756565b6000604051905090565b600080fd5b600080fd5b600073ffffffffffffffffffffffffffffffffffffffff82169050919050565b600062000157826200012a565b9050919050565b62000169816200014a565b81146200017557600080fd5b50565b60008151905062000189816200015e565b92915050565b600080fd5b600080fd5b6000601f19601f8301169050919050565b7f4e487b7100000000000000000000000000000000000000000000000000000000600052604160045260246000fd5b620001e48262000199565b810181811067ffffffffffffffff82111715620002065762000205620001aa565b5b80604052505050565b60006200021b62000116565b9050620002298282620001d9565b919050565b600067ffffffffffffffff8211156200024c576200024b620001aa565b5b620002578262000199565b9050602081019050919050565b60005b838110156200028457808201518184015260208101905062000267565b60008484015250505050565b6000620002a7620002a1846200022e565b6200020f565b905082815260208101848484011115620002c657620002c562000194565b5b620002d384828562000264565b509392505050565b600082601f830112620002f357620002f26200018f565b5b81516200030584826020860162000290565b91505092915050565b6000819050919050565b62000323816200030e565b81146200032f57600080fd5b50565b600081519050620003438162000318565b92915050565b600080600080600060a0868803121562000368576200036762000120565b5b6000620003788882890162000178565b955050602086015167ffffffffffffffff8111156200039c576200039b62000125565b5b620003aa88828901620002db565b945050604086015167ffffffffffffffff811115620003ce57620003cd62000125565b5b620003dc88828901620002db565b935050606086015167ffffffffffffffff8111156200040057620003ff62000125565b5b6200040e88828901620002db565b9250506080620004218882890162000332565b9150509295509295909350565b600081519050919050565b7f4e487b7100000000000000000000000000000000000000000000000000000000600052602260045260246000fd5b600060028204905060018216806200048157607f821691505b60208210810362000497576200049662000439565b5b50919050565b60008190508160005260206000209050919050565b60006020601f8301049050919050565b600082821b905092915050565b600060088302620005017fffffffffffffffffffffffffffffffffffffffffffffffffffffffffffffffff82620004c2565b6200050d8683620004c2565b95508019841693508086168417925050509392505050565b6000819050919050565b6000620005506200054a62000544846200030e565b62000525565b6200030e565b9050919050565b6000819050919050565b6200056c836200052f565b620005846200057b8262000557565b848454620004cf565b825550505050565b600090565b6200059b6200058c565b620005a881848462000561565b505050565b5b81811015620005d057620005c460008262000591565b600181019050620005ae565b5050565b601f8211156200061f57620005e9816200049d565b620005f484620004b2565b8101602085101562000604578190505b6200061c6200061385620004b2565b830182620005ad565b50505b505050565b600082821c905092915050565b6000620006446000198460080262000624565b1980831691505092915050565b60006200065f838362000631565b9150826002028217905092915050565b6200067a826200042e565b67ffffffffffffffff811115620006965762000695620001aa565b5b620006a2825462000468565b620006af828285620005d4565b600060209050601f831160018114620006e75760008415620006d2578287015190505b620006de858262000651565b8655506200074e565b601f198416620006f7866200049d565b60005b828110156200072157848901518255600182019150602085019450602081019050620006fa565b868310156200074157848901516200073d601f89168262000631565b8355505b6001600288020188555050505b505050505050565b61363880620007666000396000f3fe608060405260043610620000d35760003560e01c80635e164843116200008b578063b9e596001162000061578063b9e596001462000258578063be52ab661462000288578063c6d572ae1462000294578063dde8535f14620002c457620000d3565b80635e16484314620001de5780635ff6cbf314620001f857806368a549e8146200022857620000d3565b8062b16fee14620000d8578063092b300e14620000f25780632662ad0014620001205780632dd2bd44146200014e5780633a5673a4146200017e5780634559a90414620001ae575b600080fd5b348015620000e557600080fd5b50620000f062000308565b005b348015620000ff57600080fd5b506200011e6004803603810190620001189190620011e3565b62000434565b005b3480156200012d57600080fd5b506200014c6004803603810190620001469190620011e3565b62000573565b005b3480156200015b57600080fd5b50620001666200073f565b604051620001759190620012f1565b60405180910390f35b3480156200018b57600080fd5b5062000196620007d5565b604051620001a591906200135a565b60405180910390f35b348015620001bb57600080fd5b50620001c6620007f9565b604051620001d5919062001392565b60405180910390f35b348015620001eb57600080fd5b50620001f6620007ff565b005b3480156200020557600080fd5b50620002106200092b565b6040516200021f919062001565565b60405180910390f35b3480156200023557600080fd5b506200024062000b20565b6040516200024f919062001646565b60405180910390f35b3480156200026557600080fd5b506200027062000bb0565b6040516200027f9190620012f1565b60405180910390f35b6200029262000c46565b005b348015620002a157600080fd5b50620002ac62000f73565b604051620002bb9190620012f1565b60405180910390f35b348015620002d157600080fd5b50620002f06004803603810190620002ea91906200169b565b62001009565b604051620002ff9190620016ea565b60405180910390f35b600160003373ffffffffffffffffffffffffffffffffffffffff1673ffffffffffffffffffffffffffffffffffffffff16815260200190815260200160002060009054906101000a900460ff161562000398576040517f08c379a00000000000000000000000000000000000000000000000000000000081526004016200038f9062001757565b60405180910390fd5b60018060003373ffffffffffffffffffffffffffffffffffffffff1673ffffffffffffffffffffffffffffffffffffffff16815260200190815260200160002060006101000a81548160ff0219169083151502179055503373ffffffffffffffffffffffffffffffffffffffff167f0abf3b3f643594d958297062a019458e27d7766629590ac621aa1000fa1298ab60405160405180910390a2565b60046040518060800160405280848152602001600073ffffffffffffffffffffffffffffffffffffffff1681526020018381526020014281525090806001815401808255809150506001900390600052602060002090600402016000909190919091506000820151816000019081620004ae9190620019af565b5060208201518160010160006101000a81548173ffffffffffffffffffffffffffffffffffffffff021916908373ffffffffffffffffffffffffffffffffffffffff16021790555060408201518160020190816200050d9190620019af565b50606082015181600301555050600073ffffffffffffffffffffffffffffffffffffffff167fe89e2f68b504e014dcbd447cc8d1d45903e27deb2a197f25b6dc81698a0ce559838342604051620005679392919062001a96565b60405180910390a25050565b600160003373ffffffffffffffffffffffffffffffffffffffff1673ffffffffffffffffffffffffffffffffffffffff16815260200190815260200160002060009054906101000a900460ff1662000602576040517f08c379a0000000000000000000000000000000000000000000000000000000008152600401620005f99062001b31565b60405180910390fd5b600460405180608001604052808481526020013373ffffffffffffffffffffffffffffffffffffffff16815260200183815260200142815250908060018154018082558091505060019003906000526020600020906004020160009091909190915060008201518160000190816200067b9190620019af565b5060208201518160010160006101000a81548173ffffffffffffffffffffffffffffffffffffffff021916908373ffffffffffffffffffffffffffffffffffffffff1602179055506040820151816002019081620006da9190620019af565b506060820151816003015550503373ffffffffffffffffffffffffffffffffffffffff167fe89e2f68b504e014dcbd447cc8d1d45903e27deb2a197f25b6dc81698a0ce559838342604051620007339392919062001a96565b60405180910390a25050565b600780546200074e90620017a8565b80601f01602080910402602001604051908101604052809291908181526020018280546200077c90620017a8565b8015620007cd5780601f10620007a157610100808354040283529160200191620007cd565b820191906000526020600020905b815481529060010190602001808311620007af57829003601f168201915b505050505081565b60008054906101000a900473ffffffffffffffffffffffffffffffffffffffff1681565b60035481565b600160003373ffffffffffffffffffffffffffffffffffffffff1673ffffffffffffffffffffffffffffffffffffffff16815260200190815260200160002060009054906101000a900460ff166200088e576040517f08c379a0000000000000000000000000000000000000000000000000000000008152600401620008859062001ba3565b60405180910390fd5b6000600160003373ffffffffffffffffffffffffffffffffffffffff1673ffffffffffffffffffffffffffffffffffffffff16815260200190815260200160002060006101000a81548160ff0219169083151502179055503373ffffffffffffffffffffffffffffffffffffffff167fbea911b50ccdd2233b28faa49766c3cbd0631608f32e5a724d7b83b32b681ad060405160405180910390a2565b60606004805480602002602001604051908101604052809291908181526020016000905b8282101562000b1757838290600052602060002090600402016040518060800160405290816000820180546200098590620017a8565b80601f0160208091040260200160405190810160405280929190818152602001828054620009b390620017a8565b801562000a045780601f10620009d85761010080835404028352916020019162000a04565b820191906000526020600020905b815481529060010190602001808311620009e657829003601f168201915b505050505081526020016001820160009054906101000a900473ffffffffffffffffffffffffffffffffffffffff1673ffffffffffffffffffffffffffffffffffffffff1673ffffffffffffffffffffffffffffffffffffffff16815260200160028201805462000a7590620017a8565b80601f016020809104026020016040519081016040528092919081815260200182805462000aa390620017a8565b801562000af45780601f1062000ac85761010080835404028352916020019162000af4565b820191906000526020600020905b81548152906001019060200180831162000ad657829003601f168201915b50505050508152602001600382015481525050815260200190600101906200094f565b50505050905090565b6060600880548060200260200160405190810160405280929190818152602001828054801562000ba657602002820191906000526020600020905b8160009054906101000a900473ffffffffffffffffffffffffffffffffffffffff1673ffffffffffffffffffffffffffffffffffffffff168152602001906001019080831162000b5b575b5050505050905090565b6006805462000bbf90620017a8565b80601f016020809104026020016040519081016040528092919081815260200182805462000bed90620017a8565b801562000c3e5780601f1062000c125761010080835404028352916020019162000c3e565b820191906000526020600020905b81548152906001019060200180831162000c2057829003601f168201915b505050505081565b600160003373ffffffffffffffffffffffffffffffffffffffff1673ffffffffffffffffffffffffffffffffffffffff16815260200190815260200160002060009054906101000a900460ff161562000cd6576040517f08c379a000000000000000000000000000000000000000000000000000000000815260040162000ccd9062001c3b565b60405180910390fd5b600260003373ffffffffffffffffffffffffffffffffffffffff1673ffffffffffffffffffffffffffffffffffffffff16815260200190815260200160002060009054906101000a900460ff161562000d66576040517f08c379a000000000000000000000000000000000000000000000000000000000815260040162000d5d9062001cd3565b60405180910390fd5b600354341462000dad576040517f08c379a000000000000000000000000000000000000000000000000000000000815260040162000da49062001d45565b60405180910390fd5b60008054906101000a900473ffffffffffffffffffffffffffffffffffffffff1673ffffffffffffffffffffffffffffffffffffffff166108fc349081150290604051600060405180830381858888f1935050505015801562000e14573d6000803e3d6000fd5b5060003360076005600660405162000e2c906200105f565b62000e3b949392919062001df7565b604051809103906000f08015801562000e58573d6000803e3d6000fd5b5090506008819080600181540180825580915050600190039060005260206000200160009091909190916101000a81548173ffffffffffffffffffffffffffffffffffffffff021916908373ffffffffffffffffffffffffffffffffffffffff1602179055506001600260003373ffffffffffffffffffffffffffffffffffffffff1673ffffffffffffffffffffffffffffffffffffffff16815260200190815260200160002060006101000a81548160ff0219169083151502179055508073ffffffffffffffffffffffffffffffffffffffff163373ffffffffffffffffffffffffffffffffffffffff167f706b8ef835c24b521d1f532df9a3cb5d89541f52b03fbe298e8a6aff50cbc39360405160405180910390a350565b6005805462000f8290620017a8565b80601f016020809104026020016040519081016040528092919081815260200182805462000fb090620017a8565b8015620010015780601f1062000fd55761010080835404028352916020019162001001565b820191906000526020600020905b81548152906001019060200180831162000fe357829003601f168201915b505050505081565b6000600160008373ffffffffffffffffffffffffffffffffffffffff1673ffffffffffffffffffffffffffffffffffffffff16815260200190815260200160002060009054906101000a900460ff169050919050565b6117a98062001e5a83390190565b6000604051905090565b600080fd5b600080fd5b600080fd5b600080fd5b6000601f19601f8301169050919050565b7f4e487b7100000000000000000000000000000000000000000000000000000000600052604160045260246000fd5b620010d6826200108b565b810181811067ffffffffffffffff82111715620010f857620010f76200109c565b5b80604052505050565b60006200110d6200106d565b90506200111b8282620010cb565b919050565b600067ffffffffffffffff8211156200113e576200113d6200109c565b5b62001149826200108b565b9050602081019050919050565b82818337600083830152505050565b60006200117c620011768462001120565b62001101565b9050828152602081018484840111156200119b576200119a62001086565b5b620011a884828562001156565b509392505050565b600082601f830112620011c857620011c762001081565b5b8135620011da84826020860162001165565b91505092915050565b60008060408385031215620011fd57620011fc62001077565b5b600083013567ffffffffffffffff8111156200121e576200121d6200107c565b5b6200122c85828601620011b0565b925050602083013567ffffffffffffffff81111562001250576200124f6200107c565b5b6200125e85828601620011b0565b9150509250929050565b600081519050919050565b600082825260208201905092915050565b60005b83811015620012a457808201518184015260208101905062001287565b60008484015250505050565b6000620012bd8262001268565b620012c9818562001273565b9350620012db81856020860162001284565b620012e6816200108b565b840191505092915050565b600060208201905081810360008301526200130d8184620012b0565b905092915050565b600073ffffffffffffffffffffffffffffffffffffffff82169050919050565b6000620013428262001315565b9050919050565b620013548162001335565b82525050565b600060208201905062001371600083018462001349565b92915050565b6000819050919050565b6200138c8162001377565b82525050565b6000602082019050620013a9600083018462001381565b92915050565b600081519050919050565b600082825260208201905092915050565b6000819050602082019050919050565b600082825260208201905092915050565b6000620013f98262001268565b620014058185620013db565b93506200141781856020860162001284565b62001422816200108b565b840191505092915050565b620014388162001335565b82525050565b620014498162001377565b82525050565b600060808301600083015184820360008601526200146e8282620013ec565b91505060208301516200148560208601826200142d565b50604083015184820360408601526200149f8282620013ec565b9150506060830151620014b660608601826200143e565b508091505092915050565b6000620014cf83836200144f565b905092915050565b6000602082019050919050565b6000620014f182620013af565b620014fd8185620013ba565b9350836020820285016200151185620013cb565b8060005b85811015620015535784840389528151620015318582620014c1565b94506200153e83620014d7565b925060208a0199505060018101905062001515565b50829750879550505050505092915050565b60006020820190508181036000830152620015818184620014e4565b905092915050565b600081519050919050565b600082825260208201905092915050565b6000819050602082019050919050565b6000620015c383836200142d565b60208301905092915050565b6000602082019050919050565b6000620015e98262001589565b620015f5818562001594565b93506200160283620015a5565b8060005b83811015620016395781516200161d8882620015b5565b97506200162a83620015cf565b92505060018101905062001606565b5085935050505092915050565b60006020820190508181036000830152620016628184620015dc565b905092915050565b620016758162001335565b81146200168157600080fd5b50565b60008135905062001695816200166a565b92915050565b600060208284031215620016b457620016b362001077565b5b6000620016c48482850162001684565b91505092915050565b60008115159050919050565b620016e481620016cd565b82525050565b6000602082019050620017016000830184620016d9565b92915050565b7f5573657220697320616c72656164792061206d656d6265720000000000000000600082015250565b60006200173f60188362001273565b91506200174c8262001707565b602082019050919050565b60006020820190508181036000830152620017728162001730565b9050919050565b7f4e487b7100000000000000000000000000000000000000000000000000000000600052602260045260246000fd5b60006002820490506001821680620017c157607f821691505b602082108103620017d757620017d662001779565b5b50919050565b60008190508160005260206000209050919050565b60006020601f8301049050919050565b600082821b905092915050565b600060088302620018417fffffffffffffffffffffffffffffffffffffffffffffffffffffffffffffffff8262001802565b6200184d868362001802565b95508019841693508086168417925050509392505050565b6000819050919050565b6000620018906200188a620018848462001377565b62001865565b62001377565b9050919050565b6000819050919050565b620018ac836200186f565b620018c4620018bb8262001897565b8484546200180f565b825550505050565b600090565b620018db620018cc565b620018e8818484620018a1565b505050565b5b81811015620019105762001904600082620018d1565b600181019050620018ee565b5050565b601f8211156200195f576200192981620017dd565b6200193484620017f2565b8101602085101562001944578190505b6200195c6200195385620017f2565b830182620018ed565b50505b505050565b600082821c905092915050565b6000620019846000198460080262001964565b1980831691505092915050565b60006200199f838362001971565b9150826002028217905092915050565b620019ba8262001268565b67ffffffffffffffff811115620019d657620019d56200109c565b5b620019e28254620017a8565b620019ef82828562001914565b600060209050601f83116001811462001a27576000841562001a12578287015190505b62001a1e858262001991565b86555062001a8e565b601f19841662001a3786620017dd565b60005b8281101562001a615784890151825560018201915060208501945060208101905062001a3a565b8683101562001a81578489015162001a7d601f89168262001971565b8355505b6001600288020188555050505b505050505050565b6000606082019050818103600083015262001ab28186620012b0565b9050818103602083015262001ac88185620012b0565b905062001ad9604083018462001381565b949350505050565b7f4f6e6c79206d656d626572732063616e2073656e64206d657373616765730000600082015250565b600062001b19601e8362001273565b915062001b268262001ae1565b602082019050919050565b6000602082019050818103600083015262001b4c8162001b0a565b9050919050565b7f55736572206973206e6f742061206d656d626572000000000000000000000000600082015250565b600062001b8b60148362001273565b915062001b988262001b53565b602082019050919050565b6000602082019050818103600083015262001bbe8162001b7c565b9050919050565b7f55736572206973206e6f742061206d656d626572206f662074686520636f6d6d60008201527f756e6974792e0000000000000000000000000000000000000000000000000000602082015250565b600062001c2360268362001273565b915062001c308262001bc5565b604082019050919050565b6000602082019050818103600083015262001c568162001c14565b9050919050565b7f5573657220616c726561647920686173206120706572736f6e616c206173736960008201527f7374616e742e0000000000000000000000000000000000000000000000000000602082015250565b600062001cbb60268362001273565b915062001cc88262001c5d565b604082019050919050565b6000602082019050818103600083015262001cee8162001cac565b9050919050565b7f496e636f7272656374207061796d656e7420616d6f756e742e00000000000000600082015250565b600062001d2d60198362001273565b915062001d3a8262001cf5565b602082019050919050565b6000602082019050818103600083015262001d608162001d1e565b9050919050565b6000815462001d7681620017a8565b62001d82818662001273565b9450600182166000811462001da0576001811462001db75762001dee565b60ff19831686528115156020028601935062001dee565b62001dc285620017dd565b60005b8381101562001de65781548189015260018201915060208101905062001dc5565b808801955050505b50505092915050565b600060808201905062001e0e600083018762001349565b818103602083015262001e22818662001d67565b9050818103604083015262001e38818562001d67565b9050818103606083015262001e4e818462001d67565b90509594505050505056fe60806040523480156200001157600080fd5b50604051620017a9380380620017a98339818101604052810190620000379190620002af565b836000806101000a81548173ffffffffffffffffffffffffffffffffffffffff021916908373ffffffffffffffffffffffffffffffffffffffff1602179055508260039081620000889190620005c9565b5081600190816200009a9190620005c9565b508060029081620000ac9190620005c9565b5050505050620006b0565b6000604051905090565b600080fd5b600080fd5b600073ffffffffffffffffffffffffffffffffffffffff82169050919050565b6000620000f882620000cb565b9050919050565b6200010a81620000eb565b81146200011657600080fd5b50565b6000815190506200012a81620000ff565b92915050565b600080fd5b600080fd5b6000601f19601f8301169050919050565b7f4e487b7100000000000000000000000000000000000000000000000000000000600052604160045260246000fd5b62000185826200013a565b810181811067ffffffffffffffff82111715620001a757620001a66200014b565b5b80604052505050565b6000620001bc620000b7565b9050620001ca82826200017a565b919050565b600067ffffffffffffffff821115620001ed57620001ec6200014b565b5b620001f8826200013a565b9050602081019050919050565b60005b838110156200022557808201518184015260208101905062000208565b60008484015250505050565b6000620002486200024284620001cf565b620001b0565b90508281526020810184848401111562000267576200026662000135565b5b6200027484828562000205565b509392505050565b600082601f83011262000294576200029362000130565b5b8151620002a684826020860162000231565b91505092915050565b60008060008060808587031215620002cc57620002cb620000c1565b5b6000620002dc8782880162000119565b945050602085015167ffffffffffffffff8111156200030057620002ff620000c6565b5b6200030e878288016200027c565b935050604085015167ffffffffffffffff811115620003325762000331620000c6565b5b62000340878288016200027c565b925050606085015167ffffffffffffffff811115620003645762000363620000c6565b5b62000372878288016200027c565b91505092959194509250565b600081519050919050565b7f4e487b7100000000000000000000000000000000000000000000000000000000600052602260045260246000fd5b60006002820490506001821680620003d157607f821691505b602082108103620003e757620003e662000389565b5b50919050565b60008190508160005260206000209050919050565b60006020601f8301049050919050565b600082821b905092915050565b600060088302620004517fffffffffffffffffffffffffffffffffffffffffffffffffffffffffffffffff8262000412565b6200045d868362000412565b95508019841693508086168417925050509392505050565b6000819050919050565b6000819050919050565b6000620004aa620004a46200049e8462000475565b6200047f565b62000475565b9050919050565b6000819050919050565b620004c68362000489565b620004de620004d582620004b1565b8484546200041f565b825550505050565b600090565b620004f5620004e6565b62000502818484620004bb565b505050565b5b818110156200052a576200051e600082620004eb565b60018101905062000508565b5050565b601f82111562000579576200054381620003ed565b6200054e8462000402565b810160208510156200055e578190505b620005766200056d8562000402565b83018262000507565b50505b505050565b600082821c905092915050565b60006200059e600019846008026200057e565b1980831691505092915050565b6000620005b983836200058b565b9150826002028217905092915050565b620005d4826200037e565b67ffffffffffffffff811115620005f057620005ef6200014b565b5b620005fc8254620003b8565b620006098282856200052e565b600060209050601f8311600181146200064157600084156200062c578287015190505b620006388582620005ab565b865550620006a8565b601f1984166200065186620003ed565b60005b828110156200067b5784890151825560018201915060208501945060208101905062000654565b868310156200069b578489015162000697601f8916826200058b565b8355505b6001600288020188555050505b505050505050565b6110e980620006c06000396000f3fe608060405234801561001057600080fd5b50600436106100625760003560e01c8063092b300e14610067578063467fba0f146100835780635ff6cbf31461009f5780638da5cb5b146100bd578063b9e59600146100db578063c6d572ae146100f9575b600080fd5b610081600480360381019061007c91906109ba565b610117565b005b61009d600480360381019061009891906109ba565b6102e4565b005b6100a76104af565b6040516100b49190610c37565b60405180910390f35b6100c5610720565b6040516100d29190610c68565b60405180910390f35b6100e3610744565b6040516100f09190610ccd565b60405180910390f35b6101016107d2565b60405161010e9190610ccd565b60405180910390f35b60008054906101000a900473ffffffffffffffffffffffffffffffffffffffff1673ffffffffffffffffffffffffffffffffffffffff163373ffffffffffffffffffffffffffffffffffffffff16146101a5576040517f08c379a000000000000000000000000000000000000000000000000000000000815260040161019c90610d61565b60405180910390fd5b60006040518060800160405280848152602001600073ffffffffffffffffffffffffffffffffffffffff168152602001838152602001428152509050600481908060018154018082558091505060019003906000526020600020906004020160009091909190915060008201518160000190816102229190610f8d565b5060208201518160010160006101000a81548173ffffffffffffffffffffffffffffffffffffffff021916908373ffffffffffffffffffffffffffffffffffffffff160217905550604082015181600201908161027f9190610f8d565b50606082015181600301555050600073ffffffffffffffffffffffffffffffffffffffff167fe89e2f68b504e014dcbd447cc8d1d45903e27deb2a197f25b6dc81698a0ce5598484426040516102d79392919061106e565b60405180910390a2505050565b60008054906101000a900473ffffffffffffffffffffffffffffffffffffffff1673ffffffffffffffffffffffffffffffffffffffff163373ffffffffffffffffffffffffffffffffffffffff1614610372576040517f08c379a000000000000000000000000000000000000000000000000000000000815260040161036990610d61565b60405180910390fd5b600060405180608001604052808481526020013373ffffffffffffffffffffffffffffffffffffffff168152602001838152602001428152509050600481908060018154018082558091505060019003906000526020600020906004020160009091909190915060008201518160000190816103ee9190610f8d565b5060208201518160010160006101000a81548173ffffffffffffffffffffffffffffffffffffffff021916908373ffffffffffffffffffffffffffffffffffffffff160217905550604082015181600201908161044b9190610f8d565b506060820151816003015550503373ffffffffffffffffffffffffffffffffffffffff167fe89e2f68b504e014dcbd447cc8d1d45903e27deb2a197f25b6dc81698a0ce5598484426040516104a29392919061106e565b60405180910390a2505050565b606060008054906101000a900473ffffffffffffffffffffffffffffffffffffffff1673ffffffffffffffffffffffffffffffffffffffff163373ffffffffffffffffffffffffffffffffffffffff161461053f576040517f08c379a000000000000000000000000000000000000000000000000000000000815260040161053690610d61565b60405180910390fd5b6004805480602002602001604051908101604052809291908181526020016000905b82821015610717578382906000526020600020906004020160405180608001604052908160008201805461059490610db0565b80601f01602080910402602001604051908101604052809291908181526020018280546105c090610db0565b801561060d5780601f106105e25761010080835404028352916020019161060d565b820191906000526020600020905b8154815290600101906020018083116105f057829003601f168201915b505050505081526020016001820160009054906101000a900473ffffffffffffffffffffffffffffffffffffffff1673ffffffffffffffffffffffffffffffffffffffff1673ffffffffffffffffffffffffffffffffffffffff16815260200160028201805461067c90610db0565b80601f01602080910402602001604051908101604052809291908181526020018280546106a890610db0565b80156106f55780601f106106ca576101008083540402835291602001916106f5565b820191906000526020600020905b8154815290600101906020018083116106d857829003601f168201915b5050505050815260200160038201548152505081526020019060010190610561565b50505050905090565b60008054906101000a900473ffffffffffffffffffffffffffffffffffffffff1681565b6002805461075190610db0565b80601f016020809104026020016040519081016040528092919081815260200182805461077d90610db0565b80156107ca5780601f1061079f576101008083540402835291602001916107ca565b820191906000526020600020905b8154815290600101906020018083116107ad57829003601f168201915b505050505081565b600180546107df90610db0565b80601f016020809104026020016040519081016040528092919081815260200182805461080b90610db0565b80156108585780601f1061082d57610100808354040283529160200191610858565b820191906000526020600020905b81548152906001019060200180831161083b57829003601f168201915b505050505081565b6000604051905090565b600080fd5b600080fd5b600080fd5b600080fd5b6000601f19601f8301169050919050565b7f4e487b7100000000000000000000000000000000000000000000000000000000600052604160045260246000fd5b6108c78261087e565b810181811067ffffffffffffffff821117156108e6576108e561088f565b5b80604052505050565b60006108f9610860565b905061090582826108be565b919050565b600067ffffffffffffffff8211156109255761092461088f565b5b61092e8261087e565b9050602081019050919050565b82818337600083830152505050565b600061095d6109588461090a565b6108ef565b90508281526020810184848401111561097957610978610879565b5b61098484828561093b565b509392505050565b600082601f8301126109a1576109a0610874565b5b81356109b184826020860161094a565b91505092915050565b600080604083850312156109d1576109d061086a565b5b600083013567ffffffffffffffff8111156109ef576109ee61086f565b5b6109fb8582860161098c565b925050602083013567ffffffffffffffff811115610a1c57610a1b61086f565b5b610a288582860161098c565b9150509250929050565b600081519050919050565b600082825260208201905092915050565b6000819050602082019050919050565b600081519050919050565b600082825260208201905092915050565b60005b83811015610a98578082015181840152602081019050610a7d565b60008484015250505050565b6000610aaf82610a5e565b610ab98185610a69565b9350610ac9818560208601610a7a565b610ad28161087e565b840191505092915050565b600073ffffffffffffffffffffffffffffffffffffffff82169050919050565b6000610b0882610add565b9050919050565b610b1881610afd565b82525050565b6000819050919050565b610b3181610b1e565b82525050565b60006080830160008301518482036000860152610b548282610aa4565b9150506020830151610b696020860182610b0f565b5060408301518482036040860152610b818282610aa4565b9150506060830151610b966060860182610b28565b508091505092915050565b6000610bad8383610b37565b905092915050565b6000602082019050919050565b6000610bcd82610a32565b610bd78185610a3d565b935083602082028501610be985610a4e565b8060005b85811015610c255784840389528151610c068582610ba1565b9450610c1183610bb5565b925060208a01995050600181019050610bed565b50829750879550505050505092915050565b60006020820190508181036000830152610c518184610bc2565b905092915050565b610c6281610afd565b82525050565b6000602082019050610c7d6000830184610c59565b92915050565b600082825260208201905092915050565b6000610c9f82610a5e565b610ca98185610c83565b9350610cb9818560208601610a7a565b610cc28161087e565b840191505092915050565b60006020820190508181036000830152610ce78184610c94565b905092915050565b7f4f6e6c79206f776e65722063616e20696e74657261637420776974682074686560008201527f20617373697374616e742e000000000000000000000000000000000000000000602082015250565b6000610d4b602b83610c83565b9150610d5682610cef565b604082019050919050565b60006020820190508181036000830152610d7a81610d3e565b9050919050565b7f4e487b7100000000000000000000000000000000000000000000000000000000600052602260045260246000fd5b60006002820490506001821680610dc857607f821691505b602082108103610ddb57610dda610d81565b5b50919050565b60008190508160005260206000209050919050565b60006020601f8301049050919050565b600082821b905092915050565b600060088302610e437fffffffffffffffffffffffffffffffffffffffffffffffffffffffffffffffff82610e06565b610e4d8683610e06565b95508019841693508086168417925050509392505050565b6000819050919050565b6000610e8a610e85610e8084610b1e565b610e65565b610b1e565b9050919050565b6000819050919050565b610ea483610e6f565b610eb8610eb082610e91565b848454610e13565b825550505050565b600090565b610ecd610ec0565b610ed8818484610e9b565b505050565b5b81811015610efc57610ef1600082610ec5565b600181019050610ede565b5050565b601f821115610f4157610f1281610de1565b610f1b84610df6565b81016020851015610f2a578190505b610f3e610f3685610df6565b830182610edd565b50505b505050565b600082821c905092915050565b6000610f6460001984600802610f46565b1980831691505092915050565b6000610f7d8383610f53565b9150826002028217905092915050565b610f9682610a5e565b67ffffffffffffffff811115610faf57610fae61088f565b5b610fb98254610db0565b610fc4828285610f00565b600060209050601f831160018114610ff75760008415610fe5578287015190505b610fef8582610f71565b865550611057565b601f19841661100586610de1565b60005b8281101561102d57848901518255600182019150602085019450602081019050611008565b8683101561104a5784890151611046601f891682610f53565b8355505b6001600288020188555050505b505050505050565b61106881610b1e565b82525050565b600060608201905081810360008301526110888186610c94565b9050818103602083015261109c8185610c94565b90506110ab604083018461105f565b94935050505056fea26469706673582212202beea269df91c9d08b120e04ea42cd8aacda2702e7254d15c7a11e248aea4d0e64736f6c63430008140033a2646970667358221220752ea86c0fce27a7eae1c44398bde1bf337ea124875ef660f2ea07712c5ae92664736f6c63430008140033",
  "linkReferences": {},
  "deployedLinkReferences": {}
}