{
  "_format": "hh-sol-artifact-1",
  "contractName": "CommunityRoom",
  "sourceName": "contracts/CommunityRoom.sol",
  "abi": [
    {
      "inputs": [
        {
          "internalType": "address",
          "name": "_creator",
          "type": "address"
        },
        {
          "internalType": "string",
          "name": "_communityName",
          "type": "string"
        },
        {
          "internalType": "string",
          "name": "_communityLogo",
          "type": "string"
        },
        {
          "internalType": "string",
          "name": "_systemPrompt",
          "type": "string"
        },
        {
          "internalType": "uint256",
          "name": "_assistantUnlockCost",
          "type": "uint256"
        }
      ],
      "stateMutability": "nonpayable",
      "type": "constructor"
    },
    {
      "anonymous": false,
      "inputs": [
        {
          "indexed": true,
          "internalType": "address",
          "name": "user",
          "type": "address"
        }
      ],
      "name": "MemberJoined",
      "type": "event"
    },
    {
      "anonymous": false,
      "inputs": [
        {
          "indexed": true,
          "internalType": "address",
          "name": "user",
          "type": "address"
        }
      ],
      "name": "MemberLeft",
      "type": "event"
    },
    {
      "anonymous": false,
      "inputs": [
        {
          "indexed": true,
          "internalType": "address",
          "name": "user",
          "type": "address"
        },
        {
          "indexed": false,
          "internalType": "string",
          "name": "text",
          "type": "string"
        },
        {
          "indexed": false,
          "internalType": "string",
          "name": "ipfsImageUrl",
          "type": "string"
        },
        {
          "indexed": false,
          "internalType": "uint256",
          "name": "timestamp",
          "type": "uint256"
        }
      ],
      "name": "MessageSent",
      "type": "event"
    },
    {
      "anonymous": false,
      "inputs": [
        {
          "indexed": true,
          "internalType": "address",
          "name": "user",
          "type": "address"
        },
        {
          "indexed": true,
          "internalType": "address",
          "name": "assistantAddress",
          "type": "address"
        }
      ],
      "name": "PersonalAssistantUnlocked",
      "type": "event"
    },
    {
      "inputs": [
        {
          "internalType": "string",
          "name": "_text",
          "type": "string"
        },
        {
          "internalType": "string",
          "name": "_ipfsImageUrl",
          "type": "string"
        }
      ],
      "name": "aiSendMessage",
      "outputs": [],
      "stateMutability": "nonpayable",
      "type": "function"
    },
    {
      "inputs": [],
      "name": "assistantUnlockCostInEth",
      "outputs": [
        {
          "internalType": "uint256",
          "name": "",
          "type": "uint256"
        }
      ],
      "stateMutability": "view",
      "type": "function"
    },
    {
      "inputs": [],
      "name": "communityLogo",
      "outputs": [
        {
          "internalType": "string",
          "name": "",
          "type": "string"
        }
      ],
      "stateMutability": "view",
      "type": "function"
    },
    {
      "inputs": [],
      "name": "communityName",
      "outputs": [
        {
          "internalType": "string",
          "name": "",
          "type": "string"
        }
      ],
      "stateMutability": "view",
      "type": "function"
    },
    {
      "inputs": [],
      "name": "createdBy",
      "outputs": [
        {
          "internalType": "address",
          "name": "",
          "type": "address"
        }
      ],
      "stateMutability": "view",
      "type": "function"
    },
    {
      "inputs": [],
      "name": "getDeployedPersonalAssistants",
      "outputs": [
        {
          "internalType": "address[]",
          "name": "",
          "type": "address[]"
        }
      ],
      "stateMutability": "view",
      "type": "function"
    },
    {
      "inputs": [
        {
          "internalType": "address",
          "name": "_user",
          "type": "address"
        }
      ],
      "name": "getMemberStatus",
      "outputs": [
        {
          "internalType": "bool",
          "name": "",
          "type": "bool"
        }
      ],
      "stateMutability": "view",
      "type": "function"
    },
    {
      "inputs": [],
      "name": "getMessages",
      "outputs": [
        {
          "components": [
            {
              "internalType": "string",
              "name": "text",
              "type": "string"
            },
            {
              "internalType": "address",
              "name": "userAddress",
              "type": "address"
            },
            {
              "internalType": "string",
              "name": "ipfsImageUrl",
              "type": "string"
            },
            {
              "internalType": "uint256",
              "name": "timestamp",
              "type": "uint256"
            }
          ],
          "internalType": "struct CommunityRoom.Message[]",
          "name": "",
          "type": "tuple[]"
        }
      ],
      "stateMutability": "view",
      "type": "function"
    },
    {
      "inputs": [],
      "name": "joinCommunity",
      "outputs": [],
      "stateMutability": "nonpayable",
      "type": "function"
    },
    {
      "inputs": [],
      "name": "leaveCommunity",
      "outputs": [],
      "stateMutability": "nonpayable",
      "type": "function"
    },
    {
      "inputs": [],
      "name": "systemPrompt",
      "outputs": [
        {
          "internalType": "string",
          "name": "",
          "type": "string"
        }
      ],
      "stateMutability": "view",
      "type": "function"
    },
    {
      "inputs": [],
      "name": "unlockPersonalAssistant",
      "outputs": [],
      "stateMutability": "payable",
      "type": "function"
    },
    {
      "inputs": [
        {
          "internalType": "string",
          "name": "_text",
          "type": "string"
        },
        {
          "internalType": "string",
          "name": "_ipfsImageUrl",
          "type": "string"
        }
      ],
      "name": "userSendMessage",
      "outputs": [],
      "stateMutability": "nonpayable",
      "type": "function"
    }
  ],
  "bytecode": "0x60806040523480156200001157600080fd5b50604051620034243803806200342483398181016040528101906200003791906200027b565b846000806101000a81548173ffffffffffffffffffffffffffffffffffffffff021916908373ffffffffffffffffffffffffffffffffffffffff16021790555083600590805190602001906200008f9291906200012b565b508260069080519060200190620000a89291906200012b565b508160079080519060200190620000c19291906200012b565b5060018060008773ffffffffffffffffffffffffffffffffffffffff1673ffffffffffffffffffffffffffffffffffffffff16815260200190815260200160002060006101000a81548160ff021916908315150217905550806003819055505050505050620004eb565b828054620001399062000423565b90600052602060002090601f0160209004810192826200015d5760008555620001a9565b82601f106200017857805160ff1916838001178555620001a9565b82800160010185558215620001a9579182015b82811115620001a85782518255916020019190600101906200018b565b5b509050620001b89190620001bc565b5090565b5b80821115620001d7576000816000905550600101620001bd565b5090565b6000620001f2620001ec846200037c565b62000348565b9050828152602081018484840111156200020b57600080fd5b62000218848285620003ed565b509392505050565b6000815190506200023181620004b7565b92915050565b600082601f8301126200024957600080fd5b81516200025b848260208601620001db565b91505092915050565b6000815190506200027581620004d1565b92915050565b600080600080600060a086880312156200029457600080fd5b6000620002a48882890162000220565b955050602086015167ffffffffffffffff811115620002c257600080fd5b620002d08882890162000237565b945050604086015167ffffffffffffffff811115620002ee57600080fd5b620002fc8882890162000237565b935050606086015167ffffffffffffffff8111156200031a57600080fd5b620003288882890162000237565b92505060806200033b8882890162000264565b9150509295509295909350565b6000604051905081810181811067ffffffffffffffff8211171562000372576200037162000488565b5b8060405250919050565b600067ffffffffffffffff8211156200039a576200039962000488565b5b601f19601f8301169050602081019050919050565b6000620003bc82620003c3565b9050919050565b600073ffffffffffffffffffffffffffffffffffffffff82169050919050565b6000819050919050565b60005b838110156200040d578082015181840152602081019050620003f0565b838111156200041d576000848401525b50505050565b600060028204905060018216806200043c57607f821691505b6020821081141562000453576200045262000459565b5b50919050565b7f4e487b7100000000000000000000000000000000000000000000000000000000600052602260045260246000fd5b7f4e487b7100000000000000000000000000000000000000000000000000000000600052604160045260246000fd5b620004c281620003af565b8114620004ce57600080fd5b50565b620004dc81620003e3565b8114620004e857600080fd5b50565b612f2980620004fb6000396000f3fe608060405260043610620000d35760003560e01c80635e164843116200008b578063b9e596001162000061578063b9e596001462000258578063be52ab661462000288578063c6d572ae1462000294578063dde8535f14620002c457620000d3565b80635e16484314620001de5780635ff6cbf314620001f857806368a549e8146200022857620000d3565b8062b16fee14620000d8578063092b300e14620000f25780632662ad0014620001205780632dd2bd44146200014e5780633a5673a4146200017e5780634559a90414620001ae575b600080fd5b348015620000e557600080fd5b50620000f062000308565b005b348015620000ff57600080fd5b506200011e6004803603810190620001189190620011ee565b62000434565b005b3480156200012d57600080fd5b506200014c6004803603810190620001469190620011ee565b62000581565b005b3480156200015b57600080fd5b50620001666200075b565b6040516200017591906200180d565b60405180910390f35b3480156200018b57600080fd5b5062000196620007f1565b604051620001a5919062001729565b60405180910390f35b348015620001bb57600080fd5b50620001c662000815565b604051620001d5919062001948565b60405180910390f35b348015620001eb57600080fd5b50620001f66200081b565b005b3480156200020557600080fd5b506200021062000947565b6040516200021f9190620017cc565b60405180910390f35b3480156200023557600080fd5b506200024062000b3c565b6040516200024f9190620017a8565b60405180910390f35b3480156200026557600080fd5b506200027062000bcc565b6040516200027f91906200180d565b60405180910390f35b6200029262000c62565b005b348015620002a157600080fd5b50620002ac62000f8f565b604051620002bb91906200180d565b60405180910390f35b348015620002d157600080fd5b50620002f06004803603810190620002ea9190620011c2565b62001025565b604051620002ff9190620017f0565b60405180910390f35b600160003373ffffffffffffffffffffffffffffffffffffffff1673ffffffffffffffffffffffffffffffffffffffff16815260200190815260200160002060009054906101000a900460ff161562000398576040517f08c379a00000000000000000000000000000000000000000000000000000000081526004016200038f9062001904565b60405180910390fd5b60018060003373ffffffffffffffffffffffffffffffffffffffff1673ffffffffffffffffffffffffffffffffffffffff16815260200190815260200160002060006101000a81548160ff0219169083151502179055503373ffffffffffffffffffffffffffffffffffffffff167f0abf3b3f643594d958297062a019458e27d7766629590ac621aa1000fa1298ab60405160405180910390a2565b60046040518060800160405280848152602001600073ffffffffffffffffffffffffffffffffffffffff1681526020018381526020014281525090806001815401808255809150506001900390600052602060002090600402016000909190919091506000820151816000019080519060200190620004b59291906200107b565b5060208201518160010160006101000a81548173ffffffffffffffffffffffffffffffffffffffff021916908373ffffffffffffffffffffffffffffffffffffffff16021790555060408201518160020190805190602001906200051b9291906200107b565b50606082015181600301555050600073ffffffffffffffffffffffffffffffffffffffff167fe89e2f68b504e014dcbd447cc8d1d45903e27deb2a197f25b6dc81698a0ce559838342604051620005759392919062001831565b60405180910390a25050565b600160003373ffffffffffffffffffffffffffffffffffffffff1673ffffffffffffffffffffffffffffffffffffffff16815260200190815260200160002060009054906101000a900460ff1662000610576040517f08c379a00000000000000000000000000000000000000000000000000000000081526004016200060790620018c0565b60405180910390fd5b600460405180608001604052808481526020013373ffffffffffffffffffffffffffffffffffffffff1681526020018381526020014281525090806001815401808255809150506001900390600052602060002090600402016000909190919091506000820151816000019080519060200190620006909291906200107b565b5060208201518160010160006101000a81548173ffffffffffffffffffffffffffffffffffffffff021916908373ffffffffffffffffffffffffffffffffffffffff1602179055506040820151816002019080519060200190620006f69291906200107b565b506060820151816003015550503373ffffffffffffffffffffffffffffffffffffffff167fe89e2f68b504e014dcbd447cc8d1d45903e27deb2a197f25b6dc81698a0ce5598383426040516200074f9392919062001831565b60405180910390a25050565b600780546200076a9062001b0f565b80601f0160208091040260200160405190810160405280929190818152602001828054620007989062001b0f565b8015620007e95780601f10620007bd57610100808354040283529160200191620007e9565b820191906000526020600020905b815481529060010190602001808311620007cb57829003601f168201915b505050505081565b60008054906101000a900473ffffffffffffffffffffffffffffffffffffffff1681565b60035481565b600160003373ffffffffffffffffffffffffffffffffffffffff1673ffffffffffffffffffffffffffffffffffffffff16815260200190815260200160002060009054906101000a900460ff16620008aa576040517f08c379a0000000000000000000000000000000000000000000000000000000008152600401620008a1906200189e565b60405180910390fd5b6000600160003373ffffffffffffffffffffffffffffffffffffffff1673ffffffffffffffffffffffffffffffffffffffff16815260200190815260200160002060006101000a81548160ff0219169083151502179055503373ffffffffffffffffffffffffffffffffffffffff167fbea911b50ccdd2233b28faa49766c3cbd0631608f32e5a724d7b83b32b681ad060405160405180910390a2565b60606004805480602002602001604051908101604052809291908181526020016000905b8282101562000b335783829060005260206000209060040201604051806080016040529081600082018054620009a19062001b0f565b80601f0160208091040260200160405190810160405280929190818152602001828054620009cf9062001b0f565b801562000a205780601f10620009f45761010080835404028352916020019162000a20565b820191906000526020600020905b81548152906001019060200180831162000a0257829003601f168201915b505050505081526020016001820160009054906101000a900473ffffffffffffffffffffffffffffffffffffffff1673ffffffffffffffffffffffffffffffffffffffff1673ffffffffffffffffffffffffffffffffffffffff16815260200160028201805462000a919062001b0f565b80601f016020809104026020016040519081016040528092919081815260200182805462000abf9062001b0f565b801562000b105780601f1062000ae45761010080835404028352916020019162000b10565b820191906000526020600020905b81548152906001019060200180831162000af257829003601f168201915b50505050508152602001600382015481525050815260200190600101906200096b565b50505050905090565b6060600880548060200260200160405190810160405280929190818152602001828054801562000bc257602002820191906000526020600020905b8160009054906101000a900473ffffffffffffffffffffffffffffffffffffffff1673ffffffffffffffffffffffffffffffffffffffff168152602001906001019080831162000b77575b5050505050905090565b6006805462000bdb9062001b0f565b80601f016020809104026020016040519081016040528092919081815260200182805462000c099062001b0f565b801562000c5a5780601f1062000c2e5761010080835404028352916020019162000c5a565b820191906000526020600020905b81548152906001019060200180831162000c3c57829003601f168201915b505050505081565b600160003373ffffffffffffffffffffffffffffffffffffffff1673ffffffffffffffffffffffffffffffffffffffff16815260200190815260200160002060009054906101000a900460ff161562000cf2576040517f08c379a000000000000000000000000000000000000000000000000000000000815260040162000ce99062001926565b60405180910390fd5b600260003373ffffffffffffffffffffffffffffffffffffffff1673ffffffffffffffffffffffffffffffffffffffff16815260200190815260200160002060009054906101000a900460ff161562000d82576040517f08c379a000000000000000000000000000000000000000000000000000000000815260040162000d79906200187c565b60405180910390fd5b600354341462000dc9576040517f08c379a000000000000000000000000000000000000000000000000000000000815260040162000dc090620018e2565b60405180910390fd5b60008054906101000a900473ffffffffffffffffffffffffffffffffffffffff1673ffffffffffffffffffffffffffffffffffffffff166108fc349081150290604051600060405180830381858888f1935050505015801562000e30573d6000803e3d6000fd5b5060003360076005600660405162000e48906200110c565b62000e57949392919062001746565b604051809103906000f08015801562000e74573d6000803e3d6000fd5b5090506008819080600181540180825580915050600190039060005260206000200160009091909190916101000a81548173ffffffffffffffffffffffffffffffffffffffff021916908373ffffffffffffffffffffffffffffffffffffffff1602179055506001600260003373ffffffffffffffffffffffffffffffffffffffff1673ffffffffffffffffffffffffffffffffffffffff16815260200190815260200160002060006101000a81548160ff0219169083151502179055508073ffffffffffffffffffffffffffffffffffffffff163373ffffffffffffffffffffffffffffffffffffffff167f706b8ef835c24b521d1f532df9a3cb5d89541f52b03fbe298e8a6aff50cbc39360405160405180910390a350565b6005805462000f9e9062001b0f565b80601f016020809104026020016040519081016040528092919081815260200182805462000fcc9062001b0f565b80156200101d5780601f1062000ff1576101008083540402835291602001916200101d565b820191906000526020600020905b81548152906001019060200180831162000fff57829003601f168201915b505050505081565b6000600160008373ffffffffffffffffffffffffffffffffffffffff1673ffffffffffffffffffffffffffffffffffffffff16815260200190815260200160002060009054906101000a900460ff169050919050565b828054620010899062001b0f565b90600052602060002090601f016020900481019282620010ad5760008555620010f9565b82601f10620010c857805160ff1916838001178555620010f9565b82800160010185558215620010f9579182015b82811115620010f8578251825591602001919060010190620010db565b5b5090506200110891906200111a565b5090565b6113258062001bcf83390190565b5b80821115620011355760008160009055506001016200111b565b5090565b6000620011506200114a8462001999565b62001965565b9050828152602081018484840111156200116957600080fd5b6200117684828562001aca565b509392505050565b6000813590506200118f8162001bb4565b92915050565b600082601f830112620011a757600080fd5b8135620011b984826020860162001139565b91505092915050565b600060208284031215620011d557600080fd5b6000620011e5848285016200117e565b91505092915050565b600080604083850312156200120257600080fd5b600083013567ffffffffffffffff8111156200121d57600080fd5b6200122b8582860162001195565b925050602083013567ffffffffffffffff8111156200124957600080fd5b620012578582860162001195565b9150509250929050565b60006200126f838362001291565b60208301905092915050565b600062001289838362001695565b905092915050565b6200129c8162001a80565b82525050565b620012ad8162001a80565b82525050565b6000620012c08262001a01565b620012cc818562001a3c565b9350620012d983620019cc565b8060005b8381101562001310578151620012f4888262001261565b9750620013018362001a22565b925050600181019050620012dd565b5085935050505092915050565b60006200132a8262001a0c565b62001336818562001a4d565b9350836020820285016200134a85620019dc565b8060005b858110156200138c57848403895281516200136a85826200127b565b9450620013778362001a2f565b925060208a019950506001810190506200134e565b50829750879550505050505092915050565b620013a98162001a94565b82525050565b6000620013bc8262001a17565b620013c8818562001a5e565b9350620013da81856020860162001ad9565b620013e58162001ba3565b840191505092915050565b6000620013fd8262001a17565b62001409818562001a6f565b93506200141b81856020860162001ad9565b620014268162001ba3565b840191505092915050565b60008154620014408162001b0f565b6200144c818662001a6f565b945060018216600081146200146a57600181146200147d57620014b4565b60ff1983168652602086019350620014b4565b6200148885620019ec565b60005b83811015620014ac578154818901526001820191506020810190506200148b565b808801955050505b50505092915050565b6000620014cc60268362001a6f565b91507f5573657220616c726561647920686173206120706572736f6e616c206173736960008301527f7374616e742e00000000000000000000000000000000000000000000000000006020830152604082019050919050565b60006200153460148362001a6f565b91507f55736572206973206e6f742061206d656d6265720000000000000000000000006000830152602082019050919050565b600062001576601e8362001a6f565b91507f4f6e6c79206d656d626572732063616e2073656e64206d6573736167657300006000830152602082019050919050565b6000620015b860198362001a6f565b91507f496e636f7272656374207061796d656e7420616d6f756e742e000000000000006000830152602082019050919050565b6000620015fa60188362001a6f565b91507f5573657220697320616c72656164792061206d656d62657200000000000000006000830152602082019050919050565b60006200163c60268362001a6f565b91507f55736572206973206e6f742061206d656d626572206f662074686520636f6d6d60008301527f756e6974792e00000000000000000000000000000000000000000000000000006020830152604082019050919050565b60006080830160008301518482036000860152620016b48282620013af565b9150506020830151620016cb602086018262001291565b5060408301518482036040860152620016e58282620013af565b9150506060830151620016fc606086018262001707565b508091505092915050565b620017128162001ac0565b82525050565b620017238162001ac0565b82525050565b6000602082019050620017406000830184620012a2565b92915050565b60006080820190506200175d6000830187620012a2565b818103602083015262001771818662001431565b9050818103604083015262001787818562001431565b905081810360608301526200179d818462001431565b905095945050505050565b60006020820190508181036000830152620017c48184620012b3565b905092915050565b60006020820190508181036000830152620017e881846200131d565b905092915050565b60006020820190506200180760008301846200139e565b92915050565b60006020820190508181036000830152620018298184620013f0565b905092915050565b600060608201905081810360008301526200184d8186620013f0565b90508181036020830152620018638185620013f0565b905062001874604083018462001718565b949350505050565b600060208201905081810360008301526200189781620014bd565b9050919050565b60006020820190508181036000830152620018b98162001525565b9050919050565b60006020820190508181036000830152620018db8162001567565b9050919050565b60006020820190508181036000830152620018fd81620015a9565b9050919050565b600060208201905081810360008301526200191f81620015eb565b9050919050565b6000602082019050818103600083015262001941816200162d565b9050919050565b60006020820190506200195f600083018462001718565b92915050565b6000604051905081810181811067ffffffffffffffff821117156200198f576200198e62001b74565b5b8060405250919050565b600067ffffffffffffffff821115620019b757620019b662001b74565b5b601f19601f8301169050602081019050919050565b6000819050602082019050919050565b6000819050602082019050919050565b60008190508160005260206000209050919050565b600081519050919050565b600081519050919050565b600081519050919050565b6000602082019050919050565b6000602082019050919050565b600082825260208201905092915050565b600082825260208201905092915050565b600082825260208201905092915050565b600082825260208201905092915050565b600062001a8d8262001aa0565b9050919050565b60008115159050919050565b600073ffffffffffffffffffffffffffffffffffffffff82169050919050565b6000819050919050565b82818337600083830152505050565b60005b8381101562001af957808201518184015260208101905062001adc565b8381111562001b09576000848401525b50505050565b6000600282049050600182168062001b2857607f821691505b6020821081141562001b3f5762001b3e62001b45565b5b50919050565b7f4e487b7100000000000000000000000000000000000000000000000000000000600052602260045260246000fd5b7f4e487b7100000000000000000000000000000000000000000000000000000000600052604160045260246000fd5b6000601f19601f8301169050919050565b62001bbf8162001a80565b811462001bcb57600080fd5b5056fe60806040523480156200001157600080fd5b506040516200132538038062001325833981810160405281019062000037919062000205565b836000806101000a81548173ffffffffffffffffffffffffffffffffffffffff021916908373ffffffffffffffffffffffffffffffffffffffff16021790555082600390805190602001906200008f929190620000cc565b508160019080519060200190620000a8929190620000cc565b508060029080519060200190620000c1929190620000cc565b50505050506200043b565b828054620000da906200038d565b90600052602060002090601f016020900481019282620000fe57600085556200014a565b82601f106200011957805160ff19168380011785556200014a565b828001600101855582156200014a579182015b82811115620001495782518255916020019190600101906200012c565b5b5090506200015991906200015d565b5090565b5b80821115620001785760008160009055506001016200015e565b5090565b6000620001936200018d84620002f0565b620002bc565b905082815260208101848484011115620001ac57600080fd5b620001b984828562000357565b509392505050565b600081519050620001d28162000421565b92915050565b600082601f830112620001ea57600080fd5b8151620001fc8482602086016200017c565b91505092915050565b600080600080608085870312156200021c57600080fd5b60006200022c87828801620001c1565b945050602085015167ffffffffffffffff8111156200024a57600080fd5b6200025887828801620001d8565b935050604085015167ffffffffffffffff8111156200027657600080fd5b6200028487828801620001d8565b925050606085015167ffffffffffffffff811115620002a257600080fd5b620002b087828801620001d8565b91505092959194509250565b6000604051905081810181811067ffffffffffffffff82111715620002e657620002e5620003f2565b5b8060405250919050565b600067ffffffffffffffff8211156200030e576200030d620003f2565b5b601f19601f8301169050602081019050919050565b6000620003308262000337565b9050919050565b600073ffffffffffffffffffffffffffffffffffffffff82169050919050565b60005b83811015620003775780820151818401526020810190506200035a565b8381111562000387576000848401525b50505050565b60006002820490506001821680620003a657607f821691505b60208210811415620003bd57620003bc620003c3565b5b50919050565b7f4e487b7100000000000000000000000000000000000000000000000000000000600052602260045260246000fd5b7f4e487b7100000000000000000000000000000000000000000000000000000000600052604160045260246000fd5b6200042c8162000323565b81146200043857600080fd5b50565b610eda806200044b6000396000f3fe608060405234801561001057600080fd5b50600436106100625760003560e01c8063092b300e14610067578063467fba0f146100835780635ff6cbf31461009f5780638da5cb5b146100bd578063b9e59600146100db578063c6d572ae146100f9575b600080fd5b610081600480360381019061007c9190610987565b610117565b005b61009d60048036038101906100989190610987565b6102f2565b005b6100a76104cb565b6040516100b49190610c15565b60405180910390f35b6100c561073c565b6040516100d29190610bfa565b60405180910390f35b6100e3610760565b6040516100f09190610c37565b60405180910390f35b6101016107ee565b60405161010e9190610c37565b60405180910390f35b60008054906101000a900473ffffffffffffffffffffffffffffffffffffffff1673ffffffffffffffffffffffffffffffffffffffff163373ffffffffffffffffffffffffffffffffffffffff16146101a5576040517f08c379a000000000000000000000000000000000000000000000000000000000815260040161019c90610c9e565b60405180910390fd5b60006040518060800160405280848152602001600073ffffffffffffffffffffffffffffffffffffffff1681526020018381526020014281525090506004819080600181540180825580915050600190039060005260206000209060040201600090919091909150600082015181600001908051906020019061022992919061087c565b5060208201518160010160006101000a81548173ffffffffffffffffffffffffffffffffffffffff021916908373ffffffffffffffffffffffffffffffffffffffff160217905550604082015181600201908051906020019061028d92919061087c565b50606082015181600301555050600073ffffffffffffffffffffffffffffffffffffffff167fe89e2f68b504e014dcbd447cc8d1d45903e27deb2a197f25b6dc81698a0ce5598484426040516102e593929190610c59565b60405180910390a2505050565b60008054906101000a900473ffffffffffffffffffffffffffffffffffffffff1673ffffffffffffffffffffffffffffffffffffffff163373ffffffffffffffffffffffffffffffffffffffff1614610380576040517f08c379a000000000000000000000000000000000000000000000000000000000815260040161037790610c9e565b60405180910390fd5b600060405180608001604052808481526020013373ffffffffffffffffffffffffffffffffffffffff1681526020018381526020014281525090506004819080600181540180825580915050600190039060005260206000209060040201600090919091909150600082015181600001908051906020019061040392919061087c565b5060208201518160010160006101000a81548173ffffffffffffffffffffffffffffffffffffffff021916908373ffffffffffffffffffffffffffffffffffffffff160217905550604082015181600201908051906020019061046792919061087c565b506060820151816003015550503373ffffffffffffffffffffffffffffffffffffffff167fe89e2f68b504e014dcbd447cc8d1d45903e27deb2a197f25b6dc81698a0ce5598484426040516104be93929190610c59565b60405180910390a2505050565b606060008054906101000a900473ffffffffffffffffffffffffffffffffffffffff1673ffffffffffffffffffffffffffffffffffffffff163373ffffffffffffffffffffffffffffffffffffffff161461055b576040517f08c379a000000000000000000000000000000000000000000000000000000000815260040161055290610c9e565b60405180910390fd5b6004805480602002602001604051908101604052809291908181526020016000905b8282101561073357838290600052602060002090600402016040518060800160405290816000820180546105b090610e03565b80601f01602080910402602001604051908101604052809291908181526020018280546105dc90610e03565b80156106295780601f106105fe57610100808354040283529160200191610629565b820191906000526020600020905b81548152906001019060200180831161060c57829003601f168201915b505050505081526020016001820160009054906101000a900473ffffffffffffffffffffffffffffffffffffffff1673ffffffffffffffffffffffffffffffffffffffff1673ffffffffffffffffffffffffffffffffffffffff16815260200160028201805461069890610e03565b80601f01602080910402602001604051908101604052809291908181526020018280546106c490610e03565b80156107115780601f106106e657610100808354040283529160200191610711565b820191906000526020600020905b8154815290600101906020018083116106f457829003601f168201915b505050505081526020016003820154815250508152602001906001019061057d565b50505050905090565b60008054906101000a900473ffffffffffffffffffffffffffffffffffffffff1681565b6002805461076d90610e03565b80601f016020809104026020016040519081016040528092919081815260200182805461079990610e03565b80156107e65780601f106107bb576101008083540402835291602001916107e6565b820191906000526020600020905b8154815290600101906020018083116107c957829003601f168201915b505050505081565b600180546107fb90610e03565b80601f016020809104026020016040519081016040528092919081815260200182805461082790610e03565b80156108745780601f1061084957610100808354040283529160200191610874565b820191906000526020600020905b81548152906001019060200180831161085757829003601f168201915b505050505081565b82805461088890610e03565b90600052602060002090601f0160209004810192826108aa57600085556108f1565b82601f106108c357805160ff19168380011785556108f1565b828001600101855582156108f1579182015b828111156108f05782518255916020019190600101906108d5565b5b5090506108fe9190610902565b5090565b5b8082111561091b576000816000905550600101610903565b5090565b600061093261092d84610cef565b610cbe565b90508281526020810184848401111561094a57600080fd5b610955848285610dc1565b509392505050565b600082601f83011261096e57600080fd5b813561097e84826020860161091f565b91505092915050565b6000806040838503121561099a57600080fd5b600083013567ffffffffffffffff8111156109b457600080fd5b6109c08582860161095d565b925050602083013567ffffffffffffffff8111156109dd57600080fd5b6109e98582860161095d565b9150509250929050565b60006109ff8383610b72565b905092915050565b610a1081610d85565b82525050565b610a1f81610d85565b82525050565b6000610a3082610d2f565b610a3a8185610d52565b935083602082028501610a4c85610d1f565b8060005b85811015610a885784840389528151610a6985826109f3565b9450610a7483610d45565b925060208a01995050600181019050610a50565b50829750879550505050505092915050565b6000610aa582610d3a565b610aaf8185610d63565b9350610abf818560208601610dd0565b610ac881610e93565b840191505092915050565b6000610ade82610d3a565b610ae88185610d74565b9350610af8818560208601610dd0565b610b0181610e93565b840191505092915050565b6000610b19602b83610d74565b91507f4f6e6c79206f776e65722063616e20696e74657261637420776974682074686560008301527f20617373697374616e742e0000000000000000000000000000000000000000006020830152604082019050919050565b60006080830160008301518482036000860152610b8f8282610a9a565b9150506020830151610ba46020860182610a07565b5060408301518482036040860152610bbc8282610a9a565b9150506060830151610bd16060860182610bdc565b508091505092915050565b610be581610db7565b82525050565b610bf481610db7565b82525050565b6000602082019050610c0f6000830184610a16565b92915050565b60006020820190508181036000830152610c2f8184610a25565b905092915050565b60006020820190508181036000830152610c518184610ad3565b905092915050565b60006060820190508181036000830152610c738186610ad3565b90508181036020830152610c878185610ad3565b9050610c966040830184610beb565b949350505050565b60006020820190508181036000830152610cb781610b0c565b9050919050565b6000604051905081810181811067ffffffffffffffff82111715610ce557610ce4610e64565b5b8060405250919050565b600067ffffffffffffffff821115610d0a57610d09610e64565b5b601f19601f8301169050602081019050919050565b6000819050602082019050919050565b600081519050919050565b600081519050919050565b6000602082019050919050565b600082825260208201905092915050565b600082825260208201905092915050565b600082825260208201905092915050565b6000610d9082610d97565b9050919050565b600073ffffffffffffffffffffffffffffffffffffffff82169050919050565b6000819050919050565b82818337600083830152505050565b60005b83811015610dee578082015181840152602081019050610dd3565b83811115610dfd576000848401525b50505050565b60006002820490506001821680610e1b57607f821691505b60208210811415610e2f57610e2e610e35565b5b50919050565b7f4e487b7100000000000000000000000000000000000000000000000000000000600052602260045260246000fd5b7f4e487b7100000000000000000000000000000000000000000000000000000000600052604160045260246000fd5b6000601f19601f830116905091905056fea26469706673582212205b94eb27db5245ea1e63f6f5ea4567d625d8f10cd328036224f36dcfe46695dc64736f6c63430008000033a264697066735822122018ed07a2a1696c083ba9eb59ce6c21b5fb93abfc6d88b55092f0277a7746de8764736f6c63430008000033",
  "linkReferences": {},
  "deployedLinkReferences": {}
}