{
  "_format": "hh-sol-artifact-1",
  "contractName": "PersonalAssistant",
  "sourceName": "contracts/PersonalAssistant.sol",
  "abi": [
    {
      "inputs": [
        {
          "internalType": "address",
          "name": "_owner",
          "type": "address"
        },
        {
          "internalType": "string",
          "name": "_systemPrompt",
          "type": "string"
        },
        {
          "internalType": "string",
          "name": "_communityName",
          "type": "string"
        },
        {
          "internalType": "string",
          "name": "_communityLogo",
          "type": "string"
        }
      ],
      "stateMutability": "nonpayable",
      "type": "constructor"
    },
    {
      "anonymous": false,
      "inputs": [
        {
          "indexed": true,
          "internalType": "address",
          "name": "user",
          "type": "address"
        },
        {
          "indexed": false,
          "internalType": "string",
          "name": "text",
          "type": "string"
        },
        {
          "indexed": false,
          "internalType": "string",
          "name": "ipfsImageUrl",
          "type": "string"
        },
        {
          "indexed": false,
          "internalType": "uint256",
          "name": "timestamp",
          "type": "uint256"
        }
      ],
      "name": "MessageSent",
      "type": "event"
    },
    {
      "inputs": [
        {
          "internalType": "string",
          "name": "_text",
          "type": "string"
        },
        {
          "internalType": "string",
          "name": "_imageUrl",
          "type": "string"
        }
      ],
      "name": "aiSendMessage",
      "outputs": [],
      "stateMutability": "nonpayable",
      "type": "function"
    },
    {
      "inputs": [],
      "name": "communityLogo",
      "outputs": [
        {
          "internalType": "string",
          "name": "",
          "type": "string"
        }
      ],
      "stateMutability": "view",
      "type": "function"
    },
    {
      "inputs": [],
      "name": "communityName",
      "outputs": [
        {
          "internalType": "string",
          "name": "",
          "type": "string"
        }
      ],
      "stateMutability": "view",
      "type": "function"
    },
    {
      "inputs": [],
      "name": "getMessages",
      "outputs": [
        {
          "components": [
            {
              "internalType": "string",
              "name": "text",
              "type": "string"
            },
            {
              "internalType": "address",
              "name": "userAddress",
              "type": "address"
            },
            {
              "internalType": "string",
              "name": "ipfsImageUrl",
              "type": "string"
            },
            {
              "internalType": "uint256",
              "name": "timestamp",
              "type": "uint256"
            }
          ],
          "internalType": "struct PersonalAssistant.Message[]",
          "name": "",
          "type": "tuple[]"
        }
      ],
      "stateMutability": "view",
      "type": "function"
    },
    {
      "inputs": [],
      "name": "owner",
      "outputs": [
        {
          "internalType": "address",
          "name": "",
          "type": "address"
        }
      ],
      "stateMutability": "view",
      "type": "function"
    },
    {
      "inputs": [
        {
          "internalType": "string",
          "name": "_text",
          "type": "string"
        },
        {
          "internalType": "string",
          "name": "_imageUrl",
          "type": "string"
        }
      ],
      "name": "sendMessage",
      "outputs": [],
      "stateMutability": "nonpayable",
      "type": "function"
    }
  ],
  "bytecode": "0x60806040523480156200001157600080fd5b50604051620017a9380380620017a98339818101604052810190620000379190620002af565b836000806101000a81548173ffffffffffffffffffffffffffffffffffffffff021916908373ffffffffffffffffffffffffffffffffffffffff1602179055508260039081620000889190620005c9565b5081600190816200009a9190620005c9565b508060029081620000ac9190620005c9565b5050505050620006b0565b6000604051905090565b600080fd5b600080fd5b600073ffffffffffffffffffffffffffffffffffffffff82169050919050565b6000620000f882620000cb565b9050919050565b6200010a81620000eb565b81146200011657600080fd5b50565b6000815190506200012a81620000ff565b92915050565b600080fd5b600080fd5b6000601f19601f8301169050919050565b7f4e487b7100000000000000000000000000000000000000000000000000000000600052604160045260246000fd5b62000185826200013a565b810181811067ffffffffffffffff82111715620001a757620001a66200014b565b5b80604052505050565b6000620001bc620000b7565b9050620001ca82826200017a565b919050565b600067ffffffffffffffff821115620001ed57620001ec6200014b565b5b620001f8826200013a565b9050602081019050919050565b60005b838110156200022557808201518184015260208101905062000208565b60008484015250505050565b6000620002486200024284620001cf565b620001b0565b90508281526020810184848401111562000267576200026662000135565b5b6200027484828562000205565b509392505050565b600082601f83011262000294576200029362000130565b5b8151620002a684826020860162000231565b91505092915050565b60008060008060808587031215620002cc57620002cb620000c1565b5b6000620002dc8782880162000119565b945050602085015167ffffffffffffffff8111156200030057620002ff620000c6565b5b6200030e878288016200027c565b935050604085015167ffffffffffffffff811115620003325762000331620000c6565b5b62000340878288016200027c565b925050606085015167ffffffffffffffff811115620003645762000363620000c6565b5b62000372878288016200027c565b91505092959194509250565b600081519050919050565b7f4e487b7100000000000000000000000000000000000000000000000000000000600052602260045260246000fd5b60006002820490506001821680620003d157607f821691505b602082108103620003e757620003e662000389565b5b50919050565b60008190508160005260206000209050919050565b60006020601f8301049050919050565b600082821b905092915050565b600060088302620004517fffffffffffffffffffffffffffffffffffffffffffffffffffffffffffffffff8262000412565b6200045d868362000412565b95508019841693508086168417925050509392505050565b6000819050919050565b6000819050919050565b6000620004aa620004a46200049e8462000475565b6200047f565b62000475565b9050919050565b6000819050919050565b620004c68362000489565b620004de620004d582620004b1565b8484546200041f565b825550505050565b600090565b620004f5620004e6565b62000502818484620004bb565b505050565b5b818110156200052a576200051e600082620004eb565b60018101905062000508565b5050565b601f82111562000579576200054381620003ed565b6200054e8462000402565b810160208510156200055e578190505b620005766200056d8562000402565b83018262000507565b50505b505050565b600082821c905092915050565b60006200059e600019846008026200057e565b1980831691505092915050565b6000620005b983836200058b565b9150826002028217905092915050565b620005d4826200037e565b67ffffffffffffffff811115620005f057620005ef6200014b565b5b620005fc8254620003b8565b620006098282856200052e565b600060209050601f8311600181146200064157600084156200062c578287015190505b620006388582620005ab565b865550620006a8565b601f1984166200065186620003ed565b60005b828110156200067b5784890151825560018201915060208501945060208101905062000654565b868310156200069b578489015162000697601f8916826200058b565b8355505b6001600288020188555050505b505050505050565b6110e980620006c06000396000f3fe608060405234801561001057600080fd5b50600436106100625760003560e01c8063092b300e14610067578063467fba0f146100835780635ff6cbf31461009f5780638da5cb5b146100bd578063b9e59600146100db578063c6d572ae146100f9575b600080fd5b610081600480360381019061007c91906109ba565b610117565b005b61009d600480360381019061009891906109ba565b6102e4565b005b6100a76104af565b6040516100b49190610c37565b60405180910390f35b6100c5610720565b6040516100d29190610c68565b60405180910390f35b6100e3610744565b6040516100f09190610ccd565b60405180910390f35b6101016107d2565b60405161010e9190610ccd565b60405180910390f35b60008054906101000a900473ffffffffffffffffffffffffffffffffffffffff1673ffffffffffffffffffffffffffffffffffffffff163373ffffffffffffffffffffffffffffffffffffffff16146101a5576040517f08c379a000000000000000000000000000000000000000000000000000000000815260040161019c90610d61565b60405180910390fd5b60006040518060800160405280848152602001600073ffffffffffffffffffffffffffffffffffffffff168152602001838152602001428152509050600481908060018154018082558091505060019003906000526020600020906004020160009091909190915060008201518160000190816102229190610f8d565b5060208201518160010160006101000a81548173ffffffffffffffffffffffffffffffffffffffff021916908373ffffffffffffffffffffffffffffffffffffffff160217905550604082015181600201908161027f9190610f8d565b50606082015181600301555050600073ffffffffffffffffffffffffffffffffffffffff167fe89e2f68b504e014dcbd447cc8d1d45903e27deb2a197f25b6dc81698a0ce5598484426040516102d79392919061106e565b60405180910390a2505050565b60008054906101000a900473ffffffffffffffffffffffffffffffffffffffff1673ffffffffffffffffffffffffffffffffffffffff163373ffffffffffffffffffffffffffffffffffffffff1614610372576040517f08c379a000000000000000000000000000000000000000000000000000000000815260040161036990610d61565b60405180910390fd5b600060405180608001604052808481526020013373ffffffffffffffffffffffffffffffffffffffff168152602001838152602001428152509050600481908060018154018082558091505060019003906000526020600020906004020160009091909190915060008201518160000190816103ee9190610f8d565b5060208201518160010160006101000a81548173ffffffffffffffffffffffffffffffffffffffff021916908373ffffffffffffffffffffffffffffffffffffffff160217905550604082015181600201908161044b9190610f8d565b506060820151816003015550503373ffffffffffffffffffffffffffffffffffffffff167fe89e2f68b504e014dcbd447cc8d1d45903e27deb2a197f25b6dc81698a0ce5598484426040516104a29392919061106e565b60405180910390a2505050565b606060008054906101000a900473ffffffffffffffffffffffffffffffffffffffff1673ffffffffffffffffffffffffffffffffffffffff163373ffffffffffffffffffffffffffffffffffffffff161461053f576040517f08c379a000000000000000000000000000000000000000000000000000000000815260040161053690610d61565b60405180910390fd5b6004805480602002602001604051908101604052809291908181526020016000905b82821015610717578382906000526020600020906004020160405180608001604052908160008201805461059490610db0565b80601f01602080910402602001604051908101604052809291908181526020018280546105c090610db0565b801561060d5780601f106105e25761010080835404028352916020019161060d565b820191906000526020600020905b8154815290600101906020018083116105f057829003601f168201915b505050505081526020016001820160009054906101000a900473ffffffffffffffffffffffffffffffffffffffff1673ffffffffffffffffffffffffffffffffffffffff1673ffffffffffffffffffffffffffffffffffffffff16815260200160028201805461067c90610db0565b80601f01602080910402602001604051908101604052809291908181526020018280546106a890610db0565b80156106f55780601f106106ca576101008083540402835291602001916106f5565b820191906000526020600020905b8154815290600101906020018083116106d857829003601f168201915b5050505050815260200160038201548152505081526020019060010190610561565b50505050905090565b60008054906101000a900473ffffffffffffffffffffffffffffffffffffffff1681565b6002805461075190610db0565b80601f016020809104026020016040519081016040528092919081815260200182805461077d90610db0565b80156107ca5780601f1061079f576101008083540402835291602001916107ca565b820191906000526020600020905b8154815290600101906020018083116107ad57829003601f168201915b505050505081565b600180546107df90610db0565b80601f016020809104026020016040519081016040528092919081815260200182805461080b90610db0565b80156108585780601f1061082d57610100808354040283529160200191610858565b820191906000526020600020905b81548152906001019060200180831161083b57829003601f168201915b505050505081565b6000604051905090565b600080fd5b600080fd5b600080fd5b600080fd5b6000601f19601f8301169050919050565b7f4e487b7100000000000000000000000000000000000000000000000000000000600052604160045260246000fd5b6108c78261087e565b810181811067ffffffffffffffff821117156108e6576108e561088f565b5b80604052505050565b60006108f9610860565b905061090582826108be565b919050565b600067ffffffffffffffff8211156109255761092461088f565b5b61092e8261087e565b9050602081019050919050565b82818337600083830152505050565b600061095d6109588461090a565b6108ef565b90508281526020810184848401111561097957610978610879565b5b61098484828561093b565b509392505050565b600082601f8301126109a1576109a0610874565b5b81356109b184826020860161094a565b91505092915050565b600080604083850312156109d1576109d061086a565b5b600083013567ffffffffffffffff8111156109ef576109ee61086f565b5b6109fb8582860161098c565b925050602083013567ffffffffffffffff811115610a1c57610a1b61086f565b5b610a288582860161098c565b9150509250929050565b600081519050919050565b600082825260208201905092915050565b6000819050602082019050919050565b600081519050919050565b600082825260208201905092915050565b60005b83811015610a98578082015181840152602081019050610a7d565b60008484015250505050565b6000610aaf82610a5e565b610ab98185610a69565b9350610ac9818560208601610a7a565b610ad28161087e565b840191505092915050565b600073ffffffffffffffffffffffffffffffffffffffff82169050919050565b6000610b0882610add565b9050919050565b610b1881610afd565b82525050565b6000819050919050565b610b3181610b1e565b82525050565b60006080830160008301518482036000860152610b548282610aa4565b9150506020830151610b696020860182610b0f565b5060408301518482036040860152610b818282610aa4565b9150506060830151610b966060860182610b28565b508091505092915050565b6000610bad8383610b37565b905092915050565b6000602082019050919050565b6000610bcd82610a32565b610bd78185610a3d565b935083602082028501610be985610a4e565b8060005b85811015610c255784840389528151610c068582610ba1565b9450610c1183610bb5565b925060208a01995050600181019050610bed565b50829750879550505050505092915050565b60006020820190508181036000830152610c518184610bc2565b905092915050565b610c6281610afd565b82525050565b6000602082019050610c7d6000830184610c59565b92915050565b600082825260208201905092915050565b6000610c9f82610a5e565b610ca98185610c83565b9350610cb9818560208601610a7a565b610cc28161087e565b840191505092915050565b60006020820190508181036000830152610ce78184610c94565b905092915050565b7f4f6e6c79206f776e65722063616e20696e74657261637420776974682074686560008201527f20617373697374616e742e000000000000000000000000000000000000000000602082015250565b6000610d4b602b83610c83565b9150610d5682610cef565b604082019050919050565b60006020820190508181036000830152610d7a81610d3e565b9050919050565b7f4e487b7100000000000000000000000000000000000000000000000000000000600052602260045260246000fd5b60006002820490506001821680610dc857607f821691505b602082108103610ddb57610dda610d81565b5b50919050565b60008190508160005260206000209050919050565b60006020601f8301049050919050565b600082821b905092915050565b600060088302610e437fffffffffffffffffffffffffffffffffffffffffffffffffffffffffffffffff82610e06565b610e4d8683610e06565b95508019841693508086168417925050509392505050565b6000819050919050565b6000610e8a610e85610e8084610b1e565b610e65565b610b1e565b9050919050565b6000819050919050565b610ea483610e6f565b610eb8610eb082610e91565b848454610e13565b825550505050565b600090565b610ecd610ec0565b610ed8818484610e9b565b505050565b5b81811015610efc57610ef1600082610ec5565b600181019050610ede565b5050565b601f821115610f4157610f1281610de1565b610f1b84610df6565b81016020851015610f2a578190505b610f3e610f3685610df6565b830182610edd565b50505b505050565b600082821c905092915050565b6000610f6460001984600802610f46565b1980831691505092915050565b6000610f7d8383610f53565b9150826002028217905092915050565b610f9682610a5e565b67ffffffffffffffff811115610faf57610fae61088f565b5b610fb98254610db0565b610fc4828285610f00565b600060209050601f831160018114610ff75760008415610fe5578287015190505b610fef8582610f71565b865550611057565b601f19841661100586610de1565b60005b8281101561102d57848901518255600182019150602085019450602081019050611008565b8683101561104a5784890151611046601f891682610f53565b8355505b6001600288020188555050505b505050505050565b61106881610b1e565b82525050565b600060608201905081810360008301526110888186610c94565b9050818103602083015261109c8185610c94565b90506110ab604083018461105f565b94935050505056fea26469706673582212202beea269df91c9d08b120e04ea42cd8aacda2702e7254d15c7a11e248aea4d0e64736f6c63430008140033",
  "linkReferences": {},
  "deployedLinkReferences": {}
}