{
  "_format": "hh-sol-artifact-1",
  "contractName": "PersonalAssistant",
  "sourceName": "contracts/PersonalAssistant.sol",
  "abi": [
    {
      "inputs": [
        {
          "internalType": "address",
          "name": "_owner",
          "type": "address"
        },
        {
          "internalType": "string",
          "name": "_systemPrompt",
          "type": "string"
        },
        {
          "internalType": "string",
          "name": "_communityName",
          "type": "string"
        },
        {
          "internalType": "string",
          "name": "_communityLogo",
          "type": "string"
        }
      ],
      "stateMutability": "nonpayable",
      "type": "constructor"
    },
    {
      "anonymous": false,
      "inputs": [
        {
          "indexed": true,
          "internalType": "address",
          "name": "user",
          "type": "address"
        },
        {
          "indexed": false,
          "internalType": "string",
          "name": "text",
          "type": "string"
        },
        {
          "indexed": false,
          "internalType": "string",
          "name": "ipfsImageUrl",
          "type": "string"
        },
        {
          "indexed": false,
          "internalType": "uint256",
          "name": "timestamp",
          "type": "uint256"
        }
      ],
      "name": "MessageSent",
      "type": "event"
    },
    {
      "inputs": [
        {
          "internalType": "string",
          "name": "_text",
          "type": "string"
        },
        {
          "internalType": "string",
          "name": "_imageUrl",
          "type": "string"
        }
      ],
      "name": "aiSendMessage",
      "outputs": [],
      "stateMutability": "nonpayable",
      "type": "function"
    },
    {
      "inputs": [],
      "name": "communityLogo",
      "outputs": [
        {
          "internalType": "string",
          "name": "",
          "type": "string"
        }
      ],
      "stateMutability": "view",
      "type": "function"
    },
    {
      "inputs": [],
      "name": "communityName",
      "outputs": [
        {
          "internalType": "string",
          "name": "",
          "type": "string"
        }
      ],
      "stateMutability": "view",
      "type": "function"
    },
    {
      "inputs": [],
      "name": "getMessages",
      "outputs": [
        {
          "components": [
            {
              "internalType": "string",
              "name": "text",
              "type": "string"
            },
            {
              "internalType": "address",
              "name": "userAddress",
              "type": "address"
            },
            {
              "internalType": "string",
              "name": "ipfsImageUrl",
              "type": "string"
            },
            {
              "internalType": "uint256",
              "name": "timestamp",
              "type": "uint256"
            }
          ],
          "internalType": "struct PersonalAssistant.Message[]",
          "name": "",
          "type": "tuple[]"
        }
      ],
      "stateMutability": "view",
      "type": "function"
    },
    {
      "inputs": [],
      "name": "owner",
      "outputs": [
        {
          "internalType": "address",
          "name": "",
          "type": "address"
        }
      ],
      "stateMutability": "view",
      "type": "function"
    },
    {
      "inputs": [
        {
          "internalType": "string",
          "name": "_text",
          "type": "string"
        },
        {
          "internalType": "string",
          "name": "_imageUrl",
          "type": "string"
        }
      ],
      "name": "sendMessage",
      "outputs": [],
      "stateMutability": "nonpayable",
      "type": "function"
    }
  ],
  "bytecode": "0x60806040523480156200001157600080fd5b506040516200132538038062001325833981810160405281019062000037919062000205565b836000806101000a81548173ffffffffffffffffffffffffffffffffffffffff021916908373ffffffffffffffffffffffffffffffffffffffff16021790555082600390805190602001906200008f929190620000cc565b508160019080519060200190620000a8929190620000cc565b508060029080519060200190620000c1929190620000cc565b50505050506200043b565b828054620000da906200038d565b90600052602060002090601f016020900481019282620000fe57600085556200014a565b82601f106200011957805160ff19168380011785556200014a565b828001600101855582156200014a579182015b82811115620001495782518255916020019190600101906200012c565b5b5090506200015991906200015d565b5090565b5b80821115620001785760008160009055506001016200015e565b5090565b6000620001936200018d84620002f0565b620002bc565b905082815260208101848484011115620001ac57600080fd5b620001b984828562000357565b509392505050565b600081519050620001d28162000421565b92915050565b600082601f830112620001ea57600080fd5b8151620001fc8482602086016200017c565b91505092915050565b600080600080608085870312156200021c57600080fd5b60006200022c87828801620001c1565b945050602085015167ffffffffffffffff8111156200024a57600080fd5b6200025887828801620001d8565b935050604085015167ffffffffffffffff8111156200027657600080fd5b6200028487828801620001d8565b925050606085015167ffffffffffffffff811115620002a257600080fd5b620002b087828801620001d8565b91505092959194509250565b6000604051905081810181811067ffffffffffffffff82111715620002e657620002e5620003f2565b5b8060405250919050565b600067ffffffffffffffff8211156200030e576200030d620003f2565b5b601f19601f8301169050602081019050919050565b6000620003308262000337565b9050919050565b600073ffffffffffffffffffffffffffffffffffffffff82169050919050565b60005b83811015620003775780820151818401526020810190506200035a565b8381111562000387576000848401525b50505050565b60006002820490506001821680620003a657607f821691505b60208210811415620003bd57620003bc620003c3565b5b50919050565b7f4e487b7100000000000000000000000000000000000000000000000000000000600052602260045260246000fd5b7f4e487b7100000000000000000000000000000000000000000000000000000000600052604160045260246000fd5b6200042c8162000323565b81146200043857600080fd5b50565b610eda806200044b6000396000f3fe608060405234801561001057600080fd5b50600436106100625760003560e01c8063092b300e14610067578063467fba0f146100835780635ff6cbf31461009f5780638da5cb5b146100bd578063b9e59600146100db578063c6d572ae146100f9575b600080fd5b610081600480360381019061007c9190610987565b610117565b005b61009d60048036038101906100989190610987565b6102f2565b005b6100a76104cb565b6040516100b49190610c15565b60405180910390f35b6100c561073c565b6040516100d29190610bfa565b60405180910390f35b6100e3610760565b6040516100f09190610c37565b60405180910390f35b6101016107ee565b60405161010e9190610c37565b60405180910390f35b60008054906101000a900473ffffffffffffffffffffffffffffffffffffffff1673ffffffffffffffffffffffffffffffffffffffff163373ffffffffffffffffffffffffffffffffffffffff16146101a5576040517f08c379a000000000000000000000000000000000000000000000000000000000815260040161019c90610c9e565b60405180910390fd5b60006040518060800160405280848152602001600073ffffffffffffffffffffffffffffffffffffffff1681526020018381526020014281525090506004819080600181540180825580915050600190039060005260206000209060040201600090919091909150600082015181600001908051906020019061022992919061087c565b5060208201518160010160006101000a81548173ffffffffffffffffffffffffffffffffffffffff021916908373ffffffffffffffffffffffffffffffffffffffff160217905550604082015181600201908051906020019061028d92919061087c565b50606082015181600301555050600073ffffffffffffffffffffffffffffffffffffffff167fe89e2f68b504e014dcbd447cc8d1d45903e27deb2a197f25b6dc81698a0ce5598484426040516102e593929190610c59565b60405180910390a2505050565b60008054906101000a900473ffffffffffffffffffffffffffffffffffffffff1673ffffffffffffffffffffffffffffffffffffffff163373ffffffffffffffffffffffffffffffffffffffff1614610380576040517f08c379a000000000000000000000000000000000000000000000000000000000815260040161037790610c9e565b60405180910390fd5b600060405180608001604052808481526020013373ffffffffffffffffffffffffffffffffffffffff1681526020018381526020014281525090506004819080600181540180825580915050600190039060005260206000209060040201600090919091909150600082015181600001908051906020019061040392919061087c565b5060208201518160010160006101000a81548173ffffffffffffffffffffffffffffffffffffffff021916908373ffffffffffffffffffffffffffffffffffffffff160217905550604082015181600201908051906020019061046792919061087c565b506060820151816003015550503373ffffffffffffffffffffffffffffffffffffffff167fe89e2f68b504e014dcbd447cc8d1d45903e27deb2a197f25b6dc81698a0ce5598484426040516104be93929190610c59565b60405180910390a2505050565b606060008054906101000a900473ffffffffffffffffffffffffffffffffffffffff1673ffffffffffffffffffffffffffffffffffffffff163373ffffffffffffffffffffffffffffffffffffffff161461055b576040517f08c379a000000000000000000000000000000000000000000000000000000000815260040161055290610c9e565b60405180910390fd5b6004805480602002602001604051908101604052809291908181526020016000905b8282101561073357838290600052602060002090600402016040518060800160405290816000820180546105b090610e03565b80601f01602080910402602001604051908101604052809291908181526020018280546105dc90610e03565b80156106295780601f106105fe57610100808354040283529160200191610629565b820191906000526020600020905b81548152906001019060200180831161060c57829003601f168201915b505050505081526020016001820160009054906101000a900473ffffffffffffffffffffffffffffffffffffffff1673ffffffffffffffffffffffffffffffffffffffff1673ffffffffffffffffffffffffffffffffffffffff16815260200160028201805461069890610e03565b80601f01602080910402602001604051908101604052809291908181526020018280546106c490610e03565b80156107115780601f106106e657610100808354040283529160200191610711565b820191906000526020600020905b8154815290600101906020018083116106f457829003601f168201915b505050505081526020016003820154815250508152602001906001019061057d565b50505050905090565b60008054906101000a900473ffffffffffffffffffffffffffffffffffffffff1681565b6002805461076d90610e03565b80601f016020809104026020016040519081016040528092919081815260200182805461079990610e03565b80156107e65780601f106107bb576101008083540402835291602001916107e6565b820191906000526020600020905b8154815290600101906020018083116107c957829003601f168201915b505050505081565b600180546107fb90610e03565b80601f016020809104026020016040519081016040528092919081815260200182805461082790610e03565b80156108745780601f1061084957610100808354040283529160200191610874565b820191906000526020600020905b81548152906001019060200180831161085757829003601f168201915b505050505081565b82805461088890610e03565b90600052602060002090601f0160209004810192826108aa57600085556108f1565b82601f106108c357805160ff19168380011785556108f1565b828001600101855582156108f1579182015b828111156108f05782518255916020019190600101906108d5565b5b5090506108fe9190610902565b5090565b5b8082111561091b576000816000905550600101610903565b5090565b600061093261092d84610cef565b610cbe565b90508281526020810184848401111561094a57600080fd5b610955848285610dc1565b509392505050565b600082601f83011261096e57600080fd5b813561097e84826020860161091f565b91505092915050565b6000806040838503121561099a57600080fd5b600083013567ffffffffffffffff8111156109b457600080fd5b6109c08582860161095d565b925050602083013567ffffffffffffffff8111156109dd57600080fd5b6109e98582860161095d565b9150509250929050565b60006109ff8383610b72565b905092915050565b610a1081610d85565b82525050565b610a1f81610d85565b82525050565b6000610a3082610d2f565b610a3a8185610d52565b935083602082028501610a4c85610d1f565b8060005b85811015610a885784840389528151610a6985826109f3565b9450610a7483610d45565b925060208a01995050600181019050610a50565b50829750879550505050505092915050565b6000610aa582610d3a565b610aaf8185610d63565b9350610abf818560208601610dd0565b610ac881610e93565b840191505092915050565b6000610ade82610d3a565b610ae88185610d74565b9350610af8818560208601610dd0565b610b0181610e93565b840191505092915050565b6000610b19602b83610d74565b91507f4f6e6c79206f776e65722063616e20696e74657261637420776974682074686560008301527f20617373697374616e742e0000000000000000000000000000000000000000006020830152604082019050919050565b60006080830160008301518482036000860152610b8f8282610a9a565b9150506020830151610ba46020860182610a07565b5060408301518482036040860152610bbc8282610a9a565b9150506060830151610bd16060860182610bdc565b508091505092915050565b610be581610db7565b82525050565b610bf481610db7565b82525050565b6000602082019050610c0f6000830184610a16565b92915050565b60006020820190508181036000830152610c2f8184610a25565b905092915050565b60006020820190508181036000830152610c518184610ad3565b905092915050565b60006060820190508181036000830152610c738186610ad3565b90508181036020830152610c878185610ad3565b9050610c966040830184610beb565b949350505050565b60006020820190508181036000830152610cb781610b0c565b9050919050565b6000604051905081810181811067ffffffffffffffff82111715610ce557610ce4610e64565b5b8060405250919050565b600067ffffffffffffffff821115610d0a57610d09610e64565b5b601f19601f8301169050602081019050919050565b6000819050602082019050919050565b600081519050919050565b600081519050919050565b6000602082019050919050565b600082825260208201905092915050565b600082825260208201905092915050565b600082825260208201905092915050565b6000610d9082610d97565b9050919050565b600073ffffffffffffffffffffffffffffffffffffffff82169050919050565b6000819050919050565b82818337600083830152505050565b60005b83811015610dee578082015181840152602081019050610dd3565b83811115610dfd576000848401525b50505050565b60006002820490506001821680610e1b57607f821691505b60208210811415610e2f57610e2e610e35565b5b50919050565b7f4e487b7100000000000000000000000000000000000000000000000000000000600052602260045260246000fd5b7f4e487b7100000000000000000000000000000000000000000000000000000000600052604160045260246000fd5b6000601f19601f830116905091905056fea26469706673582212205b94eb27db5245ea1e63f6f5ea4567d625d8f10cd328036224f36dcfe46695dc64736f6c63430008000033",
  "linkReferences": {},
  "deployedLinkReferences": {}
}