{
  "_format": "hh-sol-artifact-1",
  "contractName": "Athl3te",
  "sourceName": "contracts/Athl3te.sol",
  "abi": [
    {
      "inputs": [
        {
          "internalType": "string",
          "name": "_activityId",
          "type": "string"
        }
      ],
      "name": "addActivity",
      "outputs": [],
      "stateMutability": "nonpayable",
      "type": "function"
    },
    {
      "inputs": [
        {
          "internalType": "string",
          "name": "_goalId",
          "type": "string"
        }
      ],
      "name": "addNutritionGoal",
      "outputs": [],
      "stateMutability": "nonpayable",
      "type": "function"
    },
    {
      "inputs": [
        {
          "internalType": "string",
          "name": "_goalId",
          "type": "string"
        }
      ],
      "name": "addSportGoal",
      "outputs": [],
      "stateMutability": "nonpayable",
      "type": "function"
    },
    {
      "inputs": [
        {
          "internalType": "string",
          "name": "_botName",
          "type": "string"
        }
      ],
      "name": "buyBot",
      "outputs": [],
      "stateMutability": "payable",
      "type": "function"
    },
    {
      "inputs": [
        {
          "internalType": "string",
          "name": "_communityName",
          "type": "string"
        },
        {
          "internalType": "string",
          "name": "_communityImage",
          "type": "string"
        },
        {
          "internalType": "string",
          "name": "_botName",
          "type": "string"
        }
      ],
      "name": "createCommunityRoom",
      "outputs": [],
      "stateMutability": "nonpayable",
      "type": "function"
    },
    {
      "inputs": [
        {
          "internalType": "string",
          "name": "_communityName",
          "type": "string"
        }
      ],
      "name": "getCommunityCreator",
      "outputs": [
        {
          "internalType": "address",
          "name": "",
          "type": "address"
        }
      ],
      "stateMutability": "view",
      "type": "function"
    },
    {
      "inputs": [
        {
          "internalType": "string",
          "name": "_communityName",
          "type": "string"
        }
      ],
      "name": "getCommunityMembers",
      "outputs": [
        {
          "internalType": "address[]",
          "name": "",
          "type": "address[]"
        }
      ],
      "stateMutability": "view",
      "type": "function"
    },
    {
      "inputs": [
        {
          "internalType": "string",
          "name": "_communityName",
          "type": "string"
        }
      ],
      "name": "getCommunityRoomDetails",
      "outputs": [
        {
          "internalType": "string",
          "name": "communityName",
          "type": "string"
        },
        {
          "internalType": "string",
          "name": "communityImage",
          "type": "string"
        },
        {
          "components": [
            {
              "internalType": "string",
              "name": "botName",
              "type": "string"
            },
            {
              "internalType": "string",
              "name": "botImage",
              "type": "string"
            },
            {
              "internalType": "string",
              "name": "systemPrompt",
              "type": "string"
            },
            {
              "internalType": "string",
              "name": "botDescription",
              "type": "string"
            },
            {
              "internalType": "string",
              "name": "deploymentURL",
              "type": "string"
            },
            {
              "internalType": "uint256",
              "name": "unlockCostInGWei",
              "type": "uint256"
            }
          ],
          "internalType": "struct Athl3te.Bot",
          "name": "bot",
          "type": "tuple"
        },
        {
          "internalType": "address",
          "name": "createdBy",
          "type": "address"
        },
        {
          "internalType": "uint256",
          "name": "messageCount",
          "type": "uint256"
        }
      ],
      "stateMutability": "view",
      "type": "function"
    },
    {
      "inputs": [],
      "name": "getDeployedCommunityRooms",
      "outputs": [
        {
          "components": [
            {
              "internalType": "string",
              "name": "communityName",
              "type": "string"
            },
            {
              "internalType": "string",
              "name": "communityImage",
              "type": "string"
            },
            {
              "components": [
                {
                  "internalType": "string",
                  "name": "botName",
                  "type": "string"
                },
                {
                  "internalType": "string",
                  "name": "botImage",
                  "type": "string"
                },
                {
                  "internalType": "string",
                  "name": "systemPrompt",
                  "type": "string"
                },
                {
                  "internalType": "string",
                  "name": "botDescription",
                  "type": "string"
                },
                {
                  "internalType": "string",
                  "name": "deploymentURL",
                  "type": "string"
                },
                {
                  "internalType": "uint256",
                  "name": "unlockCostInGWei",
                  "type": "uint256"
                }
              ],
              "internalType": "struct Athl3te.Bot",
              "name": "bot",
              "type": "tuple"
            },
            {
              "internalType": "address",
              "name": "createdBy",
              "type": "address"
            },
            {
              "internalType": "string[]",
              "name": "messageIds",
              "type": "string[]"
            },
            {
              "internalType": "string[]",
              "name": "communitySportGoalIds",
              "type": "string[]"
            },
            {
              "internalType": "address[]",
              "name": "members",
              "type": "address[]"
            }
          ],
          "internalType": "struct Athl3te.CommunityRoom[]",
          "name": "",
          "type": "tuple[]"
        }
      ],
      "stateMutability": "view",
      "type": "function"
    },
    {
      "inputs": [],
      "name": "getInjuryDescription",
      "outputs": [
        {
          "internalType": "string",
          "name": "",
          "type": "string"
        }
      ],
      "stateMutability": "view",
      "type": "function"
    },
    {
      "inputs": [],
      "name": "getUserActivities",
      "outputs": [
        {
          "internalType": "string[]",
          "name": "",
          "type": "string[]"
        }
      ],
      "stateMutability": "view",
      "type": "function"
    },
    {
      "inputs": [],
      "name": "getUserCommunities",
      "outputs": [
        {
          "internalType": "string[]",
          "name": "",
          "type": "string[]"
        }
      ],
      "stateMutability": "view",
      "type": "function"
    },
    {
      "inputs": [],
      "name": "getUserDetails",
      "outputs": [
        {
          "internalType": "string",
          "name": "metadata",
          "type": "string"
        },
        {
          "internalType": "string[]",
          "name": "activityIds",
          "type": "string[]"
        },
        {
          "internalType": "string[]",
          "name": "sportGoalIds",
          "type": "string[]"
        },
        {
          "internalType": "string[]",
          "name": "nutritionGoalIds",
          "type": "string[]"
        },
        {
          "internalType": "string",
          "name": "injuriesDescriptionId",
          "type": "string"
        },
        {
          "internalType": "uint256",
          "name": "nftCount",
          "type": "uint256"
        },
        {
          "internalType": "uint256",
          "name": "assistantCount",
          "type": "uint256"
        }
      ],
      "stateMutability": "view",
      "type": "function"
    },
    {
      "inputs": [],
      "name": "getUserMetadata",
      "outputs": [
        {
          "internalType": "string",
          "name": "",
          "type": "string"
        }
      ],
      "stateMutability": "view",
      "type": "function"
    },
    {
      "inputs": [],
      "name": "getUserNfts",
      "outputs": [
        {
          "components": [
            {
              "internalType": "string",
              "name": "nftName",
              "type": "string"
            },
            {
              "internalType": "string",
              "name": "nftImage",
              "type": "string"
            },
            {
              "internalType": "string",
              "name": "description",
              "type": "string"
            }
          ],
          "internalType": "struct Athl3te.nft[]",
          "name": "",
          "type": "tuple[]"
        }
      ],
      "stateMutability": "view",
      "type": "function"
    },
    {
      "inputs": [],
      "name": "getUserNutritionGoals",
      "outputs": [
        {
          "internalType": "string[]",
          "name": "",
          "type": "string[]"
        }
      ],
      "stateMutability": "view",
      "type": "function"
    },
    {
      "inputs": [],
      "name": "getUserSportGoals",
      "outputs": [
        {
          "internalType": "string[]",
          "name": "",
          "type": "string[]"
        }
      ],
      "stateMutability": "view",
      "type": "function"
    },
    {
      "inputs": [
        {
          "internalType": "string",
          "name": "_communityName",
          "type": "string"
        }
      ],
      "name": "joinCommunityRoom",
      "outputs": [],
      "stateMutability": "nonpayable",
      "type": "function"
    },
    {
      "inputs": [
        {
          "internalType": "string",
          "name": "_metadata",
          "type": "string"
        }
      ],
      "name": "registerUser",
      "outputs": [],
      "stateMutability": "nonpayable",
      "type": "function"
    },
    {
      "inputs": [
        {
          "internalType": "string",
          "name": "_injuryId",
          "type": "string"
        }
      ],
      "name": "updateInjury",
      "outputs": [],
      "stateMutability": "nonpayable",
      "type": "function"
    }
  ],
  "bytecode": "0x608060405234801561001057600080fd5b5061559880620000216000396000f3fe60806040526004361061011f5760003560e01c806375ad6404116100a0578063b84f14b711610064578063b84f14b7146103c9578063cf926bba146103e5578063e7d9884014610410578063e9f36ff41461044d578063fe71cd77146104785761011f565b806375ad6404146102f0578063840a2ab81461031b578063903d362614610346578063942886be1461036f578063b841e45a146103a05761011f565b806343dfc73c116100e757806343dfc73c146102095780635259aaa81461023257806354d9ea151461025d578063610693e71461029e578063704f1b94146102c75761011f565b80630bf84be71461012457806317be9e991461014f5780631dd20a8b1461018c57806328209a4f146101b55780633fccb4a5146101e0575b600080fd5b34801561013057600080fd5b506101396104a3565b6040516101469190614060565b60405180910390f35b34801561015b57600080fd5b50610176600480360381019061017191906141cb565b610649565b6040516101839190614255565b60405180910390f35b34801561019857600080fd5b506101b360048036038101906101ae9190614270565b6106ec565b005b3480156101c157600080fd5b506101ca610cc2565b6040516101d79190614361565b60405180910390f35b3480156101ec57600080fd5b50610207600480360381019061020291906141cb565b610e21565b005b34801561021557600080fd5b50610230600480360381019061022b91906141cb565b610f6a565b005b34801561023e57600080fd5b5061024761121e565b6040516102549190614706565b60405180910390f35b34801561026957600080fd5b50610284600480360381019061027f91906141cb565b61192f565b6040516102959594939291906147dc565b60405180910390f35b3480156102aa57600080fd5b506102c560048036038101906102c091906141cb565b611e09565b005b3480156102d357600080fd5b506102ee60048036038101906102e991906141cb565b611f2d565b005b3480156102fc57600080fd5b506103056122da565b6040516103129190614060565b60405180910390f35b34801561032757600080fd5b50610330612480565b60405161033d9190614964565b60405180910390f35b34801561035257600080fd5b5061036d600480360381019061036891906141cb565b612762565b005b34801561037b57600080fd5b506103846128ab565b6040516103979796959493929190614986565b60405180910390f35b3480156103ac57600080fd5b506103c760048036038101906103c291906141cb565b612d53565b005b6103e360048036038101906103de91906141cb565b612e9c565b005b3480156103f157600080fd5b506103fa6134a1565b6040516104079190614060565b60405180910390f35b34801561041c57600080fd5b50610437600480360381019061043291906141cb565b613647565b6040516104449190614a87565b60405180910390f35b34801561045957600080fd5b5061046261374f565b60405161046f9190614060565b60405180910390f35b34801561048457600080fd5b5061048d6138f5565b60405161049a9190614361565b60405180910390f35b60606000803373ffffffffffffffffffffffffffffffffffffffff1673ffffffffffffffffffffffffffffffffffffffff16815260200190815260200160002060070160009054906101000a900460ff16610533576040517f08c379a000000000000000000000000000000000000000000000000000000000815260040161052a90614af5565b60405180910390fd5b6000803373ffffffffffffffffffffffffffffffffffffffff1673ffffffffffffffffffffffffffffffffffffffff168152602001908152602001600020600201805480602002602001604051908101604052809291908181526020016000905b828210156106405783829060005260206000200180546105b390614b44565b80601f01602080910402602001604051908101604052809291908181526020018280546105df90614b44565b801561062c5780601f106106015761010080835404028352916020019161062c565b820191906000526020600020905b81548152906001019060200180831161060f57829003601f168201915b505050505081526020019060010190610594565b50505050905090565b60008060028360405161065c9190614bb1565b90815260200160405180910390209050600081600001805461067d90614b44565b9050116106bf576040517f08c379a00000000000000000000000000000000000000000000000000000000081526004016106b690614c14565b60405180910390fd5b8060080160009054906101000a900473ffffffffffffffffffffffffffffffffffffffff16915050919050565b6000835111610730576040517f08c379a000000000000000000000000000000000000000000000000000000000815260040161072790614c80565b60405180910390fd5b6000825111610774576040517f08c379a000000000000000000000000000000000000000000000000000000000815260040161076b90614cec565b60405180910390fd5b60008151116107b8576040517f08c379a00000000000000000000000000000000000000000000000000000000081526004016107af90614d58565b60405180910390fd5b60006001826040516107ca9190614bb1565b9081526020016040518091039020905060008160000180546107eb90614b44565b90501161082d576040517f08c379a000000000000000000000000000000000000000000000000000000000815260040161082490614dc4565b60405180910390fd5b600060028560405161083f9190614bb1565b90815260200160405180910390209050848160000190816108609190614f90565b50838160010190816108729190614f90565b5081816002016000820181600001908161088c9190615078565b50600182018160010190816108a19190615078565b50600282018160020190816108b69190615078565b50600382018160030190816108cb9190615078565b50600482018160040190816108e09190615078565b5060058201548160050155905050338160080160006101000a81548173ffffffffffffffffffffffffffffffffffffffff021916908373ffffffffffffffffffffffffffffffffffffffff160217905550600067ffffffffffffffff81111561094c5761094b6140a0565b5b60405190808252806020026020018201604052801561097f57816020015b606081526020019060019003908161096a5790505b50816009019080519060200190610997929190613a54565b50600067ffffffffffffffff8111156109b3576109b26140a0565b5b6040519080825280602002602001820160405280156109e15781602001602082028036833780820191505090505b5081600b0190805190602001906109f9929190613aad565b50600067ffffffffffffffff811115610a1557610a146140a0565b5b604051908082528060200260200182016040528015610a4857816020015b6060815260200190600190039081610a335790505b5081600a019080519060200190610a60929190613a54565b5080600b01339080600181540180825580915050600190039060005260206000200160009091909190916101000a81548173ffffffffffffffffffffffffffffffffffffffff021916908373ffffffffffffffffffffffffffffffffffffffff1602179055506000803373ffffffffffffffffffffffffffffffffffffffff1673ffffffffffffffffffffffffffffffffffffffff16815260200190815260200160002060080185908060018154018082558091505060019003906000526020600020016000909190919091509081610b399190614f90565b5060058190806001815401808255809150506001900390600052602060002090600c020160009091909190915060008201816000019081610b7a9190615078565b5060018201816001019081610b8f9190615078565b50600282018160020160008201816000019081610bac9190615078565b5060018201816001019081610bc19190615078565b5060028201816002019081610bd69190615078565b5060038201816003019081610beb9190615078565b5060048201816004019081610c009190615078565b506005820154816005015550506008820160009054906101000a900473ffffffffffffffffffffffffffffffffffffffff168160080160006101000a81548173ffffffffffffffffffffffffffffffffffffffff021916908373ffffffffffffffffffffffffffffffffffffffff1602179055506009820181600901908054610c8a929190613b37565b50600a820181600a01908054610ca1929190613b37565b50600b820181600b01908054610cb8929190613b94565b5050505050505050565b60606000803373ffffffffffffffffffffffffffffffffffffffff1673ffffffffffffffffffffffffffffffffffffffff16815260200190815260200160002060070160009054906101000a900460ff16610d52576040517f08c379a0000000000000000000000000000000000000000000000000000000008152600401610d4990614af5565b60405180910390fd5b6000803373ffffffffffffffffffffffffffffffffffffffff1673ffffffffffffffffffffffffffffffffffffffff1681526020019081526020016000206005018054610d9e90614b44565b80601f0160208091040260200160405190810160405280929190818152602001828054610dca90614b44565b8015610e175780601f10610dec57610100808354040283529160200191610e17565b820191906000526020600020905b815481529060010190602001808311610dfa57829003601f168201915b5050505050905090565b6000803373ffffffffffffffffffffffffffffffffffffffff1673ffffffffffffffffffffffffffffffffffffffff16815260200190815260200160002060070160009054906101000a900460ff16610eaf576040517f08c379a0000000000000000000000000000000000000000000000000000000008152600401610ea690614af5565b60405180910390fd5b6000815111610ef3576040517f08c379a0000000000000000000000000000000000000000000000000000000008152600401610eea906151ac565b60405180910390fd5b6000803373ffffffffffffffffffffffffffffffffffffffff1673ffffffffffffffffffffffffffffffffffffffff16815260200190815260200160002060020181908060018154018082558091505060019003906000526020600020016000909190919091509081610f669190614f90565b5050565b6000803373ffffffffffffffffffffffffffffffffffffffff1673ffffffffffffffffffffffffffffffffffffffff16815260200190815260200160002060070160009054906101000a900460ff16610ff8576040517f08c379a0000000000000000000000000000000000000000000000000000000008152600401610fef90614af5565b60405180910390fd5b600060028260405161100a9190614bb1565b90815260200160405180910390209050600081600001805461102b90614b44565b90501161106d576040517f08c379a000000000000000000000000000000000000000000000000000000000815260040161106490614c14565b60405180910390fd5b60005b81600b0180549050811015611140573373ffffffffffffffffffffffffffffffffffffffff1682600b0182815481106110ac576110ab6151cc565b5b9060005260206000200160009054906101000a900473ffffffffffffffffffffffffffffffffffffffff1673ffffffffffffffffffffffffffffffffffffffff160361112d576040517f08c379a00000000000000000000000000000000000000000000000000000000081526004016111249061526d565b60405180910390fd5b8080611138906152bc565b915050611070565b5080600b01339080600181540180825580915050600190039060005260206000200160009091909190916101000a81548173ffffffffffffffffffffffffffffffffffffffff021916908373ffffffffffffffffffffffffffffffffffffffff1602179055506000803373ffffffffffffffffffffffffffffffffffffffff1673ffffffffffffffffffffffffffffffffffffffff168152602001908152602001600020600801829080600181540180825580915050600190039060005260206000200160009091909190915090816112199190614f90565b505050565b60606005805480602002602001604051908101604052809291908181526020016000905b8282101561192657838290600052602060002090600c02016040518060e001604052908160008201805461127590614b44565b80601f01602080910402602001604051908101604052809291908181526020018280546112a190614b44565b80156112ee5780601f106112c3576101008083540402835291602001916112ee565b820191906000526020600020905b8154815290600101906020018083116112d157829003601f168201915b5050505050815260200160018201805461130790614b44565b80601f016020809104026020016040519081016040528092919081815260200182805461133390614b44565b80156113805780601f1061135557610100808354040283529160200191611380565b820191906000526020600020905b81548152906001019060200180831161136357829003601f168201915b50505050508152602001600282016040518060c00160405290816000820180546113a990614b44565b80601f01602080910402602001604051908101604052809291908181526020018280546113d590614b44565b80156114225780601f106113f757610100808354040283529160200191611422565b820191906000526020600020905b81548152906001019060200180831161140557829003601f168201915b5050505050815260200160018201805461143b90614b44565b80601f016020809104026020016040519081016040528092919081815260200182805461146790614b44565b80156114b45780601f10611489576101008083540402835291602001916114b4565b820191906000526020600020905b81548152906001019060200180831161149757829003601f168201915b505050505081526020016002820180546114cd90614b44565b80601f01602080910402602001604051908101604052809291908181526020018280546114f990614b44565b80156115465780601f1061151b57610100808354040283529160200191611546565b820191906000526020600020905b81548152906001019060200180831161152957829003601f168201915b5050505050815260200160038201805461155f90614b44565b80601f016020809104026020016040519081016040528092919081815260200182805461158b90614b44565b80156115d85780601f106115ad576101008083540402835291602001916115d8565b820191906000526020600020905b8154815290600101906020018083116115bb57829003601f168201915b505050505081526020016004820180546115f190614b44565b80601f016020809104026020016040519081016040528092919081815260200182805461161d90614b44565b801561166a5780601f1061163f5761010080835404028352916020019161166a565b820191906000526020600020905b81548152906001019060200180831161164d57829003601f168201915b5050505050815260200160058201548152505081526020016008820160009054906101000a900473ffffffffffffffffffffffffffffffffffffffff1673ffffffffffffffffffffffffffffffffffffffff1673ffffffffffffffffffffffffffffffffffffffff16815260200160098201805480602002602001604051908101604052809291908181526020016000905b828210156117a857838290600052602060002001805461171b90614b44565b80601f016020809104026020016040519081016040528092919081815260200182805461174790614b44565b80156117945780601f1061176957610100808354040283529160200191611794565b820191906000526020600020905b81548152906001019060200180831161177757829003601f168201915b5050505050815260200190600101906116fc565b505050508152602001600a8201805480602002602001604051908101604052809291908181526020016000905b828210156118815783829060005260206000200180546117f490614b44565b80601f016020809104026020016040519081016040528092919081815260200182805461182090614b44565b801561186d5780601f106118425761010080835404028352916020019161186d565b820191906000526020600020905b81548152906001019060200180831161185057829003601f168201915b5050505050815260200190600101906117d5565b505050508152602001600b820180548060200260200160405190810160405280929190818152602001828054801561190e57602002820191906000526020600020905b8160009054906101000a900473ffffffffffffffffffffffffffffffffffffffff1673ffffffffffffffffffffffffffffffffffffffff16815260200190600101908083116118c4575b50505050508152505081526020019060010190611242565b50505050905090565b60608061193a613be6565b600080600060028760405161194f9190614bb1565b90815260200160405180910390209050600081600001805461197090614b44565b9050116119b2576040517f08c379a00000000000000000000000000000000000000000000000000000000081526004016119a990614c14565b60405180910390fd5b8060000181600101826002018360080160009054906101000a900473ffffffffffffffffffffffffffffffffffffffff1684600901805490508480546119f790614b44565b80601f0160208091040260200160405190810160405280929190818152602001828054611a2390614b44565b8015611a705780601f10611a4557610100808354040283529160200191611a70565b820191906000526020600020905b815481529060010190602001808311611a5357829003601f168201915b50505050509450838054611a8390614b44565b80601f0160208091040260200160405190810160405280929190818152602001828054611aaf90614b44565b8015611afc5780601f10611ad157610100808354040283529160200191611afc565b820191906000526020600020905b815481529060010190602001808311611adf57829003601f168201915b50505050509350826040518060c0016040529081600082018054611b1f90614b44565b80601f0160208091040260200160405190810160405280929190818152602001828054611b4b90614b44565b8015611b985780601f10611b6d57610100808354040283529160200191611b98565b820191906000526020600020905b815481529060010190602001808311611b7b57829003601f168201915b50505050508152602001600182018054611bb190614b44565b80601f0160208091040260200160405190810160405280929190818152602001828054611bdd90614b44565b8015611c2a5780601f10611bff57610100808354040283529160200191611c2a565b820191906000526020600020905b815481529060010190602001808311611c0d57829003601f168201915b50505050508152602001600282018054611c4390614b44565b80601f0160208091040260200160405190810160405280929190818152602001828054611c6f90614b44565b8015611cbc5780601f10611c9157610100808354040283529160200191611cbc565b820191906000526020600020905b815481529060010190602001808311611c9f57829003601f168201915b50505050508152602001600382018054611cd590614b44565b80601f0160208091040260200160405190810160405280929190818152602001828054611d0190614b44565b8015611d4e5780601f10611d2357610100808354040283529160200191611d4e565b820191906000526020600020905b815481529060010190602001808311611d3157829003601f168201915b50505050508152602001600482018054611d6790614b44565b80601f0160208091040260200160405190810160405280929190818152602001828054611d9390614b44565b8015611de05780601f10611db557610100808354040283529160200191611de0565b820191906000526020600020905b815481529060010190602001808311611dc357829003601f168201915b505050505081526020016005820154815250509250955095509550955095505091939590929450565b6000803373ffffffffffffffffffffffffffffffffffffffff1673ffffffffffffffffffffffffffffffffffffffff16815260200190815260200160002060070160009054906101000a900460ff16611e97576040517f08c379a0000000000000000000000000000000000000000000000000000000008152600401611e8e90614af5565b60405180910390fd5b6000815111611edb576040517f08c379a0000000000000000000000000000000000000000000000000000000008152600401611ed290615350565b60405180910390fd5b806000803373ffffffffffffffffffffffffffffffffffffffff1673ffffffffffffffffffffffffffffffffffffffff1681526020019081526020016000206005019081611f299190614f90565b5050565b6000803373ffffffffffffffffffffffffffffffffffffffff1673ffffffffffffffffffffffffffffffffffffffff16815260200190815260200160002060070160009054906101000a900460ff1615611fbc576040517f08c379a0000000000000000000000000000000000000000000000000000000008152600401611fb3906153bc565b60405180910390fd5b6000815111612000576040517f08c379a0000000000000000000000000000000000000000000000000000000008152600401611ff790615428565b60405180910390fd5b60008060003373ffffffffffffffffffffffffffffffffffffffff1673ffffffffffffffffffffffffffffffffffffffff168152602001908152602001600020905060018160070160006101000a81548160ff021916908315150217905550818160000190816120709190614f90565b50600067ffffffffffffffff81111561208c5761208b6140a0565b5b6040519080825280602002602001820160405280156120bf57816020015b60608152602001906001900390816120aa5790505b508160010190805190602001906120d7929190613a54565b50600067ffffffffffffffff8111156120f3576120f26140a0565b5b60405190808252806020026020018201604052801561212657816020015b60608152602001906001900390816121115790505b5081600201908051906020019061213e929190613a54565b50600067ffffffffffffffff81111561215a576121596140a0565b5b60405190808252806020026020018201604052801561218d57816020015b60608152602001906001900390816121785790505b508160030190805190602001906121a5929190613a54565b50604051806020016040528060008152508160050190816121c69190614f90565b506003819080600181540180825580915050600190039060005260206000209060090201600090919091909150600082018160000190816122079190615078565b50600182018160010190805461221e929190613b37565b506002820181600201908054612235929190613b37565b50600382018160030190805461224c929190613b37565b506004820181600401908054612263929190613c1c565b50600582018160050190816122789190615078565b50600682018160060190805461228f929190613d08565b506007820160009054906101000a900460ff168160070160006101000a81548160ff02191690831515021790555060088201816008019080546122d3929190613b37565b5050505050565b60606000803373ffffffffffffffffffffffffffffffffffffffff1673ffffffffffffffffffffffffffffffffffffffff16815260200190815260200160002060070160009054906101000a900460ff1661236a576040517f08c379a000000000000000000000000000000000000000000000000000000000815260040161236190614af5565b60405180910390fd5b6000803373ffffffffffffffffffffffffffffffffffffffff1673ffffffffffffffffffffffffffffffffffffffff168152602001908152602001600020600801805480602002602001604051908101604052809291908181526020016000905b828210156124775783829060005260206000200180546123ea90614b44565b80601f016020809104026020016040519081016040528092919081815260200182805461241690614b44565b80156124635780601f1061243857610100808354040283529160200191612463565b820191906000526020600020905b81548152906001019060200180831161244657829003601f168201915b5050505050815260200190600101906123cb565b50505050905090565b60606000803373ffffffffffffffffffffffffffffffffffffffff1673ffffffffffffffffffffffffffffffffffffffff16815260200190815260200160002060070160009054906101000a900460ff16612510576040517f08c379a000000000000000000000000000000000000000000000000000000000815260040161250790614af5565b60405180910390fd5b6000803373ffffffffffffffffffffffffffffffffffffffff1673ffffffffffffffffffffffffffffffffffffffff168152602001908152602001600020600601805480602002602001604051908101604052809291908181526020016000905b8282101561275957838290600052602060002090600302016040518060600160405290816000820180546125a490614b44565b80601f01602080910402602001604051908101604052809291908181526020018280546125d090614b44565b801561261d5780601f106125f25761010080835404028352916020019161261d565b820191906000526020600020905b81548152906001019060200180831161260057829003601f168201915b5050505050815260200160018201805461263690614b44565b80601f016020809104026020016040519081016040528092919081815260200182805461266290614b44565b80156126af5780601f10612684576101008083540402835291602001916126af565b820191906000526020600020905b81548152906001019060200180831161269257829003601f168201915b505050505081526020016002820180546126c890614b44565b80601f01602080910402602001604051908101604052809291908181526020018280546126f490614b44565b80156127415780601f1061271657610100808354040283529160200191612741565b820191906000526020600020905b81548152906001019060200180831161272457829003601f168201915b50505050508152505081526020019060010190612571565b50505050905090565b6000803373ffffffffffffffffffffffffffffffffffffffff1673ffffffffffffffffffffffffffffffffffffffff16815260200190815260200160002060070160009054906101000a900460ff166127f0576040517f08c379a00000000000000000000000000000000000000000000000000000000081526004016127e790614af5565b60405180910390fd5b6000815111612834576040517f08c379a000000000000000000000000000000000000000000000000000000000815260040161282b906151ac565b60405180910390fd5b6000803373ffffffffffffffffffffffffffffffffffffffff1673ffffffffffffffffffffffffffffffffffffffff168152602001908152602001600020600301819080600181540180825580915050600190039060005260206000200160009091909190915090816128a79190614f90565b5050565b60608060608060606000806000803373ffffffffffffffffffffffffffffffffffffffff1673ffffffffffffffffffffffffffffffffffffffff16815260200190815260200160002060070160009054906101000a900460ff16612944576040517f08c379a000000000000000000000000000000000000000000000000000000000815260040161293b90614af5565b60405180910390fd5b60008060003373ffffffffffffffffffffffffffffffffffffffff1673ffffffffffffffffffffffffffffffffffffffff16815260200190815260200160002090508060000181600101826002018360030184600501856006018054905086600401805490508680546129b690614b44565b80601f01602080910402602001604051908101604052809291908181526020018280546129e290614b44565b8015612a2f5780601f10612a0457610100808354040283529160200191612a2f565b820191906000526020600020905b815481529060010190602001808311612a1257829003601f168201915b5050505050965085805480602002602001604051908101604052809291908181526020016000905b82821015612b03578382906000526020600020018054612a7690614b44565b80601f0160208091040260200160405190810160405280929190818152602001828054612aa290614b44565b8015612aef5780601f10612ac457610100808354040283529160200191612aef565b820191906000526020600020905b815481529060010190602001808311612ad257829003601f168201915b505050505081526020019060010190612a57565b50505050955084805480602002602001604051908101604052809291908181526020016000905b82821015612bd6578382906000526020600020018054612b4990614b44565b80601f0160208091040260200160405190810160405280929190818152602001828054612b7590614b44565b8015612bc25780601f10612b9757610100808354040283529160200191612bc2565b820191906000526020600020905b815481529060010190602001808311612ba557829003601f168201915b505050505081526020019060010190612b2a565b50505050945083805480602002602001604051908101604052809291908181526020016000905b82821015612ca9578382906000526020600020018054612c1c90614b44565b80601f0160208091040260200160405190810160405280929190818152602001828054612c4890614b44565b8015612c955780601f10612c6a57610100808354040283529160200191612c95565b820191906000526020600020905b815481529060010190602001808311612c7857829003601f168201915b505050505081526020019060010190612bfd565b505050509350828054612cbb90614b44565b80601f0160208091040260200160405190810160405280929190818152602001828054612ce790614b44565b8015612d345780601f10612d0957610100808354040283529160200191612d34565b820191906000526020600020905b815481529060010190602001808311612d1757829003601f168201915b5050505050925097509750975097509750975097505090919293949596565b6000803373ffffffffffffffffffffffffffffffffffffffff1673ffffffffffffffffffffffffffffffffffffffff16815260200190815260200160002060070160009054906101000a900460ff16612de1576040517f08c379a0000000000000000000000000000000000000000000000000000000008152600401612dd890614af5565b60405180910390fd5b6000815111612e25576040517f08c379a0000000000000000000000000000000000000000000000000000000008152600401612e1c90615494565b60405180910390fd5b6000803373ffffffffffffffffffffffffffffffffffffffff1673ffffffffffffffffffffffffffffffffffffffff16815260200190815260200160002060010181908060018154018082558091505060019003906000526020600020016000909190919091509081612e989190614f90565b5050565b6000803373ffffffffffffffffffffffffffffffffffffffff1673ffffffffffffffffffffffffffffffffffffffff16815260200190815260200160002060070160009054906101000a900460ff16612f2a576040517f08c379a0000000000000000000000000000000000000000000000000000000008152600401612f2190614af5565b60405180910390fd5b6000815111612f6e576040517f08c379a0000000000000000000000000000000000000000000000000000000008152600401612f6590614d58565b60405180910390fd5b6000600182604051612f809190614bb1565b908152602001604051809103902090506000816000018054612fa190614b44565b905011612fe3576040517f08c379a0000000000000000000000000000000000000000000000000000000008152600401612fda90614dc4565b60405180910390fd5b633b9aca008160050154612ff791906154b4565b341015613039576040517f08c379a000000000000000000000000000000000000000000000000000000000815260040161303090615542565b60405180910390fd5b60006040518060400160405280836040518060c001604052908160008201805461306290614b44565b80601f016020809104026020016040519081016040528092919081815260200182805461308e90614b44565b80156130db5780601f106130b0576101008083540402835291602001916130db565b820191906000526020600020905b8154815290600101906020018083116130be57829003601f168201915b505050505081526020016001820180546130f490614b44565b80601f016020809104026020016040519081016040528092919081815260200182805461312090614b44565b801561316d5780601f106131425761010080835404028352916020019161316d565b820191906000526020600020905b81548152906001019060200180831161315057829003601f168201915b5050505050815260200160028201805461318690614b44565b80601f01602080910402602001604051908101604052809291908181526020018280546131b290614b44565b80156131ff5780601f106131d4576101008083540402835291602001916131ff565b820191906000526020600020905b8154815290600101906020018083116131e257829003601f168201915b5050505050815260200160038201805461321890614b44565b80601f016020809104026020016040519081016040528092919081815260200182805461324490614b44565b80156132915780601f1061326657610100808354040283529160200191613291565b820191906000526020600020905b81548152906001019060200180831161327457829003601f168201915b505050505081526020016004820180546132aa90614b44565b80601f01602080910402602001604051908101604052809291908181526020018280546132d690614b44565b80156133235780601f106132f857610100808354040283529160200191613323565b820191906000526020600020905b81548152906001019060200180831161330657829003601f168201915b505050505081526020016005820154815250508152602001600067ffffffffffffffff811115613356576133556140a0565b5b60405190808252806020026020018201604052801561338957816020015b60608152602001906001900390816133745790505b5081525090506000803373ffffffffffffffffffffffffffffffffffffffff1673ffffffffffffffffffffffffffffffffffffffff16815260200190815260200160002060040181908060018154018082558091505060019003906000526020600020906007020160009091909190915060008201518160000160008201518160000190816134189190614f90565b50602082015181600101908161342e9190614f90565b5060408201518160020190816134449190614f90565b50606082015181600301908161345a9190614f90565b5060808201518160040190816134709190614f90565b5060a0820151816005015550506020820151816006019080519060200190613499929190613a54565b505050505050565b60606000803373ffffffffffffffffffffffffffffffffffffffff1673ffffffffffffffffffffffffffffffffffffffff16815260200190815260200160002060070160009054906101000a900460ff16613531576040517f08c379a000000000000000000000000000000000000000000000000000000000815260040161352890614af5565b60405180910390fd5b6000803373ffffffffffffffffffffffffffffffffffffffff1673ffffffffffffffffffffffffffffffffffffffff168152602001908152602001600020600101805480602002602001604051908101604052809291908181526020016000905b8282101561363e5783829060005260206000200180546135b190614b44565b80601f01602080910402602001604051908101604052809291908181526020018280546135dd90614b44565b801561362a5780601f106135ff5761010080835404028352916020019161362a565b820191906000526020600020905b81548152906001019060200180831161360d57829003601f168201915b505050505081526020019060010190613592565b50505050905090565b6060600060028360405161365b9190614bb1565b90815260200160405180910390209050600081600001805461367c90614b44565b9050116136be576040517f08c379a00000000000000000000000000000000000000000000000000000000081526004016136b590614c14565b60405180910390fd5b80600b0180548060200260200160405190810160405280929190818152602001828054801561374257602002820191906000526020600020905b8160009054906101000a900473ffffffffffffffffffffffffffffffffffffffff1673ffffffffffffffffffffffffffffffffffffffff16815260200190600101908083116136f8575b5050505050915050919050565b60606000803373ffffffffffffffffffffffffffffffffffffffff1673ffffffffffffffffffffffffffffffffffffffff16815260200190815260200160002060070160009054906101000a900460ff166137df576040517f08c379a00000000000000000000000000000000000000000000000000000000081526004016137d690614af5565b60405180910390fd5b6000803373ffffffffffffffffffffffffffffffffffffffff1673ffffffffffffffffffffffffffffffffffffffff168152602001908152602001600020600301805480602002602001604051908101604052809291908181526020016000905b828210156138ec57838290600052602060002001805461385f90614b44565b80601f016020809104026020016040519081016040528092919081815260200182805461388b90614b44565b80156138d85780601f106138ad576101008083540402835291602001916138d8565b820191906000526020600020905b8154815290600101906020018083116138bb57829003601f168201915b505050505081526020019060010190613840565b50505050905090565b60606000803373ffffffffffffffffffffffffffffffffffffffff1673ffffffffffffffffffffffffffffffffffffffff16815260200190815260200160002060070160009054906101000a900460ff16613985576040517f08c379a000000000000000000000000000000000000000000000000000000000815260040161397c90614af5565b60405180910390fd5b6000803373ffffffffffffffffffffffffffffffffffffffff1673ffffffffffffffffffffffffffffffffffffffff16815260200190815260200160002060000180546139d190614b44565b80601f01602080910402602001604051908101604052809291908181526020018280546139fd90614b44565b8015613a4a5780601f10613a1f57610100808354040283529160200191613a4a565b820191906000526020600020905b815481529060010190602001808311613a2d57829003601f168201915b5050505050905090565b828054828255906000526020600020908101928215613a9c579160200282015b82811115613a9b578251829081613a8b9190614f90565b5091602001919060010190613a74565b5b509050613aa99190613d9f565b5090565b828054828255906000526020600020908101928215613b26579160200282015b82811115613b255782518260006101000a81548173ffffffffffffffffffffffffffffffffffffffff021916908373ffffffffffffffffffffffffffffffffffffffff16021790555091602001919060010190613acd565b5b509050613b339190613dc3565b5090565b828054828255906000526020600020908101928215613b835760005260206000209182015b82811115613b825782829081613b729190615078565b5091600101919060010190613b5c565b5b509050613b909190613d9f565b5090565b828054828255906000526020600020908101928215613bd55760005260206000209182015b82811115613bd4578254825591600101919060010190613bb9565b5b509050613be29190613dc3565b5090565b6040518060c001604052806060815260200160608152602001606081526020016060815260200160608152602001600081525090565b828054828255906000526020600020906007028101928215613cf75760005260206000209160070282015b82811115613cf6578282600082018160000160008201816000019081613c6d9190615078565b5060018201816001019081613c829190615078565b5060028201816002019081613c979190615078565b5060038201816003019081613cac9190615078565b5060048201816004019081613cc19190615078565b506005820154816005015550506006820181600601908054613ce4929190613b37565b50505091600701919060070190613c47565b5b509050613d049190613de0565b5090565b828054828255906000526020600020906003028101928215613d8e5760005260206000209160030282015b82811115613d8d57828260008201816000019081613d519190615078565b5060018201816001019081613d669190615078565b5060028201816002019081613d7b9190615078565b50505091600301919060030190613d33565b5b509050613d9b9190613e66565b5090565b5b80821115613dbf5760008181613db69190613ead565b50600101613da0565b5090565b5b80821115613ddc576000816000905550600101613dc4565b5090565b5b80821115613e6257600080820160008082016000613dff9190613ead565b600182016000613e0f9190613ead565b600282016000613e1f9190613ead565b600382016000613e2f9190613ead565b600482016000613e3f9190613ead565b60058201600090555050600682016000613e599190613eed565b50600701613de1565b5090565b5b80821115613ea95760008082016000613e809190613ead565b600182016000613e909190613ead565b600282016000613ea09190613ead565b50600301613e67565b5090565b508054613eb990614b44565b6000825580601f10613ecb5750613eea565b601f016020900490600052602060002090810190613ee99190613dc3565b5b50565b5080546000825590600052602060002090810190613f0b9190613d9f565b50565b600081519050919050565b600082825260208201905092915050565b6000819050602082019050919050565b600081519050919050565b600082825260208201905092915050565b60005b83811015613f74578082015181840152602081019050613f59565b60008484015250505050565b6000601f19601f8301169050919050565b6000613f9c82613f3a565b613fa68185613f45565b9350613fb6818560208601613f56565b613fbf81613f80565b840191505092915050565b6000613fd68383613f91565b905092915050565b6000602082019050919050565b6000613ff682613f0e565b6140008185613f19565b93508360208202850161401285613f2a565b8060005b8581101561404e578484038952815161402f8582613fca565b945061403a83613fde565b925060208a01995050600181019050614016565b50829750879550505050505092915050565b6000602082019050818103600083015261407a8184613feb565b905092915050565b6000604051905090565b600080fd5b600080fd5b600080fd5b600080fd5b7f4e487b7100000000000000000000000000000000000000000000000000000000600052604160045260246000fd5b6140d882613f80565b810181811067ffffffffffffffff821117156140f7576140f66140a0565b5b80604052505050565b600061410a614082565b905061411682826140cf565b919050565b600067ffffffffffffffff821115614136576141356140a0565b5b61413f82613f80565b9050602081019050919050565b82818337600083830152505050565b600061416e6141698461411b565b614100565b90508281526020810184848401111561418a5761418961409b565b5b61419584828561414c565b509392505050565b600082601f8301126141b2576141b1614096565b5b81356141c284826020860161415b565b91505092915050565b6000602082840312156141e1576141e061408c565b5b600082013567ffffffffffffffff8111156141ff576141fe614091565b5b61420b8482850161419d565b91505092915050565b600073ffffffffffffffffffffffffffffffffffffffff82169050919050565b600061423f82614214565b9050919050565b61424f81614234565b82525050565b600060208201905061426a6000830184614246565b92915050565b6000806000606084860312156142895761428861408c565b5b600084013567ffffffffffffffff8111156142a7576142a6614091565b5b6142b38682870161419d565b935050602084013567ffffffffffffffff8111156142d4576142d3614091565b5b6142e08682870161419d565b925050604084013567ffffffffffffffff81111561430157614300614091565b5b61430d8682870161419d565b9150509250925092565b600082825260208201905092915050565b600061433382613f3a565b61433d8185614317565b935061434d818560208601613f56565b61435681613f80565b840191505092915050565b6000602082019050818103600083015261437b8184614328565b905092915050565b600081519050919050565b600082825260208201905092915050565b6000819050602082019050919050565b6000819050919050565b6143c2816143af565b82525050565b600060c08301600083015184820360008601526143e58282613f91565b915050602083015184820360208601526143ff8282613f91565b915050604083015184820360408601526144198282613f91565b915050606083015184820360608601526144338282613f91565b9150506080830151848203608086015261444d8282613f91565b91505060a083015161446260a08601826143b9565b508091505092915050565b61447681614234565b82525050565b600082825260208201905092915050565b600061449882613f0e565b6144a2818561447c565b9350836020820285016144b485613f2a565b8060005b858110156144f057848403895281516144d18582613fca565b94506144dc83613fde565b925060208a019950506001810190506144b8565b50829750879550505050505092915050565b600081519050919050565b600082825260208201905092915050565b6000819050602082019050919050565b600061453a838361446d565b60208301905092915050565b6000602082019050919050565b600061455e82614502565b614568818561450d565b93506145738361451e565b8060005b838110156145a457815161458b888261452e565b975061459683614546565b925050600181019050614577565b5085935050505092915050565b600060e08301600083015184820360008601526145ce8282613f91565b915050602083015184820360208601526145e88282613f91565b9150506040830151848203604086015261460282826143c8565b9150506060830151614617606086018261446d565b506080830151848203608086015261462f828261448d565b91505060a083015184820360a0860152614649828261448d565b91505060c083015184820360c08601526146638282614553565b9150508091505092915050565b600061467c83836145b1565b905092915050565b6000602082019050919050565b600061469c82614383565b6146a6818561438e565b9350836020820285016146b88561439f565b8060005b858110156146f457848403895281516146d58582614670565b94506146e083614684565b925060208a019950506001810190506146bc565b50829750879550505050505092915050565b600060208201905081810360008301526147208184614691565b905092915050565b600060c08301600083015184820360008601526147458282613f91565b9150506020830151848203602086015261475f8282613f91565b915050604083015184820360408601526147798282613f91565b915050606083015184820360608601526147938282613f91565b915050608083015184820360808601526147ad8282613f91565b91505060a08301516147c260a08601826143b9565b508091505092915050565b6147d6816143af565b82525050565b600060a08201905081810360008301526147f68188614328565b9050818103602083015261480a8187614328565b9050818103604083015261481e8186614728565b905061482d6060830185614246565b61483a60808301846147cd565b9695505050505050565b600081519050919050565b600082825260208201905092915050565b6000819050602082019050919050565b6000606083016000830151848203600086015261488d8282613f91565b915050602083015184820360208601526148a78282613f91565b915050604083015184820360408601526148c18282613f91565b9150508091505092915050565b60006148da8383614870565b905092915050565b6000602082019050919050565b60006148fa82614844565b614904818561484f565b93508360208202850161491685614860565b8060005b85811015614952578484038952815161493385826148ce565b945061493e836148e2565b925060208a0199505060018101905061491a565b50829750879550505050505092915050565b6000602082019050818103600083015261497e81846148ef565b905092915050565b600060e08201905081810360008301526149a0818a614328565b905081810360208301526149b48189613feb565b905081810360408301526149c88188613feb565b905081810360608301526149dc8187613feb565b905081810360808301526149f08186614328565b90506149ff60a08301856147cd565b614a0c60c08301846147cd565b98975050505050505050565b600082825260208201905092915050565b6000614a3482614502565b614a3e8185614a18565b9350614a498361451e565b8060005b83811015614a7a578151614a61888261452e565b9750614a6c83614546565b925050600181019050614a4d565b5085935050505092915050565b60006020820190508181036000830152614aa18184614a29565b905092915050565b7f55736572206e6f74207265676973746572656421000000000000000000000000600082015250565b6000614adf601483614317565b9150614aea82614aa9565b602082019050919050565b60006020820190508181036000830152614b0e81614ad2565b9050919050565b7f4e487b7100000000000000000000000000000000000000000000000000000000600052602260045260246000fd5b60006002820490506001821680614b5c57607f821691505b602082108103614b6f57614b6e614b15565b5b50919050565b600081905092915050565b6000614b8b82613f3a565b614b958185614b75565b9350614ba5818560208601613f56565b80840191505092915050565b6000614bbd8284614b80565b915081905092915050565b7f436f6d6d756e69747920726f6f6d20646f6573206e6f74206578697374210000600082015250565b6000614bfe601e83614317565b9150614c0982614bc8565b602082019050919050565b60006020820190508181036000830152614c2d81614bf1565b9050919050565b7f436f6d6d756e697479206e616d652063616e6e6f7420626520656d7074792100600082015250565b6000614c6a601f83614317565b9150614c7582614c34565b602082019050919050565b60006020820190508181036000830152614c9981614c5d565b9050919050565b7f436f6d6d756e69747920696d6167652063616e6e6f7420626520656d70747921600082015250565b6000614cd6602083614317565b9150614ce182614ca0565b602082019050919050565b60006020820190508181036000830152614d0581614cc9565b9050919050565b7f426f74206e616d652063616e6e6f7420626520656d7074792100000000000000600082015250565b6000614d42601983614317565b9150614d4d82614d0c565b602082019050919050565b60006020820190508181036000830152614d7181614d35565b9050919050565b7f426f7420646f6573206e6f742065786973742100000000000000000000000000600082015250565b6000614dae601383614317565b9150614db982614d78565b602082019050919050565b60006020820190508181036000830152614ddd81614da1565b9050919050565b60008190508160005260206000209050919050565b60006020601f8301049050919050565b600082821b905092915050565b600060088302614e467fffffffffffffffffffffffffffffffffffffffffffffffffffffffffffffffff82614e09565b614e508683614e09565b95508019841693508086168417925050509392505050565b6000819050919050565b6000614e8d614e88614e83846143af565b614e68565b6143af565b9050919050565b6000819050919050565b614ea783614e72565b614ebb614eb382614e94565b848454614e16565b825550505050565b600090565b614ed0614ec3565b614edb818484614e9e565b505050565b5b81811015614eff57614ef4600082614ec8565b600181019050614ee1565b5050565b601f821115614f4457614f1581614de4565b614f1e84614df9565b81016020851015614f2d578190505b614f41614f3985614df9565b830182614ee0565b50505b505050565b600082821c905092915050565b6000614f6760001984600802614f49565b1980831691505092915050565b6000614f808383614f56565b9150826002028217905092915050565b614f9982613f3a565b67ffffffffffffffff811115614fb257614fb16140a0565b5b614fbc8254614b44565b614fc7828285614f03565b600060209050601f831160018114614ffa5760008415614fe8578287015190505b614ff28582614f74565b86555061505a565b601f19841661500886614de4565b60005b828110156150305784890151825560018201915060208501945060208101905061500b565b8683101561504d5784890151615049601f891682614f56565b8355505b6001600288020188555050505b505050505050565b60008154905061507181614b44565b9050919050565b81810361508657505061515e565b61508f82615062565b67ffffffffffffffff8111156150a8576150a76140a0565b5b6150b28254614b44565b6150bd828285614f03565b6000601f8311600181146150ec57600084156150da578287015490505b6150e48582614f74565b865550615157565b601f1984166150fa87614de4565b965061510586614de4565b60005b8281101561512d57848901548255600182019150600185019450602081019050615108565b8683101561514a5784890154615146601f891682614f56565b8355505b6001600288020188555050505b5050505050505b565b7f476f616c2049442063616e6e6f7420626520656d707479210000000000000000600082015250565b6000615196601883614317565b91506151a182615160565b602082019050919050565b600060208201905081810360008301526151c581615189565b9050919050565b7f4e487b7100000000000000000000000000000000000000000000000000000000600052603260045260246000fd5b7f416c72656164792061206d656d626572206f66207468697320636f6d6d756e6960008201527f7479210000000000000000000000000000000000000000000000000000000000602082015250565b6000615257602383614317565b9150615262826151fb565b604082019050919050565b600060208201905081810360008301526152868161524a565b9050919050565b7f4e487b7100000000000000000000000000000000000000000000000000000000600052601160045260246000fd5b60006152c7826143af565b91507fffffffffffffffffffffffffffffffffffffffffffffffffffffffffffffffff82036152f9576152f861528d565b5b600182019050919050565b7f496e6a7572792049442063616e6e6f7420626520656d70747921000000000000600082015250565b600061533a601a83614317565b915061534582615304565b602082019050919050565b600060208201905081810360008301526153698161532d565b9050919050565b7f5573657220616c72656164792072656769737465726564210000000000000000600082015250565b60006153a6601883614317565b91506153b182615370565b602082019050919050565b600060208201905081810360008301526153d581615399565b9050919050565b7f4d657461646174612063616e6e6f7420626520656d7074792100000000000000600082015250565b6000615412601983614317565b915061541d826153dc565b602082019050919050565b6000602082019050818103600083015261544181615405565b9050919050565b7f41637469766974792049442063616e6e6f7420626520656d7074792100000000600082015250565b600061547e601c83614317565b915061548982615448565b602082019050919050565b600060208201905081810360008301526154ad81615471565b9050919050565b60006154bf826143af565b91506154ca836143af565b92508282026154d8816143af565b915082820484148315176154ef576154ee61528d565b5b5092915050565b7f496e73756666696369656e74207061796d656e74000000000000000000000000600082015250565b600061552c601483614317565b9150615537826154f6565b602082019050919050565b6000602082019050818103600083015261555b8161551f565b905091905056fea2646970667358221220981743a2a18581a248fef658086d5be8bc37f9615061fbc188df8ce2e71b2dd264736f6c63430008140033",
  "linkReferences": {},
  "deployedLinkReferences": {}
}