{
  "_format": "hh-sol-artifact-1",
  "contractName": "Athl3te",
  "sourceName": "contracts/Athl3te.sol",
  "abi": [
    {
      "inputs": [
        {
          "internalType": "string",
          "name": "_activityId",
          "type": "string"
        }
      ],
      "name": "addActivity",
      "outputs": [],
      "stateMutability": "nonpayable",
      "type": "function"
    },
    {
      "inputs": [
        {
          "internalType": "string",
          "name": "_goalId",
          "type": "string"
        }
      ],
      "name": "addNutritionGoal",
      "outputs": [],
      "stateMutability": "nonpayable",
      "type": "function"
    },
    {
      "inputs": [
        {
          "internalType": "string",
          "name": "_goalId",
          "type": "string"
        }
      ],
      "name": "addSportGoal",
      "outputs": [],
      "stateMutability": "nonpayable",
      "type": "function"
    },
    {
      "inputs": [
        {
          "internalType": "uint256",
          "name": "",
          "type": "uint256"
        }
      ],
      "name": "allBots",
      "outputs": [
        {
          "internalType": "string",
          "name": "botName",
          "type": "string"
        },
        {
          "internalType": "string",
          "name": "botImage",
          "type": "string"
        },
        {
          "internalType": "string",
          "name": "systemPrompt",
          "type": "string"
        },
        {
          "internalType": "string",
          "name": "botDescription",
          "type": "string"
        },
        {
          "internalType": "string",
          "name": "deploymentURL",
          "type": "string"
        },
        {
          "internalType": "uint256",
          "name": "unlockCostInGWei",
          "type": "uint256"
        }
      ],
      "stateMutability": "view",
      "type": "function"
    },
    {
      "inputs": [
        {
          "internalType": "uint256",
          "name": "",
          "type": "uint256"
        }
      ],
      "name": "allCommunityRooms",
      "outputs": [
        {
          "internalType": "string",
          "name": "communityName",
          "type": "string"
        },
        {
          "internalType": "string",
          "name": "communityImage",
          "type": "string"
        },
        {
          "components": [
            {
              "internalType": "string",
              "name": "botName",
              "type": "string"
            },
            {
              "internalType": "string",
              "name": "botImage",
              "type": "string"
            },
            {
              "internalType": "string",
              "name": "systemPrompt",
              "type": "string"
            },
            {
              "internalType": "string",
              "name": "botDescription",
              "type": "string"
            },
            {
              "internalType": "string",
              "name": "deploymentURL",
              "type": "string"
            },
            {
              "internalType": "uint256",
              "name": "unlockCostInGWei",
              "type": "uint256"
            }
          ],
          "internalType": "struct Athl3te.Bot",
          "name": "bot",
          "type": "tuple"
        },
        {
          "internalType": "address",
          "name": "createdBy",
          "type": "address"
        },
        {
          "internalType": "string",
          "name": "messagesId",
          "type": "string"
        }
      ],
      "stateMutability": "view",
      "type": "function"
    },
    {
      "inputs": [
        {
          "internalType": "uint256",
          "name": "",
          "type": "uint256"
        }
      ],
      "name": "allUsers",
      "outputs": [
        {
          "internalType": "string",
          "name": "metadata",
          "type": "string"
        },
        {
          "internalType": "string",
          "name": "injuriesDescriptionId",
          "type": "string"
        },
        {
          "internalType": "bool",
          "name": "isRegistered",
          "type": "bool"
        }
      ],
      "stateMutability": "view",
      "type": "function"
    },
    {
      "inputs": [
        {
          "internalType": "string",
          "name": "_botName",
          "type": "string"
        }
      ],
      "name": "buyBot",
      "outputs": [],
      "stateMutability": "payable",
      "type": "function"
    },
    {
      "inputs": [
        {
          "internalType": "string",
          "name": "_botName",
          "type": "string"
        },
        {
          "internalType": "string",
          "name": "_botImage",
          "type": "string"
        },
        {
          "internalType": "string",
          "name": "_systemPrompt",
          "type": "string"
        },
        {
          "internalType": "string",
          "name": "_botDescription",
          "type": "string"
        },
        {
          "internalType": "string",
          "name": "_deploymentURL",
          "type": "string"
        },
        {
          "internalType": "uint256",
          "name": "_unlockCostInGWei",
          "type": "uint256"
        }
      ],
      "name": "createBot",
      "outputs": [],
      "stateMutability": "nonpayable",
      "type": "function"
    },
    {
      "inputs": [
        {
          "internalType": "string",
          "name": "_communityName",
          "type": "string"
        },
        {
          "internalType": "string",
          "name": "_communityImage",
          "type": "string"
        },
        {
          "internalType": "string",
          "name": "_botName",
          "type": "string"
        }
      ],
      "name": "createCommunityRoom",
      "outputs": [],
      "stateMutability": "nonpayable",
      "type": "function"
    },
    {
      "inputs": [
        {
          "internalType": "string",
          "name": "_communityName",
          "type": "string"
        }
      ],
      "name": "getCommunityCreator",
      "outputs": [
        {
          "internalType": "address",
          "name": "",
          "type": "address"
        }
      ],
      "stateMutability": "view",
      "type": "function"
    },
    {
      "inputs": [
        {
          "internalType": "string",
          "name": "_communityName",
          "type": "string"
        }
      ],
      "name": "getCommunityMembers",
      "outputs": [
        {
          "internalType": "address[]",
          "name": "",
          "type": "address[]"
        }
      ],
      "stateMutability": "view",
      "type": "function"
    },
    {
      "inputs": [
        {
          "internalType": "string",
          "name": "_communityName",
          "type": "string"
        }
      ],
      "name": "getCommunityRoomDetails",
      "outputs": [
        {
          "internalType": "string",
          "name": "communityName",
          "type": "string"
        },
        {
          "internalType": "string",
          "name": "communityImage",
          "type": "string"
        },
        {
          "components": [
            {
              "internalType": "string",
              "name": "botName",
              "type": "string"
            },
            {
              "internalType": "string",
              "name": "botImage",
              "type": "string"
            },
            {
              "internalType": "string",
              "name": "systemPrompt",
              "type": "string"
            },
            {
              "internalType": "string",
              "name": "botDescription",
              "type": "string"
            },
            {
              "internalType": "string",
              "name": "deploymentURL",
              "type": "string"
            },
            {
              "internalType": "uint256",
              "name": "unlockCostInGWei",
              "type": "uint256"
            }
          ],
          "internalType": "struct Athl3te.Bot",
          "name": "bot",
          "type": "tuple"
        },
        {
          "internalType": "address",
          "name": "createdBy",
          "type": "address"
        },
        {
          "internalType": "string",
          "name": "messagesId",
          "type": "string"
        }
      ],
      "stateMutability": "view",
      "type": "function"
    },
    {
      "inputs": [],
      "name": "getInjuryDescription",
      "outputs": [
        {
          "internalType": "string",
          "name": "",
          "type": "string"
        }
      ],
      "stateMutability": "view",
      "type": "function"
    },
    {
      "inputs": [],
      "name": "getUserActivities",
      "outputs": [
        {
          "internalType": "string[]",
          "name": "",
          "type": "string[]"
        }
      ],
      "stateMutability": "view",
      "type": "function"
    },
    {
      "inputs": [],
      "name": "getUserCommunities",
      "outputs": [
        {
          "internalType": "string[]",
          "name": "",
          "type": "string[]"
        }
      ],
      "stateMutability": "view",
      "type": "function"
    },
    {
      "inputs": [],
      "name": "getUserDetails",
      "outputs": [
        {
          "internalType": "string",
          "name": "metadata",
          "type": "string"
        },
        {
          "internalType": "string[]",
          "name": "activityIds",
          "type": "string[]"
        },
        {
          "internalType": "string[]",
          "name": "sportGoalIds",
          "type": "string[]"
        },
        {
          "internalType": "string[]",
          "name": "nutritionGoalIds",
          "type": "string[]"
        },
        {
          "internalType": "string",
          "name": "injuriesDescriptionId",
          "type": "string"
        },
        {
          "internalType": "uint256",
          "name": "nftCount",
          "type": "uint256"
        },
        {
          "internalType": "uint256",
          "name": "assistantCount",
          "type": "uint256"
        }
      ],
      "stateMutability": "view",
      "type": "function"
    },
    {
      "inputs": [],
      "name": "getUserMetadata",
      "outputs": [
        {
          "internalType": "string",
          "name": "",
          "type": "string"
        }
      ],
      "stateMutability": "view",
      "type": "function"
    },
    {
      "inputs": [],
      "name": "getUserNfts",
      "outputs": [
        {
          "components": [
            {
              "internalType": "string",
              "name": "nftName",
              "type": "string"
            },
            {
              "internalType": "string",
              "name": "nftImage",
              "type": "string"
            },
            {
              "internalType": "string",
              "name": "description",
              "type": "string"
            }
          ],
          "internalType": "struct Athl3te.nft[]",
          "name": "",
          "type": "tuple[]"
        }
      ],
      "stateMutability": "view",
      "type": "function"
    },
    {
      "inputs": [],
      "name": "getUserNutritionGoals",
      "outputs": [
        {
          "internalType": "string[]",
          "name": "",
          "type": "string[]"
        }
      ],
      "stateMutability": "view",
      "type": "function"
    },
    {
      "inputs": [],
      "name": "getUserSportGoals",
      "outputs": [
        {
          "internalType": "string[]",
          "name": "",
          "type": "string[]"
        }
      ],
      "stateMutability": "view",
      "type": "function"
    },
    {
      "inputs": [
        {
          "internalType": "string",
          "name": "_communityName",
          "type": "string"
        }
      ],
      "name": "joinCommunityRoom",
      "outputs": [],
      "stateMutability": "nonpayable",
      "type": "function"
    },
    {
      "inputs": [
        {
          "internalType": "string",
          "name": "_metadata",
          "type": "string"
        }
      ],
      "name": "registerUser",
      "outputs": [],
      "stateMutability": "nonpayable",
      "type": "function"
    },
    {
      "inputs": [
        {
          "internalType": "string",
          "name": "_injuryId",
          "type": "string"
        }
      ],
      "name": "updateInjury",
      "outputs": [],
      "stateMutability": "nonpayable",
      "type": "function"
    }
  ],
  "bytecode": "0x608060405234801561001057600080fd5b506155e780620000216000396000f3fe6080604052600436106101405760003560e01c8063704f1b94116100b6578063b841e45a1161006f578063b841e45a14610481578063b84f14b7146104aa578063cf926bba146104c6578063e7d98840146104f1578063e9f36ff41461052e578063fe71cd771461055957610140565b8063704f1b941461036957806375ad640414610392578063840a2ab8146103bd578063903d3626146103e8578063942886be14610411578063a2bdedf41461044257610140565b806329a7645d1161010857806329a7645d146102435780633fccb4a51461028457806343dfc73c146102ad57806354d9ea15146102d65780635685d06614610317578063610693e71461034057610140565b80630bf84be71461014557806317be9e99146101705780631dd20a8b146101ad57806322428b67146101d657806328209a4f14610218575b600080fd5b34801561015157600080fd5b5061015a610584565b6040516101679190614319565b60405180910390f35b34801561017c57600080fd5b5061019760048036038101906101929190614484565b61072a565b6040516101a4919061450e565b60405180910390f35b3480156101b957600080fd5b506101d460048036038101906101cf9190614529565b6107cd565b005b3480156101e257600080fd5b506101fd60048036038101906101f89190614606565b610d17565b60405161020f9695949392919061468c565b60405180910390f35b34801561022457600080fd5b5061022d61100b565b60405161023a9190614710565b60405180910390f35b34801561024f57600080fd5b5061026a60048036038101906102659190614606565b61116a565b60405161027b9594939291906147e6565b60405180910390f35b34801561029057600080fd5b506102ab60048036038101906102a69190614484565b611656565b005b3480156102b957600080fd5b506102d460048036038101906102cf9190614484565b61175b565b005b3480156102e257600080fd5b506102fd60048036038101906102f89190614484565b611a0f565b60405161030e9594939291906147e6565b60405180910390f35b34801561032357600080fd5b5061033e60048036038101906103399190614855565b611f72565b005b34801561034c57600080fd5b5061036760048036038101906103629190614484565b612128565b005b34801561037557600080fd5b50610390600480360381019061038b9190614484565b612208565b005b34801561039e57600080fd5b506103a7612571565b6040516103b49190614319565b60405180910390f35b3480156103c957600080fd5b506103d2612717565b6040516103df9190614a8e565b60405180910390f35b3480156103f457600080fd5b5061040f600480360381019061040a9190614484565b6129f9565b005b34801561041d57600080fd5b50610426612afe565b6040516104399796959493929190614ab0565b60405180910390f35b34801561044e57600080fd5b5061046960048036038101906104649190614606565b612fa6565b60405161047893929190614b5d565b60405180910390f35b34801561048d57600080fd5b506104a860048036038101906104a39190614484565b6130fd565b005b6104c460048036038101906104bf9190614484565b613202565b005b3480156104d257600080fd5b506104db61377d565b6040516104e89190614319565b60405180910390f35b3480156104fd57600080fd5b5061051860048036038101906105139190614484565b613923565b6040516105259190614c60565b60405180910390f35b34801561053a57600080fd5b50610543613a2b565b6040516105509190614319565b60405180910390f35b34801561056557600080fd5b5061056e613bd1565b60405161057b9190614710565b60405180910390f35b60606000803373ffffffffffffffffffffffffffffffffffffffff1673ffffffffffffffffffffffffffffffffffffffff16815260200190815260200160002060070160009054906101000a900460ff16610614576040517f08c379a000000000000000000000000000000000000000000000000000000000815260040161060b90614cce565b60405180910390fd5b6000803373ffffffffffffffffffffffffffffffffffffffff1673ffffffffffffffffffffffffffffffffffffffff168152602001908152602001600020600201805480602002602001604051908101604052809291908181526020016000905b8282101561072157838290600052602060002001805461069490614d1d565b80601f01602080910402602001604051908101604052809291908181526020018280546106c090614d1d565b801561070d5780601f106106e25761010080835404028352916020019161070d565b820191906000526020600020905b8154815290600101906020018083116106f057829003601f168201915b505050505081526020019060010190610675565b50505050905090565b60008060028360405161073d9190614d8a565b90815260200160405180910390209050600081600001805461075e90614d1d565b9050116107a0576040517f08c379a000000000000000000000000000000000000000000000000000000000815260040161079790614ded565b60405180910390fd5b8060080160009054906101000a900473ffffffffffffffffffffffffffffffffffffffff16915050919050565b6000835111610811576040517f08c379a000000000000000000000000000000000000000000000000000000000815260040161080890614e59565b60405180910390fd5b6000815111610855576040517f08c379a000000000000000000000000000000000000000000000000000000000815260040161084c90614ec5565b60405180910390fd5b60006001826040516108679190614d8a565b90815260200160405180910390209050600081600001805461088890614d1d565b9050116108ca576040517f08c379a00000000000000000000000000000000000000000000000000000000081526004016108c190614f31565b60405180910390fd5b60006002856040516108dc9190614d8a565b90815260200160405180910390209050848160000190816108fd91906150fd565b508381600101908161090f91906150fd565b5081816002016000820181600001908161092991906151e5565b506001820181600101908161093e91906151e5565b506002820181600201908161095391906151e5565b506003820181600301908161096891906151e5565b506004820181600401908161097d91906151e5565b5060058201548160050155905050338160080160006101000a81548173ffffffffffffffffffffffffffffffffffffffff021916908373ffffffffffffffffffffffffffffffffffffffff160217905550604051806020016040528060008152508160090190816109ee91906150fd565b50600067ffffffffffffffff811115610a0a57610a09614359565b5b604051908082528060200260200182016040528015610a385781602001602082028036833780820191505090505b5081600b019080519060200190610a50929190613d30565b50600067ffffffffffffffff811115610a6c57610a6b614359565b5b604051908082528060200260200182016040528015610a9f57816020015b6060815260200190600190039081610a8a5790505b5081600a019080519060200190610ab7929190613dba565b5080600b01339080600181540180825580915050600190039060005260206000200160009091909190916101000a81548173ffffffffffffffffffffffffffffffffffffffff021916908373ffffffffffffffffffffffffffffffffffffffff1602179055506000803373ffffffffffffffffffffffffffffffffffffffff1673ffffffffffffffffffffffffffffffffffffffff16815260200190815260200160002060080185908060018154018082558091505060019003906000526020600020016000909190919091509081610b9091906150fd565b5060058190806001815401808255809150506001900390600052602060002090600c020160009091909190915060008201816000019081610bd191906151e5565b5060018201816001019081610be691906151e5565b50600282018160020160008201816000019081610c0391906151e5565b5060018201816001019081610c1891906151e5565b5060028201816002019081610c2d91906151e5565b5060038201816003019081610c4291906151e5565b5060048201816004019081610c5791906151e5565b506005820154816005015550506008820160009054906101000a900473ffffffffffffffffffffffffffffffffffffffff168160080160006101000a81548173ffffffffffffffffffffffffffffffffffffffff021916908373ffffffffffffffffffffffffffffffffffffffff16021790555060098201816009019081610cdf91906151e5565b50600a820181600a01908054610cf6929190613e13565b50600b820181600b01908054610d0d929190613e70565b5050505050505050565b60048181548110610d2757600080fd5b9060005260206000209060060201600091509050806000018054610d4a90614d1d565b80601f0160208091040260200160405190810160405280929190818152602001828054610d7690614d1d565b8015610dc35780601f10610d9857610100808354040283529160200191610dc3565b820191906000526020600020905b815481529060010190602001808311610da657829003601f168201915b505050505090806001018054610dd890614d1d565b80601f0160208091040260200160405190810160405280929190818152602001828054610e0490614d1d565b8015610e515780601f10610e2657610100808354040283529160200191610e51565b820191906000526020600020905b815481529060010190602001808311610e3457829003601f168201915b505050505090806002018054610e6690614d1d565b80601f0160208091040260200160405190810160405280929190818152602001828054610e9290614d1d565b8015610edf5780601f10610eb457610100808354040283529160200191610edf565b820191906000526020600020905b815481529060010190602001808311610ec257829003601f168201915b505050505090806003018054610ef490614d1d565b80601f0160208091040260200160405190810160405280929190818152602001828054610f2090614d1d565b8015610f6d5780601f10610f4257610100808354040283529160200191610f6d565b820191906000526020600020905b815481529060010190602001808311610f5057829003601f168201915b505050505090806004018054610f8290614d1d565b80601f0160208091040260200160405190810160405280929190818152602001828054610fae90614d1d565b8015610ffb5780601f10610fd057610100808354040283529160200191610ffb565b820191906000526020600020905b815481529060010190602001808311610fde57829003601f168201915b5050505050908060050154905086565b60606000803373ffffffffffffffffffffffffffffffffffffffff1673ffffffffffffffffffffffffffffffffffffffff16815260200190815260200160002060070160009054906101000a900460ff1661109b576040517f08c379a000000000000000000000000000000000000000000000000000000000815260040161109290614cce565b60405180910390fd5b6000803373ffffffffffffffffffffffffffffffffffffffff1673ffffffffffffffffffffffffffffffffffffffff16815260200190815260200160002060050180546110e790614d1d565b80601f016020809104026020016040519081016040528092919081815260200182805461111390614d1d565b80156111605780601f1061113557610100808354040283529160200191611160565b820191906000526020600020905b81548152906001019060200180831161114357829003601f168201915b5050505050905090565b6005818154811061117a57600080fd5b90600052602060002090600c020160009150905080600001805461119d90614d1d565b80601f01602080910402602001604051908101604052809291908181526020018280546111c990614d1d565b80156112165780601f106111eb57610100808354040283529160200191611216565b820191906000526020600020905b8154815290600101906020018083116111f957829003601f168201915b50505050509080600101805461122b90614d1d565b80601f016020809104026020016040519081016040528092919081815260200182805461125790614d1d565b80156112a45780601f10611279576101008083540402835291602001916112a4565b820191906000526020600020905b81548152906001019060200180831161128757829003601f168201915b505050505090806002016040518060c00160405290816000820180546112c990614d1d565b80601f01602080910402602001604051908101604052809291908181526020018280546112f590614d1d565b80156113425780601f1061131757610100808354040283529160200191611342565b820191906000526020600020905b81548152906001019060200180831161132557829003601f168201915b5050505050815260200160018201805461135b90614d1d565b80601f016020809104026020016040519081016040528092919081815260200182805461138790614d1d565b80156113d45780601f106113a9576101008083540402835291602001916113d4565b820191906000526020600020905b8154815290600101906020018083116113b757829003601f168201915b505050505081526020016002820180546113ed90614d1d565b80601f016020809104026020016040519081016040528092919081815260200182805461141990614d1d565b80156114665780601f1061143b57610100808354040283529160200191611466565b820191906000526020600020905b81548152906001019060200180831161144957829003601f168201915b5050505050815260200160038201805461147f90614d1d565b80601f01602080910402602001604051908101604052809291908181526020018280546114ab90614d1d565b80156114f85780601f106114cd576101008083540402835291602001916114f8565b820191906000526020600020905b8154815290600101906020018083116114db57829003601f168201915b5050505050815260200160048201805461151190614d1d565b80601f016020809104026020016040519081016040528092919081815260200182805461153d90614d1d565b801561158a5780601f1061155f5761010080835404028352916020019161158a565b820191906000526020600020905b81548152906001019060200180831161156d57829003601f168201915b50505050508152602001600582015481525050908060080160009054906101000a900473ffffffffffffffffffffffffffffffffffffffff16908060090180546115d390614d1d565b80601f01602080910402602001604051908101604052809291908181526020018280546115ff90614d1d565b801561164c5780601f106116215761010080835404028352916020019161164c565b820191906000526020600020905b81548152906001019060200180831161162f57829003601f168201915b5050505050905085565b6000803373ffffffffffffffffffffffffffffffffffffffff1673ffffffffffffffffffffffffffffffffffffffff16815260200190815260200160002060070160009054906101000a900460ff166116e4576040517f08c379a00000000000000000000000000000000000000000000000000000000081526004016116db90614cce565b60405180910390fd5b6000803373ffffffffffffffffffffffffffffffffffffffff1673ffffffffffffffffffffffffffffffffffffffff1681526020019081526020016000206002018190806001815401808255809150506001900390600052602060002001600090919091909150908161175791906150fd565b5050565b6000803373ffffffffffffffffffffffffffffffffffffffff1673ffffffffffffffffffffffffffffffffffffffff16815260200190815260200160002060070160009054906101000a900460ff166117e9576040517f08c379a00000000000000000000000000000000000000000000000000000000081526004016117e090614cce565b60405180910390fd5b60006002826040516117fb9190614d8a565b90815260200160405180910390209050600081600001805461181c90614d1d565b90501161185e576040517f08c379a000000000000000000000000000000000000000000000000000000000815260040161185590614ded565b60405180910390fd5b60005b81600b0180549050811015611931573373ffffffffffffffffffffffffffffffffffffffff1682600b01828154811061189d5761189c6152cd565b5b9060005260206000200160009054906101000a900473ffffffffffffffffffffffffffffffffffffffff1673ffffffffffffffffffffffffffffffffffffffff160361191e576040517f08c379a00000000000000000000000000000000000000000000000000000000081526004016119159061536e565b60405180910390fd5b8080611929906153bd565b915050611861565b5080600b01339080600181540180825580915050600190039060005260206000200160009091909190916101000a81548173ffffffffffffffffffffffffffffffffffffffff021916908373ffffffffffffffffffffffffffffffffffffffff1602179055506000803373ffffffffffffffffffffffffffffffffffffffff1673ffffffffffffffffffffffffffffffffffffffff16815260200190815260200160002060080182908060018154018082558091505060019003906000526020600020016000909190919091509081611a0a91906150fd565b505050565b606080611a1a613ec2565b600060606000600287604051611a309190614d8a565b908152602001604051809103902090506000816000018054611a5190614d1d565b905011611a93576040517f08c379a0000000000000000000000000000000000000000000000000000000008152600401611a8a90614ded565b60405180910390fd5b8060000181600101826002018360080160009054906101000a900473ffffffffffffffffffffffffffffffffffffffff1684600901848054611ad490614d1d565b80601f0160208091040260200160405190810160405280929190818152602001828054611b0090614d1d565b8015611b4d5780601f10611b2257610100808354040283529160200191611b4d565b820191906000526020600020905b815481529060010190602001808311611b3057829003601f168201915b50505050509450838054611b6090614d1d565b80601f0160208091040260200160405190810160405280929190818152602001828054611b8c90614d1d565b8015611bd95780601f10611bae57610100808354040283529160200191611bd9565b820191906000526020600020905b815481529060010190602001808311611bbc57829003601f168201915b50505050509350826040518060c0016040529081600082018054611bfc90614d1d565b80601f0160208091040260200160405190810160405280929190818152602001828054611c2890614d1d565b8015611c755780601f10611c4a57610100808354040283529160200191611c75565b820191906000526020600020905b815481529060010190602001808311611c5857829003601f168201915b50505050508152602001600182018054611c8e90614d1d565b80601f0160208091040260200160405190810160405280929190818152602001828054611cba90614d1d565b8015611d075780601f10611cdc57610100808354040283529160200191611d07565b820191906000526020600020905b815481529060010190602001808311611cea57829003601f168201915b50505050508152602001600282018054611d2090614d1d565b80601f0160208091040260200160405190810160405280929190818152602001828054611d4c90614d1d565b8015611d995780601f10611d6e57610100808354040283529160200191611d99565b820191906000526020600020905b815481529060010190602001808311611d7c57829003601f168201915b50505050508152602001600382018054611db290614d1d565b80601f0160208091040260200160405190810160405280929190818152602001828054611dde90614d1d565b8015611e2b5780601f10611e0057610100808354040283529160200191611e2b565b820191906000526020600020905b815481529060010190602001808311611e0e57829003601f168201915b50505050508152602001600482018054611e4490614d1d565b80601f0160208091040260200160405190810160405280929190818152602001828054611e7090614d1d565b8015611ebd5780601f10611e9257610100808354040283529160200191611ebd565b820191906000526020600020905b815481529060010190602001808311611ea057829003601f168201915b505050505081526020016005820154815250509250808054611ede90614d1d565b80601f0160208091040260200160405190810160405280929190818152602001828054611f0a90614d1d565b8015611f575780601f10611f2c57610100808354040283529160200191611f57565b820191906000526020600020905b815481529060010190602001808311611f3a57829003601f168201915b50505050509050955095509550955095505091939590929450565b6000865111611fb6576040517f08c379a0000000000000000000000000000000000000000000000000000000008152600401611fad90614ec5565b60405180910390fd5b60008111611ff9576040517f08c379a0000000000000000000000000000000000000000000000000000000008152600401611ff090615477565b60405180910390fd5b600060018760405161200b9190614d8a565b908152602001604051809103902090508681600001908161202c91906150fd565b508581600101908161203e91906150fd565b508481600201908161205091906150fd565b508381600301908161206291906150fd565b508281600401908161207491906150fd565b508181600501819055506004819080600181540180825580915050600190039060005260206000209060060201600090919091909150600082018160000190816120be91906151e5565b50600182018160010190816120d391906151e5565b50600282018160020190816120e891906151e5565b50600382018160030190816120fd91906151e5565b506004820181600401908161211291906151e5565b5060058201548160050155505050505050505050565b6000803373ffffffffffffffffffffffffffffffffffffffff1673ffffffffffffffffffffffffffffffffffffffff16815260200190815260200160002060070160009054906101000a900460ff166121b6576040517f08c379a00000000000000000000000000000000000000000000000000000000081526004016121ad90614cce565b60405180910390fd5b806000803373ffffffffffffffffffffffffffffffffffffffff1673ffffffffffffffffffffffffffffffffffffffff168152602001908152602001600020600501908161220491906150fd565b5050565b6000803373ffffffffffffffffffffffffffffffffffffffff1673ffffffffffffffffffffffffffffffffffffffff16815260200190815260200160002060070160009054906101000a900460ff1615612297576040517f08c379a000000000000000000000000000000000000000000000000000000000815260040161228e906154e3565b60405180910390fd5b60008060003373ffffffffffffffffffffffffffffffffffffffff1673ffffffffffffffffffffffffffffffffffffffff168152602001908152602001600020905060018160070160006101000a81548160ff0219169083151502179055508181600001908161230791906150fd565b50600067ffffffffffffffff81111561232357612322614359565b5b60405190808252806020026020018201604052801561235657816020015b60608152602001906001900390816123415790505b5081600101908051906020019061236e929190613dba565b50600067ffffffffffffffff81111561238a57612389614359565b5b6040519080825280602002602001820160405280156123bd57816020015b60608152602001906001900390816123a85790505b508160020190805190602001906123d5929190613dba565b50600067ffffffffffffffff8111156123f1576123f0614359565b5b60405190808252806020026020018201604052801561242457816020015b606081526020019060019003908161240f5790505b5081600301908051906020019061243c929190613dba565b506040518060200160405280600081525081600501908161245d91906150fd565b5060038190806001815401808255809150506001900390600052602060002090600902016000909190919091506000820181600001908161249e91906151e5565b5060018201816001019080546124b5929190613e13565b5060028201816002019080546124cc929190613e13565b5060038201816003019080546124e3929190613e13565b5060048201816004019080546124fa929190613ef8565b506005820181600501908161250f91906151e5565b506006820181600601908054612526929190613fe2565b506007820160009054906101000a900460ff168160070160006101000a81548160ff021916908315150217905550600882018160080190805461256a929190613e13565b5050505050565b60606000803373ffffffffffffffffffffffffffffffffffffffff1673ffffffffffffffffffffffffffffffffffffffff16815260200190815260200160002060070160009054906101000a900460ff16612601576040517f08c379a00000000000000000000000000000000000000000000000000000000081526004016125f890614cce565b60405180910390fd5b6000803373ffffffffffffffffffffffffffffffffffffffff1673ffffffffffffffffffffffffffffffffffffffff168152602001908152602001600020600801805480602002602001604051908101604052809291908181526020016000905b8282101561270e57838290600052602060002001805461268190614d1d565b80601f01602080910402602001604051908101604052809291908181526020018280546126ad90614d1d565b80156126fa5780601f106126cf576101008083540402835291602001916126fa565b820191906000526020600020905b8154815290600101906020018083116126dd57829003601f168201915b505050505081526020019060010190612662565b50505050905090565b60606000803373ffffffffffffffffffffffffffffffffffffffff1673ffffffffffffffffffffffffffffffffffffffff16815260200190815260200160002060070160009054906101000a900460ff166127a7576040517f08c379a000000000000000000000000000000000000000000000000000000000815260040161279e90614cce565b60405180910390fd5b6000803373ffffffffffffffffffffffffffffffffffffffff1673ffffffffffffffffffffffffffffffffffffffff168152602001908152602001600020600601805480602002602001604051908101604052809291908181526020016000905b828210156129f0578382906000526020600020906003020160405180606001604052908160008201805461283b90614d1d565b80601f016020809104026020016040519081016040528092919081815260200182805461286790614d1d565b80156128b45780601f10612889576101008083540402835291602001916128b4565b820191906000526020600020905b81548152906001019060200180831161289757829003601f168201915b505050505081526020016001820180546128cd90614d1d565b80601f01602080910402602001604051908101604052809291908181526020018280546128f990614d1d565b80156129465780601f1061291b57610100808354040283529160200191612946565b820191906000526020600020905b81548152906001019060200180831161292957829003601f168201915b5050505050815260200160028201805461295f90614d1d565b80601f016020809104026020016040519081016040528092919081815260200182805461298b90614d1d565b80156129d85780601f106129ad576101008083540402835291602001916129d8565b820191906000526020600020905b8154815290600101906020018083116129bb57829003601f168201915b50505050508152505081526020019060010190612808565b50505050905090565b6000803373ffffffffffffffffffffffffffffffffffffffff1673ffffffffffffffffffffffffffffffffffffffff16815260200190815260200160002060070160009054906101000a900460ff16612a87576040517f08c379a0000000000000000000000000000000000000000000000000000000008152600401612a7e90614cce565b60405180910390fd5b6000803373ffffffffffffffffffffffffffffffffffffffff1673ffffffffffffffffffffffffffffffffffffffff16815260200190815260200160002060030181908060018154018082558091505060019003906000526020600020016000909190919091509081612afa91906150fd565b5050565b60608060608060606000806000803373ffffffffffffffffffffffffffffffffffffffff1673ffffffffffffffffffffffffffffffffffffffff16815260200190815260200160002060070160009054906101000a900460ff16612b97576040517f08c379a0000000000000000000000000000000000000000000000000000000008152600401612b8e90614cce565b60405180910390fd5b60008060003373ffffffffffffffffffffffffffffffffffffffff1673ffffffffffffffffffffffffffffffffffffffff1681526020019081526020016000209050806000018160010182600201836003018460050185600601805490508660040180549050868054612c0990614d1d565b80601f0160208091040260200160405190810160405280929190818152602001828054612c3590614d1d565b8015612c825780601f10612c5757610100808354040283529160200191612c82565b820191906000526020600020905b815481529060010190602001808311612c6557829003601f168201915b5050505050965085805480602002602001604051908101604052809291908181526020016000905b82821015612d56578382906000526020600020018054612cc990614d1d565b80601f0160208091040260200160405190810160405280929190818152602001828054612cf590614d1d565b8015612d425780601f10612d1757610100808354040283529160200191612d42565b820191906000526020600020905b815481529060010190602001808311612d2557829003601f168201915b505050505081526020019060010190612caa565b50505050955084805480602002602001604051908101604052809291908181526020016000905b82821015612e29578382906000526020600020018054612d9c90614d1d565b80601f0160208091040260200160405190810160405280929190818152602001828054612dc890614d1d565b8015612e155780601f10612dea57610100808354040283529160200191612e15565b820191906000526020600020905b815481529060010190602001808311612df857829003601f168201915b505050505081526020019060010190612d7d565b50505050945083805480602002602001604051908101604052809291908181526020016000905b82821015612efc578382906000526020600020018054612e6f90614d1d565b80601f0160208091040260200160405190810160405280929190818152602001828054612e9b90614d1d565b8015612ee85780601f10612ebd57610100808354040283529160200191612ee8565b820191906000526020600020905b815481529060010190602001808311612ecb57829003601f168201915b505050505081526020019060010190612e50565b505050509350828054612f0e90614d1d565b80601f0160208091040260200160405190810160405280929190818152602001828054612f3a90614d1d565b8015612f875780601f10612f5c57610100808354040283529160200191612f87565b820191906000526020600020905b815481529060010190602001808311612f6a57829003601f168201915b5050505050925097509750975097509750975097505090919293949596565b60038181548110612fb657600080fd5b9060005260206000209060090201600091509050806000018054612fd990614d1d565b80601f016020809104026020016040519081016040528092919081815260200182805461300590614d1d565b80156130525780601f1061302757610100808354040283529160200191613052565b820191906000526020600020905b81548152906001019060200180831161303557829003601f168201915b50505050509080600501805461306790614d1d565b80601f016020809104026020016040519081016040528092919081815260200182805461309390614d1d565b80156130e05780601f106130b5576101008083540402835291602001916130e0565b820191906000526020600020905b8154815290600101906020018083116130c357829003601f168201915b5050505050908060070160009054906101000a900460ff16905083565b6000803373ffffffffffffffffffffffffffffffffffffffff1673ffffffffffffffffffffffffffffffffffffffff16815260200190815260200160002060070160009054906101000a900460ff1661318b576040517f08c379a000000000000000000000000000000000000000000000000000000000815260040161318290614cce565b60405180910390fd5b6000803373ffffffffffffffffffffffffffffffffffffffff1673ffffffffffffffffffffffffffffffffffffffff168152602001908152602001600020600101819080600181540180825580915050600190039060005260206000200160009091909190915090816131fe91906150fd565b5050565b6000803373ffffffffffffffffffffffffffffffffffffffff1673ffffffffffffffffffffffffffffffffffffffff16815260200190815260200160002060070160009054906101000a900460ff16613290576040517f08c379a000000000000000000000000000000000000000000000000000000000815260040161328790614cce565b60405180910390fd5b60006001826040516132a29190614d8a565b9081526020016040518091039020905060008160000180546132c390614d1d565b905011613305576040517f08c379a00000000000000000000000000000000000000000000000000000000081526004016132fc90614f31565b60405180910390fd5b633b9aca0081600501546133199190615503565b34101561335b576040517f08c379a000000000000000000000000000000000000000000000000000000000815260040161335290615591565b60405180910390fd5b60006040518060400160405280836040518060c001604052908160008201805461338490614d1d565b80601f01602080910402602001604051908101604052809291908181526020018280546133b090614d1d565b80156133fd5780601f106133d2576101008083540402835291602001916133fd565b820191906000526020600020905b8154815290600101906020018083116133e057829003601f168201915b5050505050815260200160018201805461341690614d1d565b80601f016020809104026020016040519081016040528092919081815260200182805461344290614d1d565b801561348f5780601f106134645761010080835404028352916020019161348f565b820191906000526020600020905b81548152906001019060200180831161347257829003601f168201915b505050505081526020016002820180546134a890614d1d565b80601f01602080910402602001604051908101604052809291908181526020018280546134d490614d1d565b80156135215780601f106134f657610100808354040283529160200191613521565b820191906000526020600020905b81548152906001019060200180831161350457829003601f168201915b5050505050815260200160038201805461353a90614d1d565b80601f016020809104026020016040519081016040528092919081815260200182805461356690614d1d565b80156135b35780601f10613588576101008083540402835291602001916135b3565b820191906000526020600020905b81548152906001019060200180831161359657829003601f168201915b505050505081526020016004820180546135cc90614d1d565b80601f01602080910402602001604051908101604052809291908181526020018280546135f890614d1d565b80156136455780601f1061361a57610100808354040283529160200191613645565b820191906000526020600020905b81548152906001019060200180831161362857829003601f168201915b5050505050815260200160058201548152505081526020016040518060200160405280600081525081525090506000803373ffffffffffffffffffffffffffffffffffffffff1673ffffffffffffffffffffffffffffffffffffffff16815260200190815260200160002060040181908060018154018082558091505060019003906000526020600020906007020160009091909190915060008201518160000160008201518160000190816136fb91906150fd565b50602082015181600101908161371191906150fd565b50604082015181600201908161372791906150fd565b50606082015181600301908161373d91906150fd565b50608082015181600401908161375391906150fd565b5060a082015181600501555050602082015181600601908161377591906150fd565b505050505050565b60606000803373ffffffffffffffffffffffffffffffffffffffff1673ffffffffffffffffffffffffffffffffffffffff16815260200190815260200160002060070160009054906101000a900460ff1661380d576040517f08c379a000000000000000000000000000000000000000000000000000000000815260040161380490614cce565b60405180910390fd5b6000803373ffffffffffffffffffffffffffffffffffffffff1673ffffffffffffffffffffffffffffffffffffffff168152602001908152602001600020600101805480602002602001604051908101604052809291908181526020016000905b8282101561391a57838290600052602060002001805461388d90614d1d565b80601f01602080910402602001604051908101604052809291908181526020018280546138b990614d1d565b80156139065780601f106138db57610100808354040283529160200191613906565b820191906000526020600020905b8154815290600101906020018083116138e957829003601f168201915b50505050508152602001906001019061386e565b50505050905090565b606060006002836040516139379190614d8a565b90815260200160405180910390209050600081600001805461395890614d1d565b90501161399a576040517f08c379a000000000000000000000000000000000000000000000000000000000815260040161399190614ded565b60405180910390fd5b80600b01805480602002602001604051908101604052809291908181526020018280548015613a1e57602002820191906000526020600020905b8160009054906101000a900473ffffffffffffffffffffffffffffffffffffffff1673ffffffffffffffffffffffffffffffffffffffff16815260200190600101908083116139d4575b5050505050915050919050565b60606000803373ffffffffffffffffffffffffffffffffffffffff1673ffffffffffffffffffffffffffffffffffffffff16815260200190815260200160002060070160009054906101000a900460ff16613abb576040517f08c379a0000000000000000000000000000000000000000000000000000000008152600401613ab290614cce565b60405180910390fd5b6000803373ffffffffffffffffffffffffffffffffffffffff1673ffffffffffffffffffffffffffffffffffffffff168152602001908152602001600020600301805480602002602001604051908101604052809291908181526020016000905b82821015613bc8578382906000526020600020018054613b3b90614d1d565b80601f0160208091040260200160405190810160405280929190818152602001828054613b6790614d1d565b8015613bb45780601f10613b8957610100808354040283529160200191613bb4565b820191906000526020600020905b815481529060010190602001808311613b9757829003601f168201915b505050505081526020019060010190613b1c565b50505050905090565b60606000803373ffffffffffffffffffffffffffffffffffffffff1673ffffffffffffffffffffffffffffffffffffffff16815260200190815260200160002060070160009054906101000a900460ff16613c61576040517f08c379a0000000000000000000000000000000000000000000000000000000008152600401613c5890614cce565b60405180910390fd5b6000803373ffffffffffffffffffffffffffffffffffffffff1673ffffffffffffffffffffffffffffffffffffffff1681526020019081526020016000206000018054613cad90614d1d565b80601f0160208091040260200160405190810160405280929190818152602001828054613cd990614d1d565b8015613d265780601f10613cfb57610100808354040283529160200191613d26565b820191906000526020600020905b815481529060010190602001808311613d0957829003601f168201915b5050505050905090565b828054828255906000526020600020908101928215613da9579160200282015b82811115613da85782518260006101000a81548173ffffffffffffffffffffffffffffffffffffffff021916908373ffffffffffffffffffffffffffffffffffffffff16021790555091602001919060010190613d50565b5b509050613db69190614079565b5090565b828054828255906000526020600020908101928215613e02579160200282015b82811115613e01578251829081613df191906150fd565b5091602001919060010190613dda565b5b509050613e0f9190614096565b5090565b828054828255906000526020600020908101928215613e5f5760005260206000209182015b82811115613e5e5782829081613e4e91906151e5565b5091600101919060010190613e38565b5b509050613e6c9190614096565b5090565b828054828255906000526020600020908101928215613eb15760005260206000209182015b82811115613eb0578254825591600101919060010190613e95565b5b509050613ebe9190614079565b5090565b6040518060c001604052806060815260200160608152602001606081526020016060815260200160608152602001600081525090565b828054828255906000526020600020906007028101928215613fd15760005260206000209160070282015b82811115613fd0578282600082018160000160008201816000019081613f4991906151e5565b5060018201816001019081613f5e91906151e5565b5060028201816002019081613f7391906151e5565b5060038201816003019081613f8891906151e5565b5060048201816004019081613f9d91906151e5565b5060058201548160050155505060068201816006019081613fbe91906151e5565b50505091600701919060070190613f23565b5b509050613fde91906140ba565b5090565b8280548282559060005260206000209060030281019282156140685760005260206000209160030282015b828111156140675782826000820181600001908161402b91906151e5565b506001820181600101908161404091906151e5565b506002820181600201908161405591906151e5565b5050509160030191906003019061400d565b5b5090506140759190614140565b5090565b5b8082111561409257600081600090555060010161407a565b5090565b5b808211156140b657600081816140ad9190614187565b50600101614097565b5090565b5b8082111561413c576000808201600080820160006140d99190614187565b6001820160006140e99190614187565b6002820160006140f99190614187565b6003820160006141099190614187565b6004820160006141199190614187565b600582016000905550506006820160006141339190614187565b506007016140bb565b5090565b5b80821115614183576000808201600061415a9190614187565b60018201600061416a9190614187565b60028201600061417a9190614187565b50600301614141565b5090565b50805461419390614d1d565b6000825580601f106141a557506141c4565b601f0160209004906000526020600020908101906141c39190614079565b5b50565b600081519050919050565b600082825260208201905092915050565b6000819050602082019050919050565b600081519050919050565b600082825260208201905092915050565b60005b8381101561422d578082015181840152602081019050614212565b60008484015250505050565b6000601f19601f8301169050919050565b6000614255826141f3565b61425f81856141fe565b935061426f81856020860161420f565b61427881614239565b840191505092915050565b600061428f838361424a565b905092915050565b6000602082019050919050565b60006142af826141c7565b6142b981856141d2565b9350836020820285016142cb856141e3565b8060005b8581101561430757848403895281516142e88582614283565b94506142f383614297565b925060208a019950506001810190506142cf565b50829750879550505050505092915050565b6000602082019050818103600083015261433381846142a4565b905092915050565b6000604051905090565b600080fd5b600080fd5b600080fd5b600080fd5b7f4e487b7100000000000000000000000000000000000000000000000000000000600052604160045260246000fd5b61439182614239565b810181811067ffffffffffffffff821117156143b0576143af614359565b5b80604052505050565b60006143c361433b565b90506143cf8282614388565b919050565b600067ffffffffffffffff8211156143ef576143ee614359565b5b6143f882614239565b9050602081019050919050565b82818337600083830152505050565b6000614427614422846143d4565b6143b9565b90508281526020810184848401111561444357614442614354565b5b61444e848285614405565b509392505050565b600082601f83011261446b5761446a61434f565b5b813561447b848260208601614414565b91505092915050565b60006020828403121561449a57614499614345565b5b600082013567ffffffffffffffff8111156144b8576144b761434a565b5b6144c484828501614456565b91505092915050565b600073ffffffffffffffffffffffffffffffffffffffff82169050919050565b60006144f8826144cd565b9050919050565b614508816144ed565b82525050565b600060208201905061452360008301846144ff565b92915050565b60008060006060848603121561454257614541614345565b5b600084013567ffffffffffffffff8111156145605761455f61434a565b5b61456c86828701614456565b935050602084013567ffffffffffffffff81111561458d5761458c61434a565b5b61459986828701614456565b925050604084013567ffffffffffffffff8111156145ba576145b961434a565b5b6145c686828701614456565b9150509250925092565b6000819050919050565b6145e3816145d0565b81146145ee57600080fd5b50565b600081359050614600816145da565b92915050565b60006020828403121561461c5761461b614345565b5b600061462a848285016145f1565b91505092915050565b600082825260208201905092915050565b600061464f826141f3565b6146598185614633565b935061466981856020860161420f565b61467281614239565b840191505092915050565b614686816145d0565b82525050565b600060c08201905081810360008301526146a68189614644565b905081810360208301526146ba8188614644565b905081810360408301526146ce8187614644565b905081810360608301526146e28186614644565b905081810360808301526146f68185614644565b905061470560a083018461467d565b979650505050505050565b6000602082019050818103600083015261472a8184614644565b905092915050565b61473b816145d0565b82525050565b600060c083016000830151848203600086015261475e828261424a565b91505060208301518482036020860152614778828261424a565b91505060408301518482036040860152614792828261424a565b915050606083015184820360608601526147ac828261424a565b915050608083015184820360808601526147c6828261424a565b91505060a08301516147db60a0860182614732565b508091505092915050565b600060a08201905081810360008301526148008188614644565b905081810360208301526148148187614644565b905081810360408301526148288186614741565b905061483760608301856144ff565b81810360808301526148498184614644565b90509695505050505050565b60008060008060008060c0878903121561487257614871614345565b5b600087013567ffffffffffffffff8111156148905761488f61434a565b5b61489c89828a01614456565b965050602087013567ffffffffffffffff8111156148bd576148bc61434a565b5b6148c989828a01614456565b955050604087013567ffffffffffffffff8111156148ea576148e961434a565b5b6148f689828a01614456565b945050606087013567ffffffffffffffff8111156149175761491661434a565b5b61492389828a01614456565b935050608087013567ffffffffffffffff8111156149445761494361434a565b5b61495089828a01614456565b92505060a061496189828a016145f1565b9150509295509295509295565b600081519050919050565b600082825260208201905092915050565b6000819050602082019050919050565b600060608301600083015184820360008601526149b7828261424a565b915050602083015184820360208601526149d1828261424a565b915050604083015184820360408601526149eb828261424a565b9150508091505092915050565b6000614a04838361499a565b905092915050565b6000602082019050919050565b6000614a248261496e565b614a2e8185614979565b935083602082028501614a408561498a565b8060005b85811015614a7c5784840389528151614a5d85826149f8565b9450614a6883614a0c565b925060208a01995050600181019050614a44565b50829750879550505050505092915050565b60006020820190508181036000830152614aa88184614a19565b905092915050565b600060e0820190508181036000830152614aca818a614644565b90508181036020830152614ade81896142a4565b90508181036040830152614af281886142a4565b90508181036060830152614b0681876142a4565b90508181036080830152614b1a8186614644565b9050614b2960a083018561467d565b614b3660c083018461467d565b98975050505050505050565b60008115159050919050565b614b5781614b42565b82525050565b60006060820190508181036000830152614b778186614644565b90508181036020830152614b8b8185614644565b9050614b9a6040830184614b4e565b949350505050565b600081519050919050565b600082825260208201905092915050565b6000819050602082019050919050565b614bd7816144ed565b82525050565b6000614be98383614bce565b60208301905092915050565b6000602082019050919050565b6000614c0d82614ba2565b614c178185614bad565b9350614c2283614bbe565b8060005b83811015614c53578151614c3a8882614bdd565b9750614c4583614bf5565b925050600181019050614c26565b5085935050505092915050565b60006020820190508181036000830152614c7a8184614c02565b905092915050565b7f55736572206e6f74207265676973746572656421000000000000000000000000600082015250565b6000614cb8601483614633565b9150614cc382614c82565b602082019050919050565b60006020820190508181036000830152614ce781614cab565b9050919050565b7f4e487b7100000000000000000000000000000000000000000000000000000000600052602260045260246000fd5b60006002820490506001821680614d3557607f821691505b602082108103614d4857614d47614cee565b5b50919050565b600081905092915050565b6000614d64826141f3565b614d6e8185614d4e565b9350614d7e81856020860161420f565b80840191505092915050565b6000614d968284614d59565b915081905092915050565b7f436f6d6d756e69747920726f6f6d20646f6573206e6f74206578697374210000600082015250565b6000614dd7601e83614633565b9150614de282614da1565b602082019050919050565b60006020820190508181036000830152614e0681614dca565b9050919050565b7f436f6d6d756e697479206e616d652063616e6e6f7420626520656d7074792100600082015250565b6000614e43601f83614633565b9150614e4e82614e0d565b602082019050919050565b60006020820190508181036000830152614e7281614e36565b9050919050565b7f426f74206e616d652063616e6e6f7420626520656d7074792100000000000000600082015250565b6000614eaf601983614633565b9150614eba82614e79565b602082019050919050565b60006020820190508181036000830152614ede81614ea2565b9050919050565b7f426f7420646f6573206e6f742065786973742100000000000000000000000000600082015250565b6000614f1b601383614633565b9150614f2682614ee5565b602082019050919050565b60006020820190508181036000830152614f4a81614f0e565b9050919050565b60008190508160005260206000209050919050565b60006020601f8301049050919050565b600082821b905092915050565b600060088302614fb37fffffffffffffffffffffffffffffffffffffffffffffffffffffffffffffffff82614f76565b614fbd8683614f76565b95508019841693508086168417925050509392505050565b6000819050919050565b6000614ffa614ff5614ff0846145d0565b614fd5565b6145d0565b9050919050565b6000819050919050565b61501483614fdf565b61502861502082615001565b848454614f83565b825550505050565b600090565b61503d615030565b61504881848461500b565b505050565b5b8181101561506c57615061600082615035565b60018101905061504e565b5050565b601f8211156150b15761508281614f51565b61508b84614f66565b8101602085101561509a578190505b6150ae6150a685614f66565b83018261504d565b50505b505050565b600082821c905092915050565b60006150d4600019846008026150b6565b1980831691505092915050565b60006150ed83836150c3565b9150826002028217905092915050565b615106826141f3565b67ffffffffffffffff81111561511f5761511e614359565b5b6151298254614d1d565b615134828285615070565b600060209050601f8311600181146151675760008415615155578287015190505b61515f85826150e1565b8655506151c7565b601f19841661517586614f51565b60005b8281101561519d57848901518255600182019150602085019450602081019050615178565b868310156151ba57848901516151b6601f8916826150c3565b8355505b6001600288020188555050505b505050505050565b6000815490506151de81614d1d565b9050919050565b8181036151f35750506152cb565b6151fc826151cf565b67ffffffffffffffff81111561521557615214614359565b5b61521f8254614d1d565b61522a828285615070565b6000601f8311600181146152595760008415615247578287015490505b61525185826150e1565b8655506152c4565b601f19841661526787614f51565b965061527286614f51565b60005b8281101561529a57848901548255600182019150600185019450602081019050615275565b868310156152b757848901546152b3601f8916826150c3565b8355505b6001600288020188555050505b5050505050505b565b7f4e487b7100000000000000000000000000000000000000000000000000000000600052603260045260246000fd5b7f416c72656164792061206d656d626572206f66207468697320636f6d6d756e6960008201527f7479210000000000000000000000000000000000000000000000000000000000602082015250565b6000615358602383614633565b9150615363826152fc565b604082019050919050565b600060208201905081810360008301526153878161534b565b9050919050565b7f4e487b7100000000000000000000000000000000000000000000000000000000600052601160045260246000fd5b60006153c8826145d0565b91507fffffffffffffffffffffffffffffffffffffffffffffffffffffffffffffffff82036153fa576153f961538e565b5b600182019050919050565b7f556e6c6f636b20636f7374206d7573742062652067726561746572207468616e60008201527f2030000000000000000000000000000000000000000000000000000000000000602082015250565b6000615461602283614633565b915061546c82615405565b604082019050919050565b6000602082019050818103600083015261549081615454565b9050919050565b7f5573657220616c72656164792072656769737465726564210000000000000000600082015250565b60006154cd601883614633565b91506154d882615497565b602082019050919050565b600060208201905081810360008301526154fc816154c0565b9050919050565b600061550e826145d0565b9150615519836145d0565b9250828202615527816145d0565b9150828204841483151761553e5761553d61538e565b5b5092915050565b7f496e73756666696369656e74207061796d656e74000000000000000000000000600082015250565b600061557b601483614633565b915061558682615545565b602082019050919050565b600060208201905081810360008301526155aa8161556e565b905091905056fea264697066735822122072559bc06e2ebeeb3ef0c5754f0d53378f40058a6414696b9e0b434a0026dc8c64736f6c63430008140033",
  "linkReferences": {},
  "deployedLinkReferences": {}
}