{
  "_format": "hh-sol-artifact-1",
  "contractName": "Athl3te",
  "sourceName": "contracts/Athl3te.sol",
  "abi": [
    {
      "anonymous": false,
      "inputs": [
        {
          "indexed": true,
          "internalType": "address",
          "name": "userAddress",
          "type": "address"
        },
        {
          "indexed": false,
          "internalType": "string",
          "name": "activityId",
          "type": "string"
        }
      ],
      "name": "ActivityAdded",
      "type": "event"
    },
    {
      "anonymous": false,
      "inputs": [
        {
          "indexed": true,
          "internalType": "string",
          "name": "botName",
          "type": "string"
        },
        {
          "indexed": false,
          "internalType": "string",
          "name": "deploymentURL",
          "type": "string"
        },
        {
          "indexed": false,
          "internalType": "uint16",
          "name": "unlockCostInGWei",
          "type": "uint16"
        }
      ],
      "name": "BotCreated",
      "type": "event"
    },
    {
      "anonymous": false,
      "inputs": [
        {
          "indexed": true,
          "internalType": "address",
          "name": "userAddress",
          "type": "address"
        },
        {
          "indexed": false,
          "internalType": "string",
          "name": "botName",
          "type": "string"
        },
        {
          "indexed": false,
          "internalType": "uint16",
          "name": "messagesId",
          "type": "uint16"
        }
      ],
      "name": "BotPurchased",
      "type": "event"
    },
    {
      "anonymous": false,
      "inputs": [
        {
          "indexed": true,
          "internalType": "string",
          "name": "communityName",
          "type": "string"
        },
        {
          "indexed": true,
          "internalType": "address",
          "name": "creator",
          "type": "address"
        },
        {
          "indexed": false,
          "internalType": "string",
          "name": "botName",
          "type": "string"
        },
        {
          "indexed": false,
          "internalType": "uint16",
          "name": "messagesId",
          "type": "uint16"
        }
      ],
      "name": "CommunityRoomCreated",
      "type": "event"
    },
    {
      "anonymous": false,
      "inputs": [
        {
          "indexed": true,
          "internalType": "address",
          "name": "userAddress",
          "type": "address"
        },
        {
          "indexed": false,
          "internalType": "string",
          "name": "communityName",
          "type": "string"
        }
      ],
      "name": "CommunityRoomJoined",
      "type": "event"
    },
    {
      "anonymous": false,
      "inputs": [
        {
          "indexed": true,
          "internalType": "address",
          "name": "userAddress",
          "type": "address"
        },
        {
          "indexed": false,
          "internalType": "string",
          "name": "injuryId",
          "type": "string"
        }
      ],
      "name": "InjuryUpdated",
      "type": "event"
    },
    {
      "anonymous": false,
      "inputs": [
        {
          "indexed": true,
          "internalType": "address",
          "name": "userAddress",
          "type": "address"
        },
        {
          "indexed": false,
          "internalType": "string",
          "name": "goalId",
          "type": "string"
        }
      ],
      "name": "NutritionGoalAdded",
      "type": "event"
    },
    {
      "anonymous": false,
      "inputs": [
        {
          "indexed": true,
          "internalType": "address",
          "name": "userAddress",
          "type": "address"
        },
        {
          "indexed": false,
          "internalType": "string",
          "name": "goalId",
          "type": "string"
        }
      ],
      "name": "SportGoalAdded",
      "type": "event"
    },
    {
      "anonymous": false,
      "inputs": [
        {
          "indexed": true,
          "internalType": "address",
          "name": "userAddress",
          "type": "address"
        },
        {
          "indexed": false,
          "internalType": "string",
          "name": "metadata",
          "type": "string"
        }
      ],
      "name": "UserRegistered",
      "type": "event"
    },
    {
      "inputs": [
        {
          "internalType": "string",
          "name": "_activityId",
          "type": "string"
        }
      ],
      "name": "addActivity",
      "outputs": [],
      "stateMutability": "nonpayable",
      "type": "function"
    },
    {
      "inputs": [
        {
          "internalType": "string",
          "name": "_goalId",
          "type": "string"
        }
      ],
      "name": "addNutritionGoal",
      "outputs": [],
      "stateMutability": "nonpayable",
      "type": "function"
    },
    {
      "inputs": [
        {
          "internalType": "string",
          "name": "_goalId",
          "type": "string"
        }
      ],
      "name": "addSportGoal",
      "outputs": [],
      "stateMutability": "nonpayable",
      "type": "function"
    },
    {
      "inputs": [
        {
          "internalType": "uint256",
          "name": "",
          "type": "uint256"
        }
      ],
      "name": "allBots",
      "outputs": [
        {
          "internalType": "string",
          "name": "botName",
          "type": "string"
        },
        {
          "internalType": "string",
          "name": "botImage",
          "type": "string"
        },
        {
          "internalType": "string",
          "name": "systemPrompt",
          "type": "string"
        },
        {
          "internalType": "string",
          "name": "botDescription",
          "type": "string"
        },
        {
          "internalType": "string",
          "name": "deploymentURL",
          "type": "string"
        },
        {
          "internalType": "uint16",
          "name": "unlockCostInGWei",
          "type": "uint16"
        }
      ],
      "stateMutability": "view",
      "type": "function"
    },
    {
      "inputs": [
        {
          "internalType": "uint256",
          "name": "",
          "type": "uint256"
        }
      ],
      "name": "allCommunityRooms",
      "outputs": [
        {
          "internalType": "string",
          "name": "communityName",
          "type": "string"
        },
        {
          "internalType": "string",
          "name": "communityImage",
          "type": "string"
        },
        {
          "components": [
            {
              "internalType": "string",
              "name": "botName",
              "type": "string"
            },
            {
              "internalType": "string",
              "name": "botImage",
              "type": "string"
            },
            {
              "internalType": "string",
              "name": "systemPrompt",
              "type": "string"
            },
            {
              "internalType": "string",
              "name": "botDescription",
              "type": "string"
            },
            {
              "internalType": "string",
              "name": "deploymentURL",
              "type": "string"
            },
            {
              "internalType": "uint16",
              "name": "unlockCostInGWei",
              "type": "uint16"
            }
          ],
          "internalType": "struct Athl3te.Bot",
          "name": "bot",
          "type": "tuple"
        },
        {
          "internalType": "address",
          "name": "createdBy",
          "type": "address"
        },
        {
          "internalType": "uint16",
          "name": "messagesId",
          "type": "uint16"
        }
      ],
      "stateMutability": "view",
      "type": "function"
    },
    {
      "inputs": [
        {
          "internalType": "uint256",
          "name": "",
          "type": "uint256"
        }
      ],
      "name": "allUsers",
      "outputs": [
        {
          "internalType": "string",
          "name": "metadata",
          "type": "string"
        },
        {
          "internalType": "string",
          "name": "injuriesDescriptionId",
          "type": "string"
        },
        {
          "internalType": "bool",
          "name": "isRegistered",
          "type": "bool"
        }
      ],
      "stateMutability": "view",
      "type": "function"
    },
    {
      "inputs": [
        {
          "internalType": "string",
          "name": "_botName",
          "type": "string"
        }
      ],
      "name": "buyBot",
      "outputs": [],
      "stateMutability": "payable",
      "type": "function"
    },
    {
      "inputs": [
        {
          "internalType": "string",
          "name": "_botName",
          "type": "string"
        },
        {
          "internalType": "string",
          "name": "_botImage",
          "type": "string"
        },
        {
          "internalType": "string",
          "name": "_systemPrompt",
          "type": "string"
        },
        {
          "internalType": "string",
          "name": "_botDescription",
          "type": "string"
        },
        {
          "internalType": "string",
          "name": "_deploymentURL",
          "type": "string"
        },
        {
          "internalType": "uint16",
          "name": "_unlockCostInGWei",
          "type": "uint16"
        }
      ],
      "name": "createBot",
      "outputs": [],
      "stateMutability": "nonpayable",
      "type": "function"
    },
    {
      "inputs": [
        {
          "internalType": "string",
          "name": "_communityName",
          "type": "string"
        },
        {
          "internalType": "string",
          "name": "_communityImage",
          "type": "string"
        },
        {
          "internalType": "string",
          "name": "_botName",
          "type": "string"
        }
      ],
      "name": "createCommunityRoom",
      "outputs": [],
      "stateMutability": "nonpayable",
      "type": "function"
    },
    {
      "inputs": [],
      "name": "getAllCommunityRooms",
      "outputs": [
        {
          "components": [
            {
              "internalType": "string",
              "name": "communityName",
              "type": "string"
            },
            {
              "internalType": "string",
              "name": "communityImage",
              "type": "string"
            },
            {
              "components": [
                {
                  "internalType": "string",
                  "name": "botName",
                  "type": "string"
                },
                {
                  "internalType": "string",
                  "name": "botImage",
                  "type": "string"
                },
                {
                  "internalType": "string",
                  "name": "systemPrompt",
                  "type": "string"
                },
                {
                  "internalType": "string",
                  "name": "botDescription",
                  "type": "string"
                },
                {
                  "internalType": "string",
                  "name": "deploymentURL",
                  "type": "string"
                },
                {
                  "internalType": "uint16",
                  "name": "unlockCostInGWei",
                  "type": "uint16"
                }
              ],
              "internalType": "struct Athl3te.Bot",
              "name": "bot",
              "type": "tuple"
            },
            {
              "internalType": "address",
              "name": "createdBy",
              "type": "address"
            },
            {
              "internalType": "uint16",
              "name": "messagesId",
              "type": "uint16"
            },
            {
              "internalType": "string[]",
              "name": "communitySportGoalIds",
              "type": "string[]"
            },
            {
              "internalType": "address[]",
              "name": "members",
              "type": "address[]"
            }
          ],
          "internalType": "struct Athl3te.CommunityRoom[]",
          "name": "",
          "type": "tuple[]"
        }
      ],
      "stateMutability": "view",
      "type": "function"
    },
    {
      "inputs": [
        {
          "internalType": "string",
          "name": "_communityName",
          "type": "string"
        }
      ],
      "name": "getCommunityRoomDetails",
      "outputs": [
        {
          "internalType": "string",
          "name": "communityName",
          "type": "string"
        },
        {
          "internalType": "string",
          "name": "communityImage",
          "type": "string"
        },
        {
          "components": [
            {
              "internalType": "string",
              "name": "botName",
              "type": "string"
            },
            {
              "internalType": "string",
              "name": "botImage",
              "type": "string"
            },
            {
              "internalType": "string",
              "name": "systemPrompt",
              "type": "string"
            },
            {
              "internalType": "string",
              "name": "botDescription",
              "type": "string"
            },
            {
              "internalType": "string",
              "name": "deploymentURL",
              "type": "string"
            },
            {
              "internalType": "uint16",
              "name": "unlockCostInGWei",
              "type": "uint16"
            }
          ],
          "internalType": "struct Athl3te.Bot",
          "name": "bot",
          "type": "tuple"
        },
        {
          "internalType": "address",
          "name": "createdBy",
          "type": "address"
        },
        {
          "internalType": "uint256",
          "name": "messagesId",
          "type": "uint256"
        },
        {
          "internalType": "string[]",
          "name": "communitySportGoalIds",
          "type": "string[]"
        },
        {
          "internalType": "address[]",
          "name": "members",
          "type": "address[]"
        }
      ],
      "stateMutability": "view",
      "type": "function"
    },
    {
      "inputs": [],
      "name": "getUserCommunities",
      "outputs": [
        {
          "internalType": "string[]",
          "name": "",
          "type": "string[]"
        }
      ],
      "stateMutability": "view",
      "type": "function"
    },
    {
      "inputs": [],
      "name": "getUserDetails",
      "outputs": [
        {
          "internalType": "string",
          "name": "metadata",
          "type": "string"
        },
        {
          "internalType": "string[]",
          "name": "activityIds",
          "type": "string[]"
        },
        {
          "internalType": "string[]",
          "name": "sportGoalIds",
          "type": "string[]"
        },
        {
          "internalType": "string[]",
          "name": "nutritionGoalIds",
          "type": "string[]"
        },
        {
          "internalType": "string",
          "name": "injuriesDescriptionId",
          "type": "string"
        },
        {
          "components": [
            {
              "internalType": "string",
              "name": "nftName",
              "type": "string"
            },
            {
              "internalType": "string",
              "name": "nftImage",
              "type": "string"
            },
            {
              "internalType": "string",
              "name": "description",
              "type": "string"
            }
          ],
          "internalType": "struct Athl3te.nft[]",
          "name": "nfts",
          "type": "tuple[]"
        },
        {
          "components": [
            {
              "components": [
                {
                  "internalType": "string",
                  "name": "botName",
                  "type": "string"
                },
                {
                  "internalType": "string",
                  "name": "botImage",
                  "type": "string"
                },
                {
                  "internalType": "string",
                  "name": "systemPrompt",
                  "type": "string"
                },
                {
                  "internalType": "string",
                  "name": "botDescription",
                  "type": "string"
                },
                {
                  "internalType": "string",
                  "name": "deploymentURL",
                  "type": "string"
                },
                {
                  "internalType": "uint16",
                  "name": "unlockCostInGWei",
                  "type": "uint16"
                }
              ],
              "internalType": "struct Athl3te.Bot",
              "name": "bot",
              "type": "tuple"
            },
            {
              "internalType": "uint16",
              "name": "messagesId",
              "type": "uint16"
            }
          ],
          "internalType": "struct Athl3te.PersonalAssistant[]",
          "name": "assitants",
          "type": "tuple[]"
        }
      ],
      "stateMutability": "view",
      "type": "function"
    },
    {
      "inputs": [
        {
          "internalType": "string",
          "name": "_communityName",
          "type": "string"
        }
      ],
      "name": "joinCommunityRoom",
      "outputs": [],
      "stateMutability": "nonpayable",
      "type": "function"
    },
    {
      "inputs": [
        {
          "internalType": "string",
          "name": "_metadata",
          "type": "string"
        }
      ],
      "name": "registerUser",
      "outputs": [],
      "stateMutability": "nonpayable",
      "type": "function"
    },
    {
      "inputs": [
        {
          "internalType": "string",
          "name": "_injuryId",
          "type": "string"
        }
      ],
      "name": "updateInjury",
      "outputs": [],
      "stateMutability": "nonpayable",
      "type": "function"
    }
  ],
  "bytecode": "0x608060405260008060006101000a81548161ffff021916908361ffff16021790555034801561002d57600080fd5b50615e4f806200003e6000396000f3fe6080604052600436106100f35760003560e01c806375ad64041161008a578063b23f686411610059578063b23f68641461034f578063b841e45a14610378578063b84f14b7146103a1578063fab6774d146103bd576100f3565b806375ad64041461028b578063903d3626146102b6578063942886be146102df578063a2bdedf414610310576100f3565b806343dfc73c116100c657806343dfc73c146101cd57806354d9ea15146101f6578063610693e714610239578063704f1b9414610262576100f3565b80631dd20a8b146100f857806322428b671461012157806329a7645d146101635780633fccb4a5146101a4575b600080fd5b34801561010457600080fd5b5061011f600480360381019061011a91906146b4565b6103e8565b005b34801561012d57600080fd5b5061014860048036038101906101439190614791565b610a3f565b60405161015a9695949392919061485a565b60405180910390f35b34801561016f57600080fd5b5061018a60048036038101906101859190614791565b610d41565b60405161019b959493929190614a1d565b60405180910390f35b3480156101b057600080fd5b506101cb60048036038101906101c69190614a85565b6111c9565b005b3480156101d957600080fd5b506101f460048036038101906101ef9190614a85565b61131e565b005b34801561020257600080fd5b5061021d60048036038101906102189190614a85565b61162a565b6040516102309796959493929190614c5d565b60405180910390f35b34801561024557600080fd5b50610260600480360381019061025b9190614a85565b611c98565b005b34801561026e57600080fd5b5061028960048036038101906102849190614a85565b611dc8565b005b34801561029757600080fd5b506102a0612181565b6040516102ad9190614cef565b60405180910390f35b3480156102c257600080fd5b506102dd60048036038101906102d89190614a85565b612329565b005b3480156102eb57600080fd5b506102f461247e565b6040516103079796959493929190614fd5565b60405180910390f35b34801561031c57600080fd5b5061033760048036038101906103329190614791565b612eb6565b60405161034693929190615090565b60405180910390f35b34801561035b57600080fd5b5061037660048036038101906103719190615101565b61300d565b005b34801561038457600080fd5b5061039f600480360381019061039a9190614a85565b613253565b005b6103bb60048036038101906103b69190614a85565b6133a8565b005b3480156103c957600080fd5b506103d26139fc565b6040516103df9190615489565b60405180910390f35b600083511161042c576040517f08c379a0000000000000000000000000000000000000000000000000000000008152600401610423906154f7565b60405180910390fd5b6000815111610470576040517f08c379a000000000000000000000000000000000000000000000000000000000815260040161046790615563565b60405180910390fd5b600060028260405161048291906155bf565b9081526020016040518091039020905060008160000180546104a390615605565b9050116104e5576040517f08c379a00000000000000000000000000000000000000000000000000000000081526004016104dc90615682565b60405180910390fd5b600080600081819054906101000a900461ffff1680929190610506906156d1565b91906101000a81548161ffff021916908361ffff1602179055509050600060038660405161053491906155bf565b908152602001604051809103902090508581600001908161055591906158a7565b508481600101908161056791906158a7565b50828160020160008201816000019081610581919061598f565b5060018201816001019081610596919061598f565b50600282018160020190816105ab919061598f565b50600382018160030190816105c0919061598f565b50600482018160040190816105d5919061598f565b506005820160009054906101000a900461ffff168160050160006101000a81548161ffff021916908361ffff160217905550905050818160080160146101000a81548161ffff021916908361ffff160217905550338160080160006101000a81548173ffffffffffffffffffffffffffffffffffffffff021916908373ffffffffffffffffffffffffffffffffffffffff160217905550600067ffffffffffffffff81111561068757610686614589565b5b6040519080825280602002602001820160405280156106b55781602001602082028036833780820191505090505b5081600a0190805190602001906106cd92919061406a565b50600067ffffffffffffffff8111156106e9576106e8614589565b5b60405190808252806020026020018201604052801561071c57816020015b60608152602001906001900390816107075790505b508160090190805190602001906107349291906140f4565b5080600a01339080600181540180825580915050600190039060005260206000200160009091909190916101000a81548173ffffffffffffffffffffffffffffffffffffffff021916908373ffffffffffffffffffffffffffffffffffffffff160217905550600160003373ffffffffffffffffffffffffffffffffffffffff1673ffffffffffffffffffffffffffffffffffffffff1681526020019081526020016000206008018690806001815401808255809150506001900390600052602060002001600090919091909150908161080e91906158a7565b5060068190806001815401808255809150506001900390600052602060002090600b02016000909190919091506000820181600001908161084f919061598f565b5060018201816001019081610864919061598f565b50600282018160020160008201816000019081610881919061598f565b5060018201816001019081610896919061598f565b50600282018160020190816108ab919061598f565b50600382018160030190816108c0919061598f565b50600482018160040190816108d5919061598f565b506005820160009054906101000a900461ffff168160050160006101000a81548161ffff021916908361ffff16021790555050506008820160009054906101000a900473ffffffffffffffffffffffffffffffffffffffff168160080160006101000a81548173ffffffffffffffffffffffffffffffffffffffff021916908373ffffffffffffffffffffffffffffffffffffffff1602179055506008820160149054906101000a900461ffff168160080160146101000a81548161ffff021916908361ffff16021790555060098201816009019080546109b792919061414d565b50600a820181600a019080546109ce9291906141aa565b5050503373ffffffffffffffffffffffffffffffffffffffff16866040516109f691906155bf565b60405180910390207ff085966e5f5bdaddeb4826a76affe2e722a984e4136d44f6576256c9d01761a88685604051610a2f929190615a77565b60405180910390a3505050505050565b60058181548110610a4f57600080fd5b9060005260206000209060060201600091509050806000018054610a7290615605565b80601f0160208091040260200160405190810160405280929190818152602001828054610a9e90615605565b8015610aeb5780601f10610ac057610100808354040283529160200191610aeb565b820191906000526020600020905b815481529060010190602001808311610ace57829003601f168201915b505050505090806001018054610b0090615605565b80601f0160208091040260200160405190810160405280929190818152602001828054610b2c90615605565b8015610b795780601f10610b4e57610100808354040283529160200191610b79565b820191906000526020600020905b815481529060010190602001808311610b5c57829003601f168201915b505050505090806002018054610b8e90615605565b80601f0160208091040260200160405190810160405280929190818152602001828054610bba90615605565b8015610c075780601f10610bdc57610100808354040283529160200191610c07565b820191906000526020600020905b815481529060010190602001808311610bea57829003601f168201915b505050505090806003018054610c1c90615605565b80601f0160208091040260200160405190810160405280929190818152602001828054610c4890615605565b8015610c955780601f10610c6a57610100808354040283529160200191610c95565b820191906000526020600020905b815481529060010190602001808311610c7857829003601f168201915b505050505090806004018054610caa90615605565b80601f0160208091040260200160405190810160405280929190818152602001828054610cd690615605565b8015610d235780601f10610cf857610100808354040283529160200191610d23565b820191906000526020600020905b815481529060010190602001808311610d0657829003601f168201915b5050505050908060050160009054906101000a900461ffff16905086565b60068181548110610d5157600080fd5b90600052602060002090600b0201600091509050806000018054610d7490615605565b80601f0160208091040260200160405190810160405280929190818152602001828054610da090615605565b8015610ded5780601f10610dc257610100808354040283529160200191610ded565b820191906000526020600020905b815481529060010190602001808311610dd057829003601f168201915b505050505090806001018054610e0290615605565b80601f0160208091040260200160405190810160405280929190818152602001828054610e2e90615605565b8015610e7b5780601f10610e5057610100808354040283529160200191610e7b565b820191906000526020600020905b815481529060010190602001808311610e5e57829003601f168201915b505050505090806002016040518060c0016040529081600082018054610ea090615605565b80601f0160208091040260200160405190810160405280929190818152602001828054610ecc90615605565b8015610f195780601f10610eee57610100808354040283529160200191610f19565b820191906000526020600020905b815481529060010190602001808311610efc57829003601f168201915b50505050508152602001600182018054610f3290615605565b80601f0160208091040260200160405190810160405280929190818152602001828054610f5e90615605565b8015610fab5780601f10610f8057610100808354040283529160200191610fab565b820191906000526020600020905b815481529060010190602001808311610f8e57829003601f168201915b50505050508152602001600282018054610fc490615605565b80601f0160208091040260200160405190810160405280929190818152602001828054610ff090615605565b801561103d5780601f106110125761010080835404028352916020019161103d565b820191906000526020600020905b81548152906001019060200180831161102057829003601f168201915b5050505050815260200160038201805461105690615605565b80601f016020809104026020016040519081016040528092919081815260200182805461108290615605565b80156110cf5780601f106110a4576101008083540402835291602001916110cf565b820191906000526020600020905b8154815290600101906020018083116110b257829003601f168201915b505050505081526020016004820180546110e890615605565b80601f016020809104026020016040519081016040528092919081815260200182805461111490615605565b80156111615780601f1061113657610100808354040283529160200191611161565b820191906000526020600020905b81548152906001019060200180831161114457829003601f168201915b505050505081526020016005820160009054906101000a900461ffff1661ffff1661ffff1681525050908060080160009054906101000a900473ffffffffffffffffffffffffffffffffffffffff16908060080160149054906101000a900461ffff16905085565b600160003373ffffffffffffffffffffffffffffffffffffffff1673ffffffffffffffffffffffffffffffffffffffff16815260200190815260200160002060070160009054906101000a900460ff16611258576040517f08c379a000000000000000000000000000000000000000000000000000000000815260040161124f90615af3565b60405180910390fd5b600160003373ffffffffffffffffffffffffffffffffffffffff1673ffffffffffffffffffffffffffffffffffffffff168152602001908152602001600020600201819080600181540180825580915050600190039060005260206000200160009091909190915090816112cc91906158a7565b503373ffffffffffffffffffffffffffffffffffffffff167fb8e50056db55e8c4b78f3aee6869149cc55c970443c6bfc700fa83a0b793ae2a826040516113139190615b13565b60405180910390a250565b600160003373ffffffffffffffffffffffffffffffffffffffff1673ffffffffffffffffffffffffffffffffffffffff16815260200190815260200160002060070160009054906101000a900460ff166113ad576040517f08c379a00000000000000000000000000000000000000000000000000000000081526004016113a490615af3565b60405180910390fd5b60006003826040516113bf91906155bf565b9081526020016040518091039020905060008160000180546113e090615605565b905011611422576040517f08c379a000000000000000000000000000000000000000000000000000000000815260040161141990615b81565b60405180910390fd5b60005b81600a01805490508161ffff1610156114fd573373ffffffffffffffffffffffffffffffffffffffff1682600a018261ffff168154811061146957611468615ba1565b5b9060005260206000200160009054906101000a900473ffffffffffffffffffffffffffffffffffffffff1673ffffffffffffffffffffffffffffffffffffffff16036114ea576040517f08c379a00000000000000000000000000000000000000000000000000000000081526004016114e190615c42565b60405180910390fd5b80806114f5906156d1565b915050611425565b5080600a01339080600181540180825580915050600190039060005260206000200160009091909190916101000a81548173ffffffffffffffffffffffffffffffffffffffff021916908373ffffffffffffffffffffffffffffffffffffffff160217905550600160003373ffffffffffffffffffffffffffffffffffffffff1673ffffffffffffffffffffffffffffffffffffffff168152602001908152602001600020600801829080600181540180825580915050600190039060005260206000200160009091909190915090816115d791906158a7565b503373ffffffffffffffffffffffffffffffffffffffff167f48bc22b3eab0c993cd29049a8e0a06fa00e13ec87407c1eabd56c3100205d6ad8360405161161e9190615b13565b60405180910390a25050565b6060806116356141fc565b600080606080600060038960405161164d91906155bf565b90815260200160405180910390209050600081600001805461166e90615605565b9050116116b0576040517f08c379a00000000000000000000000000000000000000000000000000000000081526004016116a790615b81565b60405180910390fd5b8060000181600101826002018360080160009054906101000a900473ffffffffffffffffffffffffffffffffffffffff168460080160149054906101000a900461ffff168560090186600a0186805461170890615605565b80601f016020809104026020016040519081016040528092919081815260200182805461173490615605565b80156117815780601f1061175657610100808354040283529160200191611781565b820191906000526020600020905b81548152906001019060200180831161176457829003601f168201915b5050505050965085805461179490615605565b80601f01602080910402602001604051908101604052809291908181526020018280546117c090615605565b801561180d5780601f106117e25761010080835404028352916020019161180d565b820191906000526020600020905b8154815290600101906020018083116117f057829003601f168201915b50505050509550846040518060c001604052908160008201805461183090615605565b80601f016020809104026020016040519081016040528092919081815260200182805461185c90615605565b80156118a95780601f1061187e576101008083540402835291602001916118a9565b820191906000526020600020905b81548152906001019060200180831161188c57829003601f168201915b505050505081526020016001820180546118c290615605565b80601f01602080910402602001604051908101604052809291908181526020018280546118ee90615605565b801561193b5780601f106119105761010080835404028352916020019161193b565b820191906000526020600020905b81548152906001019060200180831161191e57829003601f168201915b5050505050815260200160028201805461195490615605565b80601f016020809104026020016040519081016040528092919081815260200182805461198090615605565b80156119cd5780601f106119a2576101008083540402835291602001916119cd565b820191906000526020600020905b8154815290600101906020018083116119b057829003601f168201915b505050505081526020016003820180546119e690615605565b80601f0160208091040260200160405190810160405280929190818152602001828054611a1290615605565b8015611a5f5780601f10611a3457610100808354040283529160200191611a5f565b820191906000526020600020905b815481529060010190602001808311611a4257829003601f168201915b50505050508152602001600482018054611a7890615605565b80601f0160208091040260200160405190810160405280929190818152602001828054611aa490615605565b8015611af15780601f10611ac657610100808354040283529160200191611af1565b820191906000526020600020905b815481529060010190602001808311611ad457829003601f168201915b505050505081526020016005820160009054906101000a900461ffff1661ffff1661ffff168152505094508261ffff16925081805480602002602001604051908101604052809291908181526020016000905b82821015611bf0578382906000526020600020018054611b6390615605565b80601f0160208091040260200160405190810160405280929190818152602001828054611b8f90615605565b8015611bdc5780601f10611bb157610100808354040283529160200191611bdc565b820191906000526020600020905b815481529060010190602001808311611bbf57829003601f168201915b505050505081526020019060010190611b44565b50505050915080805480602002602001604051908101604052809291908181526020018280548015611c7757602002820191906000526020600020905b8160009054906101000a900473ffffffffffffffffffffffffffffffffffffffff1673ffffffffffffffffffffffffffffffffffffffff1681526020019060010190808311611c2d575b50505050509050975097509750975097509750975050919395979092949650565b600160003373ffffffffffffffffffffffffffffffffffffffff1673ffffffffffffffffffffffffffffffffffffffff16815260200190815260200160002060070160009054906101000a900460ff16611d27576040517f08c379a0000000000000000000000000000000000000000000000000000000008152600401611d1e90615af3565b60405180910390fd5b80600160003373ffffffffffffffffffffffffffffffffffffffff1673ffffffffffffffffffffffffffffffffffffffff1681526020019081526020016000206005019081611d7691906158a7565b503373ffffffffffffffffffffffffffffffffffffffff167ffb02f8b5008bb4e6551ac10938980a836239b9187014ad8bd7d4166234196a9982604051611dbd9190615b13565b60405180910390a250565b600160003373ffffffffffffffffffffffffffffffffffffffff1673ffffffffffffffffffffffffffffffffffffffff16815260200190815260200160002060070160009054906101000a900460ff1615611e58576040517f08c379a0000000000000000000000000000000000000000000000000000000008152600401611e4f90615cae565b60405180910390fd5b6000600160003373ffffffffffffffffffffffffffffffffffffffff1673ffffffffffffffffffffffffffffffffffffffff168152602001908152602001600020905060018160070160006101000a81548160ff02191690831515021790555081816000019081611ec991906158a7565b50600067ffffffffffffffff811115611ee557611ee4614589565b5b604051908082528060200260200182016040528015611f1857816020015b6060815260200190600190039081611f035790505b50816001019080519060200190611f309291906140f4565b50600067ffffffffffffffff811115611f4c57611f4b614589565b5b604051908082528060200260200182016040528015611f7f57816020015b6060815260200190600190039081611f6a5790505b50816002019080519060200190611f979291906140f4565b50600067ffffffffffffffff811115611fb357611fb2614589565b5b604051908082528060200260200182016040528015611fe657816020015b6060815260200190600190039081611fd15790505b50816003019080519060200190611ffe9291906140f4565b506040518060200160405280600081525081600501908161201f91906158a7565b50600481908060018154018082558091505060019003906000526020600020906009020160009091909190915060008201816000019081612060919061598f565b50600182018160010190805461207792919061414d565b50600282018160020190805461208e92919061414d565b5060038201816003019080546120a592919061414d565b5060048201816004019080546120bc929190614236565b50600582018160050190816120d1919061598f565b5060068201816006019080546120e8929190614363565b506007820160009054906101000a900460ff168160070160006101000a81548160ff021916908315150217905550600882018160080190805461212c92919061414d565b5050503373ffffffffffffffffffffffffffffffffffffffff167f48cac28ad4dc618e15f4c2dd5e97751182f166de97b25618318b2112aa951a2f836040516121759190615b13565b60405180910390a25050565b6060600160003373ffffffffffffffffffffffffffffffffffffffff1673ffffffffffffffffffffffffffffffffffffffff16815260200190815260200160002060070160009054906101000a900460ff16612212576040517f08c379a000000000000000000000000000000000000000000000000000000000815260040161220990615af3565b60405180910390fd5b600160003373ffffffffffffffffffffffffffffffffffffffff1673ffffffffffffffffffffffffffffffffffffffff168152602001908152602001600020600801805480602002602001604051908101604052809291908181526020016000905b8282101561232057838290600052602060002001805461229390615605565b80601f01602080910402602001604051908101604052809291908181526020018280546122bf90615605565b801561230c5780601f106122e15761010080835404028352916020019161230c565b820191906000526020600020905b8154815290600101906020018083116122ef57829003601f168201915b505050505081526020019060010190612274565b50505050905090565b600160003373ffffffffffffffffffffffffffffffffffffffff1673ffffffffffffffffffffffffffffffffffffffff16815260200190815260200160002060070160009054906101000a900460ff166123b8576040517f08c379a00000000000000000000000000000000000000000000000000000000081526004016123af90615af3565b60405180910390fd5b600160003373ffffffffffffffffffffffffffffffffffffffff1673ffffffffffffffffffffffffffffffffffffffff1681526020019081526020016000206003018190806001815401808255809150506001900390600052602060002001600090919091909150908161242c91906158a7565b503373ffffffffffffffffffffffffffffffffffffffff167f9fea722a78bc03b22869a8fa8db043e542f7b63a042973693e67dfb1c5baaea4826040516124739190615b13565b60405180910390a250565b6060806060806060806060600160003373ffffffffffffffffffffffffffffffffffffffff1673ffffffffffffffffffffffffffffffffffffffff16815260200190815260200160002060070160009054906101000a900460ff16612518576040517f08c379a000000000000000000000000000000000000000000000000000000000815260040161250f90615af3565b60405180910390fd5b6000600160003373ffffffffffffffffffffffffffffffffffffffff1673ffffffffffffffffffffffffffffffffffffffff16815260200190815260200160002090508060000181600101826002018360030184600501856006018660040186805461258390615605565b80601f01602080910402602001604051908101604052809291908181526020018280546125af90615605565b80156125fc5780601f106125d1576101008083540402835291602001916125fc565b820191906000526020600020905b8154815290600101906020018083116125df57829003601f168201915b5050505050965085805480602002602001604051908101604052809291908181526020016000905b828210156126d057838290600052602060002001805461264390615605565b80601f016020809104026020016040519081016040528092919081815260200182805461266f90615605565b80156126bc5780601f10612691576101008083540402835291602001916126bc565b820191906000526020600020905b81548152906001019060200180831161269f57829003601f168201915b505050505081526020019060010190612624565b50505050955084805480602002602001604051908101604052809291908181526020016000905b828210156127a357838290600052602060002001805461271690615605565b80601f016020809104026020016040519081016040528092919081815260200182805461274290615605565b801561278f5780601f106127645761010080835404028352916020019161278f565b820191906000526020600020905b81548152906001019060200180831161277257829003601f168201915b5050505050815260200190600101906126f7565b50505050945083805480602002602001604051908101604052809291908181526020016000905b828210156128765783829060005260206000200180546127e990615605565b80601f016020809104026020016040519081016040528092919081815260200182805461281590615605565b80156128625780601f1061283757610100808354040283529160200191612862565b820191906000526020600020905b81548152906001019060200180831161284557829003601f168201915b5050505050815260200190600101906127ca565b50505050935082805461288890615605565b80601f01602080910402602001604051908101604052809291908181526020018280546128b490615605565b80156129015780601f106128d657610100808354040283529160200191612901565b820191906000526020600020905b8154815290600101906020018083116128e457829003601f168201915b5050505050925081805480602002602001604051908101604052809291908181526020016000905b82821015612b11578382906000526020600020906003020160405180606001604052908160008201805461295c90615605565b80601f016020809104026020016040519081016040528092919081815260200182805461298890615605565b80156129d55780601f106129aa576101008083540402835291602001916129d5565b820191906000526020600020905b8154815290600101906020018083116129b857829003601f168201915b505050505081526020016001820180546129ee90615605565b80601f0160208091040260200160405190810160405280929190818152602001828054612a1a90615605565b8015612a675780601f10612a3c57610100808354040283529160200191612a67565b820191906000526020600020905b815481529060010190602001808311612a4a57829003601f168201915b50505050508152602001600282018054612a8090615605565b80601f0160208091040260200160405190810160405280929190818152602001828054612aac90615605565b8015612af95780601f10612ace57610100808354040283529160200191612af9565b820191906000526020600020905b815481529060010190602001808311612adc57829003601f168201915b50505050508152505081526020019060010190612929565b50505050915080805480602002602001604051908101604052809291908181526020016000905b82821015612e985783829060005260206000209060070201604051806040016040529081600082016040518060c0016040529081600082018054612b7b90615605565b80601f0160208091040260200160405190810160405280929190818152602001828054612ba790615605565b8015612bf45780601f10612bc957610100808354040283529160200191612bf4565b820191906000526020600020905b815481529060010190602001808311612bd757829003601f168201915b50505050508152602001600182018054612c0d90615605565b80601f0160208091040260200160405190810160405280929190818152602001828054612c3990615605565b8015612c865780601f10612c5b57610100808354040283529160200191612c86565b820191906000526020600020905b815481529060010190602001808311612c6957829003601f168201915b50505050508152602001600282018054612c9f90615605565b80601f0160208091040260200160405190810160405280929190818152602001828054612ccb90615605565b8015612d185780601f10612ced57610100808354040283529160200191612d18565b820191906000526020600020905b815481529060010190602001808311612cfb57829003601f168201915b50505050508152602001600382018054612d3190615605565b80601f0160208091040260200160405190810160405280929190818152602001828054612d5d90615605565b8015612daa5780601f10612d7f57610100808354040283529160200191612daa565b820191906000526020600020905b815481529060010190602001808311612d8d57829003601f168201915b50505050508152602001600482018054612dc390615605565b80601f0160208091040260200160405190810160405280929190818152602001828054612def90615605565b8015612e3c5780601f10612e1157610100808354040283529160200191612e3c565b820191906000526020600020905b815481529060010190602001808311612e1f57829003601f168201915b505050505081526020016005820160009054906101000a900461ffff1661ffff1661ffff168152505081526020016006820160009054906101000a900461ffff1661ffff1661ffff168152505081526020019060010190612b38565b50505050905097509750975097509750975097505090919293949596565b60048181548110612ec657600080fd5b9060005260206000209060090201600091509050806000018054612ee990615605565b80601f0160208091040260200160405190810160405280929190818152602001828054612f1590615605565b8015612f625780601f10612f3757610100808354040283529160200191612f62565b820191906000526020600020905b815481529060010190602001808311612f4557829003601f168201915b505050505090806005018054612f7790615605565b80601f0160208091040260200160405190810160405280929190818152602001828054612fa390615605565b8015612ff05780601f10612fc557610100808354040283529160200191612ff0565b820191906000526020600020905b815481529060010190602001808311612fd357829003601f168201915b5050505050908060070160009054906101000a900460ff16905083565b6000865111613051576040517f08c379a000000000000000000000000000000000000000000000000000000000815260040161304890615563565b60405180910390fd5b60008161ffff1611613098576040517f08c379a000000000000000000000000000000000000000000000000000000000815260040161308f90615d40565b60405180910390fd5b60006002876040516130aa91906155bf565b90815260200160405180910390209050868160000190816130cb91906158a7565b50858160010190816130dd91906158a7565b50848160020190816130ef91906158a7565b508381600301908161310191906158a7565b508281600401908161311391906158a7565b50818160050160006101000a81548161ffff021916908361ffff160217905550600581908060018154018082558091505060019003906000526020600020906006020160009091909190915060008201816000019081613173919061598f565b5060018201816001019081613188919061598f565b506002820181600201908161319d919061598f565b50600382018160030190816131b2919061598f565b50600482018160040190816131c7919061598f565b506005820160009054906101000a900461ffff168160050160006101000a81548161ffff021916908361ffff16021790555050508660405161320991906155bf565b60405180910390207f3b9e932f435ec1da30497b3e70808ce4f0ffe940f26624043073cf416d3f96938484604051613242929190615a77565b60405180910390a250505050505050565b600160003373ffffffffffffffffffffffffffffffffffffffff1673ffffffffffffffffffffffffffffffffffffffff16815260200190815260200160002060070160009054906101000a900460ff166132e2576040517f08c379a00000000000000000000000000000000000000000000000000000000081526004016132d990615af3565b60405180910390fd5b600160003373ffffffffffffffffffffffffffffffffffffffff1673ffffffffffffffffffffffffffffffffffffffff1681526020019081526020016000206001018190806001815401808255809150506001900390600052602060002001600090919091909150908161335691906158a7565b503373ffffffffffffffffffffffffffffffffffffffff167f9dc5c994cee1ffa2e2c3fc4d4d0d9e24511eb0ceef3efe59ff6f57eda374bb278260405161339d9190615b13565b60405180910390a250565b600160003373ffffffffffffffffffffffffffffffffffffffff1673ffffffffffffffffffffffffffffffffffffffff16815260200190815260200160002060070160009054906101000a900460ff16613437576040517f08c379a000000000000000000000000000000000000000000000000000000000815260040161342e90615af3565b60405180910390fd5b600060028260405161344991906155bf565b90815260200160405180910390209050600081600001805461346a90615605565b9050116134ac576040517f08c379a00000000000000000000000000000000000000000000000000000000081526004016134a390615682565b60405180910390fd5b633b9aca008160050160009054906101000a900461ffff1661ffff166134d29190615d70565b63ffffffff1634101561351a576040517f08c379a000000000000000000000000000000000000000000000000000000000815260040161351190615df9565b60405180910390fd5b600080600081819054906101000a900461ffff168092919061353b906156d1565b91906101000a81548161ffff021916908361ffff160217905550905060006040518060400160405280846040518060c001604052908160008201805461358090615605565b80601f01602080910402602001604051908101604052809291908181526020018280546135ac90615605565b80156135f95780601f106135ce576101008083540402835291602001916135f9565b820191906000526020600020905b8154815290600101906020018083116135dc57829003601f168201915b5050505050815260200160018201805461361290615605565b80601f016020809104026020016040519081016040528092919081815260200182805461363e90615605565b801561368b5780601f106136605761010080835404028352916020019161368b565b820191906000526020600020905b81548152906001019060200180831161366e57829003601f168201915b505050505081526020016002820180546136a490615605565b80601f01602080910402602001604051908101604052809291908181526020018280546136d090615605565b801561371d5780601f106136f25761010080835404028352916020019161371d565b820191906000526020600020905b81548152906001019060200180831161370057829003601f168201915b5050505050815260200160038201805461373690615605565b80601f016020809104026020016040519081016040528092919081815260200182805461376290615605565b80156137af5780601f10613784576101008083540402835291602001916137af565b820191906000526020600020905b81548152906001019060200180831161379257829003601f168201915b505050505081526020016004820180546137c890615605565b80601f01602080910402602001604051908101604052809291908181526020018280546137f490615605565b80156138415780601f1061381657610100808354040283529160200191613841565b820191906000526020600020905b81548152906001019060200180831161382457829003601f168201915b505050505081526020016005820160009054906101000a900461ffff1661ffff1661ffff168152505081526020018361ffff168152509050600160003373ffffffffffffffffffffffffffffffffffffffff1673ffffffffffffffffffffffffffffffffffffffff168152602001908152602001600020600401819080600181540180825580915050600190039060005260206000209060070201600090919091909150600082015181600001600082015181600001908161390391906158a7565b50602082015181600101908161391991906158a7565b50604082015181600201908161392f91906158a7565b50606082015181600301908161394591906158a7565b50608082015181600401908161395b91906158a7565b5060a08201518160050160006101000a81548161ffff021916908361ffff160217905550505060208201518160060160006101000a81548161ffff021916908361ffff16021790555050503373ffffffffffffffffffffffffffffffffffffffff167f4aa5059bbf6ae1de63bcd4cacec483049be0f12780453958e246d0c34d87c84485846040516139ee929190615a77565b60405180910390a250505050565b60606006805480602002602001604051908101604052809291908181526020016000905b8282101561406157838290600052602060002090600b02016040518060e0016040529081600082018054613a5390615605565b80601f0160208091040260200160405190810160405280929190818152602001828054613a7f90615605565b8015613acc5780601f10613aa157610100808354040283529160200191613acc565b820191906000526020600020905b815481529060010190602001808311613aaf57829003601f168201915b50505050508152602001600182018054613ae590615605565b80601f0160208091040260200160405190810160405280929190818152602001828054613b1190615605565b8015613b5e5780601f10613b3357610100808354040283529160200191613b5e565b820191906000526020600020905b815481529060010190602001808311613b4157829003601f168201915b50505050508152602001600282016040518060c0016040529081600082018054613b8790615605565b80601f0160208091040260200160405190810160405280929190818152602001828054613bb390615605565b8015613c005780601f10613bd557610100808354040283529160200191613c00565b820191906000526020600020905b815481529060010190602001808311613be357829003601f168201915b50505050508152602001600182018054613c1990615605565b80601f0160208091040260200160405190810160405280929190818152602001828054613c4590615605565b8015613c925780601f10613c6757610100808354040283529160200191613c92565b820191906000526020600020905b815481529060010190602001808311613c7557829003601f168201915b50505050508152602001600282018054613cab90615605565b80601f0160208091040260200160405190810160405280929190818152602001828054613cd790615605565b8015613d245780601f10613cf957610100808354040283529160200191613d24565b820191906000526020600020905b815481529060010190602001808311613d0757829003601f168201915b50505050508152602001600382018054613d3d90615605565b80601f0160208091040260200160405190810160405280929190818152602001828054613d6990615605565b8015613db65780601f10613d8b57610100808354040283529160200191613db6565b820191906000526020600020905b815481529060010190602001808311613d9957829003601f168201915b50505050508152602001600482018054613dcf90615605565b80601f0160208091040260200160405190810160405280929190818152602001828054613dfb90615605565b8015613e485780601f10613e1d57610100808354040283529160200191613e48565b820191906000526020600020905b815481529060010190602001808311613e2b57829003601f168201915b505050505081526020016005820160009054906101000a900461ffff1661ffff1661ffff168152505081526020016008820160009054906101000a900473ffffffffffffffffffffffffffffffffffffffff1673ffffffffffffffffffffffffffffffffffffffff1673ffffffffffffffffffffffffffffffffffffffff1681526020016008820160149054906101000a900461ffff1661ffff1661ffff16815260200160098201805480602002602001604051908101604052809291908181526020016000905b82821015613fbc578382906000526020600020018054613f2f90615605565b80601f0160208091040260200160405190810160405280929190818152602001828054613f5b90615605565b8015613fa85780601f10613f7d57610100808354040283529160200191613fa8565b820191906000526020600020905b815481529060010190602001808311613f8b57829003601f168201915b505050505081526020019060010190613f10565b505050508152602001600a820180548060200260200160405190810160405280929190818152602001828054801561404957602002820191906000526020600020905b8160009054906101000a900473ffffffffffffffffffffffffffffffffffffffff1673ffffffffffffffffffffffffffffffffffffffff1681526020019060010190808311613fff575b50505050508152505081526020019060010190613a20565b50505050905090565b8280548282559060005260206000209081019282156140e3579160200282015b828111156140e25782518260006101000a81548173ffffffffffffffffffffffffffffffffffffffff021916908373ffffffffffffffffffffffffffffffffffffffff1602179055509160200191906001019061408a565b5b5090506140f091906143fa565b5090565b82805482825590600052602060002090810192821561413c579160200282015b8281111561413b57825182908161412b91906158a7565b5091602001919060010190614114565b5b5090506141499190614417565b5090565b8280548282559060005260206000209081019282156141995760005260206000209182015b828111156141985782829081614188919061598f565b5091600101919060010190614172565b5b5090506141a69190614417565b5090565b8280548282559060005260206000209081019282156141eb5760005260206000209182015b828111156141ea5782548255916001019190600101906141cf565b5b5090506141f891906143fa565b5090565b6040518060c001604052806060815260200160608152602001606081526020016060815260200160608152602001600061ffff1681525090565b8280548282559060005260206000209060070281019282156143525760005260206000209160070282015b82811115614351578282600082018160000160008201816000019081614287919061598f565b506001820181600101908161429c919061598f565b50600282018160020190816142b1919061598f565b50600382018160030190816142c6919061598f565b50600482018160040190816142db919061598f565b506005820160009054906101000a900461ffff168160050160006101000a81548161ffff021916908361ffff16021790555050506006820160009054906101000a900461ffff168160060160006101000a81548161ffff021916908361ffff160217905550505091600701919060070190614261565b5b50905061435f919061443b565b5090565b8280548282559060005260206000209060030281019282156143e95760005260206000209160030282015b828111156143e8578282600082018160000190816143ac919061598f565b50600182018160010190816143c1919061598f565b50600282018160020190816143d6919061598f565b5050509160030191906003019061438e565b5b5090506143f691906144d3565b5090565b5b808211156144135760008160009055506001016143fb565b5090565b5b80821115614437576000818161442e919061451a565b50600101614418565b5090565b5b808211156144cf5760008082016000808201600061445a919061451a565b60018201600061446a919061451a565b60028201600061447a919061451a565b60038201600061448a919061451a565b60048201600061449a919061451a565b6005820160006101000a81549061ffff021916905550506006820160006101000a81549061ffff02191690555060070161443c565b5090565b5b8082111561451657600080820160006144ed919061451a565b6001820160006144fd919061451a565b60028201600061450d919061451a565b506003016144d4565b5090565b50805461452690615605565b6000825580601f106145385750614557565b601f01602090049060005260206000209081019061455691906143fa565b5b50565b6000604051905090565b600080fd5b600080fd5b600080fd5b600080fd5b6000601f19601f8301169050919050565b7f4e487b7100000000000000000000000000000000000000000000000000000000600052604160045260246000fd5b6145c182614578565b810181811067ffffffffffffffff821117156145e0576145df614589565b5b80604052505050565b60006145f361455a565b90506145ff82826145b8565b919050565b600067ffffffffffffffff82111561461f5761461e614589565b5b61462882614578565b9050602081019050919050565b82818337600083830152505050565b600061465761465284614604565b6145e9565b90508281526020810184848401111561467357614672614573565b5b61467e848285614635565b509392505050565b600082601f83011261469b5761469a61456e565b5b81356146ab848260208601614644565b91505092915050565b6000806000606084860312156146cd576146cc614564565b5b600084013567ffffffffffffffff8111156146eb576146ea614569565b5b6146f786828701614686565b935050602084013567ffffffffffffffff81111561471857614717614569565b5b61472486828701614686565b925050604084013567ffffffffffffffff81111561474557614744614569565b5b61475186828701614686565b9150509250925092565b6000819050919050565b61476e8161475b565b811461477957600080fd5b50565b60008135905061478b81614765565b92915050565b6000602082840312156147a7576147a6614564565b5b60006147b58482850161477c565b91505092915050565b600081519050919050565b600082825260208201905092915050565b60005b838110156147f85780820151818401526020810190506147dd565b60008484015250505050565b600061480f826147be565b61481981856147c9565b93506148298185602086016147da565b61483281614578565b840191505092915050565b600061ffff82169050919050565b6148548161483d565b82525050565b600060c08201905081810360008301526148748189614804565b905081810360208301526148888188614804565b9050818103604083015261489c8187614804565b905081810360608301526148b08186614804565b905081810360808301526148c48185614804565b90506148d360a083018461484b565b979650505050505050565b600082825260208201905092915050565b60006148fa826147be565b61490481856148de565b93506149148185602086016147da565b61491d81614578565b840191505092915050565b6149318161483d565b82525050565b600060c083016000830151848203600086015261495482826148ef565b9150506020830151848203602086015261496e82826148ef565b9150506040830151848203604086015261498882826148ef565b915050606083015184820360608601526149a282826148ef565b915050608083015184820360808601526149bc82826148ef565b91505060a08301516149d160a0860182614928565b508091505092915050565b600073ffffffffffffffffffffffffffffffffffffffff82169050919050565b6000614a07826149dc565b9050919050565b614a17816149fc565b82525050565b600060a0820190508181036000830152614a378188614804565b90508181036020830152614a4b8187614804565b90508181036040830152614a5f8186614937565b9050614a6e6060830185614a0e565b614a7b608083018461484b565b9695505050505050565b600060208284031215614a9b57614a9a614564565b5b600082013567ffffffffffffffff811115614ab957614ab8614569565b5b614ac584828501614686565b91505092915050565b614ad78161475b565b82525050565b600081519050919050565b600082825260208201905092915050565b6000819050602082019050919050565b6000614b1583836148ef565b905092915050565b6000602082019050919050565b6000614b3582614add565b614b3f8185614ae8565b935083602082028501614b5185614af9565b8060005b85811015614b8d5784840389528151614b6e8582614b09565b9450614b7983614b1d565b925060208a01995050600181019050614b55565b50829750879550505050505092915050565b600081519050919050565b600082825260208201905092915050565b6000819050602082019050919050565b614bd4816149fc565b82525050565b6000614be68383614bcb565b60208301905092915050565b6000602082019050919050565b6000614c0a82614b9f565b614c148185614baa565b9350614c1f83614bbb565b8060005b83811015614c50578151614c378882614bda565b9750614c4283614bf2565b925050600181019050614c23565b5085935050505092915050565b600060e0820190508181036000830152614c77818a614804565b90508181036020830152614c8b8189614804565b90508181036040830152614c9f8188614937565b9050614cae6060830187614a0e565b614cbb6080830186614ace565b81810360a0830152614ccd8185614b2a565b905081810360c0830152614ce18184614bff565b905098975050505050505050565b60006020820190508181036000830152614d098184614b2a565b905092915050565b600081519050919050565b600082825260208201905092915050565b6000819050602082019050919050565b60006060830160008301518482036000860152614d5a82826148ef565b91505060208301518482036020860152614d7482826148ef565b91505060408301518482036040860152614d8e82826148ef565b9150508091505092915050565b6000614da78383614d3d565b905092915050565b6000602082019050919050565b6000614dc782614d11565b614dd18185614d1c565b935083602082028501614de385614d2d565b8060005b85811015614e1f5784840389528151614e008582614d9b565b9450614e0b83614daf565b925060208a01995050600181019050614de7565b50829750879550505050505092915050565b600081519050919050565b600082825260208201905092915050565b6000819050602082019050919050565b600060c0830160008301518482036000860152614e7a82826148ef565b91505060208301518482036020860152614e9482826148ef565b91505060408301518482036040860152614eae82826148ef565b91505060608301518482036060860152614ec882826148ef565b91505060808301518482036080860152614ee282826148ef565b91505060a0830151614ef760a0860182614928565b508091505092915050565b60006040830160008301518482036000860152614f1f8282614e5d565b9150506020830151614f346020860182614928565b508091505092915050565b6000614f4b8383614f02565b905092915050565b6000602082019050919050565b6000614f6b82614e31565b614f758185614e3c565b935083602082028501614f8785614e4d565b8060005b85811015614fc35784840389528151614fa48582614f3f565b9450614faf83614f53565b925060208a01995050600181019050614f8b565b50829750879550505050505092915050565b600060e0820190508181036000830152614fef818a614804565b905081810360208301526150038189614b2a565b905081810360408301526150178188614b2a565b9050818103606083015261502b8187614b2a565b9050818103608083015261503f8186614804565b905081810360a08301526150538185614dbc565b905081810360c08301526150678184614f60565b905098975050505050505050565b60008115159050919050565b61508a81615075565b82525050565b600060608201905081810360008301526150aa8186614804565b905081810360208301526150be8185614804565b90506150cd6040830184615081565b949350505050565b6150de8161483d565b81146150e957600080fd5b50565b6000813590506150fb816150d5565b92915050565b60008060008060008060c0878903121561511e5761511d614564565b5b600087013567ffffffffffffffff81111561513c5761513b614569565b5b61514889828a01614686565b965050602087013567ffffffffffffffff81111561516957615168614569565b5b61517589828a01614686565b955050604087013567ffffffffffffffff81111561519657615195614569565b5b6151a289828a01614686565b945050606087013567ffffffffffffffff8111156151c3576151c2614569565b5b6151cf89828a01614686565b935050608087013567ffffffffffffffff8111156151f0576151ef614569565b5b6151fc89828a01614686565b92505060a061520d89828a016150ec565b9150509295509295509295565b600081519050919050565b600082825260208201905092915050565b6000819050602082019050919050565b600082825260208201905092915050565b600061526282614add565b61526c8185615246565b93508360208202850161527e85614af9565b8060005b858110156152ba578484038952815161529b8582614b09565b94506152a683614b1d565b925060208a01995050600181019050615282565b50829750879550505050505092915050565b600082825260208201905092915050565b60006152e882614b9f565b6152f281856152cc565b93506152fd83614bbb565b8060005b8381101561532e5781516153158882614bda565b975061532083614bf2565b925050600181019050615301565b5085935050505092915050565b600060e083016000830151848203600086015261535882826148ef565b9150506020830151848203602086015261537282826148ef565b9150506040830151848203604086015261538c8282614e5d565b91505060608301516153a16060860182614bcb565b5060808301516153b46080860182614928565b5060a083015184820360a08601526153cc8282615257565b91505060c083015184820360c08601526153e682826152dd565b9150508091505092915050565b60006153ff838361533b565b905092915050565b6000602082019050919050565b600061541f8261521a565b6154298185615225565b93508360208202850161543b85615236565b8060005b85811015615477578484038952815161545885826153f3565b945061546383615407565b925060208a0199505060018101905061543f565b50829750879550505050505092915050565b600060208201905081810360008301526154a38184615414565b905092915050565b7f436f6d6d756e697479206e616d652063616e6e6f7420626520656d7074792100600082015250565b60006154e1601f836147c9565b91506154ec826154ab565b602082019050919050565b60006020820190508181036000830152615510816154d4565b9050919050565b7f426f74206e616d652063616e6e6f7420626520656d7074792100000000000000600082015250565b600061554d6019836147c9565b915061555882615517565b602082019050919050565b6000602082019050818103600083015261557c81615540565b9050919050565b600081905092915050565b6000615599826147be565b6155a38185615583565b93506155b38185602086016147da565b80840191505092915050565b60006155cb828461558e565b915081905092915050565b7f4e487b7100000000000000000000000000000000000000000000000000000000600052602260045260246000fd5b6000600282049050600182168061561d57607f821691505b6020821081036156305761562f6155d6565b5b50919050565b7f426f7420646f6573206e6f742065786973742100000000000000000000000000600082015250565b600061566c6013836147c9565b915061567782615636565b602082019050919050565b6000602082019050818103600083015261569b8161565f565b9050919050565b7f4e487b7100000000000000000000000000000000000000000000000000000000600052601160045260246000fd5b60006156dc8261483d565b915061ffff82036156f0576156ef6156a2565b5b600182019050919050565b60008190508160005260206000209050919050565b60006020601f8301049050919050565b600082821b905092915050565b60006008830261575d7fffffffffffffffffffffffffffffffffffffffffffffffffffffffffffffffff82615720565b6157678683615720565b95508019841693508086168417925050509392505050565b6000819050919050565b60006157a461579f61579a8461475b565b61577f565b61475b565b9050919050565b6000819050919050565b6157be83615789565b6157d26157ca826157ab565b84845461572d565b825550505050565b600090565b6157e76157da565b6157f28184846157b5565b505050565b5b818110156158165761580b6000826157df565b6001810190506157f8565b5050565b601f82111561585b5761582c816156fb565b61583584615710565b81016020851015615844578190505b61585861585085615710565b8301826157f7565b50505b505050565b600082821c905092915050565b600061587e60001984600802615860565b1980831691505092915050565b6000615897838361586d565b9150826002028217905092915050565b6158b0826147be565b67ffffffffffffffff8111156158c9576158c8614589565b5b6158d38254615605565b6158de82828561581a565b600060209050601f83116001811461591157600084156158ff578287015190505b615909858261588b565b865550615971565b601f19841661591f866156fb565b60005b8281101561594757848901518255600182019150602085019450602081019050615922565b868310156159645784890151615960601f89168261586d565b8355505b6001600288020188555050505b505050505050565b60008154905061598881615605565b9050919050565b81810361599d575050615a75565b6159a682615979565b67ffffffffffffffff8111156159bf576159be614589565b5b6159c98254615605565b6159d482828561581a565b6000601f831160018114615a0357600084156159f1578287015490505b6159fb858261588b565b865550615a6e565b601f198416615a11876156fb565b9650615a1c866156fb565b60005b82811015615a4457848901548255600182019150600185019450602081019050615a1f565b86831015615a615784890154615a5d601f89168261586d565b8355505b6001600288020188555050505b5050505050505b565b60006040820190508181036000830152615a918185614804565b9050615aa0602083018461484b565b9392505050565b7f55736572206e6f74207265676973746572656421000000000000000000000000600082015250565b6000615add6014836147c9565b9150615ae882615aa7565b602082019050919050565b60006020820190508181036000830152615b0c81615ad0565b9050919050565b60006020820190508181036000830152615b2d8184614804565b905092915050565b7f436f6d6d756e69747920726f6f6d20646f6573206e6f74206578697374210000600082015250565b6000615b6b601e836147c9565b9150615b7682615b35565b602082019050919050565b60006020820190508181036000830152615b9a81615b5e565b9050919050565b7f4e487b7100000000000000000000000000000000000000000000000000000000600052603260045260246000fd5b7f416c72656164792061206d656d626572206f66207468697320636f6d6d756e6960008201527f7479210000000000000000000000000000000000000000000000000000000000602082015250565b6000615c2c6023836147c9565b9150615c3782615bd0565b604082019050919050565b60006020820190508181036000830152615c5b81615c1f565b9050919050565b7f5573657220616c72656164792072656769737465726564210000000000000000600082015250565b6000615c986018836147c9565b9150615ca382615c62565b602082019050919050565b60006020820190508181036000830152615cc781615c8b565b9050919050565b7f556e6c6f636b20636f7374206d7573742062652067726561746572207468616e60008201527f2030000000000000000000000000000000000000000000000000000000000000602082015250565b6000615d2a6022836147c9565b9150615d3582615cce565b604082019050919050565b60006020820190508181036000830152615d5981615d1d565b9050919050565b600063ffffffff82169050919050565b6000615d7b82615d60565b9150615d8683615d60565b9250828202615d9481615d60565b9150808214615da657615da56156a2565b5b5092915050565b7f496e73756666696369656e74207061796d656e74000000000000000000000000600082015250565b6000615de36014836147c9565b9150615dee82615dad565b602082019050919050565b60006020820190508181036000830152615e1281615dd6565b905091905056fea2646970667358221220f3c7ce778d450750fe7be90d301a3047d0bbb00abe38629d21b5f84d64144b7664736f6c63430008140033",
  "linkReferences": {},
  "deployedLinkReferences": {}
}