{
  "_format": "hh-sol-artifact-1",
  "contractName": "Athl3te",
  "sourceName": "contracts/Athl3te.sol",
  "abi": [
    {
      "inputs": [
        {
          "internalType": "string",
          "name": "name",
          "type": "string"
        },
        {
          "internalType": "string",
          "name": "symbol",
          "type": "string"
        },
        {
          "internalType": "string",
          "name": "_baseURL",
          "type": "string"
        }
      ],
      "stateMutability": "nonpayable",
      "type": "constructor"
    },
    {
      "anonymous": false,
      "inputs": [
        {
          "indexed": true,
          "internalType": "address",
          "name": "userAddress",
          "type": "address"
        },
        {
          "indexed": false,
          "internalType": "string",
          "name": "activityId",
          "type": "string"
        }
      ],
      "name": "ActivityAdded",
      "type": "event"
    },
    {
      "anonymous": false,
      "inputs": [
        {
          "indexed": true,
          "internalType": "address",
          "name": "owner",
          "type": "address"
        },
        {
          "indexed": true,
          "internalType": "address",
          "name": "approved",
          "type": "address"
        },
        {
          "indexed": true,
          "internalType": "uint256",
          "name": "tokenId",
          "type": "uint256"
        }
      ],
      "name": "Approval",
      "type": "event"
    },
    {
      "anonymous": false,
      "inputs": [
        {
          "indexed": true,
          "internalType": "address",
          "name": "owner",
          "type": "address"
        },
        {
          "indexed": true,
          "internalType": "address",
          "name": "operator",
          "type": "address"
        },
        {
          "indexed": false,
          "internalType": "bool",
          "name": "approved",
          "type": "bool"
        }
      ],
      "name": "ApprovalForAll",
      "type": "event"
    },
    {
      "anonymous": false,
      "inputs": [
        {
          "indexed": true,
          "internalType": "string",
          "name": "botName",
          "type": "string"
        },
        {
          "indexed": false,
          "internalType": "string",
          "name": "deploymentURL",
          "type": "string"
        },
        {
          "indexed": false,
          "internalType": "uint16",
          "name": "unlockCostInGWei",
          "type": "uint16"
        }
      ],
      "name": "BotCreated",
      "type": "event"
    },
    {
      "anonymous": false,
      "inputs": [
        {
          "indexed": true,
          "internalType": "address",
          "name": "userAddress",
          "type": "address"
        },
        {
          "indexed": false,
          "internalType": "string",
          "name": "botName",
          "type": "string"
        },
        {
          "indexed": false,
          "internalType": "uint16",
          "name": "messagesId",
          "type": "uint16"
        }
      ],
      "name": "BotPurchased",
      "type": "event"
    },
    {
      "anonymous": false,
      "inputs": [
        {
          "indexed": true,
          "internalType": "string",
          "name": "communityName",
          "type": "string"
        },
        {
          "indexed": true,
          "internalType": "address",
          "name": "creator",
          "type": "address"
        },
        {
          "indexed": false,
          "internalType": "string",
          "name": "botName",
          "type": "string"
        },
        {
          "indexed": false,
          "internalType": "uint16",
          "name": "messagesId",
          "type": "uint16"
        }
      ],
      "name": "CommunityRoomCreated",
      "type": "event"
    },
    {
      "anonymous": false,
      "inputs": [
        {
          "indexed": true,
          "internalType": "address",
          "name": "userAddress",
          "type": "address"
        },
        {
          "indexed": false,
          "internalType": "string",
          "name": "communityName",
          "type": "string"
        }
      ],
      "name": "CommunityRoomJoined",
      "type": "event"
    },
    {
      "anonymous": false,
      "inputs": [
        {
          "indexed": true,
          "internalType": "address",
          "name": "userAddress",
          "type": "address"
        },
        {
          "indexed": false,
          "internalType": "string",
          "name": "goalId",
          "type": "string"
        }
      ],
      "name": "GoalAdded",
      "type": "event"
    },
    {
      "anonymous": false,
      "inputs": [
        {
          "indexed": true,
          "internalType": "address",
          "name": "from",
          "type": "address"
        },
        {
          "indexed": true,
          "internalType": "address",
          "name": "to",
          "type": "address"
        },
        {
          "indexed": true,
          "internalType": "uint256",
          "name": "tokenId",
          "type": "uint256"
        }
      ],
      "name": "Transfer",
      "type": "event"
    },
    {
      "anonymous": false,
      "inputs": [
        {
          "indexed": true,
          "internalType": "address",
          "name": "userAddress",
          "type": "address"
        },
        {
          "indexed": false,
          "internalType": "string",
          "name": "metadata",
          "type": "string"
        }
      ],
      "name": "UserRegistered",
      "type": "event"
    },
    {
      "inputs": [
        {
          "internalType": "uint256",
          "name": "",
          "type": "uint256"
        }
      ],
      "name": "_tokenURIs",
      "outputs": [
        {
          "internalType": "string",
          "name": "",
          "type": "string"
        }
      ],
      "stateMutability": "view",
      "type": "function"
    },
    {
      "inputs": [
        {
          "internalType": "string",
          "name": "_activityId",
          "type": "string"
        }
      ],
      "name": "addActivity",
      "outputs": [],
      "stateMutability": "nonpayable",
      "type": "function"
    },
    {
      "inputs": [
        {
          "internalType": "string",
          "name": "_goalId",
          "type": "string"
        },
        {
          "internalType": "string",
          "name": "goalType",
          "type": "string"
        }
      ],
      "name": "addGoal",
      "outputs": [],
      "stateMutability": "nonpayable",
      "type": "function"
    },
    {
      "inputs": [
        {
          "internalType": "address",
          "name": "to",
          "type": "address"
        },
        {
          "internalType": "uint256",
          "name": "tokenId",
          "type": "uint256"
        }
      ],
      "name": "approve",
      "outputs": [],
      "stateMutability": "nonpayable",
      "type": "function"
    },
    {
      "inputs": [
        {
          "internalType": "address",
          "name": "owner",
          "type": "address"
        }
      ],
      "name": "balanceOf",
      "outputs": [
        {
          "internalType": "uint256",
          "name": "",
          "type": "uint256"
        }
      ],
      "stateMutability": "view",
      "type": "function"
    },
    {
      "inputs": [
        {
          "internalType": "string",
          "name": "_botName",
          "type": "string"
        }
      ],
      "name": "buyBot",
      "outputs": [],
      "stateMutability": "payable",
      "type": "function"
    },
    {
      "inputs": [
        {
          "internalType": "string",
          "name": "_botName",
          "type": "string"
        },
        {
          "internalType": "string",
          "name": "_systemPrompt",
          "type": "string"
        },
        {
          "internalType": "string",
          "name": "_botDescription",
          "type": "string"
        },
        {
          "internalType": "string",
          "name": "_deploymentURL",
          "type": "string"
        },
        {
          "internalType": "uint16",
          "name": "_unlockCostInGWei",
          "type": "uint16"
        }
      ],
      "name": "createBot",
      "outputs": [],
      "stateMutability": "nonpayable",
      "type": "function"
    },
    {
      "inputs": [
        {
          "internalType": "string",
          "name": "_communityName",
          "type": "string"
        },
        {
          "internalType": "string",
          "name": "_botName",
          "type": "string"
        }
      ],
      "name": "createCommunityRoom",
      "outputs": [],
      "stateMutability": "nonpayable",
      "type": "function"
    },
    {
      "inputs": [],
      "name": "getAllBotNames",
      "outputs": [
        {
          "internalType": "string[]",
          "name": "",
          "type": "string[]"
        }
      ],
      "stateMutability": "view",
      "type": "function"
    },
    {
      "inputs": [],
      "name": "getAllCommunityNames",
      "outputs": [
        {
          "internalType": "string[]",
          "name": "",
          "type": "string[]"
        }
      ],
      "stateMutability": "view",
      "type": "function"
    },
    {
      "inputs": [],
      "name": "getAllUsers",
      "outputs": [
        {
          "internalType": "address[]",
          "name": "",
          "type": "address[]"
        }
      ],
      "stateMutability": "view",
      "type": "function"
    },
    {
      "inputs": [
        {
          "internalType": "uint256",
          "name": "tokenId",
          "type": "uint256"
        }
      ],
      "name": "getApproved",
      "outputs": [
        {
          "internalType": "address",
          "name": "",
          "type": "address"
        }
      ],
      "stateMutability": "view",
      "type": "function"
    },
    {
      "inputs": [
        {
          "internalType": "string",
          "name": "_botName",
          "type": "string"
        }
      ],
      "name": "getBotDetails",
      "outputs": [
        {
          "components": [
            {
              "internalType": "string",
              "name": "botName",
              "type": "string"
            },
            {
              "internalType": "string",
              "name": "systemPrompt",
              "type": "string"
            },
            {
              "internalType": "string",
              "name": "botDescription",
              "type": "string"
            },
            {
              "internalType": "string",
              "name": "deploymentURL",
              "type": "string"
            },
            {
              "internalType": "uint16",
              "name": "unlockCostInGWei",
              "type": "uint16"
            }
          ],
          "internalType": "struct Athl3te.Bot",
          "name": "",
          "type": "tuple"
        }
      ],
      "stateMutability": "view",
      "type": "function"
    },
    {
      "inputs": [
        {
          "internalType": "string",
          "name": "_communityName",
          "type": "string"
        }
      ],
      "name": "getCommunityRoomDetails",
      "outputs": [
        {
          "components": [
            {
              "internalType": "string",
              "name": "communityName",
              "type": "string"
            },
            {
              "internalType": "string",
              "name": "botName",
              "type": "string"
            },
            {
              "internalType": "address",
              "name": "createdBy",
              "type": "address"
            },
            {
              "internalType": "uint16",
              "name": "messagesId",
              "type": "uint16"
            },
            {
              "internalType": "string[]",
              "name": "communitySportGoalIds",
              "type": "string[]"
            },
            {
              "internalType": "address[]",
              "name": "members",
              "type": "address[]"
            }
          ],
          "internalType": "struct Athl3te.CommunityRoom",
          "name": "",
          "type": "tuple"
        }
      ],
      "stateMutability": "view",
      "type": "function"
    },
    {
      "inputs": [],
      "name": "getUserDetails",
      "outputs": [
        {
          "components": [
            {
              "internalType": "string",
              "name": "metadata",
              "type": "string"
            },
            {
              "internalType": "string[]",
              "name": "activityIds",
              "type": "string[]"
            },
            {
              "internalType": "string[]",
              "name": "sportGoalIds",
              "type": "string[]"
            },
            {
              "internalType": "string[]",
              "name": "nutritionGoalIds",
              "type": "string[]"
            },
            {
              "components": [
                {
                  "internalType": "string",
                  "name": "botName",
                  "type": "string"
                },
                {
                  "internalType": "uint16",
                  "name": "messagesId",
                  "type": "uint16"
                }
              ],
              "internalType": "struct Athl3te.PersonalAssistant[]",
              "name": "purchasedAssistants",
              "type": "tuple[]"
            },
            {
              "internalType": "string",
              "name": "injuriesDescriptionId",
              "type": "string"
            },
            {
              "internalType": "uint256[]",
              "name": "nftTokenIds",
              "type": "uint256[]"
            },
            {
              "internalType": "bool",
              "name": "isRegistered",
              "type": "bool"
            },
            {
              "internalType": "string[]",
              "name": "joinedCommunities",
              "type": "string[]"
            }
          ],
          "internalType": "struct Athl3te.User",
          "name": "",
          "type": "tuple"
        }
      ],
      "stateMutability": "view",
      "type": "function"
    },
    {
      "inputs": [
        {
          "internalType": "address",
          "name": "owner",
          "type": "address"
        },
        {
          "internalType": "address",
          "name": "operator",
          "type": "address"
        }
      ],
      "name": "isApprovedForAll",
      "outputs": [
        {
          "internalType": "bool",
          "name": "",
          "type": "bool"
        }
      ],
      "stateMutability": "view",
      "type": "function"
    },
    {
      "inputs": [
        {
          "internalType": "string",
          "name": "_communityName",
          "type": "string"
        }
      ],
      "name": "joinCommunityRoom",
      "outputs": [],
      "stateMutability": "nonpayable",
      "type": "function"
    },
    {
      "inputs": [
        {
          "internalType": "string",
          "name": "uri",
          "type": "string"
        }
      ],
      "name": "mintNftWithUri",
      "outputs": [
        {
          "internalType": "uint256",
          "name": "",
          "type": "uint256"
        }
      ],
      "stateMutability": "nonpayable",
      "type": "function"
    },
    {
      "inputs": [],
      "name": "name",
      "outputs": [
        {
          "internalType": "string",
          "name": "",
          "type": "string"
        }
      ],
      "stateMutability": "view",
      "type": "function"
    },
    {
      "inputs": [
        {
          "internalType": "uint256",
          "name": "tokenId",
          "type": "uint256"
        }
      ],
      "name": "ownerOf",
      "outputs": [
        {
          "internalType": "address",
          "name": "",
          "type": "address"
        }
      ],
      "stateMutability": "view",
      "type": "function"
    },
    {
      "inputs": [
        {
          "internalType": "string",
          "name": "_metadata",
          "type": "string"
        }
      ],
      "name": "registerUser",
      "outputs": [],
      "stateMutability": "nonpayable",
      "type": "function"
    },
    {
      "inputs": [
        {
          "internalType": "address",
          "name": "from",
          "type": "address"
        },
        {
          "internalType": "address",
          "name": "to",
          "type": "address"
        },
        {
          "internalType": "uint256",
          "name": "tokenId",
          "type": "uint256"
        }
      ],
      "name": "safeTransferFrom",
      "outputs": [],
      "stateMutability": "nonpayable",
      "type": "function"
    },
    {
      "inputs": [
        {
          "internalType": "address",
          "name": "from",
          "type": "address"
        },
        {
          "internalType": "address",
          "name": "to",
          "type": "address"
        },
        {
          "internalType": "uint256",
          "name": "tokenId",
          "type": "uint256"
        },
        {
          "internalType": "bytes",
          "name": "_data",
          "type": "bytes"
        }
      ],
      "name": "safeTransferFrom",
      "outputs": [],
      "stateMutability": "nonpayable",
      "type": "function"
    },
    {
      "inputs": [
        {
          "internalType": "address",
          "name": "operator",
          "type": "address"
        },
        {
          "internalType": "bool",
          "name": "approved",
          "type": "bool"
        }
      ],
      "name": "setApprovalForAll",
      "outputs": [],
      "stateMutability": "nonpayable",
      "type": "function"
    },
    {
      "inputs": [
        {
          "internalType": "bytes4",
          "name": "interfaceId",
          "type": "bytes4"
        }
      ],
      "name": "supportsInterface",
      "outputs": [
        {
          "internalType": "bool",
          "name": "",
          "type": "bool"
        }
      ],
      "stateMutability": "view",
      "type": "function"
    },
    {
      "inputs": [],
      "name": "symbol",
      "outputs": [
        {
          "internalType": "string",
          "name": "",
          "type": "string"
        }
      ],
      "stateMutability": "view",
      "type": "function"
    },
    {
      "inputs": [
        {
          "internalType": "uint256",
          "name": "tokenId",
          "type": "uint256"
        }
      ],
      "name": "tokenURI",
      "outputs": [
        {
          "internalType": "string",
          "name": "",
          "type": "string"
        }
      ],
      "stateMutability": "view",
      "type": "function"
    },
    {
      "inputs": [
        {
          "internalType": "address",
          "name": "from",
          "type": "address"
        },
        {
          "internalType": "address",
          "name": "to",
          "type": "address"
        },
        {
          "internalType": "uint256",
          "name": "tokenId",
          "type": "uint256"
        }
      ],
      "name": "transferFrom",
      "outputs": [],
      "stateMutability": "nonpayable",
      "type": "function"
    },
    {
      "inputs": [
        {
          "internalType": "string",
          "name": "_injuryId",
          "type": "string"
        }
      ],
      "name": "updateInjury",
      "outputs": [],
      "stateMutability": "nonpayable",
      "type": "function"
    }
  ],
  "bytecode": "0x60806040526000600860006101000a81548161ffff021916908361ffff1602179055503480156200002f57600080fd5b506040516200702f3803806200702f83398181016040528101906200005591906200022b565b828281600090816200006891906200052f565b5080600190816200007a91906200052f565b50505080600790816200008e91906200052f565b5050505062000616565b6000604051905090565b600080fd5b600080fd5b600080fd5b600080fd5b6000601f19601f8301169050919050565b7f4e487b7100000000000000000000000000000000000000000000000000000000600052604160045260246000fd5b6200010182620000b6565b810181811067ffffffffffffffff82111715620001235762000122620000c7565b5b80604052505050565b60006200013862000098565b9050620001468282620000f6565b919050565b600067ffffffffffffffff821115620001695762000168620000c7565b5b6200017482620000b6565b9050602081019050919050565b60005b83811015620001a157808201518184015260208101905062000184565b60008484015250505050565b6000620001c4620001be846200014b565b6200012c565b905082815260208101848484011115620001e357620001e2620000b1565b5b620001f084828562000181565b509392505050565b600082601f83011262000210576200020f620000ac565b5b815162000222848260208601620001ad565b91505092915050565b600080600060608486031215620002475762000246620000a2565b5b600084015167ffffffffffffffff811115620002685762000267620000a7565b5b6200027686828701620001f8565b935050602084015167ffffffffffffffff8111156200029a5762000299620000a7565b5b620002a886828701620001f8565b925050604084015167ffffffffffffffff811115620002cc57620002cb620000a7565b5b620002da86828701620001f8565b9150509250925092565b600081519050919050565b7f4e487b7100000000000000000000000000000000000000000000000000000000600052602260045260246000fd5b600060028204905060018216806200033757607f821691505b6020821081036200034d576200034c620002ef565b5b50919050565b60008190508160005260206000209050919050565b60006020601f8301049050919050565b600082821b905092915050565b600060088302620003b77fffffffffffffffffffffffffffffffffffffffffffffffffffffffffffffffff8262000378565b620003c3868362000378565b95508019841693508086168417925050509392505050565b6000819050919050565b6000819050919050565b6000620004106200040a6200040484620003db565b620003e5565b620003db565b9050919050565b6000819050919050565b6200042c83620003ef565b620004446200043b8262000417565b84845462000385565b825550505050565b600090565b6200045b6200044c565b6200046881848462000421565b505050565b5b8181101562000490576200048460008262000451565b6001810190506200046e565b5050565b601f821115620004df57620004a98162000353565b620004b48462000368565b81016020851015620004c4578190505b620004dc620004d38562000368565b8301826200046d565b50505b505050565b600082821c905092915050565b60006200050460001984600802620004e4565b1980831691505092915050565b60006200051f8383620004f1565b9150826002028217905092915050565b6200053a82620002e4565b67ffffffffffffffff811115620005565762000555620000c7565b5b6200056282546200031e565b6200056f82828562000494565b600060209050601f831160018114620005a7576000841562000592578287015190505b6200059e858262000511565b8655506200060e565b601f198416620005b78662000353565b60005b82811015620005e157848901518255600182019150602085019450602081019050620005ba565b86831015620006015784890151620005fd601f891682620004f1565b8355505b6001600288020188555050505b505050505050565b616a0980620006266000396000f3fe6080604052600436106101c25760003560e01c8063704f1b94116100f7578063a22cb46511610095578063b88d4fde11610064578063b88d4fde14610665578063c87b56dd1461068e578063e2842d79146106cb578063e985e9c5146106f6576101c2565b8063a22cb465146105cc578063b028e967146105f5578063b841e45a14610620578063b84f14b714610649576101c2565b80638272e1d4116100d15780638272e1d4146105225780639298f4241461054d578063942886be1461057657806395d89b41146105a1576101c2565b8063704f1b941461047f57806370a08231146104a857806379181eea146104e5576101c2565b806323b872dd1161016457806354d9ea151161013e57806354d9ea15146103b3578063610693e7146103f057806361a88441146104195780636352211e14610442576101c2565b806323b872dd1461033857806342842e0e1461036157806343dfc73c1461038a576101c2565b8063095ea7b3116101a0578063095ea7b31461026c5780630986f185146102955780630bb78ec1146102be578063226e4fd5146102fb576101c2565b806301ffc9a7146101c757806306fdde0314610204578063081812fc1461022f575b600080fd5b3480156101d357600080fd5b506101ee60048036038101906101e99190614486565b610733565b6040516101fb91906144ce565b60405180910390f35b34801561021057600080fd5b50610219610815565b6040516102269190614579565b60405180910390f35b34801561023b57600080fd5b50610256600480360381019061025191906145d1565b6108a7565b604051610263919061463f565b60405180910390f35b34801561027857600080fd5b50610293600480360381019061028e9190614686565b61092c565b005b3480156102a157600080fd5b506102bc60048036038101906102b79190614765565b610a43565b005b3480156102ca57600080fd5b506102e560048036038101906102e091906145d1565b610d70565b6040516102f29190614579565b60405180910390f35b34801561030757600080fd5b50610322600480360381019061031d9190614991565b610e10565b60405161032f91906149e9565b60405180910390f35b34801561034457600080fd5b5061035f600480360381019061035a9190614a04565b610f56565b005b34801561036d57600080fd5b5061038860048036038101906103839190614a04565b610fb6565b005b34801561039657600080fd5b506103b160048036038101906103ac9190614a57565b610fd6565b005b3480156103bf57600080fd5b506103da60048036038101906103d59190614a57565b6112e8565b6040516103e79190614d1b565b60405180910390f35b3480156103fc57600080fd5b5061041760048036038101906104129190614a57565b611696565b005b34801561042557600080fd5b50610440600480360381019061043b9190614d3d565b61177b565b005b34801561044e57600080fd5b50610469600480360381019061046491906145d1565b611b72565b604051610476919061463f565b60405180910390f35b34801561048b57600080fd5b506104a660048036038101906104a19190614a57565b611c23565b005b3480156104b457600080fd5b506104cf60048036038101906104ca9190614dbe565b611f76565b6040516104dc91906149e9565b60405180910390f35b3480156104f157600080fd5b5061050c60048036038101906105079190614a57565b61202d565b6040516105199190614e76565b60405180910390f35b34801561052e57600080fd5b50610537612342565b6040516105449190614f1e565b60405180910390f35b34801561055957600080fd5b50610574600480360381019061056f9190614f40565b61241b565b005b34801561058257600080fd5b5061058b6126b1565b604051610598919061527e565b60405180910390f35b3480156105ad57600080fd5b506105b6612da4565b6040516105c39190614579565b60405180910390f35b3480156105d857600080fd5b506105f360048036038101906105ee91906152cc565b612e36565b005b34801561060157600080fd5b5061060a612e4c565b6040516106179190614f1e565b60405180910390f35b34801561062c57600080fd5b5061064760048036038101906106429190614a57565b612f25565b005b610663600480360381019061065e9190614a57565b613086565b005b34801561067157600080fd5b5061068c600480360381019061068791906153ad565b6133b1565b005b34801561069a57600080fd5b506106b560048036038101906106b091906145d1565b613413565b6040516106c29190614579565b60405180910390f35b3480156106d757600080fd5b506106e06134ba565b6040516106ed919061549f565b60405180910390f35b34801561070257600080fd5b5061071d600480360381019061071891906154c1565b613548565b60405161072a91906144ce565b60405180910390f35b60007f80ac58cd000000000000000000000000000000000000000000000000000000007bffffffffffffffffffffffffffffffffffffffffffffffffffffffff1916827bffffffffffffffffffffffffffffffffffffffffffffffffffffffff191614806107fe57507f5b5e139f000000000000000000000000000000000000000000000000000000007bffffffffffffffffffffffffffffffffffffffffffffffffffffffff1916827bffffffffffffffffffffffffffffffffffffffffffffffffffffffff1916145b8061080e575061080d826135dc565b5b9050919050565b60606000805461082490615530565b80601f016020809104026020016040519081016040528092919081815260200182805461085090615530565b801561089d5780601f106108725761010080835404028352916020019161089d565b820191906000526020600020905b81548152906001019060200180831161088057829003601f168201915b5050505050905090565b60006108b282613646565b6108f1576040517f08c379a00000000000000000000000000000000000000000000000000000000081526004016108e8906155d3565b60405180910390fd5b6004600083815260200190815260200160002060009054906101000a900473ffffffffffffffffffffffffffffffffffffffff169050919050565b600061093782611b72565b90508073ffffffffffffffffffffffffffffffffffffffff168373ffffffffffffffffffffffffffffffffffffffff16036109a7576040517f08c379a000000000000000000000000000000000000000000000000000000000815260040161099e90615665565b60405180910390fd5b8073ffffffffffffffffffffffffffffffffffffffff166109c66136b2565b73ffffffffffffffffffffffffffffffffffffffff1614806109f557506109f4816109ef6136b2565b613548565b5b610a34576040517f08c379a0000000000000000000000000000000000000000000000000000000008152600401610a2b906156f7565b60405180910390fd5b610a3e83836136ba565b505050565b60008989905011610a89576040517f08c379a0000000000000000000000000000000000000000000000000000000008152600401610a8090615763565b60405180910390fd5b6000600a8a8a604051610a9d9291906157b3565b90815260200160405180910390206000018054610ab990615530565b905014610afb576040517f08c379a0000000000000000000000000000000000000000000000000000000008152600401610af290615818565b60405180910390fd5b6040518060a001604052808a8a8080601f016020809104026020016040519081016040528093929190818152602001838380828437600081840152601f19601f82011690508083019250505050505050815260200188888080601f016020809104026020016040519081016040528093929190818152602001838380828437600081840152601f19601f82011690508083019250505050505050815260200186868080601f016020809104026020016040519081016040528093929190818152602001838380828437600081840152601f19601f82011690508083019250505050505050815260200184848080601f016020809104026020016040519081016040528093929190818152602001838380828437600081840152601f19601f8201169050808301925050505050505081526020018261ffff16815250600a8a8a604051610c489291906157b3565b90815260200160405180910390206000820151816000019081610c6b91906159e4565b506020820151816001019081610c8191906159e4565b506040820151816002019081610c9791906159e4565b506060820151816003019081610cad91906159e4565b5060808201518160040160006101000a81548161ffff021916908361ffff160217905550905050600d898990918060018154018082558091505060019003906000526020600020016000909192909192909192909192509182610d11929190615ac1565b508888604051610d229291906157b3565b60405180910390207f3b9e932f435ec1da30497b3e70808ce4f0ffe940f26624043073cf416d3f9693848484604051610d5d93929190615bcd565b60405180910390a2505050505050505050565b600c6020528060005260406000206000915090508054610d8f90615530565b80601f0160208091040260200160405190810160405280929190818152602001828054610dbb90615530565b8015610e085780601f10610ddd57610100808354040283529160200191610e08565b820191906000526020600020905b815481529060010190602001808311610deb57829003601f168201915b505050505081565b6000600960003373ffffffffffffffffffffffffffffffffffffffff1673ffffffffffffffffffffffffffffffffffffffff16815260200190815260200160002060070160009054906101000a900460ff16610ea1576040517f08c379a0000000000000000000000000000000000000000000000000000000008152600401610e9890615c4b565b60405180910390fd5b6000610ead6006613773565b9050610eb96006613781565b610ec33382613797565b82600c60008381526020019081526020016000209081610ee391906159e4565b50600960003373ffffffffffffffffffffffffffffffffffffffff1673ffffffffffffffffffffffffffffffffffffffff16815260200190815260200160002060060181908060018154018082558091505060019003906000526020600020016000909190919091505580915050919050565b610f67610f616136b2565b82613970565b610fa6576040517f08c379a0000000000000000000000000000000000000000000000000000000008152600401610f9d90615cdd565b60405180910390fd5b610fb1838383613a4e565b505050565b610fd1838383604051806020016040528060008152506133b1565b505050565b600960003373ffffffffffffffffffffffffffffffffffffffff1673ffffffffffffffffffffffffffffffffffffffff16815260200190815260200160002060070160009054906101000a900460ff16611065576040517f08c379a000000000000000000000000000000000000000000000000000000000815260040161105c90615c4b565b60405180910390fd5b6000600b83836040516110799291906157b3565b90815260200160405180910390209050600081600001805461109a90615530565b9050116110dc576040517f08c379a00000000000000000000000000000000000000000000000000000000081526004016110d390615d49565b60405180910390fd5b60005b81600401805490508110156111af573373ffffffffffffffffffffffffffffffffffffffff1682600401828154811061111b5761111a615d69565b5b9060005260206000200160009054906101000a900473ffffffffffffffffffffffffffffffffffffffff1673ffffffffffffffffffffffffffffffffffffffff160361119c576040517f08c379a000000000000000000000000000000000000000000000000000000000815260040161119390615de4565b60405180910390fd5b80806111a790615e33565b9150506110df565b5080600401339080600181540180825580915050600190039060005260206000200160009091909190916101000a81548173ffffffffffffffffffffffffffffffffffffffff021916908373ffffffffffffffffffffffffffffffffffffffff160217905550600960003373ffffffffffffffffffffffffffffffffffffffff1673ffffffffffffffffffffffffffffffffffffffff168152602001908152602001600020600801838390918060018154018082558091505060019003906000526020600020016000909192909192909192909192509182611292929190615ac1565b503373ffffffffffffffffffffffffffffffffffffffff167f48bc22b3eab0c993cd29049a8e0a06fa00e13ec87407c1eabd56c3100205d6ad84846040516112db929190615e7b565b60405180910390a2505050565b6112f0614222565b6000600b84846040516113049291906157b3565b9081526020016040518091039020600001805461132090615530565b905011611362576040517f08c379a000000000000000000000000000000000000000000000000000000000815260040161135990615eeb565b60405180910390fd5b600b83836040516113749291906157b3565b90815260200160405180910390206040518060c001604052908160008201805461139d90615530565b80601f01602080910402602001604051908101604052809291908181526020018280546113c990615530565b80156114165780601f106113eb57610100808354040283529160200191611416565b820191906000526020600020905b8154815290600101906020018083116113f957829003601f168201915b5050505050815260200160018201805461142f90615530565b80601f016020809104026020016040519081016040528092919081815260200182805461145b90615530565b80156114a85780601f1061147d576101008083540402835291602001916114a8565b820191906000526020600020905b81548152906001019060200180831161148b57829003601f168201915b505050505081526020016002820160009054906101000a900473ffffffffffffffffffffffffffffffffffffffff1673ffffffffffffffffffffffffffffffffffffffff1673ffffffffffffffffffffffffffffffffffffffff1681526020016002820160149054906101000a900461ffff1661ffff1661ffff16815260200160038201805480602002602001604051908101604052809291908181526020016000905b828210156115f857838290600052602060002001805461156b90615530565b80601f016020809104026020016040519081016040528092919081815260200182805461159790615530565b80156115e45780601f106115b9576101008083540402835291602001916115e4565b820191906000526020600020905b8154815290600101906020018083116115c757829003601f168201915b50505050508152602001906001019061154c565b5050505081526020016004820180548060200260200160405190810160405280929190818152602001828054801561168557602002820191906000526020600020905b8160009054906101000a900473ffffffffffffffffffffffffffffffffffffffff1673ffffffffffffffffffffffffffffffffffffffff168152602001906001019080831161163b575b505050505081525050905092915050565b600960003373ffffffffffffffffffffffffffffffffffffffff1673ffffffffffffffffffffffffffffffffffffffff16815260200190815260200160002060070160009054906101000a900460ff16611725576040517f08c379a000000000000000000000000000000000000000000000000000000000815260040161171c90615c4b565b60405180910390fd5b8181600960003373ffffffffffffffffffffffffffffffffffffffff1673ffffffffffffffffffffffffffffffffffffffff1681526020019081526020016000206005019182611776929190615ac1565b505050565b600960003373ffffffffffffffffffffffffffffffffffffffff1673ffffffffffffffffffffffffffffffffffffffff16815260200190815260200160002060070160009054906101000a900460ff1661180a576040517f08c379a000000000000000000000000000000000000000000000000000000000815260040161180190615c4b565b60405180910390fd5b6000600a838360405161181e9291906157b3565b9081526020016040518091039020600001805461183a90615530565b90501161187c576040517f08c379a000000000000000000000000000000000000000000000000000000000815260040161187390615f57565b60405180910390fd5b6000600b85856040516118909291906157b3565b908152602001604051809103902060000180546118ac90615530565b9050146118ee576040517f08c379a00000000000000000000000000000000000000000000000000000000081526004016118e590615fc3565b60405180910390fd5b6000600b85856040516119029291906157b3565b908152602001604051809103902090508484826000019182611925929190615ac1565b508282826001019182611939929190615ac1565b506008600081819054906101000a900461ffff1661195690615fe3565b91906101000a81548161ffff021916908361ffff16021790558160020160146101000a81548161ffff021916908361ffff160217905550338160020160006101000a81548173ffffffffffffffffffffffffffffffffffffffff021916908373ffffffffffffffffffffffffffffffffffffffff16021790555080600401339080600181540180825580915050600190039060005260206000200160009091909190916101000a81548173ffffffffffffffffffffffffffffffffffffffff021916908373ffffffffffffffffffffffffffffffffffffffff160217905550600f858590918060018154018082558091505060019003906000526020600020016000909192909192909192909192509182611a72929190615ac1565b50600960003373ffffffffffffffffffffffffffffffffffffffff1673ffffffffffffffffffffffffffffffffffffffff168152602001908152602001600020600801858590918060018154018082558091505060019003906000526020600020016000909192909192909192909192509182611af0929190615ac1565b503373ffffffffffffffffffffffffffffffffffffffff168585604051611b189291906157b3565b60405180910390207ff085966e5f5bdaddeb4826a76affe2e722a984e4136d44f6576256c9d01761a88585600860009054906101000a900461ffff16604051611b6393929190615bcd565b60405180910390a35050505050565b6000806002600084815260200190815260200160002060009054906101000a900473ffffffffffffffffffffffffffffffffffffffff169050600073ffffffffffffffffffffffffffffffffffffffff168173ffffffffffffffffffffffffffffffffffffffff1603611c1a576040517f08c379a0000000000000000000000000000000000000000000000000000000008152600401611c119061607f565b60405180910390fd5b80915050919050565b600960003373ffffffffffffffffffffffffffffffffffffffff1673ffffffffffffffffffffffffffffffffffffffff16815260200190815260200160002060070160009054906101000a900460ff1615611cb3576040517f08c379a0000000000000000000000000000000000000000000000000000000008152600401611caa906160eb565b60405180910390fd5b6000600960003373ffffffffffffffffffffffffffffffffffffffff1673ffffffffffffffffffffffffffffffffffffffff168152602001908152602001600020905060018160070160006101000a81548160ff0219169083151502179055508282826000019182611d26929190615ac1565b50600067ffffffffffffffff811115611d4257611d41614866565b5b604051908082528060200260200182016040528015611d7557816020015b6060815260200190600190039081611d605790505b50816001019080519060200190611d8d929190614272565b50600067ffffffffffffffff811115611da957611da8614866565b5b604051908082528060200260200182016040528015611ddc57816020015b6060815260200190600190039081611dc75790505b50816002019080519060200190611df4929190614272565b50600067ffffffffffffffff811115611e1057611e0f614866565b5b604051908082528060200260200182016040528015611e4357816020015b6060815260200190600190039081611e2e5790505b50816003019080519060200190611e5b929190614272565b50600067ffffffffffffffff811115611e7757611e76614866565b5b604051908082528060200260200182016040528015611ea55781602001602082028036833780820191505090505b50816006019080519060200190611ebd9291906142cb565b50600e339080600181540180825580915050600190039060005260206000200160009091909190916101000a81548173ffffffffffffffffffffffffffffffffffffffff021916908373ffffffffffffffffffffffffffffffffffffffff1602179055503373ffffffffffffffffffffffffffffffffffffffff167f48cac28ad4dc618e15f4c2dd5e97751182f166de97b25618318b2112aa951a2f8484604051611f69929190615e7b565b60405180910390a2505050565b60008073ffffffffffffffffffffffffffffffffffffffff168273ffffffffffffffffffffffffffffffffffffffff1603611fe6576040517f08c379a0000000000000000000000000000000000000000000000000000000008152600401611fdd9061617d565b60405180910390fd5b600360008373ffffffffffffffffffffffffffffffffffffffff1673ffffffffffffffffffffffffffffffffffffffff168152602001908152602001600020549050919050565b612035614318565b6000600a84846040516120499291906157b3565b9081526020016040518091039020600001805461206590615530565b9050116120a7576040517f08c379a000000000000000000000000000000000000000000000000000000000815260040161209e90615f57565b60405180910390fd5b600a83836040516120b99291906157b3565b90815260200160405180910390206040518060a00160405290816000820180546120e290615530565b80601f016020809104026020016040519081016040528092919081815260200182805461210e90615530565b801561215b5780601f106121305761010080835404028352916020019161215b565b820191906000526020600020905b81548152906001019060200180831161213e57829003601f168201915b5050505050815260200160018201805461217490615530565b80601f01602080910402602001604051908101604052809291908181526020018280546121a090615530565b80156121ed5780601f106121c2576101008083540402835291602001916121ed565b820191906000526020600020905b8154815290600101906020018083116121d057829003601f168201915b5050505050815260200160028201805461220690615530565b80601f016020809104026020016040519081016040528092919081815260200182805461223290615530565b801561227f5780601f106122545761010080835404028352916020019161227f565b820191906000526020600020905b81548152906001019060200180831161226257829003601f168201915b5050505050815260200160038201805461229890615530565b80601f01602080910402602001604051908101604052809291908181526020018280546122c490615530565b80156123115780601f106122e657610100808354040283529160200191612311565b820191906000526020600020905b8154815290600101906020018083116122f457829003601f168201915b505050505081526020016004820160009054906101000a900461ffff1661ffff1661ffff1681525050905092915050565b6060600f805480602002602001604051908101604052809291908181526020016000905b8282101561241257838290600052602060002001805461238590615530565b80601f01602080910402602001604051908101604052809291908181526020018280546123b190615530565b80156123fe5780601f106123d3576101008083540402835291602001916123fe565b820191906000526020600020905b8154815290600101906020018083116123e157829003601f168201915b505050505081526020019060010190612366565b50505050905090565b600960003373ffffffffffffffffffffffffffffffffffffffff1673ffffffffffffffffffffffffffffffffffffffff16815260200190815260200160002060070160009054906101000a900460ff166124aa576040517f08c379a00000000000000000000000000000000000000000000000000000000081526004016124a190615c4b565b60405180910390fd5b600082826040516020016124bf9291906157b3565b6040516020818303038152906040528051906020012090506040516020016124e6906161e9565b60405160208183030381529060405280519060200120810361257c57600960003373ffffffffffffffffffffffffffffffffffffffff1673ffffffffffffffffffffffffffffffffffffffff1681526020019081526020016000206003018490806001815401808255809150506001900390600052602060002001600090919091909150908161257691906159e4565b5061265d565b60405160200161258b9061624a565b60405160208183030381529060405280519060200120810361262157600960003373ffffffffffffffffffffffffffffffffffffffff1673ffffffffffffffffffffffffffffffffffffffff1681526020019081526020016000206002018490806001815401808255809150506001900390600052602060002001600090919091909150908161261b91906159e4565b5061265c565b6040517f08c379a0000000000000000000000000000000000000000000000000000000008152600401612653906162ab565b60405180910390fd5b5b3373ffffffffffffffffffffffffffffffffffffffff167f4b91165a689896f9262f48b04f31915f16a411f35147da8b992addaeaa509b39856040516126a39190614579565b60405180910390a250505050565b6126b961434b565b600960003373ffffffffffffffffffffffffffffffffffffffff1673ffffffffffffffffffffffffffffffffffffffff16815260200190815260200160002060070160009054906101000a900460ff16612748576040517f08c379a000000000000000000000000000000000000000000000000000000000815260040161273f90615c4b565b60405180910390fd5b600960003373ffffffffffffffffffffffffffffffffffffffff1673ffffffffffffffffffffffffffffffffffffffff168152602001908152602001600020604051806101200160405290816000820180546127a390615530565b80601f01602080910402602001604051908101604052809291908181526020018280546127cf90615530565b801561281c5780601f106127f15761010080835404028352916020019161281c565b820191906000526020600020905b8154815290600101906020018083116127ff57829003601f168201915b5050505050815260200160018201805480602002602001604051908101604052809291908181526020016000905b828210156128f657838290600052602060002001805461286990615530565b80601f016020809104026020016040519081016040528092919081815260200182805461289590615530565b80156128e25780601f106128b7576101008083540402835291602001916128e2565b820191906000526020600020905b8154815290600101906020018083116128c557829003601f168201915b50505050508152602001906001019061284a565b50505050815260200160028201805480602002602001604051908101604052809291908181526020016000905b828210156129cf57838290600052602060002001805461294290615530565b80601f016020809104026020016040519081016040528092919081815260200182805461296e90615530565b80156129bb5780601f10612990576101008083540402835291602001916129bb565b820191906000526020600020905b81548152906001019060200180831161299e57829003601f168201915b505050505081526020019060010190612923565b50505050815260200160038201805480602002602001604051908101604052809291908181526020016000905b82821015612aa8578382906000526020600020018054612a1b90615530565b80601f0160208091040260200160405190810160405280929190818152602001828054612a4790615530565b8015612a945780601f10612a6957610100808354040283529160200191612a94565b820191906000526020600020905b815481529060010190602001808311612a7757829003601f168201915b5050505050815260200190600101906129fc565b50505050815260200160048201805480602002602001604051908101604052809291908181526020016000905b82821015612bb95783829060005260206000209060020201604051806040016040529081600082018054612b0890615530565b80601f0160208091040260200160405190810160405280929190818152602001828054612b3490615530565b8015612b815780601f10612b5657610100808354040283529160200191612b81565b820191906000526020600020905b815481529060010190602001808311612b6457829003601f168201915b505050505081526020016001820160009054906101000a900461ffff1661ffff1661ffff168152505081526020019060010190612ad5565b505050508152602001600582018054612bd190615530565b80601f0160208091040260200160405190810160405280929190818152602001828054612bfd90615530565b8015612c4a5780601f10612c1f57610100808354040283529160200191612c4a565b820191906000526020600020905b815481529060010190602001808311612c2d57829003601f168201915b5050505050815260200160068201805480602002602001604051908101604052809291908181526020018280548015612ca257602002820191906000526020600020905b815481526020019060010190808311612c8e575b505050505081526020016007820160009054906101000a900460ff1615151515815260200160088201805480602002602001604051908101604052809291908181526020016000905b82821015612d97578382906000526020600020018054612d0a90615530565b80601f0160208091040260200160405190810160405280929190818152602001828054612d3690615530565b8015612d835780601f10612d5857610100808354040283529160200191612d83565b820191906000526020600020905b815481529060010190602001808311612d6657829003601f168201915b505050505081526020019060010190612ceb565b5050505081525050905090565b606060018054612db390615530565b80601f0160208091040260200160405190810160405280929190818152602001828054612ddf90615530565b8015612e2c5780601f10612e0157610100808354040283529160200191612e2c565b820191906000526020600020905b815481529060010190602001808311612e0f57829003601f168201915b5050505050905090565b612e48612e416136b2565b8383613cb4565b5050565b6060600d805480602002602001604051908101604052809291908181526020016000905b82821015612f1c578382906000526020600020018054612e8f90615530565b80601f0160208091040260200160405190810160405280929190818152602001828054612ebb90615530565b8015612f085780601f10612edd57610100808354040283529160200191612f08565b820191906000526020600020905b815481529060010190602001808311612eeb57829003601f168201915b505050505081526020019060010190612e70565b50505050905090565b600960003373ffffffffffffffffffffffffffffffffffffffff1673ffffffffffffffffffffffffffffffffffffffff16815260200190815260200160002060070160009054906101000a900460ff16612fb4576040517f08c379a0000000000000000000000000000000000000000000000000000000008152600401612fab90615c4b565b60405180910390fd5b600960003373ffffffffffffffffffffffffffffffffffffffff1673ffffffffffffffffffffffffffffffffffffffff168152602001908152602001600020600101828290918060018154018082558091505060019003906000526020600020016000909192909192909192909192509182613031929190615ac1565b503373ffffffffffffffffffffffffffffffffffffffff167f9dc5c994cee1ffa2e2c3fc4d4d0d9e24511eb0ceef3efe59ff6f57eda374bb27838360405161307a929190615e7b565b60405180910390a25050565b600960003373ffffffffffffffffffffffffffffffffffffffff1673ffffffffffffffffffffffffffffffffffffffff16815260200190815260200160002060070160009054906101000a900460ff16613115576040517f08c379a000000000000000000000000000000000000000000000000000000000815260040161310c90615c4b565b60405180910390fd5b6000600a83836040516131299291906157b3565b9081526020016040518091039020600001805461314590615530565b905011613187576040517f08c379a000000000000000000000000000000000000000000000000000000000815260040161317e90615f57565b60405180910390fd5b633b9aca00600a838360405161319e9291906157b3565b908152602001604051809103902060040160009054906101000a900461ffff1661ffff166131cc91906162db565b63ffffffff16341015613214576040517f08c379a000000000000000000000000000000000000000000000000000000000815260040161320b90616364565b60405180910390fd5b600960003373ffffffffffffffffffffffffffffffffffffffff1673ffffffffffffffffffffffffffffffffffffffff168152602001908152602001600020600401604051806040016040528084848080601f016020809104026020016040519081016040528093929190818152602001838380828437600081840152601f19601f8201169050808301925050505050505081526020016008600081819054906101000a900461ffff166132c790615fe3565b91906101000a81548161ffff021916908361ffff160217905561ffff168152509080600181540180825580915050600190039060005260206000209060020201600090919091909150600082015181600001908161332591906159e4565b5060208201518160010160006101000a81548161ffff021916908361ffff16021790555050503373ffffffffffffffffffffffffffffffffffffffff167f4aa5059bbf6ae1de63bcd4cacec483049be0f12780453958e246d0c34d87c8448383600860009054906101000a900461ffff166040516133a593929190615bcd565b60405180910390a25050565b6133c26133bc6136b2565b83613970565b613401576040517f08c379a00000000000000000000000000000000000000000000000000000000081526004016133f890615cdd565b60405180910390fd5b61340d84848484613e20565b50505050565b606061341e82613646565b61345d576040517f08c379a0000000000000000000000000000000000000000000000000000000008152600401613454906163f6565b60405180910390fd5b6000613467613e7c565b9050600081511161348757604051806020016040528060008152506134b2565b8061349184613f0e565b6040516020016134a2929190616447565b6040516020818303038152906040525b915050919050565b6060600e80548060200260200160405190810160405280929190818152602001828054801561353e57602002820191906000526020600020905b8160009054906101000a900473ffffffffffffffffffffffffffffffffffffffff1673ffffffffffffffffffffffffffffffffffffffff16815260200190600101908083116134f4575b5050505050905090565b6000600560008473ffffffffffffffffffffffffffffffffffffffff1673ffffffffffffffffffffffffffffffffffffffff16815260200190815260200160002060008373ffffffffffffffffffffffffffffffffffffffff1673ffffffffffffffffffffffffffffffffffffffff16815260200190815260200160002060009054906101000a900460ff16905092915050565b60007f01ffc9a7000000000000000000000000000000000000000000000000000000007bffffffffffffffffffffffffffffffffffffffffffffffffffffffff1916827bffffffffffffffffffffffffffffffffffffffffffffffffffffffff1916149050919050565b60008073ffffffffffffffffffffffffffffffffffffffff166002600084815260200190815260200160002060009054906101000a900473ffffffffffffffffffffffffffffffffffffffff1673ffffffffffffffffffffffffffffffffffffffff1614159050919050565b600033905090565b816004600083815260200190815260200160002060006101000a81548173ffffffffffffffffffffffffffffffffffffffff021916908373ffffffffffffffffffffffffffffffffffffffff160217905550808273ffffffffffffffffffffffffffffffffffffffff1661372d83611b72565b73ffffffffffffffffffffffffffffffffffffffff167f8c5be1e5ebec7d5bd14f71427d1e84f3dd0314c0f7b2291e5b200ac8c7c3b92560405160405180910390a45050565b600081600001549050919050565b6001816000016000828254019250508190555050565b600073ffffffffffffffffffffffffffffffffffffffff168273ffffffffffffffffffffffffffffffffffffffff1603613806576040517f08c379a00000000000000000000000000000000000000000000000000000000081526004016137fd906164b7565b60405180910390fd5b61380f81613646565b1561384f576040517f08c379a000000000000000000000000000000000000000000000000000000000815260040161384690616523565b60405180910390fd5b61385b6000838361406e565b6001600360008473ffffffffffffffffffffffffffffffffffffffff1673ffffffffffffffffffffffffffffffffffffffff16815260200190815260200160002060008282546138ab9190616543565b92505081905550816002600083815260200190815260200160002060006101000a81548173ffffffffffffffffffffffffffffffffffffffff021916908373ffffffffffffffffffffffffffffffffffffffff160217905550808273ffffffffffffffffffffffffffffffffffffffff16600073ffffffffffffffffffffffffffffffffffffffff167fddf252ad1be2c89b69c2b068fc378daa952ba7f163c4a11628f55a4df523b3ef60405160405180910390a461396c60008383614073565b5050565b600061397b82613646565b6139ba576040517f08c379a00000000000000000000000000000000000000000000000000000000081526004016139b1906165e9565b60405180910390fd5b60006139c583611b72565b90508073ffffffffffffffffffffffffffffffffffffffff168473ffffffffffffffffffffffffffffffffffffffff161480613a075750613a068185613548565b5b80613a4557508373ffffffffffffffffffffffffffffffffffffffff16613a2d846108a7565b73ffffffffffffffffffffffffffffffffffffffff16145b91505092915050565b8273ffffffffffffffffffffffffffffffffffffffff16613a6e82611b72565b73ffffffffffffffffffffffffffffffffffffffff1614613ac4576040517f08c379a0000000000000000000000000000000000000000000000000000000008152600401613abb9061667b565b60405180910390fd5b600073ffffffffffffffffffffffffffffffffffffffff168273ffffffffffffffffffffffffffffffffffffffff1603613b33576040517f08c379a0000000000000000000000000000000000000000000000000000000008152600401613b2a9061670d565b60405180910390fd5b613b3e83838361406e565b613b496000826136ba565b6001600360008573ffffffffffffffffffffffffffffffffffffffff1673ffffffffffffffffffffffffffffffffffffffff1681526020019081526020016000206000828254613b99919061672d565b925050819055506001600360008473ffffffffffffffffffffffffffffffffffffffff1673ffffffffffffffffffffffffffffffffffffffff1681526020019081526020016000206000828254613bf09190616543565b92505081905550816002600083815260200190815260200160002060006101000a81548173ffffffffffffffffffffffffffffffffffffffff021916908373ffffffffffffffffffffffffffffffffffffffff160217905550808273ffffffffffffffffffffffffffffffffffffffff168473ffffffffffffffffffffffffffffffffffffffff167fddf252ad1be2c89b69c2b068fc378daa952ba7f163c4a11628f55a4df523b3ef60405160405180910390a4613caf838383614073565b505050565b8173ffffffffffffffffffffffffffffffffffffffff168373ffffffffffffffffffffffffffffffffffffffff1603613d22576040517f08c379a0000000000000000000000000000000000000000000000000000000008152600401613d19906167ad565b60405180910390fd5b80600560008573ffffffffffffffffffffffffffffffffffffffff1673ffffffffffffffffffffffffffffffffffffffff16815260200190815260200160002060008473ffffffffffffffffffffffffffffffffffffffff1673ffffffffffffffffffffffffffffffffffffffff16815260200190815260200160002060006101000a81548160ff0219169083151502179055508173ffffffffffffffffffffffffffffffffffffffff168373ffffffffffffffffffffffffffffffffffffffff167f17307eab39ab6107e8899845ad3d59bd9653f200f220920489ca2b5937696c3183604051613e1391906144ce565b60405180910390a3505050565b613e2b848484613a4e565b613e3784848484614078565b613e76576040517f08c379a0000000000000000000000000000000000000000000000000000000008152600401613e6d9061683f565b60405180910390fd5b50505050565b606060078054613e8b90615530565b80601f0160208091040260200160405190810160405280929190818152602001828054613eb790615530565b8015613f045780601f10613ed957610100808354040283529160200191613f04565b820191906000526020600020905b815481529060010190602001808311613ee757829003601f168201915b5050505050905090565b606060008203613f55576040518060400160405280600181526020017f30000000000000000000000000000000000000000000000000000000000000008152509050614069565b600082905060005b60008214613f87578080613f7090615e33565b915050600a82613f80919061688e565b9150613f5d565b60008167ffffffffffffffff811115613fa357613fa2614866565b5b6040519080825280601f01601f191660200182016040528015613fd55781602001600182028036833780820191505090505b5090505b6000851461406257600182613fee919061672d565b9150600a85613ffd91906168bf565b60306140099190616543565b60f81b81838151811061401f5761401e615d69565b5b60200101907effffffffffffffffffffffffffffffffffffffffffffffffffffffffffffff1916908160001a905350600a8561405b919061688e565b9450613fd9565b8093505050505b919050565b505050565b505050565b60006140998473ffffffffffffffffffffffffffffffffffffffff166141ff565b156141f2578373ffffffffffffffffffffffffffffffffffffffff1663150b7a026140c26136b2565b8786866040518563ffffffff1660e01b81526004016140e49493929190616945565b6020604051808303816000875af192505050801561412057506040513d601f19601f8201168201806040525081019061411d91906169a6565b60015b6141a2573d8060008114614150576040519150601f19603f3d011682016040523d82523d6000602084013e614155565b606091505b50600081510361419a576040517f08c379a00000000000000000000000000000000000000000000000000000000081526004016141919061683f565b60405180910390fd5b805181602001fd5b63150b7a0260e01b7bffffffffffffffffffffffffffffffffffffffffffffffffffffffff1916817bffffffffffffffffffffffffffffffffffffffffffffffffffffffff1916149150506141f7565b600190505b949350505050565b6000808273ffffffffffffffffffffffffffffffffffffffff163b119050919050565b6040518060c001604052806060815260200160608152602001600073ffffffffffffffffffffffffffffffffffffffff168152602001600061ffff16815260200160608152602001606081525090565b8280548282559060005260206000209081019282156142ba579160200282015b828111156142b95782518290816142a991906159e4565b5091602001919060010190614292565b5b5090506142c79190614399565b5090565b828054828255906000526020600020908101928215614307579160200282015b828111156143065782518255916020019190600101906142eb565b5b50905061431491906143bd565b5090565b6040518060a0016040528060608152602001606081526020016060815260200160608152602001600061ffff1681525090565b60405180610120016040528060608152602001606081526020016060815260200160608152602001606081526020016060815260200160608152602001600015158152602001606081525090565b5b808211156143b957600081816143b091906143da565b5060010161439a565b5090565b5b808211156143d65760008160009055506001016143be565b5090565b5080546143e690615530565b6000825580601f106143f85750614417565b601f01602090049060005260206000209081019061441691906143bd565b5b50565b6000604051905090565b600080fd5b600080fd5b60007fffffffff0000000000000000000000000000000000000000000000000000000082169050919050565b6144638161442e565b811461446e57600080fd5b50565b6000813590506144808161445a565b92915050565b60006020828403121561449c5761449b614424565b5b60006144aa84828501614471565b91505092915050565b60008115159050919050565b6144c8816144b3565b82525050565b60006020820190506144e360008301846144bf565b92915050565b600081519050919050565b600082825260208201905092915050565b60005b83811015614523578082015181840152602081019050614508565b60008484015250505050565b6000601f19601f8301169050919050565b600061454b826144e9565b61455581856144f4565b9350614565818560208601614505565b61456e8161452f565b840191505092915050565b600060208201905081810360008301526145938184614540565b905092915050565b6000819050919050565b6145ae8161459b565b81146145b957600080fd5b50565b6000813590506145cb816145a5565b92915050565b6000602082840312156145e7576145e6614424565b5b60006145f5848285016145bc565b91505092915050565b600073ffffffffffffffffffffffffffffffffffffffff82169050919050565b6000614629826145fe565b9050919050565b6146398161461e565b82525050565b60006020820190506146546000830184614630565b92915050565b6146638161461e565b811461466e57600080fd5b50565b6000813590506146808161465a565b92915050565b6000806040838503121561469d5761469c614424565b5b60006146ab85828601614671565b92505060206146bc858286016145bc565b9150509250929050565b600080fd5b600080fd5b600080fd5b60008083601f8401126146eb576146ea6146c6565b5b8235905067ffffffffffffffff811115614708576147076146cb565b5b602083019150836001820283011115614724576147236146d0565b5b9250929050565b600061ffff82169050919050565b6147428161472b565b811461474d57600080fd5b50565b60008135905061475f81614739565b92915050565b600080600080600080600080600060a08a8c03121561478757614786614424565b5b60008a013567ffffffffffffffff8111156147a5576147a4614429565b5b6147b18c828d016146d5565b995099505060208a013567ffffffffffffffff8111156147d4576147d3614429565b5b6147e08c828d016146d5565b975097505060408a013567ffffffffffffffff81111561480357614802614429565b5b61480f8c828d016146d5565b955095505060608a013567ffffffffffffffff81111561483257614831614429565b5b61483e8c828d016146d5565b935093505060806148518c828d01614750565b9150509295985092959850929598565b600080fd5b7f4e487b7100000000000000000000000000000000000000000000000000000000600052604160045260246000fd5b61489e8261452f565b810181811067ffffffffffffffff821117156148bd576148bc614866565b5b80604052505050565b60006148d061441a565b90506148dc8282614895565b919050565b600067ffffffffffffffff8211156148fc576148fb614866565b5b6149058261452f565b9050602081019050919050565b82818337600083830152505050565b600061493461492f846148e1565b6148c6565b9050828152602081018484840111156149505761494f614861565b5b61495b848285614912565b509392505050565b600082601f830112614978576149776146c6565b5b8135614988848260208601614921565b91505092915050565b6000602082840312156149a7576149a6614424565b5b600082013567ffffffffffffffff8111156149c5576149c4614429565b5b6149d184828501614963565b91505092915050565b6149e38161459b565b82525050565b60006020820190506149fe60008301846149da565b92915050565b600080600060608486031215614a1d57614a1c614424565b5b6000614a2b86828701614671565b9350506020614a3c86828701614671565b9250506040614a4d868287016145bc565b9150509250925092565b60008060208385031215614a6e57614a6d614424565b5b600083013567ffffffffffffffff811115614a8c57614a8b614429565b5b614a98858286016146d5565b92509250509250929050565b600082825260208201905092915050565b6000614ac0826144e9565b614aca8185614aa4565b9350614ada818560208601614505565b614ae38161452f565b840191505092915050565b614af78161461e565b82525050565b614b068161472b565b82525050565b600081519050919050565b600082825260208201905092915050565b6000819050602082019050919050565b6000614b448383614ab5565b905092915050565b6000602082019050919050565b6000614b6482614b0c565b614b6e8185614b17565b935083602082028501614b8085614b28565b8060005b85811015614bbc5784840389528151614b9d8582614b38565b9450614ba883614b4c565b925060208a01995050600181019050614b84565b50829750879550505050505092915050565b600081519050919050565b600082825260208201905092915050565b6000819050602082019050919050565b6000614c068383614aee565b60208301905092915050565b6000602082019050919050565b6000614c2a82614bce565b614c348185614bd9565b9350614c3f83614bea565b8060005b83811015614c70578151614c578882614bfa565b9750614c6283614c12565b925050600181019050614c43565b5085935050505092915050565b600060c0830160008301518482036000860152614c9a8282614ab5565b91505060208301518482036020860152614cb48282614ab5565b9150506040830151614cc96040860182614aee565b506060830151614cdc6060860182614afd565b5060808301518482036080860152614cf48282614b59565b91505060a083015184820360a0860152614d0e8282614c1f565b9150508091505092915050565b60006020820190508181036000830152614d358184614c7d565b905092915050565b60008060008060408587031215614d5757614d56614424565b5b600085013567ffffffffffffffff811115614d7557614d74614429565b5b614d81878288016146d5565b9450945050602085013567ffffffffffffffff811115614da457614da3614429565b5b614db0878288016146d5565b925092505092959194509250565b600060208284031215614dd457614dd3614424565b5b6000614de284828501614671565b91505092915050565b600060a0830160008301518482036000860152614e088282614ab5565b91505060208301518482036020860152614e228282614ab5565b91505060408301518482036040860152614e3c8282614ab5565b91505060608301518482036060860152614e568282614ab5565b9150506080830151614e6b6080860182614afd565b508091505092915050565b60006020820190508181036000830152614e908184614deb565b905092915050565b600082825260208201905092915050565b6000614eb482614b0c565b614ebe8185614e98565b935083602082028501614ed085614b28565b8060005b85811015614f0c5784840389528151614eed8582614b38565b9450614ef883614b4c565b925060208a01995050600181019050614ed4565b50829750879550505050505092915050565b60006020820190508181036000830152614f388184614ea9565b905092915050565b600080600060408486031215614f5957614f58614424565b5b600084013567ffffffffffffffff811115614f7757614f76614429565b5b614f8386828701614963565b935050602084013567ffffffffffffffff811115614fa457614fa3614429565b5b614fb0868287016146d5565b92509250509250925092565b600081519050919050565b600082825260208201905092915050565b6000819050602082019050919050565b600060408301600083015184820360008601526150058282614ab5565b915050602083015161501a6020860182614afd565b508091505092915050565b60006150318383614fe8565b905092915050565b6000602082019050919050565b600061505182614fbc565b61505b8185614fc7565b93508360208202850161506d85614fd8565b8060005b858110156150a9578484038952815161508a8582615025565b945061509583615039565b925060208a01995050600181019050615071565b50829750879550505050505092915050565b600081519050919050565b600082825260208201905092915050565b6000819050602082019050919050565b6150f08161459b565b82525050565b600061510283836150e7565b60208301905092915050565b6000602082019050919050565b6000615126826150bb565b61513081856150c6565b935061513b836150d7565b8060005b8381101561516c57815161515388826150f6565b975061515e8361510e565b92505060018101905061513f565b5085935050505092915050565b615182816144b3565b82525050565b60006101208301600083015184820360008601526151a68282614ab5565b915050602083015184820360208601526151c08282614b59565b915050604083015184820360408601526151da8282614b59565b915050606083015184820360608601526151f48282614b59565b9150506080830151848203608086015261520e8282615046565b91505060a083015184820360a08601526152288282614ab5565b91505060c083015184820360c0860152615242828261511b565b91505060e083015161525760e0860182615179565b506101008301518482036101008601526152718282614b59565b9150508091505092915050565b600060208201905081810360008301526152988184615188565b905092915050565b6152a9816144b3565b81146152b457600080fd5b50565b6000813590506152c6816152a0565b92915050565b600080604083850312156152e3576152e2614424565b5b60006152f185828601614671565b9250506020615302858286016152b7565b9150509250929050565b600067ffffffffffffffff82111561532757615326614866565b5b6153308261452f565b9050602081019050919050565b600061535061534b8461530c565b6148c6565b90508281526020810184848401111561536c5761536b614861565b5b615377848285614912565b509392505050565b600082601f830112615394576153936146c6565b5b81356153a484826020860161533d565b91505092915050565b600080600080608085870312156153c7576153c6614424565b5b60006153d587828801614671565b94505060206153e687828801614671565b93505060406153f7878288016145bc565b925050606085013567ffffffffffffffff81111561541857615417614429565b5b6154248782880161537f565b91505092959194509250565b600082825260208201905092915050565b600061544c82614bce565b6154568185615430565b935061546183614bea565b8060005b838110156154925781516154798882614bfa565b975061548483614c12565b925050600181019050615465565b5085935050505092915050565b600060208201905081810360008301526154b98184615441565b905092915050565b600080604083850312156154d8576154d7614424565b5b60006154e685828601614671565b92505060206154f785828601614671565b9150509250929050565b7f4e487b7100000000000000000000000000000000000000000000000000000000600052602260045260246000fd5b6000600282049050600182168061554857607f821691505b60208210810361555b5761555a615501565b5b50919050565b7f4552433732313a20617070726f76656420717565727920666f72206e6f6e657860008201527f697374656e7420746f6b656e0000000000000000000000000000000000000000602082015250565b60006155bd602c836144f4565b91506155c882615561565b604082019050919050565b600060208201905081810360008301526155ec816155b0565b9050919050565b7f4552433732313a20617070726f76616c20746f2063757272656e74206f776e6560008201527f7200000000000000000000000000000000000000000000000000000000000000602082015250565b600061564f6021836144f4565b915061565a826155f3565b604082019050919050565b6000602082019050818103600083015261567e81615642565b9050919050565b7f4552433732313a20617070726f76652063616c6c6572206973206e6f74206f7760008201527f6e6572206e6f7220617070726f76656420666f7220616c6c0000000000000000602082015250565b60006156e16038836144f4565b91506156ec82615685565b604082019050919050565b60006020820190508181036000830152615710816156d4565b9050919050565b7f426f74206e616d652063616e6e6f7420626520656d7074792100000000000000600082015250565b600061574d6019836144f4565b915061575882615717565b602082019050919050565b6000602082019050818103600083015261577c81615740565b9050919050565b600081905092915050565b600061579a8385615783565b93506157a7838584614912565b82840190509392505050565b60006157c082848661578e565b91508190509392505050565b7f426f7420616c7265616479206578697374732100000000000000000000000000600082015250565b60006158026013836144f4565b915061580d826157cc565b602082019050919050565b60006020820190508181036000830152615831816157f5565b9050919050565b60008190508160005260206000209050919050565b60006020601f8301049050919050565b600082821b905092915050565b60006008830261589a7fffffffffffffffffffffffffffffffffffffffffffffffffffffffffffffffff8261585d565b6158a4868361585d565b95508019841693508086168417925050509392505050565b6000819050919050565b60006158e16158dc6158d78461459b565b6158bc565b61459b565b9050919050565b6000819050919050565b6158fb836158c6565b61590f615907826158e8565b84845461586a565b825550505050565b600090565b615924615917565b61592f8184846158f2565b505050565b5b818110156159535761594860008261591c565b600181019050615935565b5050565b601f8211156159985761596981615838565b6159728461584d565b81016020851015615981578190505b61599561598d8561584d565b830182615934565b50505b505050565b600082821c905092915050565b60006159bb6000198460080261599d565b1980831691505092915050565b60006159d483836159aa565b9150826002028217905092915050565b6159ed826144e9565b67ffffffffffffffff811115615a0657615a05614866565b5b615a108254615530565b615a1b828285615957565b600060209050601f831160018114615a4e5760008415615a3c578287015190505b615a4685826159c8565b865550615aae565b601f198416615a5c86615838565b60005b82811015615a8457848901518255600182019150602085019450602081019050615a5f565b86831015615aa15784890151615a9d601f8916826159aa565b8355505b6001600288020188555050505b505050505050565b600082905092915050565b615acb8383615ab6565b67ffffffffffffffff811115615ae457615ae3614866565b5b615aee8254615530565b615af9828285615957565b6000601f831160018114615b285760008415615b16578287013590505b615b2085826159c8565b865550615b88565b601f198416615b3686615838565b60005b82811015615b5e57848901358255600182019150602085019450602081019050615b39565b86831015615b7b5784890135615b77601f8916826159aa565b8355505b6001600288020188555050505b50505050505050565b6000615b9d83856144f4565b9350615baa838584614912565b615bb38361452f565b840190509392505050565b615bc78161472b565b82525050565b60006040820190508181036000830152615be8818587615b91565b9050615bf76020830184615bbe565b949350505050565b7f4e6f742072656769737465726564000000000000000000000000000000000000600082015250565b6000615c35600e836144f4565b9150615c4082615bff565b602082019050919050565b60006020820190508181036000830152615c6481615c28565b9050919050565b7f4552433732313a207472616e736665722063616c6c6572206973206e6f74206f60008201527f776e6572206e6f7220617070726f766564000000000000000000000000000000602082015250565b6000615cc76031836144f4565b9150615cd282615c6b565b604082019050919050565b60006020820190508181036000830152615cf681615cba565b9050919050565b7f436f6d6d756e69747920726f6f6d20646f6573206e6f74206578697374210000600082015250565b6000615d33601e836144f4565b9150615d3e82615cfd565b602082019050919050565b60006020820190508181036000830152615d6281615d26565b9050919050565b7f4e487b7100000000000000000000000000000000000000000000000000000000600052603260045260246000fd5b7f416c72656164792061206d656d62657221000000000000000000000000000000600082015250565b6000615dce6011836144f4565b9150615dd982615d98565b602082019050919050565b60006020820190508181036000830152615dfd81615dc1565b9050919050565b7f4e487b7100000000000000000000000000000000000000000000000000000000600052601160045260246000fd5b6000615e3e8261459b565b91507fffffffffffffffffffffffffffffffffffffffffffffffffffffffffffffffff8203615e7057615e6f615e04565b5b600182019050919050565b60006020820190508181036000830152615e96818486615b91565b90509392505050565b7f436f6d6d756e69747920646f6573206e6f742065786973742100000000000000600082015250565b6000615ed56019836144f4565b9150615ee082615e9f565b602082019050919050565b60006020820190508181036000830152615f0481615ec8565b9050919050565b7f426f7420646f6573206e6f742065786973742100000000000000000000000000600082015250565b6000615f416013836144f4565b9150615f4c82615f0b565b602082019050919050565b60006020820190508181036000830152615f7081615f34565b9050919050565b7f436f6d6d756e69747920616c7265616479206578697374732100000000000000600082015250565b6000615fad6019836144f4565b9150615fb882615f77565b602082019050919050565b60006020820190508181036000830152615fdc81615fa0565b9050919050565b6000615fee8261472b565b915061ffff820361600257616001615e04565b5b600182019050919050565b7f4552433732313a206f776e657220717565727920666f72206e6f6e657869737460008201527f656e7420746f6b656e0000000000000000000000000000000000000000000000602082015250565b60006160696029836144f4565b91506160748261600d565b604082019050919050565b600060208201905081810360008301526160988161605c565b9050919050565b7f5573657220616c72656164792072656769737465726564210000000000000000600082015250565b60006160d56018836144f4565b91506160e08261609f565b602082019050919050565b60006020820190508181036000830152616104816160c8565b9050919050565b7f4552433732313a2062616c616e636520717565727920666f7220746865207a6560008201527f726f206164647265737300000000000000000000000000000000000000000000602082015250565b6000616167602a836144f4565b91506161728261610b565b604082019050919050565b600060208201905081810360008301526161968161615a565b9050919050565b7f6e7574726974696f6e0000000000000000000000000000000000000000000000600082015250565b60006161d3600983615783565b91506161de8261619d565b600982019050919050565b60006161f4826161c6565b9150819050919050565b7f73706f7274000000000000000000000000000000000000000000000000000000600082015250565b6000616234600583615783565b915061623f826161fe565b600582019050919050565b600061625582616227565b9150819050919050565b7f496e76616c696420676f616c2074797065000000000000000000000000000000600082015250565b60006162956011836144f4565b91506162a08261625f565b602082019050919050565b600060208201905081810360008301526162c481616288565b9050919050565b600063ffffffff82169050919050565b60006162e6826162cb565b91506162f1836162cb565b92508282026162ff816162cb565b915080821461631157616310615e04565b5b5092915050565b7f496e73756666696369656e74207061796d656e74000000000000000000000000600082015250565b600061634e6014836144f4565b915061635982616318565b602082019050919050565b6000602082019050818103600083015261637d81616341565b9050919050565b7f4552433732314d657461646174613a2055524920717565727920666f72206e6f60008201527f6e6578697374656e7420746f6b656e0000000000000000000000000000000000602082015250565b60006163e0602f836144f4565b91506163eb82616384565b604082019050919050565b6000602082019050818103600083015261640f816163d3565b9050919050565b6000616421826144e9565b61642b8185615783565b935061643b818560208601614505565b80840191505092915050565b60006164538285616416565b915061645f8284616416565b91508190509392505050565b7f4552433732313a206d696e7420746f20746865207a65726f2061646472657373600082015250565b60006164a16020836144f4565b91506164ac8261646b565b602082019050919050565b600060208201905081810360008301526164d081616494565b9050919050565b7f4552433732313a20746f6b656e20616c7265616479206d696e74656400000000600082015250565b600061650d601c836144f4565b9150616518826164d7565b602082019050919050565b6000602082019050818103600083015261653c81616500565b9050919050565b600061654e8261459b565b91506165598361459b565b925082820190508082111561657157616570615e04565b5b92915050565b7f4552433732313a206f70657261746f7220717565727920666f72206e6f6e657860008201527f697374656e7420746f6b656e0000000000000000000000000000000000000000602082015250565b60006165d3602c836144f4565b91506165de82616577565b604082019050919050565b60006020820190508181036000830152616602816165c6565b9050919050565b7f4552433732313a207472616e736665722066726f6d20696e636f72726563742060008201527f6f776e6572000000000000000000000000000000000000000000000000000000602082015250565b60006166656025836144f4565b915061667082616609565b604082019050919050565b6000602082019050818103600083015261669481616658565b9050919050565b7f4552433732313a207472616e7366657220746f20746865207a65726f2061646460008201527f7265737300000000000000000000000000000000000000000000000000000000602082015250565b60006166f76024836144f4565b91506167028261669b565b604082019050919050565b60006020820190508181036000830152616726816166ea565b9050919050565b60006167388261459b565b91506167438361459b565b925082820390508181111561675b5761675a615e04565b5b92915050565b7f4552433732313a20617070726f766520746f2063616c6c657200000000000000600082015250565b60006167976019836144f4565b91506167a282616761565b602082019050919050565b600060208201905081810360008301526167c68161678a565b9050919050565b7f4552433732313a207472616e7366657220746f206e6f6e20455243373231526560008201527f63656976657220696d706c656d656e7465720000000000000000000000000000602082015250565b60006168296032836144f4565b9150616834826167cd565b604082019050919050565b600060208201905081810360008301526168588161681c565b9050919050565b7f4e487b7100000000000000000000000000000000000000000000000000000000600052601260045260246000fd5b60006168998261459b565b91506168a48361459b565b9250826168b4576168b361685f565b5b828204905092915050565b60006168ca8261459b565b91506168d58361459b565b9250826168e5576168e461685f565b5b828206905092915050565b600081519050919050565b600082825260208201905092915050565b6000616917826168f0565b61692181856168fb565b9350616931818560208601614505565b61693a8161452f565b840191505092915050565b600060808201905061695a6000830187614630565b6169676020830186614630565b61697460408301856149da565b8181036060830152616986818461690c565b905095945050505050565b6000815190506169a08161445a565b92915050565b6000602082840312156169bc576169bb614424565b5b60006169ca84828501616991565b9150509291505056fea26469706673582212204e6033eae37268b847bb03e22e5c6613ced0d9a202991d7a1dbc9030df0c7b7764736f6c63430008140033",
  "linkReferences": {},
  "deployedLinkReferences": {}
}