{
  "_format": "hh-sol-artifact-1",
  "contractName": "Athl3te",
  "sourceName": "contracts/Athl3te.sol",
  "abi": [
    {
      "inputs": [
        {
          "internalType": "string",
          "name": "_activityId",
          "type": "string"
        }
      ],
      "name": "addActivity",
      "outputs": [],
      "stateMutability": "nonpayable",
      "type": "function"
    },
    {
      "inputs": [
        {
          "internalType": "string",
          "name": "_goalId",
          "type": "string"
        }
      ],
      "name": "addNutritionGoal",
      "outputs": [],
      "stateMutability": "nonpayable",
      "type": "function"
    },
    {
      "inputs": [
        {
          "internalType": "string",
          "name": "_goalId",
          "type": "string"
        }
      ],
      "name": "addSportGoal",
      "outputs": [],
      "stateMutability": "nonpayable",
      "type": "function"
    },
    {
      "inputs": [
        {
          "internalType": "string",
          "name": "_botName",
          "type": "string"
        }
      ],
      "name": "buyBot",
      "outputs": [],
      "stateMutability": "payable",
      "type": "function"
    },
    {
      "inputs": [
        {
          "internalType": "string",
          "name": "_botName",
          "type": "string"
        },
        {
          "internalType": "string",
          "name": "_botImage",
          "type": "string"
        },
        {
          "internalType": "string",
          "name": "_systemPrompt",
          "type": "string"
        },
        {
          "internalType": "string",
          "name": "_botDescription",
          "type": "string"
        },
        {
          "internalType": "string",
          "name": "_deploymentURL",
          "type": "string"
        },
        {
          "internalType": "uint256",
          "name": "_unlockCostInGWei",
          "type": "uint256"
        }
      ],
      "name": "createBot",
      "outputs": [],
      "stateMutability": "nonpayable",
      "type": "function"
    },
    {
      "inputs": [
        {
          "internalType": "string",
          "name": "_communityName",
          "type": "string"
        },
        {
          "internalType": "string",
          "name": "_communityImage",
          "type": "string"
        },
        {
          "internalType": "string",
          "name": "_botName",
          "type": "string"
        }
      ],
      "name": "createCommunityRoom",
      "outputs": [],
      "stateMutability": "nonpayable",
      "type": "function"
    },
    {
      "inputs": [
        {
          "internalType": "string",
          "name": "_communityName",
          "type": "string"
        }
      ],
      "name": "getCommunityCreator",
      "outputs": [
        {
          "internalType": "address",
          "name": "",
          "type": "address"
        }
      ],
      "stateMutability": "view",
      "type": "function"
    },
    {
      "inputs": [
        {
          "internalType": "string",
          "name": "_communityName",
          "type": "string"
        }
      ],
      "name": "getCommunityMembers",
      "outputs": [
        {
          "internalType": "address[]",
          "name": "",
          "type": "address[]"
        }
      ],
      "stateMutability": "view",
      "type": "function"
    },
    {
      "inputs": [
        {
          "internalType": "string",
          "name": "_communityName",
          "type": "string"
        }
      ],
      "name": "getCommunityRoomDetails",
      "outputs": [
        {
          "internalType": "string",
          "name": "communityName",
          "type": "string"
        },
        {
          "internalType": "string",
          "name": "communityImage",
          "type": "string"
        },
        {
          "components": [
            {
              "internalType": "string",
              "name": "botName",
              "type": "string"
            },
            {
              "internalType": "string",
              "name": "botImage",
              "type": "string"
            },
            {
              "internalType": "string",
              "name": "systemPrompt",
              "type": "string"
            },
            {
              "internalType": "string",
              "name": "botDescription",
              "type": "string"
            },
            {
              "internalType": "string",
              "name": "deploymentURL",
              "type": "string"
            },
            {
              "internalType": "uint256",
              "name": "unlockCostInGWei",
              "type": "uint256"
            }
          ],
          "internalType": "struct Athl3te.Bot",
          "name": "bot",
          "type": "tuple"
        },
        {
          "internalType": "address",
          "name": "createdBy",
          "type": "address"
        },
        {
          "internalType": "string",
          "name": "messagesId",
          "type": "string"
        }
      ],
      "stateMutability": "view",
      "type": "function"
    },
    {
      "inputs": [],
      "name": "getDeployedCommunityRooms",
      "outputs": [
        {
          "components": [
            {
              "internalType": "string",
              "name": "communityName",
              "type": "string"
            },
            {
              "internalType": "string",
              "name": "communityImage",
              "type": "string"
            },
            {
              "components": [
                {
                  "internalType": "string",
                  "name": "botName",
                  "type": "string"
                },
                {
                  "internalType": "string",
                  "name": "botImage",
                  "type": "string"
                },
                {
                  "internalType": "string",
                  "name": "systemPrompt",
                  "type": "string"
                },
                {
                  "internalType": "string",
                  "name": "botDescription",
                  "type": "string"
                },
                {
                  "internalType": "string",
                  "name": "deploymentURL",
                  "type": "string"
                },
                {
                  "internalType": "uint256",
                  "name": "unlockCostInGWei",
                  "type": "uint256"
                }
              ],
              "internalType": "struct Athl3te.Bot",
              "name": "bot",
              "type": "tuple"
            },
            {
              "internalType": "address",
              "name": "createdBy",
              "type": "address"
            },
            {
              "internalType": "string",
              "name": "messagesId",
              "type": "string"
            },
            {
              "internalType": "string[]",
              "name": "communitySportGoalIds",
              "type": "string[]"
            },
            {
              "internalType": "address[]",
              "name": "members",
              "type": "address[]"
            }
          ],
          "internalType": "struct Athl3te.CommunityRoom[]",
          "name": "",
          "type": "tuple[]"
        }
      ],
      "stateMutability": "view",
      "type": "function"
    },
    {
      "inputs": [],
      "name": "getInjuryDescription",
      "outputs": [
        {
          "internalType": "string",
          "name": "",
          "type": "string"
        }
      ],
      "stateMutability": "view",
      "type": "function"
    },
    {
      "inputs": [],
      "name": "getUserActivities",
      "outputs": [
        {
          "internalType": "string[]",
          "name": "",
          "type": "string[]"
        }
      ],
      "stateMutability": "view",
      "type": "function"
    },
    {
      "inputs": [],
      "name": "getUserCommunities",
      "outputs": [
        {
          "internalType": "string[]",
          "name": "",
          "type": "string[]"
        }
      ],
      "stateMutability": "view",
      "type": "function"
    },
    {
      "inputs": [],
      "name": "getUserDetails",
      "outputs": [
        {
          "internalType": "string",
          "name": "metadata",
          "type": "string"
        },
        {
          "internalType": "string[]",
          "name": "activityIds",
          "type": "string[]"
        },
        {
          "internalType": "string[]",
          "name": "sportGoalIds",
          "type": "string[]"
        },
        {
          "internalType": "string[]",
          "name": "nutritionGoalIds",
          "type": "string[]"
        },
        {
          "internalType": "string",
          "name": "injuriesDescriptionId",
          "type": "string"
        },
        {
          "internalType": "uint256",
          "name": "nftCount",
          "type": "uint256"
        },
        {
          "internalType": "uint256",
          "name": "assistantCount",
          "type": "uint256"
        }
      ],
      "stateMutability": "view",
      "type": "function"
    },
    {
      "inputs": [],
      "name": "getUserMetadata",
      "outputs": [
        {
          "internalType": "string",
          "name": "",
          "type": "string"
        }
      ],
      "stateMutability": "view",
      "type": "function"
    },
    {
      "inputs": [],
      "name": "getUserNfts",
      "outputs": [
        {
          "components": [
            {
              "internalType": "string",
              "name": "nftName",
              "type": "string"
            },
            {
              "internalType": "string",
              "name": "nftImage",
              "type": "string"
            },
            {
              "internalType": "string",
              "name": "description",
              "type": "string"
            }
          ],
          "internalType": "struct Athl3te.nft[]",
          "name": "",
          "type": "tuple[]"
        }
      ],
      "stateMutability": "view",
      "type": "function"
    },
    {
      "inputs": [],
      "name": "getUserNutritionGoals",
      "outputs": [
        {
          "internalType": "string[]",
          "name": "",
          "type": "string[]"
        }
      ],
      "stateMutability": "view",
      "type": "function"
    },
    {
      "inputs": [],
      "name": "getUserSportGoals",
      "outputs": [
        {
          "internalType": "string[]",
          "name": "",
          "type": "string[]"
        }
      ],
      "stateMutability": "view",
      "type": "function"
    },
    {
      "inputs": [
        {
          "internalType": "string",
          "name": "_communityName",
          "type": "string"
        }
      ],
      "name": "joinCommunityRoom",
      "outputs": [],
      "stateMutability": "nonpayable",
      "type": "function"
    },
    {
      "inputs": [
        {
          "internalType": "string",
          "name": "_metadata",
          "type": "string"
        }
      ],
      "name": "registerUser",
      "outputs": [],
      "stateMutability": "nonpayable",
      "type": "function"
    },
    {
      "inputs": [
        {
          "internalType": "string",
          "name": "_injuryId",
          "type": "string"
        }
      ],
      "name": "updateInjury",
      "outputs": [],
      "stateMutability": "nonpayable",
      "type": "function"
    }
  ],
  "bytecode": "0x608060405234801561001057600080fd5b50615bb180620000216000396000f3fe60806040526004361061012a5760003560e01c8063704f1b94116100ab578063b841e45a1161006f578063b841e45a146103d4578063b84f14b7146103fd578063cf926bba14610419578063e7d9884014610444578063e9f36ff414610481578063fe71cd77146104ac5761012a565b8063704f1b94146102fb57806375ad640414610324578063840a2ab81461034f578063903d36261461037a578063942886be146103a35761012a565b806343dfc73c116100f257806343dfc73c146102145780635259aaa81461023d57806354d9ea15146102685780635685d066146102a9578063610693e7146102d25761012a565b80630bf84be71461012f57806317be9e991461015a5780631dd20a8b1461019757806328209a4f146101c05780633fccb4a5146101eb575b600080fd5b34801561013b57600080fd5b506101446104d7565b60405161015191906142eb565b60405180910390f35b34801561016657600080fd5b50610181600480360381019061017c9190614456565b61067d565b60405161018e91906144e0565b60405180910390f35b3480156101a357600080fd5b506101be60048036038101906101b991906144fb565b610720565b005b3480156101cc57600080fd5b506101d5610cae565b6040516101e291906145ec565b60405180910390f35b3480156101f757600080fd5b50610212600480360381019061020d9190614456565b610e0d565b005b34801561022057600080fd5b5061023b60048036038101906102369190614456565b610f56565b005b34801561024957600080fd5b5061025261120a565b60405161025f9190614991565b60405180910390f35b34801561027457600080fd5b5061028f600480360381019061028a9190614456565b6118d4565b6040516102a0959493929190614a58565b60405180910390f35b3480156102b557600080fd5b506102d060048036038101906102cb9190614af3565b611e37565b005b3480156102de57600080fd5b506102f960048036038101906102f49190614456565b6120fd565b005b34801561030757600080fd5b50610322600480360381019061031d9190614456565b612221565b005b34801561033057600080fd5b506103396125ce565b60405161034691906142eb565b60405180910390f35b34801561035b57600080fd5b50610364612774565b6040516103719190614d2c565b60405180910390f35b34801561038657600080fd5b506103a1600480360381019061039c9190614456565b612a56565b005b3480156103af57600080fd5b506103b8612b9f565b6040516103cb9796959493929190614d5d565b60405180910390f35b3480156103e057600080fd5b506103fb60048036038101906103f69190614456565b613047565b005b61041760048036038101906104129190614456565b613190565b005b34801561042557600080fd5b5061042e61374f565b60405161043b91906142eb565b60405180910390f35b34801561045057600080fd5b5061046b60048036038101906104669190614456565b6138f5565b6040516104789190614e5e565b60405180910390f35b34801561048d57600080fd5b506104966139fd565b6040516104a391906142eb565b60405180910390f35b3480156104b857600080fd5b506104c1613ba3565b6040516104ce91906145ec565b60405180910390f35b60606000803373ffffffffffffffffffffffffffffffffffffffff1673ffffffffffffffffffffffffffffffffffffffff16815260200190815260200160002060070160009054906101000a900460ff16610567576040517f08c379a000000000000000000000000000000000000000000000000000000000815260040161055e90614ecc565b60405180910390fd5b6000803373ffffffffffffffffffffffffffffffffffffffff1673ffffffffffffffffffffffffffffffffffffffff168152602001908152602001600020600201805480602002602001604051908101604052809291908181526020016000905b828210156106745783829060005260206000200180546105e790614f1b565b80601f016020809104026020016040519081016040528092919081815260200182805461061390614f1b565b80156106605780601f1061063557610100808354040283529160200191610660565b820191906000526020600020905b81548152906001019060200180831161064357829003601f168201915b5050505050815260200190600101906105c8565b50505050905090565b6000806002836040516106909190614f88565b9081526020016040518091039020905060008160000180546106b190614f1b565b9050116106f3576040517f08c379a00000000000000000000000000000000000000000000000000000000081526004016106ea90614feb565b60405180910390fd5b8060080160009054906101000a900473ffffffffffffffffffffffffffffffffffffffff16915050919050565b6000835111610764576040517f08c379a000000000000000000000000000000000000000000000000000000000815260040161075b90615057565b60405180910390fd5b60008251116107a8576040517f08c379a000000000000000000000000000000000000000000000000000000000815260040161079f906150c3565b60405180910390fd5b60008151116107ec576040517f08c379a00000000000000000000000000000000000000000000000000000000081526004016107e39061512f565b60405180910390fd5b60006001826040516107fe9190614f88565b90815260200160405180910390209050600081600001805461081f90614f1b565b905011610861576040517f08c379a00000000000000000000000000000000000000000000000000000000081526004016108589061519b565b60405180910390fd5b60006002856040516108739190614f88565b90815260200160405180910390209050848160000190816108949190615367565b50838160010190816108a69190615367565b508181600201600082018160000190816108c0919061544f565b50600182018160010190816108d5919061544f565b50600282018160020190816108ea919061544f565b50600382018160030190816108ff919061544f565b5060048201816004019081610914919061544f565b5060058201548160050155905050338160080160006101000a81548173ffffffffffffffffffffffffffffffffffffffff021916908373ffffffffffffffffffffffffffffffffffffffff160217905550604051806020016040528060008152508160090190816109859190615367565b50600067ffffffffffffffff8111156109a1576109a061432b565b5b6040519080825280602002602001820160405280156109cf5781602001602082028036833780820191505090505b5081600b0190805190602001906109e7929190613d02565b50600067ffffffffffffffff811115610a0357610a0261432b565b5b604051908082528060200260200182016040528015610a3657816020015b6060815260200190600190039081610a215790505b5081600a019080519060200190610a4e929190613d8c565b5080600b01339080600181540180825580915050600190039060005260206000200160009091909190916101000a81548173ffffffffffffffffffffffffffffffffffffffff021916908373ffffffffffffffffffffffffffffffffffffffff1602179055506000803373ffffffffffffffffffffffffffffffffffffffff1673ffffffffffffffffffffffffffffffffffffffff16815260200190815260200160002060080185908060018154018082558091505060019003906000526020600020016000909190919091509081610b279190615367565b5060058190806001815401808255809150506001900390600052602060002090600c020160009091909190915060008201816000019081610b68919061544f565b5060018201816001019081610b7d919061544f565b50600282018160020160008201816000019081610b9a919061544f565b5060018201816001019081610baf919061544f565b5060028201816002019081610bc4919061544f565b5060038201816003019081610bd9919061544f565b5060048201816004019081610bee919061544f565b506005820154816005015550506008820160009054906101000a900473ffffffffffffffffffffffffffffffffffffffff168160080160006101000a81548173ffffffffffffffffffffffffffffffffffffffff021916908373ffffffffffffffffffffffffffffffffffffffff16021790555060098201816009019081610c76919061544f565b50600a820181600a01908054610c8d929190613de5565b50600b820181600b01908054610ca4929190613e42565b5050505050505050565b60606000803373ffffffffffffffffffffffffffffffffffffffff1673ffffffffffffffffffffffffffffffffffffffff16815260200190815260200160002060070160009054906101000a900460ff16610d3e576040517f08c379a0000000000000000000000000000000000000000000000000000000008152600401610d3590614ecc565b60405180910390fd5b6000803373ffffffffffffffffffffffffffffffffffffffff1673ffffffffffffffffffffffffffffffffffffffff1681526020019081526020016000206005018054610d8a90614f1b565b80601f0160208091040260200160405190810160405280929190818152602001828054610db690614f1b565b8015610e035780601f10610dd857610100808354040283529160200191610e03565b820191906000526020600020905b815481529060010190602001808311610de657829003601f168201915b5050505050905090565b6000803373ffffffffffffffffffffffffffffffffffffffff1673ffffffffffffffffffffffffffffffffffffffff16815260200190815260200160002060070160009054906101000a900460ff16610e9b576040517f08c379a0000000000000000000000000000000000000000000000000000000008152600401610e9290614ecc565b60405180910390fd5b6000815111610edf576040517f08c379a0000000000000000000000000000000000000000000000000000000008152600401610ed690615583565b60405180910390fd5b6000803373ffffffffffffffffffffffffffffffffffffffff1673ffffffffffffffffffffffffffffffffffffffff16815260200190815260200160002060020181908060018154018082558091505060019003906000526020600020016000909190919091509081610f529190615367565b5050565b6000803373ffffffffffffffffffffffffffffffffffffffff1673ffffffffffffffffffffffffffffffffffffffff16815260200190815260200160002060070160009054906101000a900460ff16610fe4576040517f08c379a0000000000000000000000000000000000000000000000000000000008152600401610fdb90614ecc565b60405180910390fd5b6000600282604051610ff69190614f88565b90815260200160405180910390209050600081600001805461101790614f1b565b905011611059576040517f08c379a000000000000000000000000000000000000000000000000000000000815260040161105090614feb565b60405180910390fd5b60005b81600b018054905081101561112c573373ffffffffffffffffffffffffffffffffffffffff1682600b018281548110611098576110976155a3565b5b9060005260206000200160009054906101000a900473ffffffffffffffffffffffffffffffffffffffff1673ffffffffffffffffffffffffffffffffffffffff1603611119576040517f08c379a000000000000000000000000000000000000000000000000000000000815260040161111090615644565b60405180910390fd5b808061112490615693565b91505061105c565b5080600b01339080600181540180825580915050600190039060005260206000200160009091909190916101000a81548173ffffffffffffffffffffffffffffffffffffffff021916908373ffffffffffffffffffffffffffffffffffffffff1602179055506000803373ffffffffffffffffffffffffffffffffffffffff1673ffffffffffffffffffffffffffffffffffffffff168152602001908152602001600020600801829080600181540180825580915050600190039060005260206000200160009091909190915090816112059190615367565b505050565b60606005805480602002602001604051908101604052809291908181526020016000905b828210156118cb57838290600052602060002090600c02016040518060e001604052908160008201805461126190614f1b565b80601f016020809104026020016040519081016040528092919081815260200182805461128d90614f1b565b80156112da5780601f106112af576101008083540402835291602001916112da565b820191906000526020600020905b8154815290600101906020018083116112bd57829003601f168201915b505050505081526020016001820180546112f390614f1b565b80601f016020809104026020016040519081016040528092919081815260200182805461131f90614f1b565b801561136c5780601f106113415761010080835404028352916020019161136c565b820191906000526020600020905b81548152906001019060200180831161134f57829003601f168201915b50505050508152602001600282016040518060c001604052908160008201805461139590614f1b565b80601f01602080910402602001604051908101604052809291908181526020018280546113c190614f1b565b801561140e5780601f106113e35761010080835404028352916020019161140e565b820191906000526020600020905b8154815290600101906020018083116113f157829003601f168201915b5050505050815260200160018201805461142790614f1b565b80601f016020809104026020016040519081016040528092919081815260200182805461145390614f1b565b80156114a05780601f10611475576101008083540402835291602001916114a0565b820191906000526020600020905b81548152906001019060200180831161148357829003601f168201915b505050505081526020016002820180546114b990614f1b565b80601f01602080910402602001604051908101604052809291908181526020018280546114e590614f1b565b80156115325780601f1061150757610100808354040283529160200191611532565b820191906000526020600020905b81548152906001019060200180831161151557829003601f168201915b5050505050815260200160038201805461154b90614f1b565b80601f016020809104026020016040519081016040528092919081815260200182805461157790614f1b565b80156115c45780601f10611599576101008083540402835291602001916115c4565b820191906000526020600020905b8154815290600101906020018083116115a757829003601f168201915b505050505081526020016004820180546115dd90614f1b565b80601f016020809104026020016040519081016040528092919081815260200182805461160990614f1b565b80156116565780601f1061162b57610100808354040283529160200191611656565b820191906000526020600020905b81548152906001019060200180831161163957829003601f168201915b5050505050815260200160058201548152505081526020016008820160009054906101000a900473ffffffffffffffffffffffffffffffffffffffff1673ffffffffffffffffffffffffffffffffffffffff1673ffffffffffffffffffffffffffffffffffffffff1681526020016009820180546116d390614f1b565b80601f01602080910402602001604051908101604052809291908181526020018280546116ff90614f1b565b801561174c5780601f106117215761010080835404028352916020019161174c565b820191906000526020600020905b81548152906001019060200180831161172f57829003601f168201915b50505050508152602001600a8201805480602002602001604051908101604052809291908181526020016000905b8282101561182657838290600052602060002001805461179990614f1b565b80601f01602080910402602001604051908101604052809291908181526020018280546117c590614f1b565b80156118125780601f106117e757610100808354040283529160200191611812565b820191906000526020600020905b8154815290600101906020018083116117f557829003601f168201915b50505050508152602001906001019061177a565b505050508152602001600b82018054806020026020016040519081016040528092919081815260200182805480156118b357602002820191906000526020600020905b8160009054906101000a900473ffffffffffffffffffffffffffffffffffffffff1673ffffffffffffffffffffffffffffffffffffffff1681526020019060010190808311611869575b5050505050815250508152602001906001019061122e565b50505050905090565b6060806118df613e94565b6000606060006002876040516118f59190614f88565b90815260200160405180910390209050600081600001805461191690614f1b565b905011611958576040517f08c379a000000000000000000000000000000000000000000000000000000000815260040161194f90614feb565b60405180910390fd5b8060000181600101826002018360080160009054906101000a900473ffffffffffffffffffffffffffffffffffffffff168460090184805461199990614f1b565b80601f01602080910402602001604051908101604052809291908181526020018280546119c590614f1b565b8015611a125780601f106119e757610100808354040283529160200191611a12565b820191906000526020600020905b8154815290600101906020018083116119f557829003601f168201915b50505050509450838054611a2590614f1b565b80601f0160208091040260200160405190810160405280929190818152602001828054611a5190614f1b565b8015611a9e5780601f10611a7357610100808354040283529160200191611a9e565b820191906000526020600020905b815481529060010190602001808311611a8157829003601f168201915b50505050509350826040518060c0016040529081600082018054611ac190614f1b565b80601f0160208091040260200160405190810160405280929190818152602001828054611aed90614f1b565b8015611b3a5780601f10611b0f57610100808354040283529160200191611b3a565b820191906000526020600020905b815481529060010190602001808311611b1d57829003601f168201915b50505050508152602001600182018054611b5390614f1b565b80601f0160208091040260200160405190810160405280929190818152602001828054611b7f90614f1b565b8015611bcc5780601f10611ba157610100808354040283529160200191611bcc565b820191906000526020600020905b815481529060010190602001808311611baf57829003601f168201915b50505050508152602001600282018054611be590614f1b565b80601f0160208091040260200160405190810160405280929190818152602001828054611c1190614f1b565b8015611c5e5780601f10611c3357610100808354040283529160200191611c5e565b820191906000526020600020905b815481529060010190602001808311611c4157829003601f168201915b50505050508152602001600382018054611c7790614f1b565b80601f0160208091040260200160405190810160405280929190818152602001828054611ca390614f1b565b8015611cf05780601f10611cc557610100808354040283529160200191611cf0565b820191906000526020600020905b815481529060010190602001808311611cd357829003601f168201915b50505050508152602001600482018054611d0990614f1b565b80601f0160208091040260200160405190810160405280929190818152602001828054611d3590614f1b565b8015611d825780601f10611d5757610100808354040283529160200191611d82565b820191906000526020600020905b815481529060010190602001808311611d6557829003601f168201915b505050505081526020016005820154815250509250808054611da390614f1b565b80601f0160208091040260200160405190810160405280929190818152602001828054611dcf90614f1b565b8015611e1c5780601f10611df157610100808354040283529160200191611e1c565b820191906000526020600020905b815481529060010190602001808311611dff57829003601f168201915b50505050509050955095509550955095505091939590929450565b6000865111611e7b576040517f08c379a0000000000000000000000000000000000000000000000000000000008152600401611e729061512f565b60405180910390fd5b6000855111611ebf576040517f08c379a0000000000000000000000000000000000000000000000000000000008152600401611eb690615727565b60405180910390fd5b6000845111611f03576040517f08c379a0000000000000000000000000000000000000000000000000000000008152600401611efa90615793565b60405180910390fd5b6000835111611f47576040517f08c379a0000000000000000000000000000000000000000000000000000000008152600401611f3e906157ff565b60405180910390fd5b6000825111611f8b576040517f08c379a0000000000000000000000000000000000000000000000000000000008152600401611f829061586b565b60405180910390fd5b60008111611fce576040517f08c379a0000000000000000000000000000000000000000000000000000000008152600401611fc5906158fd565b60405180910390fd5b6000600187604051611fe09190614f88565b90815260200160405180910390209050868160000190816120019190615367565b50858160010190816120139190615367565b50848160020190816120259190615367565b50838160030190816120379190615367565b50828160040190816120499190615367565b50818160050181905550600481908060018154018082558091505060019003906000526020600020906006020160009091909190915060008201816000019081612093919061544f565b50600182018160010190816120a8919061544f565b50600282018160020190816120bd919061544f565b50600382018160030190816120d2919061544f565b50600482018160040190816120e7919061544f565b5060058201548160050155505050505050505050565b6000803373ffffffffffffffffffffffffffffffffffffffff1673ffffffffffffffffffffffffffffffffffffffff16815260200190815260200160002060070160009054906101000a900460ff1661218b576040517f08c379a000000000000000000000000000000000000000000000000000000000815260040161218290614ecc565b60405180910390fd5b60008151116121cf576040517f08c379a00000000000000000000000000000000000000000000000000000000081526004016121c690615969565b60405180910390fd5b806000803373ffffffffffffffffffffffffffffffffffffffff1673ffffffffffffffffffffffffffffffffffffffff168152602001908152602001600020600501908161221d9190615367565b5050565b6000803373ffffffffffffffffffffffffffffffffffffffff1673ffffffffffffffffffffffffffffffffffffffff16815260200190815260200160002060070160009054906101000a900460ff16156122b0576040517f08c379a00000000000000000000000000000000000000000000000000000000081526004016122a7906159d5565b60405180910390fd5b60008151116122f4576040517f08c379a00000000000000000000000000000000000000000000000000000000081526004016122eb90615a41565b60405180910390fd5b60008060003373ffffffffffffffffffffffffffffffffffffffff1673ffffffffffffffffffffffffffffffffffffffff168152602001908152602001600020905060018160070160006101000a81548160ff021916908315150217905550818160000190816123649190615367565b50600067ffffffffffffffff8111156123805761237f61432b565b5b6040519080825280602002602001820160405280156123b357816020015b606081526020019060019003908161239e5790505b508160010190805190602001906123cb929190613d8c565b50600067ffffffffffffffff8111156123e7576123e661432b565b5b60405190808252806020026020018201604052801561241a57816020015b60608152602001906001900390816124055790505b50816002019080519060200190612432929190613d8c565b50600067ffffffffffffffff81111561244e5761244d61432b565b5b60405190808252806020026020018201604052801561248157816020015b606081526020019060019003908161246c5790505b50816003019080519060200190612499929190613d8c565b50604051806020016040528060008152508160050190816124ba9190615367565b506003819080600181540180825580915050600190039060005260206000209060090201600090919091909150600082018160000190816124fb919061544f565b506001820181600101908054612512929190613de5565b506002820181600201908054612529929190613de5565b506003820181600301908054612540929190613de5565b506004820181600401908054612557929190613eca565b506005820181600501908161256c919061544f565b506006820181600601908054612583929190613fb4565b506007820160009054906101000a900460ff168160070160006101000a81548160ff02191690831515021790555060088201816008019080546125c7929190613de5565b5050505050565b60606000803373ffffffffffffffffffffffffffffffffffffffff1673ffffffffffffffffffffffffffffffffffffffff16815260200190815260200160002060070160009054906101000a900460ff1661265e576040517f08c379a000000000000000000000000000000000000000000000000000000000815260040161265590614ecc565b60405180910390fd5b6000803373ffffffffffffffffffffffffffffffffffffffff1673ffffffffffffffffffffffffffffffffffffffff168152602001908152602001600020600801805480602002602001604051908101604052809291908181526020016000905b8282101561276b5783829060005260206000200180546126de90614f1b565b80601f016020809104026020016040519081016040528092919081815260200182805461270a90614f1b565b80156127575780601f1061272c57610100808354040283529160200191612757565b820191906000526020600020905b81548152906001019060200180831161273a57829003601f168201915b5050505050815260200190600101906126bf565b50505050905090565b60606000803373ffffffffffffffffffffffffffffffffffffffff1673ffffffffffffffffffffffffffffffffffffffff16815260200190815260200160002060070160009054906101000a900460ff16612804576040517f08c379a00000000000000000000000000000000000000000000000000000000081526004016127fb90614ecc565b60405180910390fd5b6000803373ffffffffffffffffffffffffffffffffffffffff1673ffffffffffffffffffffffffffffffffffffffff168152602001908152602001600020600601805480602002602001604051908101604052809291908181526020016000905b82821015612a4d578382906000526020600020906003020160405180606001604052908160008201805461289890614f1b565b80601f01602080910402602001604051908101604052809291908181526020018280546128c490614f1b565b80156129115780601f106128e657610100808354040283529160200191612911565b820191906000526020600020905b8154815290600101906020018083116128f457829003601f168201915b5050505050815260200160018201805461292a90614f1b565b80601f016020809104026020016040519081016040528092919081815260200182805461295690614f1b565b80156129a35780601f10612978576101008083540402835291602001916129a3565b820191906000526020600020905b81548152906001019060200180831161298657829003601f168201915b505050505081526020016002820180546129bc90614f1b565b80601f01602080910402602001604051908101604052809291908181526020018280546129e890614f1b565b8015612a355780601f10612a0a57610100808354040283529160200191612a35565b820191906000526020600020905b815481529060010190602001808311612a1857829003601f168201915b50505050508152505081526020019060010190612865565b50505050905090565b6000803373ffffffffffffffffffffffffffffffffffffffff1673ffffffffffffffffffffffffffffffffffffffff16815260200190815260200160002060070160009054906101000a900460ff16612ae4576040517f08c379a0000000000000000000000000000000000000000000000000000000008152600401612adb90614ecc565b60405180910390fd5b6000815111612b28576040517f08c379a0000000000000000000000000000000000000000000000000000000008152600401612b1f90615583565b60405180910390fd5b6000803373ffffffffffffffffffffffffffffffffffffffff1673ffffffffffffffffffffffffffffffffffffffff16815260200190815260200160002060030181908060018154018082558091505060019003906000526020600020016000909190919091509081612b9b9190615367565b5050565b60608060608060606000806000803373ffffffffffffffffffffffffffffffffffffffff1673ffffffffffffffffffffffffffffffffffffffff16815260200190815260200160002060070160009054906101000a900460ff16612c38576040517f08c379a0000000000000000000000000000000000000000000000000000000008152600401612c2f90614ecc565b60405180910390fd5b60008060003373ffffffffffffffffffffffffffffffffffffffff1673ffffffffffffffffffffffffffffffffffffffff1681526020019081526020016000209050806000018160010182600201836003018460050185600601805490508660040180549050868054612caa90614f1b565b80601f0160208091040260200160405190810160405280929190818152602001828054612cd690614f1b565b8015612d235780601f10612cf857610100808354040283529160200191612d23565b820191906000526020600020905b815481529060010190602001808311612d0657829003601f168201915b5050505050965085805480602002602001604051908101604052809291908181526020016000905b82821015612df7578382906000526020600020018054612d6a90614f1b565b80601f0160208091040260200160405190810160405280929190818152602001828054612d9690614f1b565b8015612de35780601f10612db857610100808354040283529160200191612de3565b820191906000526020600020905b815481529060010190602001808311612dc657829003601f168201915b505050505081526020019060010190612d4b565b50505050955084805480602002602001604051908101604052809291908181526020016000905b82821015612eca578382906000526020600020018054612e3d90614f1b565b80601f0160208091040260200160405190810160405280929190818152602001828054612e6990614f1b565b8015612eb65780601f10612e8b57610100808354040283529160200191612eb6565b820191906000526020600020905b815481529060010190602001808311612e9957829003601f168201915b505050505081526020019060010190612e1e565b50505050945083805480602002602001604051908101604052809291908181526020016000905b82821015612f9d578382906000526020600020018054612f1090614f1b565b80601f0160208091040260200160405190810160405280929190818152602001828054612f3c90614f1b565b8015612f895780601f10612f5e57610100808354040283529160200191612f89565b820191906000526020600020905b815481529060010190602001808311612f6c57829003601f168201915b505050505081526020019060010190612ef1565b505050509350828054612faf90614f1b565b80601f0160208091040260200160405190810160405280929190818152602001828054612fdb90614f1b565b80156130285780601f10612ffd57610100808354040283529160200191613028565b820191906000526020600020905b81548152906001019060200180831161300b57829003601f168201915b5050505050925097509750975097509750975097505090919293949596565b6000803373ffffffffffffffffffffffffffffffffffffffff1673ffffffffffffffffffffffffffffffffffffffff16815260200190815260200160002060070160009054906101000a900460ff166130d5576040517f08c379a00000000000000000000000000000000000000000000000000000000081526004016130cc90614ecc565b60405180910390fd5b6000815111613119576040517f08c379a000000000000000000000000000000000000000000000000000000000815260040161311090615aad565b60405180910390fd5b6000803373ffffffffffffffffffffffffffffffffffffffff1673ffffffffffffffffffffffffffffffffffffffff1681526020019081526020016000206001018190806001815401808255809150506001900390600052602060002001600090919091909150908161318c9190615367565b5050565b6000803373ffffffffffffffffffffffffffffffffffffffff1673ffffffffffffffffffffffffffffffffffffffff16815260200190815260200160002060070160009054906101000a900460ff1661321e576040517f08c379a000000000000000000000000000000000000000000000000000000000815260040161321590614ecc565b60405180910390fd5b6000815111613262576040517f08c379a00000000000000000000000000000000000000000000000000000000081526004016132599061512f565b60405180910390fd5b60006001826040516132749190614f88565b90815260200160405180910390209050600081600001805461329590614f1b565b9050116132d7576040517f08c379a00000000000000000000000000000000000000000000000000000000081526004016132ce9061519b565b60405180910390fd5b633b9aca0081600501546132eb9190615acd565b34101561332d576040517f08c379a000000000000000000000000000000000000000000000000000000000815260040161332490615b5b565b60405180910390fd5b60006040518060400160405280836040518060c001604052908160008201805461335690614f1b565b80601f016020809104026020016040519081016040528092919081815260200182805461338290614f1b565b80156133cf5780601f106133a4576101008083540402835291602001916133cf565b820191906000526020600020905b8154815290600101906020018083116133b257829003601f168201915b505050505081526020016001820180546133e890614f1b565b80601f016020809104026020016040519081016040528092919081815260200182805461341490614f1b565b80156134615780601f1061343657610100808354040283529160200191613461565b820191906000526020600020905b81548152906001019060200180831161344457829003601f168201915b5050505050815260200160028201805461347a90614f1b565b80601f01602080910402602001604051908101604052809291908181526020018280546134a690614f1b565b80156134f35780601f106134c8576101008083540402835291602001916134f3565b820191906000526020600020905b8154815290600101906020018083116134d657829003601f168201915b5050505050815260200160038201805461350c90614f1b565b80601f016020809104026020016040519081016040528092919081815260200182805461353890614f1b565b80156135855780601f1061355a57610100808354040283529160200191613585565b820191906000526020600020905b81548152906001019060200180831161356857829003601f168201915b5050505050815260200160048201805461359e90614f1b565b80601f01602080910402602001604051908101604052809291908181526020018280546135ca90614f1b565b80156136175780601f106135ec57610100808354040283529160200191613617565b820191906000526020600020905b8154815290600101906020018083116135fa57829003601f168201915b5050505050815260200160058201548152505081526020016040518060200160405280600081525081525090506000803373ffffffffffffffffffffffffffffffffffffffff1673ffffffffffffffffffffffffffffffffffffffff16815260200190815260200160002060040181908060018154018082558091505060019003906000526020600020906007020160009091909190915060008201518160000160008201518160000190816136cd9190615367565b5060208201518160010190816136e39190615367565b5060408201518160020190816136f99190615367565b50606082015181600301908161370f9190615367565b5060808201518160040190816137259190615367565b5060a08201518160050155505060208201518160060190816137479190615367565b505050505050565b60606000803373ffffffffffffffffffffffffffffffffffffffff1673ffffffffffffffffffffffffffffffffffffffff16815260200190815260200160002060070160009054906101000a900460ff166137df576040517f08c379a00000000000000000000000000000000000000000000000000000000081526004016137d690614ecc565b60405180910390fd5b6000803373ffffffffffffffffffffffffffffffffffffffff1673ffffffffffffffffffffffffffffffffffffffff168152602001908152602001600020600101805480602002602001604051908101604052809291908181526020016000905b828210156138ec57838290600052602060002001805461385f90614f1b565b80601f016020809104026020016040519081016040528092919081815260200182805461388b90614f1b565b80156138d85780601f106138ad576101008083540402835291602001916138d8565b820191906000526020600020905b8154815290600101906020018083116138bb57829003601f168201915b505050505081526020019060010190613840565b50505050905090565b606060006002836040516139099190614f88565b90815260200160405180910390209050600081600001805461392a90614f1b565b90501161396c576040517f08c379a000000000000000000000000000000000000000000000000000000000815260040161396390614feb565b60405180910390fd5b80600b018054806020026020016040519081016040528092919081815260200182805480156139f057602002820191906000526020600020905b8160009054906101000a900473ffffffffffffffffffffffffffffffffffffffff1673ffffffffffffffffffffffffffffffffffffffff16815260200190600101908083116139a6575b5050505050915050919050565b60606000803373ffffffffffffffffffffffffffffffffffffffff1673ffffffffffffffffffffffffffffffffffffffff16815260200190815260200160002060070160009054906101000a900460ff16613a8d576040517f08c379a0000000000000000000000000000000000000000000000000000000008152600401613a8490614ecc565b60405180910390fd5b6000803373ffffffffffffffffffffffffffffffffffffffff1673ffffffffffffffffffffffffffffffffffffffff168152602001908152602001600020600301805480602002602001604051908101604052809291908181526020016000905b82821015613b9a578382906000526020600020018054613b0d90614f1b565b80601f0160208091040260200160405190810160405280929190818152602001828054613b3990614f1b565b8015613b865780601f10613b5b57610100808354040283529160200191613b86565b820191906000526020600020905b815481529060010190602001808311613b6957829003601f168201915b505050505081526020019060010190613aee565b50505050905090565b60606000803373ffffffffffffffffffffffffffffffffffffffff1673ffffffffffffffffffffffffffffffffffffffff16815260200190815260200160002060070160009054906101000a900460ff16613c33576040517f08c379a0000000000000000000000000000000000000000000000000000000008152600401613c2a90614ecc565b60405180910390fd5b6000803373ffffffffffffffffffffffffffffffffffffffff1673ffffffffffffffffffffffffffffffffffffffff1681526020019081526020016000206000018054613c7f90614f1b565b80601f0160208091040260200160405190810160405280929190818152602001828054613cab90614f1b565b8015613cf85780601f10613ccd57610100808354040283529160200191613cf8565b820191906000526020600020905b815481529060010190602001808311613cdb57829003601f168201915b5050505050905090565b828054828255906000526020600020908101928215613d7b579160200282015b82811115613d7a5782518260006101000a81548173ffffffffffffffffffffffffffffffffffffffff021916908373ffffffffffffffffffffffffffffffffffffffff16021790555091602001919060010190613d22565b5b509050613d88919061404b565b5090565b828054828255906000526020600020908101928215613dd4579160200282015b82811115613dd3578251829081613dc39190615367565b5091602001919060010190613dac565b5b509050613de19190614068565b5090565b828054828255906000526020600020908101928215613e315760005260206000209182015b82811115613e305782829081613e20919061544f565b5091600101919060010190613e0a565b5b509050613e3e9190614068565b5090565b828054828255906000526020600020908101928215613e835760005260206000209182015b82811115613e82578254825591600101919060010190613e67565b5b509050613e90919061404b565b5090565b6040518060c001604052806060815260200160608152602001606081526020016060815260200160608152602001600081525090565b828054828255906000526020600020906007028101928215613fa35760005260206000209160070282015b82811115613fa2578282600082018160000160008201816000019081613f1b919061544f565b5060018201816001019081613f30919061544f565b5060028201816002019081613f45919061544f565b5060038201816003019081613f5a919061544f565b5060048201816004019081613f6f919061544f565b5060058201548160050155505060068201816006019081613f90919061544f565b50505091600701919060070190613ef5565b5b509050613fb0919061408c565b5090565b82805482825590600052602060002090600302810192821561403a5760005260206000209160030282015b8281111561403957828260008201816000019081613ffd919061544f565b5060018201816001019081614012919061544f565b5060028201816002019081614027919061544f565b50505091600301919060030190613fdf565b5b5090506140479190614112565b5090565b5b8082111561406457600081600090555060010161404c565b5090565b5b80821115614088576000818161407f9190614159565b50600101614069565b5090565b5b8082111561410e576000808201600080820160006140ab9190614159565b6001820160006140bb9190614159565b6002820160006140cb9190614159565b6003820160006140db9190614159565b6004820160006140eb9190614159565b600582016000905550506006820160006141059190614159565b5060070161408d565b5090565b5b80821115614155576000808201600061412c9190614159565b60018201600061413c9190614159565b60028201600061414c9190614159565b50600301614113565b5090565b50805461416590614f1b565b6000825580601f106141775750614196565b601f016020900490600052602060002090810190614195919061404b565b5b50565b600081519050919050565b600082825260208201905092915050565b6000819050602082019050919050565b600081519050919050565b600082825260208201905092915050565b60005b838110156141ff5780820151818401526020810190506141e4565b60008484015250505050565b6000601f19601f8301169050919050565b6000614227826141c5565b61423181856141d0565b93506142418185602086016141e1565b61424a8161420b565b840191505092915050565b6000614261838361421c565b905092915050565b6000602082019050919050565b600061428182614199565b61428b81856141a4565b93508360208202850161429d856141b5565b8060005b858110156142d957848403895281516142ba8582614255565b94506142c583614269565b925060208a019950506001810190506142a1565b50829750879550505050505092915050565b600060208201905081810360008301526143058184614276565b905092915050565b6000604051905090565b600080fd5b600080fd5b600080fd5b600080fd5b7f4e487b7100000000000000000000000000000000000000000000000000000000600052604160045260246000fd5b6143638261420b565b810181811067ffffffffffffffff821117156143825761438161432b565b5b80604052505050565b600061439561430d565b90506143a1828261435a565b919050565b600067ffffffffffffffff8211156143c1576143c061432b565b5b6143ca8261420b565b9050602081019050919050565b82818337600083830152505050565b60006143f96143f4846143a6565b61438b565b90508281526020810184848401111561441557614414614326565b5b6144208482856143d7565b509392505050565b600082601f83011261443d5761443c614321565b5b813561444d8482602086016143e6565b91505092915050565b60006020828403121561446c5761446b614317565b5b600082013567ffffffffffffffff81111561448a5761448961431c565b5b61449684828501614428565b91505092915050565b600073ffffffffffffffffffffffffffffffffffffffff82169050919050565b60006144ca8261449f565b9050919050565b6144da816144bf565b82525050565b60006020820190506144f560008301846144d1565b92915050565b60008060006060848603121561451457614513614317565b5b600084013567ffffffffffffffff8111156145325761453161431c565b5b61453e86828701614428565b935050602084013567ffffffffffffffff81111561455f5761455e61431c565b5b61456b86828701614428565b925050604084013567ffffffffffffffff81111561458c5761458b61431c565b5b61459886828701614428565b9150509250925092565b600082825260208201905092915050565b60006145be826141c5565b6145c881856145a2565b93506145d88185602086016141e1565b6145e18161420b565b840191505092915050565b6000602082019050818103600083015261460681846145b3565b905092915050565b600081519050919050565b600082825260208201905092915050565b6000819050602082019050919050565b6000819050919050565b61464d8161463a565b82525050565b600060c0830160008301518482036000860152614670828261421c565b9150506020830151848203602086015261468a828261421c565b915050604083015184820360408601526146a4828261421c565b915050606083015184820360608601526146be828261421c565b915050608083015184820360808601526146d8828261421c565b91505060a08301516146ed60a0860182614644565b508091505092915050565b614701816144bf565b82525050565b600082825260208201905092915050565b600061472382614199565b61472d8185614707565b93508360208202850161473f856141b5565b8060005b8581101561477b578484038952815161475c8582614255565b945061476783614269565b925060208a01995050600181019050614743565b50829750879550505050505092915050565b600081519050919050565b600082825260208201905092915050565b6000819050602082019050919050565b60006147c583836146f8565b60208301905092915050565b6000602082019050919050565b60006147e98261478d565b6147f38185614798565b93506147fe836147a9565b8060005b8381101561482f57815161481688826147b9565b9750614821836147d1565b925050600181019050614802565b5085935050505092915050565b600060e0830160008301518482036000860152614859828261421c565b91505060208301518482036020860152614873828261421c565b9150506040830151848203604086015261488d8282614653565b91505060608301516148a260608601826146f8565b50608083015184820360808601526148ba828261421c565b91505060a083015184820360a08601526148d48282614718565b91505060c083015184820360c08601526148ee82826147de565b9150508091505092915050565b6000614907838361483c565b905092915050565b6000602082019050919050565b60006149278261460e565b6149318185614619565b9350836020820285016149438561462a565b8060005b8581101561497f578484038952815161496085826148fb565b945061496b8361490f565b925060208a01995050600181019050614947565b50829750879550505050505092915050565b600060208201905081810360008301526149ab818461491c565b905092915050565b600060c08301600083015184820360008601526149d0828261421c565b915050602083015184820360208601526149ea828261421c565b91505060408301518482036040860152614a04828261421c565b91505060608301518482036060860152614a1e828261421c565b91505060808301518482036080860152614a38828261421c565b91505060a0830151614a4d60a0860182614644565b508091505092915050565b600060a0820190508181036000830152614a7281886145b3565b90508181036020830152614a8681876145b3565b90508181036040830152614a9a81866149b3565b9050614aa960608301856144d1565b8181036080830152614abb81846145b3565b90509695505050505050565b614ad08161463a565b8114614adb57600080fd5b50565b600081359050614aed81614ac7565b92915050565b60008060008060008060c08789031215614b1057614b0f614317565b5b600087013567ffffffffffffffff811115614b2e57614b2d61431c565b5b614b3a89828a01614428565b965050602087013567ffffffffffffffff811115614b5b57614b5a61431c565b5b614b6789828a01614428565b955050604087013567ffffffffffffffff811115614b8857614b8761431c565b5b614b9489828a01614428565b945050606087013567ffffffffffffffff811115614bb557614bb461431c565b5b614bc189828a01614428565b935050608087013567ffffffffffffffff811115614be257614be161431c565b5b614bee89828a01614428565b92505060a0614bff89828a01614ade565b9150509295509295509295565b600081519050919050565b600082825260208201905092915050565b6000819050602082019050919050565b60006060830160008301518482036000860152614c55828261421c565b91505060208301518482036020860152614c6f828261421c565b91505060408301518482036040860152614c89828261421c565b9150508091505092915050565b6000614ca28383614c38565b905092915050565b6000602082019050919050565b6000614cc282614c0c565b614ccc8185614c17565b935083602082028501614cde85614c28565b8060005b85811015614d1a5784840389528151614cfb8582614c96565b9450614d0683614caa565b925060208a01995050600181019050614ce2565b50829750879550505050505092915050565b60006020820190508181036000830152614d468184614cb7565b905092915050565b614d578161463a565b82525050565b600060e0820190508181036000830152614d77818a6145b3565b90508181036020830152614d8b8189614276565b90508181036040830152614d9f8188614276565b90508181036060830152614db38187614276565b90508181036080830152614dc781866145b3565b9050614dd660a0830185614d4e565b614de360c0830184614d4e565b98975050505050505050565b600082825260208201905092915050565b6000614e0b8261478d565b614e158185614def565b9350614e20836147a9565b8060005b83811015614e51578151614e3888826147b9565b9750614e43836147d1565b925050600181019050614e24565b5085935050505092915050565b60006020820190508181036000830152614e788184614e00565b905092915050565b7f55736572206e6f74207265676973746572656421000000000000000000000000600082015250565b6000614eb66014836145a2565b9150614ec182614e80565b602082019050919050565b60006020820190508181036000830152614ee581614ea9565b9050919050565b7f4e487b7100000000000000000000000000000000000000000000000000000000600052602260045260246000fd5b60006002820490506001821680614f3357607f821691505b602082108103614f4657614f45614eec565b5b50919050565b600081905092915050565b6000614f62826141c5565b614f6c8185614f4c565b9350614f7c8185602086016141e1565b80840191505092915050565b6000614f948284614f57565b915081905092915050565b7f436f6d6d756e69747920726f6f6d20646f6573206e6f74206578697374210000600082015250565b6000614fd5601e836145a2565b9150614fe082614f9f565b602082019050919050565b6000602082019050818103600083015261500481614fc8565b9050919050565b7f436f6d6d756e697479206e616d652063616e6e6f7420626520656d7074792100600082015250565b6000615041601f836145a2565b915061504c8261500b565b602082019050919050565b6000602082019050818103600083015261507081615034565b9050919050565b7f436f6d6d756e69747920696d6167652063616e6e6f7420626520656d70747921600082015250565b60006150ad6020836145a2565b91506150b882615077565b602082019050919050565b600060208201905081810360008301526150dc816150a0565b9050919050565b7f426f74206e616d652063616e6e6f7420626520656d7074792100000000000000600082015250565b60006151196019836145a2565b9150615124826150e3565b602082019050919050565b600060208201905081810360008301526151488161510c565b9050919050565b7f426f7420646f6573206e6f742065786973742100000000000000000000000000600082015250565b60006151856013836145a2565b91506151908261514f565b602082019050919050565b600060208201905081810360008301526151b481615178565b9050919050565b60008190508160005260206000209050919050565b60006020601f8301049050919050565b600082821b905092915050565b60006008830261521d7fffffffffffffffffffffffffffffffffffffffffffffffffffffffffffffffff826151e0565b61522786836151e0565b95508019841693508086168417925050509392505050565b6000819050919050565b600061526461525f61525a8461463a565b61523f565b61463a565b9050919050565b6000819050919050565b61527e83615249565b61529261528a8261526b565b8484546151ed565b825550505050565b600090565b6152a761529a565b6152b2818484615275565b505050565b5b818110156152d6576152cb60008261529f565b6001810190506152b8565b5050565b601f82111561531b576152ec816151bb565b6152f5846151d0565b81016020851015615304578190505b615318615310856151d0565b8301826152b7565b50505b505050565b600082821c905092915050565b600061533e60001984600802615320565b1980831691505092915050565b6000615357838361532d565b9150826002028217905092915050565b615370826141c5565b67ffffffffffffffff8111156153895761538861432b565b5b6153938254614f1b565b61539e8282856152da565b600060209050601f8311600181146153d157600084156153bf578287015190505b6153c9858261534b565b865550615431565b601f1984166153df866151bb565b60005b82811015615407578489015182556001820191506020850194506020810190506153e2565b868310156154245784890151615420601f89168261532d565b8355505b6001600288020188555050505b505050505050565b60008154905061544881614f1b565b9050919050565b81810361545d575050615535565b61546682615439565b67ffffffffffffffff81111561547f5761547e61432b565b5b6154898254614f1b565b6154948282856152da565b6000601f8311600181146154c357600084156154b1578287015490505b6154bb858261534b565b86555061552e565b601f1984166154d1876151bb565b96506154dc866151bb565b60005b82811015615504578489015482556001820191506001850194506020810190506154df565b86831015615521578489015461551d601f89168261532d565b8355505b6001600288020188555050505b5050505050505b565b7f476f616c2049442063616e6e6f7420626520656d707479210000000000000000600082015250565b600061556d6018836145a2565b915061557882615537565b602082019050919050565b6000602082019050818103600083015261559c81615560565b9050919050565b7f4e487b7100000000000000000000000000000000000000000000000000000000600052603260045260246000fd5b7f416c72656164792061206d656d626572206f66207468697320636f6d6d756e6960008201527f7479210000000000000000000000000000000000000000000000000000000000602082015250565b600061562e6023836145a2565b9150615639826155d2565b604082019050919050565b6000602082019050818103600083015261565d81615621565b9050919050565b7f4e487b7100000000000000000000000000000000000000000000000000000000600052601160045260246000fd5b600061569e8261463a565b91507fffffffffffffffffffffffffffffffffffffffffffffffffffffffffffffffff82036156d0576156cf615664565b5b600182019050919050565b7f426f7420696d6167652063616e6e6f7420626520656d70747921000000000000600082015250565b6000615711601a836145a2565b915061571c826156db565b602082019050919050565b6000602082019050818103600083015261574081615704565b9050919050565b7f53797374656d2070726f6d70742063616e6e6f7420626520656d707479210000600082015250565b600061577d601e836145a2565b915061578882615747565b602082019050919050565b600060208201905081810360008301526157ac81615770565b9050919050565b7f426f74206465736372697074696f6e2063616e6e6f7420626520656d70747921600082015250565b60006157e96020836145a2565b91506157f4826157b3565b602082019050919050565b60006020820190508181036000830152615818816157dc565b9050919050565b7f4465706c6f796d656e742055524c2063616e6e6f7420626520656d7074792100600082015250565b6000615855601f836145a2565b91506158608261581f565b602082019050919050565b6000602082019050818103600083015261588481615848565b9050919050565b7f556e6c6f636b20636f7374206d7573742062652067726561746572207468616e60008201527f2030000000000000000000000000000000000000000000000000000000000000602082015250565b60006158e76022836145a2565b91506158f28261588b565b604082019050919050565b60006020820190508181036000830152615916816158da565b9050919050565b7f496e6a7572792049442063616e6e6f7420626520656d70747921000000000000600082015250565b6000615953601a836145a2565b915061595e8261591d565b602082019050919050565b6000602082019050818103600083015261598281615946565b9050919050565b7f5573657220616c72656164792072656769737465726564210000000000000000600082015250565b60006159bf6018836145a2565b91506159ca82615989565b602082019050919050565b600060208201905081810360008301526159ee816159b2565b9050919050565b7f4d657461646174612063616e6e6f7420626520656d7074792100000000000000600082015250565b6000615a2b6019836145a2565b9150615a36826159f5565b602082019050919050565b60006020820190508181036000830152615a5a81615a1e565b9050919050565b7f41637469766974792049442063616e6e6f7420626520656d7074792100000000600082015250565b6000615a97601c836145a2565b9150615aa282615a61565b602082019050919050565b60006020820190508181036000830152615ac681615a8a565b9050919050565b6000615ad88261463a565b9150615ae38361463a565b9250828202615af18161463a565b91508282048414831517615b0857615b07615664565b5b5092915050565b7f496e73756666696369656e74207061796d656e74000000000000000000000000600082015250565b6000615b456014836145a2565b9150615b5082615b0f565b602082019050919050565b60006020820190508181036000830152615b7481615b38565b905091905056fea2646970667358221220e127093d70b8ce1497af14a4d003f70ab964c2aaf264512ff4ad96c67058ba0464736f6c63430008140033",
  "linkReferences": {},
  "deployedLinkReferences": {}
}