{
  "_format": "hh-sol-artifact-1",
  "contractName": "SimpleNFT",
  "sourceName": "contracts/MyNFT.sol",
  "abi": [
    {
      "inputs": [
        {
          "internalType": "string",
          "name": "name",
          "type": "string"
        },
        {
          "internalType": "string",
          "name": "symbol",
          "type": "string"
        }
      ],
      "stateMutability": "nonpayable",
      "type": "constructor"
    },
    {
      "anonymous": false,
      "inputs": [
        {
          "indexed": true,
          "internalType": "address",
          "name": "owner",
          "type": "address"
        },
        {
          "indexed": true,
          "internalType": "address",
          "name": "approved",
          "type": "address"
        },
        {
          "indexed": true,
          "internalType": "uint256",
          "name": "tokenId",
          "type": "uint256"
        }
      ],
      "name": "Approval",
      "type": "event"
    },
    {
      "anonymous": false,
      "inputs": [
        {
          "indexed": true,
          "internalType": "address",
          "name": "owner",
          "type": "address"
        },
        {
          "indexed": true,
          "internalType": "address",
          "name": "operator",
          "type": "address"
        },
        {
          "indexed": false,
          "internalType": "bool",
          "name": "approved",
          "type": "bool"
        }
      ],
      "name": "ApprovalForAll",
      "type": "event"
    },
    {
      "anonymous": false,
      "inputs": [
        {
          "indexed": true,
          "internalType": "address",
          "name": "from",
          "type": "address"
        },
        {
          "indexed": true,
          "internalType": "address",
          "name": "to",
          "type": "address"
        },
        {
          "indexed": true,
          "internalType": "uint256",
          "name": "tokenId",
          "type": "uint256"
        }
      ],
      "name": "Transfer",
      "type": "event"
    },
    {
      "inputs": [
        {
          "internalType": "address",
          "name": "to",
          "type": "address"
        },
        {
          "internalType": "uint256",
          "name": "tokenId",
          "type": "uint256"
        }
      ],
      "name": "approve",
      "outputs": [],
      "stateMutability": "nonpayable",
      "type": "function"
    },
    {
      "inputs": [
        {
          "internalType": "address",
          "name": "owner",
          "type": "address"
        }
      ],
      "name": "balanceOf",
      "outputs": [
        {
          "internalType": "uint256",
          "name": "",
          "type": "uint256"
        }
      ],
      "stateMutability": "view",
      "type": "function"
    },
    {
      "inputs": [
        {
          "internalType": "uint256",
          "name": "tokenId",
          "type": "uint256"
        }
      ],
      "name": "getApproved",
      "outputs": [
        {
          "internalType": "address",
          "name": "",
          "type": "address"
        }
      ],
      "stateMutability": "view",
      "type": "function"
    },
    {
      "inputs": [
        {
          "internalType": "address",
          "name": "owner",
          "type": "address"
        },
        {
          "internalType": "address",
          "name": "operator",
          "type": "address"
        }
      ],
      "name": "isApprovedForAll",
      "outputs": [
        {
          "internalType": "bool",
          "name": "",
          "type": "bool"
        }
      ],
      "stateMutability": "view",
      "type": "function"
    },
    {
      "inputs": [
        {
          "internalType": "string",
          "name": "imageURI",
          "type": "string"
        }
      ],
      "name": "mintWithURI",
      "outputs": [],
      "stateMutability": "nonpayable",
      "type": "function"
    },
    {
      "inputs": [],
      "name": "name",
      "outputs": [
        {
          "internalType": "string",
          "name": "",
          "type": "string"
        }
      ],
      "stateMutability": "view",
      "type": "function"
    },
    {
      "inputs": [
        {
          "internalType": "uint256",
          "name": "tokenId",
          "type": "uint256"
        }
      ],
      "name": "ownerOf",
      "outputs": [
        {
          "internalType": "address",
          "name": "",
          "type": "address"
        }
      ],
      "stateMutability": "view",
      "type": "function"
    },
    {
      "inputs": [
        {
          "internalType": "address",
          "name": "from",
          "type": "address"
        },
        {
          "internalType": "address",
          "name": "to",
          "type": "address"
        },
        {
          "internalType": "uint256",
          "name": "tokenId",
          "type": "uint256"
        }
      ],
      "name": "safeTransferFrom",
      "outputs": [],
      "stateMutability": "nonpayable",
      "type": "function"
    },
    {
      "inputs": [
        {
          "internalType": "address",
          "name": "from",
          "type": "address"
        },
        {
          "internalType": "address",
          "name": "to",
          "type": "address"
        },
        {
          "internalType": "uint256",
          "name": "tokenId",
          "type": "uint256"
        },
        {
          "internalType": "bytes",
          "name": "_data",
          "type": "bytes"
        }
      ],
      "name": "safeTransferFrom",
      "outputs": [],
      "stateMutability": "nonpayable",
      "type": "function"
    },
    {
      "inputs": [
        {
          "internalType": "address",
          "name": "operator",
          "type": "address"
        },
        {
          "internalType": "bool",
          "name": "approved",
          "type": "bool"
        }
      ],
      "name": "setApprovalForAll",
      "outputs": [],
      "stateMutability": "nonpayable",
      "type": "function"
    },
    {
      "inputs": [
        {
          "internalType": "bytes4",
          "name": "interfaceId",
          "type": "bytes4"
        }
      ],
      "name": "supportsInterface",
      "outputs": [
        {
          "internalType": "bool",
          "name": "",
          "type": "bool"
        }
      ],
      "stateMutability": "view",
      "type": "function"
    },
    {
      "inputs": [],
      "name": "symbol",
      "outputs": [
        {
          "internalType": "string",
          "name": "",
          "type": "string"
        }
      ],
      "stateMutability": "view",
      "type": "function"
    },
    {
      "inputs": [
        {
          "internalType": "uint256",
          "name": "tokenId",
          "type": "uint256"
        }
      ],
      "name": "tokenURI",
      "outputs": [
        {
          "internalType": "string",
          "name": "",
          "type": "string"
        }
      ],
      "stateMutability": "view",
      "type": "function"
    },
    {
      "inputs": [
        {
          "internalType": "address",
          "name": "from",
          "type": "address"
        },
        {
          "internalType": "address",
          "name": "to",
          "type": "address"
        },
        {
          "internalType": "uint256",
          "name": "tokenId",
          "type": "uint256"
        }
      ],
      "name": "transferFrom",
      "outputs": [],
      "stateMutability": "nonpayable",
      "type": "function"
    }
  ],
  "bytecode": "0x60806040523480156200001157600080fd5b5060405162002d6838038062002d688339818101604052810190620000379190620001fa565b818181600090816200004a9190620004ca565b5080600190816200005c9190620004ca565b5050505050620005b1565b6000604051905090565b600080fd5b600080fd5b600080fd5b600080fd5b6000601f19601f8301169050919050565b7f4e487b7100000000000000000000000000000000000000000000000000000000600052604160045260246000fd5b620000d08262000085565b810181811067ffffffffffffffff82111715620000f257620000f162000096565b5b80604052505050565b60006200010762000067565b9050620001158282620000c5565b919050565b600067ffffffffffffffff82111562000138576200013762000096565b5b620001438262000085565b9050602081019050919050565b60005b838110156200017057808201518184015260208101905062000153565b60008484015250505050565b6000620001936200018d846200011a565b620000fb565b905082815260208101848484011115620001b257620001b162000080565b5b620001bf84828562000150565b509392505050565b600082601f830112620001df57620001de6200007b565b5b8151620001f18482602086016200017c565b91505092915050565b6000806040838503121562000214576200021362000071565b5b600083015167ffffffffffffffff81111562000235576200023462000076565b5b6200024385828601620001c7565b925050602083015167ffffffffffffffff81111562000267576200026662000076565b5b6200027585828601620001c7565b9150509250929050565b600081519050919050565b7f4e487b7100000000000000000000000000000000000000000000000000000000600052602260045260246000fd5b60006002820490506001821680620002d257607f821691505b602082108103620002e857620002e76200028a565b5b50919050565b60008190508160005260206000209050919050565b60006020601f8301049050919050565b600082821b905092915050565b600060088302620003527fffffffffffffffffffffffffffffffffffffffffffffffffffffffffffffffff8262000313565b6200035e868362000313565b95508019841693508086168417925050509392505050565b6000819050919050565b6000819050919050565b6000620003ab620003a56200039f8462000376565b62000380565b62000376565b9050919050565b6000819050919050565b620003c7836200038a565b620003df620003d682620003b2565b84845462000320565b825550505050565b600090565b620003f6620003e7565b62000403818484620003bc565b505050565b5b818110156200042b576200041f600082620003ec565b60018101905062000409565b5050565b601f8211156200047a576200044481620002ee565b6200044f8462000303565b810160208510156200045f578190505b620004776200046e8562000303565b83018262000408565b50505b505050565b600082821c905092915050565b60006200049f600019846008026200047f565b1980831691505092915050565b6000620004ba83836200048c565b9150826002028217905092915050565b620004d5826200027f565b67ffffffffffffffff811115620004f157620004f062000096565b5b620004fd8254620002b9565b6200050a8282856200042f565b600060209050601f8311600181146200054257600084156200052d578287015190505b620005398582620004ac565b865550620005a9565b601f1984166200055286620002ee565b60005b828110156200057c5784890151825560018201915060208501945060208101905062000555565b868310156200059c578489015162000598601f8916826200048c565b8355505b6001600288020188555050505b505050505050565b6127a780620005c16000396000f3fe608060405234801561001057600080fd5b50600436106100ea5760003560e01c806370a082311161008c578063a22cb46511610066578063a22cb4651461025b578063b88d4fde14610277578063c87b56dd14610293578063e985e9c5146102c3576100ea565b806370a08231146101f1578063947b59ae1461022157806395d89b411461023d576100ea565b8063095ea7b3116100c8578063095ea7b31461016d57806323b872dd1461018957806342842e0e146101a55780636352211e146101c1576100ea565b806301ffc9a7146100ef57806306fdde031461011f578063081812fc1461013d575b600080fd5b6101096004803603810190610104919061157d565b6102f3565b60405161011691906115c5565b60405180910390f35b6101276103d5565b6040516101349190611670565b60405180910390f35b610157600480360381019061015291906116c8565b610467565b6040516101649190611736565b60405180910390f35b6101876004803603810190610182919061177d565b6104ec565b005b6101a3600480360381019061019e91906117bd565b610603565b005b6101bf60048036038101906101ba91906117bd565b610663565b005b6101db60048036038101906101d691906116c8565b610683565b6040516101e89190611736565b60405180910390f35b61020b60048036038101906102069190611810565b610734565b604051610218919061184c565b60405180910390f35b61023b6004803603810190610236919061199c565b6107eb565b005b610245610832565b6040516102529190611670565b60405180910390f35b61027560048036038101906102709190611a11565b6108c4565b005b610291600480360381019061028c9190611af2565b6108da565b005b6102ad60048036038101906102a891906116c8565b61093c565b6040516102ba9190611670565b60405180910390f35b6102dd60048036038101906102d89190611b75565b610a29565b6040516102ea91906115c5565b60405180910390f35b60007f80ac58cd000000000000000000000000000000000000000000000000000000007bffffffffffffffffffffffffffffffffffffffffffffffffffffffff1916827bffffffffffffffffffffffffffffffffffffffffffffffffffffffff191614806103be57507f5b5e139f000000000000000000000000000000000000000000000000000000007bffffffffffffffffffffffffffffffffffffffffffffffffffffffff1916827bffffffffffffffffffffffffffffffffffffffffffffffffffffffff1916145b806103ce57506103cd82610abd565b5b9050919050565b6060600080546103e490611be4565b80601f016020809104026020016040519081016040528092919081815260200182805461041090611be4565b801561045d5780601f106104325761010080835404028352916020019161045d565b820191906000526020600020905b81548152906001019060200180831161044057829003601f168201915b5050505050905090565b600061047282610b27565b6104b1576040517f08c379a00000000000000000000000000000000000000000000000000000000081526004016104a890611c87565b60405180910390fd5b6004600083815260200190815260200160002060009054906101000a900473ffffffffffffffffffffffffffffffffffffffff169050919050565b60006104f782610683565b90508073ffffffffffffffffffffffffffffffffffffffff168373ffffffffffffffffffffffffffffffffffffffff1603610567576040517f08c379a000000000000000000000000000000000000000000000000000000000815260040161055e90611d19565b60405180910390fd5b8073ffffffffffffffffffffffffffffffffffffffff16610586610b93565b73ffffffffffffffffffffffffffffffffffffffff1614806105b557506105b4816105af610b93565b610a29565b5b6105f4576040517f08c379a00000000000000000000000000000000000000000000000000000000081526004016105eb90611dab565b60405180910390fd5b6105fe8383610b9b565b505050565b61061461060e610b93565b82610c54565b610653576040517f08c379a000000000000000000000000000000000000000000000000000000000815260040161064a90611e3d565b60405180910390fd5b61065e838383610d32565b505050565b61067e838383604051806020016040528060008152506108da565b505050565b6000806002600084815260200190815260200160002060009054906101000a900473ffffffffffffffffffffffffffffffffffffffff169050600073ffffffffffffffffffffffffffffffffffffffff168173ffffffffffffffffffffffffffffffffffffffff160361072b576040517f08c379a000000000000000000000000000000000000000000000000000000000815260040161072290611ecf565b60405180910390fd5b80915050919050565b60008073ffffffffffffffffffffffffffffffffffffffff168273ffffffffffffffffffffffffffffffffffffffff16036107a4576040517f08c379a000000000000000000000000000000000000000000000000000000000815260040161079b90611f61565b60405180910390fd5b600360008373ffffffffffffffffffffffffffffffffffffffff1673ffffffffffffffffffffffffffffffffffffffff168152602001908152602001600020549050919050565b60006107f76006610f98565b90506108036006610fa6565b61080d3382610fbc565b8160076000838152602001908152602001600020908161082d919061212d565b505050565b60606001805461084190611be4565b80601f016020809104026020016040519081016040528092919081815260200182805461086d90611be4565b80156108ba5780601f1061088f576101008083540402835291602001916108ba565b820191906000526020600020905b81548152906001019060200180831161089d57829003601f168201915b5050505050905090565b6108d66108cf610b93565b8383611195565b5050565b6108eb6108e5610b93565b83610c54565b61092a576040517f08c379a000000000000000000000000000000000000000000000000000000000815260040161092190611e3d565b60405180910390fd5b61093684848484611301565b50505050565b606061094782610b27565b610986576040517f08c379a000000000000000000000000000000000000000000000000000000000815260040161097d9061224b565b60405180910390fd5b6007600083815260200190815260200160002080546109a490611be4565b80601f01602080910402602001604051908101604052809291908181526020018280546109d090611be4565b8015610a1d5780601f106109f257610100808354040283529160200191610a1d565b820191906000526020600020905b815481529060010190602001808311610a0057829003601f168201915b50505050509050919050565b6000600560008473ffffffffffffffffffffffffffffffffffffffff1673ffffffffffffffffffffffffffffffffffffffff16815260200190815260200160002060008373ffffffffffffffffffffffffffffffffffffffff1673ffffffffffffffffffffffffffffffffffffffff16815260200190815260200160002060009054906101000a900460ff16905092915050565b60007f01ffc9a7000000000000000000000000000000000000000000000000000000007bffffffffffffffffffffffffffffffffffffffffffffffffffffffff1916827bffffffffffffffffffffffffffffffffffffffffffffffffffffffff1916149050919050565b60008073ffffffffffffffffffffffffffffffffffffffff166002600084815260200190815260200160002060009054906101000a900473ffffffffffffffffffffffffffffffffffffffff1673ffffffffffffffffffffffffffffffffffffffff1614159050919050565b600033905090565b816004600083815260200190815260200160002060006101000a81548173ffffffffffffffffffffffffffffffffffffffff021916908373ffffffffffffffffffffffffffffffffffffffff160217905550808273ffffffffffffffffffffffffffffffffffffffff16610c0e83610683565b73ffffffffffffffffffffffffffffffffffffffff167f8c5be1e5ebec7d5bd14f71427d1e84f3dd0314c0f7b2291e5b200ac8c7c3b92560405160405180910390a45050565b6000610c5f82610b27565b610c9e576040517f08c379a0000000000000000000000000000000000000000000000000000000008152600401610c95906122dd565b60405180910390fd5b6000610ca983610683565b90508073ffffffffffffffffffffffffffffffffffffffff168473ffffffffffffffffffffffffffffffffffffffff161480610ceb5750610cea8185610a29565b5b80610d2957508373ffffffffffffffffffffffffffffffffffffffff16610d1184610467565b73ffffffffffffffffffffffffffffffffffffffff16145b91505092915050565b8273ffffffffffffffffffffffffffffffffffffffff16610d5282610683565b73ffffffffffffffffffffffffffffffffffffffff1614610da8576040517f08c379a0000000000000000000000000000000000000000000000000000000008152600401610d9f9061236f565b60405180910390fd5b600073ffffffffffffffffffffffffffffffffffffffff168273ffffffffffffffffffffffffffffffffffffffff1603610e17576040517f08c379a0000000000000000000000000000000000000000000000000000000008152600401610e0e90612401565b60405180910390fd5b610e2283838361135d565b610e2d600082610b9b565b6001600360008573ffffffffffffffffffffffffffffffffffffffff1673ffffffffffffffffffffffffffffffffffffffff1681526020019081526020016000206000828254610e7d9190612450565b925050819055506001600360008473ffffffffffffffffffffffffffffffffffffffff1673ffffffffffffffffffffffffffffffffffffffff1681526020019081526020016000206000828254610ed49190612484565b92505081905550816002600083815260200190815260200160002060006101000a81548173ffffffffffffffffffffffffffffffffffffffff021916908373ffffffffffffffffffffffffffffffffffffffff160217905550808273ffffffffffffffffffffffffffffffffffffffff168473ffffffffffffffffffffffffffffffffffffffff167fddf252ad1be2c89b69c2b068fc378daa952ba7f163c4a11628f55a4df523b3ef60405160405180910390a4610f93838383611362565b505050565b600081600001549050919050565b6001816000016000828254019250508190555050565b600073ffffffffffffffffffffffffffffffffffffffff168273ffffffffffffffffffffffffffffffffffffffff160361102b576040517f08c379a000000000000000000000000000000000000000000000000000000000815260040161102290612504565b60405180910390fd5b61103481610b27565b15611074576040517f08c379a000000000000000000000000000000000000000000000000000000000815260040161106b90612570565b60405180910390fd5b6110806000838361135d565b6001600360008473ffffffffffffffffffffffffffffffffffffffff1673ffffffffffffffffffffffffffffffffffffffff16815260200190815260200160002060008282546110d09190612484565b92505081905550816002600083815260200190815260200160002060006101000a81548173ffffffffffffffffffffffffffffffffffffffff021916908373ffffffffffffffffffffffffffffffffffffffff160217905550808273ffffffffffffffffffffffffffffffffffffffff16600073ffffffffffffffffffffffffffffffffffffffff167fddf252ad1be2c89b69c2b068fc378daa952ba7f163c4a11628f55a4df523b3ef60405160405180910390a461119160008383611362565b5050565b8173ffffffffffffffffffffffffffffffffffffffff168373ffffffffffffffffffffffffffffffffffffffff1603611203576040517f08c379a00000000000000000000000000000000000000000000000000000000081526004016111fa906125dc565b60405180910390fd5b80600560008573ffffffffffffffffffffffffffffffffffffffff1673ffffffffffffffffffffffffffffffffffffffff16815260200190815260200160002060008473ffffffffffffffffffffffffffffffffffffffff1673ffffffffffffffffffffffffffffffffffffffff16815260200190815260200160002060006101000a81548160ff0219169083151502179055508173ffffffffffffffffffffffffffffffffffffffff168373ffffffffffffffffffffffffffffffffffffffff167f17307eab39ab6107e8899845ad3d59bd9653f200f220920489ca2b5937696c31836040516112f491906115c5565b60405180910390a3505050565b61130c848484610d32565b61131884848484611367565b611357576040517f08c379a000000000000000000000000000000000000000000000000000000000815260040161134e9061266e565b60405180910390fd5b50505050565b505050565b505050565b60006113888473ffffffffffffffffffffffffffffffffffffffff166114ee565b156114e1578373ffffffffffffffffffffffffffffffffffffffff1663150b7a026113b1610b93565b8786866040518563ffffffff1660e01b81526004016113d394939291906126e3565b6020604051808303816000875af192505050801561140f57506040513d601f19601f8201168201806040525081019061140c9190612744565b60015b611491573d806000811461143f576040519150601f19603f3d011682016040523d82523d6000602084013e611444565b606091505b506000815103611489576040517f08c379a00000000000000000000000000000000000000000000000000000000081526004016114809061266e565b60405180910390fd5b805181602001fd5b63150b7a0260e01b7bffffffffffffffffffffffffffffffffffffffffffffffffffffffff1916817bffffffffffffffffffffffffffffffffffffffffffffffffffffffff1916149150506114e6565b600190505b949350505050565b6000808273ffffffffffffffffffffffffffffffffffffffff163b119050919050565b6000604051905090565b600080fd5b600080fd5b60007fffffffff0000000000000000000000000000000000000000000000000000000082169050919050565b61155a81611525565b811461156557600080fd5b50565b60008135905061157781611551565b92915050565b6000602082840312156115935761159261151b565b5b60006115a184828501611568565b91505092915050565b60008115159050919050565b6115bf816115aa565b82525050565b60006020820190506115da60008301846115b6565b92915050565b600081519050919050565b600082825260208201905092915050565b60005b8381101561161a5780820151818401526020810190506115ff565b60008484015250505050565b6000601f19601f8301169050919050565b6000611642826115e0565b61164c81856115eb565b935061165c8185602086016115fc565b61166581611626565b840191505092915050565b6000602082019050818103600083015261168a8184611637565b905092915050565b6000819050919050565b6116a581611692565b81146116b057600080fd5b50565b6000813590506116c28161169c565b92915050565b6000602082840312156116de576116dd61151b565b5b60006116ec848285016116b3565b91505092915050565b600073ffffffffffffffffffffffffffffffffffffffff82169050919050565b6000611720826116f5565b9050919050565b61173081611715565b82525050565b600060208201905061174b6000830184611727565b92915050565b61175a81611715565b811461176557600080fd5b50565b60008135905061177781611751565b92915050565b600080604083850312156117945761179361151b565b5b60006117a285828601611768565b92505060206117b3858286016116b3565b9150509250929050565b6000806000606084860312156117d6576117d561151b565b5b60006117e486828701611768565b93505060206117f586828701611768565b9250506040611806868287016116b3565b9150509250925092565b6000602082840312156118265761182561151b565b5b600061183484828501611768565b91505092915050565b61184681611692565b82525050565b6000602082019050611861600083018461183d565b92915050565b600080fd5b600080fd5b7f4e487b7100000000000000000000000000000000000000000000000000000000600052604160045260246000fd5b6118a982611626565b810181811067ffffffffffffffff821117156118c8576118c7611871565b5b80604052505050565b60006118db611511565b90506118e782826118a0565b919050565b600067ffffffffffffffff82111561190757611906611871565b5b61191082611626565b9050602081019050919050565b82818337600083830152505050565b600061193f61193a846118ec565b6118d1565b90508281526020810184848401111561195b5761195a61186c565b5b61196684828561191d565b509392505050565b600082601f83011261198357611982611867565b5b813561199384826020860161192c565b91505092915050565b6000602082840312156119b2576119b161151b565b5b600082013567ffffffffffffffff8111156119d0576119cf611520565b5b6119dc8482850161196e565b91505092915050565b6119ee816115aa565b81146119f957600080fd5b50565b600081359050611a0b816119e5565b92915050565b60008060408385031215611a2857611a2761151b565b5b6000611a3685828601611768565b9250506020611a47858286016119fc565b9150509250929050565b600067ffffffffffffffff821115611a6c57611a6b611871565b5b611a7582611626565b9050602081019050919050565b6000611a95611a9084611a51565b6118d1565b905082815260208101848484011115611ab157611ab061186c565b5b611abc84828561191d565b509392505050565b600082601f830112611ad957611ad8611867565b5b8135611ae9848260208601611a82565b91505092915050565b60008060008060808587031215611b0c57611b0b61151b565b5b6000611b1a87828801611768565b9450506020611b2b87828801611768565b9350506040611b3c878288016116b3565b925050606085013567ffffffffffffffff811115611b5d57611b5c611520565b5b611b6987828801611ac4565b91505092959194509250565b60008060408385031215611b8c57611b8b61151b565b5b6000611b9a85828601611768565b9250506020611bab85828601611768565b9150509250929050565b7f4e487b7100000000000000000000000000000000000000000000000000000000600052602260045260246000fd5b60006002820490506001821680611bfc57607f821691505b602082108103611c0f57611c0e611bb5565b5b50919050565b7f4552433732313a20617070726f76656420717565727920666f72206e6f6e657860008201527f697374656e7420746f6b656e0000000000000000000000000000000000000000602082015250565b6000611c71602c836115eb565b9150611c7c82611c15565b604082019050919050565b60006020820190508181036000830152611ca081611c64565b9050919050565b7f4552433732313a20617070726f76616c20746f2063757272656e74206f776e6560008201527f7200000000000000000000000000000000000000000000000000000000000000602082015250565b6000611d036021836115eb565b9150611d0e82611ca7565b604082019050919050565b60006020820190508181036000830152611d3281611cf6565b9050919050565b7f4552433732313a20617070726f76652063616c6c6572206973206e6f74206f7760008201527f6e6572206e6f7220617070726f76656420666f7220616c6c0000000000000000602082015250565b6000611d956038836115eb565b9150611da082611d39565b604082019050919050565b60006020820190508181036000830152611dc481611d88565b9050919050565b7f4552433732313a207472616e736665722063616c6c6572206973206e6f74206f60008201527f776e6572206e6f7220617070726f766564000000000000000000000000000000602082015250565b6000611e276031836115eb565b9150611e3282611dcb565b604082019050919050565b60006020820190508181036000830152611e5681611e1a565b9050919050565b7f4552433732313a206f776e657220717565727920666f72206e6f6e657869737460008201527f656e7420746f6b656e0000000000000000000000000000000000000000000000602082015250565b6000611eb96029836115eb565b9150611ec482611e5d565b604082019050919050565b60006020820190508181036000830152611ee881611eac565b9050919050565b7f4552433732313a2062616c616e636520717565727920666f7220746865207a6560008201527f726f206164647265737300000000000000000000000000000000000000000000602082015250565b6000611f4b602a836115eb565b9150611f5682611eef565b604082019050919050565b60006020820190508181036000830152611f7a81611f3e565b9050919050565b60008190508160005260206000209050919050565b60006020601f8301049050919050565b600082821b905092915050565b600060088302611fe37fffffffffffffffffffffffffffffffffffffffffffffffffffffffffffffffff82611fa6565b611fed8683611fa6565b95508019841693508086168417925050509392505050565b6000819050919050565b600061202a61202561202084611692565b612005565b611692565b9050919050565b6000819050919050565b6120448361200f565b61205861205082612031565b848454611fb3565b825550505050565b600090565b61206d612060565b61207881848461203b565b505050565b5b8181101561209c57612091600082612065565b60018101905061207e565b5050565b601f8211156120e1576120b281611f81565b6120bb84611f96565b810160208510156120ca578190505b6120de6120d685611f96565b83018261207d565b50505b505050565b600082821c905092915050565b6000612104600019846008026120e6565b1980831691505092915050565b600061211d83836120f3565b9150826002028217905092915050565b612136826115e0565b67ffffffffffffffff81111561214f5761214e611871565b5b6121598254611be4565b6121648282856120a0565b600060209050601f8311600181146121975760008415612185578287015190505b61218f8582612111565b8655506121f7565b601f1984166121a586611f81565b60005b828110156121cd578489015182556001820191506020850194506020810190506121a8565b868310156121ea57848901516121e6601f8916826120f3565b8355505b6001600288020188555050505b505050505050565b7f546f6b656e20646f6573206e6f74206578697374000000000000000000000000600082015250565b60006122356014836115eb565b9150612240826121ff565b602082019050919050565b6000602082019050818103600083015261226481612228565b9050919050565b7f4552433732313a206f70657261746f7220717565727920666f72206e6f6e657860008201527f697374656e7420746f6b656e0000000000000000000000000000000000000000602082015250565b60006122c7602c836115eb565b91506122d28261226b565b604082019050919050565b600060208201905081810360008301526122f6816122ba565b9050919050565b7f4552433732313a207472616e736665722066726f6d20696e636f72726563742060008201527f6f776e6572000000000000000000000000000000000000000000000000000000602082015250565b60006123596025836115eb565b9150612364826122fd565b604082019050919050565b600060208201905081810360008301526123888161234c565b9050919050565b7f4552433732313a207472616e7366657220746f20746865207a65726f2061646460008201527f7265737300000000000000000000000000000000000000000000000000000000602082015250565b60006123eb6024836115eb565b91506123f68261238f565b604082019050919050565b6000602082019050818103600083015261241a816123de565b9050919050565b7f4e487b7100000000000000000000000000000000000000000000000000000000600052601160045260246000fd5b600061245b82611692565b915061246683611692565b925082820390508181111561247e5761247d612421565b5b92915050565b600061248f82611692565b915061249a83611692565b92508282019050808211156124b2576124b1612421565b5b92915050565b7f4552433732313a206d696e7420746f20746865207a65726f2061646472657373600082015250565b60006124ee6020836115eb565b91506124f9826124b8565b602082019050919050565b6000602082019050818103600083015261251d816124e1565b9050919050565b7f4552433732313a20746f6b656e20616c7265616479206d696e74656400000000600082015250565b600061255a601c836115eb565b915061256582612524565b602082019050919050565b600060208201905081810360008301526125898161254d565b9050919050565b7f4552433732313a20617070726f766520746f2063616c6c657200000000000000600082015250565b60006125c66019836115eb565b91506125d182612590565b602082019050919050565b600060208201905081810360008301526125f5816125b9565b9050919050565b7f4552433732313a207472616e7366657220746f206e6f6e20455243373231526560008201527f63656976657220696d706c656d656e7465720000000000000000000000000000602082015250565b60006126586032836115eb565b9150612663826125fc565b604082019050919050565b600060208201905081810360008301526126878161264b565b9050919050565b600081519050919050565b600082825260208201905092915050565b60006126b58261268e565b6126bf8185612699565b93506126cf8185602086016115fc565b6126d881611626565b840191505092915050565b60006080820190506126f86000830187611727565b6127056020830186611727565b612712604083018561183d565b818103606083015261272481846126aa565b905095945050505050565b60008151905061273e81611551565b92915050565b60006020828403121561275a5761275961151b565b5b60006127688482850161272f565b9150509291505056fea2646970667358221220f991261cf621a262f274df1fe2946e4a84c8925a3b164371b938c6d669f03b8064736f6c63430008140033",
  "linkReferences": {},
  "deployedLinkReferences": {}
}