{"contracts/Athl3te.sol":{"Athl3te":{"abi":[{"anonymous":false,"inputs":[{"indexed":true,"internalType":"address","name":"userAddress","type":"address"},{"indexed":false,"internalType":"string","name":"activityId","type":"string"}],"name":"ActivityAdded","type":"event"},{"anonymous":false,"inputs":[{"indexed":true,"internalType":"string","name":"botName","type":"string"},{"indexed":false,"internalType":"string","name":"deploymentURL","type":"string"},{"indexed":false,"internalType":"uint16","name":"unlockCostInGWei","type":"uint16"}],"name":"BotCreated","type":"event"},{"anonymous":false,"inputs":[{"indexed":true,"internalType":"address","name":"userAddress","type":"address"},{"indexed":false,"internalType":"string","name":"botName","type":"string"},{"indexed":false,"internalType":"uint16","name":"messagesId","type":"uint16"}],"name":"BotPurchased","type":"event"},{"anonymous":false,"inputs":[{"indexed":true,"internalType":"string","name":"communityName","type":"string"},{"indexed":true,"internalType":"address","name":"creator","type":"address"},{"indexed":false,"internalType":"string","name":"botName","type":"string"},{"indexed":false,"internalType":"uint16","name":"messagesId","type":"uint16"}],"name":"CommunityRoomCreated","type":"event"},{"anonymous":false,"inputs":[{"indexed":true,"internalType":"address","name":"userAddress","type":"address"},{"indexed":false,"internalType":"string","name":"communityName","type":"string"}],"name":"CommunityRoomJoined","type":"event"},{"anonymous":false,"inputs":[{"indexed":true,"internalType":"address","name":"userAddress","type":"address"},{"indexed":false,"internalType":"string","name":"injuryId","type":"string"}],"name":"InjuryUpdated","type":"event"},{"anonymous":false,"inputs":[{"indexed":true,"internalType":"address","name":"userAddress","type":"address"},{"indexed":false,"internalType":"string","name":"goalId","type":"string"}],"name":"NutritionGoalAdded","type":"event"},{"anonymous":false,"inputs":[{"indexed":true,"internalType":"address","name":"userAddress","type":"address"},{"indexed":false,"internalType":"string","name":"goalId","type":"string"}],"name":"SportGoalAdded","type":"event"},{"anonymous":false,"inputs":[{"indexed":true,"internalType":"address","name":"userAddress","type":"address"},{"indexed":false,"internalType":"string","name":"metadata","type":"string"}],"name":"UserRegistered","type":"event"},{"inputs":[{"internalType":"string","name":"_activityId","type":"string"}],"name":"addActivity","outputs":[],"stateMutability":"nonpayable","type":"function"},{"inputs":[{"internalType":"string","name":"_goalId","type":"string"}],"name":"addNutritionGoal","outputs":[],"stateMutability":"nonpayable","type":"function"},{"inputs":[{"internalType":"string","name":"_goalId","type":"string"}],"name":"addSportGoal","outputs":[],"stateMutability":"nonpayable","type":"function"},{"inputs":[{"internalType":"uint256","name":"","type":"uint256"}],"name":"allBots","outputs":[{"internalType":"string","name":"botName","type":"string"},{"internalType":"string","name":"botImage","type":"string"},{"internalType":"string","name":"systemPrompt","type":"string"},{"internalType":"string","name":"botDescription","type":"string"},{"internalType":"string","name":"deploymentURL","type":"string"},{"internalType":"uint16","name":"unlockCostInGWei","type":"uint16"}],"stateMutability":"view","type":"function"},{"inputs":[{"internalType":"uint256","name":"","type":"uint256"}],"name":"allCommunityRooms","outputs":[{"internalType":"string","name":"communityName","type":"string"},{"internalType":"string","name":"communityImage","type":"string"},{"components":[{"internalType":"string","name":"botName","type":"string"},{"internalType":"string","name":"botImage","type":"string"},{"internalType":"string","name":"systemPrompt","type":"string"},{"internalType":"string","name":"botDescription","type":"string"},{"internalType":"string","name":"deploymentURL","type":"string"},{"internalType":"uint16","name":"unlockCostInGWei","type":"uint16"}],"internalType":"struct Athl3te.Bot","name":"bot","type":"tuple"},{"internalType":"address","name":"createdBy","type":"address"},{"internalType":"uint16","name":"messagesId","type":"uint16"}],"stateMutability":"view","type":"function"},{"inputs":[{"internalType":"uint256","name":"","type":"uint256"}],"name":"allUsers","outputs":[{"internalType":"string","name":"metadata","type":"string"},{"internalType":"string","name":"injuriesDescriptionId","type":"string"},{"internalType":"bool","name":"isRegistered","type":"bool"}],"stateMutability":"view","type":"function"},{"inputs":[{"internalType":"string","name":"_botName","type":"string"}],"name":"buyBot","outputs":[],"stateMutability":"payable","type":"function"},{"inputs":[{"internalType":"string","name":"_botName","type":"string"},{"internalType":"string","name":"_botImage","type":"string"},{"internalType":"string","name":"_systemPrompt","type":"string"},{"internalType":"string","name":"_botDescription","type":"string"},{"internalType":"string","name":"_deploymentURL","type":"string"},{"internalType":"uint16","name":"_unlockCostInGWei","type":"uint16"}],"name":"createBot","outputs":[],"stateMutability":"nonpayable","type":"function"},{"inputs":[{"internalType":"string","name":"_communityName","type":"string"},{"internalType":"string","name":"_communityImage","type":"string"},{"internalType":"string","name":"_botName","type":"string"}],"name":"createCommunityRoom","outputs":[],"stateMutability":"nonpayable","type":"function"},{"inputs":[],"name":"getAllCommunityRooms","outputs":[{"components":[{"internalType":"string","name":"communityName","type":"string"},{"internalType":"string","name":"communityImage","type":"string"},{"components":[{"internalType":"string","name":"botName","type":"string"},{"internalType":"string","name":"botImage","type":"string"},{"internalType":"string","name":"systemPrompt","type":"string"},{"internalType":"string","name":"botDescription","type":"string"},{"internalType":"string","name":"deploymentURL","type":"string"},{"internalType":"uint16","name":"unlockCostInGWei","type":"uint16"}],"internalType":"struct Athl3te.Bot","name":"bot","type":"tuple"},{"internalType":"address","name":"createdBy","type":"address"},{"internalType":"uint16","name":"messagesId","type":"uint16"},{"internalType":"string[]","name":"communitySportGoalIds","type":"string[]"},{"internalType":"address[]","name":"members","type":"address[]"}],"internalType":"struct Athl3te.CommunityRoom[]","name":"","type":"tuple[]"}],"stateMutability":"view","type":"function"},{"inputs":[{"internalType":"string","name":"_communityName","type":"string"}],"name":"getCommunityRoomDetails","outputs":[{"internalType":"string","name":"communityName","type":"string"},{"internalType":"string","name":"communityImage","type":"string"},{"components":[{"internalType":"string","name":"botName","type":"string"},{"internalType":"string","name":"botImage","type":"string"},{"internalType":"string","name":"systemPrompt","type":"string"},{"internalType":"string","name":"botDescription","type":"string"},{"internalType":"string","name":"deploymentURL","type":"string"},{"internalType":"uint16","name":"unlockCostInGWei","type":"uint16"}],"internalType":"struct Athl3te.Bot","name":"bot","type":"tuple"},{"internalType":"address","name":"createdBy","type":"address"},{"internalType":"uint256","name":"messagesId","type":"uint256"},{"internalType":"string[]","name":"communitySportGoalIds","type":"string[]"},{"internalType":"address[]","name":"members","type":"address[]"}],"stateMutability":"view","type":"function"},{"inputs":[],"name":"getUserCommunities","outputs":[{"internalType":"string[]","name":"","type":"string[]"}],"stateMutability":"view","type":"function"},{"inputs":[],"name":"getUserDetails","outputs":[{"internalType":"string","name":"metadata","type":"string"},{"internalType":"string[]","name":"activityIds","type":"string[]"},{"internalType":"string[]","name":"sportGoalIds","type":"string[]"},{"internalType":"string[]","name":"nutritionGoalIds","type":"string[]"},{"internalType":"string","name":"injuriesDescriptionId","type":"string"},{"components":[{"internalType":"string","name":"nftName","type":"string"},{"internalType":"string","name":"nftImage","type":"string"},{"internalType":"string","name":"description","type":"string"}],"internalType":"struct Athl3te.nft[]","name":"nfts","type":"tuple[]"},{"components":[{"components":[{"internalType":"string","name":"botName","type":"string"},{"internalType":"string","name":"botImage","type":"string"},{"internalType":"string","name":"systemPrompt","type":"string"},{"internalType":"string","name":"botDescription","type":"string"},{"internalType":"string","name":"deploymentURL","type":"string"},{"internalType":"uint16","name":"unlockCostInGWei","type":"uint16"}],"internalType":"struct Athl3te.Bot","name":"bot","type":"tuple"},{"internalType":"uint16","name":"messagesId","type":"uint16"}],"internalType":"struct Athl3te.PersonalAssistant[]","name":"assitants","type":"tuple[]"}],"stateMutability":"view","type":"function"},{"inputs":[{"internalType":"string","name":"_communityName","type":"string"}],"name":"joinCommunityRoom","outputs":[],"stateMutability":"nonpayable","type":"function"},{"inputs":[{"internalType":"string","name":"_metadata","type":"string"}],"name":"registerUser","outputs":[],"stateMutability":"nonpayable","type":"function"},{"inputs":[{"internalType":"string","name":"_injuryId","type":"string"}],"name":"updateInjury","outputs":[],"stateMutability":"nonpayable","type":"function"}],"evm":{"bytecode":{"linkReferences":{},"object":"608060405260008060006101000a81548161ffff021916908361ffff16021790555034801561002d57600080fd5b50615e4f806200003e6000396000f3fe6080604052600436106100f35760003560e01c806375ad64041161008a578063b23f686411610059578063b23f68641461034f578063b841e45a14610378578063b84f14b7146103a1578063fab6774d146103bd576100f3565b806375ad64041461028b578063903d3626146102b6578063942886be146102df578063a2bdedf414610310576100f3565b806343dfc73c116100c657806343dfc73c146101cd57806354d9ea15146101f6578063610693e714610239578063704f1b9414610262576100f3565b80631dd20a8b146100f857806322428b671461012157806329a7645d146101635780633fccb4a5146101a4575b600080fd5b34801561010457600080fd5b5061011f600480360381019061011a91906146b4565b6103e8565b005b34801561012d57600080fd5b5061014860048036038101906101439190614791565b610a3f565b60405161015a9695949392919061485a565b60405180910390f35b34801561016f57600080fd5b5061018a60048036038101906101859190614791565b610d41565b60405161019b959493929190614a1d565b60405180910390f35b3480156101b057600080fd5b506101cb60048036038101906101c69190614a85565b6111c9565b005b3480156101d957600080fd5b506101f460048036038101906101ef9190614a85565b61131e565b005b34801561020257600080fd5b5061021d60048036038101906102189190614a85565b61162a565b6040516102309796959493929190614c5d565b60405180910390f35b34801561024557600080fd5b50610260600480360381019061025b9190614a85565b611c98565b005b34801561026e57600080fd5b5061028960048036038101906102849190614a85565b611dc8565b005b34801561029757600080fd5b506102a0612181565b6040516102ad9190614cef565b60405180910390f35b3480156102c257600080fd5b506102dd60048036038101906102d89190614a85565b612329565b005b3480156102eb57600080fd5b506102f461247e565b6040516103079796959493929190614fd5565b60405180910390f35b34801561031c57600080fd5b5061033760048036038101906103329190614791565b612eb6565b60405161034693929190615090565b60405180910390f35b34801561035b57600080fd5b5061037660048036038101906103719190615101565b61300d565b005b34801561038457600080fd5b5061039f600480360381019061039a9190614a85565b613253565b005b6103bb60048036038101906103b69190614a85565b6133a8565b005b3480156103c957600080fd5b506103d26139fc565b6040516103df9190615489565b60405180910390f35b600083511161042c576040517f08c379a0000000000000000000000000000000000000000000000000000000008152600401610423906154f7565b60405180910390fd5b6000815111610470576040517f08c379a000000000000000000000000000000000000000000000000000000000815260040161046790615563565b60405180910390fd5b600060028260405161048291906155bf565b9081526020016040518091039020905060008160000180546104a390615605565b9050116104e5576040517f08c379a00000000000000000000000000000000000000000000000000000000081526004016104dc90615682565b60405180910390fd5b600080600081819054906101000a900461ffff1680929190610506906156d1565b91906101000a81548161ffff021916908361ffff1602179055509050600060038660405161053491906155bf565b908152602001604051809103902090508581600001908161055591906158a7565b508481600101908161056791906158a7565b50828160020160008201816000019081610581919061598f565b5060018201816001019081610596919061598f565b50600282018160020190816105ab919061598f565b50600382018160030190816105c0919061598f565b50600482018160040190816105d5919061598f565b506005820160009054906101000a900461ffff168160050160006101000a81548161ffff021916908361ffff160217905550905050818160080160146101000a81548161ffff021916908361ffff160217905550338160080160006101000a81548173ffffffffffffffffffffffffffffffffffffffff021916908373ffffffffffffffffffffffffffffffffffffffff160217905550600067ffffffffffffffff81111561068757610686614589565b5b6040519080825280602002602001820160405280156106b55781602001602082028036833780820191505090505b5081600a0190805190602001906106cd92919061406a565b50600067ffffffffffffffff8111156106e9576106e8614589565b5b60405190808252806020026020018201604052801561071c57816020015b60608152602001906001900390816107075790505b508160090190805190602001906107349291906140f4565b5080600a01339080600181540180825580915050600190039060005260206000200160009091909190916101000a81548173ffffffffffffffffffffffffffffffffffffffff021916908373ffffffffffffffffffffffffffffffffffffffff160217905550600160003373ffffffffffffffffffffffffffffffffffffffff1673ffffffffffffffffffffffffffffffffffffffff1681526020019081526020016000206008018690806001815401808255809150506001900390600052602060002001600090919091909150908161080e91906158a7565b5060068190806001815401808255809150506001900390600052602060002090600b02016000909190919091506000820181600001908161084f919061598f565b5060018201816001019081610864919061598f565b50600282018160020160008201816000019081610881919061598f565b5060018201816001019081610896919061598f565b50600282018160020190816108ab919061598f565b50600382018160030190816108c0919061598f565b50600482018160040190816108d5919061598f565b506005820160009054906101000a900461ffff168160050160006101000a81548161ffff021916908361ffff16021790555050506008820160009054906101000a900473ffffffffffffffffffffffffffffffffffffffff168160080160006101000a81548173ffffffffffffffffffffffffffffffffffffffff021916908373ffffffffffffffffffffffffffffffffffffffff1602179055506008820160149054906101000a900461ffff168160080160146101000a81548161ffff021916908361ffff16021790555060098201816009019080546109b792919061414d565b50600a820181600a019080546109ce9291906141aa565b5050503373ffffffffffffffffffffffffffffffffffffffff16866040516109f691906155bf565b60405180910390207ff085966e5f5bdaddeb4826a76affe2e722a984e4136d44f6576256c9d01761a88685604051610a2f929190615a77565b60405180910390a3505050505050565b60058181548110610a4f57600080fd5b9060005260206000209060060201600091509050806000018054610a7290615605565b80601f0160208091040260200160405190810160405280929190818152602001828054610a9e90615605565b8015610aeb5780601f10610ac057610100808354040283529160200191610aeb565b820191906000526020600020905b815481529060010190602001808311610ace57829003601f168201915b505050505090806001018054610b0090615605565b80601f0160208091040260200160405190810160405280929190818152602001828054610b2c90615605565b8015610b795780601f10610b4e57610100808354040283529160200191610b79565b820191906000526020600020905b815481529060010190602001808311610b5c57829003601f168201915b505050505090806002018054610b8e90615605565b80601f0160208091040260200160405190810160405280929190818152602001828054610bba90615605565b8015610c075780601f10610bdc57610100808354040283529160200191610c07565b820191906000526020600020905b815481529060010190602001808311610bea57829003601f168201915b505050505090806003018054610c1c90615605565b80601f0160208091040260200160405190810160405280929190818152602001828054610c4890615605565b8015610c955780601f10610c6a57610100808354040283529160200191610c95565b820191906000526020600020905b815481529060010190602001808311610c7857829003601f168201915b505050505090806004018054610caa90615605565b80601f0160208091040260200160405190810160405280929190818152602001828054610cd690615605565b8015610d235780601f10610cf857610100808354040283529160200191610d23565b820191906000526020600020905b815481529060010190602001808311610d0657829003601f168201915b5050505050908060050160009054906101000a900461ffff16905086565b60068181548110610d5157600080fd5b90600052602060002090600b0201600091509050806000018054610d7490615605565b80601f0160208091040260200160405190810160405280929190818152602001828054610da090615605565b8015610ded5780601f10610dc257610100808354040283529160200191610ded565b820191906000526020600020905b815481529060010190602001808311610dd057829003601f168201915b505050505090806001018054610e0290615605565b80601f0160208091040260200160405190810160405280929190818152602001828054610e2e90615605565b8015610e7b5780601f10610e5057610100808354040283529160200191610e7b565b820191906000526020600020905b815481529060010190602001808311610e5e57829003601f168201915b505050505090806002016040518060c0016040529081600082018054610ea090615605565b80601f0160208091040260200160405190810160405280929190818152602001828054610ecc90615605565b8015610f195780601f10610eee57610100808354040283529160200191610f19565b820191906000526020600020905b815481529060010190602001808311610efc57829003601f168201915b50505050508152602001600182018054610f3290615605565b80601f0160208091040260200160405190810160405280929190818152602001828054610f5e90615605565b8015610fab5780601f10610f8057610100808354040283529160200191610fab565b820191906000526020600020905b815481529060010190602001808311610f8e57829003601f168201915b50505050508152602001600282018054610fc490615605565b80601f0160208091040260200160405190810160405280929190818152602001828054610ff090615605565b801561103d5780601f106110125761010080835404028352916020019161103d565b820191906000526020600020905b81548152906001019060200180831161102057829003601f168201915b5050505050815260200160038201805461105690615605565b80601f016020809104026020016040519081016040528092919081815260200182805461108290615605565b80156110cf5780601f106110a4576101008083540402835291602001916110cf565b820191906000526020600020905b8154815290600101906020018083116110b257829003601f168201915b505050505081526020016004820180546110e890615605565b80601f016020809104026020016040519081016040528092919081815260200182805461111490615605565b80156111615780601f1061113657610100808354040283529160200191611161565b820191906000526020600020905b81548152906001019060200180831161114457829003601f168201915b505050505081526020016005820160009054906101000a900461ffff1661ffff1661ffff1681525050908060080160009054906101000a900473ffffffffffffffffffffffffffffffffffffffff16908060080160149054906101000a900461ffff16905085565b600160003373ffffffffffffffffffffffffffffffffffffffff1673ffffffffffffffffffffffffffffffffffffffff16815260200190815260200160002060070160009054906101000a900460ff16611258576040517f08c379a000000000000000000000000000000000000000000000000000000000815260040161124f90615af3565b60405180910390fd5b600160003373ffffffffffffffffffffffffffffffffffffffff1673ffffffffffffffffffffffffffffffffffffffff168152602001908152602001600020600201819080600181540180825580915050600190039060005260206000200160009091909190915090816112cc91906158a7565b503373ffffffffffffffffffffffffffffffffffffffff167fb8e50056db55e8c4b78f3aee6869149cc55c970443c6bfc700fa83a0b793ae2a826040516113139190615b13565b60405180910390a250565b600160003373ffffffffffffffffffffffffffffffffffffffff1673ffffffffffffffffffffffffffffffffffffffff16815260200190815260200160002060070160009054906101000a900460ff166113ad576040517f08c379a00000000000000000000000000000000000000000000000000000000081526004016113a490615af3565b60405180910390fd5b60006003826040516113bf91906155bf565b9081526020016040518091039020905060008160000180546113e090615605565b905011611422576040517f08c379a000000000000000000000000000000000000000000000000000000000815260040161141990615b81565b60405180910390fd5b60005b81600a01805490508161ffff1610156114fd573373ffffffffffffffffffffffffffffffffffffffff1682600a018261ffff168154811061146957611468615ba1565b5b9060005260206000200160009054906101000a900473ffffffffffffffffffffffffffffffffffffffff1673ffffffffffffffffffffffffffffffffffffffff16036114ea576040517f08c379a00000000000000000000000000000000000000000000000000000000081526004016114e190615c42565b60405180910390fd5b80806114f5906156d1565b915050611425565b5080600a01339080600181540180825580915050600190039060005260206000200160009091909190916101000a81548173ffffffffffffffffffffffffffffffffffffffff021916908373ffffffffffffffffffffffffffffffffffffffff160217905550600160003373ffffffffffffffffffffffffffffffffffffffff1673ffffffffffffffffffffffffffffffffffffffff168152602001908152602001600020600801829080600181540180825580915050600190039060005260206000200160009091909190915090816115d791906158a7565b503373ffffffffffffffffffffffffffffffffffffffff167f48bc22b3eab0c993cd29049a8e0a06fa00e13ec87407c1eabd56c3100205d6ad8360405161161e9190615b13565b60405180910390a25050565b6060806116356141fc565b600080606080600060038960405161164d91906155bf565b90815260200160405180910390209050600081600001805461166e90615605565b9050116116b0576040517f08c379a00000000000000000000000000000000000000000000000000000000081526004016116a790615b81565b60405180910390fd5b8060000181600101826002018360080160009054906101000a900473ffffffffffffffffffffffffffffffffffffffff168460080160149054906101000a900461ffff168560090186600a0186805461170890615605565b80601f016020809104026020016040519081016040528092919081815260200182805461173490615605565b80156117815780601f1061175657610100808354040283529160200191611781565b820191906000526020600020905b81548152906001019060200180831161176457829003601f168201915b5050505050965085805461179490615605565b80601f01602080910402602001604051908101604052809291908181526020018280546117c090615605565b801561180d5780601f106117e25761010080835404028352916020019161180d565b820191906000526020600020905b8154815290600101906020018083116117f057829003601f168201915b50505050509550846040518060c001604052908160008201805461183090615605565b80601f016020809104026020016040519081016040528092919081815260200182805461185c90615605565b80156118a95780601f1061187e576101008083540402835291602001916118a9565b820191906000526020600020905b81548152906001019060200180831161188c57829003601f168201915b505050505081526020016001820180546118c290615605565b80601f01602080910402602001604051908101604052809291908181526020018280546118ee90615605565b801561193b5780601f106119105761010080835404028352916020019161193b565b820191906000526020600020905b81548152906001019060200180831161191e57829003601f168201915b5050505050815260200160028201805461195490615605565b80601f016020809104026020016040519081016040528092919081815260200182805461198090615605565b80156119cd5780601f106119a2576101008083540402835291602001916119cd565b820191906000526020600020905b8154815290600101906020018083116119b057829003601f168201915b505050505081526020016003820180546119e690615605565b80601f0160208091040260200160405190810160405280929190818152602001828054611a1290615605565b8015611a5f5780601f10611a3457610100808354040283529160200191611a5f565b820191906000526020600020905b815481529060010190602001808311611a4257829003601f168201915b50505050508152602001600482018054611a7890615605565b80601f0160208091040260200160405190810160405280929190818152602001828054611aa490615605565b8015611af15780601f10611ac657610100808354040283529160200191611af1565b820191906000526020600020905b815481529060010190602001808311611ad457829003601f168201915b505050505081526020016005820160009054906101000a900461ffff1661ffff1661ffff168152505094508261ffff16925081805480602002602001604051908101604052809291908181526020016000905b82821015611bf0578382906000526020600020018054611b6390615605565b80601f0160208091040260200160405190810160405280929190818152602001828054611b8f90615605565b8015611bdc5780601f10611bb157610100808354040283529160200191611bdc565b820191906000526020600020905b815481529060010190602001808311611bbf57829003601f168201915b505050505081526020019060010190611b44565b50505050915080805480602002602001604051908101604052809291908181526020018280548015611c7757602002820191906000526020600020905b8160009054906101000a900473ffffffffffffffffffffffffffffffffffffffff1673ffffffffffffffffffffffffffffffffffffffff1681526020019060010190808311611c2d575b50505050509050975097509750975097509750975050919395979092949650565b600160003373ffffffffffffffffffffffffffffffffffffffff1673ffffffffffffffffffffffffffffffffffffffff16815260200190815260200160002060070160009054906101000a900460ff16611d27576040517f08c379a0000000000000000000000000000000000000000000000000000000008152600401611d1e90615af3565b60405180910390fd5b80600160003373ffffffffffffffffffffffffffffffffffffffff1673ffffffffffffffffffffffffffffffffffffffff1681526020019081526020016000206005019081611d7691906158a7565b503373ffffffffffffffffffffffffffffffffffffffff167ffb02f8b5008bb4e6551ac10938980a836239b9187014ad8bd7d4166234196a9982604051611dbd9190615b13565b60405180910390a250565b600160003373ffffffffffffffffffffffffffffffffffffffff1673ffffffffffffffffffffffffffffffffffffffff16815260200190815260200160002060070160009054906101000a900460ff1615611e58576040517f08c379a0000000000000000000000000000000000000000000000000000000008152600401611e4f90615cae565b60405180910390fd5b6000600160003373ffffffffffffffffffffffffffffffffffffffff1673ffffffffffffffffffffffffffffffffffffffff168152602001908152602001600020905060018160070160006101000a81548160ff02191690831515021790555081816000019081611ec991906158a7565b50600067ffffffffffffffff811115611ee557611ee4614589565b5b604051908082528060200260200182016040528015611f1857816020015b6060815260200190600190039081611f035790505b50816001019080519060200190611f309291906140f4565b50600067ffffffffffffffff811115611f4c57611f4b614589565b5b604051908082528060200260200182016040528015611f7f57816020015b6060815260200190600190039081611f6a5790505b50816002019080519060200190611f979291906140f4565b50600067ffffffffffffffff811115611fb357611fb2614589565b5b604051908082528060200260200182016040528015611fe657816020015b6060815260200190600190039081611fd15790505b50816003019080519060200190611ffe9291906140f4565b506040518060200160405280600081525081600501908161201f91906158a7565b50600481908060018154018082558091505060019003906000526020600020906009020160009091909190915060008201816000019081612060919061598f565b50600182018160010190805461207792919061414d565b50600282018160020190805461208e92919061414d565b5060038201816003019080546120a592919061414d565b5060048201816004019080546120bc929190614236565b50600582018160050190816120d1919061598f565b5060068201816006019080546120e8929190614363565b506007820160009054906101000a900460ff168160070160006101000a81548160ff021916908315150217905550600882018160080190805461212c92919061414d565b5050503373ffffffffffffffffffffffffffffffffffffffff167f48cac28ad4dc618e15f4c2dd5e97751182f166de97b25618318b2112aa951a2f836040516121759190615b13565b60405180910390a25050565b6060600160003373ffffffffffffffffffffffffffffffffffffffff1673ffffffffffffffffffffffffffffffffffffffff16815260200190815260200160002060070160009054906101000a900460ff16612212576040517f08c379a000000000000000000000000000000000000000000000000000000000815260040161220990615af3565b60405180910390fd5b600160003373ffffffffffffffffffffffffffffffffffffffff1673ffffffffffffffffffffffffffffffffffffffff168152602001908152602001600020600801805480602002602001604051908101604052809291908181526020016000905b8282101561232057838290600052602060002001805461229390615605565b80601f01602080910402602001604051908101604052809291908181526020018280546122bf90615605565b801561230c5780601f106122e15761010080835404028352916020019161230c565b820191906000526020600020905b8154815290600101906020018083116122ef57829003601f168201915b505050505081526020019060010190612274565b50505050905090565b600160003373ffffffffffffffffffffffffffffffffffffffff1673ffffffffffffffffffffffffffffffffffffffff16815260200190815260200160002060070160009054906101000a900460ff166123b8576040517f08c379a00000000000000000000000000000000000000000000000000000000081526004016123af90615af3565b60405180910390fd5b600160003373ffffffffffffffffffffffffffffffffffffffff1673ffffffffffffffffffffffffffffffffffffffff1681526020019081526020016000206003018190806001815401808255809150506001900390600052602060002001600090919091909150908161242c91906158a7565b503373ffffffffffffffffffffffffffffffffffffffff167f9fea722a78bc03b22869a8fa8db043e542f7b63a042973693e67dfb1c5baaea4826040516124739190615b13565b60405180910390a250565b6060806060806060806060600160003373ffffffffffffffffffffffffffffffffffffffff1673ffffffffffffffffffffffffffffffffffffffff16815260200190815260200160002060070160009054906101000a900460ff16612518576040517f08c379a000000000000000000000000000000000000000000000000000000000815260040161250f90615af3565b60405180910390fd5b6000600160003373ffffffffffffffffffffffffffffffffffffffff1673ffffffffffffffffffffffffffffffffffffffff16815260200190815260200160002090508060000181600101826002018360030184600501856006018660040186805461258390615605565b80601f01602080910402602001604051908101604052809291908181526020018280546125af90615605565b80156125fc5780601f106125d1576101008083540402835291602001916125fc565b820191906000526020600020905b8154815290600101906020018083116125df57829003601f168201915b5050505050965085805480602002602001604051908101604052809291908181526020016000905b828210156126d057838290600052602060002001805461264390615605565b80601f016020809104026020016040519081016040528092919081815260200182805461266f90615605565b80156126bc5780601f10612691576101008083540402835291602001916126bc565b820191906000526020600020905b81548152906001019060200180831161269f57829003601f168201915b505050505081526020019060010190612624565b50505050955084805480602002602001604051908101604052809291908181526020016000905b828210156127a357838290600052602060002001805461271690615605565b80601f016020809104026020016040519081016040528092919081815260200182805461274290615605565b801561278f5780601f106127645761010080835404028352916020019161278f565b820191906000526020600020905b81548152906001019060200180831161277257829003601f168201915b5050505050815260200190600101906126f7565b50505050945083805480602002602001604051908101604052809291908181526020016000905b828210156128765783829060005260206000200180546127e990615605565b80601f016020809104026020016040519081016040528092919081815260200182805461281590615605565b80156128625780601f1061283757610100808354040283529160200191612862565b820191906000526020600020905b81548152906001019060200180831161284557829003601f168201915b5050505050815260200190600101906127ca565b50505050935082805461288890615605565b80601f01602080910402602001604051908101604052809291908181526020018280546128b490615605565b80156129015780601f106128d657610100808354040283529160200191612901565b820191906000526020600020905b8154815290600101906020018083116128e457829003601f168201915b5050505050925081805480602002602001604051908101604052809291908181526020016000905b82821015612b11578382906000526020600020906003020160405180606001604052908160008201805461295c90615605565b80601f016020809104026020016040519081016040528092919081815260200182805461298890615605565b80156129d55780601f106129aa576101008083540402835291602001916129d5565b820191906000526020600020905b8154815290600101906020018083116129b857829003601f168201915b505050505081526020016001820180546129ee90615605565b80601f0160208091040260200160405190810160405280929190818152602001828054612a1a90615605565b8015612a675780601f10612a3c57610100808354040283529160200191612a67565b820191906000526020600020905b815481529060010190602001808311612a4a57829003601f168201915b50505050508152602001600282018054612a8090615605565b80601f0160208091040260200160405190810160405280929190818152602001828054612aac90615605565b8015612af95780601f10612ace57610100808354040283529160200191612af9565b820191906000526020600020905b815481529060010190602001808311612adc57829003601f168201915b50505050508152505081526020019060010190612929565b50505050915080805480602002602001604051908101604052809291908181526020016000905b82821015612e985783829060005260206000209060070201604051806040016040529081600082016040518060c0016040529081600082018054612b7b90615605565b80601f0160208091040260200160405190810160405280929190818152602001828054612ba790615605565b8015612bf45780601f10612bc957610100808354040283529160200191612bf4565b820191906000526020600020905b815481529060010190602001808311612bd757829003601f168201915b50505050508152602001600182018054612c0d90615605565b80601f0160208091040260200160405190810160405280929190818152602001828054612c3990615605565b8015612c865780601f10612c5b57610100808354040283529160200191612c86565b820191906000526020600020905b815481529060010190602001808311612c6957829003601f168201915b50505050508152602001600282018054612c9f90615605565b80601f0160208091040260200160405190810160405280929190818152602001828054612ccb90615605565b8015612d185780601f10612ced57610100808354040283529160200191612d18565b820191906000526020600020905b815481529060010190602001808311612cfb57829003601f168201915b50505050508152602001600382018054612d3190615605565b80601f0160208091040260200160405190810160405280929190818152602001828054612d5d90615605565b8015612daa5780601f10612d7f57610100808354040283529160200191612daa565b820191906000526020600020905b815481529060010190602001808311612d8d57829003601f168201915b50505050508152602001600482018054612dc390615605565b80601f0160208091040260200160405190810160405280929190818152602001828054612def90615605565b8015612e3c5780601f10612e1157610100808354040283529160200191612e3c565b820191906000526020600020905b815481529060010190602001808311612e1f57829003601f168201915b505050505081526020016005820160009054906101000a900461ffff1661ffff1661ffff168152505081526020016006820160009054906101000a900461ffff1661ffff1661ffff168152505081526020019060010190612b38565b50505050905097509750975097509750975097505090919293949596565b60048181548110612ec657600080fd5b9060005260206000209060090201600091509050806000018054612ee990615605565b80601f0160208091040260200160405190810160405280929190818152602001828054612f1590615605565b8015612f625780601f10612f3757610100808354040283529160200191612f62565b820191906000526020600020905b815481529060010190602001808311612f4557829003601f168201915b505050505090806005018054612f7790615605565b80601f0160208091040260200160405190810160405280929190818152602001828054612fa390615605565b8015612ff05780601f10612fc557610100808354040283529160200191612ff0565b820191906000526020600020905b815481529060010190602001808311612fd357829003601f168201915b5050505050908060070160009054906101000a900460ff16905083565b6000865111613051576040517f08c379a000000000000000000000000000000000000000000000000000000000815260040161304890615563565b60405180910390fd5b60008161ffff1611613098576040517f08c379a000000000000000000000000000000000000000000000000000000000815260040161308f90615d40565b60405180910390fd5b60006002876040516130aa91906155bf565b90815260200160405180910390209050868160000190816130cb91906158a7565b50858160010190816130dd91906158a7565b50848160020190816130ef91906158a7565b508381600301908161310191906158a7565b508281600401908161311391906158a7565b50818160050160006101000a81548161ffff021916908361ffff160217905550600581908060018154018082558091505060019003906000526020600020906006020160009091909190915060008201816000019081613173919061598f565b5060018201816001019081613188919061598f565b506002820181600201908161319d919061598f565b50600382018160030190816131b2919061598f565b50600482018160040190816131c7919061598f565b506005820160009054906101000a900461ffff168160050160006101000a81548161ffff021916908361ffff16021790555050508660405161320991906155bf565b60405180910390207f3b9e932f435ec1da30497b3e70808ce4f0ffe940f26624043073cf416d3f96938484604051613242929190615a77565b60405180910390a250505050505050565b600160003373ffffffffffffffffffffffffffffffffffffffff1673ffffffffffffffffffffffffffffffffffffffff16815260200190815260200160002060070160009054906101000a900460ff166132e2576040517f08c379a00000000000000000000000000000000000000000000000000000000081526004016132d990615af3565b60405180910390fd5b600160003373ffffffffffffffffffffffffffffffffffffffff1673ffffffffffffffffffffffffffffffffffffffff1681526020019081526020016000206001018190806001815401808255809150506001900390600052602060002001600090919091909150908161335691906158a7565b503373ffffffffffffffffffffffffffffffffffffffff167f9dc5c994cee1ffa2e2c3fc4d4d0d9e24511eb0ceef3efe59ff6f57eda374bb278260405161339d9190615b13565b60405180910390a250565b600160003373ffffffffffffffffffffffffffffffffffffffff1673ffffffffffffffffffffffffffffffffffffffff16815260200190815260200160002060070160009054906101000a900460ff16613437576040517f08c379a000000000000000000000000000000000000000000000000000000000815260040161342e90615af3565b60405180910390fd5b600060028260405161344991906155bf565b90815260200160405180910390209050600081600001805461346a90615605565b9050116134ac576040517f08c379a00000000000000000000000000000000000000000000000000000000081526004016134a390615682565b60405180910390fd5b633b9aca008160050160009054906101000a900461ffff1661ffff166134d29190615d70565b63ffffffff1634101561351a576040517f08c379a000000000000000000000000000000000000000000000000000000000815260040161351190615df9565b60405180910390fd5b600080600081819054906101000a900461ffff168092919061353b906156d1565b91906101000a81548161ffff021916908361ffff160217905550905060006040518060400160405280846040518060c001604052908160008201805461358090615605565b80601f01602080910402602001604051908101604052809291908181526020018280546135ac90615605565b80156135f95780601f106135ce576101008083540402835291602001916135f9565b820191906000526020600020905b8154815290600101906020018083116135dc57829003601f168201915b5050505050815260200160018201805461361290615605565b80601f016020809104026020016040519081016040528092919081815260200182805461363e90615605565b801561368b5780601f106136605761010080835404028352916020019161368b565b820191906000526020600020905b81548152906001019060200180831161366e57829003601f168201915b505050505081526020016002820180546136a490615605565b80601f01602080910402602001604051908101604052809291908181526020018280546136d090615605565b801561371d5780601f106136f25761010080835404028352916020019161371d565b820191906000526020600020905b81548152906001019060200180831161370057829003601f168201915b5050505050815260200160038201805461373690615605565b80601f016020809104026020016040519081016040528092919081815260200182805461376290615605565b80156137af5780601f10613784576101008083540402835291602001916137af565b820191906000526020600020905b81548152906001019060200180831161379257829003601f168201915b505050505081526020016004820180546137c890615605565b80601f01602080910402602001604051908101604052809291908181526020018280546137f490615605565b80156138415780601f1061381657610100808354040283529160200191613841565b820191906000526020600020905b81548152906001019060200180831161382457829003601f168201915b505050505081526020016005820160009054906101000a900461ffff1661ffff1661ffff168152505081526020018361ffff168152509050600160003373ffffffffffffffffffffffffffffffffffffffff1673ffffffffffffffffffffffffffffffffffffffff168152602001908152602001600020600401819080600181540180825580915050600190039060005260206000209060070201600090919091909150600082015181600001600082015181600001908161390391906158a7565b50602082015181600101908161391991906158a7565b50604082015181600201908161392f91906158a7565b50606082015181600301908161394591906158a7565b50608082015181600401908161395b91906158a7565b5060a08201518160050160006101000a81548161ffff021916908361ffff160217905550505060208201518160060160006101000a81548161ffff021916908361ffff16021790555050503373ffffffffffffffffffffffffffffffffffffffff167f4aa5059bbf6ae1de63bcd4cacec483049be0f12780453958e246d0c34d87c84485846040516139ee929190615a77565b60405180910390a250505050565b60606006805480602002602001604051908101604052809291908181526020016000905b8282101561406157838290600052602060002090600b02016040518060e0016040529081600082018054613a5390615605565b80601f0160208091040260200160405190810160405280929190818152602001828054613a7f90615605565b8015613acc5780601f10613aa157610100808354040283529160200191613acc565b820191906000526020600020905b815481529060010190602001808311613aaf57829003601f168201915b50505050508152602001600182018054613ae590615605565b80601f0160208091040260200160405190810160405280929190818152602001828054613b1190615605565b8015613b5e5780601f10613b3357610100808354040283529160200191613b5e565b820191906000526020600020905b815481529060010190602001808311613b4157829003601f168201915b50505050508152602001600282016040518060c0016040529081600082018054613b8790615605565b80601f0160208091040260200160405190810160405280929190818152602001828054613bb390615605565b8015613c005780601f10613bd557610100808354040283529160200191613c00565b820191906000526020600020905b815481529060010190602001808311613be357829003601f168201915b50505050508152602001600182018054613c1990615605565b80601f0160208091040260200160405190810160405280929190818152602001828054613c4590615605565b8015613c925780601f10613c6757610100808354040283529160200191613c92565b820191906000526020600020905b815481529060010190602001808311613c7557829003601f168201915b50505050508152602001600282018054613cab90615605565b80601f0160208091040260200160405190810160405280929190818152602001828054613cd790615605565b8015613d245780601f10613cf957610100808354040283529160200191613d24565b820191906000526020600020905b815481529060010190602001808311613d0757829003601f168201915b50505050508152602001600382018054613d3d90615605565b80601f0160208091040260200160405190810160405280929190818152602001828054613d6990615605565b8015613db65780601f10613d8b57610100808354040283529160200191613db6565b820191906000526020600020905b815481529060010190602001808311613d9957829003601f168201915b50505050508152602001600482018054613dcf90615605565b80601f0160208091040260200160405190810160405280929190818152602001828054613dfb90615605565b8015613e485780601f10613e1d57610100808354040283529160200191613e48565b820191906000526020600020905b815481529060010190602001808311613e2b57829003601f168201915b505050505081526020016005820160009054906101000a900461ffff1661ffff1661ffff168152505081526020016008820160009054906101000a900473ffffffffffffffffffffffffffffffffffffffff1673ffffffffffffffffffffffffffffffffffffffff1673ffffffffffffffffffffffffffffffffffffffff1681526020016008820160149054906101000a900461ffff1661ffff1661ffff16815260200160098201805480602002602001604051908101604052809291908181526020016000905b82821015613fbc578382906000526020600020018054613f2f90615605565b80601f0160208091040260200160405190810160405280929190818152602001828054613f5b90615605565b8015613fa85780601f10613f7d57610100808354040283529160200191613fa8565b820191906000526020600020905b815481529060010190602001808311613f8b57829003601f168201915b505050505081526020019060010190613f10565b505050508152602001600a820180548060200260200160405190810160405280929190818152602001828054801561404957602002820191906000526020600020905b8160009054906101000a900473ffffffffffffffffffffffffffffffffffffffff1673ffffffffffffffffffffffffffffffffffffffff1681526020019060010190808311613fff575b50505050508152505081526020019060010190613a20565b50505050905090565b8280548282559060005260206000209081019282156140e3579160200282015b828111156140e25782518260006101000a81548173ffffffffffffffffffffffffffffffffffffffff021916908373ffffffffffffffffffffffffffffffffffffffff1602179055509160200191906001019061408a565b5b5090506140f091906143fa565b5090565b82805482825590600052602060002090810192821561413c579160200282015b8281111561413b57825182908161412b91906158a7565b5091602001919060010190614114565b5b5090506141499190614417565b5090565b8280548282559060005260206000209081019282156141995760005260206000209182015b828111156141985782829081614188919061598f565b5091600101919060010190614172565b5b5090506141a69190614417565b5090565b8280548282559060005260206000209081019282156141eb5760005260206000209182015b828111156141ea5782548255916001019190600101906141cf565b5b5090506141f891906143fa565b5090565b6040518060c001604052806060815260200160608152602001606081526020016060815260200160608152602001600061ffff1681525090565b8280548282559060005260206000209060070281019282156143525760005260206000209160070282015b82811115614351578282600082018160000160008201816000019081614287919061598f565b506001820181600101908161429c919061598f565b50600282018160020190816142b1919061598f565b50600382018160030190816142c6919061598f565b50600482018160040190816142db919061598f565b506005820160009054906101000a900461ffff168160050160006101000a81548161ffff021916908361ffff16021790555050506006820160009054906101000a900461ffff168160060160006101000a81548161ffff021916908361ffff160217905550505091600701919060070190614261565b5b50905061435f919061443b565b5090565b8280548282559060005260206000209060030281019282156143e95760005260206000209160030282015b828111156143e8578282600082018160000190816143ac919061598f565b50600182018160010190816143c1919061598f565b50600282018160020190816143d6919061598f565b5050509160030191906003019061438e565b5b5090506143f691906144d3565b5090565b5b808211156144135760008160009055506001016143fb565b5090565b5b80821115614437576000818161442e919061451a565b50600101614418565b5090565b5b808211156144cf5760008082016000808201600061445a919061451a565b60018201600061446a919061451a565b60028201600061447a919061451a565b60038201600061448a919061451a565b60048201600061449a919061451a565b6005820160006101000a81549061ffff021916905550506006820160006101000a81549061ffff02191690555060070161443c565b5090565b5b8082111561451657600080820160006144ed919061451a565b6001820160006144fd919061451a565b60028201600061450d919061451a565b506003016144d4565b5090565b50805461452690615605565b6000825580601f106145385750614557565b601f01602090049060005260206000209081019061455691906143fa565b5b50565b6000604051905090565b600080fd5b600080fd5b600080fd5b600080fd5b6000601f19601f8301169050919050565b7f4e487b7100000000000000000000000000000000000000000000000000000000600052604160045260246000fd5b6145c182614578565b810181811067ffffffffffffffff821117156145e0576145df614589565b5b80604052505050565b60006145f361455a565b90506145ff82826145b8565b919050565b600067ffffffffffffffff82111561461f5761461e614589565b5b61462882614578565b9050602081019050919050565b82818337600083830152505050565b600061465761465284614604565b6145e9565b90508281526020810184848401111561467357614672614573565b5b61467e848285614635565b509392505050565b600082601f83011261469b5761469a61456e565b5b81356146ab848260208601614644565b91505092915050565b6000806000606084860312156146cd576146cc614564565b5b600084013567ffffffffffffffff8111156146eb576146ea614569565b5b6146f786828701614686565b935050602084013567ffffffffffffffff81111561471857614717614569565b5b61472486828701614686565b925050604084013567ffffffffffffffff81111561474557614744614569565b5b61475186828701614686565b9150509250925092565b6000819050919050565b61476e8161475b565b811461477957600080fd5b50565b60008135905061478b81614765565b92915050565b6000602082840312156147a7576147a6614564565b5b60006147b58482850161477c565b91505092915050565b600081519050919050565b600082825260208201905092915050565b60005b838110156147f85780820151818401526020810190506147dd565b60008484015250505050565b600061480f826147be565b61481981856147c9565b93506148298185602086016147da565b61483281614578565b840191505092915050565b600061ffff82169050919050565b6148548161483d565b82525050565b600060c08201905081810360008301526148748189614804565b905081810360208301526148888188614804565b9050818103604083015261489c8187614804565b905081810360608301526148b08186614804565b905081810360808301526148c48185614804565b90506148d360a083018461484b565b979650505050505050565b600082825260208201905092915050565b60006148fa826147be565b61490481856148de565b93506149148185602086016147da565b61491d81614578565b840191505092915050565b6149318161483d565b82525050565b600060c083016000830151848203600086015261495482826148ef565b9150506020830151848203602086015261496e82826148ef565b9150506040830151848203604086015261498882826148ef565b915050606083015184820360608601526149a282826148ef565b915050608083015184820360808601526149bc82826148ef565b91505060a08301516149d160a0860182614928565b508091505092915050565b600073ffffffffffffffffffffffffffffffffffffffff82169050919050565b6000614a07826149dc565b9050919050565b614a17816149fc565b82525050565b600060a0820190508181036000830152614a378188614804565b90508181036020830152614a4b8187614804565b90508181036040830152614a5f8186614937565b9050614a6e6060830185614a0e565b614a7b608083018461484b565b9695505050505050565b600060208284031215614a9b57614a9a614564565b5b600082013567ffffffffffffffff811115614ab957614ab8614569565b5b614ac584828501614686565b91505092915050565b614ad78161475b565b82525050565b600081519050919050565b600082825260208201905092915050565b6000819050602082019050919050565b6000614b1583836148ef565b905092915050565b6000602082019050919050565b6000614b3582614add565b614b3f8185614ae8565b935083602082028501614b5185614af9565b8060005b85811015614b8d5784840389528151614b6e8582614b09565b9450614b7983614b1d565b925060208a01995050600181019050614b55565b50829750879550505050505092915050565b600081519050919050565b600082825260208201905092915050565b6000819050602082019050919050565b614bd4816149fc565b82525050565b6000614be68383614bcb565b60208301905092915050565b6000602082019050919050565b6000614c0a82614b9f565b614c148185614baa565b9350614c1f83614bbb565b8060005b83811015614c50578151614c378882614bda565b9750614c4283614bf2565b925050600181019050614c23565b5085935050505092915050565b600060e0820190508181036000830152614c77818a614804565b90508181036020830152614c8b8189614804565b90508181036040830152614c9f8188614937565b9050614cae6060830187614a0e565b614cbb6080830186614ace565b81810360a0830152614ccd8185614b2a565b905081810360c0830152614ce18184614bff565b905098975050505050505050565b60006020820190508181036000830152614d098184614b2a565b905092915050565b600081519050919050565b600082825260208201905092915050565b6000819050602082019050919050565b60006060830160008301518482036000860152614d5a82826148ef565b91505060208301518482036020860152614d7482826148ef565b91505060408301518482036040860152614d8e82826148ef565b9150508091505092915050565b6000614da78383614d3d565b905092915050565b6000602082019050919050565b6000614dc782614d11565b614dd18185614d1c565b935083602082028501614de385614d2d565b8060005b85811015614e1f5784840389528151614e008582614d9b565b9450614e0b83614daf565b925060208a01995050600181019050614de7565b50829750879550505050505092915050565b600081519050919050565b600082825260208201905092915050565b6000819050602082019050919050565b600060c0830160008301518482036000860152614e7a82826148ef565b91505060208301518482036020860152614e9482826148ef565b91505060408301518482036040860152614eae82826148ef565b91505060608301518482036060860152614ec882826148ef565b91505060808301518482036080860152614ee282826148ef565b91505060a0830151614ef760a0860182614928565b508091505092915050565b60006040830160008301518482036000860152614f1f8282614e5d565b9150506020830151614f346020860182614928565b508091505092915050565b6000614f4b8383614f02565b905092915050565b6000602082019050919050565b6000614f6b82614e31565b614f758185614e3c565b935083602082028501614f8785614e4d565b8060005b85811015614fc35784840389528151614fa48582614f3f565b9450614faf83614f53565b925060208a01995050600181019050614f8b565b50829750879550505050505092915050565b600060e0820190508181036000830152614fef818a614804565b905081810360208301526150038189614b2a565b905081810360408301526150178188614b2a565b9050818103606083015261502b8187614b2a565b9050818103608083015261503f8186614804565b905081810360a08301526150538185614dbc565b905081810360c08301526150678184614f60565b905098975050505050505050565b60008115159050919050565b61508a81615075565b82525050565b600060608201905081810360008301526150aa8186614804565b905081810360208301526150be8185614804565b90506150cd6040830184615081565b949350505050565b6150de8161483d565b81146150e957600080fd5b50565b6000813590506150fb816150d5565b92915050565b60008060008060008060c0878903121561511e5761511d614564565b5b600087013567ffffffffffffffff81111561513c5761513b614569565b5b61514889828a01614686565b965050602087013567ffffffffffffffff81111561516957615168614569565b5b61517589828a01614686565b955050604087013567ffffffffffffffff81111561519657615195614569565b5b6151a289828a01614686565b945050606087013567ffffffffffffffff8111156151c3576151c2614569565b5b6151cf89828a01614686565b935050608087013567ffffffffffffffff8111156151f0576151ef614569565b5b6151fc89828a01614686565b92505060a061520d89828a016150ec565b9150509295509295509295565b600081519050919050565b600082825260208201905092915050565b6000819050602082019050919050565b600082825260208201905092915050565b600061526282614add565b61526c8185615246565b93508360208202850161527e85614af9565b8060005b858110156152ba578484038952815161529b8582614b09565b94506152a683614b1d565b925060208a01995050600181019050615282565b50829750879550505050505092915050565b600082825260208201905092915050565b60006152e882614b9f565b6152f281856152cc565b93506152fd83614bbb565b8060005b8381101561532e5781516153158882614bda565b975061532083614bf2565b925050600181019050615301565b5085935050505092915050565b600060e083016000830151848203600086015261535882826148ef565b9150506020830151848203602086015261537282826148ef565b9150506040830151848203604086015261538c8282614e5d565b91505060608301516153a16060860182614bcb565b5060808301516153b46080860182614928565b5060a083015184820360a08601526153cc8282615257565b91505060c083015184820360c08601526153e682826152dd565b9150508091505092915050565b60006153ff838361533b565b905092915050565b6000602082019050919050565b600061541f8261521a565b6154298185615225565b93508360208202850161543b85615236565b8060005b85811015615477578484038952815161545885826153f3565b945061546383615407565b925060208a0199505060018101905061543f565b50829750879550505050505092915050565b600060208201905081810360008301526154a38184615414565b905092915050565b7f436f6d6d756e697479206e616d652063616e6e6f7420626520656d7074792100600082015250565b60006154e1601f836147c9565b91506154ec826154ab565b602082019050919050565b60006020820190508181036000830152615510816154d4565b9050919050565b7f426f74206e616d652063616e6e6f7420626520656d7074792100000000000000600082015250565b600061554d6019836147c9565b915061555882615517565b602082019050919050565b6000602082019050818103600083015261557c81615540565b9050919050565b600081905092915050565b6000615599826147be565b6155a38185615583565b93506155b38185602086016147da565b80840191505092915050565b60006155cb828461558e565b915081905092915050565b7f4e487b7100000000000000000000000000000000000000000000000000000000600052602260045260246000fd5b6000600282049050600182168061561d57607f821691505b6020821081036156305761562f6155d6565b5b50919050565b7f426f7420646f6573206e6f742065786973742100000000000000000000000000600082015250565b600061566c6013836147c9565b915061567782615636565b602082019050919050565b6000602082019050818103600083015261569b8161565f565b9050919050565b7f4e487b7100000000000000000000000000000000000000000000000000000000600052601160045260246000fd5b60006156dc8261483d565b915061ffff82036156f0576156ef6156a2565b5b600182019050919050565b60008190508160005260206000209050919050565b60006020601f8301049050919050565b600082821b905092915050565b60006008830261575d7fffffffffffffffffffffffffffffffffffffffffffffffffffffffffffffffff82615720565b6157678683615720565b95508019841693508086168417925050509392505050565b6000819050919050565b60006157a461579f61579a8461475b565b61577f565b61475b565b9050919050565b6000819050919050565b6157be83615789565b6157d26157ca826157ab565b84845461572d565b825550505050565b600090565b6157e76157da565b6157f28184846157b5565b505050565b5b818110156158165761580b6000826157df565b6001810190506157f8565b5050565b601f82111561585b5761582c816156fb565b61583584615710565b81016020851015615844578190505b61585861585085615710565b8301826157f7565b50505b505050565b600082821c905092915050565b600061587e60001984600802615860565b1980831691505092915050565b6000615897838361586d565b9150826002028217905092915050565b6158b0826147be565b67ffffffffffffffff8111156158c9576158c8614589565b5b6158d38254615605565b6158de82828561581a565b600060209050601f83116001811461591157600084156158ff578287015190505b615909858261588b565b865550615971565b601f19841661591f866156fb565b60005b8281101561594757848901518255600182019150602085019450602081019050615922565b868310156159645784890151615960601f89168261586d565b8355505b6001600288020188555050505b505050505050565b60008154905061598881615605565b9050919050565b81810361599d575050615a75565b6159a682615979565b67ffffffffffffffff8111156159bf576159be614589565b5b6159c98254615605565b6159d482828561581a565b6000601f831160018114615a0357600084156159f1578287015490505b6159fb858261588b565b865550615a6e565b601f198416615a11876156fb565b9650615a1c866156fb565b60005b82811015615a4457848901548255600182019150600185019450602081019050615a1f565b86831015615a615784890154615a5d601f89168261586d565b8355505b6001600288020188555050505b5050505050505b565b60006040820190508181036000830152615a918185614804565b9050615aa0602083018461484b565b9392505050565b7f55736572206e6f74207265676973746572656421000000000000000000000000600082015250565b6000615add6014836147c9565b9150615ae882615aa7565b602082019050919050565b60006020820190508181036000830152615b0c81615ad0565b9050919050565b60006020820190508181036000830152615b2d8184614804565b905092915050565b7f436f6d6d756e69747920726f6f6d20646f6573206e6f74206578697374210000600082015250565b6000615b6b601e836147c9565b9150615b7682615b35565b602082019050919050565b60006020820190508181036000830152615b9a81615b5e565b9050919050565b7f4e487b7100000000000000000000000000000000000000000000000000000000600052603260045260246000fd5b7f416c72656164792061206d656d626572206f66207468697320636f6d6d756e6960008201527f7479210000000000000000000000000000000000000000000000000000000000602082015250565b6000615c2c6023836147c9565b9150615c3782615bd0565b604082019050919050565b60006020820190508181036000830152615c5b81615c1f565b9050919050565b7f5573657220616c72656164792072656769737465726564210000000000000000600082015250565b6000615c986018836147c9565b9150615ca382615c62565b602082019050919050565b60006020820190508181036000830152615cc781615c8b565b9050919050565b7f556e6c6f636b20636f7374206d7573742062652067726561746572207468616e60008201527f2030000000000000000000000000000000000000000000000000000000000000602082015250565b6000615d2a6022836147c9565b9150615d3582615cce565b604082019050919050565b60006020820190508181036000830152615d5981615d1d565b9050919050565b600063ffffffff82169050919050565b6000615d7b82615d60565b9150615d8683615d60565b9250828202615d9481615d60565b9150808214615da657615da56156a2565b5b5092915050565b7f496e73756666696369656e74207061796d656e74000000000000000000000000600082015250565b6000615de36014836147c9565b9150615dee82615dad565b602082019050919050565b60006020820190508181036000830152615e1281615dd6565b905091905056fea2646970667358221220f3c7ce778d450750fe7be90d301a3047d0bbb00abe38629d21b5f84d64144b7664736f6c63430008140033","opcodes":"PUSH1 0x80 PUSH1 0x40 MSTORE PUSH1 0x0 DUP1 PUSH1 0x0 PUSH2 0x100 EXP DUP2 SLOAD DUP2 PUSH2 0xFFFF MUL NOT AND SWAP1 DUP4 PUSH2 0xFFFF AND MUL OR SWAP1 SSTORE POP CALLVALUE DUP1 ISZERO PUSH2 0x2D JUMPI PUSH1 0x0 DUP1 REVERT JUMPDEST POP PUSH2 0x5E4F DUP1 PUSH3 0x3E PUSH1 0x0 CODECOPY PUSH1 0x0 RETURN INVALID PUSH1 0x80 PUSH1 0x40 MSTORE PUSH1 0x4 CALLDATASIZE LT PUSH2 0xF3 JUMPI PUSH1 0x0 CALLDATALOAD PUSH1 0xE0 SHR DUP1 PUSH4 0x75AD6404 GT PUSH2 0x8A JUMPI DUP1 PUSH4 0xB23F6864 GT PUSH2 0x59 JUMPI DUP1 PUSH4 0xB23F6864 EQ PUSH2 0x34F JUMPI DUP1 PUSH4 0xB841E45A EQ PUSH2 0x378 JUMPI DUP1 PUSH4 0xB84F14B7 EQ PUSH2 0x3A1 JUMPI DUP1 PUSH4 0xFAB6774D EQ PUSH2 0x3BD JUMPI PUSH2 0xF3 JUMP JUMPDEST DUP1 PUSH4 0x75AD6404 EQ PUSH2 0x28B JUMPI DUP1 PUSH4 0x903D3626 EQ PUSH2 0x2B6 JUMPI DUP1 PUSH4 0x942886BE EQ PUSH2 0x2DF JUMPI DUP1 PUSH4 0xA2BDEDF4 EQ PUSH2 0x310 JUMPI PUSH2 0xF3 JUMP JUMPDEST DUP1 PUSH4 0x43DFC73C GT PUSH2 0xC6 JUMPI DUP1 PUSH4 0x43DFC73C EQ PUSH2 0x1CD JUMPI DUP1 PUSH4 0x54D9EA15 EQ PUSH2 0x1F6 JUMPI DUP1 PUSH4 0x610693E7 EQ PUSH2 0x239 JUMPI DUP1 PUSH4 0x704F1B94 EQ PUSH2 0x262 JUMPI PUSH2 0xF3 JUMP JUMPDEST DUP1 PUSH4 0x1DD20A8B EQ PUSH2 0xF8 JUMPI DUP1 PUSH4 0x22428B67 EQ PUSH2 0x121 JUMPI DUP1 PUSH4 0x29A7645D EQ PUSH2 0x163 JUMPI DUP1 PUSH4 0x3FCCB4A5 EQ PUSH2 0x1A4 JUMPI JUMPDEST PUSH1 0x0 DUP1 REVERT JUMPDEST CALLVALUE DUP1 ISZERO PUSH2 0x104 JUMPI PUSH1 0x0 DUP1 REVERT JUMPDEST POP PUSH2 0x11F PUSH1 0x4 DUP1 CALLDATASIZE SUB DUP2 ADD SWAP1 PUSH2 0x11A SWAP2 SWAP1 PUSH2 0x46B4 JUMP JUMPDEST PUSH2 0x3E8 JUMP JUMPDEST STOP JUMPDEST CALLVALUE DUP1 ISZERO PUSH2 0x12D JUMPI PUSH1 0x0 DUP1 REVERT JUMPDEST POP PUSH2 0x148 PUSH1 0x4 DUP1 CALLDATASIZE SUB DUP2 ADD SWAP1 PUSH2 0x143 SWAP2 SWAP1 PUSH2 0x4791 JUMP JUMPDEST PUSH2 0xA3F JUMP JUMPDEST PUSH1 0x40 MLOAD PUSH2 0x15A SWAP7 SWAP6 SWAP5 SWAP4 SWAP3 SWAP2 SWAP1 PUSH2 0x485A JUMP JUMPDEST PUSH1 0x40 MLOAD DUP1 SWAP2 SUB SWAP1 RETURN JUMPDEST CALLVALUE DUP1 ISZERO PUSH2 0x16F JUMPI PUSH1 0x0 DUP1 REVERT JUMPDEST POP PUSH2 0x18A PUSH1 0x4 DUP1 CALLDATASIZE SUB DUP2 ADD SWAP1 PUSH2 0x185 SWAP2 SWAP1 PUSH2 0x4791 JUMP JUMPDEST PUSH2 0xD41 JUMP JUMPDEST PUSH1 0x40 MLOAD PUSH2 0x19B SWAP6 SWAP5 SWAP4 SWAP3 SWAP2 SWAP1 PUSH2 0x4A1D JUMP JUMPDEST PUSH1 0x40 MLOAD DUP1 SWAP2 SUB SWAP1 RETURN JUMPDEST CALLVALUE DUP1 ISZERO PUSH2 0x1B0 JUMPI PUSH1 0x0 DUP1 REVERT JUMPDEST POP PUSH2 0x1CB PUSH1 0x4 DUP1 CALLDATASIZE SUB DUP2 ADD SWAP1 PUSH2 0x1C6 SWAP2 SWAP1 PUSH2 0x4A85 JUMP JUMPDEST PUSH2 0x11C9 JUMP JUMPDEST STOP JUMPDEST CALLVALUE DUP1 ISZERO PUSH2 0x1D9 JUMPI PUSH1 0x0 DUP1 REVERT JUMPDEST POP PUSH2 0x1F4 PUSH1 0x4 DUP1 CALLDATASIZE SUB DUP2 ADD SWAP1 PUSH2 0x1EF SWAP2 SWAP1 PUSH2 0x4A85 JUMP JUMPDEST PUSH2 0x131E JUMP JUMPDEST STOP JUMPDEST CALLVALUE DUP1 ISZERO PUSH2 0x202 JUMPI PUSH1 0x0 DUP1 REVERT JUMPDEST POP PUSH2 0x21D PUSH1 0x4 DUP1 CALLDATASIZE SUB DUP2 ADD SWAP1 PUSH2 0x218 SWAP2 SWAP1 PUSH2 0x4A85 JUMP JUMPDEST PUSH2 0x162A JUMP JUMPDEST PUSH1 0x40 MLOAD PUSH2 0x230 SWAP8 SWAP7 SWAP6 SWAP5 SWAP4 SWAP3 SWAP2 SWAP1 PUSH2 0x4C5D JUMP JUMPDEST PUSH1 0x40 MLOAD DUP1 SWAP2 SUB SWAP1 RETURN JUMPDEST CALLVALUE DUP1 ISZERO PUSH2 0x245 JUMPI PUSH1 0x0 DUP1 REVERT JUMPDEST POP PUSH2 0x260 PUSH1 0x4 DUP1 CALLDATASIZE SUB DUP2 ADD SWAP1 PUSH2 0x25B SWAP2 SWAP1 PUSH2 0x4A85 JUMP JUMPDEST PUSH2 0x1C98 JUMP JUMPDEST STOP JUMPDEST CALLVALUE DUP1 ISZERO PUSH2 0x26E JUMPI PUSH1 0x0 DUP1 REVERT JUMPDEST POP PUSH2 0x289 PUSH1 0x4 DUP1 CALLDATASIZE SUB DUP2 ADD SWAP1 PUSH2 0x284 SWAP2 SWAP1 PUSH2 0x4A85 JUMP JUMPDEST PUSH2 0x1DC8 JUMP JUMPDEST STOP JUMPDEST CALLVALUE DUP1 ISZERO PUSH2 0x297 JUMPI PUSH1 0x0 DUP1 REVERT JUMPDEST POP PUSH2 0x2A0 PUSH2 0x2181 JUMP JUMPDEST PUSH1 0x40 MLOAD PUSH2 0x2AD SWAP2 SWAP1 PUSH2 0x4CEF JUMP JUMPDEST PUSH1 0x40 MLOAD DUP1 SWAP2 SUB SWAP1 RETURN JUMPDEST CALLVALUE DUP1 ISZERO PUSH2 0x2C2 JUMPI PUSH1 0x0 DUP1 REVERT JUMPDEST POP PUSH2 0x2DD PUSH1 0x4 DUP1 CALLDATASIZE SUB DUP2 ADD SWAP1 PUSH2 0x2D8 SWAP2 SWAP1 PUSH2 0x4A85 JUMP JUMPDEST PUSH2 0x2329 JUMP JUMPDEST STOP JUMPDEST CALLVALUE DUP1 ISZERO PUSH2 0x2EB JUMPI PUSH1 0x0 DUP1 REVERT JUMPDEST POP PUSH2 0x2F4 PUSH2 0x247E JUMP JUMPDEST PUSH1 0x40 MLOAD PUSH2 0x307 SWAP8 SWAP7 SWAP6 SWAP5 SWAP4 SWAP3 SWAP2 SWAP1 PUSH2 0x4FD5 JUMP JUMPDEST PUSH1 0x40 MLOAD DUP1 SWAP2 SUB SWAP1 RETURN JUMPDEST CALLVALUE DUP1 ISZERO PUSH2 0x31C JUMPI PUSH1 0x0 DUP1 REVERT JUMPDEST POP PUSH2 0x337 PUSH1 0x4 DUP1 CALLDATASIZE SUB DUP2 ADD SWAP1 PUSH2 0x332 SWAP2 SWAP1 PUSH2 0x4791 JUMP JUMPDEST PUSH2 0x2EB6 JUMP JUMPDEST PUSH1 0x40 MLOAD PUSH2 0x346 SWAP4 SWAP3 SWAP2 SWAP1 PUSH2 0x5090 JUMP JUMPDEST PUSH1 0x40 MLOAD DUP1 SWAP2 SUB SWAP1 RETURN JUMPDEST CALLVALUE DUP1 ISZERO PUSH2 0x35B JUMPI PUSH1 0x0 DUP1 REVERT JUMPDEST POP PUSH2 0x376 PUSH1 0x4 DUP1 CALLDATASIZE SUB DUP2 ADD SWAP1 PUSH2 0x371 SWAP2 SWAP1 PUSH2 0x5101 JUMP JUMPDEST PUSH2 0x300D JUMP JUMPDEST STOP JUMPDEST CALLVALUE DUP1 ISZERO PUSH2 0x384 JUMPI PUSH1 0x0 DUP1 REVERT JUMPDEST POP PUSH2 0x39F PUSH1 0x4 DUP1 CALLDATASIZE SUB DUP2 ADD SWAP1 PUSH2 0x39A SWAP2 SWAP1 PUSH2 0x4A85 JUMP JUMPDEST PUSH2 0x3253 JUMP JUMPDEST STOP JUMPDEST PUSH2 0x3BB PUSH1 0x4 DUP1 CALLDATASIZE SUB DUP2 ADD SWAP1 PUSH2 0x3B6 SWAP2 SWAP1 PUSH2 0x4A85 JUMP JUMPDEST PUSH2 0x33A8 JUMP JUMPDEST STOP JUMPDEST CALLVALUE DUP1 ISZERO PUSH2 0x3C9 JUMPI PUSH1 0x0 DUP1 REVERT JUMPDEST POP PUSH2 0x3D2 PUSH2 0x39FC JUMP JUMPDEST PUSH1 0x40 MLOAD PUSH2 0x3DF SWAP2 SWAP1 PUSH2 0x5489 JUMP JUMPDEST PUSH1 0x40 MLOAD DUP1 SWAP2 SUB SWAP1 RETURN JUMPDEST PUSH1 0x0 DUP4 MLOAD GT PUSH2 0x42C JUMPI PUSH1 0x40 MLOAD PUSH32 0x8C379A000000000000000000000000000000000000000000000000000000000 DUP2 MSTORE PUSH1 0x4 ADD PUSH2 0x423 SWAP1 PUSH2 0x54F7 JUMP JUMPDEST PUSH1 0x40 MLOAD DUP1 SWAP2 SUB SWAP1 REVERT JUMPDEST PUSH1 0x0 DUP2 MLOAD GT PUSH2 0x470 JUMPI PUSH1 0x40 MLOAD PUSH32 0x8C379A000000000000000000000000000000000000000000000000000000000 DUP2 MSTORE PUSH1 0x4 ADD PUSH2 0x467 SWAP1 PUSH2 0x5563 JUMP JUMPDEST PUSH1 0x40 MLOAD DUP1 SWAP2 SUB SWAP1 REVERT JUMPDEST PUSH1 0x0 PUSH1 0x2 DUP3 PUSH1 0x40 MLOAD PUSH2 0x482 SWAP2 SWAP1 PUSH2 0x55BF JUMP JUMPDEST SWAP1 DUP2 MSTORE PUSH1 0x20 ADD PUSH1 0x40 MLOAD DUP1 SWAP2 SUB SWAP1 KECCAK256 SWAP1 POP PUSH1 0x0 DUP2 PUSH1 0x0 ADD DUP1 SLOAD PUSH2 0x4A3 SWAP1 PUSH2 0x5605 JUMP JUMPDEST SWAP1 POP GT PUSH2 0x4E5 JUMPI PUSH1 0x40 MLOAD PUSH32 0x8C379A000000000000000000000000000000000000000000000000000000000 DUP2 MSTORE PUSH1 0x4 ADD PUSH2 0x4DC SWAP1 PUSH2 0x5682 JUMP JUMPDEST PUSH1 0x40 MLOAD DUP1 SWAP2 SUB SWAP1 REVERT JUMPDEST PUSH1 0x0 DUP1 PUSH1 0x0 DUP2 DUP2 SWAP1 SLOAD SWAP1 PUSH2 0x100 EXP SWAP1 DIV PUSH2 0xFFFF AND DUP1 SWAP3 SWAP2 SWAP1 PUSH2 0x506 SWAP1 PUSH2 0x56D1 JUMP JUMPDEST SWAP2 SWAP1 PUSH2 0x100 EXP DUP2 SLOAD DUP2 PUSH2 0xFFFF MUL NOT AND SWAP1 DUP4 PUSH2 0xFFFF AND MUL OR SWAP1 SSTORE POP SWAP1 POP PUSH1 0x0 PUSH1 0x3 DUP7 PUSH1 0x40 MLOAD PUSH2 0x534 SWAP2 SWAP1 PUSH2 0x55BF JUMP JUMPDEST SWAP1 DUP2 MSTORE PUSH1 0x20 ADD PUSH1 0x40 MLOAD DUP1 SWAP2 SUB SWAP1 KECCAK256 SWAP1 POP DUP6 DUP2 PUSH1 0x0 ADD SWAP1 DUP2 PUSH2 0x555 SWAP2 SWAP1 PUSH2 0x58A7 JUMP JUMPDEST POP DUP5 DUP2 PUSH1 0x1 ADD SWAP1 DUP2 PUSH2 0x567 SWAP2 SWAP1 PUSH2 0x58A7 JUMP JUMPDEST POP DUP3 DUP2 PUSH1 0x2 ADD PUSH1 0x0 DUP3 ADD DUP2 PUSH1 0x0 ADD SWAP1 DUP2 PUSH2 0x581 SWAP2 SWAP1 PUSH2 0x598F JUMP JUMPDEST POP PUSH1 0x1 DUP3 ADD DUP2 PUSH1 0x1 ADD SWAP1 DUP2 PUSH2 0x596 SWAP2 SWAP1 PUSH2 0x598F JUMP JUMPDEST POP PUSH1 0x2 DUP3 ADD DUP2 PUSH1 0x2 ADD SWAP1 DUP2 PUSH2 0x5AB SWAP2 SWAP1 PUSH2 0x598F JUMP JUMPDEST POP PUSH1 0x3 DUP3 ADD DUP2 PUSH1 0x3 ADD SWAP1 DUP2 PUSH2 0x5C0 SWAP2 SWAP1 PUSH2 0x598F JUMP JUMPDEST POP PUSH1 0x4 DUP3 ADD DUP2 PUSH1 0x4 ADD SWAP1 DUP2 PUSH2 0x5D5 SWAP2 SWAP1 PUSH2 0x598F JUMP JUMPDEST POP PUSH1 0x5 DUP3 ADD PUSH1 0x0 SWAP1 SLOAD SWAP1 PUSH2 0x100 EXP SWAP1 DIV PUSH2 0xFFFF AND DUP2 PUSH1 0x5 ADD PUSH1 0x0 PUSH2 0x100 EXP DUP2 SLOAD DUP2 PUSH2 0xFFFF MUL NOT AND SWAP1 DUP4 PUSH2 0xFFFF AND MUL OR SWAP1 SSTORE POP SWAP1 POP POP DUP2 DUP2 PUSH1 0x8 ADD PUSH1 0x14 PUSH2 0x100 EXP DUP2 SLOAD DUP2 PUSH2 0xFFFF MUL NOT AND SWAP1 DUP4 PUSH2 0xFFFF AND MUL OR SWAP1 SSTORE POP CALLER DUP2 PUSH1 0x8 ADD PUSH1 0x0 PUSH2 0x100 EXP DUP2 SLOAD DUP2 PUSH20 0xFFFFFFFFFFFFFFFFFFFFFFFFFFFFFFFFFFFFFFFF MUL NOT AND SWAP1 DUP4 PUSH20 0xFFFFFFFFFFFFFFFFFFFFFFFFFFFFFFFFFFFFFFFF AND MUL OR SWAP1 SSTORE POP PUSH1 0x0 PUSH8 0xFFFFFFFFFFFFFFFF DUP2 GT ISZERO PUSH2 0x687 JUMPI PUSH2 0x686 PUSH2 0x4589 JUMP JUMPDEST JUMPDEST PUSH1 0x40 MLOAD SWAP1 DUP1 DUP3 MSTORE DUP1 PUSH1 0x20 MUL PUSH1 0x20 ADD DUP3 ADD PUSH1 0x40 MSTORE DUP1 ISZERO PUSH2 0x6B5 JUMPI DUP2 PUSH1 0x20 ADD PUSH1 0x20 DUP3 MUL DUP1 CALLDATASIZE DUP4 CALLDATACOPY DUP1 DUP3 ADD SWAP2 POP POP SWAP1 POP JUMPDEST POP DUP2 PUSH1 0xA ADD SWAP1 DUP1 MLOAD SWAP1 PUSH1 0x20 ADD SWAP1 PUSH2 0x6CD SWAP3 SWAP2 SWAP1 PUSH2 0x406A JUMP JUMPDEST POP PUSH1 0x0 PUSH8 0xFFFFFFFFFFFFFFFF DUP2 GT ISZERO PUSH2 0x6E9 JUMPI PUSH2 0x6E8 PUSH2 0x4589 JUMP JUMPDEST JUMPDEST PUSH1 0x40 MLOAD SWAP1 DUP1 DUP3 MSTORE DUP1 PUSH1 0x20 MUL PUSH1 0x20 ADD DUP3 ADD PUSH1 0x40 MSTORE DUP1 ISZERO PUSH2 0x71C JUMPI DUP2 PUSH1 0x20 ADD JUMPDEST PUSH1 0x60 DUP2 MSTORE PUSH1 0x20 ADD SWAP1 PUSH1 0x1 SWAP1 SUB SWAP1 DUP2 PUSH2 0x707 JUMPI SWAP1 POP JUMPDEST POP DUP2 PUSH1 0x9 ADD SWAP1 DUP1 MLOAD SWAP1 PUSH1 0x20 ADD SWAP1 PUSH2 0x734 SWAP3 SWAP2 SWAP1 PUSH2 0x40F4 JUMP JUMPDEST POP DUP1 PUSH1 0xA ADD CALLER SWAP1 DUP1 PUSH1 0x1 DUP2 SLOAD ADD DUP1 DUP3 SSTORE DUP1 SWAP2 POP POP PUSH1 0x1 SWAP1 SUB SWAP1 PUSH1 0x0 MSTORE PUSH1 0x20 PUSH1 0x0 KECCAK256 ADD PUSH1 0x0 SWAP1 SWAP2 SWAP1 SWAP2 SWAP1 SWAP2 PUSH2 0x100 EXP DUP2 SLOAD DUP2 PUSH20 0xFFFFFFFFFFFFFFFFFFFFFFFFFFFFFFFFFFFFFFFF MUL NOT AND SWAP1 DUP4 PUSH20 0xFFFFFFFFFFFFFFFFFFFFFFFFFFFFFFFFFFFFFFFF AND MUL OR SWAP1 SSTORE POP PUSH1 0x1 PUSH1 0x0 CALLER PUSH20 0xFFFFFFFFFFFFFFFFFFFFFFFFFFFFFFFFFFFFFFFF AND PUSH20 0xFFFFFFFFFFFFFFFFFFFFFFFFFFFFFFFFFFFFFFFF AND DUP2 MSTORE PUSH1 0x20 ADD SWAP1 DUP2 MSTORE PUSH1 0x20 ADD PUSH1 0x0 KECCAK256 PUSH1 0x8 ADD DUP7 SWAP1 DUP1 PUSH1 0x1 DUP2 SLOAD ADD DUP1 DUP3 SSTORE DUP1 SWAP2 POP POP PUSH1 0x1 SWAP1 SUB SWAP1 PUSH1 0x0 MSTORE PUSH1 0x20 PUSH1 0x0 KECCAK256 ADD PUSH1 0x0 SWAP1 SWAP2 SWAP1 SWAP2 SWAP1 SWAP2 POP SWAP1 DUP2 PUSH2 0x80E SWAP2 SWAP1 PUSH2 0x58A7 JUMP JUMPDEST POP PUSH1 0x6 DUP2 SWAP1 DUP1 PUSH1 0x1 DUP2 SLOAD ADD DUP1 DUP3 SSTORE DUP1 SWAP2 POP POP PUSH1 0x1 SWAP1 SUB SWAP1 PUSH1 0x0 MSTORE PUSH1 0x20 PUSH1 0x0 KECCAK256 SWAP1 PUSH1 0xB MUL ADD PUSH1 0x0 SWAP1 SWAP2 SWAP1 SWAP2 SWAP1 SWAP2 POP PUSH1 0x0 DUP3 ADD DUP2 PUSH1 0x0 ADD SWAP1 DUP2 PUSH2 0x84F SWAP2 SWAP1 PUSH2 0x598F JUMP JUMPDEST POP PUSH1 0x1 DUP3 ADD DUP2 PUSH1 0x1 ADD SWAP1 DUP2 PUSH2 0x864 SWAP2 SWAP1 PUSH2 0x598F JUMP JUMPDEST POP PUSH1 0x2 DUP3 ADD DUP2 PUSH1 0x2 ADD PUSH1 0x0 DUP3 ADD DUP2 PUSH1 0x0 ADD SWAP1 DUP2 PUSH2 0x881 SWAP2 SWAP1 PUSH2 0x598F JUMP JUMPDEST POP PUSH1 0x1 DUP3 ADD DUP2 PUSH1 0x1 ADD SWAP1 DUP2 PUSH2 0x896 SWAP2 SWAP1 PUSH2 0x598F JUMP JUMPDEST POP PUSH1 0x2 DUP3 ADD DUP2 PUSH1 0x2 ADD SWAP1 DUP2 PUSH2 0x8AB SWAP2 SWAP1 PUSH2 0x598F JUMP JUMPDEST POP PUSH1 0x3 DUP3 ADD DUP2 PUSH1 0x3 ADD SWAP1 DUP2 PUSH2 0x8C0 SWAP2 SWAP1 PUSH2 0x598F JUMP JUMPDEST POP PUSH1 0x4 DUP3 ADD DUP2 PUSH1 0x4 ADD SWAP1 DUP2 PUSH2 0x8D5 SWAP2 SWAP1 PUSH2 0x598F JUMP JUMPDEST POP PUSH1 0x5 DUP3 ADD PUSH1 0x0 SWAP1 SLOAD SWAP1 PUSH2 0x100 EXP SWAP1 DIV PUSH2 0xFFFF AND DUP2 PUSH1 0x5 ADD PUSH1 0x0 PUSH2 0x100 EXP DUP2 SLOAD DUP2 PUSH2 0xFFFF MUL NOT AND SWAP1 DUP4 PUSH2 0xFFFF AND MUL OR SWAP1 SSTORE POP POP POP PUSH1 0x8 DUP3 ADD PUSH1 0x0 SWAP1 SLOAD SWAP1 PUSH2 0x100 EXP SWAP1 DIV PUSH20 0xFFFFFFFFFFFFFFFFFFFFFFFFFFFFFFFFFFFFFFFF AND DUP2 PUSH1 0x8 ADD PUSH1 0x0 PUSH2 0x100 EXP DUP2 SLOAD DUP2 PUSH20 0xFFFFFFFFFFFFFFFFFFFFFFFFFFFFFFFFFFFFFFFF MUL NOT AND SWAP1 DUP4 PUSH20 0xFFFFFFFFFFFFFFFFFFFFFFFFFFFFFFFFFFFFFFFF AND MUL OR SWAP1 SSTORE POP PUSH1 0x8 DUP3 ADD PUSH1 0x14 SWAP1 SLOAD SWAP1 PUSH2 0x100 EXP SWAP1 DIV PUSH2 0xFFFF AND DUP2 PUSH1 0x8 ADD PUSH1 0x14 PUSH2 0x100 EXP DUP2 SLOAD DUP2 PUSH2 0xFFFF MUL NOT AND SWAP1 DUP4 PUSH2 0xFFFF AND MUL OR SWAP1 SSTORE POP PUSH1 0x9 DUP3 ADD DUP2 PUSH1 0x9 ADD SWAP1 DUP1 SLOAD PUSH2 0x9B7 SWAP3 SWAP2 SWAP1 PUSH2 0x414D JUMP JUMPDEST POP PUSH1 0xA DUP3 ADD DUP2 PUSH1 0xA ADD SWAP1 DUP1 SLOAD PUSH2 0x9CE SWAP3 SWAP2 SWAP1 PUSH2 0x41AA JUMP JUMPDEST POP POP POP CALLER PUSH20 0xFFFFFFFFFFFFFFFFFFFFFFFFFFFFFFFFFFFFFFFF AND DUP7 PUSH1 0x40 MLOAD PUSH2 0x9F6 SWAP2 SWAP1 PUSH2 0x55BF JUMP JUMPDEST PUSH1 0x40 MLOAD DUP1 SWAP2 SUB SWAP1 KECCAK256 PUSH32 0xF085966E5F5BDADDEB4826A76AFFE2E722A984E4136D44F6576256C9D01761A8 DUP7 DUP6 PUSH1 0x40 MLOAD PUSH2 0xA2F SWAP3 SWAP2 SWAP1 PUSH2 0x5A77 JUMP JUMPDEST PUSH1 0x40 MLOAD DUP1 SWAP2 SUB SWAP1 LOG3 POP POP POP POP POP POP JUMP JUMPDEST PUSH1 0x5 DUP2 DUP2 SLOAD DUP2 LT PUSH2 0xA4F JUMPI PUSH1 0x0 DUP1 REVERT JUMPDEST SWAP1 PUSH1 0x0 MSTORE PUSH1 0x20 PUSH1 0x0 KECCAK256 SWAP1 PUSH1 0x6 MUL ADD PUSH1 0x0 SWAP2 POP SWAP1 POP DUP1 PUSH1 0x0 ADD DUP1 SLOAD PUSH2 0xA72 SWAP1 PUSH2 0x5605 JUMP JUMPDEST DUP1 PUSH1 0x1F ADD PUSH1 0x20 DUP1 SWAP2 DIV MUL PUSH1 0x20 ADD PUSH1 0x40 MLOAD SWAP1 DUP2 ADD PUSH1 0x40 MSTORE DUP1 SWAP3 SWAP2 SWAP1 DUP2 DUP2 MSTORE PUSH1 0x20 ADD DUP3 DUP1 SLOAD PUSH2 0xA9E SWAP1 PUSH2 0x5605 JUMP JUMPDEST DUP1 ISZERO PUSH2 0xAEB JUMPI DUP1 PUSH1 0x1F LT PUSH2 0xAC0 JUMPI PUSH2 0x100 DUP1 DUP4 SLOAD DIV MUL DUP4 MSTORE SWAP2 PUSH1 0x20 ADD SWAP2 PUSH2 0xAEB JUMP JUMPDEST DUP3 ADD SWAP2 SWAP1 PUSH1 0x0 MSTORE PUSH1 0x20 PUSH1 0x0 KECCAK256 SWAP1 JUMPDEST DUP2 SLOAD DUP2 MSTORE SWAP1 PUSH1 0x1 ADD SWAP1 PUSH1 0x20 ADD DUP1 DUP4 GT PUSH2 0xACE JUMPI DUP3 SWAP1 SUB PUSH1 0x1F AND DUP3 ADD SWAP2 JUMPDEST POP POP POP POP POP SWAP1 DUP1 PUSH1 0x1 ADD DUP1 SLOAD PUSH2 0xB00 SWAP1 PUSH2 0x5605 JUMP JUMPDEST DUP1 PUSH1 0x1F ADD PUSH1 0x20 DUP1 SWAP2 DIV MUL PUSH1 0x20 ADD PUSH1 0x40 MLOAD SWAP1 DUP2 ADD PUSH1 0x40 MSTORE DUP1 SWAP3 SWAP2 SWAP1 DUP2 DUP2 MSTORE PUSH1 0x20 ADD DUP3 DUP1 SLOAD PUSH2 0xB2C SWAP1 PUSH2 0x5605 JUMP JUMPDEST DUP1 ISZERO PUSH2 0xB79 JUMPI DUP1 PUSH1 0x1F LT PUSH2 0xB4E JUMPI PUSH2 0x100 DUP1 DUP4 SLOAD DIV MUL DUP4 MSTORE SWAP2 PUSH1 0x20 ADD SWAP2 PUSH2 0xB79 JUMP JUMPDEST DUP3 ADD SWAP2 SWAP1 PUSH1 0x0 MSTORE PUSH1 0x20 PUSH1 0x0 KECCAK256 SWAP1 JUMPDEST DUP2 SLOAD DUP2 MSTORE SWAP1 PUSH1 0x1 ADD SWAP1 PUSH1 0x20 ADD DUP1 DUP4 GT PUSH2 0xB5C JUMPI DUP3 SWAP1 SUB PUSH1 0x1F AND DUP3 ADD SWAP2 JUMPDEST POP POP POP POP POP SWAP1 DUP1 PUSH1 0x2 ADD DUP1 SLOAD PUSH2 0xB8E SWAP1 PUSH2 0x5605 JUMP JUMPDEST DUP1 PUSH1 0x1F ADD PUSH1 0x20 DUP1 SWAP2 DIV MUL PUSH1 0x20 ADD PUSH1 0x40 MLOAD SWAP1 DUP2 ADD PUSH1 0x40 MSTORE DUP1 SWAP3 SWAP2 SWAP1 DUP2 DUP2 MSTORE PUSH1 0x20 ADD DUP3 DUP1 SLOAD PUSH2 0xBBA SWAP1 PUSH2 0x5605 JUMP JUMPDEST DUP1 ISZERO PUSH2 0xC07 JUMPI DUP1 PUSH1 0x1F LT PUSH2 0xBDC JUMPI PUSH2 0x100 DUP1 DUP4 SLOAD DIV MUL DUP4 MSTORE SWAP2 PUSH1 0x20 ADD SWAP2 PUSH2 0xC07 JUMP JUMPDEST DUP3 ADD SWAP2 SWAP1 PUSH1 0x0 MSTORE PUSH1 0x20 PUSH1 0x0 KECCAK256 SWAP1 JUMPDEST DUP2 SLOAD DUP2 MSTORE SWAP1 PUSH1 0x1 ADD SWAP1 PUSH1 0x20 ADD DUP1 DUP4 GT PUSH2 0xBEA JUMPI DUP3 SWAP1 SUB PUSH1 0x1F AND DUP3 ADD SWAP2 JUMPDEST POP POP POP POP POP SWAP1 DUP1 PUSH1 0x3 ADD DUP1 SLOAD PUSH2 0xC1C SWAP1 PUSH2 0x5605 JUMP JUMPDEST DUP1 PUSH1 0x1F ADD PUSH1 0x20 DUP1 SWAP2 DIV MUL PUSH1 0x20 ADD PUSH1 0x40 MLOAD SWAP1 DUP2 ADD PUSH1 0x40 MSTORE DUP1 SWAP3 SWAP2 SWAP1 DUP2 DUP2 MSTORE PUSH1 0x20 ADD DUP3 DUP1 SLOAD PUSH2 0xC48 SWAP1 PUSH2 0x5605 JUMP JUMPDEST DUP1 ISZERO PUSH2 0xC95 JUMPI DUP1 PUSH1 0x1F LT PUSH2 0xC6A JUMPI PUSH2 0x100 DUP1 DUP4 SLOAD DIV MUL DUP4 MSTORE SWAP2 PUSH1 0x20 ADD SWAP2 PUSH2 0xC95 JUMP JUMPDEST DUP3 ADD SWAP2 SWAP1 PUSH1 0x0 MSTORE PUSH1 0x20 PUSH1 0x0 KECCAK256 SWAP1 JUMPDEST DUP2 SLOAD DUP2 MSTORE SWAP1 PUSH1 0x1 ADD SWAP1 PUSH1 0x20 ADD DUP1 DUP4 GT PUSH2 0xC78 JUMPI DUP3 SWAP1 SUB PUSH1 0x1F AND DUP3 ADD SWAP2 JUMPDEST POP POP POP POP POP SWAP1 DUP1 PUSH1 0x4 ADD DUP1 SLOAD PUSH2 0xCAA SWAP1 PUSH2 0x5605 JUMP JUMPDEST DUP1 PUSH1 0x1F ADD PUSH1 0x20 DUP1 SWAP2 DIV MUL PUSH1 0x20 ADD PUSH1 0x40 MLOAD SWAP1 DUP2 ADD PUSH1 0x40 MSTORE DUP1 SWAP3 SWAP2 SWAP1 DUP2 DUP2 MSTORE PUSH1 0x20 ADD DUP3 DUP1 SLOAD PUSH2 0xCD6 SWAP1 PUSH2 0x5605 JUMP JUMPDEST DUP1 ISZERO PUSH2 0xD23 JUMPI DUP1 PUSH1 0x1F LT PUSH2 0xCF8 JUMPI PUSH2 0x100 DUP1 DUP4 SLOAD DIV MUL DUP4 MSTORE SWAP2 PUSH1 0x20 ADD SWAP2 PUSH2 0xD23 JUMP JUMPDEST DUP3 ADD SWAP2 SWAP1 PUSH1 0x0 MSTORE PUSH1 0x20 PUSH1 0x0 KECCAK256 SWAP1 JUMPDEST DUP2 SLOAD DUP2 MSTORE SWAP1 PUSH1 0x1 ADD SWAP1 PUSH1 0x20 ADD DUP1 DUP4 GT PUSH2 0xD06 JUMPI DUP3 SWAP1 SUB PUSH1 0x1F AND DUP3 ADD SWAP2 JUMPDEST POP POP POP POP POP SWAP1 DUP1 PUSH1 0x5 ADD PUSH1 0x0 SWAP1 SLOAD SWAP1 PUSH2 0x100 EXP SWAP1 DIV PUSH2 0xFFFF AND SWAP1 POP DUP7 JUMP JUMPDEST PUSH1 0x6 DUP2 DUP2 SLOAD DUP2 LT PUSH2 0xD51 JUMPI PUSH1 0x0 DUP1 REVERT JUMPDEST SWAP1 PUSH1 0x0 MSTORE PUSH1 0x20 PUSH1 0x0 KECCAK256 SWAP1 PUSH1 0xB MUL ADD PUSH1 0x0 SWAP2 POP SWAP1 POP DUP1 PUSH1 0x0 ADD DUP1 SLOAD PUSH2 0xD74 SWAP1 PUSH2 0x5605 JUMP JUMPDEST DUP1 PUSH1 0x1F ADD PUSH1 0x20 DUP1 SWAP2 DIV MUL PUSH1 0x20 ADD PUSH1 0x40 MLOAD SWAP1 DUP2 ADD PUSH1 0x40 MSTORE DUP1 SWAP3 SWAP2 SWAP1 DUP2 DUP2 MSTORE PUSH1 0x20 ADD DUP3 DUP1 SLOAD PUSH2 0xDA0 SWAP1 PUSH2 0x5605 JUMP JUMPDEST DUP1 ISZERO PUSH2 0xDED JUMPI DUP1 PUSH1 0x1F LT PUSH2 0xDC2 JUMPI PUSH2 0x100 DUP1 DUP4 SLOAD DIV MUL DUP4 MSTORE SWAP2 PUSH1 0x20 ADD SWAP2 PUSH2 0xDED JUMP JUMPDEST DUP3 ADD SWAP2 SWAP1 PUSH1 0x0 MSTORE PUSH1 0x20 PUSH1 0x0 KECCAK256 SWAP1 JUMPDEST DUP2 SLOAD DUP2 MSTORE SWAP1 PUSH1 0x1 ADD SWAP1 PUSH1 0x20 ADD DUP1 DUP4 GT PUSH2 0xDD0 JUMPI DUP3 SWAP1 SUB PUSH1 0x1F AND DUP3 ADD SWAP2 JUMPDEST POP POP POP POP POP SWAP1 DUP1 PUSH1 0x1 ADD DUP1 SLOAD PUSH2 0xE02 SWAP1 PUSH2 0x5605 JUMP JUMPDEST DUP1 PUSH1 0x1F ADD PUSH1 0x20 DUP1 SWAP2 DIV MUL PUSH1 0x20 ADD PUSH1 0x40 MLOAD SWAP1 DUP2 ADD PUSH1 0x40 MSTORE DUP1 SWAP3 SWAP2 SWAP1 DUP2 DUP2 MSTORE PUSH1 0x20 ADD DUP3 DUP1 SLOAD PUSH2 0xE2E SWAP1 PUSH2 0x5605 JUMP JUMPDEST DUP1 ISZERO PUSH2 0xE7B JUMPI DUP1 PUSH1 0x1F LT PUSH2 0xE50 JUMPI PUSH2 0x100 DUP1 DUP4 SLOAD DIV MUL DUP4 MSTORE SWAP2 PUSH1 0x20 ADD SWAP2 PUSH2 0xE7B JUMP JUMPDEST DUP3 ADD SWAP2 SWAP1 PUSH1 0x0 MSTORE PUSH1 0x20 PUSH1 0x0 KECCAK256 SWAP1 JUMPDEST DUP2 SLOAD DUP2 MSTORE SWAP1 PUSH1 0x1 ADD SWAP1 PUSH1 0x20 ADD DUP1 DUP4 GT PUSH2 0xE5E JUMPI DUP3 SWAP1 SUB PUSH1 0x1F AND DUP3 ADD SWAP2 JUMPDEST POP POP POP POP POP SWAP1 DUP1 PUSH1 0x2 ADD PUSH1 0x40 MLOAD DUP1 PUSH1 0xC0 ADD PUSH1 0x40 MSTORE SWAP1 DUP2 PUSH1 0x0 DUP3 ADD DUP1 SLOAD PUSH2 0xEA0 SWAP1 PUSH2 0x5605 JUMP JUMPDEST DUP1 PUSH1 0x1F ADD PUSH1 0x20 DUP1 SWAP2 DIV MUL PUSH1 0x20 ADD PUSH1 0x40 MLOAD SWAP1 DUP2 ADD PUSH1 0x40 MSTORE DUP1 SWAP3 SWAP2 SWAP1 DUP2 DUP2 MSTORE PUSH1 0x20 ADD DUP3 DUP1 SLOAD PUSH2 0xECC SWAP1 PUSH2 0x5605 JUMP JUMPDEST DUP1 ISZERO PUSH2 0xF19 JUMPI DUP1 PUSH1 0x1F LT PUSH2 0xEEE JUMPI PUSH2 0x100 DUP1 DUP4 SLOAD DIV MUL DUP4 MSTORE SWAP2 PUSH1 0x20 ADD SWAP2 PUSH2 0xF19 JUMP JUMPDEST DUP3 ADD SWAP2 SWAP1 PUSH1 0x0 MSTORE PUSH1 0x20 PUSH1 0x0 KECCAK256 SWAP1 JUMPDEST DUP2 SLOAD DUP2 MSTORE SWAP1 PUSH1 0x1 ADD SWAP1 PUSH1 0x20 ADD DUP1 DUP4 GT PUSH2 0xEFC JUMPI DUP3 SWAP1 SUB PUSH1 0x1F AND DUP3 ADD SWAP2 JUMPDEST POP POP POP POP POP DUP2 MSTORE PUSH1 0x20 ADD PUSH1 0x1 DUP3 ADD DUP1 SLOAD PUSH2 0xF32 SWAP1 PUSH2 0x5605 JUMP JUMPDEST DUP1 PUSH1 0x1F ADD PUSH1 0x20 DUP1 SWAP2 DIV MUL PUSH1 0x20 ADD PUSH1 0x40 MLOAD SWAP1 DUP2 ADD PUSH1 0x40 MSTORE DUP1 SWAP3 SWAP2 SWAP1 DUP2 DUP2 MSTORE PUSH1 0x20 ADD DUP3 DUP1 SLOAD PUSH2 0xF5E SWAP1 PUSH2 0x5605 JUMP JUMPDEST DUP1 ISZERO PUSH2 0xFAB JUMPI DUP1 PUSH1 0x1F LT PUSH2 0xF80 JUMPI PUSH2 0x100 DUP1 DUP4 SLOAD DIV MUL DUP4 MSTORE SWAP2 PUSH1 0x20 ADD SWAP2 PUSH2 0xFAB JUMP JUMPDEST DUP3 ADD SWAP2 SWAP1 PUSH1 0x0 MSTORE PUSH1 0x20 PUSH1 0x0 KECCAK256 SWAP1 JUMPDEST DUP2 SLOAD DUP2 MSTORE SWAP1 PUSH1 0x1 ADD SWAP1 PUSH1 0x20 ADD DUP1 DUP4 GT PUSH2 0xF8E JUMPI DUP3 SWAP1 SUB PUSH1 0x1F AND DUP3 ADD SWAP2 JUMPDEST POP POP POP POP POP DUP2 MSTORE PUSH1 0x20 ADD PUSH1 0x2 DUP3 ADD DUP1 SLOAD PUSH2 0xFC4 SWAP1 PUSH2 0x5605 JUMP JUMPDEST DUP1 PUSH1 0x1F ADD PUSH1 0x20 DUP1 SWAP2 DIV MUL PUSH1 0x20 ADD PUSH1 0x40 MLOAD SWAP1 DUP2 ADD PUSH1 0x40 MSTORE DUP1 SWAP3 SWAP2 SWAP1 DUP2 DUP2 MSTORE PUSH1 0x20 ADD DUP3 DUP1 SLOAD PUSH2 0xFF0 SWAP1 PUSH2 0x5605 JUMP JUMPDEST DUP1 ISZERO PUSH2 0x103D JUMPI DUP1 PUSH1 0x1F LT PUSH2 0x1012 JUMPI PUSH2 0x100 DUP1 DUP4 SLOAD DIV MUL DUP4 MSTORE SWAP2 PUSH1 0x20 ADD SWAP2 PUSH2 0x103D JUMP JUMPDEST DUP3 ADD SWAP2 SWAP1 PUSH1 0x0 MSTORE PUSH1 0x20 PUSH1 0x0 KECCAK256 SWAP1 JUMPDEST DUP2 SLOAD DUP2 MSTORE SWAP1 PUSH1 0x1 ADD SWAP1 PUSH1 0x20 ADD DUP1 DUP4 GT PUSH2 0x1020 JUMPI DUP3 SWAP1 SUB PUSH1 0x1F AND DUP3 ADD SWAP2 JUMPDEST POP POP POP POP POP DUP2 MSTORE PUSH1 0x20 ADD PUSH1 0x3 DUP3 ADD DUP1 SLOAD PUSH2 0x1056 SWAP1 PUSH2 0x5605 JUMP JUMPDEST DUP1 PUSH1 0x1F ADD PUSH1 0x20 DUP1 SWAP2 DIV MUL PUSH1 0x20 ADD PUSH1 0x40 MLOAD SWAP1 DUP2 ADD PUSH1 0x40 MSTORE DUP1 SWAP3 SWAP2 SWAP1 DUP2 DUP2 MSTORE PUSH1 0x20 ADD DUP3 DUP1 SLOAD PUSH2 0x1082 SWAP1 PUSH2 0x5605 JUMP JUMPDEST DUP1 ISZERO PUSH2 0x10CF JUMPI DUP1 PUSH1 0x1F LT PUSH2 0x10A4 JUMPI PUSH2 0x100 DUP1 DUP4 SLOAD DIV MUL DUP4 MSTORE SWAP2 PUSH1 0x20 ADD SWAP2 PUSH2 0x10CF JUMP JUMPDEST DUP3 ADD SWAP2 SWAP1 PUSH1 0x0 MSTORE PUSH1 0x20 PUSH1 0x0 KECCAK256 SWAP1 JUMPDEST DUP2 SLOAD DUP2 MSTORE SWAP1 PUSH1 0x1 ADD SWAP1 PUSH1 0x20 ADD DUP1 DUP4 GT PUSH2 0x10B2 JUMPI DUP3 SWAP1 SUB PUSH1 0x1F AND DUP3 ADD SWAP2 JUMPDEST POP POP POP POP POP DUP2 MSTORE PUSH1 0x20 ADD PUSH1 0x4 DUP3 ADD DUP1 SLOAD PUSH2 0x10E8 SWAP1 PUSH2 0x5605 JUMP JUMPDEST DUP1 PUSH1 0x1F ADD PUSH1 0x20 DUP1 SWAP2 DIV MUL PUSH1 0x20 ADD PUSH1 0x40 MLOAD SWAP1 DUP2 ADD PUSH1 0x40 MSTORE DUP1 SWAP3 SWAP2 SWAP1 DUP2 DUP2 MSTORE PUSH1 0x20 ADD DUP3 DUP1 SLOAD PUSH2 0x1114 SWAP1 PUSH2 0x5605 JUMP JUMPDEST DUP1 ISZERO PUSH2 0x1161 JUMPI DUP1 PUSH1 0x1F LT PUSH2 0x1136 JUMPI PUSH2 0x100 DUP1 DUP4 SLOAD DIV MUL DUP4 MSTORE SWAP2 PUSH1 0x20 ADD SWAP2 PUSH2 0x1161 JUMP JUMPDEST DUP3 ADD SWAP2 SWAP1 PUSH1 0x0 MSTORE PUSH1 0x20 PUSH1 0x0 KECCAK256 SWAP1 JUMPDEST DUP2 SLOAD DUP2 MSTORE SWAP1 PUSH1 0x1 ADD SWAP1 PUSH1 0x20 ADD DUP1 DUP4 GT PUSH2 0x1144 JUMPI DUP3 SWAP1 SUB PUSH1 0x1F AND DUP3 ADD SWAP2 JUMPDEST POP POP POP POP POP DUP2 MSTORE PUSH1 0x20 ADD PUSH1 0x5 DUP3 ADD PUSH1 0x0 SWAP1 SLOAD SWAP1 PUSH2 0x100 EXP SWAP1 DIV PUSH2 0xFFFF AND PUSH2 0xFFFF AND PUSH2 0xFFFF AND DUP2 MSTORE POP POP SWAP1 DUP1 PUSH1 0x8 ADD PUSH1 0x0 SWAP1 SLOAD SWAP1 PUSH2 0x100 EXP SWAP1 DIV PUSH20 0xFFFFFFFFFFFFFFFFFFFFFFFFFFFFFFFFFFFFFFFF AND SWAP1 DUP1 PUSH1 0x8 ADD PUSH1 0x14 SWAP1 SLOAD SWAP1 PUSH2 0x100 EXP SWAP1 DIV PUSH2 0xFFFF AND SWAP1 POP DUP6 JUMP JUMPDEST PUSH1 0x1 PUSH1 0x0 CALLER PUSH20 0xFFFFFFFFFFFFFFFFFFFFFFFFFFFFFFFFFFFFFFFF AND PUSH20 0xFFFFFFFFFFFFFFFFFFFFFFFFFFFFFFFFFFFFFFFF AND DUP2 MSTORE PUSH1 0x20 ADD SWAP1 DUP2 MSTORE PUSH1 0x20 ADD PUSH1 0x0 KECCAK256 PUSH1 0x7 ADD PUSH1 0x0 SWAP1 SLOAD SWAP1 PUSH2 0x100 EXP SWAP1 DIV PUSH1 0xFF AND PUSH2 0x1258 JUMPI PUSH1 0x40 MLOAD PUSH32 0x8C379A000000000000000000000000000000000000000000000000000000000 DUP2 MSTORE PUSH1 0x4 ADD PUSH2 0x124F SWAP1 PUSH2 0x5AF3 JUMP JUMPDEST PUSH1 0x40 MLOAD DUP1 SWAP2 SUB SWAP1 REVERT JUMPDEST PUSH1 0x1 PUSH1 0x0 CALLER PUSH20 0xFFFFFFFFFFFFFFFFFFFFFFFFFFFFFFFFFFFFFFFF AND PUSH20 0xFFFFFFFFFFFFFFFFFFFFFFFFFFFFFFFFFFFFFFFF AND DUP2 MSTORE PUSH1 0x20 ADD SWAP1 DUP2 MSTORE PUSH1 0x20 ADD PUSH1 0x0 KECCAK256 PUSH1 0x2 ADD DUP2 SWAP1 DUP1 PUSH1 0x1 DUP2 SLOAD ADD DUP1 DUP3 SSTORE DUP1 SWAP2 POP POP PUSH1 0x1 SWAP1 SUB SWAP1 PUSH1 0x0 MSTORE PUSH1 0x20 PUSH1 0x0 KECCAK256 ADD PUSH1 0x0 SWAP1 SWAP2 SWAP1 SWAP2 SWAP1 SWAP2 POP SWAP1 DUP2 PUSH2 0x12CC SWAP2 SWAP1 PUSH2 0x58A7 JUMP JUMPDEST POP CALLER PUSH20 0xFFFFFFFFFFFFFFFFFFFFFFFFFFFFFFFFFFFFFFFF AND PUSH32 0xB8E50056DB55E8C4B78F3AEE6869149CC55C970443C6BFC700FA83A0B793AE2A DUP3 PUSH1 0x40 MLOAD PUSH2 0x1313 SWAP2 SWAP1 PUSH2 0x5B13 JUMP JUMPDEST PUSH1 0x40 MLOAD DUP1 SWAP2 SUB SWAP1 LOG2 POP JUMP JUMPDEST PUSH1 0x1 PUSH1 0x0 CALLER PUSH20 0xFFFFFFFFFFFFFFFFFFFFFFFFFFFFFFFFFFFFFFFF AND PUSH20 0xFFFFFFFFFFFFFFFFFFFFFFFFFFFFFFFFFFFFFFFF AND DUP2 MSTORE PUSH1 0x20 ADD SWAP1 DUP2 MSTORE PUSH1 0x20 ADD PUSH1 0x0 KECCAK256 PUSH1 0x7 ADD PUSH1 0x0 SWAP1 SLOAD SWAP1 PUSH2 0x100 EXP SWAP1 DIV PUSH1 0xFF AND PUSH2 0x13AD JUMPI PUSH1 0x40 MLOAD PUSH32 0x8C379A000000000000000000000000000000000000000000000000000000000 DUP2 MSTORE PUSH1 0x4 ADD PUSH2 0x13A4 SWAP1 PUSH2 0x5AF3 JUMP JUMPDEST PUSH1 0x40 MLOAD DUP1 SWAP2 SUB SWAP1 REVERT JUMPDEST PUSH1 0x0 PUSH1 0x3 DUP3 PUSH1 0x40 MLOAD PUSH2 0x13BF SWAP2 SWAP1 PUSH2 0x55BF JUMP JUMPDEST SWAP1 DUP2 MSTORE PUSH1 0x20 ADD PUSH1 0x40 MLOAD DUP1 SWAP2 SUB SWAP1 KECCAK256 SWAP1 POP PUSH1 0x0 DUP2 PUSH1 0x0 ADD DUP1 SLOAD PUSH2 0x13E0 SWAP1 PUSH2 0x5605 JUMP JUMPDEST SWAP1 POP GT PUSH2 0x1422 JUMPI PUSH1 0x40 MLOAD PUSH32 0x8C379A000000000000000000000000000000000000000000000000000000000 DUP2 MSTORE PUSH1 0x4 ADD PUSH2 0x1419 SWAP1 PUSH2 0x5B81 JUMP JUMPDEST PUSH1 0x40 MLOAD DUP1 SWAP2 SUB SWAP1 REVERT JUMPDEST PUSH1 0x0 JUMPDEST DUP2 PUSH1 0xA ADD DUP1 SLOAD SWAP1 POP DUP2 PUSH2 0xFFFF AND LT ISZERO PUSH2 0x14FD JUMPI CALLER PUSH20 0xFFFFFFFFFFFFFFFFFFFFFFFFFFFFFFFFFFFFFFFF AND DUP3 PUSH1 0xA ADD DUP3 PUSH2 0xFFFF AND DUP2 SLOAD DUP2 LT PUSH2 0x1469 JUMPI PUSH2 0x1468 PUSH2 0x5BA1 JUMP JUMPDEST JUMPDEST SWAP1 PUSH1 0x0 MSTORE PUSH1 0x20 PUSH1 0x0 KECCAK256 ADD PUSH1 0x0 SWAP1 SLOAD SWAP1 PUSH2 0x100 EXP SWAP1 DIV PUSH20 0xFFFFFFFFFFFFFFFFFFFFFFFFFFFFFFFFFFFFFFFF AND PUSH20 0xFFFFFFFFFFFFFFFFFFFFFFFFFFFFFFFFFFFFFFFF AND SUB PUSH2 0x14EA JUMPI PUSH1 0x40 MLOAD PUSH32 0x8C379A000000000000000000000000000000000000000000000000000000000 DUP2 MSTORE PUSH1 0x4 ADD PUSH2 0x14E1 SWAP1 PUSH2 0x5C42 JUMP JUMPDEST PUSH1 0x40 MLOAD DUP1 SWAP2 SUB SWAP1 REVERT JUMPDEST DUP1 DUP1 PUSH2 0x14F5 SWAP1 PUSH2 0x56D1 JUMP JUMPDEST SWAP2 POP POP PUSH2 0x1425 JUMP JUMPDEST POP DUP1 PUSH1 0xA ADD CALLER SWAP1 DUP1 PUSH1 0x1 DUP2 SLOAD ADD DUP1 DUP3 SSTORE DUP1 SWAP2 POP POP PUSH1 0x1 SWAP1 SUB SWAP1 PUSH1 0x0 MSTORE PUSH1 0x20 PUSH1 0x0 KECCAK256 ADD PUSH1 0x0 SWAP1 SWAP2 SWAP1 SWAP2 SWAP1 SWAP2 PUSH2 0x100 EXP DUP2 SLOAD DUP2 PUSH20 0xFFFFFFFFFFFFFFFFFFFFFFFFFFFFFFFFFFFFFFFF MUL NOT AND SWAP1 DUP4 PUSH20 0xFFFFFFFFFFFFFFFFFFFFFFFFFFFFFFFFFFFFFFFF AND MUL OR SWAP1 SSTORE POP PUSH1 0x1 PUSH1 0x0 CALLER PUSH20 0xFFFFFFFFFFFFFFFFFFFFFFFFFFFFFFFFFFFFFFFF AND PUSH20 0xFFFFFFFFFFFFFFFFFFFFFFFFFFFFFFFFFFFFFFFF AND DUP2 MSTORE PUSH1 0x20 ADD SWAP1 DUP2 MSTORE PUSH1 0x20 ADD PUSH1 0x0 KECCAK256 PUSH1 0x8 ADD DUP3 SWAP1 DUP1 PUSH1 0x1 DUP2 SLOAD ADD DUP1 DUP3 SSTORE DUP1 SWAP2 POP POP PUSH1 0x1 SWAP1 SUB SWAP1 PUSH1 0x0 MSTORE PUSH1 0x20 PUSH1 0x0 KECCAK256 ADD PUSH1 0x0 SWAP1 SWAP2 SWAP1 SWAP2 SWAP1 SWAP2 POP SWAP1 DUP2 PUSH2 0x15D7 SWAP2 SWAP1 PUSH2 0x58A7 JUMP JUMPDEST POP CALLER PUSH20 0xFFFFFFFFFFFFFFFFFFFFFFFFFFFFFFFFFFFFFFFF AND PUSH32 0x48BC22B3EAB0C993CD29049A8E0A06FA00E13EC87407C1EABD56C3100205D6AD DUP4 PUSH1 0x40 MLOAD PUSH2 0x161E SWAP2 SWAP1 PUSH2 0x5B13 JUMP JUMPDEST PUSH1 0x40 MLOAD DUP1 SWAP2 SUB SWAP1 LOG2 POP POP JUMP JUMPDEST PUSH1 0x60 DUP1 PUSH2 0x1635 PUSH2 0x41FC JUMP JUMPDEST PUSH1 0x0 DUP1 PUSH1 0x60 DUP1 PUSH1 0x0 PUSH1 0x3 DUP10 PUSH1 0x40 MLOAD PUSH2 0x164D SWAP2 SWAP1 PUSH2 0x55BF JUMP JUMPDEST SWAP1 DUP2 MSTORE PUSH1 0x20 ADD PUSH1 0x40 MLOAD DUP1 SWAP2 SUB SWAP1 KECCAK256 SWAP1 POP PUSH1 0x0 DUP2 PUSH1 0x0 ADD DUP1 SLOAD PUSH2 0x166E SWAP1 PUSH2 0x5605 JUMP JUMPDEST SWAP1 POP GT PUSH2 0x16B0 JUMPI PUSH1 0x40 MLOAD PUSH32 0x8C379A000000000000000000000000000000000000000000000000000000000 DUP2 MSTORE PUSH1 0x4 ADD PUSH2 0x16A7 SWAP1 PUSH2 0x5B81 JUMP JUMPDEST PUSH1 0x40 MLOAD DUP1 SWAP2 SUB SWAP1 REVERT JUMPDEST DUP1 PUSH1 0x0 ADD DUP2 PUSH1 0x1 ADD DUP3 PUSH1 0x2 ADD DUP4 PUSH1 0x8 ADD PUSH1 0x0 SWAP1 SLOAD SWAP1 PUSH2 0x100 EXP SWAP1 DIV PUSH20 0xFFFFFFFFFFFFFFFFFFFFFFFFFFFFFFFFFFFFFFFF AND DUP5 PUSH1 0x8 ADD PUSH1 0x14 SWAP1 SLOAD SWAP1 PUSH2 0x100 EXP SWAP1 DIV PUSH2 0xFFFF AND DUP6 PUSH1 0x9 ADD DUP7 PUSH1 0xA ADD DUP7 DUP1 SLOAD PUSH2 0x1708 SWAP1 PUSH2 0x5605 JUMP JUMPDEST DUP1 PUSH1 0x1F ADD PUSH1 0x20 DUP1 SWAP2 DIV MUL PUSH1 0x20 ADD PUSH1 0x40 MLOAD SWAP1 DUP2 ADD PUSH1 0x40 MSTORE DUP1 SWAP3 SWAP2 SWAP1 DUP2 DUP2 MSTORE PUSH1 0x20 ADD DUP3 DUP1 SLOAD PUSH2 0x1734 SWAP1 PUSH2 0x5605 JUMP JUMPDEST DUP1 ISZERO PUSH2 0x1781 JUMPI DUP1 PUSH1 0x1F LT PUSH2 0x1756 JUMPI PUSH2 0x100 DUP1 DUP4 SLOAD DIV MUL DUP4 MSTORE SWAP2 PUSH1 0x20 ADD SWAP2 PUSH2 0x1781 JUMP JUMPDEST DUP3 ADD SWAP2 SWAP1 PUSH1 0x0 MSTORE PUSH1 0x20 PUSH1 0x0 KECCAK256 SWAP1 JUMPDEST DUP2 SLOAD DUP2 MSTORE SWAP1 PUSH1 0x1 ADD SWAP1 PUSH1 0x20 ADD DUP1 DUP4 GT PUSH2 0x1764 JUMPI DUP3 SWAP1 SUB PUSH1 0x1F AND DUP3 ADD SWAP2 JUMPDEST POP POP POP POP POP SWAP7 POP DUP6 DUP1 SLOAD PUSH2 0x1794 SWAP1 PUSH2 0x5605 JUMP JUMPDEST DUP1 PUSH1 0x1F ADD PUSH1 0x20 DUP1 SWAP2 DIV MUL PUSH1 0x20 ADD PUSH1 0x40 MLOAD SWAP1 DUP2 ADD PUSH1 0x40 MSTORE DUP1 SWAP3 SWAP2 SWAP1 DUP2 DUP2 MSTORE PUSH1 0x20 ADD DUP3 DUP1 SLOAD PUSH2 0x17C0 SWAP1 PUSH2 0x5605 JUMP JUMPDEST DUP1 ISZERO PUSH2 0x180D JUMPI DUP1 PUSH1 0x1F LT PUSH2 0x17E2 JUMPI PUSH2 0x100 DUP1 DUP4 SLOAD DIV MUL DUP4 MSTORE SWAP2 PUSH1 0x20 ADD SWAP2 PUSH2 0x180D JUMP JUMPDEST DUP3 ADD SWAP2 SWAP1 PUSH1 0x0 MSTORE PUSH1 0x20 PUSH1 0x0 KECCAK256 SWAP1 JUMPDEST DUP2 SLOAD DUP2 MSTORE SWAP1 PUSH1 0x1 ADD SWAP1 PUSH1 0x20 ADD DUP1 DUP4 GT PUSH2 0x17F0 JUMPI DUP3 SWAP1 SUB PUSH1 0x1F AND DUP3 ADD SWAP2 JUMPDEST POP POP POP POP POP SWAP6 POP DUP5 PUSH1 0x40 MLOAD DUP1 PUSH1 0xC0 ADD PUSH1 0x40 MSTORE SWAP1 DUP2 PUSH1 0x0 DUP3 ADD DUP1 SLOAD PUSH2 0x1830 SWAP1 PUSH2 0x5605 JUMP JUMPDEST DUP1 PUSH1 0x1F ADD PUSH1 0x20 DUP1 SWAP2 DIV MUL PUSH1 0x20 ADD PUSH1 0x40 MLOAD SWAP1 DUP2 ADD PUSH1 0x40 MSTORE DUP1 SWAP3 SWAP2 SWAP1 DUP2 DUP2 MSTORE PUSH1 0x20 ADD DUP3 DUP1 SLOAD PUSH2 0x185C SWAP1 PUSH2 0x5605 JUMP JUMPDEST DUP1 ISZERO PUSH2 0x18A9 JUMPI DUP1 PUSH1 0x1F LT PUSH2 0x187E JUMPI PUSH2 0x100 DUP1 DUP4 SLOAD DIV MUL DUP4 MSTORE SWAP2 PUSH1 0x20 ADD SWAP2 PUSH2 0x18A9 JUMP JUMPDEST DUP3 ADD SWAP2 SWAP1 PUSH1 0x0 MSTORE PUSH1 0x20 PUSH1 0x0 KECCAK256 SWAP1 JUMPDEST DUP2 SLOAD DUP2 MSTORE SWAP1 PUSH1 0x1 ADD SWAP1 PUSH1 0x20 ADD DUP1 DUP4 GT PUSH2 0x188C JUMPI DUP3 SWAP1 SUB PUSH1 0x1F AND DUP3 ADD SWAP2 JUMPDEST POP POP POP POP POP DUP2 MSTORE PUSH1 0x20 ADD PUSH1 0x1 DUP3 ADD DUP1 SLOAD PUSH2 0x18C2 SWAP1 PUSH2 0x5605 JUMP JUMPDEST DUP1 PUSH1 0x1F ADD PUSH1 0x20 DUP1 SWAP2 DIV MUL PUSH1 0x20 ADD PUSH1 0x40 MLOAD SWAP1 DUP2 ADD PUSH1 0x40 MSTORE DUP1 SWAP3 SWAP2 SWAP1 DUP2 DUP2 MSTORE PUSH1 0x20 ADD DUP3 DUP1 SLOAD PUSH2 0x18EE SWAP1 PUSH2 0x5605 JUMP JUMPDEST DUP1 ISZERO PUSH2 0x193B JUMPI DUP1 PUSH1 0x1F LT PUSH2 0x1910 JUMPI PUSH2 0x100 DUP1 DUP4 SLOAD DIV MUL DUP4 MSTORE SWAP2 PUSH1 0x20 ADD SWAP2 PUSH2 0x193B JUMP JUMPDEST DUP3 ADD SWAP2 SWAP1 PUSH1 0x0 MSTORE PUSH1 0x20 PUSH1 0x0 KECCAK256 SWAP1 JUMPDEST DUP2 SLOAD DUP2 MSTORE SWAP1 PUSH1 0x1 ADD SWAP1 PUSH1 0x20 ADD DUP1 DUP4 GT PUSH2 0x191E JUMPI DUP3 SWAP1 SUB PUSH1 0x1F AND DUP3 ADD SWAP2 JUMPDEST POP POP POP POP POP DUP2 MSTORE PUSH1 0x20 ADD PUSH1 0x2 DUP3 ADD DUP1 SLOAD PUSH2 0x1954 SWAP1 PUSH2 0x5605 JUMP JUMPDEST DUP1 PUSH1 0x1F ADD PUSH1 0x20 DUP1 SWAP2 DIV MUL PUSH1 0x20 ADD PUSH1 0x40 MLOAD SWAP1 DUP2 ADD PUSH1 0x40 MSTORE DUP1 SWAP3 SWAP2 SWAP1 DUP2 DUP2 MSTORE PUSH1 0x20 ADD DUP3 DUP1 SLOAD PUSH2 0x1980 SWAP1 PUSH2 0x5605 JUMP JUMPDEST DUP1 ISZERO PUSH2 0x19CD JUMPI DUP1 PUSH1 0x1F LT PUSH2 0x19A2 JUMPI PUSH2 0x100 DUP1 DUP4 SLOAD DIV MUL DUP4 MSTORE SWAP2 PUSH1 0x20 ADD SWAP2 PUSH2 0x19CD JUMP JUMPDEST DUP3 ADD SWAP2 SWAP1 PUSH1 0x0 MSTORE PUSH1 0x20 PUSH1 0x0 KECCAK256 SWAP1 JUMPDEST DUP2 SLOAD DUP2 MSTORE SWAP1 PUSH1 0x1 ADD SWAP1 PUSH1 0x20 ADD DUP1 DUP4 GT PUSH2 0x19B0 JUMPI DUP3 SWAP1 SUB PUSH1 0x1F AND DUP3 ADD SWAP2 JUMPDEST POP POP POP POP POP DUP2 MSTORE PUSH1 0x20 ADD PUSH1 0x3 DUP3 ADD DUP1 SLOAD PUSH2 0x19E6 SWAP1 PUSH2 0x5605 JUMP JUMPDEST DUP1 PUSH1 0x1F ADD PUSH1 0x20 DUP1 SWAP2 DIV MUL PUSH1 0x20 ADD PUSH1 0x40 MLOAD SWAP1 DUP2 ADD PUSH1 0x40 MSTORE DUP1 SWAP3 SWAP2 SWAP1 DUP2 DUP2 MSTORE PUSH1 0x20 ADD DUP3 DUP1 SLOAD PUSH2 0x1A12 SWAP1 PUSH2 0x5605 JUMP JUMPDEST DUP1 ISZERO PUSH2 0x1A5F JUMPI DUP1 PUSH1 0x1F LT PUSH2 0x1A34 JUMPI PUSH2 0x100 DUP1 DUP4 SLOAD DIV MUL DUP4 MSTORE SWAP2 PUSH1 0x20 ADD SWAP2 PUSH2 0x1A5F JUMP JUMPDEST DUP3 ADD SWAP2 SWAP1 PUSH1 0x0 MSTORE PUSH1 0x20 PUSH1 0x0 KECCAK256 SWAP1 JUMPDEST DUP2 SLOAD DUP2 MSTORE SWAP1 PUSH1 0x1 ADD SWAP1 PUSH1 0x20 ADD DUP1 DUP4 GT PUSH2 0x1A42 JUMPI DUP3 SWAP1 SUB PUSH1 0x1F AND DUP3 ADD SWAP2 JUMPDEST POP POP POP POP POP DUP2 MSTORE PUSH1 0x20 ADD PUSH1 0x4 DUP3 ADD DUP1 SLOAD PUSH2 0x1A78 SWAP1 PUSH2 0x5605 JUMP JUMPDEST DUP1 PUSH1 0x1F ADD PUSH1 0x20 DUP1 SWAP2 DIV MUL PUSH1 0x20 ADD PUSH1 0x40 MLOAD SWAP1 DUP2 ADD PUSH1 0x40 MSTORE DUP1 SWAP3 SWAP2 SWAP1 DUP2 DUP2 MSTORE PUSH1 0x20 ADD DUP3 DUP1 SLOAD PUSH2 0x1AA4 SWAP1 PUSH2 0x5605 JUMP JUMPDEST DUP1 ISZERO PUSH2 0x1AF1 JUMPI DUP1 PUSH1 0x1F LT PUSH2 0x1AC6 JUMPI PUSH2 0x100 DUP1 DUP4 SLOAD DIV MUL DUP4 MSTORE SWAP2 PUSH1 0x20 ADD SWAP2 PUSH2 0x1AF1 JUMP JUMPDEST DUP3 ADD SWAP2 SWAP1 PUSH1 0x0 MSTORE PUSH1 0x20 PUSH1 0x0 KECCAK256 SWAP1 JUMPDEST DUP2 SLOAD DUP2 MSTORE SWAP1 PUSH1 0x1 ADD SWAP1 PUSH1 0x20 ADD DUP1 DUP4 GT PUSH2 0x1AD4 JUMPI DUP3 SWAP1 SUB PUSH1 0x1F AND DUP3 ADD SWAP2 JUMPDEST POP POP POP POP POP DUP2 MSTORE PUSH1 0x20 ADD PUSH1 0x5 DUP3 ADD PUSH1 0x0 SWAP1 SLOAD SWAP1 PUSH2 0x100 EXP SWAP1 DIV PUSH2 0xFFFF AND PUSH2 0xFFFF AND PUSH2 0xFFFF AND DUP2 MSTORE POP POP SWAP5 POP DUP3 PUSH2 0xFFFF AND SWAP3 POP DUP2 DUP1 SLOAD DUP1 PUSH1 0x20 MUL PUSH1 0x20 ADD PUSH1 0x40 MLOAD SWAP1 DUP2 ADD PUSH1 0x40 MSTORE DUP1 SWAP3 SWAP2 SWAP1 DUP2 DUP2 MSTORE PUSH1 0x20 ADD PUSH1 0x0 SWAP1 JUMPDEST DUP3 DUP3 LT ISZERO PUSH2 0x1BF0 JUMPI DUP4 DUP3 SWAP1 PUSH1 0x0 MSTORE PUSH1 0x20 PUSH1 0x0 KECCAK256 ADD DUP1 SLOAD PUSH2 0x1B63 SWAP1 PUSH2 0x5605 JUMP JUMPDEST DUP1 PUSH1 0x1F ADD PUSH1 0x20 DUP1 SWAP2 DIV MUL PUSH1 0x20 ADD PUSH1 0x40 MLOAD SWAP1 DUP2 ADD PUSH1 0x40 MSTORE DUP1 SWAP3 SWAP2 SWAP1 DUP2 DUP2 MSTORE PUSH1 0x20 ADD DUP3 DUP1 SLOAD PUSH2 0x1B8F SWAP1 PUSH2 0x5605 JUMP JUMPDEST DUP1 ISZERO PUSH2 0x1BDC JUMPI DUP1 PUSH1 0x1F LT PUSH2 0x1BB1 JUMPI PUSH2 0x100 DUP1 DUP4 SLOAD DIV MUL DUP4 MSTORE SWAP2 PUSH1 0x20 ADD SWAP2 PUSH2 0x1BDC JUMP JUMPDEST DUP3 ADD SWAP2 SWAP1 PUSH1 0x0 MSTORE PUSH1 0x20 PUSH1 0x0 KECCAK256 SWAP1 JUMPDEST DUP2 SLOAD DUP2 MSTORE SWAP1 PUSH1 0x1 ADD SWAP1 PUSH1 0x20 ADD DUP1 DUP4 GT PUSH2 0x1BBF JUMPI DUP3 SWAP1 SUB PUSH1 0x1F AND DUP3 ADD SWAP2 JUMPDEST POP POP POP POP POP DUP2 MSTORE PUSH1 0x20 ADD SWAP1 PUSH1 0x1 ADD SWAP1 PUSH2 0x1B44 JUMP JUMPDEST POP POP POP POP SWAP2 POP DUP1 DUP1 SLOAD DUP1 PUSH1 0x20 MUL PUSH1 0x20 ADD PUSH1 0x40 MLOAD SWAP1 DUP2 ADD PUSH1 0x40 MSTORE DUP1 SWAP3 SWAP2 SWAP1 DUP2 DUP2 MSTORE PUSH1 0x20 ADD DUP3 DUP1 SLOAD DUP1 ISZERO PUSH2 0x1C77 JUMPI PUSH1 0x20 MUL DUP3 ADD SWAP2 SWAP1 PUSH1 0x0 MSTORE PUSH1 0x20 PUSH1 0x0 KECCAK256 SWAP1 JUMPDEST DUP2 PUSH1 0x0 SWAP1 SLOAD SWAP1 PUSH2 0x100 EXP SWAP1 DIV PUSH20 0xFFFFFFFFFFFFFFFFFFFFFFFFFFFFFFFFFFFFFFFF AND PUSH20 0xFFFFFFFFFFFFFFFFFFFFFFFFFFFFFFFFFFFFFFFF AND DUP2 MSTORE PUSH1 0x20 ADD SWAP1 PUSH1 0x1 ADD SWAP1 DUP1 DUP4 GT PUSH2 0x1C2D JUMPI JUMPDEST POP POP POP POP POP SWAP1 POP SWAP8 POP SWAP8 POP SWAP8 POP SWAP8 POP SWAP8 POP SWAP8 POP SWAP8 POP POP SWAP2 SWAP4 SWAP6 SWAP8 SWAP1 SWAP3 SWAP5 SWAP7 POP JUMP JUMPDEST PUSH1 0x1 PUSH1 0x0 CALLER PUSH20 0xFFFFFFFFFFFFFFFFFFFFFFFFFFFFFFFFFFFFFFFF AND PUSH20 0xFFFFFFFFFFFFFFFFFFFFFFFFFFFFFFFFFFFFFFFF AND DUP2 MSTORE PUSH1 0x20 ADD SWAP1 DUP2 MSTORE PUSH1 0x20 ADD PUSH1 0x0 KECCAK256 PUSH1 0x7 ADD PUSH1 0x0 SWAP1 SLOAD SWAP1 PUSH2 0x100 EXP SWAP1 DIV PUSH1 0xFF AND PUSH2 0x1D27 JUMPI PUSH1 0x40 MLOAD PUSH32 0x8C379A000000000000000000000000000000000000000000000000000000000 DUP2 MSTORE PUSH1 0x4 ADD PUSH2 0x1D1E SWAP1 PUSH2 0x5AF3 JUMP JUMPDEST PUSH1 0x40 MLOAD DUP1 SWAP2 SUB SWAP1 REVERT JUMPDEST DUP1 PUSH1 0x1 PUSH1 0x0 CALLER PUSH20 0xFFFFFFFFFFFFFFFFFFFFFFFFFFFFFFFFFFFFFFFF AND PUSH20 0xFFFFFFFFFFFFFFFFFFFFFFFFFFFFFFFFFFFFFFFF AND DUP2 MSTORE PUSH1 0x20 ADD SWAP1 DUP2 MSTORE PUSH1 0x20 ADD PUSH1 0x0 KECCAK256 PUSH1 0x5 ADD SWAP1 DUP2 PUSH2 0x1D76 SWAP2 SWAP1 PUSH2 0x58A7 JUMP JUMPDEST POP CALLER PUSH20 0xFFFFFFFFFFFFFFFFFFFFFFFFFFFFFFFFFFFFFFFF AND PUSH32 0xFB02F8B5008BB4E6551AC10938980A836239B9187014AD8BD7D4166234196A99 DUP3 PUSH1 0x40 MLOAD PUSH2 0x1DBD SWAP2 SWAP1 PUSH2 0x5B13 JUMP JUMPDEST PUSH1 0x40 MLOAD DUP1 SWAP2 SUB SWAP1 LOG2 POP JUMP JUMPDEST PUSH1 0x1 PUSH1 0x0 CALLER PUSH20 0xFFFFFFFFFFFFFFFFFFFFFFFFFFFFFFFFFFFFFFFF AND PUSH20 0xFFFFFFFFFFFFFFFFFFFFFFFFFFFFFFFFFFFFFFFF AND DUP2 MSTORE PUSH1 0x20 ADD SWAP1 DUP2 MSTORE PUSH1 0x20 ADD PUSH1 0x0 KECCAK256 PUSH1 0x7 ADD PUSH1 0x0 SWAP1 SLOAD SWAP1 PUSH2 0x100 EXP SWAP1 DIV PUSH1 0xFF AND ISZERO PUSH2 0x1E58 JUMPI PUSH1 0x40 MLOAD PUSH32 0x8C379A000000000000000000000000000000000000000000000000000000000 DUP2 MSTORE PUSH1 0x4 ADD PUSH2 0x1E4F SWAP1 PUSH2 0x5CAE JUMP JUMPDEST PUSH1 0x40 MLOAD DUP1 SWAP2 SUB SWAP1 REVERT JUMPDEST PUSH1 0x0 PUSH1 0x1 PUSH1 0x0 CALLER PUSH20 0xFFFFFFFFFFFFFFFFFFFFFFFFFFFFFFFFFFFFFFFF AND PUSH20 0xFFFFFFFFFFFFFFFFFFFFFFFFFFFFFFFFFFFFFFFF AND DUP2 MSTORE PUSH1 0x20 ADD SWAP1 DUP2 MSTORE PUSH1 0x20 ADD PUSH1 0x0 KECCAK256 SWAP1 POP PUSH1 0x1 DUP2 PUSH1 0x7 ADD PUSH1 0x0 PUSH2 0x100 EXP DUP2 SLOAD DUP2 PUSH1 0xFF MUL NOT AND SWAP1 DUP4 ISZERO ISZERO MUL OR SWAP1 SSTORE POP DUP2 DUP2 PUSH1 0x0 ADD SWAP1 DUP2 PUSH2 0x1EC9 SWAP2 SWAP1 PUSH2 0x58A7 JUMP JUMPDEST POP PUSH1 0x0 PUSH8 0xFFFFFFFFFFFFFFFF DUP2 GT ISZERO PUSH2 0x1EE5 JUMPI PUSH2 0x1EE4 PUSH2 0x4589 JUMP JUMPDEST JUMPDEST PUSH1 0x40 MLOAD SWAP1 DUP1 DUP3 MSTORE DUP1 PUSH1 0x20 MUL PUSH1 0x20 ADD DUP3 ADD PUSH1 0x40 MSTORE DUP1 ISZERO PUSH2 0x1F18 JUMPI DUP2 PUSH1 0x20 ADD JUMPDEST PUSH1 0x60 DUP2 MSTORE PUSH1 0x20 ADD SWAP1 PUSH1 0x1 SWAP1 SUB SWAP1 DUP2 PUSH2 0x1F03 JUMPI SWAP1 POP JUMPDEST POP DUP2 PUSH1 0x1 ADD SWAP1 DUP1 MLOAD SWAP1 PUSH1 0x20 ADD SWAP1 PUSH2 0x1F30 SWAP3 SWAP2 SWAP1 PUSH2 0x40F4 JUMP JUMPDEST POP PUSH1 0x0 PUSH8 0xFFFFFFFFFFFFFFFF DUP2 GT ISZERO PUSH2 0x1F4C JUMPI PUSH2 0x1F4B PUSH2 0x4589 JUMP JUMPDEST JUMPDEST PUSH1 0x40 MLOAD SWAP1 DUP1 DUP3 MSTORE DUP1 PUSH1 0x20 MUL PUSH1 0x20 ADD DUP3 ADD PUSH1 0x40 MSTORE DUP1 ISZERO PUSH2 0x1F7F JUMPI DUP2 PUSH1 0x20 ADD JUMPDEST PUSH1 0x60 DUP2 MSTORE PUSH1 0x20 ADD SWAP1 PUSH1 0x1 SWAP1 SUB SWAP1 DUP2 PUSH2 0x1F6A JUMPI SWAP1 POP JUMPDEST POP DUP2 PUSH1 0x2 ADD SWAP1 DUP1 MLOAD SWAP1 PUSH1 0x20 ADD SWAP1 PUSH2 0x1F97 SWAP3 SWAP2 SWAP1 PUSH2 0x40F4 JUMP JUMPDEST POP PUSH1 0x0 PUSH8 0xFFFFFFFFFFFFFFFF DUP2 GT ISZERO PUSH2 0x1FB3 JUMPI PUSH2 0x1FB2 PUSH2 0x4589 JUMP JUMPDEST JUMPDEST PUSH1 0x40 MLOAD SWAP1 DUP1 DUP3 MSTORE DUP1 PUSH1 0x20 MUL PUSH1 0x20 ADD DUP3 ADD PUSH1 0x40 MSTORE DUP1 ISZERO PUSH2 0x1FE6 JUMPI DUP2 PUSH1 0x20 ADD JUMPDEST PUSH1 0x60 DUP2 MSTORE PUSH1 0x20 ADD SWAP1 PUSH1 0x1 SWAP1 SUB SWAP1 DUP2 PUSH2 0x1FD1 JUMPI SWAP1 POP JUMPDEST POP DUP2 PUSH1 0x3 ADD SWAP1 DUP1 MLOAD SWAP1 PUSH1 0x20 ADD SWAP1 PUSH2 0x1FFE SWAP3 SWAP2 SWAP1 PUSH2 0x40F4 JUMP JUMPDEST POP PUSH1 0x40 MLOAD DUP1 PUSH1 0x20 ADD PUSH1 0x40 MSTORE DUP1 PUSH1 0x0 DUP2 MSTORE POP DUP2 PUSH1 0x5 ADD SWAP1 DUP2 PUSH2 0x201F SWAP2 SWAP1 PUSH2 0x58A7 JUMP JUMPDEST POP PUSH1 0x4 DUP2 SWAP1 DUP1 PUSH1 0x1 DUP2 SLOAD ADD DUP1 DUP3 SSTORE DUP1 SWAP2 POP POP PUSH1 0x1 SWAP1 SUB SWAP1 PUSH1 0x0 MSTORE PUSH1 0x20 PUSH1 0x0 KECCAK256 SWAP1 PUSH1 0x9 MUL ADD PUSH1 0x0 SWAP1 SWAP2 SWAP1 SWAP2 SWAP1 SWAP2 POP PUSH1 0x0 DUP3 ADD DUP2 PUSH1 0x0 ADD SWAP1 DUP2 PUSH2 0x2060 SWAP2 SWAP1 PUSH2 0x598F JUMP JUMPDEST POP PUSH1 0x1 DUP3 ADD DUP2 PUSH1 0x1 ADD SWAP1 DUP1 SLOAD PUSH2 0x2077 SWAP3 SWAP2 SWAP1 PUSH2 0x414D JUMP JUMPDEST POP PUSH1 0x2 DUP3 ADD DUP2 PUSH1 0x2 ADD SWAP1 DUP1 SLOAD PUSH2 0x208E SWAP3 SWAP2 SWAP1 PUSH2 0x414D JUMP JUMPDEST POP PUSH1 0x3 DUP3 ADD DUP2 PUSH1 0x3 ADD SWAP1 DUP1 SLOAD PUSH2 0x20A5 SWAP3 SWAP2 SWAP1 PUSH2 0x414D JUMP JUMPDEST POP PUSH1 0x4 DUP3 ADD DUP2 PUSH1 0x4 ADD SWAP1 DUP1 SLOAD PUSH2 0x20BC SWAP3 SWAP2 SWAP1 PUSH2 0x4236 JUMP JUMPDEST POP PUSH1 0x5 DUP3 ADD DUP2 PUSH1 0x5 ADD SWAP1 DUP2 PUSH2 0x20D1 SWAP2 SWAP1 PUSH2 0x598F JUMP JUMPDEST POP PUSH1 0x6 DUP3 ADD DUP2 PUSH1 0x6 ADD SWAP1 DUP1 SLOAD PUSH2 0x20E8 SWAP3 SWAP2 SWAP1 PUSH2 0x4363 JUMP JUMPDEST POP PUSH1 0x7 DUP3 ADD PUSH1 0x0 SWAP1 SLOAD SWAP1 PUSH2 0x100 EXP SWAP1 DIV PUSH1 0xFF AND DUP2 PUSH1 0x7 ADD PUSH1 0x0 PUSH2 0x100 EXP DUP2 SLOAD DUP2 PUSH1 0xFF MUL NOT AND SWAP1 DUP4 ISZERO ISZERO MUL OR SWAP1 SSTORE POP PUSH1 0x8 DUP3 ADD DUP2 PUSH1 0x8 ADD SWAP1 DUP1 SLOAD PUSH2 0x212C SWAP3 SWAP2 SWAP1 PUSH2 0x414D JUMP JUMPDEST POP POP POP CALLER PUSH20 0xFFFFFFFFFFFFFFFFFFFFFFFFFFFFFFFFFFFFFFFF AND PUSH32 0x48CAC28AD4DC618E15F4C2DD5E97751182F166DE97B25618318B2112AA951A2F DUP4 PUSH1 0x40 MLOAD PUSH2 0x2175 SWAP2 SWAP1 PUSH2 0x5B13 JUMP JUMPDEST PUSH1 0x40 MLOAD DUP1 SWAP2 SUB SWAP1 LOG2 POP POP JUMP JUMPDEST PUSH1 0x60 PUSH1 0x1 PUSH1 0x0 CALLER PUSH20 0xFFFFFFFFFFFFFFFFFFFFFFFFFFFFFFFFFFFFFFFF AND PUSH20 0xFFFFFFFFFFFFFFFFFFFFFFFFFFFFFFFFFFFFFFFF AND DUP2 MSTORE PUSH1 0x20 ADD SWAP1 DUP2 MSTORE PUSH1 0x20 ADD PUSH1 0x0 KECCAK256 PUSH1 0x7 ADD PUSH1 0x0 SWAP1 SLOAD SWAP1 PUSH2 0x100 EXP SWAP1 DIV PUSH1 0xFF AND PUSH2 0x2212 JUMPI PUSH1 0x40 MLOAD PUSH32 0x8C379A000000000000000000000000000000000000000000000000000000000 DUP2 MSTORE PUSH1 0x4 ADD PUSH2 0x2209 SWAP1 PUSH2 0x5AF3 JUMP JUMPDEST PUSH1 0x40 MLOAD DUP1 SWAP2 SUB SWAP1 REVERT JUMPDEST PUSH1 0x1 PUSH1 0x0 CALLER PUSH20 0xFFFFFFFFFFFFFFFFFFFFFFFFFFFFFFFFFFFFFFFF AND PUSH20 0xFFFFFFFFFFFFFFFFFFFFFFFFFFFFFFFFFFFFFFFF AND DUP2 MSTORE PUSH1 0x20 ADD SWAP1 DUP2 MSTORE PUSH1 0x20 ADD PUSH1 0x0 KECCAK256 PUSH1 0x8 ADD DUP1 SLOAD DUP1 PUSH1 0x20 MUL PUSH1 0x20 ADD PUSH1 0x40 MLOAD SWAP1 DUP2 ADD PUSH1 0x40 MSTORE DUP1 SWAP3 SWAP2 SWAP1 DUP2 DUP2 MSTORE PUSH1 0x20 ADD PUSH1 0x0 SWAP1 JUMPDEST DUP3 DUP3 LT ISZERO PUSH2 0x2320 JUMPI DUP4 DUP3 SWAP1 PUSH1 0x0 MSTORE PUSH1 0x20 PUSH1 0x0 KECCAK256 ADD DUP1 SLOAD PUSH2 0x2293 SWAP1 PUSH2 0x5605 JUMP JUMPDEST DUP1 PUSH1 0x1F ADD PUSH1 0x20 DUP1 SWAP2 DIV MUL PUSH1 0x20 ADD PUSH1 0x40 MLOAD SWAP1 DUP2 ADD PUSH1 0x40 MSTORE DUP1 SWAP3 SWAP2 SWAP1 DUP2 DUP2 MSTORE PUSH1 0x20 ADD DUP3 DUP1 SLOAD PUSH2 0x22BF SWAP1 PUSH2 0x5605 JUMP JUMPDEST DUP1 ISZERO PUSH2 0x230C JUMPI DUP1 PUSH1 0x1F LT PUSH2 0x22E1 JUMPI PUSH2 0x100 DUP1 DUP4 SLOAD DIV MUL DUP4 MSTORE SWAP2 PUSH1 0x20 ADD SWAP2 PUSH2 0x230C JUMP JUMPDEST DUP3 ADD SWAP2 SWAP1 PUSH1 0x0 MSTORE PUSH1 0x20 PUSH1 0x0 KECCAK256 SWAP1 JUMPDEST DUP2 SLOAD DUP2 MSTORE SWAP1 PUSH1 0x1 ADD SWAP1 PUSH1 0x20 ADD DUP1 DUP4 GT PUSH2 0x22EF JUMPI DUP3 SWAP1 SUB PUSH1 0x1F AND DUP3 ADD SWAP2 JUMPDEST POP POP POP POP POP DUP2 MSTORE PUSH1 0x20 ADD SWAP1 PUSH1 0x1 ADD SWAP1 PUSH2 0x2274 JUMP JUMPDEST POP POP POP POP SWAP1 POP SWAP1 JUMP JUMPDEST PUSH1 0x1 PUSH1 0x0 CALLER PUSH20 0xFFFFFFFFFFFFFFFFFFFFFFFFFFFFFFFFFFFFFFFF AND PUSH20 0xFFFFFFFFFFFFFFFFFFFFFFFFFFFFFFFFFFFFFFFF AND DUP2 MSTORE PUSH1 0x20 ADD SWAP1 DUP2 MSTORE PUSH1 0x20 ADD PUSH1 0x0 KECCAK256 PUSH1 0x7 ADD PUSH1 0x0 SWAP1 SLOAD SWAP1 PUSH2 0x100 EXP SWAP1 DIV PUSH1 0xFF AND PUSH2 0x23B8 JUMPI PUSH1 0x40 MLOAD PUSH32 0x8C379A000000000000000000000000000000000000000000000000000000000 DUP2 MSTORE PUSH1 0x4 ADD PUSH2 0x23AF SWAP1 PUSH2 0x5AF3 JUMP JUMPDEST PUSH1 0x40 MLOAD DUP1 SWAP2 SUB SWAP1 REVERT JUMPDEST PUSH1 0x1 PUSH1 0x0 CALLER PUSH20 0xFFFFFFFFFFFFFFFFFFFFFFFFFFFFFFFFFFFFFFFF AND PUSH20 0xFFFFFFFFFFFFFFFFFFFFFFFFFFFFFFFFFFFFFFFF AND DUP2 MSTORE PUSH1 0x20 ADD SWAP1 DUP2 MSTORE PUSH1 0x20 ADD PUSH1 0x0 KECCAK256 PUSH1 0x3 ADD DUP2 SWAP1 DUP1 PUSH1 0x1 DUP2 SLOAD ADD DUP1 DUP3 SSTORE DUP1 SWAP2 POP POP PUSH1 0x1 SWAP1 SUB SWAP1 PUSH1 0x0 MSTORE PUSH1 0x20 PUSH1 0x0 KECCAK256 ADD PUSH1 0x0 SWAP1 SWAP2 SWAP1 SWAP2 SWAP1 SWAP2 POP SWAP1 DUP2 PUSH2 0x242C SWAP2 SWAP1 PUSH2 0x58A7 JUMP JUMPDEST POP CALLER PUSH20 0xFFFFFFFFFFFFFFFFFFFFFFFFFFFFFFFFFFFFFFFF AND PUSH32 0x9FEA722A78BC03B22869A8FA8DB043E542F7B63A042973693E67DFB1C5BAAEA4 DUP3 PUSH1 0x40 MLOAD PUSH2 0x2473 SWAP2 SWAP1 PUSH2 0x5B13 JUMP JUMPDEST PUSH1 0x40 MLOAD DUP1 SWAP2 SUB SWAP1 LOG2 POP JUMP JUMPDEST PUSH1 0x60 DUP1 PUSH1 0x60 DUP1 PUSH1 0x60 DUP1 PUSH1 0x60 PUSH1 0x1 PUSH1 0x0 CALLER PUSH20 0xFFFFFFFFFFFFFFFFFFFFFFFFFFFFFFFFFFFFFFFF AND PUSH20 0xFFFFFFFFFFFFFFFFFFFFFFFFFFFFFFFFFFFFFFFF AND DUP2 MSTORE PUSH1 0x20 ADD SWAP1 DUP2 MSTORE PUSH1 0x20 ADD PUSH1 0x0 KECCAK256 PUSH1 0x7 ADD PUSH1 0x0 SWAP1 SLOAD SWAP1 PUSH2 0x100 EXP SWAP1 DIV PUSH1 0xFF AND PUSH2 0x2518 JUMPI PUSH1 0x40 MLOAD PUSH32 0x8C379A000000000000000000000000000000000000000000000000000000000 DUP2 MSTORE PUSH1 0x4 ADD PUSH2 0x250F SWAP1 PUSH2 0x5AF3 JUMP JUMPDEST PUSH1 0x40 MLOAD DUP1 SWAP2 SUB SWAP1 REVERT JUMPDEST PUSH1 0x0 PUSH1 0x1 PUSH1 0x0 CALLER PUSH20 0xFFFFFFFFFFFFFFFFFFFFFFFFFFFFFFFFFFFFFFFF AND PUSH20 0xFFFFFFFFFFFFFFFFFFFFFFFFFFFFFFFFFFFFFFFF AND DUP2 MSTORE PUSH1 0x20 ADD SWAP1 DUP2 MSTORE PUSH1 0x20 ADD PUSH1 0x0 KECCAK256 SWAP1 POP DUP1 PUSH1 0x0 ADD DUP2 PUSH1 0x1 ADD DUP3 PUSH1 0x2 ADD DUP4 PUSH1 0x3 ADD DUP5 PUSH1 0x5 ADD DUP6 PUSH1 0x6 ADD DUP7 PUSH1 0x4 ADD DUP7 DUP1 SLOAD PUSH2 0x2583 SWAP1 PUSH2 0x5605 JUMP JUMPDEST DUP1 PUSH1 0x1F ADD PUSH1 0x20 DUP1 SWAP2 DIV MUL PUSH1 0x20 ADD PUSH1 0x40 MLOAD SWAP1 DUP2 ADD PUSH1 0x40 MSTORE DUP1 SWAP3 SWAP2 SWAP1 DUP2 DUP2 MSTORE PUSH1 0x20 ADD DUP3 DUP1 SLOAD PUSH2 0x25AF SWAP1 PUSH2 0x5605 JUMP JUMPDEST DUP1 ISZERO PUSH2 0x25FC JUMPI DUP1 PUSH1 0x1F LT PUSH2 0x25D1 JUMPI PUSH2 0x100 DUP1 DUP4 SLOAD DIV MUL DUP4 MSTORE SWAP2 PUSH1 0x20 ADD SWAP2 PUSH2 0x25FC JUMP JUMPDEST DUP3 ADD SWAP2 SWAP1 PUSH1 0x0 MSTORE PUSH1 0x20 PUSH1 0x0 KECCAK256 SWAP1 JUMPDEST DUP2 SLOAD DUP2 MSTORE SWAP1 PUSH1 0x1 ADD SWAP1 PUSH1 0x20 ADD DUP1 DUP4 GT PUSH2 0x25DF JUMPI DUP3 SWAP1 SUB PUSH1 0x1F AND DUP3 ADD SWAP2 JUMPDEST POP POP POP POP POP SWAP7 POP DUP6 DUP1 SLOAD DUP1 PUSH1 0x20 MUL PUSH1 0x20 ADD PUSH1 0x40 MLOAD SWAP1 DUP2 ADD PUSH1 0x40 MSTORE DUP1 SWAP3 SWAP2 SWAP1 DUP2 DUP2 MSTORE PUSH1 0x20 ADD PUSH1 0x0 SWAP1 JUMPDEST DUP3 DUP3 LT ISZERO PUSH2 0x26D0 JUMPI DUP4 DUP3 SWAP1 PUSH1 0x0 MSTORE PUSH1 0x20 PUSH1 0x0 KECCAK256 ADD DUP1 SLOAD PUSH2 0x2643 SWAP1 PUSH2 0x5605 JUMP JUMPDEST DUP1 PUSH1 0x1F ADD PUSH1 0x20 DUP1 SWAP2 DIV MUL PUSH1 0x20 ADD PUSH1 0x40 MLOAD SWAP1 DUP2 ADD PUSH1 0x40 MSTORE DUP1 SWAP3 SWAP2 SWAP1 DUP2 DUP2 MSTORE PUSH1 0x20 ADD DUP3 DUP1 SLOAD PUSH2 0x266F SWAP1 PUSH2 0x5605 JUMP JUMPDEST DUP1 ISZERO PUSH2 0x26BC JUMPI DUP1 PUSH1 0x1F LT PUSH2 0x2691 JUMPI PUSH2 0x100 DUP1 DUP4 SLOAD DIV MUL DUP4 MSTORE SWAP2 PUSH1 0x20 ADD SWAP2 PUSH2 0x26BC JUMP JUMPDEST DUP3 ADD SWAP2 SWAP1 PUSH1 0x0 MSTORE PUSH1 0x20 PUSH1 0x0 KECCAK256 SWAP1 JUMPDEST DUP2 SLOAD DUP2 MSTORE SWAP1 PUSH1 0x1 ADD SWAP1 PUSH1 0x20 ADD DUP1 DUP4 GT PUSH2 0x269F JUMPI DUP3 SWAP1 SUB PUSH1 0x1F AND DUP3 ADD SWAP2 JUMPDEST POP POP POP POP POP DUP2 MSTORE PUSH1 0x20 ADD SWAP1 PUSH1 0x1 ADD SWAP1 PUSH2 0x2624 JUMP JUMPDEST POP POP POP POP SWAP6 POP DUP5 DUP1 SLOAD DUP1 PUSH1 0x20 MUL PUSH1 0x20 ADD PUSH1 0x40 MLOAD SWAP1 DUP2 ADD PUSH1 0x40 MSTORE DUP1 SWAP3 SWAP2 SWAP1 DUP2 DUP2 MSTORE PUSH1 0x20 ADD PUSH1 0x0 SWAP1 JUMPDEST DUP3 DUP3 LT ISZERO PUSH2 0x27A3 JUMPI DUP4 DUP3 SWAP1 PUSH1 0x0 MSTORE PUSH1 0x20 PUSH1 0x0 KECCAK256 ADD DUP1 SLOAD PUSH2 0x2716 SWAP1 PUSH2 0x5605 JUMP JUMPDEST DUP1 PUSH1 0x1F ADD PUSH1 0x20 DUP1 SWAP2 DIV MUL PUSH1 0x20 ADD PUSH1 0x40 MLOAD SWAP1 DUP2 ADD PUSH1 0x40 MSTORE DUP1 SWAP3 SWAP2 SWAP1 DUP2 DUP2 MSTORE PUSH1 0x20 ADD DUP3 DUP1 SLOAD PUSH2 0x2742 SWAP1 PUSH2 0x5605 JUMP JUMPDEST DUP1 ISZERO PUSH2 0x278F JUMPI DUP1 PUSH1 0x1F LT PUSH2 0x2764 JUMPI PUSH2 0x100 DUP1 DUP4 SLOAD DIV MUL DUP4 MSTORE SWAP2 PUSH1 0x20 ADD SWAP2 PUSH2 0x278F JUMP JUMPDEST DUP3 ADD SWAP2 SWAP1 PUSH1 0x0 MSTORE PUSH1 0x20 PUSH1 0x0 KECCAK256 SWAP1 JUMPDEST DUP2 SLOAD DUP2 MSTORE SWAP1 PUSH1 0x1 ADD SWAP1 PUSH1 0x20 ADD DUP1 DUP4 GT PUSH2 0x2772 JUMPI DUP3 SWAP1 SUB PUSH1 0x1F AND DUP3 ADD SWAP2 JUMPDEST POP POP POP POP POP DUP2 MSTORE PUSH1 0x20 ADD SWAP1 PUSH1 0x1 ADD SWAP1 PUSH2 0x26F7 JUMP JUMPDEST POP POP POP POP SWAP5 POP DUP4 DUP1 SLOAD DUP1 PUSH1 0x20 MUL PUSH1 0x20 ADD PUSH1 0x40 MLOAD SWAP1 DUP2 ADD PUSH1 0x40 MSTORE DUP1 SWAP3 SWAP2 SWAP1 DUP2 DUP2 MSTORE PUSH1 0x20 ADD PUSH1 0x0 SWAP1 JUMPDEST DUP3 DUP3 LT ISZERO PUSH2 0x2876 JUMPI DUP4 DUP3 SWAP1 PUSH1 0x0 MSTORE PUSH1 0x20 PUSH1 0x0 KECCAK256 ADD DUP1 SLOAD PUSH2 0x27E9 SWAP1 PUSH2 0x5605 JUMP JUMPDEST DUP1 PUSH1 0x1F ADD PUSH1 0x20 DUP1 SWAP2 DIV MUL PUSH1 0x20 ADD PUSH1 0x40 MLOAD SWAP1 DUP2 ADD PUSH1 0x40 MSTORE DUP1 SWAP3 SWAP2 SWAP1 DUP2 DUP2 MSTORE PUSH1 0x20 ADD DUP3 DUP1 SLOAD PUSH2 0x2815 SWAP1 PUSH2 0x5605 JUMP JUMPDEST DUP1 ISZERO PUSH2 0x2862 JUMPI DUP1 PUSH1 0x1F LT PUSH2 0x2837 JUMPI PUSH2 0x100 DUP1 DUP4 SLOAD DIV MUL DUP4 MSTORE SWAP2 PUSH1 0x20 ADD SWAP2 PUSH2 0x2862 JUMP JUMPDEST DUP3 ADD SWAP2 SWAP1 PUSH1 0x0 MSTORE PUSH1 0x20 PUSH1 0x0 KECCAK256 SWAP1 JUMPDEST DUP2 SLOAD DUP2 MSTORE SWAP1 PUSH1 0x1 ADD SWAP1 PUSH1 0x20 ADD DUP1 DUP4 GT PUSH2 0x2845 JUMPI DUP3 SWAP1 SUB PUSH1 0x1F AND DUP3 ADD SWAP2 JUMPDEST POP POP POP POP POP DUP2 MSTORE PUSH1 0x20 ADD SWAP1 PUSH1 0x1 ADD SWAP1 PUSH2 0x27CA JUMP JUMPDEST POP POP POP POP SWAP4 POP DUP3 DUP1 SLOAD PUSH2 0x2888 SWAP1 PUSH2 0x5605 JUMP JUMPDEST DUP1 PUSH1 0x1F ADD PUSH1 0x20 DUP1 SWAP2 DIV MUL PUSH1 0x20 ADD PUSH1 0x40 MLOAD SWAP1 DUP2 ADD PUSH1 0x40 MSTORE DUP1 SWAP3 SWAP2 SWAP1 DUP2 DUP2 MSTORE PUSH1 0x20 ADD DUP3 DUP1 SLOAD PUSH2 0x28B4 SWAP1 PUSH2 0x5605 JUMP JUMPDEST DUP1 ISZERO PUSH2 0x2901 JUMPI DUP1 PUSH1 0x1F LT PUSH2 0x28D6 JUMPI PUSH2 0x100 DUP1 DUP4 SLOAD DIV MUL DUP4 MSTORE SWAP2 PUSH1 0x20 ADD SWAP2 PUSH2 0x2901 JUMP JUMPDEST DUP3 ADD SWAP2 SWAP1 PUSH1 0x0 MSTORE PUSH1 0x20 PUSH1 0x0 KECCAK256 SWAP1 JUMPDEST DUP2 SLOAD DUP2 MSTORE SWAP1 PUSH1 0x1 ADD SWAP1 PUSH1 0x20 ADD DUP1 DUP4 GT PUSH2 0x28E4 JUMPI DUP3 SWAP1 SUB PUSH1 0x1F AND DUP3 ADD SWAP2 JUMPDEST POP POP POP POP POP SWAP3 POP DUP2 DUP1 SLOAD DUP1 PUSH1 0x20 MUL PUSH1 0x20 ADD PUSH1 0x40 MLOAD SWAP1 DUP2 ADD PUSH1 0x40 MSTORE DUP1 SWAP3 SWAP2 SWAP1 DUP2 DUP2 MSTORE PUSH1 0x20 ADD PUSH1 0x0 SWAP1 JUMPDEST DUP3 DUP3 LT ISZERO PUSH2 0x2B11 JUMPI DUP4 DUP3 SWAP1 PUSH1 0x0 MSTORE PUSH1 0x20 PUSH1 0x0 KECCAK256 SWAP1 PUSH1 0x3 MUL ADD PUSH1 0x40 MLOAD DUP1 PUSH1 0x60 ADD PUSH1 0x40 MSTORE SWAP1 DUP2 PUSH1 0x0 DUP3 ADD DUP1 SLOAD PUSH2 0x295C SWAP1 PUSH2 0x5605 JUMP JUMPDEST DUP1 PUSH1 0x1F ADD PUSH1 0x20 DUP1 SWAP2 DIV MUL PUSH1 0x20 ADD PUSH1 0x40 MLOAD SWAP1 DUP2 ADD PUSH1 0x40 MSTORE DUP1 SWAP3 SWAP2 SWAP1 DUP2 DUP2 MSTORE PUSH1 0x20 ADD DUP3 DUP1 SLOAD PUSH2 0x2988 SWAP1 PUSH2 0x5605 JUMP JUMPDEST DUP1 ISZERO PUSH2 0x29D5 JUMPI DUP1 PUSH1 0x1F LT PUSH2 0x29AA JUMPI PUSH2 0x100 DUP1 DUP4 SLOAD DIV MUL DUP4 MSTORE SWAP2 PUSH1 0x20 ADD SWAP2 PUSH2 0x29D5 JUMP JUMPDEST DUP3 ADD SWAP2 SWAP1 PUSH1 0x0 MSTORE PUSH1 0x20 PUSH1 0x0 KECCAK256 SWAP1 JUMPDEST DUP2 SLOAD DUP2 MSTORE SWAP1 PUSH1 0x1 ADD SWAP1 PUSH1 0x20 ADD DUP1 DUP4 GT PUSH2 0x29B8 JUMPI DUP3 SWAP1 SUB PUSH1 0x1F AND DUP3 ADD SWAP2 JUMPDEST POP POP POP POP POP DUP2 MSTORE PUSH1 0x20 ADD PUSH1 0x1 DUP3 ADD DUP1 SLOAD PUSH2 0x29EE SWAP1 PUSH2 0x5605 JUMP JUMPDEST DUP1 PUSH1 0x1F ADD PUSH1 0x20 DUP1 SWAP2 DIV MUL PUSH1 0x20 ADD PUSH1 0x40 MLOAD SWAP1 DUP2 ADD PUSH1 0x40 MSTORE DUP1 SWAP3 SWAP2 SWAP1 DUP2 DUP2 MSTORE PUSH1 0x20 ADD DUP3 DUP1 SLOAD PUSH2 0x2A1A SWAP1 PUSH2 0x5605 JUMP JUMPDEST DUP1 ISZERO PUSH2 0x2A67 JUMPI DUP1 PUSH1 0x1F LT PUSH2 0x2A3C JUMPI PUSH2 0x100 DUP1 DUP4 SLOAD DIV MUL DUP4 MSTORE SWAP2 PUSH1 0x20 ADD SWAP2 PUSH2 0x2A67 JUMP JUMPDEST DUP3 ADD SWAP2 SWAP1 PUSH1 0x0 MSTORE PUSH1 0x20 PUSH1 0x0 KECCAK256 SWAP1 JUMPDEST DUP2 SLOAD DUP2 MSTORE SWAP1 PUSH1 0x1 ADD SWAP1 PUSH1 0x20 ADD DUP1 DUP4 GT PUSH2 0x2A4A JUMPI DUP3 SWAP1 SUB PUSH1 0x1F AND DUP3 ADD SWAP2 JUMPDEST POP POP POP POP POP DUP2 MSTORE PUSH1 0x20 ADD PUSH1 0x2 DUP3 ADD DUP1 SLOAD PUSH2 0x2A80 SWAP1 PUSH2 0x5605 JUMP JUMPDEST DUP1 PUSH1 0x1F ADD PUSH1 0x20 DUP1 SWAP2 DIV MUL PUSH1 0x20 ADD PUSH1 0x40 MLOAD SWAP1 DUP2 ADD PUSH1 0x40 MSTORE DUP1 SWAP3 SWAP2 SWAP1 DUP2 DUP2 MSTORE PUSH1 0x20 ADD DUP3 DUP1 SLOAD PUSH2 0x2AAC SWAP1 PUSH2 0x5605 JUMP JUMPDEST DUP1 ISZERO PUSH2 0x2AF9 JUMPI DUP1 PUSH1 0x1F LT PUSH2 0x2ACE JUMPI PUSH2 0x100 DUP1 DUP4 SLOAD DIV MUL DUP4 MSTORE SWAP2 PUSH1 0x20 ADD SWAP2 PUSH2 0x2AF9 JUMP JUMPDEST DUP3 ADD SWAP2 SWAP1 PUSH1 0x0 MSTORE PUSH1 0x20 PUSH1 0x0 KECCAK256 SWAP1 JUMPDEST DUP2 SLOAD DUP2 MSTORE SWAP1 PUSH1 0x1 ADD SWAP1 PUSH1 0x20 ADD DUP1 DUP4 GT PUSH2 0x2ADC JUMPI DUP3 SWAP1 SUB PUSH1 0x1F AND DUP3 ADD SWAP2 JUMPDEST POP POP POP POP POP DUP2 MSTORE POP POP DUP2 MSTORE PUSH1 0x20 ADD SWAP1 PUSH1 0x1 ADD SWAP1 PUSH2 0x2929 JUMP JUMPDEST POP POP POP POP SWAP2 POP DUP1 DUP1 SLOAD DUP1 PUSH1 0x20 MUL PUSH1 0x20 ADD PUSH1 0x40 MLOAD SWAP1 DUP2 ADD PUSH1 0x40 MSTORE DUP1 SWAP3 SWAP2 SWAP1 DUP2 DUP2 MSTORE PUSH1 0x20 ADD PUSH1 0x0 SWAP1 JUMPDEST DUP3 DUP3 LT ISZERO PUSH2 0x2E98 JUMPI DUP4 DUP3 SWAP1 PUSH1 0x0 MSTORE PUSH1 0x20 PUSH1 0x0 KECCAK256 SWAP1 PUSH1 0x7 MUL ADD PUSH1 0x40 MLOAD DUP1 PUSH1 0x40 ADD PUSH1 0x40 MSTORE SWAP1 DUP2 PUSH1 0x0 DUP3 ADD PUSH1 0x40 MLOAD DUP1 PUSH1 0xC0 ADD PUSH1 0x40 MSTORE SWAP1 DUP2 PUSH1 0x0 DUP3 ADD DUP1 SLOAD PUSH2 0x2B7B SWAP1 PUSH2 0x5605 JUMP JUMPDEST DUP1 PUSH1 0x1F ADD PUSH1 0x20 DUP1 SWAP2 DIV MUL PUSH1 0x20 ADD PUSH1 0x40 MLOAD SWAP1 DUP2 ADD PUSH1 0x40 MSTORE DUP1 SWAP3 SWAP2 SWAP1 DUP2 DUP2 MSTORE PUSH1 0x20 ADD DUP3 DUP1 SLOAD PUSH2 0x2BA7 SWAP1 PUSH2 0x5605 JUMP JUMPDEST DUP1 ISZERO PUSH2 0x2BF4 JUMPI DUP1 PUSH1 0x1F LT PUSH2 0x2BC9 JUMPI PUSH2 0x100 DUP1 DUP4 SLOAD DIV MUL DUP4 MSTORE SWAP2 PUSH1 0x20 ADD SWAP2 PUSH2 0x2BF4 JUMP JUMPDEST DUP3 ADD SWAP2 SWAP1 PUSH1 0x0 MSTORE PUSH1 0x20 PUSH1 0x0 KECCAK256 SWAP1 JUMPDEST DUP2 SLOAD DUP2 MSTORE SWAP1 PUSH1 0x1 ADD SWAP1 PUSH1 0x20 ADD DUP1 DUP4 GT PUSH2 0x2BD7 JUMPI DUP3 SWAP1 SUB PUSH1 0x1F AND DUP3 ADD SWAP2 JUMPDEST POP POP POP POP POP DUP2 MSTORE PUSH1 0x20 ADD PUSH1 0x1 DUP3 ADD DUP1 SLOAD PUSH2 0x2C0D SWAP1 PUSH2 0x5605 JUMP JUMPDEST DUP1 PUSH1 0x1F ADD PUSH1 0x20 DUP1 SWAP2 DIV MUL PUSH1 0x20 ADD PUSH1 0x40 MLOAD SWAP1 DUP2 ADD PUSH1 0x40 MSTORE DUP1 SWAP3 SWAP2 SWAP1 DUP2 DUP2 MSTORE PUSH1 0x20 ADD DUP3 DUP1 SLOAD PUSH2 0x2C39 SWAP1 PUSH2 0x5605 JUMP JUMPDEST DUP1 ISZERO PUSH2 0x2C86 JUMPI DUP1 PUSH1 0x1F LT PUSH2 0x2C5B JUMPI PUSH2 0x100 DUP1 DUP4 SLOAD DIV MUL DUP4 MSTORE SWAP2 PUSH1 0x20 ADD SWAP2 PUSH2 0x2C86 JUMP JUMPDEST DUP3 ADD SWAP2 SWAP1 PUSH1 0x0 MSTORE PUSH1 0x20 PUSH1 0x0 KECCAK256 SWAP1 JUMPDEST DUP2 SLOAD DUP2 MSTORE SWAP1 PUSH1 0x1 ADD SWAP1 PUSH1 0x20 ADD DUP1 DUP4 GT PUSH2 0x2C69 JUMPI DUP3 SWAP1 SUB PUSH1 0x1F AND DUP3 ADD SWAP2 JUMPDEST POP POP POP POP POP DUP2 MSTORE PUSH1 0x20 ADD PUSH1 0x2 DUP3 ADD DUP1 SLOAD PUSH2 0x2C9F SWAP1 PUSH2 0x5605 JUMP JUMPDEST DUP1 PUSH1 0x1F ADD PUSH1 0x20 DUP1 SWAP2 DIV MUL PUSH1 0x20 ADD PUSH1 0x40 MLOAD SWAP1 DUP2 ADD PUSH1 0x40 MSTORE DUP1 SWAP3 SWAP2 SWAP1 DUP2 DUP2 MSTORE PUSH1 0x20 ADD DUP3 DUP1 SLOAD PUSH2 0x2CCB SWAP1 PUSH2 0x5605 JUMP JUMPDEST DUP1 ISZERO PUSH2 0x2D18 JUMPI DUP1 PUSH1 0x1F LT PUSH2 0x2CED JUMPI PUSH2 0x100 DUP1 DUP4 SLOAD DIV MUL DUP4 MSTORE SWAP2 PUSH1 0x20 ADD SWAP2 PUSH2 0x2D18 JUMP JUMPDEST DUP3 ADD SWAP2 SWAP1 PUSH1 0x0 MSTORE PUSH1 0x20 PUSH1 0x0 KECCAK256 SWAP1 JUMPDEST DUP2 SLOAD DUP2 MSTORE SWAP1 PUSH1 0x1 ADD SWAP1 PUSH1 0x20 ADD DUP1 DUP4 GT PUSH2 0x2CFB JUMPI DUP3 SWAP1 SUB PUSH1 0x1F AND DUP3 ADD SWAP2 JUMPDEST POP POP POP POP POP DUP2 MSTORE PUSH1 0x20 ADD PUSH1 0x3 DUP3 ADD DUP1 SLOAD PUSH2 0x2D31 SWAP1 PUSH2 0x5605 JUMP JUMPDEST DUP1 PUSH1 0x1F ADD PUSH1 0x20 DUP1 SWAP2 DIV MUL PUSH1 0x20 ADD PUSH1 0x40 MLOAD SWAP1 DUP2 ADD PUSH1 0x40 MSTORE DUP1 SWAP3 SWAP2 SWAP1 DUP2 DUP2 MSTORE PUSH1 0x20 ADD DUP3 DUP1 SLOAD PUSH2 0x2D5D SWAP1 PUSH2 0x5605 JUMP JUMPDEST DUP1 ISZERO PUSH2 0x2DAA JUMPI DUP1 PUSH1 0x1F LT PUSH2 0x2D7F JUMPI PUSH2 0x100 DUP1 DUP4 SLOAD DIV MUL DUP4 MSTORE SWAP2 PUSH1 0x20 ADD SWAP2 PUSH2 0x2DAA JUMP JUMPDEST DUP3 ADD SWAP2 SWAP1 PUSH1 0x0 MSTORE PUSH1 0x20 PUSH1 0x0 KECCAK256 SWAP1 JUMPDEST DUP2 SLOAD DUP2 MSTORE SWAP1 PUSH1 0x1 ADD SWAP1 PUSH1 0x20 ADD DUP1 DUP4 GT PUSH2 0x2D8D JUMPI DUP3 SWAP1 SUB PUSH1 0x1F AND DUP3 ADD SWAP2 JUMPDEST POP POP POP POP POP DUP2 MSTORE PUSH1 0x20 ADD PUSH1 0x4 DUP3 ADD DUP1 SLOAD PUSH2 0x2DC3 SWAP1 PUSH2 0x5605 JUMP JUMPDEST DUP1 PUSH1 0x1F ADD PUSH1 0x20 DUP1 SWAP2 DIV MUL PUSH1 0x20 ADD PUSH1 0x40 MLOAD SWAP1 DUP2 ADD PUSH1 0x40 MSTORE DUP1 SWAP3 SWAP2 SWAP1 DUP2 DUP2 MSTORE PUSH1 0x20 ADD DUP3 DUP1 SLOAD PUSH2 0x2DEF SWAP1 PUSH2 0x5605 JUMP JUMPDEST DUP1 ISZERO PUSH2 0x2E3C JUMPI DUP1 PUSH1 0x1F LT PUSH2 0x2E11 JUMPI PUSH2 0x100 DUP1 DUP4 SLOAD DIV MUL DUP4 MSTORE SWAP2 PUSH1 0x20 ADD SWAP2 PUSH2 0x2E3C JUMP JUMPDEST DUP3 ADD SWAP2 SWAP1 PUSH1 0x0 MSTORE PUSH1 0x20 PUSH1 0x0 KECCAK256 SWAP1 JUMPDEST DUP2 SLOAD DUP2 MSTORE SWAP1 PUSH1 0x1 ADD SWAP1 PUSH1 0x20 ADD DUP1 DUP4 GT PUSH2 0x2E1F JUMPI DUP3 SWAP1 SUB PUSH1 0x1F AND DUP3 ADD SWAP2 JUMPDEST POP POP POP POP POP DUP2 MSTORE PUSH1 0x20 ADD PUSH1 0x5 DUP3 ADD PUSH1 0x0 SWAP1 SLOAD SWAP1 PUSH2 0x100 EXP SWAP1 DIV PUSH2 0xFFFF AND PUSH2 0xFFFF AND PUSH2 0xFFFF AND DUP2 MSTORE POP POP DUP2 MSTORE PUSH1 0x20 ADD PUSH1 0x6 DUP3 ADD PUSH1 0x0 SWAP1 SLOAD SWAP1 PUSH2 0x100 EXP SWAP1 DIV PUSH2 0xFFFF AND PUSH2 0xFFFF AND PUSH2 0xFFFF AND DUP2 MSTORE POP POP DUP2 MSTORE PUSH1 0x20 ADD SWAP1 PUSH1 0x1 ADD SWAP1 PUSH2 0x2B38 JUMP JUMPDEST POP POP POP POP SWAP1 POP SWAP8 POP SWAP8 POP SWAP8 POP SWAP8 POP SWAP8 POP SWAP8 POP SWAP8 POP POP SWAP1 SWAP2 SWAP3 SWAP4 SWAP5 SWAP6 SWAP7 JUMP JUMPDEST PUSH1 0x4 DUP2 DUP2 SLOAD DUP2 LT PUSH2 0x2EC6 JUMPI PUSH1 0x0 DUP1 REVERT JUMPDEST SWAP1 PUSH1 0x0 MSTORE PUSH1 0x20 PUSH1 0x0 KECCAK256 SWAP1 PUSH1 0x9 MUL ADD PUSH1 0x0 SWAP2 POP SWAP1 POP DUP1 PUSH1 0x0 ADD DUP1 SLOAD PUSH2 0x2EE9 SWAP1 PUSH2 0x5605 JUMP JUMPDEST DUP1 PUSH1 0x1F ADD PUSH1 0x20 DUP1 SWAP2 DIV MUL PUSH1 0x20 ADD PUSH1 0x40 MLOAD SWAP1 DUP2 ADD PUSH1 0x40 MSTORE DUP1 SWAP3 SWAP2 SWAP1 DUP2 DUP2 MSTORE PUSH1 0x20 ADD DUP3 DUP1 SLOAD PUSH2 0x2F15 SWAP1 PUSH2 0x5605 JUMP JUMPDEST DUP1 ISZERO PUSH2 0x2F62 JUMPI DUP1 PUSH1 0x1F LT PUSH2 0x2F37 JUMPI PUSH2 0x100 DUP1 DUP4 SLOAD DIV MUL DUP4 MSTORE SWAP2 PUSH1 0x20 ADD SWAP2 PUSH2 0x2F62 JUMP JUMPDEST DUP3 ADD SWAP2 SWAP1 PUSH1 0x0 MSTORE PUSH1 0x20 PUSH1 0x0 KECCAK256 SWAP1 JUMPDEST DUP2 SLOAD DUP2 MSTORE SWAP1 PUSH1 0x1 ADD SWAP1 PUSH1 0x20 ADD DUP1 DUP4 GT PUSH2 0x2F45 JUMPI DUP3 SWAP1 SUB PUSH1 0x1F AND DUP3 ADD SWAP2 JUMPDEST POP POP POP POP POP SWAP1 DUP1 PUSH1 0x5 ADD DUP1 SLOAD PUSH2 0x2F77 SWAP1 PUSH2 0x5605 JUMP JUMPDEST DUP1 PUSH1 0x1F ADD PUSH1 0x20 DUP1 SWAP2 DIV MUL PUSH1 0x20 ADD PUSH1 0x40 MLOAD SWAP1 DUP2 ADD PUSH1 0x40 MSTORE DUP1 SWAP3 SWAP2 SWAP1 DUP2 DUP2 MSTORE PUSH1 0x20 ADD DUP3 DUP1 SLOAD PUSH2 0x2FA3 SWAP1 PUSH2 0x5605 JUMP JUMPDEST DUP1 ISZERO PUSH2 0x2FF0 JUMPI DUP1 PUSH1 0x1F LT PUSH2 0x2FC5 JUMPI PUSH2 0x100 DUP1 DUP4 SLOAD DIV MUL DUP4 MSTORE SWAP2 PUSH1 0x20 ADD SWAP2 PUSH2 0x2FF0 JUMP JUMPDEST DUP3 ADD SWAP2 SWAP1 PUSH1 0x0 MSTORE PUSH1 0x20 PUSH1 0x0 KECCAK256 SWAP1 JUMPDEST DUP2 SLOAD DUP2 MSTORE SWAP1 PUSH1 0x1 ADD SWAP1 PUSH1 0x20 ADD DUP1 DUP4 GT PUSH2 0x2FD3 JUMPI DUP3 SWAP1 SUB PUSH1 0x1F AND DUP3 ADD SWAP2 JUMPDEST POP POP POP POP POP SWAP1 DUP1 PUSH1 0x7 ADD PUSH1 0x0 SWAP1 SLOAD SWAP1 PUSH2 0x100 EXP SWAP1 DIV PUSH1 0xFF AND SWAP1 POP DUP4 JUMP JUMPDEST PUSH1 0x0 DUP7 MLOAD GT PUSH2 0x3051 JUMPI PUSH1 0x40 MLOAD PUSH32 0x8C379A000000000000000000000000000000000000000000000000000000000 DUP2 MSTORE PUSH1 0x4 ADD PUSH2 0x3048 SWAP1 PUSH2 0x5563 JUMP JUMPDEST PUSH1 0x40 MLOAD DUP1 SWAP2 SUB SWAP1 REVERT JUMPDEST PUSH1 0x0 DUP2 PUSH2 0xFFFF AND GT PUSH2 0x3098 JUMPI PUSH1 0x40 MLOAD PUSH32 0x8C379A000000000000000000000000000000000000000000000000000000000 DUP2 MSTORE PUSH1 0x4 ADD PUSH2 0x308F SWAP1 PUSH2 0x5D40 JUMP JUMPDEST PUSH1 0x40 MLOAD DUP1 SWAP2 SUB SWAP1 REVERT JUMPDEST PUSH1 0x0 PUSH1 0x2 DUP8 PUSH1 0x40 MLOAD PUSH2 0x30AA SWAP2 SWAP1 PUSH2 0x55BF JUMP JUMPDEST SWAP1 DUP2 MSTORE PUSH1 0x20 ADD PUSH1 0x40 MLOAD DUP1 SWAP2 SUB SWAP1 KECCAK256 SWAP1 POP DUP7 DUP2 PUSH1 0x0 ADD SWAP1 DUP2 PUSH2 0x30CB SWAP2 SWAP1 PUSH2 0x58A7 JUMP JUMPDEST POP DUP6 DUP2 PUSH1 0x1 ADD SWAP1 DUP2 PUSH2 0x30DD SWAP2 SWAP1 PUSH2 0x58A7 JUMP JUMPDEST POP DUP5 DUP2 PUSH1 0x2 ADD SWAP1 DUP2 PUSH2 0x30EF SWAP2 SWAP1 PUSH2 0x58A7 JUMP JUMPDEST POP DUP4 DUP2 PUSH1 0x3 ADD SWAP1 DUP2 PUSH2 0x3101 SWAP2 SWAP1 PUSH2 0x58A7 JUMP JUMPDEST POP DUP3 DUP2 PUSH1 0x4 ADD SWAP1 DUP2 PUSH2 0x3113 SWAP2 SWAP1 PUSH2 0x58A7 JUMP JUMPDEST POP DUP2 DUP2 PUSH1 0x5 ADD PUSH1 0x0 PUSH2 0x100 EXP DUP2 SLOAD DUP2 PUSH2 0xFFFF MUL NOT AND SWAP1 DUP4 PUSH2 0xFFFF AND MUL OR SWAP1 SSTORE POP PUSH1 0x5 DUP2 SWAP1 DUP1 PUSH1 0x1 DUP2 SLOAD ADD DUP1 DUP3 SSTORE DUP1 SWAP2 POP POP PUSH1 0x1 SWAP1 SUB SWAP1 PUSH1 0x0 MSTORE PUSH1 0x20 PUSH1 0x0 KECCAK256 SWAP1 PUSH1 0x6 MUL ADD PUSH1 0x0 SWAP1 SWAP2 SWAP1 SWAP2 SWAP1 SWAP2 POP PUSH1 0x0 DUP3 ADD DUP2 PUSH1 0x0 ADD SWAP1 DUP2 PUSH2 0x3173 SWAP2 SWAP1 PUSH2 0x598F JUMP JUMPDEST POP PUSH1 0x1 DUP3 ADD DUP2 PUSH1 0x1 ADD SWAP1 DUP2 PUSH2 0x3188 SWAP2 SWAP1 PUSH2 0x598F JUMP JUMPDEST POP PUSH1 0x2 DUP3 ADD DUP2 PUSH1 0x2 ADD SWAP1 DUP2 PUSH2 0x319D SWAP2 SWAP1 PUSH2 0x598F JUMP JUMPDEST POP PUSH1 0x3 DUP3 ADD DUP2 PUSH1 0x3 ADD SWAP1 DUP2 PUSH2 0x31B2 SWAP2 SWAP1 PUSH2 0x598F JUMP JUMPDEST POP PUSH1 0x4 DUP3 ADD DUP2 PUSH1 0x4 ADD SWAP1 DUP2 PUSH2 0x31C7 SWAP2 SWAP1 PUSH2 0x598F JUMP JUMPDEST POP PUSH1 0x5 DUP3 ADD PUSH1 0x0 SWAP1 SLOAD SWAP1 PUSH2 0x100 EXP SWAP1 DIV PUSH2 0xFFFF AND DUP2 PUSH1 0x5 ADD PUSH1 0x0 PUSH2 0x100 EXP DUP2 SLOAD DUP2 PUSH2 0xFFFF MUL NOT AND SWAP1 DUP4 PUSH2 0xFFFF AND MUL OR SWAP1 SSTORE POP POP POP DUP7 PUSH1 0x40 MLOAD PUSH2 0x3209 SWAP2 SWAP1 PUSH2 0x55BF JUMP JUMPDEST PUSH1 0x40 MLOAD DUP1 SWAP2 SUB SWAP1 KECCAK256 PUSH32 0x3B9E932F435EC1DA30497B3E70808CE4F0FFE940F26624043073CF416D3F9693 DUP5 DUP5 PUSH1 0x40 MLOAD PUSH2 0x3242 SWAP3 SWAP2 SWAP1 PUSH2 0x5A77 JUMP JUMPDEST PUSH1 0x40 MLOAD DUP1 SWAP2 SUB SWAP1 LOG2 POP POP POP POP POP POP POP JUMP JUMPDEST PUSH1 0x1 PUSH1 0x0 CALLER PUSH20 0xFFFFFFFFFFFFFFFFFFFFFFFFFFFFFFFFFFFFFFFF AND PUSH20 0xFFFFFFFFFFFFFFFFFFFFFFFFFFFFFFFFFFFFFFFF AND DUP2 MSTORE PUSH1 0x20 ADD SWAP1 DUP2 MSTORE PUSH1 0x20 ADD PUSH1 0x0 KECCAK256 PUSH1 0x7 ADD PUSH1 0x0 SWAP1 SLOAD SWAP1 PUSH2 0x100 EXP SWAP1 DIV PUSH1 0xFF AND PUSH2 0x32E2 JUMPI PUSH1 0x40 MLOAD PUSH32 0x8C379A000000000000000000000000000000000000000000000000000000000 DUP2 MSTORE PUSH1 0x4 ADD PUSH2 0x32D9 SWAP1 PUSH2 0x5AF3 JUMP JUMPDEST PUSH1 0x40 MLOAD DUP1 SWAP2 SUB SWAP1 REVERT JUMPDEST PUSH1 0x1 PUSH1 0x0 CALLER PUSH20 0xFFFFFFFFFFFFFFFFFFFFFFFFFFFFFFFFFFFFFFFF AND PUSH20 0xFFFFFFFFFFFFFFFFFFFFFFFFFFFFFFFFFFFFFFFF AND DUP2 MSTORE PUSH1 0x20 ADD SWAP1 DUP2 MSTORE PUSH1 0x20 ADD PUSH1 0x0 KECCAK256 PUSH1 0x1 ADD DUP2 SWAP1 DUP1 PUSH1 0x1 DUP2 SLOAD ADD DUP1 DUP3 SSTORE DUP1 SWAP2 POP POP PUSH1 0x1 SWAP1 SUB SWAP1 PUSH1 0x0 MSTORE PUSH1 0x20 PUSH1 0x0 KECCAK256 ADD PUSH1 0x0 SWAP1 SWAP2 SWAP1 SWAP2 SWAP1 SWAP2 POP SWAP1 DUP2 PUSH2 0x3356 SWAP2 SWAP1 PUSH2 0x58A7 JUMP JUMPDEST POP CALLER PUSH20 0xFFFFFFFFFFFFFFFFFFFFFFFFFFFFFFFFFFFFFFFF AND PUSH32 0x9DC5C994CEE1FFA2E2C3FC4D4D0D9E24511EB0CEEF3EFE59FF6F57EDA374BB27 DUP3 PUSH1 0x40 MLOAD PUSH2 0x339D SWAP2 SWAP1 PUSH2 0x5B13 JUMP JUMPDEST PUSH1 0x40 MLOAD DUP1 SWAP2 SUB SWAP1 LOG2 POP JUMP JUMPDEST PUSH1 0x1 PUSH1 0x0 CALLER PUSH20 0xFFFFFFFFFFFFFFFFFFFFFFFFFFFFFFFFFFFFFFFF AND PUSH20 0xFFFFFFFFFFFFFFFFFFFFFFFFFFFFFFFFFFFFFFFF AND DUP2 MSTORE PUSH1 0x20 ADD SWAP1 DUP2 MSTORE PUSH1 0x20 ADD PUSH1 0x0 KECCAK256 PUSH1 0x7 ADD PUSH1 0x0 SWAP1 SLOAD SWAP1 PUSH2 0x100 EXP SWAP1 DIV PUSH1 0xFF AND PUSH2 0x3437 JUMPI PUSH1 0x40 MLOAD PUSH32 0x8C379A000000000000000000000000000000000000000000000000000000000 DUP2 MSTORE PUSH1 0x4 ADD PUSH2 0x342E SWAP1 PUSH2 0x5AF3 JUMP JUMPDEST PUSH1 0x40 MLOAD DUP1 SWAP2 SUB SWAP1 REVERT JUMPDEST PUSH1 0x0 PUSH1 0x2 DUP3 PUSH1 0x40 MLOAD PUSH2 0x3449 SWAP2 SWAP1 PUSH2 0x55BF JUMP JUMPDEST SWAP1 DUP2 MSTORE PUSH1 0x20 ADD PUSH1 0x40 MLOAD DUP1 SWAP2 SUB SWAP1 KECCAK256 SWAP1 POP PUSH1 0x0 DUP2 PUSH1 0x0 ADD DUP1 SLOAD PUSH2 0x346A SWAP1 PUSH2 0x5605 JUMP JUMPDEST SWAP1 POP GT PUSH2 0x34AC JUMPI PUSH1 0x40 MLOAD PUSH32 0x8C379A000000000000000000000000000000000000000000000000000000000 DUP2 MSTORE PUSH1 0x4 ADD PUSH2 0x34A3 SWAP1 PUSH2 0x5682 JUMP JUMPDEST PUSH1 0x40 MLOAD DUP1 SWAP2 SUB SWAP1 REVERT JUMPDEST PUSH4 0x3B9ACA00 DUP2 PUSH1 0x5 ADD PUSH1 0x0 SWAP1 SLOAD SWAP1 PUSH2 0x100 EXP SWAP1 DIV PUSH2 0xFFFF AND PUSH2 0xFFFF AND PUSH2 0x34D2 SWAP2 SWAP1 PUSH2 0x5D70 JUMP JUMPDEST PUSH4 0xFFFFFFFF AND CALLVALUE LT ISZERO PUSH2 0x351A JUMPI PUSH1 0x40 MLOAD PUSH32 0x8C379A000000000000000000000000000000000000000000000000000000000 DUP2 MSTORE PUSH1 0x4 ADD PUSH2 0x3511 SWAP1 PUSH2 0x5DF9 JUMP JUMPDEST PUSH1 0x40 MLOAD DUP1 SWAP2 SUB SWAP1 REVERT JUMPDEST PUSH1 0x0 DUP1 PUSH1 0x0 DUP2 DUP2 SWAP1 SLOAD SWAP1 PUSH2 0x100 EXP SWAP1 DIV PUSH2 0xFFFF AND DUP1 SWAP3 SWAP2 SWAP1 PUSH2 0x353B SWAP1 PUSH2 0x56D1 JUMP JUMPDEST SWAP2 SWAP1 PUSH2 0x100 EXP DUP2 SLOAD DUP2 PUSH2 0xFFFF MUL NOT AND SWAP1 DUP4 PUSH2 0xFFFF AND MUL OR SWAP1 SSTORE POP SWAP1 POP PUSH1 0x0 PUSH1 0x40 MLOAD DUP1 PUSH1 0x40 ADD PUSH1 0x40 MSTORE DUP1 DUP5 PUSH1 0x40 MLOAD DUP1 PUSH1 0xC0 ADD PUSH1 0x40 MSTORE SWAP1 DUP2 PUSH1 0x0 DUP3 ADD DUP1 SLOAD PUSH2 0x3580 SWAP1 PUSH2 0x5605 JUMP JUMPDEST DUP1 PUSH1 0x1F ADD PUSH1 0x20 DUP1 SWAP2 DIV MUL PUSH1 0x20 ADD PUSH1 0x40 MLOAD SWAP1 DUP2 ADD PUSH1 0x40 MSTORE DUP1 SWAP3 SWAP2 SWAP1 DUP2 DUP2 MSTORE PUSH1 0x20 ADD DUP3 DUP1 SLOAD PUSH2 0x35AC SWAP1 PUSH2 0x5605 JUMP JUMPDEST DUP1 ISZERO PUSH2 0x35F9 JUMPI DUP1 PUSH1 0x1F LT PUSH2 0x35CE JUMPI PUSH2 0x100 DUP1 DUP4 SLOAD DIV MUL DUP4 MSTORE SWAP2 PUSH1 0x20 ADD SWAP2 PUSH2 0x35F9 JUMP JUMPDEST DUP3 ADD SWAP2 SWAP1 PUSH1 0x0 MSTORE PUSH1 0x20 PUSH1 0x0 KECCAK256 SWAP1 JUMPDEST DUP2 SLOAD DUP2 MSTORE SWAP1 PUSH1 0x1 ADD SWAP1 PUSH1 0x20 ADD DUP1 DUP4 GT PUSH2 0x35DC JUMPI DUP3 SWAP1 SUB PUSH1 0x1F AND DUP3 ADD SWAP2 JUMPDEST POP POP POP POP POP DUP2 MSTORE PUSH1 0x20 ADD PUSH1 0x1 DUP3 ADD DUP1 SLOAD PUSH2 0x3612 SWAP1 PUSH2 0x5605 JUMP JUMPDEST DUP1 PUSH1 0x1F ADD PUSH1 0x20 DUP1 SWAP2 DIV MUL PUSH1 0x20 ADD PUSH1 0x40 MLOAD SWAP1 DUP2 ADD PUSH1 0x40 MSTORE DUP1 SWAP3 SWAP2 SWAP1 DUP2 DUP2 MSTORE PUSH1 0x20 ADD DUP3 DUP1 SLOAD PUSH2 0x363E SWAP1 PUSH2 0x5605 JUMP JUMPDEST DUP1 ISZERO PUSH2 0x368B JUMPI DUP1 PUSH1 0x1F LT PUSH2 0x3660 JUMPI PUSH2 0x100 DUP1 DUP4 SLOAD DIV MUL DUP4 MSTORE SWAP2 PUSH1 0x20 ADD SWAP2 PUSH2 0x368B JUMP JUMPDEST DUP3 ADD SWAP2 SWAP1 PUSH1 0x0 MSTORE PUSH1 0x20 PUSH1 0x0 KECCAK256 SWAP1 JUMPDEST DUP2 SLOAD DUP2 MSTORE SWAP1 PUSH1 0x1 ADD SWAP1 PUSH1 0x20 ADD DUP1 DUP4 GT PUSH2 0x366E JUMPI DUP3 SWAP1 SUB PUSH1 0x1F AND DUP3 ADD SWAP2 JUMPDEST POP POP POP POP POP DUP2 MSTORE PUSH1 0x20 ADD PUSH1 0x2 DUP3 ADD DUP1 SLOAD PUSH2 0x36A4 SWAP1 PUSH2 0x5605 JUMP JUMPDEST DUP1 PUSH1 0x1F ADD PUSH1 0x20 DUP1 SWAP2 DIV MUL PUSH1 0x20 ADD PUSH1 0x40 MLOAD SWAP1 DUP2 ADD PUSH1 0x40 MSTORE DUP1 SWAP3 SWAP2 SWAP1 DUP2 DUP2 MSTORE PUSH1 0x20 ADD DUP3 DUP1 SLOAD PUSH2 0x36D0 SWAP1 PUSH2 0x5605 JUMP JUMPDEST DUP1 ISZERO PUSH2 0x371D JUMPI DUP1 PUSH1 0x1F LT PUSH2 0x36F2 JUMPI PUSH2 0x100 DUP1 DUP4 SLOAD DIV MUL DUP4 MSTORE SWAP2 PUSH1 0x20 ADD SWAP2 PUSH2 0x371D JUMP JUMPDEST DUP3 ADD SWAP2 SWAP1 PUSH1 0x0 MSTORE PUSH1 0x20 PUSH1 0x0 KECCAK256 SWAP1 JUMPDEST DUP2 SLOAD DUP2 MSTORE SWAP1 PUSH1 0x1 ADD SWAP1 PUSH1 0x20 ADD DUP1 DUP4 GT PUSH2 0x3700 JUMPI DUP3 SWAP1 SUB PUSH1 0x1F AND DUP3 ADD SWAP2 JUMPDEST POP POP POP POP POP DUP2 MSTORE PUSH1 0x20 ADD PUSH1 0x3 DUP3 ADD DUP1 SLOAD PUSH2 0x3736 SWAP1 PUSH2 0x5605 JUMP JUMPDEST DUP1 PUSH1 0x1F ADD PUSH1 0x20 DUP1 SWAP2 DIV MUL PUSH1 0x20 ADD PUSH1 0x40 MLOAD SWAP1 DUP2 ADD PUSH1 0x40 MSTORE DUP1 SWAP3 SWAP2 SWAP1 DUP2 DUP2 MSTORE PUSH1 0x20 ADD DUP3 DUP1 SLOAD PUSH2 0x3762 SWAP1 PUSH2 0x5605 JUMP JUMPDEST DUP1 ISZERO PUSH2 0x37AF JUMPI DUP1 PUSH1 0x1F LT PUSH2 0x3784 JUMPI PUSH2 0x100 DUP1 DUP4 SLOAD DIV MUL DUP4 MSTORE SWAP2 PUSH1 0x20 ADD SWAP2 PUSH2 0x37AF JUMP JUMPDEST DUP3 ADD SWAP2 SWAP1 PUSH1 0x0 MSTORE PUSH1 0x20 PUSH1 0x0 KECCAK256 SWAP1 JUMPDEST DUP2 SLOAD DUP2 MSTORE SWAP1 PUSH1 0x1 ADD SWAP1 PUSH1 0x20 ADD DUP1 DUP4 GT PUSH2 0x3792 JUMPI DUP3 SWAP1 SUB PUSH1 0x1F AND DUP3 ADD SWAP2 JUMPDEST POP POP POP POP POP DUP2 MSTORE PUSH1 0x20 ADD PUSH1 0x4 DUP3 ADD DUP1 SLOAD PUSH2 0x37C8 SWAP1 PUSH2 0x5605 JUMP JUMPDEST DUP1 PUSH1 0x1F ADD PUSH1 0x20 DUP1 SWAP2 DIV MUL PUSH1 0x20 ADD PUSH1 0x40 MLOAD SWAP1 DUP2 ADD PUSH1 0x40 MSTORE DUP1 SWAP3 SWAP2 SWAP1 DUP2 DUP2 MSTORE PUSH1 0x20 ADD DUP3 DUP1 SLOAD PUSH2 0x37F4 SWAP1 PUSH2 0x5605 JUMP JUMPDEST DUP1 ISZERO PUSH2 0x3841 JUMPI DUP1 PUSH1 0x1F LT PUSH2 0x3816 JUMPI PUSH2 0x100 DUP1 DUP4 SLOAD DIV MUL DUP4 MSTORE SWAP2 PUSH1 0x20 ADD SWAP2 PUSH2 0x3841 JUMP JUMPDEST DUP3 ADD SWAP2 SWAP1 PUSH1 0x0 MSTORE PUSH1 0x20 PUSH1 0x0 KECCAK256 SWAP1 JUMPDEST DUP2 SLOAD DUP2 MSTORE SWAP1 PUSH1 0x1 ADD SWAP1 PUSH1 0x20 ADD DUP1 DUP4 GT PUSH2 0x3824 JUMPI DUP3 SWAP1 SUB PUSH1 0x1F AND DUP3 ADD SWAP2 JUMPDEST POP POP POP POP POP DUP2 MSTORE PUSH1 0x20 ADD PUSH1 0x5 DUP3 ADD PUSH1 0x0 SWAP1 SLOAD SWAP1 PUSH2 0x100 EXP SWAP1 DIV PUSH2 0xFFFF AND PUSH2 0xFFFF AND PUSH2 0xFFFF AND DUP2 MSTORE POP POP DUP2 MSTORE PUSH1 0x20 ADD DUP4 PUSH2 0xFFFF AND DUP2 MSTORE POP SWAP1 POP PUSH1 0x1 PUSH1 0x0 CALLER PUSH20 0xFFFFFFFFFFFFFFFFFFFFFFFFFFFFFFFFFFFFFFFF AND PUSH20 0xFFFFFFFFFFFFFFFFFFFFFFFFFFFFFFFFFFFFFFFF AND DUP2 MSTORE PUSH1 0x20 ADD SWAP1 DUP2 MSTORE PUSH1 0x20 ADD PUSH1 0x0 KECCAK256 PUSH1 0x4 ADD DUP2 SWAP1 DUP1 PUSH1 0x1 DUP2 SLOAD ADD DUP1 DUP3 SSTORE DUP1 SWAP2 POP POP PUSH1 0x1 SWAP1 SUB SWAP1 PUSH1 0x0 MSTORE PUSH1 0x20 PUSH1 0x0 KECCAK256 SWAP1 PUSH1 0x7 MUL ADD PUSH1 0x0 SWAP1 SWAP2 SWAP1 SWAP2 SWAP1 SWAP2 POP PUSH1 0x0 DUP3 ADD MLOAD DUP2 PUSH1 0x0 ADD PUSH1 0x0 DUP3 ADD MLOAD DUP2 PUSH1 0x0 ADD SWAP1 DUP2 PUSH2 0x3903 SWAP2 SWAP1 PUSH2 0x58A7 JUMP JUMPDEST POP PUSH1 0x20 DUP3 ADD MLOAD DUP2 PUSH1 0x1 ADD SWAP1 DUP2 PUSH2 0x3919 SWAP2 SWAP1 PUSH2 0x58A7 JUMP JUMPDEST POP PUSH1 0x40 DUP3 ADD MLOAD DUP2 PUSH1 0x2 ADD SWAP1 DUP2 PUSH2 0x392F SWAP2 SWAP1 PUSH2 0x58A7 JUMP JUMPDEST POP PUSH1 0x60 DUP3 ADD MLOAD DUP2 PUSH1 0x3 ADD SWAP1 DUP2 PUSH2 0x3945 SWAP2 SWAP1 PUSH2 0x58A7 JUMP JUMPDEST POP PUSH1 0x80 DUP3 ADD MLOAD DUP2 PUSH1 0x4 ADD SWAP1 DUP2 PUSH2 0x395B SWAP2 SWAP1 PUSH2 0x58A7 JUMP JUMPDEST POP PUSH1 0xA0 DUP3 ADD MLOAD DUP2 PUSH1 0x5 ADD PUSH1 0x0 PUSH2 0x100 EXP DUP2 SLOAD DUP2 PUSH2 0xFFFF MUL NOT AND SWAP1 DUP4 PUSH2 0xFFFF AND MUL OR SWAP1 SSTORE POP POP POP PUSH1 0x20 DUP3 ADD MLOAD DUP2 PUSH1 0x6 ADD PUSH1 0x0 PUSH2 0x100 EXP DUP2 SLOAD DUP2 PUSH2 0xFFFF MUL NOT AND SWAP1 DUP4 PUSH2 0xFFFF AND MUL OR SWAP1 SSTORE POP POP POP CALLER PUSH20 0xFFFFFFFFFFFFFFFFFFFFFFFFFFFFFFFFFFFFFFFF AND PUSH32 0x4AA5059BBF6AE1DE63BCD4CACEC483049BE0F12780453958E246D0C34D87C844 DUP6 DUP5 PUSH1 0x40 MLOAD PUSH2 0x39EE SWAP3 SWAP2 SWAP1 PUSH2 0x5A77 JUMP JUMPDEST PUSH1 0x40 MLOAD DUP1 SWAP2 SUB SWAP1 LOG2 POP POP POP POP JUMP JUMPDEST PUSH1 0x60 PUSH1 0x6 DUP1 SLOAD DUP1 PUSH1 0x20 MUL PUSH1 0x20 ADD PUSH1 0x40 MLOAD SWAP1 DUP2 ADD PUSH1 0x40 MSTORE DUP1 SWAP3 SWAP2 SWAP1 DUP2 DUP2 MSTORE PUSH1 0x20 ADD PUSH1 0x0 SWAP1 JUMPDEST DUP3 DUP3 LT ISZERO PUSH2 0x4061 JUMPI DUP4 DUP3 SWAP1 PUSH1 0x0 MSTORE PUSH1 0x20 PUSH1 0x0 KECCAK256 SWAP1 PUSH1 0xB MUL ADD PUSH1 0x40 MLOAD DUP1 PUSH1 0xE0 ADD PUSH1 0x40 MSTORE SWAP1 DUP2 PUSH1 0x0 DUP3 ADD DUP1 SLOAD PUSH2 0x3A53 SWAP1 PUSH2 0x5605 JUMP JUMPDEST DUP1 PUSH1 0x1F ADD PUSH1 0x20 DUP1 SWAP2 DIV MUL PUSH1 0x20 ADD PUSH1 0x40 MLOAD SWAP1 DUP2 ADD PUSH1 0x40 MSTORE DUP1 SWAP3 SWAP2 SWAP1 DUP2 DUP2 MSTORE PUSH1 0x20 ADD DUP3 DUP1 SLOAD PUSH2 0x3A7F SWAP1 PUSH2 0x5605 JUMP JUMPDEST DUP1 ISZERO PUSH2 0x3ACC JUMPI DUP1 PUSH1 0x1F LT PUSH2 0x3AA1 JUMPI PUSH2 0x100 DUP1 DUP4 SLOAD DIV MUL DUP4 MSTORE SWAP2 PUSH1 0x20 ADD SWAP2 PUSH2 0x3ACC JUMP JUMPDEST DUP3 ADD SWAP2 SWAP1 PUSH1 0x0 MSTORE PUSH1 0x20 PUSH1 0x0 KECCAK256 SWAP1 JUMPDEST DUP2 SLOAD DUP2 MSTORE SWAP1 PUSH1 0x1 ADD SWAP1 PUSH1 0x20 ADD DUP1 DUP4 GT PUSH2 0x3AAF JUMPI DUP3 SWAP1 SUB PUSH1 0x1F AND DUP3 ADD SWAP2 JUMPDEST POP POP POP POP POP DUP2 MSTORE PUSH1 0x20 ADD PUSH1 0x1 DUP3 ADD DUP1 SLOAD PUSH2 0x3AE5 SWAP1 PUSH2 0x5605 JUMP JUMPDEST DUP1 PUSH1 0x1F ADD PUSH1 0x20 DUP1 SWAP2 DIV MUL PUSH1 0x20 ADD PUSH1 0x40 MLOAD SWAP1 DUP2 ADD PUSH1 0x40 MSTORE DUP1 SWAP3 SWAP2 SWAP1 DUP2 DUP2 MSTORE PUSH1 0x20 ADD DUP3 DUP1 SLOAD PUSH2 0x3B11 SWAP1 PUSH2 0x5605 JUMP JUMPDEST DUP1 ISZERO PUSH2 0x3B5E JUMPI DUP1 PUSH1 0x1F LT PUSH2 0x3B33 JUMPI PUSH2 0x100 DUP1 DUP4 SLOAD DIV MUL DUP4 MSTORE SWAP2 PUSH1 0x20 ADD SWAP2 PUSH2 0x3B5E JUMP JUMPDEST DUP3 ADD SWAP2 SWAP1 PUSH1 0x0 MSTORE PUSH1 0x20 PUSH1 0x0 KECCAK256 SWAP1 JUMPDEST DUP2 SLOAD DUP2 MSTORE SWAP1 PUSH1 0x1 ADD SWAP1 PUSH1 0x20 ADD DUP1 DUP4 GT PUSH2 0x3B41 JUMPI DUP3 SWAP1 SUB PUSH1 0x1F AND DUP3 ADD SWAP2 JUMPDEST POP POP POP POP POP DUP2 MSTORE PUSH1 0x20 ADD PUSH1 0x2 DUP3 ADD PUSH1 0x40 MLOAD DUP1 PUSH1 0xC0 ADD PUSH1 0x40 MSTORE SWAP1 DUP2 PUSH1 0x0 DUP3 ADD DUP1 SLOAD PUSH2 0x3B87 SWAP1 PUSH2 0x5605 JUMP JUMPDEST DUP1 PUSH1 0x1F ADD PUSH1 0x20 DUP1 SWAP2 DIV MUL PUSH1 0x20 ADD PUSH1 0x40 MLOAD SWAP1 DUP2 ADD PUSH1 0x40 MSTORE DUP1 SWAP3 SWAP2 SWAP1 DUP2 DUP2 MSTORE PUSH1 0x20 ADD DUP3 DUP1 SLOAD PUSH2 0x3BB3 SWAP1 PUSH2 0x5605 JUMP JUMPDEST DUP1 ISZERO PUSH2 0x3C00 JUMPI DUP1 PUSH1 0x1F LT PUSH2 0x3BD5 JUMPI PUSH2 0x100 DUP1 DUP4 SLOAD DIV MUL DUP4 MSTORE SWAP2 PUSH1 0x20 ADD SWAP2 PUSH2 0x3C00 JUMP JUMPDEST DUP3 ADD SWAP2 SWAP1 PUSH1 0x0 MSTORE PUSH1 0x20 PUSH1 0x0 KECCAK256 SWAP1 JUMPDEST DUP2 SLOAD DUP2 MSTORE SWAP1 PUSH1 0x1 ADD SWAP1 PUSH1 0x20 ADD DUP1 DUP4 GT PUSH2 0x3BE3 JUMPI DUP3 SWAP1 SUB PUSH1 0x1F AND DUP3 ADD SWAP2 JUMPDEST POP POP POP POP POP DUP2 MSTORE PUSH1 0x20 ADD PUSH1 0x1 DUP3 ADD DUP1 SLOAD PUSH2 0x3C19 SWAP1 PUSH2 0x5605 JUMP JUMPDEST DUP1 PUSH1 0x1F ADD PUSH1 0x20 DUP1 SWAP2 DIV MUL PUSH1 0x20 ADD PUSH1 0x40 MLOAD SWAP1 DUP2 ADD PUSH1 0x40 MSTORE DUP1 SWAP3 SWAP2 SWAP1 DUP2 DUP2 MSTORE PUSH1 0x20 ADD DUP3 DUP1 SLOAD PUSH2 0x3C45 SWAP1 PUSH2 0x5605 JUMP JUMPDEST DUP1 ISZERO PUSH2 0x3C92 JUMPI DUP1 PUSH1 0x1F LT PUSH2 0x3C67 JUMPI PUSH2 0x100 DUP1 DUP4 SLOAD DIV MUL DUP4 MSTORE SWAP2 PUSH1 0x20 ADD SWAP2 PUSH2 0x3C92 JUMP JUMPDEST DUP3 ADD SWAP2 SWAP1 PUSH1 0x0 MSTORE PUSH1 0x20 PUSH1 0x0 KECCAK256 SWAP1 JUMPDEST DUP2 SLOAD DUP2 MSTORE SWAP1 PUSH1 0x1 ADD SWAP1 PUSH1 0x20 ADD DUP1 DUP4 GT PUSH2 0x3C75 JUMPI DUP3 SWAP1 SUB PUSH1 0x1F AND DUP3 ADD SWAP2 JUMPDEST POP POP POP POP POP DUP2 MSTORE PUSH1 0x20 ADD PUSH1 0x2 DUP3 ADD DUP1 SLOAD PUSH2 0x3CAB SWAP1 PUSH2 0x5605 JUMP JUMPDEST DUP1 PUSH1 0x1F ADD PUSH1 0x20 DUP1 SWAP2 DIV MUL PUSH1 0x20 ADD PUSH1 0x40 MLOAD SWAP1 DUP2 ADD PUSH1 0x40 MSTORE DUP1 SWAP3 SWAP2 SWAP1 DUP2 DUP2 MSTORE PUSH1 0x20 ADD DUP3 DUP1 SLOAD PUSH2 0x3CD7 SWAP1 PUSH2 0x5605 JUMP JUMPDEST DUP1 ISZERO PUSH2 0x3D24 JUMPI DUP1 PUSH1 0x1F LT PUSH2 0x3CF9 JUMPI PUSH2 0x100 DUP1 DUP4 SLOAD DIV MUL DUP4 MSTORE SWAP2 PUSH1 0x20 ADD SWAP2 PUSH2 0x3D24 JUMP JUMPDEST DUP3 ADD SWAP2 SWAP1 PUSH1 0x0 MSTORE PUSH1 0x20 PUSH1 0x0 KECCAK256 SWAP1 JUMPDEST DUP2 SLOAD DUP2 MSTORE SWAP1 PUSH1 0x1 ADD SWAP1 PUSH1 0x20 ADD DUP1 DUP4 GT PUSH2 0x3D07 JUMPI DUP3 SWAP1 SUB PUSH1 0x1F AND DUP3 ADD SWAP2 JUMPDEST POP POP POP POP POP DUP2 MSTORE PUSH1 0x20 ADD PUSH1 0x3 DUP3 ADD DUP1 SLOAD PUSH2 0x3D3D SWAP1 PUSH2 0x5605 JUMP JUMPDEST DUP1 PUSH1 0x1F ADD PUSH1 0x20 DUP1 SWAP2 DIV MUL PUSH1 0x20 ADD PUSH1 0x40 MLOAD SWAP1 DUP2 ADD PUSH1 0x40 MSTORE DUP1 SWAP3 SWAP2 SWAP1 DUP2 DUP2 MSTORE PUSH1 0x20 ADD DUP3 DUP1 SLOAD PUSH2 0x3D69 SWAP1 PUSH2 0x5605 JUMP JUMPDEST DUP1 ISZERO PUSH2 0x3DB6 JUMPI DUP1 PUSH1 0x1F LT PUSH2 0x3D8B JUMPI PUSH2 0x100 DUP1 DUP4 SLOAD DIV MUL DUP4 MSTORE SWAP2 PUSH1 0x20 ADD SWAP2 PUSH2 0x3DB6 JUMP JUMPDEST DUP3 ADD SWAP2 SWAP1 PUSH1 0x0 MSTORE PUSH1 0x20 PUSH1 0x0 KECCAK256 SWAP1 JUMPDEST DUP2 SLOAD DUP2 MSTORE SWAP1 PUSH1 0x1 ADD SWAP1 PUSH1 0x20 ADD DUP1 DUP4 GT PUSH2 0x3D99 JUMPI DUP3 SWAP1 SUB PUSH1 0x1F AND DUP3 ADD SWAP2 JUMPDEST POP POP POP POP POP DUP2 MSTORE PUSH1 0x20 ADD PUSH1 0x4 DUP3 ADD DUP1 SLOAD PUSH2 0x3DCF SWAP1 PUSH2 0x5605 JUMP JUMPDEST DUP1 PUSH1 0x1F ADD PUSH1 0x20 DUP1 SWAP2 DIV MUL PUSH1 0x20 ADD PUSH1 0x40 MLOAD SWAP1 DUP2 ADD PUSH1 0x40 MSTORE DUP1 SWAP3 SWAP2 SWAP1 DUP2 DUP2 MSTORE PUSH1 0x20 ADD DUP3 DUP1 SLOAD PUSH2 0x3DFB SWAP1 PUSH2 0x5605 JUMP JUMPDEST DUP1 ISZERO PUSH2 0x3E48 JUMPI DUP1 PUSH1 0x1F LT PUSH2 0x3E1D JUMPI PUSH2 0x100 DUP1 DUP4 SLOAD DIV MUL DUP4 MSTORE SWAP2 PUSH1 0x20 ADD SWAP2 PUSH2 0x3E48 JUMP JUMPDEST DUP3 ADD SWAP2 SWAP1 PUSH1 0x0 MSTORE PUSH1 0x20 PUSH1 0x0 KECCAK256 SWAP1 JUMPDEST DUP2 SLOAD DUP2 MSTORE SWAP1 PUSH1 0x1 ADD SWAP1 PUSH1 0x20 ADD DUP1 DUP4 GT PUSH2 0x3E2B JUMPI DUP3 SWAP1 SUB PUSH1 0x1F AND DUP3 ADD SWAP2 JUMPDEST POP POP POP POP POP DUP2 MSTORE PUSH1 0x20 ADD PUSH1 0x5 DUP3 ADD PUSH1 0x0 SWAP1 SLOAD SWAP1 PUSH2 0x100 EXP SWAP1 DIV PUSH2 0xFFFF AND PUSH2 0xFFFF AND PUSH2 0xFFFF AND DUP2 MSTORE POP POP DUP2 MSTORE PUSH1 0x20 ADD PUSH1 0x8 DUP3 ADD PUSH1 0x0 SWAP1 SLOAD SWAP1 PUSH2 0x100 EXP SWAP1 DIV PUSH20 0xFFFFFFFFFFFFFFFFFFFFFFFFFFFFFFFFFFFFFFFF AND PUSH20 0xFFFFFFFFFFFFFFFFFFFFFFFFFFFFFFFFFFFFFFFF AND PUSH20 0xFFFFFFFFFFFFFFFFFFFFFFFFFFFFFFFFFFFFFFFF AND DUP2 MSTORE PUSH1 0x20 ADD PUSH1 0x8 DUP3 ADD PUSH1 0x14 SWAP1 SLOAD SWAP1 PUSH2 0x100 EXP SWAP1 DIV PUSH2 0xFFFF AND PUSH2 0xFFFF AND PUSH2 0xFFFF AND DUP2 MSTORE PUSH1 0x20 ADD PUSH1 0x9 DUP3 ADD DUP1 SLOAD DUP1 PUSH1 0x20 MUL PUSH1 0x20 ADD PUSH1 0x40 MLOAD SWAP1 DUP2 ADD PUSH1 0x40 MSTORE DUP1 SWAP3 SWAP2 SWAP1 DUP2 DUP2 MSTORE PUSH1 0x20 ADD PUSH1 0x0 SWAP1 JUMPDEST DUP3 DUP3 LT ISZERO PUSH2 0x3FBC JUMPI DUP4 DUP3 SWAP1 PUSH1 0x0 MSTORE PUSH1 0x20 PUSH1 0x0 KECCAK256 ADD DUP1 SLOAD PUSH2 0x3F2F SWAP1 PUSH2 0x5605 JUMP JUMPDEST DUP1 PUSH1 0x1F ADD PUSH1 0x20 DUP1 SWAP2 DIV MUL PUSH1 0x20 ADD PUSH1 0x40 MLOAD SWAP1 DUP2 ADD PUSH1 0x40 MSTORE DUP1 SWAP3 SWAP2 SWAP1 DUP2 DUP2 MSTORE PUSH1 0x20 ADD DUP3 DUP1 SLOAD PUSH2 0x3F5B SWAP1 PUSH2 0x5605 JUMP JUMPDEST DUP1 ISZERO PUSH2 0x3FA8 JUMPI DUP1 PUSH1 0x1F LT PUSH2 0x3F7D JUMPI PUSH2 0x100 DUP1 DUP4 SLOAD DIV MUL DUP4 MSTORE SWAP2 PUSH1 0x20 ADD SWAP2 PUSH2 0x3FA8 JUMP JUMPDEST DUP3 ADD SWAP2 SWAP1 PUSH1 0x0 MSTORE PUSH1 0x20 PUSH1 0x0 KECCAK256 SWAP1 JUMPDEST DUP2 SLOAD DUP2 MSTORE SWAP1 PUSH1 0x1 ADD SWAP1 PUSH1 0x20 ADD DUP1 DUP4 GT PUSH2 0x3F8B JUMPI DUP3 SWAP1 SUB PUSH1 0x1F AND DUP3 ADD SWAP2 JUMPDEST POP POP POP POP POP DUP2 MSTORE PUSH1 0x20 ADD SWAP1 PUSH1 0x1 ADD SWAP1 PUSH2 0x3F10 JUMP JUMPDEST POP POP POP POP DUP2 MSTORE PUSH1 0x20 ADD PUSH1 0xA DUP3 ADD DUP1 SLOAD DUP1 PUSH1 0x20 MUL PUSH1 0x20 ADD PUSH1 0x40 MLOAD SWAP1 DUP2 ADD PUSH1 0x40 MSTORE DUP1 SWAP3 SWAP2 SWAP1 DUP2 DUP2 MSTORE PUSH1 0x20 ADD DUP3 DUP1 SLOAD DUP1 ISZERO PUSH2 0x4049 JUMPI PUSH1 0x20 MUL DUP3 ADD SWAP2 SWAP1 PUSH1 0x0 MSTORE PUSH1 0x20 PUSH1 0x0 KECCAK256 SWAP1 JUMPDEST DUP2 PUSH1 0x0 SWAP1 SLOAD SWAP1 PUSH2 0x100 EXP SWAP1 DIV PUSH20 0xFFFFFFFFFFFFFFFFFFFFFFFFFFFFFFFFFFFFFFFF AND PUSH20 0xFFFFFFFFFFFFFFFFFFFFFFFFFFFFFFFFFFFFFFFF AND DUP2 MSTORE PUSH1 0x20 ADD SWAP1 PUSH1 0x1 ADD SWAP1 DUP1 DUP4 GT PUSH2 0x3FFF JUMPI JUMPDEST POP POP POP POP POP DUP2 MSTORE POP POP DUP2 MSTORE PUSH1 0x20 ADD SWAP1 PUSH1 0x1 ADD SWAP1 PUSH2 0x3A20 JUMP JUMPDEST POP POP POP POP SWAP1 POP SWAP1 JUMP JUMPDEST DUP3 DUP1 SLOAD DUP3 DUP3 SSTORE SWAP1 PUSH1 0x0 MSTORE PUSH1 0x20 PUSH1 0x0 KECCAK256 SWAP1 DUP2 ADD SWAP3 DUP3 ISZERO PUSH2 0x40E3 JUMPI SWAP2 PUSH1 0x20 MUL DUP3 ADD JUMPDEST DUP3 DUP2 GT ISZERO PUSH2 0x40E2 JUMPI DUP3 MLOAD DUP3 PUSH1 0x0 PUSH2 0x100 EXP DUP2 SLOAD DUP2 PUSH20 0xFFFFFFFFFFFFFFFFFFFFFFFFFFFFFFFFFFFFFFFF MUL NOT AND SWAP1 DUP4 PUSH20 0xFFFFFFFFFFFFFFFFFFFFFFFFFFFFFFFFFFFFFFFF AND MUL OR SWAP1 SSTORE POP SWAP2 PUSH1 0x20 ADD SWAP2 SWAP1 PUSH1 0x1 ADD SWAP1 PUSH2 0x408A JUMP JUMPDEST JUMPDEST POP SWAP1 POP PUSH2 0x40F0 SWAP2 SWAP1 PUSH2 0x43FA JUMP JUMPDEST POP SWAP1 JUMP JUMPDEST DUP3 DUP1 SLOAD DUP3 DUP3 SSTORE SWAP1 PUSH1 0x0 MSTORE PUSH1 0x20 PUSH1 0x0 KECCAK256 SWAP1 DUP2 ADD SWAP3 DUP3 ISZERO PUSH2 0x413C JUMPI SWAP2 PUSH1 0x20 MUL DUP3 ADD JUMPDEST DUP3 DUP2 GT ISZERO PUSH2 0x413B JUMPI DUP3 MLOAD DUP3 SWAP1 DUP2 PUSH2 0x412B SWAP2 SWAP1 PUSH2 0x58A7 JUMP JUMPDEST POP SWAP2 PUSH1 0x20 ADD SWAP2 SWAP1 PUSH1 0x1 ADD SWAP1 PUSH2 0x4114 JUMP JUMPDEST JUMPDEST POP SWAP1 POP PUSH2 0x4149 SWAP2 SWAP1 PUSH2 0x4417 JUMP JUMPDEST POP SWAP1 JUMP JUMPDEST DUP3 DUP1 SLOAD DUP3 DUP3 SSTORE SWAP1 PUSH1 0x0 MSTORE PUSH1 0x20 PUSH1 0x0 KECCAK256 SWAP1 DUP2 ADD SWAP3 DUP3 ISZERO PUSH2 0x4199 JUMPI PUSH1 0x0 MSTORE PUSH1 0x20 PUSH1 0x0 KECCAK256 SWAP2 DUP3 ADD JUMPDEST DUP3 DUP2 GT ISZERO PUSH2 0x4198 JUMPI DUP3 DUP3 SWAP1 DUP2 PUSH2 0x4188 SWAP2 SWAP1 PUSH2 0x598F JUMP JUMPDEST POP SWAP2 PUSH1 0x1 ADD SWAP2 SWAP1 PUSH1 0x1 ADD SWAP1 PUSH2 0x4172 JUMP JUMPDEST JUMPDEST POP SWAP1 POP PUSH2 0x41A6 SWAP2 SWAP1 PUSH2 0x4417 JUMP JUMPDEST POP SWAP1 JUMP JUMPDEST DUP3 DUP1 SLOAD DUP3 DUP3 SSTORE SWAP1 PUSH1 0x0 MSTORE PUSH1 0x20 PUSH1 0x0 KECCAK256 SWAP1 DUP2 ADD SWAP3 DUP3 ISZERO PUSH2 0x41EB JUMPI PUSH1 0x0 MSTORE PUSH1 0x20 PUSH1 0x0 KECCAK256 SWAP2 DUP3 ADD JUMPDEST DUP3 DUP2 GT ISZERO PUSH2 0x41EA JUMPI DUP3 SLOAD DUP3 SSTORE SWAP2 PUSH1 0x1 ADD SWAP2 SWAP1 PUSH1 0x1 ADD SWAP1 PUSH2 0x41CF JUMP JUMPDEST JUMPDEST POP SWAP1 POP PUSH2 0x41F8 SWAP2 SWAP1 PUSH2 0x43FA JUMP JUMPDEST POP SWAP1 JUMP JUMPDEST PUSH1 0x40 MLOAD DUP1 PUSH1 0xC0 ADD PUSH1 0x40 MSTORE DUP1 PUSH1 0x60 DUP2 MSTORE PUSH1 0x20 ADD PUSH1 0x60 DUP2 MSTORE PUSH1 0x20 ADD PUSH1 0x60 DUP2 MSTORE PUSH1 0x20 ADD PUSH1 0x60 DUP2 MSTORE PUSH1 0x20 ADD PUSH1 0x60 DUP2 MSTORE PUSH1 0x20 ADD PUSH1 0x0 PUSH2 0xFFFF AND DUP2 MSTORE POP SWAP1 JUMP JUMPDEST DUP3 DUP1 SLOAD DUP3 DUP3 SSTORE SWAP1 PUSH1 0x0 MSTORE PUSH1 0x20 PUSH1 0x0 KECCAK256 SWAP1 PUSH1 0x7 MUL DUP2 ADD SWAP3 DUP3 ISZERO PUSH2 0x4352 JUMPI PUSH1 0x0 MSTORE PUSH1 0x20 PUSH1 0x0 KECCAK256 SWAP2 PUSH1 0x7 MUL DUP3 ADD JUMPDEST DUP3 DUP2 GT ISZERO PUSH2 0x4351 JUMPI DUP3 DUP3 PUSH1 0x0 DUP3 ADD DUP2 PUSH1 0x0 ADD PUSH1 0x0 DUP3 ADD DUP2 PUSH1 0x0 ADD SWAP1 DUP2 PUSH2 0x4287 SWAP2 SWAP1 PUSH2 0x598F JUMP JUMPDEST POP PUSH1 0x1 DUP3 ADD DUP2 PUSH1 0x1 ADD SWAP1 DUP2 PUSH2 0x429C SWAP2 SWAP1 PUSH2 0x598F JUMP JUMPDEST POP PUSH1 0x2 DUP3 ADD DUP2 PUSH1 0x2 ADD SWAP1 DUP2 PUSH2 0x42B1 SWAP2 SWAP1 PUSH2 0x598F JUMP JUMPDEST POP PUSH1 0x3 DUP3 ADD DUP2 PUSH1 0x3 ADD SWAP1 DUP2 PUSH2 0x42C6 SWAP2 SWAP1 PUSH2 0x598F JUMP JUMPDEST POP PUSH1 0x4 DUP3 ADD DUP2 PUSH1 0x4 ADD SWAP1 DUP2 PUSH2 0x42DB SWAP2 SWAP1 PUSH2 0x598F JUMP JUMPDEST POP PUSH1 0x5 DUP3 ADD PUSH1 0x0 SWAP1 SLOAD SWAP1 PUSH2 0x100 EXP SWAP1 DIV PUSH2 0xFFFF AND DUP2 PUSH1 0x5 ADD PUSH1 0x0 PUSH2 0x100 EXP DUP2 SLOAD DUP2 PUSH2 0xFFFF MUL NOT AND SWAP1 DUP4 PUSH2 0xFFFF AND MUL OR SWAP1 SSTORE POP POP POP PUSH1 0x6 DUP3 ADD PUSH1 0x0 SWAP1 SLOAD SWAP1 PUSH2 0x100 EXP SWAP1 DIV PUSH2 0xFFFF AND DUP2 PUSH1 0x6 ADD PUSH1 0x0 PUSH2 0x100 EXP DUP2 SLOAD DUP2 PUSH2 0xFFFF MUL NOT AND SWAP1 DUP4 PUSH2 0xFFFF AND MUL OR SWAP1 SSTORE POP POP POP SWAP2 PUSH1 0x7 ADD SWAP2 SWAP1 PUSH1 0x7 ADD SWAP1 PUSH2 0x4261 JUMP JUMPDEST JUMPDEST POP SWAP1 POP PUSH2 0x435F SWAP2 SWAP1 PUSH2 0x443B JUMP JUMPDEST POP SWAP1 JUMP JUMPDEST DUP3 DUP1 SLOAD DUP3 DUP3 SSTORE SWAP1 PUSH1 0x0 MSTORE PUSH1 0x20 PUSH1 0x0 KECCAK256 SWAP1 PUSH1 0x3 MUL DUP2 ADD SWAP3 DUP3 ISZERO PUSH2 0x43E9 JUMPI PUSH1 0x0 MSTORE PUSH1 0x20 PUSH1 0x0 KECCAK256 SWAP2 PUSH1 0x3 MUL DUP3 ADD JUMPDEST DUP3 DUP2 GT ISZERO PUSH2 0x43E8 JUMPI DUP3 DUP3 PUSH1 0x0 DUP3 ADD DUP2 PUSH1 0x0 ADD SWAP1 DUP2 PUSH2 0x43AC SWAP2 SWAP1 PUSH2 0x598F JUMP JUMPDEST POP PUSH1 0x1 DUP3 ADD DUP2 PUSH1 0x1 ADD SWAP1 DUP2 PUSH2 0x43C1 SWAP2 SWAP1 PUSH2 0x598F JUMP JUMPDEST POP PUSH1 0x2 DUP3 ADD DUP2 PUSH1 0x2 ADD SWAP1 DUP2 PUSH2 0x43D6 SWAP2 SWAP1 PUSH2 0x598F JUMP JUMPDEST POP POP POP SWAP2 PUSH1 0x3 ADD SWAP2 SWAP1 PUSH1 0x3 ADD SWAP1 PUSH2 0x438E JUMP JUMPDEST JUMPDEST POP SWAP1 POP PUSH2 0x43F6 SWAP2 SWAP1 PUSH2 0x44D3 JUMP JUMPDEST POP SWAP1 JUMP JUMPDEST JUMPDEST DUP1 DUP3 GT ISZERO PUSH2 0x4413 JUMPI PUSH1 0x0 DUP2 PUSH1 0x0 SWAP1 SSTORE POP PUSH1 0x1 ADD PUSH2 0x43FB JUMP JUMPDEST POP SWAP1 JUMP JUMPDEST JUMPDEST DUP1 DUP3 GT ISZERO PUSH2 0x4437 JUMPI PUSH1 0x0 DUP2 DUP2 PUSH2 0x442E SWAP2 SWAP1 PUSH2 0x451A JUMP JUMPDEST POP PUSH1 0x1 ADD PUSH2 0x4418 JUMP JUMPDEST POP SWAP1 JUMP JUMPDEST JUMPDEST DUP1 DUP3 GT ISZERO PUSH2 0x44CF JUMPI PUSH1 0x0 DUP1 DUP3 ADD PUSH1 0x0 DUP1 DUP3 ADD PUSH1 0x0 PUSH2 0x445A SWAP2 SWAP1 PUSH2 0x451A JUMP JUMPDEST PUSH1 0x1 DUP3 ADD PUSH1 0x0 PUSH2 0x446A SWAP2 SWAP1 PUSH2 0x451A JUMP JUMPDEST PUSH1 0x2 DUP3 ADD PUSH1 0x0 PUSH2 0x447A SWAP2 SWAP1 PUSH2 0x451A JUMP JUMPDEST PUSH1 0x3 DUP3 ADD PUSH1 0x0 PUSH2 0x448A SWAP2 SWAP1 PUSH2 0x451A JUMP JUMPDEST PUSH1 0x4 DUP3 ADD PUSH1 0x0 PUSH2 0x449A SWAP2 SWAP1 PUSH2 0x451A JUMP JUMPDEST PUSH1 0x5 DUP3 ADD PUSH1 0x0 PUSH2 0x100 EXP DUP2 SLOAD SWAP1 PUSH2 0xFFFF MUL NOT AND SWAP1 SSTORE POP POP PUSH1 0x6 DUP3 ADD PUSH1 0x0 PUSH2 0x100 EXP DUP2 SLOAD SWAP1 PUSH2 0xFFFF MUL NOT AND SWAP1 SSTORE POP PUSH1 0x7 ADD PUSH2 0x443C JUMP JUMPDEST POP SWAP1 JUMP JUMPDEST JUMPDEST DUP1 DUP3 GT ISZERO PUSH2 0x4516 JUMPI PUSH1 0x0 DUP1 DUP3 ADD PUSH1 0x0 PUSH2 0x44ED SWAP2 SWAP1 PUSH2 0x451A JUMP JUMPDEST PUSH1 0x1 DUP3 ADD PUSH1 0x0 PUSH2 0x44FD SWAP2 SWAP1 PUSH2 0x451A JUMP JUMPDEST PUSH1 0x2 DUP3 ADD PUSH1 0x0 PUSH2 0x450D SWAP2 SWAP1 PUSH2 0x451A JUMP JUMPDEST POP PUSH1 0x3 ADD PUSH2 0x44D4 JUMP JUMPDEST POP SWAP1 JUMP JUMPDEST POP DUP1 SLOAD PUSH2 0x4526 SWAP1 PUSH2 0x5605 JUMP JUMPDEST PUSH1 0x0 DUP3 SSTORE DUP1 PUSH1 0x1F LT PUSH2 0x4538 JUMPI POP PUSH2 0x4557 JUMP JUMPDEST PUSH1 0x1F ADD PUSH1 0x20 SWAP1 DIV SWAP1 PUSH1 0x0 MSTORE PUSH1 0x20 PUSH1 0x0 KECCAK256 SWAP1 DUP2 ADD SWAP1 PUSH2 0x4556 SWAP2 SWAP1 PUSH2 0x43FA JUMP JUMPDEST JUMPDEST POP JUMP JUMPDEST PUSH1 0x0 PUSH1 0x40 MLOAD SWAP1 POP SWAP1 JUMP JUMPDEST PUSH1 0x0 DUP1 REVERT JUMPDEST PUSH1 0x0 DUP1 REVERT JUMPDEST PUSH1 0x0 DUP1 REVERT JUMPDEST PUSH1 0x0 DUP1 REVERT JUMPDEST PUSH1 0x0 PUSH1 0x1F NOT PUSH1 0x1F DUP4 ADD AND SWAP1 POP SWAP2 SWAP1 POP JUMP JUMPDEST PUSH32 0x4E487B7100000000000000000000000000000000000000000000000000000000 PUSH1 0x0 MSTORE PUSH1 0x41 PUSH1 0x4 MSTORE PUSH1 0x24 PUSH1 0x0 REVERT JUMPDEST PUSH2 0x45C1 DUP3 PUSH2 0x4578 JUMP JUMPDEST DUP2 ADD DUP2 DUP2 LT PUSH8 0xFFFFFFFFFFFFFFFF DUP3 GT OR ISZERO PUSH2 0x45E0 JUMPI PUSH2 0x45DF PUSH2 0x4589 JUMP JUMPDEST JUMPDEST DUP1 PUSH1 0x40 MSTORE POP POP POP JUMP JUMPDEST PUSH1 0x0 PUSH2 0x45F3 PUSH2 0x455A JUMP JUMPDEST SWAP1 POP PUSH2 0x45FF DUP3 DUP3 PUSH2 0x45B8 JUMP JUMPDEST SWAP2 SWAP1 POP JUMP JUMPDEST PUSH1 0x0 PUSH8 0xFFFFFFFFFFFFFFFF DUP3 GT ISZERO PUSH2 0x461F JUMPI PUSH2 0x461E PUSH2 0x4589 JUMP JUMPDEST JUMPDEST PUSH2 0x4628 DUP3 PUSH2 0x4578 JUMP JUMPDEST SWAP1 POP PUSH1 0x20 DUP2 ADD SWAP1 POP SWAP2 SWAP1 POP JUMP JUMPDEST DUP3 DUP2 DUP4 CALLDATACOPY PUSH1 0x0 DUP4 DUP4 ADD MSTORE POP POP POP JUMP JUMPDEST PUSH1 0x0 PUSH2 0x4657 PUSH2 0x4652 DUP5 PUSH2 0x4604 JUMP JUMPDEST PUSH2 0x45E9 JUMP JUMPDEST SWAP1 POP DUP3 DUP2 MSTORE PUSH1 0x20 DUP2 ADD DUP5 DUP5 DUP5 ADD GT ISZERO PUSH2 0x4673 JUMPI PUSH2 0x4672 PUSH2 0x4573 JUMP JUMPDEST JUMPDEST PUSH2 0x467E DUP5 DUP3 DUP6 PUSH2 0x4635 JUMP JUMPDEST POP SWAP4 SWAP3 POP POP POP JUMP JUMPDEST PUSH1 0x0 DUP3 PUSH1 0x1F DUP4 ADD SLT PUSH2 0x469B JUMPI PUSH2 0x469A PUSH2 0x456E JUMP JUMPDEST JUMPDEST DUP2 CALLDATALOAD PUSH2 0x46AB DUP5 DUP3 PUSH1 0x20 DUP7 ADD PUSH2 0x4644 JUMP JUMPDEST SWAP2 POP POP SWAP3 SWAP2 POP POP JUMP JUMPDEST PUSH1 0x0 DUP1 PUSH1 0x0 PUSH1 0x60 DUP5 DUP7 SUB SLT ISZERO PUSH2 0x46CD JUMPI PUSH2 0x46CC PUSH2 0x4564 JUMP JUMPDEST JUMPDEST PUSH1 0x0 DUP5 ADD CALLDATALOAD PUSH8 0xFFFFFFFFFFFFFFFF DUP2 GT ISZERO PUSH2 0x46EB JUMPI PUSH2 0x46EA PUSH2 0x4569 JUMP JUMPDEST JUMPDEST PUSH2 0x46F7 DUP7 DUP3 DUP8 ADD PUSH2 0x4686 JUMP JUMPDEST SWAP4 POP POP PUSH1 0x20 DUP5 ADD CALLDATALOAD PUSH8 0xFFFFFFFFFFFFFFFF DUP2 GT ISZERO PUSH2 0x4718 JUMPI PUSH2 0x4717 PUSH2 0x4569 JUMP JUMPDEST JUMPDEST PUSH2 0x4724 DUP7 DUP3 DUP8 ADD PUSH2 0x4686 JUMP JUMPDEST SWAP3 POP POP PUSH1 0x40 DUP5 ADD CALLDATALOAD PUSH8 0xFFFFFFFFFFFFFFFF DUP2 GT ISZERO PUSH2 0x4745 JUMPI PUSH2 0x4744 PUSH2 0x4569 JUMP JUMPDEST JUMPDEST PUSH2 0x4751 DUP7 DUP3 DUP8 ADD PUSH2 0x4686 JUMP JUMPDEST SWAP2 POP POP SWAP3 POP SWAP3 POP SWAP3 JUMP JUMPDEST PUSH1 0x0 DUP2 SWAP1 POP SWAP2 SWAP1 POP JUMP JUMPDEST PUSH2 0x476E DUP2 PUSH2 0x475B JUMP JUMPDEST DUP2 EQ PUSH2 0x4779 JUMPI PUSH1 0x0 DUP1 REVERT JUMPDEST POP JUMP JUMPDEST PUSH1 0x0 DUP2 CALLDATALOAD SWAP1 POP PUSH2 0x478B DUP2 PUSH2 0x4765 JUMP JUMPDEST SWAP3 SWAP2 POP POP JUMP JUMPDEST PUSH1 0x0 PUSH1 0x20 DUP3 DUP5 SUB SLT ISZERO PUSH2 0x47A7 JUMPI PUSH2 0x47A6 PUSH2 0x4564 JUMP JUMPDEST JUMPDEST PUSH1 0x0 PUSH2 0x47B5 DUP5 DUP3 DUP6 ADD PUSH2 0x477C JUMP JUMPDEST SWAP2 POP POP SWAP3 SWAP2 POP POP JUMP JUMPDEST PUSH1 0x0 DUP2 MLOAD SWAP1 POP SWAP2 SWAP1 POP JUMP JUMPDEST PUSH1 0x0 DUP3 DUP3 MSTORE PUSH1 0x20 DUP3 ADD SWAP1 POP SWAP3 SWAP2 POP POP JUMP JUMPDEST PUSH1 0x0 JUMPDEST DUP4 DUP2 LT ISZERO PUSH2 0x47F8 JUMPI DUP1 DUP3 ADD MLOAD DUP2 DUP5 ADD MSTORE PUSH1 0x20 DUP2 ADD SWAP1 POP PUSH2 0x47DD JUMP JUMPDEST PUSH1 0x0 DUP5 DUP5 ADD MSTORE POP POP POP POP JUMP JUMPDEST PUSH1 0x0 PUSH2 0x480F DUP3 PUSH2 0x47BE JUMP JUMPDEST PUSH2 0x4819 DUP2 DUP6 PUSH2 0x47C9 JUMP JUMPDEST SWAP4 POP PUSH2 0x4829 DUP2 DUP6 PUSH1 0x20 DUP7 ADD PUSH2 0x47DA JUMP JUMPDEST PUSH2 0x4832 DUP2 PUSH2 0x4578 JUMP JUMPDEST DUP5 ADD SWAP2 POP POP SWAP3 SWAP2 POP POP JUMP JUMPDEST PUSH1 0x0 PUSH2 0xFFFF DUP3 AND SWAP1 POP SWAP2 SWAP1 POP JUMP JUMPDEST PUSH2 0x4854 DUP2 PUSH2 0x483D JUMP JUMPDEST DUP3 MSTORE POP POP JUMP JUMPDEST PUSH1 0x0 PUSH1 0xC0 DUP3 ADD SWAP1 POP DUP2 DUP2 SUB PUSH1 0x0 DUP4 ADD MSTORE PUSH2 0x4874 DUP2 DUP10 PUSH2 0x4804 JUMP JUMPDEST SWAP1 POP DUP2 DUP2 SUB PUSH1 0x20 DUP4 ADD MSTORE PUSH2 0x4888 DUP2 DUP9 PUSH2 0x4804 JUMP JUMPDEST SWAP1 POP DUP2 DUP2 SUB PUSH1 0x40 DUP4 ADD MSTORE PUSH2 0x489C DUP2 DUP8 PUSH2 0x4804 JUMP JUMPDEST SWAP1 POP DUP2 DUP2 SUB PUSH1 0x60 DUP4 ADD MSTORE PUSH2 0x48B0 DUP2 DUP7 PUSH2 0x4804 JUMP JUMPDEST SWAP1 POP DUP2 DUP2 SUB PUSH1 0x80 DUP4 ADD MSTORE PUSH2 0x48C4 DUP2 DUP6 PUSH2 0x4804 JUMP JUMPDEST SWAP1 POP PUSH2 0x48D3 PUSH1 0xA0 DUP4 ADD DUP5 PUSH2 0x484B JUMP JUMPDEST SWAP8 SWAP7 POP POP POP POP POP POP POP JUMP JUMPDEST PUSH1 0x0 DUP3 DUP3 MSTORE PUSH1 0x20 DUP3 ADD SWAP1 POP SWAP3 SWAP2 POP POP JUMP JUMPDEST PUSH1 0x0 PUSH2 0x48FA DUP3 PUSH2 0x47BE JUMP JUMPDEST PUSH2 0x4904 DUP2 DUP6 PUSH2 0x48DE JUMP JUMPDEST SWAP4 POP PUSH2 0x4914 DUP2 DUP6 PUSH1 0x20 DUP7 ADD PUSH2 0x47DA JUMP JUMPDEST PUSH2 0x491D DUP2 PUSH2 0x4578 JUMP JUMPDEST DUP5 ADD SWAP2 POP POP SWAP3 SWAP2 POP POP JUMP JUMPDEST PUSH2 0x4931 DUP2 PUSH2 0x483D JUMP JUMPDEST DUP3 MSTORE POP POP JUMP JUMPDEST PUSH1 0x0 PUSH1 0xC0 DUP4 ADD PUSH1 0x0 DUP4 ADD MLOAD DUP5 DUP3 SUB PUSH1 0x0 DUP7 ADD MSTORE PUSH2 0x4954 DUP3 DUP3 PUSH2 0x48EF JUMP JUMPDEST SWAP2 POP POP PUSH1 0x20 DUP4 ADD MLOAD DUP5 DUP3 SUB PUSH1 0x20 DUP7 ADD MSTORE PUSH2 0x496E DUP3 DUP3 PUSH2 0x48EF JUMP JUMPDEST SWAP2 POP POP PUSH1 0x40 DUP4 ADD MLOAD DUP5 DUP3 SUB PUSH1 0x40 DUP7 ADD MSTORE PUSH2 0x4988 DUP3 DUP3 PUSH2 0x48EF JUMP JUMPDEST SWAP2 POP POP PUSH1 0x60 DUP4 ADD MLOAD DUP5 DUP3 SUB PUSH1 0x60 DUP7 ADD MSTORE PUSH2 0x49A2 DUP3 DUP3 PUSH2 0x48EF JUMP JUMPDEST SWAP2 POP POP PUSH1 0x80 DUP4 ADD MLOAD DUP5 DUP3 SUB PUSH1 0x80 DUP7 ADD MSTORE PUSH2 0x49BC DUP3 DUP3 PUSH2 0x48EF JUMP JUMPDEST SWAP2 POP POP PUSH1 0xA0 DUP4 ADD MLOAD PUSH2 0x49D1 PUSH1 0xA0 DUP7 ADD DUP3 PUSH2 0x4928 JUMP JUMPDEST POP DUP1 SWAP2 POP POP SWAP3 SWAP2 POP POP JUMP JUMPDEST PUSH1 0x0 PUSH20 0xFFFFFFFFFFFFFFFFFFFFFFFFFFFFFFFFFFFFFFFF DUP3 AND SWAP1 POP SWAP2 SWAP1 POP JUMP JUMPDEST PUSH1 0x0 PUSH2 0x4A07 DUP3 PUSH2 0x49DC JUMP JUMPDEST SWAP1 POP SWAP2 SWAP1 POP JUMP JUMPDEST PUSH2 0x4A17 DUP2 PUSH2 0x49FC JUMP JUMPDEST DUP3 MSTORE POP POP JUMP JUMPDEST PUSH1 0x0 PUSH1 0xA0 DUP3 ADD SWAP1 POP DUP2 DUP2 SUB PUSH1 0x0 DUP4 ADD MSTORE PUSH2 0x4A37 DUP2 DUP9 PUSH2 0x4804 JUMP JUMPDEST SWAP1 POP DUP2 DUP2 SUB PUSH1 0x20 DUP4 ADD MSTORE PUSH2 0x4A4B DUP2 DUP8 PUSH2 0x4804 JUMP JUMPDEST SWAP1 POP DUP2 DUP2 SUB PUSH1 0x40 DUP4 ADD MSTORE PUSH2 0x4A5F DUP2 DUP7 PUSH2 0x4937 JUMP JUMPDEST SWAP1 POP PUSH2 0x4A6E PUSH1 0x60 DUP4 ADD DUP6 PUSH2 0x4A0E JUMP JUMPDEST PUSH2 0x4A7B PUSH1 0x80 DUP4 ADD DUP5 PUSH2 0x484B JUMP JUMPDEST SWAP7 SWAP6 POP POP POP POP POP POP JUMP JUMPDEST PUSH1 0x0 PUSH1 0x20 DUP3 DUP5 SUB SLT ISZERO PUSH2 0x4A9B JUMPI PUSH2 0x4A9A PUSH2 0x4564 JUMP JUMPDEST JUMPDEST PUSH1 0x0 DUP3 ADD CALLDATALOAD PUSH8 0xFFFFFFFFFFFFFFFF DUP2 GT ISZERO PUSH2 0x4AB9 JUMPI PUSH2 0x4AB8 PUSH2 0x4569 JUMP JUMPDEST JUMPDEST PUSH2 0x4AC5 DUP5 DUP3 DUP6 ADD PUSH2 0x4686 JUMP JUMPDEST SWAP2 POP POP SWAP3 SWAP2 POP POP JUMP JUMPDEST PUSH2 0x4AD7 DUP2 PUSH2 0x475B JUMP JUMPDEST DUP3 MSTORE POP POP JUMP JUMPDEST PUSH1 0x0 DUP2 MLOAD SWAP1 POP SWAP2 SWAP1 POP JUMP JUMPDEST PUSH1 0x0 DUP3 DUP3 MSTORE PUSH1 0x20 DUP3 ADD SWAP1 POP SWAP3 SWAP2 POP POP JUMP JUMPDEST PUSH1 0x0 DUP2 SWAP1 POP PUSH1 0x20 DUP3 ADD SWAP1 POP SWAP2 SWAP1 POP JUMP JUMPDEST PUSH1 0x0 PUSH2 0x4B15 DUP4 DUP4 PUSH2 0x48EF JUMP JUMPDEST SWAP1 POP SWAP3 SWAP2 POP POP JUMP JUMPDEST PUSH1 0x0 PUSH1 0x20 DUP3 ADD SWAP1 POP SWAP2 SWAP1 POP JUMP JUMPDEST PUSH1 0x0 PUSH2 0x4B35 DUP3 PUSH2 0x4ADD JUMP JUMPDEST PUSH2 0x4B3F DUP2 DUP6 PUSH2 0x4AE8 JUMP JUMPDEST SWAP4 POP DUP4 PUSH1 0x20 DUP3 MUL DUP6 ADD PUSH2 0x4B51 DUP6 PUSH2 0x4AF9 JUMP JUMPDEST DUP1 PUSH1 0x0 JUMPDEST DUP6 DUP2 LT ISZERO PUSH2 0x4B8D JUMPI DUP5 DUP5 SUB DUP10 MSTORE DUP2 MLOAD PUSH2 0x4B6E DUP6 DUP3 PUSH2 0x4B09 JUMP JUMPDEST SWAP5 POP PUSH2 0x4B79 DUP4 PUSH2 0x4B1D JUMP JUMPDEST SWAP3 POP PUSH1 0x20 DUP11 ADD SWAP10 POP POP PUSH1 0x1 DUP2 ADD SWAP1 POP PUSH2 0x4B55 JUMP JUMPDEST POP DUP3 SWAP8 POP DUP8 SWAP6 POP POP POP POP POP POP SWAP3 SWAP2 POP POP JUMP JUMPDEST PUSH1 0x0 DUP2 MLOAD SWAP1 POP SWAP2 SWAP1 POP JUMP JUMPDEST PUSH1 0x0 DUP3 DUP3 MSTORE PUSH1 0x20 DUP3 ADD SWAP1 POP SWAP3 SWAP2 POP POP JUMP JUMPDEST PUSH1 0x0 DUP2 SWAP1 POP PUSH1 0x20 DUP3 ADD SWAP1 POP SWAP2 SWAP1 POP JUMP JUMPDEST PUSH2 0x4BD4 DUP2 PUSH2 0x49FC JUMP JUMPDEST DUP3 MSTORE POP POP JUMP JUMPDEST PUSH1 0x0 PUSH2 0x4BE6 DUP4 DUP4 PUSH2 0x4BCB JUMP JUMPDEST PUSH1 0x20 DUP4 ADD SWAP1 POP SWAP3 SWAP2 POP POP JUMP JUMPDEST PUSH1 0x0 PUSH1 0x20 DUP3 ADD SWAP1 POP SWAP2 SWAP1 POP JUMP JUMPDEST PUSH1 0x0 PUSH2 0x4C0A DUP3 PUSH2 0x4B9F JUMP JUMPDEST PUSH2 0x4C14 DUP2 DUP6 PUSH2 0x4BAA JUMP JUMPDEST SWAP4 POP PUSH2 0x4C1F DUP4 PUSH2 0x4BBB JUMP JUMPDEST DUP1 PUSH1 0x0 JUMPDEST DUP4 DUP2 LT ISZERO PUSH2 0x4C50 JUMPI DUP2 MLOAD PUSH2 0x4C37 DUP9 DUP3 PUSH2 0x4BDA JUMP JUMPDEST SWAP8 POP PUSH2 0x4C42 DUP4 PUSH2 0x4BF2 JUMP JUMPDEST SWAP3 POP POP PUSH1 0x1 DUP2 ADD SWAP1 POP PUSH2 0x4C23 JUMP JUMPDEST POP DUP6 SWAP4 POP POP POP POP SWAP3 SWAP2 POP POP JUMP JUMPDEST PUSH1 0x0 PUSH1 0xE0 DUP3 ADD SWAP1 POP DUP2 DUP2 SUB PUSH1 0x0 DUP4 ADD MSTORE PUSH2 0x4C77 DUP2 DUP11 PUSH2 0x4804 JUMP JUMPDEST SWAP1 POP DUP2 DUP2 SUB PUSH1 0x20 DUP4 ADD MSTORE PUSH2 0x4C8B DUP2 DUP10 PUSH2 0x4804 JUMP JUMPDEST SWAP1 POP DUP2 DUP2 SUB PUSH1 0x40 DUP4 ADD MSTORE PUSH2 0x4C9F DUP2 DUP9 PUSH2 0x4937 JUMP JUMPDEST SWAP1 POP PUSH2 0x4CAE PUSH1 0x60 DUP4 ADD DUP8 PUSH2 0x4A0E JUMP JUMPDEST PUSH2 0x4CBB PUSH1 0x80 DUP4 ADD DUP7 PUSH2 0x4ACE JUMP JUMPDEST DUP2 DUP2 SUB PUSH1 0xA0 DUP4 ADD MSTORE PUSH2 0x4CCD DUP2 DUP6 PUSH2 0x4B2A JUMP JUMPDEST SWAP1 POP DUP2 DUP2 SUB PUSH1 0xC0 DUP4 ADD MSTORE PUSH2 0x4CE1 DUP2 DUP5 PUSH2 0x4BFF JUMP JUMPDEST SWAP1 POP SWAP9 SWAP8 POP POP POP POP POP POP POP POP JUMP JUMPDEST PUSH1 0x0 PUSH1 0x20 DUP3 ADD SWAP1 POP DUP2 DUP2 SUB PUSH1 0x0 DUP4 ADD MSTORE PUSH2 0x4D09 DUP2 DUP5 PUSH2 0x4B2A JUMP JUMPDEST SWAP1 POP SWAP3 SWAP2 POP POP JUMP JUMPDEST PUSH1 0x0 DUP2 MLOAD SWAP1 POP SWAP2 SWAP1 POP JUMP JUMPDEST PUSH1 0x0 DUP3 DUP3 MSTORE PUSH1 0x20 DUP3 ADD SWAP1 POP SWAP3 SWAP2 POP POP JUMP JUMPDEST PUSH1 0x0 DUP2 SWAP1 POP PUSH1 0x20 DUP3 ADD SWAP1 POP SWAP2 SWAP1 POP JUMP JUMPDEST PUSH1 0x0 PUSH1 0x60 DUP4 ADD PUSH1 0x0 DUP4 ADD MLOAD DUP5 DUP3 SUB PUSH1 0x0 DUP7 ADD MSTORE PUSH2 0x4D5A DUP3 DUP3 PUSH2 0x48EF JUMP JUMPDEST SWAP2 POP POP PUSH1 0x20 DUP4 ADD MLOAD DUP5 DUP3 SUB PUSH1 0x20 DUP7 ADD MSTORE PUSH2 0x4D74 DUP3 DUP3 PUSH2 0x48EF JUMP JUMPDEST SWAP2 POP POP PUSH1 0x40 DUP4 ADD MLOAD DUP5 DUP3 SUB PUSH1 0x40 DUP7 ADD MSTORE PUSH2 0x4D8E DUP3 DUP3 PUSH2 0x48EF JUMP JUMPDEST SWAP2 POP POP DUP1 SWAP2 POP POP SWAP3 SWAP2 POP POP JUMP JUMPDEST PUSH1 0x0 PUSH2 0x4DA7 DUP4 DUP4 PUSH2 0x4D3D JUMP JUMPDEST SWAP1 POP SWAP3 SWAP2 POP POP JUMP JUMPDEST PUSH1 0x0 PUSH1 0x20 DUP3 ADD SWAP1 POP SWAP2 SWAP1 POP JUMP JUMPDEST PUSH1 0x0 PUSH2 0x4DC7 DUP3 PUSH2 0x4D11 JUMP JUMPDEST PUSH2 0x4DD1 DUP2 DUP6 PUSH2 0x4D1C JUMP JUMPDEST SWAP4 POP DUP4 PUSH1 0x20 DUP3 MUL DUP6 ADD PUSH2 0x4DE3 DUP6 PUSH2 0x4D2D JUMP JUMPDEST DUP1 PUSH1 0x0 JUMPDEST DUP6 DUP2 LT ISZERO PUSH2 0x4E1F JUMPI DUP5 DUP5 SUB DUP10 MSTORE DUP2 MLOAD PUSH2 0x4E00 DUP6 DUP3 PUSH2 0x4D9B JUMP JUMPDEST SWAP5 POP PUSH2 0x4E0B DUP4 PUSH2 0x4DAF JUMP JUMPDEST SWAP3 POP PUSH1 0x20 DUP11 ADD SWAP10 POP POP PUSH1 0x1 DUP2 ADD SWAP1 POP PUSH2 0x4DE7 JUMP JUMPDEST POP DUP3 SWAP8 POP DUP8 SWAP6 POP POP POP POP POP POP SWAP3 SWAP2 POP POP JUMP JUMPDEST PUSH1 0x0 DUP2 MLOAD SWAP1 POP SWAP2 SWAP1 POP JUMP JUMPDEST PUSH1 0x0 DUP3 DUP3 MSTORE PUSH1 0x20 DUP3 ADD SWAP1 POP SWAP3 SWAP2 POP POP JUMP JUMPDEST PUSH1 0x0 DUP2 SWAP1 POP PUSH1 0x20 DUP3 ADD SWAP1 POP SWAP2 SWAP1 POP JUMP JUMPDEST PUSH1 0x0 PUSH1 0xC0 DUP4 ADD PUSH1 0x0 DUP4 ADD MLOAD DUP5 DUP3 SUB PUSH1 0x0 DUP7 ADD MSTORE PUSH2 0x4E7A DUP3 DUP3 PUSH2 0x48EF JUMP JUMPDEST SWAP2 POP POP PUSH1 0x20 DUP4 ADD MLOAD DUP5 DUP3 SUB PUSH1 0x20 DUP7 ADD MSTORE PUSH2 0x4E94 DUP3 DUP3 PUSH2 0x48EF JUMP JUMPDEST SWAP2 POP POP PUSH1 0x40 DUP4 ADD MLOAD DUP5 DUP3 SUB PUSH1 0x40 DUP7 ADD MSTORE PUSH2 0x4EAE DUP3 DUP3 PUSH2 0x48EF JUMP JUMPDEST SWAP2 POP POP PUSH1 0x60 DUP4 ADD MLOAD DUP5 DUP3 SUB PUSH1 0x60 DUP7 ADD MSTORE PUSH2 0x4EC8 DUP3 DUP3 PUSH2 0x48EF JUMP JUMPDEST SWAP2 POP POP PUSH1 0x80 DUP4 ADD MLOAD DUP5 DUP3 SUB PUSH1 0x80 DUP7 ADD MSTORE PUSH2 0x4EE2 DUP3 DUP3 PUSH2 0x48EF JUMP JUMPDEST SWAP2 POP POP PUSH1 0xA0 DUP4 ADD MLOAD PUSH2 0x4EF7 PUSH1 0xA0 DUP7 ADD DUP3 PUSH2 0x4928 JUMP JUMPDEST POP DUP1 SWAP2 POP POP SWAP3 SWAP2 POP POP JUMP JUMPDEST PUSH1 0x0 PUSH1 0x40 DUP4 ADD PUSH1 0x0 DUP4 ADD MLOAD DUP5 DUP3 SUB PUSH1 0x0 DUP7 ADD MSTORE PUSH2 0x4F1F DUP3 DUP3 PUSH2 0x4E5D JUMP JUMPDEST SWAP2 POP POP PUSH1 0x20 DUP4 ADD MLOAD PUSH2 0x4F34 PUSH1 0x20 DUP7 ADD DUP3 PUSH2 0x4928 JUMP JUMPDEST POP DUP1 SWAP2 POP POP SWAP3 SWAP2 POP POP JUMP JUMPDEST PUSH1 0x0 PUSH2 0x4F4B DUP4 DUP4 PUSH2 0x4F02 JUMP JUMPDEST SWAP1 POP SWAP3 SWAP2 POP POP JUMP JUMPDEST PUSH1 0x0 PUSH1 0x20 DUP3 ADD SWAP1 POP SWAP2 SWAP1 POP JUMP JUMPDEST PUSH1 0x0 PUSH2 0x4F6B DUP3 PUSH2 0x4E31 JUMP JUMPDEST PUSH2 0x4F75 DUP2 DUP6 PUSH2 0x4E3C JUMP JUMPDEST SWAP4 POP DUP4 PUSH1 0x20 DUP3 MUL DUP6 ADD PUSH2 0x4F87 DUP6 PUSH2 0x4E4D JUMP JUMPDEST DUP1 PUSH1 0x0 JUMPDEST DUP6 DUP2 LT ISZERO PUSH2 0x4FC3 JUMPI DUP5 DUP5 SUB DUP10 MSTORE DUP2 MLOAD PUSH2 0x4FA4 DUP6 DUP3 PUSH2 0x4F3F JUMP JUMPDEST SWAP5 POP PUSH2 0x4FAF DUP4 PUSH2 0x4F53 JUMP JUMPDEST SWAP3 POP PUSH1 0x20 DUP11 ADD SWAP10 POP POP PUSH1 0x1 DUP2 ADD SWAP1 POP PUSH2 0x4F8B JUMP JUMPDEST POP DUP3 SWAP8 POP DUP8 SWAP6 POP POP POP POP POP POP SWAP3 SWAP2 POP POP JUMP JUMPDEST PUSH1 0x0 PUSH1 0xE0 DUP3 ADD SWAP1 POP DUP2 DUP2 SUB PUSH1 0x0 DUP4 ADD MSTORE PUSH2 0x4FEF DUP2 DUP11 PUSH2 0x4804 JUMP JUMPDEST SWAP1 POP DUP2 DUP2 SUB PUSH1 0x20 DUP4 ADD MSTORE PUSH2 0x5003 DUP2 DUP10 PUSH2 0x4B2A JUMP JUMPDEST SWAP1 POP DUP2 DUP2 SUB PUSH1 0x40 DUP4 ADD MSTORE PUSH2 0x5017 DUP2 DUP9 PUSH2 0x4B2A JUMP JUMPDEST SWAP1 POP DUP2 DUP2 SUB PUSH1 0x60 DUP4 ADD MSTORE PUSH2 0x502B DUP2 DUP8 PUSH2 0x4B2A JUMP JUMPDEST SWAP1 POP DUP2 DUP2 SUB PUSH1 0x80 DUP4 ADD MSTORE PUSH2 0x503F DUP2 DUP7 PUSH2 0x4804 JUMP JUMPDEST SWAP1 POP DUP2 DUP2 SUB PUSH1 0xA0 DUP4 ADD MSTORE PUSH2 0x5053 DUP2 DUP6 PUSH2 0x4DBC JUMP JUMPDEST SWAP1 POP DUP2 DUP2 SUB PUSH1 0xC0 DUP4 ADD MSTORE PUSH2 0x5067 DUP2 DUP5 PUSH2 0x4F60 JUMP JUMPDEST SWAP1 POP SWAP9 SWAP8 POP POP POP POP POP POP POP POP JUMP JUMPDEST PUSH1 0x0 DUP2 ISZERO ISZERO SWAP1 POP SWAP2 SWAP1 POP JUMP JUMPDEST PUSH2 0x508A DUP2 PUSH2 0x5075 JUMP JUMPDEST DUP3 MSTORE POP POP JUMP JUMPDEST PUSH1 0x0 PUSH1 0x60 DUP3 ADD SWAP1 POP DUP2 DUP2 SUB PUSH1 0x0 DUP4 ADD MSTORE PUSH2 0x50AA DUP2 DUP7 PUSH2 0x4804 JUMP JUMPDEST SWAP1 POP DUP2 DUP2 SUB PUSH1 0x20 DUP4 ADD MSTORE PUSH2 0x50BE DUP2 DUP6 PUSH2 0x4804 JUMP JUMPDEST SWAP1 POP PUSH2 0x50CD PUSH1 0x40 DUP4 ADD DUP5 PUSH2 0x5081 JUMP JUMPDEST SWAP5 SWAP4 POP POP POP POP JUMP JUMPDEST PUSH2 0x50DE DUP2 PUSH2 0x483D JUMP JUMPDEST DUP2 EQ PUSH2 0x50E9 JUMPI PUSH1 0x0 DUP1 REVERT JUMPDEST POP JUMP JUMPDEST PUSH1 0x0 DUP2 CALLDATALOAD SWAP1 POP PUSH2 0x50FB DUP2 PUSH2 0x50D5 JUMP JUMPDEST SWAP3 SWAP2 POP POP JUMP JUMPDEST PUSH1 0x0 DUP1 PUSH1 0x0 DUP1 PUSH1 0x0 DUP1 PUSH1 0xC0 DUP8 DUP10 SUB SLT ISZERO PUSH2 0x511E JUMPI PUSH2 0x511D PUSH2 0x4564 JUMP JUMPDEST JUMPDEST PUSH1 0x0 DUP8 ADD CALLDATALOAD PUSH8 0xFFFFFFFFFFFFFFFF DUP2 GT ISZERO PUSH2 0x513C JUMPI PUSH2 0x513B PUSH2 0x4569 JUMP JUMPDEST JUMPDEST PUSH2 0x5148 DUP10 DUP3 DUP11 ADD PUSH2 0x4686 JUMP JUMPDEST SWAP7 POP POP PUSH1 0x20 DUP8 ADD CALLDATALOAD PUSH8 0xFFFFFFFFFFFFFFFF DUP2 GT ISZERO PUSH2 0x5169 JUMPI PUSH2 0x5168 PUSH2 0x4569 JUMP JUMPDEST JUMPDEST PUSH2 0x5175 DUP10 DUP3 DUP11 ADD PUSH2 0x4686 JUMP JUMPDEST SWAP6 POP POP PUSH1 0x40 DUP8 ADD CALLDATALOAD PUSH8 0xFFFFFFFFFFFFFFFF DUP2 GT ISZERO PUSH2 0x5196 JUMPI PUSH2 0x5195 PUSH2 0x4569 JUMP JUMPDEST JUMPDEST PUSH2 0x51A2 DUP10 DUP3 DUP11 ADD PUSH2 0x4686 JUMP JUMPDEST SWAP5 POP POP PUSH1 0x60 DUP8 ADD CALLDATALOAD PUSH8 0xFFFFFFFFFFFFFFFF DUP2 GT ISZERO PUSH2 0x51C3 JUMPI PUSH2 0x51C2 PUSH2 0x4569 JUMP JUMPDEST JUMPDEST PUSH2 0x51CF DUP10 DUP3 DUP11 ADD PUSH2 0x4686 JUMP JUMPDEST SWAP4 POP POP PUSH1 0x80 DUP8 ADD CALLDATALOAD PUSH8 0xFFFFFFFFFFFFFFFF DUP2 GT ISZERO PUSH2 0x51F0 JUMPI PUSH2 0x51EF PUSH2 0x4569 JUMP JUMPDEST JUMPDEST PUSH2 0x51FC DUP10 DUP3 DUP11 ADD PUSH2 0x4686 JUMP JUMPDEST SWAP3 POP POP PUSH1 0xA0 PUSH2 0x520D DUP10 DUP3 DUP11 ADD PUSH2 0x50EC JUMP JUMPDEST SWAP2 POP POP SWAP3 SWAP6 POP SWAP3 SWAP6 POP SWAP3 SWAP6 JUMP JUMPDEST PUSH1 0x0 DUP2 MLOAD SWAP1 POP SWAP2 SWAP1 POP JUMP JUMPDEST PUSH1 0x0 DUP3 DUP3 MSTORE PUSH1 0x20 DUP3 ADD SWAP1 POP SWAP3 SWAP2 POP POP JUMP JUMPDEST PUSH1 0x0 DUP2 SWAP1 POP PUSH1 0x20 DUP3 ADD SWAP1 POP SWAP2 SWAP1 POP JUMP JUMPDEST PUSH1 0x0 DUP3 DUP3 MSTORE PUSH1 0x20 DUP3 ADD SWAP1 POP SWAP3 SWAP2 POP POP JUMP JUMPDEST PUSH1 0x0 PUSH2 0x5262 DUP3 PUSH2 0x4ADD JUMP JUMPDEST PUSH2 0x526C DUP2 DUP6 PUSH2 0x5246 JUMP JUMPDEST SWAP4 POP DUP4 PUSH1 0x20 DUP3 MUL DUP6 ADD PUSH2 0x527E DUP6 PUSH2 0x4AF9 JUMP JUMPDEST DUP1 PUSH1 0x0 JUMPDEST DUP6 DUP2 LT ISZERO PUSH2 0x52BA JUMPI DUP5 DUP5 SUB DUP10 MSTORE DUP2 MLOAD PUSH2 0x529B DUP6 DUP3 PUSH2 0x4B09 JUMP JUMPDEST SWAP5 POP PUSH2 0x52A6 DUP4 PUSH2 0x4B1D JUMP JUMPDEST SWAP3 POP PUSH1 0x20 DUP11 ADD SWAP10 POP POP PUSH1 0x1 DUP2 ADD SWAP1 POP PUSH2 0x5282 JUMP JUMPDEST POP DUP3 SWAP8 POP DUP8 SWAP6 POP POP POP POP POP POP SWAP3 SWAP2 POP POP JUMP JUMPDEST PUSH1 0x0 DUP3 DUP3 MSTORE PUSH1 0x20 DUP3 ADD SWAP1 POP SWAP3 SWAP2 POP POP JUMP JUMPDEST PUSH1 0x0 PUSH2 0x52E8 DUP3 PUSH2 0x4B9F JUMP JUMPDEST PUSH2 0x52F2 DUP2 DUP6 PUSH2 0x52CC JUMP JUMPDEST SWAP4 POP PUSH2 0x52FD DUP4 PUSH2 0x4BBB JUMP JUMPDEST DUP1 PUSH1 0x0 JUMPDEST DUP4 DUP2 LT ISZERO PUSH2 0x532E JUMPI DUP2 MLOAD PUSH2 0x5315 DUP9 DUP3 PUSH2 0x4BDA JUMP JUMPDEST SWAP8 POP PUSH2 0x5320 DUP4 PUSH2 0x4BF2 JUMP JUMPDEST SWAP3 POP POP PUSH1 0x1 DUP2 ADD SWAP1 POP PUSH2 0x5301 JUMP JUMPDEST POP DUP6 SWAP4 POP POP POP POP SWAP3 SWAP2 POP POP JUMP JUMPDEST PUSH1 0x0 PUSH1 0xE0 DUP4 ADD PUSH1 0x0 DUP4 ADD MLOAD DUP5 DUP3 SUB PUSH1 0x0 DUP7 ADD MSTORE PUSH2 0x5358 DUP3 DUP3 PUSH2 0x48EF JUMP JUMPDEST SWAP2 POP POP PUSH1 0x20 DUP4 ADD MLOAD DUP5 DUP3 SUB PUSH1 0x20 DUP7 ADD MSTORE PUSH2 0x5372 DUP3 DUP3 PUSH2 0x48EF JUMP JUMPDEST SWAP2 POP POP PUSH1 0x40 DUP4 ADD MLOAD DUP5 DUP3 SUB PUSH1 0x40 DUP7 ADD MSTORE PUSH2 0x538C DUP3 DUP3 PUSH2 0x4E5D JUMP JUMPDEST SWAP2 POP POP PUSH1 0x60 DUP4 ADD MLOAD PUSH2 0x53A1 PUSH1 0x60 DUP7 ADD DUP3 PUSH2 0x4BCB JUMP JUMPDEST POP PUSH1 0x80 DUP4 ADD MLOAD PUSH2 0x53B4 PUSH1 0x80 DUP7 ADD DUP3 PUSH2 0x4928 JUMP JUMPDEST POP PUSH1 0xA0 DUP4 ADD MLOAD DUP5 DUP3 SUB PUSH1 0xA0 DUP7 ADD MSTORE PUSH2 0x53CC DUP3 DUP3 PUSH2 0x5257 JUMP JUMPDEST SWAP2 POP POP PUSH1 0xC0 DUP4 ADD MLOAD DUP5 DUP3 SUB PUSH1 0xC0 DUP7 ADD MSTORE PUSH2 0x53E6 DUP3 DUP3 PUSH2 0x52DD JUMP JUMPDEST SWAP2 POP POP DUP1 SWAP2 POP POP SWAP3 SWAP2 POP POP JUMP JUMPDEST PUSH1 0x0 PUSH2 0x53FF DUP4 DUP4 PUSH2 0x533B JUMP JUMPDEST SWAP1 POP SWAP3 SWAP2 POP POP JUMP JUMPDEST PUSH1 0x0 PUSH1 0x20 DUP3 ADD SWAP1 POP SWAP2 SWAP1 POP JUMP JUMPDEST PUSH1 0x0 PUSH2 0x541F DUP3 PUSH2 0x521A JUMP JUMPDEST PUSH2 0x5429 DUP2 DUP6 PUSH2 0x5225 JUMP JUMPDEST SWAP4 POP DUP4 PUSH1 0x20 DUP3 MUL DUP6 ADD PUSH2 0x543B DUP6 PUSH2 0x5236 JUMP JUMPDEST DUP1 PUSH1 0x0 JUMPDEST DUP6 DUP2 LT ISZERO PUSH2 0x5477 JUMPI DUP5 DUP5 SUB DUP10 MSTORE DUP2 MLOAD PUSH2 0x5458 DUP6 DUP3 PUSH2 0x53F3 JUMP JUMPDEST SWAP5 POP PUSH2 0x5463 DUP4 PUSH2 0x5407 JUMP JUMPDEST SWAP3 POP PUSH1 0x20 DUP11 ADD SWAP10 POP POP PUSH1 0x1 DUP2 ADD SWAP1 POP PUSH2 0x543F JUMP JUMPDEST POP DUP3 SWAP8 POP DUP8 SWAP6 POP POP POP POP POP POP SWAP3 SWAP2 POP POP JUMP JUMPDEST PUSH1 0x0 PUSH1 0x20 DUP3 ADD SWAP1 POP DUP2 DUP2 SUB PUSH1 0x0 DUP4 ADD MSTORE PUSH2 0x54A3 DUP2 DUP5 PUSH2 0x5414 JUMP JUMPDEST SWAP1 POP SWAP3 SWAP2 POP POP JUMP JUMPDEST PUSH32 0x436F6D6D756E697479206E616D652063616E6E6F7420626520656D7074792100 PUSH1 0x0 DUP3 ADD MSTORE POP JUMP JUMPDEST PUSH1 0x0 PUSH2 0x54E1 PUSH1 0x1F DUP4 PUSH2 0x47C9 JUMP JUMPDEST SWAP2 POP PUSH2 0x54EC DUP3 PUSH2 0x54AB JUMP JUMPDEST PUSH1 0x20 DUP3 ADD SWAP1 POP SWAP2 SWAP1 POP JUMP JUMPDEST PUSH1 0x0 PUSH1 0x20 DUP3 ADD SWAP1 POP DUP2 DUP2 SUB PUSH1 0x0 DUP4 ADD MSTORE PUSH2 0x5510 DUP2 PUSH2 0x54D4 JUMP JUMPDEST SWAP1 POP SWAP2 SWAP1 POP JUMP JUMPDEST PUSH32 0x426F74206E616D652063616E6E6F7420626520656D7074792100000000000000 PUSH1 0x0 DUP3 ADD MSTORE POP JUMP JUMPDEST PUSH1 0x0 PUSH2 0x554D PUSH1 0x19 DUP4 PUSH2 0x47C9 JUMP JUMPDEST SWAP2 POP PUSH2 0x5558 DUP3 PUSH2 0x5517 JUMP JUMPDEST PUSH1 0x20 DUP3 ADD SWAP1 POP SWAP2 SWAP1 POP JUMP JUMPDEST PUSH1 0x0 PUSH1 0x20 DUP3 ADD SWAP1 POP DUP2 DUP2 SUB PUSH1 0x0 DUP4 ADD MSTORE PUSH2 0x557C DUP2 PUSH2 0x5540 JUMP JUMPDEST SWAP1 POP SWAP2 SWAP1 POP JUMP JUMPDEST PUSH1 0x0 DUP2 SWAP1 POP SWAP3 SWAP2 POP POP JUMP JUMPDEST PUSH1 0x0 PUSH2 0x5599 DUP3 PUSH2 0x47BE JUMP JUMPDEST PUSH2 0x55A3 DUP2 DUP6 PUSH2 0x5583 JUMP JUMPDEST SWAP4 POP PUSH2 0x55B3 DUP2 DUP6 PUSH1 0x20 DUP7 ADD PUSH2 0x47DA JUMP JUMPDEST DUP1 DUP5 ADD SWAP2 POP POP SWAP3 SWAP2 POP POP JUMP JUMPDEST PUSH1 0x0 PUSH2 0x55CB DUP3 DUP5 PUSH2 0x558E JUMP JUMPDEST SWAP2 POP DUP2 SWAP1 POP SWAP3 SWAP2 POP POP JUMP JUMPDEST PUSH32 0x4E487B7100000000000000000000000000000000000000000000000000000000 PUSH1 0x0 MSTORE PUSH1 0x22 PUSH1 0x4 MSTORE PUSH1 0x24 PUSH1 0x0 REVERT JUMPDEST PUSH1 0x0 PUSH1 0x2 DUP3 DIV SWAP1 POP PUSH1 0x1 DUP3 AND DUP1 PUSH2 0x561D JUMPI PUSH1 0x7F DUP3 AND SWAP2 POP JUMPDEST PUSH1 0x20 DUP3 LT DUP2 SUB PUSH2 0x5630 JUMPI PUSH2 0x562F PUSH2 0x55D6 JUMP JUMPDEST JUMPDEST POP SWAP2 SWAP1 POP JUMP JUMPDEST PUSH32 0x426F7420646F6573206E6F742065786973742100000000000000000000000000 PUSH1 0x0 DUP3 ADD MSTORE POP JUMP JUMPDEST PUSH1 0x0 PUSH2 0x566C PUSH1 0x13 DUP4 PUSH2 0x47C9 JUMP JUMPDEST SWAP2 POP PUSH2 0x5677 DUP3 PUSH2 0x5636 JUMP JUMPDEST PUSH1 0x20 DUP3 ADD SWAP1 POP SWAP2 SWAP1 POP JUMP JUMPDEST PUSH1 0x0 PUSH1 0x20 DUP3 ADD SWAP1 POP DUP2 DUP2 SUB PUSH1 0x0 DUP4 ADD MSTORE PUSH2 0x569B DUP2 PUSH2 0x565F JUMP JUMPDEST SWAP1 POP SWAP2 SWAP1 POP JUMP JUMPDEST PUSH32 0x4E487B7100000000000000000000000000000000000000000000000000000000 PUSH1 0x0 MSTORE PUSH1 0x11 PUSH1 0x4 MSTORE PUSH1 0x24 PUSH1 0x0 REVERT JUMPDEST PUSH1 0x0 PUSH2 0x56DC DUP3 PUSH2 0x483D JUMP JUMPDEST SWAP2 POP PUSH2 0xFFFF DUP3 SUB PUSH2 0x56F0 JUMPI PUSH2 0x56EF PUSH2 0x56A2 JUMP JUMPDEST JUMPDEST PUSH1 0x1 DUP3 ADD SWAP1 POP SWAP2 SWAP1 POP JUMP JUMPDEST PUSH1 0x0 DUP2 SWAP1 POP DUP2 PUSH1 0x0 MSTORE PUSH1 0x20 PUSH1 0x0 KECCAK256 SWAP1 POP SWAP2 SWAP1 POP JUMP JUMPDEST PUSH1 0x0 PUSH1 0x20 PUSH1 0x1F DUP4 ADD DIV SWAP1 POP SWAP2 SWAP1 POP JUMP JUMPDEST PUSH1 0x0 DUP3 DUP3 SHL SWAP1 POP SWAP3 SWAP2 POP POP JUMP JUMPDEST PUSH1 0x0 PUSH1 0x8 DUP4 MUL PUSH2 0x575D PUSH32 0xFFFFFFFFFFFFFFFFFFFFFFFFFFFFFFFFFFFFFFFFFFFFFFFFFFFFFFFFFFFFFFFF DUP3 PUSH2 0x5720 JUMP JUMPDEST PUSH2 0x5767 DUP7 DUP4 PUSH2 0x5720 JUMP JUMPDEST SWAP6 POP DUP1 NOT DUP5 AND SWAP4 POP DUP1 DUP7 AND DUP5 OR SWAP3 POP POP POP SWAP4 SWAP3 POP POP POP JUMP JUMPDEST PUSH1 0x0 DUP2 SWAP1 POP SWAP2 SWAP1 POP JUMP JUMPDEST PUSH1 0x0 PUSH2 0x57A4 PUSH2 0x579F PUSH2 0x579A DUP5 PUSH2 0x475B JUMP JUMPDEST PUSH2 0x577F JUMP JUMPDEST PUSH2 0x475B JUMP JUMPDEST SWAP1 POP SWAP2 SWAP1 POP JUMP JUMPDEST PUSH1 0x0 DUP2 SWAP1 POP SWAP2 SWAP1 POP JUMP JUMPDEST PUSH2 0x57BE DUP4 PUSH2 0x5789 JUMP JUMPDEST PUSH2 0x57D2 PUSH2 0x57CA DUP3 PUSH2 0x57AB JUMP JUMPDEST DUP5 DUP5 SLOAD PUSH2 0x572D JUMP JUMPDEST DUP3 SSTORE POP POP POP POP JUMP JUMPDEST PUSH1 0x0 SWAP1 JUMP JUMPDEST PUSH2 0x57E7 PUSH2 0x57DA JUMP JUMPDEST PUSH2 0x57F2 DUP2 DUP5 DUP5 PUSH2 0x57B5 JUMP JUMPDEST POP POP POP JUMP JUMPDEST JUMPDEST DUP2 DUP2 LT ISZERO PUSH2 0x5816 JUMPI PUSH2 0x580B PUSH1 0x0 DUP3 PUSH2 0x57DF JUMP JUMPDEST PUSH1 0x1 DUP2 ADD SWAP1 POP PUSH2 0x57F8 JUMP JUMPDEST POP POP JUMP JUMPDEST PUSH1 0x1F DUP3 GT ISZERO PUSH2 0x585B JUMPI PUSH2 0x582C DUP2 PUSH2 0x56FB JUMP JUMPDEST PUSH2 0x5835 DUP5 PUSH2 0x5710 JUMP JUMPDEST DUP2 ADD PUSH1 0x20 DUP6 LT ISZERO PUSH2 0x5844 JUMPI DUP2 SWAP1 POP JUMPDEST PUSH2 0x5858 PUSH2 0x5850 DUP6 PUSH2 0x5710 JUMP JUMPDEST DUP4 ADD DUP3 PUSH2 0x57F7 JUMP JUMPDEST POP POP JUMPDEST POP POP POP JUMP JUMPDEST PUSH1 0x0 DUP3 DUP3 SHR SWAP1 POP SWAP3 SWAP2 POP POP JUMP JUMPDEST PUSH1 0x0 PUSH2 0x587E PUSH1 0x0 NOT DUP5 PUSH1 0x8 MUL PUSH2 0x5860 JUMP JUMPDEST NOT DUP1 DUP4 AND SWAP2 POP POP SWAP3 SWAP2 POP POP JUMP JUMPDEST PUSH1 0x0 PUSH2 0x5897 DUP4 DUP4 PUSH2 0x586D JUMP JUMPDEST SWAP2 POP DUP3 PUSH1 0x2 MUL DUP3 OR SWAP1 POP SWAP3 SWAP2 POP POP JUMP JUMPDEST PUSH2 0x58B0 DUP3 PUSH2 0x47BE JUMP JUMPDEST PUSH8 0xFFFFFFFFFFFFFFFF DUP2 GT ISZERO PUSH2 0x58C9 JUMPI PUSH2 0x58C8 PUSH2 0x4589 JUMP JUMPDEST JUMPDEST PUSH2 0x58D3 DUP3 SLOAD PUSH2 0x5605 JUMP JUMPDEST PUSH2 0x58DE DUP3 DUP3 DUP6 PUSH2 0x581A JUMP JUMPDEST PUSH1 0x0 PUSH1 0x20 SWAP1 POP PUSH1 0x1F DUP4 GT PUSH1 0x1 DUP2 EQ PUSH2 0x5911 JUMPI PUSH1 0x0 DUP5 ISZERO PUSH2 0x58FF JUMPI DUP3 DUP8 ADD MLOAD SWAP1 POP JUMPDEST PUSH2 0x5909 DUP6 DUP3 PUSH2 0x588B JUMP JUMPDEST DUP7 SSTORE POP PUSH2 0x5971 JUMP JUMPDEST PUSH1 0x1F NOT DUP5 AND PUSH2 0x591F DUP7 PUSH2 0x56FB JUMP JUMPDEST PUSH1 0x0 JUMPDEST DUP3 DUP2 LT ISZERO PUSH2 0x5947 JUMPI DUP5 DUP10 ADD MLOAD DUP3 SSTORE PUSH1 0x1 DUP3 ADD SWAP2 POP PUSH1 0x20 DUP6 ADD SWAP5 POP PUSH1 0x20 DUP2 ADD SWAP1 POP PUSH2 0x5922 JUMP JUMPDEST DUP7 DUP4 LT ISZERO PUSH2 0x5964 JUMPI DUP5 DUP10 ADD MLOAD PUSH2 0x5960 PUSH1 0x1F DUP10 AND DUP3 PUSH2 0x586D JUMP JUMPDEST DUP4 SSTORE POP JUMPDEST PUSH1 0x1 PUSH1 0x2 DUP9 MUL ADD DUP9 SSTORE POP POP POP JUMPDEST POP POP POP POP POP POP JUMP JUMPDEST PUSH1 0x0 DUP2 SLOAD SWAP1 POP PUSH2 0x5988 DUP2 PUSH2 0x5605 JUMP JUMPDEST SWAP1 POP SWAP2 SWAP1 POP JUMP JUMPDEST DUP2 DUP2 SUB PUSH2 0x599D JUMPI POP POP PUSH2 0x5A75 JUMP JUMPDEST PUSH2 0x59A6 DUP3 PUSH2 0x5979 JUMP JUMPDEST PUSH8 0xFFFFFFFFFFFFFFFF DUP2 GT ISZERO PUSH2 0x59BF JUMPI PUSH2 0x59BE PUSH2 0x4589 JUMP JUMPDEST JUMPDEST PUSH2 0x59C9 DUP3 SLOAD PUSH2 0x5605 JUMP JUMPDEST PUSH2 0x59D4 DUP3 DUP3 DUP6 PUSH2 0x581A JUMP JUMPDEST PUSH1 0x0 PUSH1 0x1F DUP4 GT PUSH1 0x1 DUP2 EQ PUSH2 0x5A03 JUMPI PUSH1 0x0 DUP5 ISZERO PUSH2 0x59F1 JUMPI DUP3 DUP8 ADD SLOAD SWAP1 POP JUMPDEST PUSH2 0x59FB DUP6 DUP3 PUSH2 0x588B JUMP JUMPDEST DUP7 SSTORE POP PUSH2 0x5A6E JUMP JUMPDEST PUSH1 0x1F NOT DUP5 AND PUSH2 0x5A11 DUP8 PUSH2 0x56FB JUMP JUMPDEST SWAP7 POP PUSH2 0x5A1C DUP7 PUSH2 0x56FB JUMP JUMPDEST PUSH1 0x0 JUMPDEST DUP3 DUP2 LT ISZERO PUSH2 0x5A44 JUMPI DUP5 DUP10 ADD SLOAD DUP3 SSTORE PUSH1 0x1 DUP3 ADD SWAP2 POP PUSH1 0x1 DUP6 ADD SWAP5 POP PUSH1 0x20 DUP2 ADD SWAP1 POP PUSH2 0x5A1F JUMP JUMPDEST DUP7 DUP4 LT ISZERO PUSH2 0x5A61 JUMPI DUP5 DUP10 ADD SLOAD PUSH2 0x5A5D PUSH1 0x1F DUP10 AND DUP3 PUSH2 0x586D JUMP JUMPDEST DUP4 SSTORE POP JUMPDEST PUSH1 0x1 PUSH1 0x2 DUP9 MUL ADD DUP9 SSTORE POP POP POP JUMPDEST POP POP POP POP POP POP JUMPDEST JUMP JUMPDEST PUSH1 0x0 PUSH1 0x40 DUP3 ADD SWAP1 POP DUP2 DUP2 SUB PUSH1 0x0 DUP4 ADD MSTORE PUSH2 0x5A91 DUP2 DUP6 PUSH2 0x4804 JUMP JUMPDEST SWAP1 POP PUSH2 0x5AA0 PUSH1 0x20 DUP4 ADD DUP5 PUSH2 0x484B JUMP JUMPDEST SWAP4 SWAP3 POP POP POP JUMP JUMPDEST PUSH32 0x55736572206E6F74207265676973746572656421000000000000000000000000 PUSH1 0x0 DUP3 ADD MSTORE POP JUMP JUMPDEST PUSH1 0x0 PUSH2 0x5ADD PUSH1 0x14 DUP4 PUSH2 0x47C9 JUMP JUMPDEST SWAP2 POP PUSH2 0x5AE8 DUP3 PUSH2 0x5AA7 JUMP JUMPDEST PUSH1 0x20 DUP3 ADD SWAP1 POP SWAP2 SWAP1 POP JUMP JUMPDEST PUSH1 0x0 PUSH1 0x20 DUP3 ADD SWAP1 POP DUP2 DUP2 SUB PUSH1 0x0 DUP4 ADD MSTORE PUSH2 0x5B0C DUP2 PUSH2 0x5AD0 JUMP JUMPDEST SWAP1 POP SWAP2 SWAP1 POP JUMP JUMPDEST PUSH1 0x0 PUSH1 0x20 DUP3 ADD SWAP1 POP DUP2 DUP2 SUB PUSH1 0x0 DUP4 ADD MSTORE PUSH2 0x5B2D DUP2 DUP5 PUSH2 0x4804 JUMP JUMPDEST SWAP1 POP SWAP3 SWAP2 POP POP JUMP JUMPDEST PUSH32 0x436F6D6D756E69747920726F6F6D20646F6573206E6F74206578697374210000 PUSH1 0x0 DUP3 ADD MSTORE POP JUMP JUMPDEST PUSH1 0x0 PUSH2 0x5B6B PUSH1 0x1E DUP4 PUSH2 0x47C9 JUMP JUMPDEST SWAP2 POP PUSH2 0x5B76 DUP3 PUSH2 0x5B35 JUMP JUMPDEST PUSH1 0x20 DUP3 ADD SWAP1 POP SWAP2 SWAP1 POP JUMP JUMPDEST PUSH1 0x0 PUSH1 0x20 DUP3 ADD SWAP1 POP DUP2 DUP2 SUB PUSH1 0x0 DUP4 ADD MSTORE PUSH2 0x5B9A DUP2 PUSH2 0x5B5E JUMP JUMPDEST SWAP1 POP SWAP2 SWAP1 POP JUMP JUMPDEST PUSH32 0x4E487B7100000000000000000000000000000000000000000000000000000000 PUSH1 0x0 MSTORE PUSH1 0x32 PUSH1 0x4 MSTORE PUSH1 0x24 PUSH1 0x0 REVERT JUMPDEST PUSH32 0x416C72656164792061206D656D626572206F66207468697320636F6D6D756E69 PUSH1 0x0 DUP3 ADD MSTORE PUSH32 0x7479210000000000000000000000000000000000000000000000000000000000 PUSH1 0x20 DUP3 ADD MSTORE POP JUMP JUMPDEST PUSH1 0x0 PUSH2 0x5C2C PUSH1 0x23 DUP4 PUSH2 0x47C9 JUMP JUMPDEST SWAP2 POP PUSH2 0x5C37 DUP3 PUSH2 0x5BD0 JUMP JUMPDEST PUSH1 0x40 DUP3 ADD SWAP1 POP SWAP2 SWAP1 POP JUMP JUMPDEST PUSH1 0x0 PUSH1 0x20 DUP3 ADD SWAP1 POP DUP2 DUP2 SUB PUSH1 0x0 DUP4 ADD MSTORE PUSH2 0x5C5B DUP2 PUSH2 0x5C1F JUMP JUMPDEST SWAP1 POP SWAP2 SWAP1 POP JUMP JUMPDEST PUSH32 0x5573657220616C72656164792072656769737465726564210000000000000000 PUSH1 0x0 DUP3 ADD MSTORE POP JUMP JUMPDEST PUSH1 0x0 PUSH2 0x5C98 PUSH1 0x18 DUP4 PUSH2 0x47C9 JUMP JUMPDEST SWAP2 POP PUSH2 0x5CA3 DUP3 PUSH2 0x5C62 JUMP JUMPDEST PUSH1 0x20 DUP3 ADD SWAP1 POP SWAP2 SWAP1 POP JUMP JUMPDEST PUSH1 0x0 PUSH1 0x20 DUP3 ADD SWAP1 POP DUP2 DUP2 SUB PUSH1 0x0 DUP4 ADD MSTORE PUSH2 0x5CC7 DUP2 PUSH2 0x5C8B JUMP JUMPDEST SWAP1 POP SWAP2 SWAP1 POP JUMP JUMPDEST PUSH32 0x556E6C6F636B20636F7374206D7573742062652067726561746572207468616E PUSH1 0x0 DUP3 ADD MSTORE PUSH32 0x2030000000000000000000000000000000000000000000000000000000000000 PUSH1 0x20 DUP3 ADD MSTORE POP JUMP JUMPDEST PUSH1 0x0 PUSH2 0x5D2A PUSH1 0x22 DUP4 PUSH2 0x47C9 JUMP JUMPDEST SWAP2 POP PUSH2 0x5D35 DUP3 PUSH2 0x5CCE JUMP JUMPDEST PUSH1 0x40 DUP3 ADD SWAP1 POP SWAP2 SWAP1 POP JUMP JUMPDEST PUSH1 0x0 PUSH1 0x20 DUP3 ADD SWAP1 POP DUP2 DUP2 SUB PUSH1 0x0 DUP4 ADD MSTORE PUSH2 0x5D59 DUP2 PUSH2 0x5D1D JUMP JUMPDEST SWAP1 POP SWAP2 SWAP1 POP JUMP JUMPDEST PUSH1 0x0 PUSH4 0xFFFFFFFF DUP3 AND SWAP1 POP SWAP2 SWAP1 POP JUMP JUMPDEST PUSH1 0x0 PUSH2 0x5D7B DUP3 PUSH2 0x5D60 JUMP JUMPDEST SWAP2 POP PUSH2 0x5D86 DUP4 PUSH2 0x5D60 JUMP JUMPDEST SWAP3 POP DUP3 DUP3 MUL PUSH2 0x5D94 DUP2 PUSH2 0x5D60 JUMP JUMPDEST SWAP2 POP DUP1 DUP3 EQ PUSH2 0x5DA6 JUMPI PUSH2 0x5DA5 PUSH2 0x56A2 JUMP JUMPDEST JUMPDEST POP SWAP3 SWAP2 POP POP JUMP JUMPDEST PUSH32 0x496E73756666696369656E74207061796D656E74000000000000000000000000 PUSH1 0x0 DUP3 ADD MSTORE POP JUMP JUMPDEST PUSH1 0x0 PUSH2 0x5DE3 PUSH1 0x14 DUP4 PUSH2 0x47C9 JUMP JUMPDEST SWAP2 POP PUSH2 0x5DEE DUP3 PUSH2 0x5DAD JUMP JUMPDEST PUSH1 0x20 DUP3 ADD SWAP1 POP SWAP2 SWAP1 POP JUMP JUMPDEST PUSH1 0x0 PUSH1 0x20 DUP3 ADD SWAP1 POP DUP2 DUP2 SUB PUSH1 0x0 DUP4 ADD MSTORE PUSH2 0x5E12 DUP2 PUSH2 0x5DD6 JUMP JUMPDEST SWAP1 POP SWAP2 SWAP1 POP JUMP INVALID LOG2 PUSH5 0x6970667358 0x22 SLT KECCAK256 RETURN 0xC7 0xCE PUSH24 0x8D450750FE7BE90D301A3047D0BBB00ABE38629D21B5F84D PUSH5 0x144B766473 PUSH16 0x6C634300081400330000000000000000 "},"methodIdentifiers":{"addActivity(string)":"b841e45a","addNutritionGoal(string)":"903d3626","addSportGoal(string)":"3fccb4a5","allBots(uint256)":"22428b67","allCommunityRooms(uint256)":"29a7645d","allUsers(uint256)":"a2bdedf4","buyBot(string)":"b84f14b7","createBot(string,string,string,string,string,uint16)":"b23f6864","createCommunityRoom(string,string,string)":"1dd20a8b","getAllCommunityRooms()":"fab6774d","getCommunityRoomDetails(string)":"54d9ea15","getUserCommunities()":"75ad6404","getUserDetails()":"942886be","joinCommunityRoom(string)":"43dfc73c","registerUser(string)":"704f1b94","updateInjury(string)":"610693e7"}}}}}