{"contracts/Athl3te.sol":{"Athl3te":{"abi":[{"inputs":[{"internalType":"string","name":"name","type":"string"},{"internalType":"string","name":"symbol","type":"string"},{"internalType":"string","name":"_baseURL","type":"string"}],"stateMutability":"nonpayable","type":"constructor"},{"anonymous":false,"inputs":[{"indexed":true,"internalType":"address","name":"userAddress","type":"address"},{"indexed":false,"internalType":"string","name":"activityId","type":"string"}],"name":"ActivityAdded","type":"event"},{"anonymous":false,"inputs":[{"indexed":true,"internalType":"address","name":"owner","type":"address"},{"indexed":true,"internalType":"address","name":"approved","type":"address"},{"indexed":true,"internalType":"uint256","name":"tokenId","type":"uint256"}],"name":"Approval","type":"event"},{"anonymous":false,"inputs":[{"indexed":true,"internalType":"address","name":"owner","type":"address"},{"indexed":true,"internalType":"address","name":"operator","type":"address"},{"indexed":false,"internalType":"bool","name":"approved","type":"bool"}],"name":"ApprovalForAll","type":"event"},{"anonymous":false,"inputs":[{"indexed":true,"internalType":"string","name":"botName","type":"string"},{"indexed":false,"internalType":"string","name":"deploymentURL","type":"string"},{"indexed":false,"internalType":"uint16","name":"unlockCostInGWei","type":"uint16"}],"name":"BotCreated","type":"event"},{"anonymous":false,"inputs":[{"indexed":true,"internalType":"address","name":"userAddress","type":"address"},{"indexed":false,"internalType":"string","name":"botName","type":"string"},{"indexed":false,"internalType":"uint16","name":"messagesId","type":"uint16"}],"name":"BotPurchased","type":"event"},{"anonymous":false,"inputs":[{"indexed":true,"internalType":"string","name":"communityName","type":"string"},{"indexed":true,"internalType":"address","name":"creator","type":"address"},{"indexed":false,"internalType":"string","name":"botName","type":"string"},{"indexed":false,"internalType":"uint16","name":"messagesId","type":"uint16"}],"name":"CommunityRoomCreated","type":"event"},{"anonymous":false,"inputs":[{"indexed":true,"internalType":"address","name":"userAddress","type":"address"},{"indexed":false,"internalType":"string","name":"communityName","type":"string"}],"name":"CommunityRoomJoined","type":"event"},{"anonymous":false,"inputs":[{"indexed":true,"internalType":"address","name":"userAddress","type":"address"},{"indexed":false,"internalType":"string","name":"goalId","type":"string"}],"name":"GoalAdded","type":"event"},{"anonymous":false,"inputs":[{"indexed":true,"internalType":"address","name":"from","type":"address"},{"indexed":true,"internalType":"address","name":"to","type":"address"},{"indexed":true,"internalType":"uint256","name":"tokenId","type":"uint256"}],"name":"Transfer","type":"event"},{"anonymous":false,"inputs":[{"indexed":true,"internalType":"address","name":"userAddress","type":"address"},{"indexed":false,"internalType":"string","name":"metadata","type":"string"}],"name":"UserRegistered","type":"event"},{"inputs":[{"internalType":"uint256","name":"","type":"uint256"}],"name":"_tokenURIs","outputs":[{"internalType":"string","name":"","type":"string"}],"stateMutability":"view","type":"function"},{"inputs":[{"internalType":"string","name":"_activityId","type":"string"}],"name":"addActivity","outputs":[],"stateMutability":"nonpayable","type":"function"},{"inputs":[{"internalType":"string","name":"_goalId","type":"string"},{"internalType":"string","name":"goalType","type":"string"}],"name":"addGoal","outputs":[],"stateMutability":"nonpayable","type":"function"},{"inputs":[{"internalType":"address","name":"to","type":"address"},{"internalType":"uint256","name":"tokenId","type":"uint256"}],"name":"approve","outputs":[],"stateMutability":"nonpayable","type":"function"},{"inputs":[{"internalType":"address","name":"owner","type":"address"}],"name":"balanceOf","outputs":[{"internalType":"uint256","name":"","type":"uint256"}],"stateMutability":"view","type":"function"},{"inputs":[{"internalType":"string","name":"_botName","type":"string"}],"name":"buyBot","outputs":[],"stateMutability":"payable","type":"function"},{"inputs":[{"internalType":"string","name":"_botName","type":"string"},{"internalType":"string","name":"_systemPrompt","type":"string"},{"internalType":"string","name":"_botDescription","type":"string"},{"internalType":"string","name":"_deploymentURL","type":"string"},{"internalType":"uint16","name":"_unlockCostInGWei","type":"uint16"}],"name":"createBot","outputs":[],"stateMutability":"nonpayable","type":"function"},{"inputs":[{"internalType":"string","name":"_communityName","type":"string"},{"internalType":"string","name":"_botName","type":"string"}],"name":"createCommunityRoom","outputs":[],"stateMutability":"nonpayable","type":"function"},{"inputs":[],"name":"getAllBotNames","outputs":[{"internalType":"string[]","name":"","type":"string[]"}],"stateMutability":"view","type":"function"},{"inputs":[],"name":"getAllCommunityNames","outputs":[{"internalType":"string[]","name":"","type":"string[]"}],"stateMutability":"view","type":"function"},{"inputs":[],"name":"getAllUsers","outputs":[{"internalType":"address[]","name":"","type":"address[]"}],"stateMutability":"view","type":"function"},{"inputs":[{"internalType":"uint256","name":"tokenId","type":"uint256"}],"name":"getApproved","outputs":[{"internalType":"address","name":"","type":"address"}],"stateMutability":"view","type":"function"},{"inputs":[{"internalType":"string","name":"_botName","type":"string"}],"name":"getBotDetails","outputs":[{"components":[{"internalType":"string","name":"botName","type":"string"},{"internalType":"string","name":"systemPrompt","type":"string"},{"internalType":"string","name":"botDescription","type":"string"},{"internalType":"string","name":"deploymentURL","type":"string"},{"internalType":"uint16","name":"unlockCostInGWei","type":"uint16"}],"internalType":"struct Athl3te.Bot","name":"","type":"tuple"}],"stateMutability":"view","type":"function"},{"inputs":[{"internalType":"string","name":"_communityName","type":"string"}],"name":"getCommunityRoomDetails","outputs":[{"components":[{"internalType":"string","name":"communityName","type":"string"},{"internalType":"string","name":"botName","type":"string"},{"internalType":"address","name":"createdBy","type":"address"},{"internalType":"uint16","name":"messagesId","type":"uint16"},{"internalType":"string[]","name":"communitySportGoalIds","type":"string[]"},{"internalType":"address[]","name":"members","type":"address[]"}],"internalType":"struct Athl3te.CommunityRoom","name":"","type":"tuple"}],"stateMutability":"view","type":"function"},{"inputs":[],"name":"getUserDetails","outputs":[{"components":[{"internalType":"string","name":"metadata","type":"string"},{"internalType":"string[]","name":"activityIds","type":"string[]"},{"internalType":"string[]","name":"sportGoalIds","type":"string[]"},{"internalType":"string[]","name":"nutritionGoalIds","type":"string[]"},{"components":[{"internalType":"string","name":"botName","type":"string"},{"internalType":"uint16","name":"messagesId","type":"uint16"}],"internalType":"struct Athl3te.PersonalAssistant[]","name":"purchasedAssistants","type":"tuple[]"},{"internalType":"string","name":"injuriesDescriptionId","type":"string"},{"internalType":"uint256[]","name":"nftTokenIds","type":"uint256[]"},{"internalType":"bool","name":"isRegistered","type":"bool"},{"internalType":"string[]","name":"joinedCommunities","type":"string[]"}],"internalType":"struct Athl3te.User","name":"","type":"tuple"}],"stateMutability":"view","type":"function"},{"inputs":[{"internalType":"address","name":"owner","type":"address"},{"internalType":"address","name":"operator","type":"address"}],"name":"isApprovedForAll","outputs":[{"internalType":"bool","name":"","type":"bool"}],"stateMutability":"view","type":"function"},{"inputs":[{"internalType":"string","name":"_communityName","type":"string"}],"name":"joinCommunityRoom","outputs":[],"stateMutability":"nonpayable","type":"function"},{"inputs":[{"internalType":"string","name":"uri","type":"string"}],"name":"mintNftWithUri","outputs":[{"internalType":"uint256","name":"","type":"uint256"}],"stateMutability":"nonpayable","type":"function"},{"inputs":[],"name":"name","outputs":[{"internalType":"string","name":"","type":"string"}],"stateMutability":"view","type":"function"},{"inputs":[{"internalType":"uint256","name":"tokenId","type":"uint256"}],"name":"ownerOf","outputs":[{"internalType":"address","name":"","type":"address"}],"stateMutability":"view","type":"function"},{"inputs":[{"internalType":"string","name":"_metadata","type":"string"}],"name":"registerUser","outputs":[],"stateMutability":"nonpayable","type":"function"},{"inputs":[{"internalType":"address","name":"from","type":"address"},{"internalType":"address","name":"to","type":"address"},{"internalType":"uint256","name":"tokenId","type":"uint256"}],"name":"safeTransferFrom","outputs":[],"stateMutability":"nonpayable","type":"function"},{"inputs":[{"internalType":"address","name":"from","type":"address"},{"internalType":"address","name":"to","type":"address"},{"internalType":"uint256","name":"tokenId","type":"uint256"},{"internalType":"bytes","name":"_data","type":"bytes"}],"name":"safeTransferFrom","outputs":[],"stateMutability":"nonpayable","type":"function"},{"inputs":[{"internalType":"address","name":"operator","type":"address"},{"internalType":"bool","name":"approved","type":"bool"}],"name":"setApprovalForAll","outputs":[],"stateMutability":"nonpayable","type":"function"},{"inputs":[{"internalType":"bytes4","name":"interfaceId","type":"bytes4"}],"name":"supportsInterface","outputs":[{"internalType":"bool","name":"","type":"bool"}],"stateMutability":"view","type":"function"},{"inputs":[],"name":"symbol","outputs":[{"internalType":"string","name":"","type":"string"}],"stateMutability":"view","type":"function"},{"inputs":[{"internalType":"uint256","name":"tokenId","type":"uint256"}],"name":"tokenURI","outputs":[{"internalType":"string","name":"","type":"string"}],"stateMutability":"view","type":"function"},{"inputs":[{"internalType":"address","name":"from","type":"address"},{"internalType":"address","name":"to","type":"address"},{"internalType":"uint256","name":"tokenId","type":"uint256"}],"name":"transferFrom","outputs":[],"stateMutability":"nonpayable","type":"function"},{"inputs":[{"internalType":"string","name":"_injuryId","type":"string"}],"name":"updateInjury","outputs":[],"stateMutability":"nonpayable","type":"function"}],"evm":{"bytecode":{"linkReferences":{},"object":"60806040526000600860006101000a81548161ffff021916908361ffff1602179055503480156200002f57600080fd5b506040516200702f3803806200702f83398181016040528101906200005591906200022b565b828281600090816200006891906200052f565b5080600190816200007a91906200052f565b50505080600790816200008e91906200052f565b5050505062000616565b6000604051905090565b600080fd5b600080fd5b600080fd5b600080fd5b6000601f19601f8301169050919050565b7f4e487b7100000000000000000000000000000000000000000000000000000000600052604160045260246000fd5b6200010182620000b6565b810181811067ffffffffffffffff82111715620001235762000122620000c7565b5b80604052505050565b60006200013862000098565b9050620001468282620000f6565b919050565b600067ffffffffffffffff821115620001695762000168620000c7565b5b6200017482620000b6565b9050602081019050919050565b60005b83811015620001a157808201518184015260208101905062000184565b60008484015250505050565b6000620001c4620001be846200014b565b6200012c565b905082815260208101848484011115620001e357620001e2620000b1565b5b620001f084828562000181565b509392505050565b600082601f83011262000210576200020f620000ac565b5b815162000222848260208601620001ad565b91505092915050565b600080600060608486031215620002475762000246620000a2565b5b600084015167ffffffffffffffff811115620002685762000267620000a7565b5b6200027686828701620001f8565b935050602084015167ffffffffffffffff8111156200029a5762000299620000a7565b5b620002a886828701620001f8565b925050604084015167ffffffffffffffff811115620002cc57620002cb620000a7565b5b620002da86828701620001f8565b9150509250925092565b600081519050919050565b7f4e487b7100000000000000000000000000000000000000000000000000000000600052602260045260246000fd5b600060028204905060018216806200033757607f821691505b6020821081036200034d576200034c620002ef565b5b50919050565b60008190508160005260206000209050919050565b60006020601f8301049050919050565b600082821b905092915050565b600060088302620003b77fffffffffffffffffffffffffffffffffffffffffffffffffffffffffffffffff8262000378565b620003c3868362000378565b95508019841693508086168417925050509392505050565b6000819050919050565b6000819050919050565b6000620004106200040a6200040484620003db565b620003e5565b620003db565b9050919050565b6000819050919050565b6200042c83620003ef565b620004446200043b8262000417565b84845462000385565b825550505050565b600090565b6200045b6200044c565b6200046881848462000421565b505050565b5b8181101562000490576200048460008262000451565b6001810190506200046e565b5050565b601f821115620004df57620004a98162000353565b620004b48462000368565b81016020851015620004c4578190505b620004dc620004d38562000368565b8301826200046d565b50505b505050565b600082821c905092915050565b60006200050460001984600802620004e4565b1980831691505092915050565b60006200051f8383620004f1565b9150826002028217905092915050565b6200053a82620002e4565b67ffffffffffffffff811115620005565762000555620000c7565b5b6200056282546200031e565b6200056f82828562000494565b600060209050601f831160018114620005a7576000841562000592578287015190505b6200059e858262000511565b8655506200060e565b601f198416620005b78662000353565b60005b82811015620005e157848901518255600182019150602085019450602081019050620005ba565b86831015620006015784890151620005fd601f891682620004f1565b8355505b6001600288020188555050505b505050505050565b616a0980620006266000396000f3fe6080604052600436106101c25760003560e01c8063704f1b94116100f7578063a22cb46511610095578063b88d4fde11610064578063b88d4fde14610665578063c87b56dd1461068e578063e2842d79146106cb578063e985e9c5146106f6576101c2565b8063a22cb465146105cc578063b028e967146105f5578063b841e45a14610620578063b84f14b714610649576101c2565b80638272e1d4116100d15780638272e1d4146105225780639298f4241461054d578063942886be1461057657806395d89b41146105a1576101c2565b8063704f1b941461047f57806370a08231146104a857806379181eea146104e5576101c2565b806323b872dd1161016457806354d9ea151161013e57806354d9ea15146103b3578063610693e7146103f057806361a88441146104195780636352211e14610442576101c2565b806323b872dd1461033857806342842e0e1461036157806343dfc73c1461038a576101c2565b8063095ea7b3116101a0578063095ea7b31461026c5780630986f185146102955780630bb78ec1146102be578063226e4fd5146102fb576101c2565b806301ffc9a7146101c757806306fdde0314610204578063081812fc1461022f575b600080fd5b3480156101d357600080fd5b506101ee60048036038101906101e99190614486565b610733565b6040516101fb91906144ce565b60405180910390f35b34801561021057600080fd5b50610219610815565b6040516102269190614579565b60405180910390f35b34801561023b57600080fd5b50610256600480360381019061025191906145d1565b6108a7565b604051610263919061463f565b60405180910390f35b34801561027857600080fd5b50610293600480360381019061028e9190614686565b61092c565b005b3480156102a157600080fd5b506102bc60048036038101906102b79190614765565b610a43565b005b3480156102ca57600080fd5b506102e560048036038101906102e091906145d1565b610d70565b6040516102f29190614579565b60405180910390f35b34801561030757600080fd5b50610322600480360381019061031d9190614991565b610e10565b60405161032f91906149e9565b60405180910390f35b34801561034457600080fd5b5061035f600480360381019061035a9190614a04565b610f56565b005b34801561036d57600080fd5b5061038860048036038101906103839190614a04565b610fb6565b005b34801561039657600080fd5b506103b160048036038101906103ac9190614a57565b610fd6565b005b3480156103bf57600080fd5b506103da60048036038101906103d59190614a57565b6112e8565b6040516103e79190614d1b565b60405180910390f35b3480156103fc57600080fd5b5061041760048036038101906104129190614a57565b611696565b005b34801561042557600080fd5b50610440600480360381019061043b9190614d3d565b61177b565b005b34801561044e57600080fd5b50610469600480360381019061046491906145d1565b611b72565b604051610476919061463f565b60405180910390f35b34801561048b57600080fd5b506104a660048036038101906104a19190614a57565b611c23565b005b3480156104b457600080fd5b506104cf60048036038101906104ca9190614dbe565b611f76565b6040516104dc91906149e9565b60405180910390f35b3480156104f157600080fd5b5061050c60048036038101906105079190614a57565b61202d565b6040516105199190614e76565b60405180910390f35b34801561052e57600080fd5b50610537612342565b6040516105449190614f1e565b60405180910390f35b34801561055957600080fd5b50610574600480360381019061056f9190614f40565b61241b565b005b34801561058257600080fd5b5061058b6126b1565b604051610598919061527e565b60405180910390f35b3480156105ad57600080fd5b506105b6612da4565b6040516105c39190614579565b60405180910390f35b3480156105d857600080fd5b506105f360048036038101906105ee91906152cc565b612e36565b005b34801561060157600080fd5b5061060a612e4c565b6040516106179190614f1e565b60405180910390f35b34801561062c57600080fd5b5061064760048036038101906106429190614a57565b612f25565b005b610663600480360381019061065e9190614a57565b613086565b005b34801561067157600080fd5b5061068c600480360381019061068791906153ad565b6133b1565b005b34801561069a57600080fd5b506106b560048036038101906106b091906145d1565b613413565b6040516106c29190614579565b60405180910390f35b3480156106d757600080fd5b506106e06134ba565b6040516106ed919061549f565b60405180910390f35b34801561070257600080fd5b5061071d600480360381019061071891906154c1565b613548565b60405161072a91906144ce565b60405180910390f35b60007f80ac58cd000000000000000000000000000000000000000000000000000000007bffffffffffffffffffffffffffffffffffffffffffffffffffffffff1916827bffffffffffffffffffffffffffffffffffffffffffffffffffffffff191614806107fe57507f5b5e139f000000000000000000000000000000000000000000000000000000007bffffffffffffffffffffffffffffffffffffffffffffffffffffffff1916827bffffffffffffffffffffffffffffffffffffffffffffffffffffffff1916145b8061080e575061080d826135dc565b5b9050919050565b60606000805461082490615530565b80601f016020809104026020016040519081016040528092919081815260200182805461085090615530565b801561089d5780601f106108725761010080835404028352916020019161089d565b820191906000526020600020905b81548152906001019060200180831161088057829003601f168201915b5050505050905090565b60006108b282613646565b6108f1576040517f08c379a00000000000000000000000000000000000000000000000000000000081526004016108e8906155d3565b60405180910390fd5b6004600083815260200190815260200160002060009054906101000a900473ffffffffffffffffffffffffffffffffffffffff169050919050565b600061093782611b72565b90508073ffffffffffffffffffffffffffffffffffffffff168373ffffffffffffffffffffffffffffffffffffffff16036109a7576040517f08c379a000000000000000000000000000000000000000000000000000000000815260040161099e90615665565b60405180910390fd5b8073ffffffffffffffffffffffffffffffffffffffff166109c66136b2565b73ffffffffffffffffffffffffffffffffffffffff1614806109f557506109f4816109ef6136b2565b613548565b5b610a34576040517f08c379a0000000000000000000000000000000000000000000000000000000008152600401610a2b906156f7565b60405180910390fd5b610a3e83836136ba565b505050565b60008989905011610a89576040517f08c379a0000000000000000000000000000000000000000000000000000000008152600401610a8090615763565b60405180910390fd5b6000600a8a8a604051610a9d9291906157b3565b90815260200160405180910390206000018054610ab990615530565b905014610afb576040517f08c379a0000000000000000000000000000000000000000000000000000000008152600401610af290615818565b60405180910390fd5b6040518060a001604052808a8a8080601f016020809104026020016040519081016040528093929190818152602001838380828437600081840152601f19601f82011690508083019250505050505050815260200188888080601f016020809104026020016040519081016040528093929190818152602001838380828437600081840152601f19601f82011690508083019250505050505050815260200186868080601f016020809104026020016040519081016040528093929190818152602001838380828437600081840152601f19601f82011690508083019250505050505050815260200184848080601f016020809104026020016040519081016040528093929190818152602001838380828437600081840152601f19601f8201169050808301925050505050505081526020018261ffff16815250600a8a8a604051610c489291906157b3565b90815260200160405180910390206000820151816000019081610c6b91906159e4565b506020820151816001019081610c8191906159e4565b506040820151816002019081610c9791906159e4565b506060820151816003019081610cad91906159e4565b5060808201518160040160006101000a81548161ffff021916908361ffff160217905550905050600d898990918060018154018082558091505060019003906000526020600020016000909192909192909192909192509182610d11929190615ac1565b508888604051610d229291906157b3565b60405180910390207f3b9e932f435ec1da30497b3e70808ce4f0ffe940f26624043073cf416d3f9693848484604051610d5d93929190615bcd565b60405180910390a2505050505050505050565b600c6020528060005260406000206000915090508054610d8f90615530565b80601f0160208091040260200160405190810160405280929190818152602001828054610dbb90615530565b8015610e085780601f10610ddd57610100808354040283529160200191610e08565b820191906000526020600020905b815481529060010190602001808311610deb57829003601f168201915b505050505081565b6000600960003373ffffffffffffffffffffffffffffffffffffffff1673ffffffffffffffffffffffffffffffffffffffff16815260200190815260200160002060070160009054906101000a900460ff16610ea1576040517f08c379a0000000000000000000000000000000000000000000000000000000008152600401610e9890615c4b565b60405180910390fd5b6000610ead6006613773565b9050610eb96006613781565b610ec33382613797565b82600c60008381526020019081526020016000209081610ee391906159e4565b50600960003373ffffffffffffffffffffffffffffffffffffffff1673ffffffffffffffffffffffffffffffffffffffff16815260200190815260200160002060060181908060018154018082558091505060019003906000526020600020016000909190919091505580915050919050565b610f67610f616136b2565b82613970565b610fa6576040517f08c379a0000000000000000000000000000000000000000000000000000000008152600401610f9d90615cdd565b60405180910390fd5b610fb1838383613a4e565b505050565b610fd1838383604051806020016040528060008152506133b1565b505050565b600960003373ffffffffffffffffffffffffffffffffffffffff1673ffffffffffffffffffffffffffffffffffffffff16815260200190815260200160002060070160009054906101000a900460ff16611065576040517f08c379a000000000000000000000000000000000000000000000000000000000815260040161105c90615c4b565b60405180910390fd5b6000600b83836040516110799291906157b3565b90815260200160405180910390209050600081600001805461109a90615530565b9050116110dc576040517f08c379a00000000000000000000000000000000000000000000000000000000081526004016110d390615d49565b60405180910390fd5b60005b81600401805490508110156111af573373ffffffffffffffffffffffffffffffffffffffff1682600401828154811061111b5761111a615d69565b5b9060005260206000200160009054906101000a900473ffffffffffffffffffffffffffffffffffffffff1673ffffffffffffffffffffffffffffffffffffffff160361119c576040517f08c379a000000000000000000000000000000000000000000000000000000000815260040161119390615de4565b60405180910390fd5b80806111a790615e33565b9150506110df565b5080600401339080600181540180825580915050600190039060005260206000200160009091909190916101000a81548173ffffffffffffffffffffffffffffffffffffffff021916908373ffffffffffffffffffffffffffffffffffffffff160217905550600960003373ffffffffffffffffffffffffffffffffffffffff1673ffffffffffffffffffffffffffffffffffffffff168152602001908152602001600020600801838390918060018154018082558091505060019003906000526020600020016000909192909192909192909192509182611292929190615ac1565b503373ffffffffffffffffffffffffffffffffffffffff167f48bc22b3eab0c993cd29049a8e0a06fa00e13ec87407c1eabd56c3100205d6ad84846040516112db929190615e7b565b60405180910390a2505050565b6112f0614222565b6000600b84846040516113049291906157b3565b9081526020016040518091039020600001805461132090615530565b905011611362576040517f08c379a000000000000000000000000000000000000000000000000000000000815260040161135990615eeb565b60405180910390fd5b600b83836040516113749291906157b3565b90815260200160405180910390206040518060c001604052908160008201805461139d90615530565b80601f01602080910402602001604051908101604052809291908181526020018280546113c990615530565b80156114165780601f106113eb57610100808354040283529160200191611416565b820191906000526020600020905b8154815290600101906020018083116113f957829003601f168201915b5050505050815260200160018201805461142f90615530565b80601f016020809104026020016040519081016040528092919081815260200182805461145b90615530565b80156114a85780601f1061147d576101008083540402835291602001916114a8565b820191906000526020600020905b81548152906001019060200180831161148b57829003601f168201915b505050505081526020016002820160009054906101000a900473ffffffffffffffffffffffffffffffffffffffff1673ffffffffffffffffffffffffffffffffffffffff1673ffffffffffffffffffffffffffffffffffffffff1681526020016002820160149054906101000a900461ffff1661ffff1661ffff16815260200160038201805480602002602001604051908101604052809291908181526020016000905b828210156115f857838290600052602060002001805461156b90615530565b80601f016020809104026020016040519081016040528092919081815260200182805461159790615530565b80156115e45780601f106115b9576101008083540402835291602001916115e4565b820191906000526020600020905b8154815290600101906020018083116115c757829003601f168201915b50505050508152602001906001019061154c565b5050505081526020016004820180548060200260200160405190810160405280929190818152602001828054801561168557602002820191906000526020600020905b8160009054906101000a900473ffffffffffffffffffffffffffffffffffffffff1673ffffffffffffffffffffffffffffffffffffffff168152602001906001019080831161163b575b505050505081525050905092915050565b600960003373ffffffffffffffffffffffffffffffffffffffff1673ffffffffffffffffffffffffffffffffffffffff16815260200190815260200160002060070160009054906101000a900460ff16611725576040517f08c379a000000000000000000000000000000000000000000000000000000000815260040161171c90615c4b565b60405180910390fd5b8181600960003373ffffffffffffffffffffffffffffffffffffffff1673ffffffffffffffffffffffffffffffffffffffff1681526020019081526020016000206005019182611776929190615ac1565b505050565b600960003373ffffffffffffffffffffffffffffffffffffffff1673ffffffffffffffffffffffffffffffffffffffff16815260200190815260200160002060070160009054906101000a900460ff1661180a576040517f08c379a000000000000000000000000000000000000000000000000000000000815260040161180190615c4b565b60405180910390fd5b6000600a838360405161181e9291906157b3565b9081526020016040518091039020600001805461183a90615530565b90501161187c576040517f08c379a000000000000000000000000000000000000000000000000000000000815260040161187390615f57565b60405180910390fd5b6000600b85856040516118909291906157b3565b908152602001604051809103902060000180546118ac90615530565b9050146118ee576040517f08c379a00000000000000000000000000000000000000000000000000000000081526004016118e590615fc3565b60405180910390fd5b6000600b85856040516119029291906157b3565b908152602001604051809103902090508484826000019182611925929190615ac1565b508282826001019182611939929190615ac1565b506008600081819054906101000a900461ffff1661195690615fe3565b91906101000a81548161ffff021916908361ffff16021790558160020160146101000a81548161ffff021916908361ffff160217905550338160020160006101000a81548173ffffffffffffffffffffffffffffffffffffffff021916908373ffffffffffffffffffffffffffffffffffffffff16021790555080600401339080600181540180825580915050600190039060005260206000200160009091909190916101000a81548173ffffffffffffffffffffffffffffffffffffffff021916908373ffffffffffffffffffffffffffffffffffffffff160217905550600f858590918060018154018082558091505060019003906000526020600020016000909192909192909192909192509182611a72929190615ac1565b50600960003373ffffffffffffffffffffffffffffffffffffffff1673ffffffffffffffffffffffffffffffffffffffff168152602001908152602001600020600801858590918060018154018082558091505060019003906000526020600020016000909192909192909192909192509182611af0929190615ac1565b503373ffffffffffffffffffffffffffffffffffffffff168585604051611b189291906157b3565b60405180910390207ff085966e5f5bdaddeb4826a76affe2e722a984e4136d44f6576256c9d01761a88585600860009054906101000a900461ffff16604051611b6393929190615bcd565b60405180910390a35050505050565b6000806002600084815260200190815260200160002060009054906101000a900473ffffffffffffffffffffffffffffffffffffffff169050600073ffffffffffffffffffffffffffffffffffffffff168173ffffffffffffffffffffffffffffffffffffffff1603611c1a576040517f08c379a0000000000000000000000000000000000000000000000000000000008152600401611c119061607f565b60405180910390fd5b80915050919050565b600960003373ffffffffffffffffffffffffffffffffffffffff1673ffffffffffffffffffffffffffffffffffffffff16815260200190815260200160002060070160009054906101000a900460ff1615611cb3576040517f08c379a0000000000000000000000000000000000000000000000000000000008152600401611caa906160eb565b60405180910390fd5b6000600960003373ffffffffffffffffffffffffffffffffffffffff1673ffffffffffffffffffffffffffffffffffffffff168152602001908152602001600020905060018160070160006101000a81548160ff0219169083151502179055508282826000019182611d26929190615ac1565b50600067ffffffffffffffff811115611d4257611d41614866565b5b604051908082528060200260200182016040528015611d7557816020015b6060815260200190600190039081611d605790505b50816001019080519060200190611d8d929190614272565b50600067ffffffffffffffff811115611da957611da8614866565b5b604051908082528060200260200182016040528015611ddc57816020015b6060815260200190600190039081611dc75790505b50816002019080519060200190611df4929190614272565b50600067ffffffffffffffff811115611e1057611e0f614866565b5b604051908082528060200260200182016040528015611e4357816020015b6060815260200190600190039081611e2e5790505b50816003019080519060200190611e5b929190614272565b50600067ffffffffffffffff811115611e7757611e76614866565b5b604051908082528060200260200182016040528015611ea55781602001602082028036833780820191505090505b50816006019080519060200190611ebd9291906142cb565b50600e339080600181540180825580915050600190039060005260206000200160009091909190916101000a81548173ffffffffffffffffffffffffffffffffffffffff021916908373ffffffffffffffffffffffffffffffffffffffff1602179055503373ffffffffffffffffffffffffffffffffffffffff167f48cac28ad4dc618e15f4c2dd5e97751182f166de97b25618318b2112aa951a2f8484604051611f69929190615e7b565b60405180910390a2505050565b60008073ffffffffffffffffffffffffffffffffffffffff168273ffffffffffffffffffffffffffffffffffffffff1603611fe6576040517f08c379a0000000000000000000000000000000000000000000000000000000008152600401611fdd9061617d565b60405180910390fd5b600360008373ffffffffffffffffffffffffffffffffffffffff1673ffffffffffffffffffffffffffffffffffffffff168152602001908152602001600020549050919050565b612035614318565b6000600a84846040516120499291906157b3565b9081526020016040518091039020600001805461206590615530565b9050116120a7576040517f08c379a000000000000000000000000000000000000000000000000000000000815260040161209e90615f57565b60405180910390fd5b600a83836040516120b99291906157b3565b90815260200160405180910390206040518060a00160405290816000820180546120e290615530565b80601f016020809104026020016040519081016040528092919081815260200182805461210e90615530565b801561215b5780601f106121305761010080835404028352916020019161215b565b820191906000526020600020905b81548152906001019060200180831161213e57829003601f168201915b5050505050815260200160018201805461217490615530565b80601f01602080910402602001604051908101604052809291908181526020018280546121a090615530565b80156121ed5780601f106121c2576101008083540402835291602001916121ed565b820191906000526020600020905b8154815290600101906020018083116121d057829003601f168201915b5050505050815260200160028201805461220690615530565b80601f016020809104026020016040519081016040528092919081815260200182805461223290615530565b801561227f5780601f106122545761010080835404028352916020019161227f565b820191906000526020600020905b81548152906001019060200180831161226257829003601f168201915b5050505050815260200160038201805461229890615530565b80601f01602080910402602001604051908101604052809291908181526020018280546122c490615530565b80156123115780601f106122e657610100808354040283529160200191612311565b820191906000526020600020905b8154815290600101906020018083116122f457829003601f168201915b505050505081526020016004820160009054906101000a900461ffff1661ffff1661ffff1681525050905092915050565b6060600f805480602002602001604051908101604052809291908181526020016000905b8282101561241257838290600052602060002001805461238590615530565b80601f01602080910402602001604051908101604052809291908181526020018280546123b190615530565b80156123fe5780601f106123d3576101008083540402835291602001916123fe565b820191906000526020600020905b8154815290600101906020018083116123e157829003601f168201915b505050505081526020019060010190612366565b50505050905090565b600960003373ffffffffffffffffffffffffffffffffffffffff1673ffffffffffffffffffffffffffffffffffffffff16815260200190815260200160002060070160009054906101000a900460ff166124aa576040517f08c379a00000000000000000000000000000000000000000000000000000000081526004016124a190615c4b565b60405180910390fd5b600082826040516020016124bf9291906157b3565b6040516020818303038152906040528051906020012090506040516020016124e6906161e9565b60405160208183030381529060405280519060200120810361257c57600960003373ffffffffffffffffffffffffffffffffffffffff1673ffffffffffffffffffffffffffffffffffffffff1681526020019081526020016000206003018490806001815401808255809150506001900390600052602060002001600090919091909150908161257691906159e4565b5061265d565b60405160200161258b9061624a565b60405160208183030381529060405280519060200120810361262157600960003373ffffffffffffffffffffffffffffffffffffffff1673ffffffffffffffffffffffffffffffffffffffff1681526020019081526020016000206002018490806001815401808255809150506001900390600052602060002001600090919091909150908161261b91906159e4565b5061265c565b6040517f08c379a0000000000000000000000000000000000000000000000000000000008152600401612653906162ab565b60405180910390fd5b5b3373ffffffffffffffffffffffffffffffffffffffff167f4b91165a689896f9262f48b04f31915f16a411f35147da8b992addaeaa509b39856040516126a39190614579565b60405180910390a250505050565b6126b961434b565b600960003373ffffffffffffffffffffffffffffffffffffffff1673ffffffffffffffffffffffffffffffffffffffff16815260200190815260200160002060070160009054906101000a900460ff16612748576040517f08c379a000000000000000000000000000000000000000000000000000000000815260040161273f90615c4b565b60405180910390fd5b600960003373ffffffffffffffffffffffffffffffffffffffff1673ffffffffffffffffffffffffffffffffffffffff168152602001908152602001600020604051806101200160405290816000820180546127a390615530565b80601f01602080910402602001604051908101604052809291908181526020018280546127cf90615530565b801561281c5780601f106127f15761010080835404028352916020019161281c565b820191906000526020600020905b8154815290600101906020018083116127ff57829003601f168201915b5050505050815260200160018201805480602002602001604051908101604052809291908181526020016000905b828210156128f657838290600052602060002001805461286990615530565b80601f016020809104026020016040519081016040528092919081815260200182805461289590615530565b80156128e25780601f106128b7576101008083540402835291602001916128e2565b820191906000526020600020905b8154815290600101906020018083116128c557829003601f168201915b50505050508152602001906001019061284a565b50505050815260200160028201805480602002602001604051908101604052809291908181526020016000905b828210156129cf57838290600052602060002001805461294290615530565b80601f016020809104026020016040519081016040528092919081815260200182805461296e90615530565b80156129bb5780601f10612990576101008083540402835291602001916129bb565b820191906000526020600020905b81548152906001019060200180831161299e57829003601f168201915b505050505081526020019060010190612923565b50505050815260200160038201805480602002602001604051908101604052809291908181526020016000905b82821015612aa8578382906000526020600020018054612a1b90615530565b80601f0160208091040260200160405190810160405280929190818152602001828054612a4790615530565b8015612a945780601f10612a6957610100808354040283529160200191612a94565b820191906000526020600020905b815481529060010190602001808311612a7757829003601f168201915b5050505050815260200190600101906129fc565b50505050815260200160048201805480602002602001604051908101604052809291908181526020016000905b82821015612bb95783829060005260206000209060020201604051806040016040529081600082018054612b0890615530565b80601f0160208091040260200160405190810160405280929190818152602001828054612b3490615530565b8015612b815780601f10612b5657610100808354040283529160200191612b81565b820191906000526020600020905b815481529060010190602001808311612b6457829003601f168201915b505050505081526020016001820160009054906101000a900461ffff1661ffff1661ffff168152505081526020019060010190612ad5565b505050508152602001600582018054612bd190615530565b80601f0160208091040260200160405190810160405280929190818152602001828054612bfd90615530565b8015612c4a5780601f10612c1f57610100808354040283529160200191612c4a565b820191906000526020600020905b815481529060010190602001808311612c2d57829003601f168201915b5050505050815260200160068201805480602002602001604051908101604052809291908181526020018280548015612ca257602002820191906000526020600020905b815481526020019060010190808311612c8e575b505050505081526020016007820160009054906101000a900460ff1615151515815260200160088201805480602002602001604051908101604052809291908181526020016000905b82821015612d97578382906000526020600020018054612d0a90615530565b80601f0160208091040260200160405190810160405280929190818152602001828054612d3690615530565b8015612d835780601f10612d5857610100808354040283529160200191612d83565b820191906000526020600020905b815481529060010190602001808311612d6657829003601f168201915b505050505081526020019060010190612ceb565b5050505081525050905090565b606060018054612db390615530565b80601f0160208091040260200160405190810160405280929190818152602001828054612ddf90615530565b8015612e2c5780601f10612e0157610100808354040283529160200191612e2c565b820191906000526020600020905b815481529060010190602001808311612e0f57829003601f168201915b5050505050905090565b612e48612e416136b2565b8383613cb4565b5050565b6060600d805480602002602001604051908101604052809291908181526020016000905b82821015612f1c578382906000526020600020018054612e8f90615530565b80601f0160208091040260200160405190810160405280929190818152602001828054612ebb90615530565b8015612f085780601f10612edd57610100808354040283529160200191612f08565b820191906000526020600020905b815481529060010190602001808311612eeb57829003601f168201915b505050505081526020019060010190612e70565b50505050905090565b600960003373ffffffffffffffffffffffffffffffffffffffff1673ffffffffffffffffffffffffffffffffffffffff16815260200190815260200160002060070160009054906101000a900460ff16612fb4576040517f08c379a0000000000000000000000000000000000000000000000000000000008152600401612fab90615c4b565b60405180910390fd5b600960003373ffffffffffffffffffffffffffffffffffffffff1673ffffffffffffffffffffffffffffffffffffffff168152602001908152602001600020600101828290918060018154018082558091505060019003906000526020600020016000909192909192909192909192509182613031929190615ac1565b503373ffffffffffffffffffffffffffffffffffffffff167f9dc5c994cee1ffa2e2c3fc4d4d0d9e24511eb0ceef3efe59ff6f57eda374bb27838360405161307a929190615e7b565b60405180910390a25050565b600960003373ffffffffffffffffffffffffffffffffffffffff1673ffffffffffffffffffffffffffffffffffffffff16815260200190815260200160002060070160009054906101000a900460ff16613115576040517f08c379a000000000000000000000000000000000000000000000000000000000815260040161310c90615c4b565b60405180910390fd5b6000600a83836040516131299291906157b3565b9081526020016040518091039020600001805461314590615530565b905011613187576040517f08c379a000000000000000000000000000000000000000000000000000000000815260040161317e90615f57565b60405180910390fd5b633b9aca00600a838360405161319e9291906157b3565b908152602001604051809103902060040160009054906101000a900461ffff1661ffff166131cc91906162db565b63ffffffff16341015613214576040517f08c379a000000000000000000000000000000000000000000000000000000000815260040161320b90616364565b60405180910390fd5b600960003373ffffffffffffffffffffffffffffffffffffffff1673ffffffffffffffffffffffffffffffffffffffff168152602001908152602001600020600401604051806040016040528084848080601f016020809104026020016040519081016040528093929190818152602001838380828437600081840152601f19601f8201169050808301925050505050505081526020016008600081819054906101000a900461ffff166132c790615fe3565b91906101000a81548161ffff021916908361ffff160217905561ffff168152509080600181540180825580915050600190039060005260206000209060020201600090919091909150600082015181600001908161332591906159e4565b5060208201518160010160006101000a81548161ffff021916908361ffff16021790555050503373ffffffffffffffffffffffffffffffffffffffff167f4aa5059bbf6ae1de63bcd4cacec483049be0f12780453958e246d0c34d87c8448383600860009054906101000a900461ffff166040516133a593929190615bcd565b60405180910390a25050565b6133c26133bc6136b2565b83613970565b613401576040517f08c379a00000000000000000000000000000000000000000000000000000000081526004016133f890615cdd565b60405180910390fd5b61340d84848484613e20565b50505050565b606061341e82613646565b61345d576040517f08c379a0000000000000000000000000000000000000000000000000000000008152600401613454906163f6565b60405180910390fd5b6000613467613e7c565b9050600081511161348757604051806020016040528060008152506134b2565b8061349184613f0e565b6040516020016134a2929190616447565b6040516020818303038152906040525b915050919050565b6060600e80548060200260200160405190810160405280929190818152602001828054801561353e57602002820191906000526020600020905b8160009054906101000a900473ffffffffffffffffffffffffffffffffffffffff1673ffffffffffffffffffffffffffffffffffffffff16815260200190600101908083116134f4575b5050505050905090565b6000600560008473ffffffffffffffffffffffffffffffffffffffff1673ffffffffffffffffffffffffffffffffffffffff16815260200190815260200160002060008373ffffffffffffffffffffffffffffffffffffffff1673ffffffffffffffffffffffffffffffffffffffff16815260200190815260200160002060009054906101000a900460ff16905092915050565b60007f01ffc9a7000000000000000000000000000000000000000000000000000000007bffffffffffffffffffffffffffffffffffffffffffffffffffffffff1916827bffffffffffffffffffffffffffffffffffffffffffffffffffffffff1916149050919050565b60008073ffffffffffffffffffffffffffffffffffffffff166002600084815260200190815260200160002060009054906101000a900473ffffffffffffffffffffffffffffffffffffffff1673ffffffffffffffffffffffffffffffffffffffff1614159050919050565b600033905090565b816004600083815260200190815260200160002060006101000a81548173ffffffffffffffffffffffffffffffffffffffff021916908373ffffffffffffffffffffffffffffffffffffffff160217905550808273ffffffffffffffffffffffffffffffffffffffff1661372d83611b72565b73ffffffffffffffffffffffffffffffffffffffff167f8c5be1e5ebec7d5bd14f71427d1e84f3dd0314c0f7b2291e5b200ac8c7c3b92560405160405180910390a45050565b600081600001549050919050565b6001816000016000828254019250508190555050565b600073ffffffffffffffffffffffffffffffffffffffff168273ffffffffffffffffffffffffffffffffffffffff1603613806576040517f08c379a00000000000000000000000000000000000000000000000000000000081526004016137fd906164b7565b60405180910390fd5b61380f81613646565b1561384f576040517f08c379a000000000000000000000000000000000000000000000000000000000815260040161384690616523565b60405180910390fd5b61385b6000838361406e565b6001600360008473ffffffffffffffffffffffffffffffffffffffff1673ffffffffffffffffffffffffffffffffffffffff16815260200190815260200160002060008282546138ab9190616543565b92505081905550816002600083815260200190815260200160002060006101000a81548173ffffffffffffffffffffffffffffffffffffffff021916908373ffffffffffffffffffffffffffffffffffffffff160217905550808273ffffffffffffffffffffffffffffffffffffffff16600073ffffffffffffffffffffffffffffffffffffffff167fddf252ad1be2c89b69c2b068fc378daa952ba7f163c4a11628f55a4df523b3ef60405160405180910390a461396c60008383614073565b5050565b600061397b82613646565b6139ba576040517f08c379a00000000000000000000000000000000000000000000000000000000081526004016139b1906165e9565b60405180910390fd5b60006139c583611b72565b90508073ffffffffffffffffffffffffffffffffffffffff168473ffffffffffffffffffffffffffffffffffffffff161480613a075750613a068185613548565b5b80613a4557508373ffffffffffffffffffffffffffffffffffffffff16613a2d846108a7565b73ffffffffffffffffffffffffffffffffffffffff16145b91505092915050565b8273ffffffffffffffffffffffffffffffffffffffff16613a6e82611b72565b73ffffffffffffffffffffffffffffffffffffffff1614613ac4576040517f08c379a0000000000000000000000000000000000000000000000000000000008152600401613abb9061667b565b60405180910390fd5b600073ffffffffffffffffffffffffffffffffffffffff168273ffffffffffffffffffffffffffffffffffffffff1603613b33576040517f08c379a0000000000000000000000000000000000000000000000000000000008152600401613b2a9061670d565b60405180910390fd5b613b3e83838361406e565b613b496000826136ba565b6001600360008573ffffffffffffffffffffffffffffffffffffffff1673ffffffffffffffffffffffffffffffffffffffff1681526020019081526020016000206000828254613b99919061672d565b925050819055506001600360008473ffffffffffffffffffffffffffffffffffffffff1673ffffffffffffffffffffffffffffffffffffffff1681526020019081526020016000206000828254613bf09190616543565b92505081905550816002600083815260200190815260200160002060006101000a81548173ffffffffffffffffffffffffffffffffffffffff021916908373ffffffffffffffffffffffffffffffffffffffff160217905550808273ffffffffffffffffffffffffffffffffffffffff168473ffffffffffffffffffffffffffffffffffffffff167fddf252ad1be2c89b69c2b068fc378daa952ba7f163c4a11628f55a4df523b3ef60405160405180910390a4613caf838383614073565b505050565b8173ffffffffffffffffffffffffffffffffffffffff168373ffffffffffffffffffffffffffffffffffffffff1603613d22576040517f08c379a0000000000000000000000000000000000000000000000000000000008152600401613d19906167ad565b60405180910390fd5b80600560008573ffffffffffffffffffffffffffffffffffffffff1673ffffffffffffffffffffffffffffffffffffffff16815260200190815260200160002060008473ffffffffffffffffffffffffffffffffffffffff1673ffffffffffffffffffffffffffffffffffffffff16815260200190815260200160002060006101000a81548160ff0219169083151502179055508173ffffffffffffffffffffffffffffffffffffffff168373ffffffffffffffffffffffffffffffffffffffff167f17307eab39ab6107e8899845ad3d59bd9653f200f220920489ca2b5937696c3183604051613e1391906144ce565b60405180910390a3505050565b613e2b848484613a4e565b613e3784848484614078565b613e76576040517f08c379a0000000000000000000000000000000000000000000000000000000008152600401613e6d9061683f565b60405180910390fd5b50505050565b606060078054613e8b90615530565b80601f0160208091040260200160405190810160405280929190818152602001828054613eb790615530565b8015613f045780601f10613ed957610100808354040283529160200191613f04565b820191906000526020600020905b815481529060010190602001808311613ee757829003601f168201915b5050505050905090565b606060008203613f55576040518060400160405280600181526020017f30000000000000000000000000000000000000000000000000000000000000008152509050614069565b600082905060005b60008214613f87578080613f7090615e33565b915050600a82613f80919061688e565b9150613f5d565b60008167ffffffffffffffff811115613fa357613fa2614866565b5b6040519080825280601f01601f191660200182016040528015613fd55781602001600182028036833780820191505090505b5090505b6000851461406257600182613fee919061672d565b9150600a85613ffd91906168bf565b60306140099190616543565b60f81b81838151811061401f5761401e615d69565b5b60200101907effffffffffffffffffffffffffffffffffffffffffffffffffffffffffffff1916908160001a905350600a8561405b919061688e565b9450613fd9565b8093505050505b919050565b505050565b505050565b60006140998473ffffffffffffffffffffffffffffffffffffffff166141ff565b156141f2578373ffffffffffffffffffffffffffffffffffffffff1663150b7a026140c26136b2565b8786866040518563ffffffff1660e01b81526004016140e49493929190616945565b6020604051808303816000875af192505050801561412057506040513d601f19601f8201168201806040525081019061411d91906169a6565b60015b6141a2573d8060008114614150576040519150601f19603f3d011682016040523d82523d6000602084013e614155565b606091505b50600081510361419a576040517f08c379a00000000000000000000000000000000000000000000000000000000081526004016141919061683f565b60405180910390fd5b805181602001fd5b63150b7a0260e01b7bffffffffffffffffffffffffffffffffffffffffffffffffffffffff1916817bffffffffffffffffffffffffffffffffffffffffffffffffffffffff1916149150506141f7565b600190505b949350505050565b6000808273ffffffffffffffffffffffffffffffffffffffff163b119050919050565b6040518060c001604052806060815260200160608152602001600073ffffffffffffffffffffffffffffffffffffffff168152602001600061ffff16815260200160608152602001606081525090565b8280548282559060005260206000209081019282156142ba579160200282015b828111156142b95782518290816142a991906159e4565b5091602001919060010190614292565b5b5090506142c79190614399565b5090565b828054828255906000526020600020908101928215614307579160200282015b828111156143065782518255916020019190600101906142eb565b5b50905061431491906143bd565b5090565b6040518060a0016040528060608152602001606081526020016060815260200160608152602001600061ffff1681525090565b60405180610120016040528060608152602001606081526020016060815260200160608152602001606081526020016060815260200160608152602001600015158152602001606081525090565b5b808211156143b957600081816143b091906143da565b5060010161439a565b5090565b5b808211156143d65760008160009055506001016143be565b5090565b5080546143e690615530565b6000825580601f106143f85750614417565b601f01602090049060005260206000209081019061441691906143bd565b5b50565b6000604051905090565b600080fd5b600080fd5b60007fffffffff0000000000000000000000000000000000000000000000000000000082169050919050565b6144638161442e565b811461446e57600080fd5b50565b6000813590506144808161445a565b92915050565b60006020828403121561449c5761449b614424565b5b60006144aa84828501614471565b91505092915050565b60008115159050919050565b6144c8816144b3565b82525050565b60006020820190506144e360008301846144bf565b92915050565b600081519050919050565b600082825260208201905092915050565b60005b83811015614523578082015181840152602081019050614508565b60008484015250505050565b6000601f19601f8301169050919050565b600061454b826144e9565b61455581856144f4565b9350614565818560208601614505565b61456e8161452f565b840191505092915050565b600060208201905081810360008301526145938184614540565b905092915050565b6000819050919050565b6145ae8161459b565b81146145b957600080fd5b50565b6000813590506145cb816145a5565b92915050565b6000602082840312156145e7576145e6614424565b5b60006145f5848285016145bc565b91505092915050565b600073ffffffffffffffffffffffffffffffffffffffff82169050919050565b6000614629826145fe565b9050919050565b6146398161461e565b82525050565b60006020820190506146546000830184614630565b92915050565b6146638161461e565b811461466e57600080fd5b50565b6000813590506146808161465a565b92915050565b6000806040838503121561469d5761469c614424565b5b60006146ab85828601614671565b92505060206146bc858286016145bc565b9150509250929050565b600080fd5b600080fd5b600080fd5b60008083601f8401126146eb576146ea6146c6565b5b8235905067ffffffffffffffff811115614708576147076146cb565b5b602083019150836001820283011115614724576147236146d0565b5b9250929050565b600061ffff82169050919050565b6147428161472b565b811461474d57600080fd5b50565b60008135905061475f81614739565b92915050565b600080600080600080600080600060a08a8c03121561478757614786614424565b5b60008a013567ffffffffffffffff8111156147a5576147a4614429565b5b6147b18c828d016146d5565b995099505060208a013567ffffffffffffffff8111156147d4576147d3614429565b5b6147e08c828d016146d5565b975097505060408a013567ffffffffffffffff81111561480357614802614429565b5b61480f8c828d016146d5565b955095505060608a013567ffffffffffffffff81111561483257614831614429565b5b61483e8c828d016146d5565b935093505060806148518c828d01614750565b9150509295985092959850929598565b600080fd5b7f4e487b7100000000000000000000000000000000000000000000000000000000600052604160045260246000fd5b61489e8261452f565b810181811067ffffffffffffffff821117156148bd576148bc614866565b5b80604052505050565b60006148d061441a565b90506148dc8282614895565b919050565b600067ffffffffffffffff8211156148fc576148fb614866565b5b6149058261452f565b9050602081019050919050565b82818337600083830152505050565b600061493461492f846148e1565b6148c6565b9050828152602081018484840111156149505761494f614861565b5b61495b848285614912565b509392505050565b600082601f830112614978576149776146c6565b5b8135614988848260208601614921565b91505092915050565b6000602082840312156149a7576149a6614424565b5b600082013567ffffffffffffffff8111156149c5576149c4614429565b5b6149d184828501614963565b91505092915050565b6149e38161459b565b82525050565b60006020820190506149fe60008301846149da565b92915050565b600080600060608486031215614a1d57614a1c614424565b5b6000614a2b86828701614671565b9350506020614a3c86828701614671565b9250506040614a4d868287016145bc565b9150509250925092565b60008060208385031215614a6e57614a6d614424565b5b600083013567ffffffffffffffff811115614a8c57614a8b614429565b5b614a98858286016146d5565b92509250509250929050565b600082825260208201905092915050565b6000614ac0826144e9565b614aca8185614aa4565b9350614ada818560208601614505565b614ae38161452f565b840191505092915050565b614af78161461e565b82525050565b614b068161472b565b82525050565b600081519050919050565b600082825260208201905092915050565b6000819050602082019050919050565b6000614b448383614ab5565b905092915050565b6000602082019050919050565b6000614b6482614b0c565b614b6e8185614b17565b935083602082028501614b8085614b28565b8060005b85811015614bbc5784840389528151614b9d8582614b38565b9450614ba883614b4c565b925060208a01995050600181019050614b84565b50829750879550505050505092915050565b600081519050919050565b600082825260208201905092915050565b6000819050602082019050919050565b6000614c068383614aee565b60208301905092915050565b6000602082019050919050565b6000614c2a82614bce565b614c348185614bd9565b9350614c3f83614bea565b8060005b83811015614c70578151614c578882614bfa565b9750614c6283614c12565b925050600181019050614c43565b5085935050505092915050565b600060c0830160008301518482036000860152614c9a8282614ab5565b91505060208301518482036020860152614cb48282614ab5565b9150506040830151614cc96040860182614aee565b506060830151614cdc6060860182614afd565b5060808301518482036080860152614cf48282614b59565b91505060a083015184820360a0860152614d0e8282614c1f565b9150508091505092915050565b60006020820190508181036000830152614d358184614c7d565b905092915050565b60008060008060408587031215614d5757614d56614424565b5b600085013567ffffffffffffffff811115614d7557614d74614429565b5b614d81878288016146d5565b9450945050602085013567ffffffffffffffff811115614da457614da3614429565b5b614db0878288016146d5565b925092505092959194509250565b600060208284031215614dd457614dd3614424565b5b6000614de284828501614671565b91505092915050565b600060a0830160008301518482036000860152614e088282614ab5565b91505060208301518482036020860152614e228282614ab5565b91505060408301518482036040860152614e3c8282614ab5565b91505060608301518482036060860152614e568282614ab5565b9150506080830151614e6b6080860182614afd565b508091505092915050565b60006020820190508181036000830152614e908184614deb565b905092915050565b600082825260208201905092915050565b6000614eb482614b0c565b614ebe8185614e98565b935083602082028501614ed085614b28565b8060005b85811015614f0c5784840389528151614eed8582614b38565b9450614ef883614b4c565b925060208a01995050600181019050614ed4565b50829750879550505050505092915050565b60006020820190508181036000830152614f388184614ea9565b905092915050565b600080600060408486031215614f5957614f58614424565b5b600084013567ffffffffffffffff811115614f7757614f76614429565b5b614f8386828701614963565b935050602084013567ffffffffffffffff811115614fa457614fa3614429565b5b614fb0868287016146d5565b92509250509250925092565b600081519050919050565b600082825260208201905092915050565b6000819050602082019050919050565b600060408301600083015184820360008601526150058282614ab5565b915050602083015161501a6020860182614afd565b508091505092915050565b60006150318383614fe8565b905092915050565b6000602082019050919050565b600061505182614fbc565b61505b8185614fc7565b93508360208202850161506d85614fd8565b8060005b858110156150a9578484038952815161508a8582615025565b945061509583615039565b925060208a01995050600181019050615071565b50829750879550505050505092915050565b600081519050919050565b600082825260208201905092915050565b6000819050602082019050919050565b6150f08161459b565b82525050565b600061510283836150e7565b60208301905092915050565b6000602082019050919050565b6000615126826150bb565b61513081856150c6565b935061513b836150d7565b8060005b8381101561516c57815161515388826150f6565b975061515e8361510e565b92505060018101905061513f565b5085935050505092915050565b615182816144b3565b82525050565b60006101208301600083015184820360008601526151a68282614ab5565b915050602083015184820360208601526151c08282614b59565b915050604083015184820360408601526151da8282614b59565b915050606083015184820360608601526151f48282614b59565b9150506080830151848203608086015261520e8282615046565b91505060a083015184820360a08601526152288282614ab5565b91505060c083015184820360c0860152615242828261511b565b91505060e083015161525760e0860182615179565b506101008301518482036101008601526152718282614b59565b9150508091505092915050565b600060208201905081810360008301526152988184615188565b905092915050565b6152a9816144b3565b81146152b457600080fd5b50565b6000813590506152c6816152a0565b92915050565b600080604083850312156152e3576152e2614424565b5b60006152f185828601614671565b9250506020615302858286016152b7565b9150509250929050565b600067ffffffffffffffff82111561532757615326614866565b5b6153308261452f565b9050602081019050919050565b600061535061534b8461530c565b6148c6565b90508281526020810184848401111561536c5761536b614861565b5b615377848285614912565b509392505050565b600082601f830112615394576153936146c6565b5b81356153a484826020860161533d565b91505092915050565b600080600080608085870312156153c7576153c6614424565b5b60006153d587828801614671565b94505060206153e687828801614671565b93505060406153f7878288016145bc565b925050606085013567ffffffffffffffff81111561541857615417614429565b5b6154248782880161537f565b91505092959194509250565b600082825260208201905092915050565b600061544c82614bce565b6154568185615430565b935061546183614bea565b8060005b838110156154925781516154798882614bfa565b975061548483614c12565b925050600181019050615465565b5085935050505092915050565b600060208201905081810360008301526154b98184615441565b905092915050565b600080604083850312156154d8576154d7614424565b5b60006154e685828601614671565b92505060206154f785828601614671565b9150509250929050565b7f4e487b7100000000000000000000000000000000000000000000000000000000600052602260045260246000fd5b6000600282049050600182168061554857607f821691505b60208210810361555b5761555a615501565b5b50919050565b7f4552433732313a20617070726f76656420717565727920666f72206e6f6e657860008201527f697374656e7420746f6b656e0000000000000000000000000000000000000000602082015250565b60006155bd602c836144f4565b91506155c882615561565b604082019050919050565b600060208201905081810360008301526155ec816155b0565b9050919050565b7f4552433732313a20617070726f76616c20746f2063757272656e74206f776e6560008201527f7200000000000000000000000000000000000000000000000000000000000000602082015250565b600061564f6021836144f4565b915061565a826155f3565b604082019050919050565b6000602082019050818103600083015261567e81615642565b9050919050565b7f4552433732313a20617070726f76652063616c6c6572206973206e6f74206f7760008201527f6e6572206e6f7220617070726f76656420666f7220616c6c0000000000000000602082015250565b60006156e16038836144f4565b91506156ec82615685565b604082019050919050565b60006020820190508181036000830152615710816156d4565b9050919050565b7f426f74206e616d652063616e6e6f7420626520656d7074792100000000000000600082015250565b600061574d6019836144f4565b915061575882615717565b602082019050919050565b6000602082019050818103600083015261577c81615740565b9050919050565b600081905092915050565b600061579a8385615783565b93506157a7838584614912565b82840190509392505050565b60006157c082848661578e565b91508190509392505050565b7f426f7420616c7265616479206578697374732100000000000000000000000000600082015250565b60006158026013836144f4565b915061580d826157cc565b602082019050919050565b60006020820190508181036000830152615831816157f5565b9050919050565b60008190508160005260206000209050919050565b60006020601f8301049050919050565b600082821b905092915050565b60006008830261589a7fffffffffffffffffffffffffffffffffffffffffffffffffffffffffffffffff8261585d565b6158a4868361585d565b95508019841693508086168417925050509392505050565b6000819050919050565b60006158e16158dc6158d78461459b565b6158bc565b61459b565b9050919050565b6000819050919050565b6158fb836158c6565b61590f615907826158e8565b84845461586a565b825550505050565b600090565b615924615917565b61592f8184846158f2565b505050565b5b818110156159535761594860008261591c565b600181019050615935565b5050565b601f8211156159985761596981615838565b6159728461584d565b81016020851015615981578190505b61599561598d8561584d565b830182615934565b50505b505050565b600082821c905092915050565b60006159bb6000198460080261599d565b1980831691505092915050565b60006159d483836159aa565b9150826002028217905092915050565b6159ed826144e9565b67ffffffffffffffff811115615a0657615a05614866565b5b615a108254615530565b615a1b828285615957565b600060209050601f831160018114615a4e5760008415615a3c578287015190505b615a4685826159c8565b865550615aae565b601f198416615a5c86615838565b60005b82811015615a8457848901518255600182019150602085019450602081019050615a5f565b86831015615aa15784890151615a9d601f8916826159aa565b8355505b6001600288020188555050505b505050505050565b600082905092915050565b615acb8383615ab6565b67ffffffffffffffff811115615ae457615ae3614866565b5b615aee8254615530565b615af9828285615957565b6000601f831160018114615b285760008415615b16578287013590505b615b2085826159c8565b865550615b88565b601f198416615b3686615838565b60005b82811015615b5e57848901358255600182019150602085019450602081019050615b39565b86831015615b7b5784890135615b77601f8916826159aa565b8355505b6001600288020188555050505b50505050505050565b6000615b9d83856144f4565b9350615baa838584614912565b615bb38361452f565b840190509392505050565b615bc78161472b565b82525050565b60006040820190508181036000830152615be8818587615b91565b9050615bf76020830184615bbe565b949350505050565b7f4e6f742072656769737465726564000000000000000000000000000000000000600082015250565b6000615c35600e836144f4565b9150615c4082615bff565b602082019050919050565b60006020820190508181036000830152615c6481615c28565b9050919050565b7f4552433732313a207472616e736665722063616c6c6572206973206e6f74206f60008201527f776e6572206e6f7220617070726f766564000000000000000000000000000000602082015250565b6000615cc76031836144f4565b9150615cd282615c6b565b604082019050919050565b60006020820190508181036000830152615cf681615cba565b9050919050565b7f436f6d6d756e69747920726f6f6d20646f6573206e6f74206578697374210000600082015250565b6000615d33601e836144f4565b9150615d3e82615cfd565b602082019050919050565b60006020820190508181036000830152615d6281615d26565b9050919050565b7f4e487b7100000000000000000000000000000000000000000000000000000000600052603260045260246000fd5b7f416c72656164792061206d656d62657221000000000000000000000000000000600082015250565b6000615dce6011836144f4565b9150615dd982615d98565b602082019050919050565b60006020820190508181036000830152615dfd81615dc1565b9050919050565b7f4e487b7100000000000000000000000000000000000000000000000000000000600052601160045260246000fd5b6000615e3e8261459b565b91507fffffffffffffffffffffffffffffffffffffffffffffffffffffffffffffffff8203615e7057615e6f615e04565b5b600182019050919050565b60006020820190508181036000830152615e96818486615b91565b90509392505050565b7f436f6d6d756e69747920646f6573206e6f742065786973742100000000000000600082015250565b6000615ed56019836144f4565b9150615ee082615e9f565b602082019050919050565b60006020820190508181036000830152615f0481615ec8565b9050919050565b7f426f7420646f6573206e6f742065786973742100000000000000000000000000600082015250565b6000615f416013836144f4565b9150615f4c82615f0b565b602082019050919050565b60006020820190508181036000830152615f7081615f34565b9050919050565b7f436f6d6d756e69747920616c7265616479206578697374732100000000000000600082015250565b6000615fad6019836144f4565b9150615fb882615f77565b602082019050919050565b60006020820190508181036000830152615fdc81615fa0565b9050919050565b6000615fee8261472b565b915061ffff820361600257616001615e04565b5b600182019050919050565b7f4552433732313a206f776e657220717565727920666f72206e6f6e657869737460008201527f656e7420746f6b656e0000000000000000000000000000000000000000000000602082015250565b60006160696029836144f4565b91506160748261600d565b604082019050919050565b600060208201905081810360008301526160988161605c565b9050919050565b7f5573657220616c72656164792072656769737465726564210000000000000000600082015250565b60006160d56018836144f4565b91506160e08261609f565b602082019050919050565b60006020820190508181036000830152616104816160c8565b9050919050565b7f4552433732313a2062616c616e636520717565727920666f7220746865207a6560008201527f726f206164647265737300000000000000000000000000000000000000000000602082015250565b6000616167602a836144f4565b91506161728261610b565b604082019050919050565b600060208201905081810360008301526161968161615a565b9050919050565b7f6e7574726974696f6e0000000000000000000000000000000000000000000000600082015250565b60006161d3600983615783565b91506161de8261619d565b600982019050919050565b60006161f4826161c6565b9150819050919050565b7f73706f7274000000000000000000000000000000000000000000000000000000600082015250565b6000616234600583615783565b915061623f826161fe565b600582019050919050565b600061625582616227565b9150819050919050565b7f496e76616c696420676f616c2074797065000000000000000000000000000000600082015250565b60006162956011836144f4565b91506162a08261625f565b602082019050919050565b600060208201905081810360008301526162c481616288565b9050919050565b600063ffffffff82169050919050565b60006162e6826162cb565b91506162f1836162cb565b92508282026162ff816162cb565b915080821461631157616310615e04565b5b5092915050565b7f496e73756666696369656e74207061796d656e74000000000000000000000000600082015250565b600061634e6014836144f4565b915061635982616318565b602082019050919050565b6000602082019050818103600083015261637d81616341565b9050919050565b7f4552433732314d657461646174613a2055524920717565727920666f72206e6f60008201527f6e6578697374656e7420746f6b656e0000000000000000000000000000000000602082015250565b60006163e0602f836144f4565b91506163eb82616384565b604082019050919050565b6000602082019050818103600083015261640f816163d3565b9050919050565b6000616421826144e9565b61642b8185615783565b935061643b818560208601614505565b80840191505092915050565b60006164538285616416565b915061645f8284616416565b91508190509392505050565b7f4552433732313a206d696e7420746f20746865207a65726f2061646472657373600082015250565b60006164a16020836144f4565b91506164ac8261646b565b602082019050919050565b600060208201905081810360008301526164d081616494565b9050919050565b7f4552433732313a20746f6b656e20616c7265616479206d696e74656400000000600082015250565b600061650d601c836144f4565b9150616518826164d7565b602082019050919050565b6000602082019050818103600083015261653c81616500565b9050919050565b600061654e8261459b565b91506165598361459b565b925082820190508082111561657157616570615e04565b5b92915050565b7f4552433732313a206f70657261746f7220717565727920666f72206e6f6e657860008201527f697374656e7420746f6b656e0000000000000000000000000000000000000000602082015250565b60006165d3602c836144f4565b91506165de82616577565b604082019050919050565b60006020820190508181036000830152616602816165c6565b9050919050565b7f4552433732313a207472616e736665722066726f6d20696e636f72726563742060008201527f6f776e6572000000000000000000000000000000000000000000000000000000602082015250565b60006166656025836144f4565b915061667082616609565b604082019050919050565b6000602082019050818103600083015261669481616658565b9050919050565b7f4552433732313a207472616e7366657220746f20746865207a65726f2061646460008201527f7265737300000000000000000000000000000000000000000000000000000000602082015250565b60006166f76024836144f4565b91506167028261669b565b604082019050919050565b60006020820190508181036000830152616726816166ea565b9050919050565b60006167388261459b565b91506167438361459b565b925082820390508181111561675b5761675a615e04565b5b92915050565b7f4552433732313a20617070726f766520746f2063616c6c657200000000000000600082015250565b60006167976019836144f4565b91506167a282616761565b602082019050919050565b600060208201905081810360008301526167c68161678a565b9050919050565b7f4552433732313a207472616e7366657220746f206e6f6e20455243373231526560008201527f63656976657220696d706c656d656e7465720000000000000000000000000000602082015250565b60006168296032836144f4565b9150616834826167cd565b604082019050919050565b600060208201905081810360008301526168588161681c565b9050919050565b7f4e487b7100000000000000000000000000000000000000000000000000000000600052601260045260246000fd5b60006168998261459b565b91506168a48361459b565b9250826168b4576168b361685f565b5b828204905092915050565b60006168ca8261459b565b91506168d58361459b565b9250826168e5576168e461685f565b5b828206905092915050565b600081519050919050565b600082825260208201905092915050565b6000616917826168f0565b61692181856168fb565b9350616931818560208601614505565b61693a8161452f565b840191505092915050565b600060808201905061695a6000830187614630565b6169676020830186614630565b61697460408301856149da565b8181036060830152616986818461690c565b905095945050505050565b6000815190506169a08161445a565b92915050565b6000602082840312156169bc576169bb614424565b5b60006169ca84828501616991565b9150509291505056fea26469706673582212204e6033eae37268b847bb03e22e5c6613ced0d9a202991d7a1dbc9030df0c7b7764736f6c63430008140033","opcodes":"PUSH1 0x80 PUSH1 0x40 MSTORE PUSH1 0x0 PUSH1 0x8 PUSH1 0x0 PUSH2 0x100 EXP DUP2 SLOAD DUP2 PUSH2 0xFFFF MUL NOT AND SWAP1 DUP4 PUSH2 0xFFFF AND MUL OR SWAP1 SSTORE POP CALLVALUE DUP1 ISZERO PUSH3 0x2F JUMPI PUSH1 0x0 DUP1 REVERT JUMPDEST POP PUSH1 0x40 MLOAD PUSH3 0x702F CODESIZE SUB DUP1 PUSH3 0x702F DUP4 CODECOPY DUP2 DUP2 ADD PUSH1 0x40 MSTORE DUP2 ADD SWAP1 PUSH3 0x55 SWAP2 SWAP1 PUSH3 0x22B JUMP JUMPDEST DUP3 DUP3 DUP2 PUSH1 0x0 SWAP1 DUP2 PUSH3 0x68 SWAP2 SWAP1 PUSH3 0x52F JUMP JUMPDEST POP DUP1 PUSH1 0x1 SWAP1 DUP2 PUSH3 0x7A SWAP2 SWAP1 PUSH3 0x52F JUMP JUMPDEST POP POP POP DUP1 PUSH1 0x7 SWAP1 DUP2 PUSH3 0x8E SWAP2 SWAP1 PUSH3 0x52F JUMP JUMPDEST POP POP POP POP PUSH3 0x616 JUMP JUMPDEST PUSH1 0x0 PUSH1 0x40 MLOAD SWAP1 POP SWAP1 JUMP JUMPDEST PUSH1 0x0 DUP1 REVERT JUMPDEST PUSH1 0x0 DUP1 REVERT JUMPDEST PUSH1 0x0 DUP1 REVERT JUMPDEST PUSH1 0x0 DUP1 REVERT JUMPDEST PUSH1 0x0 PUSH1 0x1F NOT PUSH1 0x1F DUP4 ADD AND SWAP1 POP SWAP2 SWAP1 POP JUMP JUMPDEST PUSH32 0x4E487B7100000000000000000000000000000000000000000000000000000000 PUSH1 0x0 MSTORE PUSH1 0x41 PUSH1 0x4 MSTORE PUSH1 0x24 PUSH1 0x0 REVERT JUMPDEST PUSH3 0x101 DUP3 PUSH3 0xB6 JUMP JUMPDEST DUP2 ADD DUP2 DUP2 LT PUSH8 0xFFFFFFFFFFFFFFFF DUP3 GT OR ISZERO PUSH3 0x123 JUMPI PUSH3 0x122 PUSH3 0xC7 JUMP JUMPDEST JUMPDEST DUP1 PUSH1 0x40 MSTORE POP POP POP JUMP JUMPDEST PUSH1 0x0 PUSH3 0x138 PUSH3 0x98 JUMP JUMPDEST SWAP1 POP PUSH3 0x146 DUP3 DUP3 PUSH3 0xF6 JUMP JUMPDEST SWAP2 SWAP1 POP JUMP JUMPDEST PUSH1 0x0 PUSH8 0xFFFFFFFFFFFFFFFF DUP3 GT ISZERO PUSH3 0x169 JUMPI PUSH3 0x168 PUSH3 0xC7 JUMP JUMPDEST JUMPDEST PUSH3 0x174 DUP3 PUSH3 0xB6 JUMP JUMPDEST SWAP1 POP PUSH1 0x20 DUP2 ADD SWAP1 POP SWAP2 SWAP1 POP JUMP JUMPDEST PUSH1 0x0 JUMPDEST DUP4 DUP2 LT ISZERO PUSH3 0x1A1 JUMPI DUP1 DUP3 ADD MLOAD DUP2 DUP5 ADD MSTORE PUSH1 0x20 DUP2 ADD SWAP1 POP PUSH3 0x184 JUMP JUMPDEST PUSH1 0x0 DUP5 DUP5 ADD MSTORE POP POP POP POP JUMP JUMPDEST PUSH1 0x0 PUSH3 0x1C4 PUSH3 0x1BE DUP5 PUSH3 0x14B JUMP JUMPDEST PUSH3 0x12C JUMP JUMPDEST SWAP1 POP DUP3 DUP2 MSTORE PUSH1 0x20 DUP2 ADD DUP5 DUP5 DUP5 ADD GT ISZERO PUSH3 0x1E3 JUMPI PUSH3 0x1E2 PUSH3 0xB1 JUMP JUMPDEST JUMPDEST PUSH3 0x1F0 DUP5 DUP3 DUP6 PUSH3 0x181 JUMP JUMPDEST POP SWAP4 SWAP3 POP POP POP JUMP JUMPDEST PUSH1 0x0 DUP3 PUSH1 0x1F DUP4 ADD SLT PUSH3 0x210 JUMPI PUSH3 0x20F PUSH3 0xAC JUMP JUMPDEST JUMPDEST DUP2 MLOAD PUSH3 0x222 DUP5 DUP3 PUSH1 0x20 DUP7 ADD PUSH3 0x1AD JUMP JUMPDEST SWAP2 POP POP SWAP3 SWAP2 POP POP JUMP JUMPDEST PUSH1 0x0 DUP1 PUSH1 0x0 PUSH1 0x60 DUP5 DUP7 SUB SLT ISZERO PUSH3 0x247 JUMPI PUSH3 0x246 PUSH3 0xA2 JUMP JUMPDEST JUMPDEST PUSH1 0x0 DUP5 ADD MLOAD PUSH8 0xFFFFFFFFFFFFFFFF DUP2 GT ISZERO PUSH3 0x268 JUMPI PUSH3 0x267 PUSH3 0xA7 JUMP JUMPDEST JUMPDEST PUSH3 0x276 DUP7 DUP3 DUP8 ADD PUSH3 0x1F8 JUMP JUMPDEST SWAP4 POP POP PUSH1 0x20 DUP5 ADD MLOAD PUSH8 0xFFFFFFFFFFFFFFFF DUP2 GT ISZERO PUSH3 0x29A JUMPI PUSH3 0x299 PUSH3 0xA7 JUMP JUMPDEST JUMPDEST PUSH3 0x2A8 DUP7 DUP3 DUP8 ADD PUSH3 0x1F8 JUMP JUMPDEST SWAP3 POP POP PUSH1 0x40 DUP5 ADD MLOAD PUSH8 0xFFFFFFFFFFFFFFFF DUP2 GT ISZERO PUSH3 0x2CC JUMPI PUSH3 0x2CB PUSH3 0xA7 JUMP JUMPDEST JUMPDEST PUSH3 0x2DA DUP7 DUP3 DUP8 ADD PUSH3 0x1F8 JUMP JUMPDEST SWAP2 POP POP SWAP3 POP SWAP3 POP SWAP3 JUMP JUMPDEST PUSH1 0x0 DUP2 MLOAD SWAP1 POP SWAP2 SWAP1 POP JUMP JUMPDEST PUSH32 0x4E487B7100000000000000000000000000000000000000000000000000000000 PUSH1 0x0 MSTORE PUSH1 0x22 PUSH1 0x4 MSTORE PUSH1 0x24 PUSH1 0x0 REVERT JUMPDEST PUSH1 0x0 PUSH1 0x2 DUP3 DIV SWAP1 POP PUSH1 0x1 DUP3 AND DUP1 PUSH3 0x337 JUMPI PUSH1 0x7F DUP3 AND SWAP2 POP JUMPDEST PUSH1 0x20 DUP3 LT DUP2 SUB PUSH3 0x34D JUMPI PUSH3 0x34C PUSH3 0x2EF JUMP JUMPDEST JUMPDEST POP SWAP2 SWAP1 POP JUMP JUMPDEST PUSH1 0x0 DUP2 SWAP1 POP DUP2 PUSH1 0x0 MSTORE PUSH1 0x20 PUSH1 0x0 KECCAK256 SWAP1 POP SWAP2 SWAP1 POP JUMP JUMPDEST PUSH1 0x0 PUSH1 0x20 PUSH1 0x1F DUP4 ADD DIV SWAP1 POP SWAP2 SWAP1 POP JUMP JUMPDEST PUSH1 0x0 DUP3 DUP3 SHL SWAP1 POP SWAP3 SWAP2 POP POP JUMP JUMPDEST PUSH1 0x0 PUSH1 0x8 DUP4 MUL PUSH3 0x3B7 PUSH32 0xFFFFFFFFFFFFFFFFFFFFFFFFFFFFFFFFFFFFFFFFFFFFFFFFFFFFFFFFFFFFFFFF DUP3 PUSH3 0x378 JUMP JUMPDEST PUSH3 0x3C3 DUP7 DUP4 PUSH3 0x378 JUMP JUMPDEST SWAP6 POP DUP1 NOT DUP5 AND SWAP4 POP DUP1 DUP7 AND DUP5 OR SWAP3 POP POP POP SWAP4 SWAP3 POP POP POP JUMP JUMPDEST PUSH1 0x0 DUP2 SWAP1 POP SWAP2 SWAP1 POP JUMP JUMPDEST PUSH1 0x0 DUP2 SWAP1 POP SWAP2 SWAP1 POP JUMP JUMPDEST PUSH1 0x0 PUSH3 0x410 PUSH3 0x40A PUSH3 0x404 DUP5 PUSH3 0x3DB JUMP JUMPDEST PUSH3 0x3E5 JUMP JUMPDEST PUSH3 0x3DB JUMP JUMPDEST SWAP1 POP SWAP2 SWAP1 POP JUMP JUMPDEST PUSH1 0x0 DUP2 SWAP1 POP SWAP2 SWAP1 POP JUMP JUMPDEST PUSH3 0x42C DUP4 PUSH3 0x3EF JUMP JUMPDEST PUSH3 0x444 PUSH3 0x43B DUP3 PUSH3 0x417 JUMP JUMPDEST DUP5 DUP5 SLOAD PUSH3 0x385 JUMP JUMPDEST DUP3 SSTORE POP POP POP POP JUMP JUMPDEST PUSH1 0x0 SWAP1 JUMP JUMPDEST PUSH3 0x45B PUSH3 0x44C JUMP JUMPDEST PUSH3 0x468 DUP2 DUP5 DUP5 PUSH3 0x421 JUMP JUMPDEST POP POP POP JUMP JUMPDEST JUMPDEST DUP2 DUP2 LT ISZERO PUSH3 0x490 JUMPI PUSH3 0x484 PUSH1 0x0 DUP3 PUSH3 0x451 JUMP JUMPDEST PUSH1 0x1 DUP2 ADD SWAP1 POP PUSH3 0x46E JUMP JUMPDEST POP POP JUMP JUMPDEST PUSH1 0x1F DUP3 GT ISZERO PUSH3 0x4DF JUMPI PUSH3 0x4A9 DUP2 PUSH3 0x353 JUMP JUMPDEST PUSH3 0x4B4 DUP5 PUSH3 0x368 JUMP JUMPDEST DUP2 ADD PUSH1 0x20 DUP6 LT ISZERO PUSH3 0x4C4 JUMPI DUP2 SWAP1 POP JUMPDEST PUSH3 0x4DC PUSH3 0x4D3 DUP6 PUSH3 0x368 JUMP JUMPDEST DUP4 ADD DUP3 PUSH3 0x46D JUMP JUMPDEST POP POP JUMPDEST POP POP POP JUMP JUMPDEST PUSH1 0x0 DUP3 DUP3 SHR SWAP1 POP SWAP3 SWAP2 POP POP JUMP JUMPDEST PUSH1 0x0 PUSH3 0x504 PUSH1 0x0 NOT DUP5 PUSH1 0x8 MUL PUSH3 0x4E4 JUMP JUMPDEST NOT DUP1 DUP4 AND SWAP2 POP POP SWAP3 SWAP2 POP POP JUMP JUMPDEST PUSH1 0x0 PUSH3 0x51F DUP4 DUP4 PUSH3 0x4F1 JUMP JUMPDEST SWAP2 POP DUP3 PUSH1 0x2 MUL DUP3 OR SWAP1 POP SWAP3 SWAP2 POP POP JUMP JUMPDEST PUSH3 0x53A DUP3 PUSH3 0x2E4 JUMP JUMPDEST PUSH8 0xFFFFFFFFFFFFFFFF DUP2 GT ISZERO PUSH3 0x556 JUMPI PUSH3 0x555 PUSH3 0xC7 JUMP JUMPDEST JUMPDEST PUSH3 0x562 DUP3 SLOAD PUSH3 0x31E JUMP JUMPDEST PUSH3 0x56F DUP3 DUP3 DUP6 PUSH3 0x494 JUMP JUMPDEST PUSH1 0x0 PUSH1 0x20 SWAP1 POP PUSH1 0x1F DUP4 GT PUSH1 0x1 DUP2 EQ PUSH3 0x5A7 JUMPI PUSH1 0x0 DUP5 ISZERO PUSH3 0x592 JUMPI DUP3 DUP8 ADD MLOAD SWAP1 POP JUMPDEST PUSH3 0x59E DUP6 DUP3 PUSH3 0x511 JUMP JUMPDEST DUP7 SSTORE POP PUSH3 0x60E JUMP JUMPDEST PUSH1 0x1F NOT DUP5 AND PUSH3 0x5B7 DUP7 PUSH3 0x353 JUMP JUMPDEST PUSH1 0x0 JUMPDEST DUP3 DUP2 LT ISZERO PUSH3 0x5E1 JUMPI DUP5 DUP10 ADD MLOAD DUP3 SSTORE PUSH1 0x1 DUP3 ADD SWAP2 POP PUSH1 0x20 DUP6 ADD SWAP5 POP PUSH1 0x20 DUP2 ADD SWAP1 POP PUSH3 0x5BA JUMP JUMPDEST DUP7 DUP4 LT ISZERO PUSH3 0x601 JUMPI DUP5 DUP10 ADD MLOAD PUSH3 0x5FD PUSH1 0x1F DUP10 AND DUP3 PUSH3 0x4F1 JUMP JUMPDEST DUP4 SSTORE POP JUMPDEST PUSH1 0x1 PUSH1 0x2 DUP9 MUL ADD DUP9 SSTORE POP POP POP JUMPDEST POP POP POP POP POP POP JUMP JUMPDEST PUSH2 0x6A09 DUP1 PUSH3 0x626 PUSH1 0x0 CODECOPY PUSH1 0x0 RETURN INVALID PUSH1 0x80 PUSH1 0x40 MSTORE PUSH1 0x4 CALLDATASIZE LT PUSH2 0x1C2 JUMPI PUSH1 0x0 CALLDATALOAD PUSH1 0xE0 SHR DUP1 PUSH4 0x704F1B94 GT PUSH2 0xF7 JUMPI DUP1 PUSH4 0xA22CB465 GT PUSH2 0x95 JUMPI DUP1 PUSH4 0xB88D4FDE GT PUSH2 0x64 JUMPI DUP1 PUSH4 0xB88D4FDE EQ PUSH2 0x665 JUMPI DUP1 PUSH4 0xC87B56DD EQ PUSH2 0x68E JUMPI DUP1 PUSH4 0xE2842D79 EQ PUSH2 0x6CB JUMPI DUP1 PUSH4 0xE985E9C5 EQ PUSH2 0x6F6 JUMPI PUSH2 0x1C2 JUMP JUMPDEST DUP1 PUSH4 0xA22CB465 EQ PUSH2 0x5CC JUMPI DUP1 PUSH4 0xB028E967 EQ PUSH2 0x5F5 JUMPI DUP1 PUSH4 0xB841E45A EQ PUSH2 0x620 JUMPI DUP1 PUSH4 0xB84F14B7 EQ PUSH2 0x649 JUMPI PUSH2 0x1C2 JUMP JUMPDEST DUP1 PUSH4 0x8272E1D4 GT PUSH2 0xD1 JUMPI DUP1 PUSH4 0x8272E1D4 EQ PUSH2 0x522 JUMPI DUP1 PUSH4 0x9298F424 EQ PUSH2 0x54D JUMPI DUP1 PUSH4 0x942886BE EQ PUSH2 0x576 JUMPI DUP1 PUSH4 0x95D89B41 EQ PUSH2 0x5A1 JUMPI PUSH2 0x1C2 JUMP JUMPDEST DUP1 PUSH4 0x704F1B94 EQ PUSH2 0x47F JUMPI DUP1 PUSH4 0x70A08231 EQ PUSH2 0x4A8 JUMPI DUP1 PUSH4 0x79181EEA EQ PUSH2 0x4E5 JUMPI PUSH2 0x1C2 JUMP JUMPDEST DUP1 PUSH4 0x23B872DD GT PUSH2 0x164 JUMPI DUP1 PUSH4 0x54D9EA15 GT PUSH2 0x13E JUMPI DUP1 PUSH4 0x54D9EA15 EQ PUSH2 0x3B3 JUMPI DUP1 PUSH4 0x610693E7 EQ PUSH2 0x3F0 JUMPI DUP1 PUSH4 0x61A88441 EQ PUSH2 0x419 JUMPI DUP1 PUSH4 0x6352211E EQ PUSH2 0x442 JUMPI PUSH2 0x1C2 JUMP JUMPDEST DUP1 PUSH4 0x23B872DD EQ PUSH2 0x338 JUMPI DUP1 PUSH4 0x42842E0E EQ PUSH2 0x361 JUMPI DUP1 PUSH4 0x43DFC73C EQ PUSH2 0x38A JUMPI PUSH2 0x1C2 JUMP JUMPDEST DUP1 PUSH4 0x95EA7B3 GT PUSH2 0x1A0 JUMPI DUP1 PUSH4 0x95EA7B3 EQ PUSH2 0x26C JUMPI DUP1 PUSH4 0x986F185 EQ PUSH2 0x295 JUMPI DUP1 PUSH4 0xBB78EC1 EQ PUSH2 0x2BE JUMPI DUP1 PUSH4 0x226E4FD5 EQ PUSH2 0x2FB JUMPI PUSH2 0x1C2 JUMP JUMPDEST DUP1 PUSH4 0x1FFC9A7 EQ PUSH2 0x1C7 JUMPI DUP1 PUSH4 0x6FDDE03 EQ PUSH2 0x204 JUMPI DUP1 PUSH4 0x81812FC EQ PUSH2 0x22F JUMPI JUMPDEST PUSH1 0x0 DUP1 REVERT JUMPDEST CALLVALUE DUP1 ISZERO PUSH2 0x1D3 JUMPI PUSH1 0x0 DUP1 REVERT JUMPDEST POP PUSH2 0x1EE PUSH1 0x4 DUP1 CALLDATASIZE SUB DUP2 ADD SWAP1 PUSH2 0x1E9 SWAP2 SWAP1 PUSH2 0x4486 JUMP JUMPDEST PUSH2 0x733 JUMP JUMPDEST PUSH1 0x40 MLOAD PUSH2 0x1FB SWAP2 SWAP1 PUSH2 0x44CE JUMP JUMPDEST PUSH1 0x40 MLOAD DUP1 SWAP2 SUB SWAP1 RETURN JUMPDEST CALLVALUE DUP1 ISZERO PUSH2 0x210 JUMPI PUSH1 0x0 DUP1 REVERT JUMPDEST POP PUSH2 0x219 PUSH2 0x815 JUMP JUMPDEST PUSH1 0x40 MLOAD PUSH2 0x226 SWAP2 SWAP1 PUSH2 0x4579 JUMP JUMPDEST PUSH1 0x40 MLOAD DUP1 SWAP2 SUB SWAP1 RETURN JUMPDEST CALLVALUE DUP1 ISZERO PUSH2 0x23B JUMPI PUSH1 0x0 DUP1 REVERT JUMPDEST POP PUSH2 0x256 PUSH1 0x4 DUP1 CALLDATASIZE SUB DUP2 ADD SWAP1 PUSH2 0x251 SWAP2 SWAP1 PUSH2 0x45D1 JUMP JUMPDEST PUSH2 0x8A7 JUMP JUMPDEST PUSH1 0x40 MLOAD PUSH2 0x263 SWAP2 SWAP1 PUSH2 0x463F JUMP JUMPDEST PUSH1 0x40 MLOAD DUP1 SWAP2 SUB SWAP1 RETURN JUMPDEST CALLVALUE DUP1 ISZERO PUSH2 0x278 JUMPI PUSH1 0x0 DUP1 REVERT JUMPDEST POP PUSH2 0x293 PUSH1 0x4 DUP1 CALLDATASIZE SUB DUP2 ADD SWAP1 PUSH2 0x28E SWAP2 SWAP1 PUSH2 0x4686 JUMP JUMPDEST PUSH2 0x92C JUMP JUMPDEST STOP JUMPDEST CALLVALUE DUP1 ISZERO PUSH2 0x2A1 JUMPI PUSH1 0x0 DUP1 REVERT JUMPDEST POP PUSH2 0x2BC PUSH1 0x4 DUP1 CALLDATASIZE SUB DUP2 ADD SWAP1 PUSH2 0x2B7 SWAP2 SWAP1 PUSH2 0x4765 JUMP JUMPDEST PUSH2 0xA43 JUMP JUMPDEST STOP JUMPDEST CALLVALUE DUP1 ISZERO PUSH2 0x2CA JUMPI PUSH1 0x0 DUP1 REVERT JUMPDEST POP PUSH2 0x2E5 PUSH1 0x4 DUP1 CALLDATASIZE SUB DUP2 ADD SWAP1 PUSH2 0x2E0 SWAP2 SWAP1 PUSH2 0x45D1 JUMP JUMPDEST PUSH2 0xD70 JUMP JUMPDEST PUSH1 0x40 MLOAD PUSH2 0x2F2 SWAP2 SWAP1 PUSH2 0x4579 JUMP JUMPDEST PUSH1 0x40 MLOAD DUP1 SWAP2 SUB SWAP1 RETURN JUMPDEST CALLVALUE DUP1 ISZERO PUSH2 0x307 JUMPI PUSH1 0x0 DUP1 REVERT JUMPDEST POP PUSH2 0x322 PUSH1 0x4 DUP1 CALLDATASIZE SUB DUP2 ADD SWAP1 PUSH2 0x31D SWAP2 SWAP1 PUSH2 0x4991 JUMP JUMPDEST PUSH2 0xE10 JUMP JUMPDEST PUSH1 0x40 MLOAD PUSH2 0x32F SWAP2 SWAP1 PUSH2 0x49E9 JUMP JUMPDEST PUSH1 0x40 MLOAD DUP1 SWAP2 SUB SWAP1 RETURN JUMPDEST CALLVALUE DUP1 ISZERO PUSH2 0x344 JUMPI PUSH1 0x0 DUP1 REVERT JUMPDEST POP PUSH2 0x35F PUSH1 0x4 DUP1 CALLDATASIZE SUB DUP2 ADD SWAP1 PUSH2 0x35A SWAP2 SWAP1 PUSH2 0x4A04 JUMP JUMPDEST PUSH2 0xF56 JUMP JUMPDEST STOP JUMPDEST CALLVALUE DUP1 ISZERO PUSH2 0x36D JUMPI PUSH1 0x0 DUP1 REVERT JUMPDEST POP PUSH2 0x388 PUSH1 0x4 DUP1 CALLDATASIZE SUB DUP2 ADD SWAP1 PUSH2 0x383 SWAP2 SWAP1 PUSH2 0x4A04 JUMP JUMPDEST PUSH2 0xFB6 JUMP JUMPDEST STOP JUMPDEST CALLVALUE DUP1 ISZERO PUSH2 0x396 JUMPI PUSH1 0x0 DUP1 REVERT JUMPDEST POP PUSH2 0x3B1 PUSH1 0x4 DUP1 CALLDATASIZE SUB DUP2 ADD SWAP1 PUSH2 0x3AC SWAP2 SWAP1 PUSH2 0x4A57 JUMP JUMPDEST PUSH2 0xFD6 JUMP JUMPDEST STOP JUMPDEST CALLVALUE DUP1 ISZERO PUSH2 0x3BF JUMPI PUSH1 0x0 DUP1 REVERT JUMPDEST POP PUSH2 0x3DA PUSH1 0x4 DUP1 CALLDATASIZE SUB DUP2 ADD SWAP1 PUSH2 0x3D5 SWAP2 SWAP1 PUSH2 0x4A57 JUMP JUMPDEST PUSH2 0x12E8 JUMP JUMPDEST PUSH1 0x40 MLOAD PUSH2 0x3E7 SWAP2 SWAP1 PUSH2 0x4D1B JUMP JUMPDEST PUSH1 0x40 MLOAD DUP1 SWAP2 SUB SWAP1 RETURN JUMPDEST CALLVALUE DUP1 ISZERO PUSH2 0x3FC JUMPI PUSH1 0x0 DUP1 REVERT JUMPDEST POP PUSH2 0x417 PUSH1 0x4 DUP1 CALLDATASIZE SUB DUP2 ADD SWAP1 PUSH2 0x412 SWAP2 SWAP1 PUSH2 0x4A57 JUMP JUMPDEST PUSH2 0x1696 JUMP JUMPDEST STOP JUMPDEST CALLVALUE DUP1 ISZERO PUSH2 0x425 JUMPI PUSH1 0x0 DUP1 REVERT JUMPDEST POP PUSH2 0x440 PUSH1 0x4 DUP1 CALLDATASIZE SUB DUP2 ADD SWAP1 PUSH2 0x43B SWAP2 SWAP1 PUSH2 0x4D3D JUMP JUMPDEST PUSH2 0x177B JUMP JUMPDEST STOP JUMPDEST CALLVALUE DUP1 ISZERO PUSH2 0x44E JUMPI PUSH1 0x0 DUP1 REVERT JUMPDEST POP PUSH2 0x469 PUSH1 0x4 DUP1 CALLDATASIZE SUB DUP2 ADD SWAP1 PUSH2 0x464 SWAP2 SWAP1 PUSH2 0x45D1 JUMP JUMPDEST PUSH2 0x1B72 JUMP JUMPDEST PUSH1 0x40 MLOAD PUSH2 0x476 SWAP2 SWAP1 PUSH2 0x463F JUMP JUMPDEST PUSH1 0x40 MLOAD DUP1 SWAP2 SUB SWAP1 RETURN JUMPDEST CALLVALUE DUP1 ISZERO PUSH2 0x48B JUMPI PUSH1 0x0 DUP1 REVERT JUMPDEST POP PUSH2 0x4A6 PUSH1 0x4 DUP1 CALLDATASIZE SUB DUP2 ADD SWAP1 PUSH2 0x4A1 SWAP2 SWAP1 PUSH2 0x4A57 JUMP JUMPDEST PUSH2 0x1C23 JUMP JUMPDEST STOP JUMPDEST CALLVALUE DUP1 ISZERO PUSH2 0x4B4 JUMPI PUSH1 0x0 DUP1 REVERT JUMPDEST POP PUSH2 0x4CF PUSH1 0x4 DUP1 CALLDATASIZE SUB DUP2 ADD SWAP1 PUSH2 0x4CA SWAP2 SWAP1 PUSH2 0x4DBE JUMP JUMPDEST PUSH2 0x1F76 JUMP JUMPDEST PUSH1 0x40 MLOAD PUSH2 0x4DC SWAP2 SWAP1 PUSH2 0x49E9 JUMP JUMPDEST PUSH1 0x40 MLOAD DUP1 SWAP2 SUB SWAP1 RETURN JUMPDEST CALLVALUE DUP1 ISZERO PUSH2 0x4F1 JUMPI PUSH1 0x0 DUP1 REVERT JUMPDEST POP PUSH2 0x50C PUSH1 0x4 DUP1 CALLDATASIZE SUB DUP2 ADD SWAP1 PUSH2 0x507 SWAP2 SWAP1 PUSH2 0x4A57 JUMP JUMPDEST PUSH2 0x202D JUMP JUMPDEST PUSH1 0x40 MLOAD PUSH2 0x519 SWAP2 SWAP1 PUSH2 0x4E76 JUMP JUMPDEST PUSH1 0x40 MLOAD DUP1 SWAP2 SUB SWAP1 RETURN JUMPDEST CALLVALUE DUP1 ISZERO PUSH2 0x52E JUMPI PUSH1 0x0 DUP1 REVERT JUMPDEST POP PUSH2 0x537 PUSH2 0x2342 JUMP JUMPDEST PUSH1 0x40 MLOAD PUSH2 0x544 SWAP2 SWAP1 PUSH2 0x4F1E JUMP JUMPDEST PUSH1 0x40 MLOAD DUP1 SWAP2 SUB SWAP1 RETURN JUMPDEST CALLVALUE DUP1 ISZERO PUSH2 0x559 JUMPI PUSH1 0x0 DUP1 REVERT JUMPDEST POP PUSH2 0x574 PUSH1 0x4 DUP1 CALLDATASIZE SUB DUP2 ADD SWAP1 PUSH2 0x56F SWAP2 SWAP1 PUSH2 0x4F40 JUMP JUMPDEST PUSH2 0x241B JUMP JUMPDEST STOP JUMPDEST CALLVALUE DUP1 ISZERO PUSH2 0x582 JUMPI PUSH1 0x0 DUP1 REVERT JUMPDEST POP PUSH2 0x58B PUSH2 0x26B1 JUMP JUMPDEST PUSH1 0x40 MLOAD PUSH2 0x598 SWAP2 SWAP1 PUSH2 0x527E JUMP JUMPDEST PUSH1 0x40 MLOAD DUP1 SWAP2 SUB SWAP1 RETURN JUMPDEST CALLVALUE DUP1 ISZERO PUSH2 0x5AD JUMPI PUSH1 0x0 DUP1 REVERT JUMPDEST POP PUSH2 0x5B6 PUSH2 0x2DA4 JUMP JUMPDEST PUSH1 0x40 MLOAD PUSH2 0x5C3 SWAP2 SWAP1 PUSH2 0x4579 JUMP JUMPDEST PUSH1 0x40 MLOAD DUP1 SWAP2 SUB SWAP1 RETURN JUMPDEST CALLVALUE DUP1 ISZERO PUSH2 0x5D8 JUMPI PUSH1 0x0 DUP1 REVERT JUMPDEST POP PUSH2 0x5F3 PUSH1 0x4 DUP1 CALLDATASIZE SUB DUP2 ADD SWAP1 PUSH2 0x5EE SWAP2 SWAP1 PUSH2 0x52CC JUMP JUMPDEST PUSH2 0x2E36 JUMP JUMPDEST STOP JUMPDEST CALLVALUE DUP1 ISZERO PUSH2 0x601 JUMPI PUSH1 0x0 DUP1 REVERT JUMPDEST POP PUSH2 0x60A PUSH2 0x2E4C JUMP JUMPDEST PUSH1 0x40 MLOAD PUSH2 0x617 SWAP2 SWAP1 PUSH2 0x4F1E JUMP JUMPDEST PUSH1 0x40 MLOAD DUP1 SWAP2 SUB SWAP1 RETURN JUMPDEST CALLVALUE DUP1 ISZERO PUSH2 0x62C JUMPI PUSH1 0x0 DUP1 REVERT JUMPDEST POP PUSH2 0x647 PUSH1 0x4 DUP1 CALLDATASIZE SUB DUP2 ADD SWAP1 PUSH2 0x642 SWAP2 SWAP1 PUSH2 0x4A57 JUMP JUMPDEST PUSH2 0x2F25 JUMP JUMPDEST STOP JUMPDEST PUSH2 0x663 PUSH1 0x4 DUP1 CALLDATASIZE SUB DUP2 ADD SWAP1 PUSH2 0x65E SWAP2 SWAP1 PUSH2 0x4A57 JUMP JUMPDEST PUSH2 0x3086 JUMP JUMPDEST STOP JUMPDEST CALLVALUE DUP1 ISZERO PUSH2 0x671 JUMPI PUSH1 0x0 DUP1 REVERT JUMPDEST POP PUSH2 0x68C PUSH1 0x4 DUP1 CALLDATASIZE SUB DUP2 ADD SWAP1 PUSH2 0x687 SWAP2 SWAP1 PUSH2 0x53AD JUMP JUMPDEST PUSH2 0x33B1 JUMP JUMPDEST STOP JUMPDEST CALLVALUE DUP1 ISZERO PUSH2 0x69A JUMPI PUSH1 0x0 DUP1 REVERT JUMPDEST POP PUSH2 0x6B5 PUSH1 0x4 DUP1 CALLDATASIZE SUB DUP2 ADD SWAP1 PUSH2 0x6B0 SWAP2 SWAP1 PUSH2 0x45D1 JUMP JUMPDEST PUSH2 0x3413 JUMP JUMPDEST PUSH1 0x40 MLOAD PUSH2 0x6C2 SWAP2 SWAP1 PUSH2 0x4579 JUMP JUMPDEST PUSH1 0x40 MLOAD DUP1 SWAP2 SUB SWAP1 RETURN JUMPDEST CALLVALUE DUP1 ISZERO PUSH2 0x6D7 JUMPI PUSH1 0x0 DUP1 REVERT JUMPDEST POP PUSH2 0x6E0 PUSH2 0x34BA JUMP JUMPDEST PUSH1 0x40 MLOAD PUSH2 0x6ED SWAP2 SWAP1 PUSH2 0x549F JUMP JUMPDEST PUSH1 0x40 MLOAD DUP1 SWAP2 SUB SWAP1 RETURN JUMPDEST CALLVALUE DUP1 ISZERO PUSH2 0x702 JUMPI PUSH1 0x0 DUP1 REVERT JUMPDEST POP PUSH2 0x71D PUSH1 0x4 DUP1 CALLDATASIZE SUB DUP2 ADD SWAP1 PUSH2 0x718 SWAP2 SWAP1 PUSH2 0x54C1 JUMP JUMPDEST PUSH2 0x3548 JUMP JUMPDEST PUSH1 0x40 MLOAD PUSH2 0x72A SWAP2 SWAP1 PUSH2 0x44CE JUMP JUMPDEST PUSH1 0x40 MLOAD DUP1 SWAP2 SUB SWAP1 RETURN JUMPDEST PUSH1 0x0 PUSH32 0x80AC58CD00000000000000000000000000000000000000000000000000000000 PUSH28 0xFFFFFFFFFFFFFFFFFFFFFFFFFFFFFFFFFFFFFFFFFFFFFFFFFFFFFFFF NOT AND DUP3 PUSH28 0xFFFFFFFFFFFFFFFFFFFFFFFFFFFFFFFFFFFFFFFFFFFFFFFFFFFFFFFF NOT AND EQ DUP1 PUSH2 0x7FE JUMPI POP PUSH32 0x5B5E139F00000000000000000000000000000000000000000000000000000000 PUSH28 0xFFFFFFFFFFFFFFFFFFFFFFFFFFFFFFFFFFFFFFFFFFFFFFFFFFFFFFFF NOT AND DUP3 PUSH28 0xFFFFFFFFFFFFFFFFFFFFFFFFFFFFFFFFFFFFFFFFFFFFFFFFFFFFFFFF NOT AND EQ JUMPDEST DUP1 PUSH2 0x80E JUMPI POP PUSH2 0x80D DUP3 PUSH2 0x35DC JUMP JUMPDEST JUMPDEST SWAP1 POP SWAP2 SWAP1 POP JUMP JUMPDEST PUSH1 0x60 PUSH1 0x0 DUP1 SLOAD PUSH2 0x824 SWAP1 PUSH2 0x5530 JUMP JUMPDEST DUP1 PUSH1 0x1F ADD PUSH1 0x20 DUP1 SWAP2 DIV MUL PUSH1 0x20 ADD PUSH1 0x40 MLOAD SWAP1 DUP2 ADD PUSH1 0x40 MSTORE DUP1 SWAP3 SWAP2 SWAP1 DUP2 DUP2 MSTORE PUSH1 0x20 ADD DUP3 DUP1 SLOAD PUSH2 0x850 SWAP1 PUSH2 0x5530 JUMP JUMPDEST DUP1 ISZERO PUSH2 0x89D JUMPI DUP1 PUSH1 0x1F LT PUSH2 0x872 JUMPI PUSH2 0x100 DUP1 DUP4 SLOAD DIV MUL DUP4 MSTORE SWAP2 PUSH1 0x20 ADD SWAP2 PUSH2 0x89D JUMP JUMPDEST DUP3 ADD SWAP2 SWAP1 PUSH1 0x0 MSTORE PUSH1 0x20 PUSH1 0x0 KECCAK256 SWAP1 JUMPDEST DUP2 SLOAD DUP2 MSTORE SWAP1 PUSH1 0x1 ADD SWAP1 PUSH1 0x20 ADD DUP1 DUP4 GT PUSH2 0x880 JUMPI DUP3 SWAP1 SUB PUSH1 0x1F AND DUP3 ADD SWAP2 JUMPDEST POP POP POP POP POP SWAP1 POP SWAP1 JUMP JUMPDEST PUSH1 0x0 PUSH2 0x8B2 DUP3 PUSH2 0x3646 JUMP JUMPDEST PUSH2 0x8F1 JUMPI PUSH1 0x40 MLOAD PUSH32 0x8C379A000000000000000000000000000000000000000000000000000000000 DUP2 MSTORE PUSH1 0x4 ADD PUSH2 0x8E8 SWAP1 PUSH2 0x55D3 JUMP JUMPDEST PUSH1 0x40 MLOAD DUP1 SWAP2 SUB SWAP1 REVERT JUMPDEST PUSH1 0x4 PUSH1 0x0 DUP4 DUP2 MSTORE PUSH1 0x20 ADD SWAP1 DUP2 MSTORE PUSH1 0x20 ADD PUSH1 0x0 KECCAK256 PUSH1 0x0 SWAP1 SLOAD SWAP1 PUSH2 0x100 EXP SWAP1 DIV PUSH20 0xFFFFFFFFFFFFFFFFFFFFFFFFFFFFFFFFFFFFFFFF AND SWAP1 POP SWAP2 SWAP1 POP JUMP JUMPDEST PUSH1 0x0 PUSH2 0x937 DUP3 PUSH2 0x1B72 JUMP JUMPDEST SWAP1 POP DUP1 PUSH20 0xFFFFFFFFFFFFFFFFFFFFFFFFFFFFFFFFFFFFFFFF AND DUP4 PUSH20 0xFFFFFFFFFFFFFFFFFFFFFFFFFFFFFFFFFFFFFFFF AND SUB PUSH2 0x9A7 JUMPI PUSH1 0x40 MLOAD PUSH32 0x8C379A000000000000000000000000000000000000000000000000000000000 DUP2 MSTORE PUSH1 0x4 ADD PUSH2 0x99E SWAP1 PUSH2 0x5665 JUMP JUMPDEST PUSH1 0x40 MLOAD DUP1 SWAP2 SUB SWAP1 REVERT JUMPDEST DUP1 PUSH20 0xFFFFFFFFFFFFFFFFFFFFFFFFFFFFFFFFFFFFFFFF AND PUSH2 0x9C6 PUSH2 0x36B2 JUMP JUMPDEST PUSH20 0xFFFFFFFFFFFFFFFFFFFFFFFFFFFFFFFFFFFFFFFF AND EQ DUP1 PUSH2 0x9F5 JUMPI POP PUSH2 0x9F4 DUP2 PUSH2 0x9EF PUSH2 0x36B2 JUMP JUMPDEST PUSH2 0x3548 JUMP JUMPDEST JUMPDEST PUSH2 0xA34 JUMPI PUSH1 0x40 MLOAD PUSH32 0x8C379A000000000000000000000000000000000000000000000000000000000 DUP2 MSTORE PUSH1 0x4 ADD PUSH2 0xA2B SWAP1 PUSH2 0x56F7 JUMP JUMPDEST PUSH1 0x40 MLOAD DUP1 SWAP2 SUB SWAP1 REVERT JUMPDEST PUSH2 0xA3E DUP4 DUP4 PUSH2 0x36BA JUMP JUMPDEST POP POP POP JUMP JUMPDEST PUSH1 0x0 DUP10 DUP10 SWAP1 POP GT PUSH2 0xA89 JUMPI PUSH1 0x40 MLOAD PUSH32 0x8C379A000000000000000000000000000000000000000000000000000000000 DUP2 MSTORE PUSH1 0x4 ADD PUSH2 0xA80 SWAP1 PUSH2 0x5763 JUMP JUMPDEST PUSH1 0x40 MLOAD DUP1 SWAP2 SUB SWAP1 REVERT JUMPDEST PUSH1 0x0 PUSH1 0xA DUP11 DUP11 PUSH1 0x40 MLOAD PUSH2 0xA9D SWAP3 SWAP2 SWAP1 PUSH2 0x57B3 JUMP JUMPDEST SWAP1 DUP2 MSTORE PUSH1 0x20 ADD PUSH1 0x40 MLOAD DUP1 SWAP2 SUB SWAP1 KECCAK256 PUSH1 0x0 ADD DUP1 SLOAD PUSH2 0xAB9 SWAP1 PUSH2 0x5530 JUMP JUMPDEST SWAP1 POP EQ PUSH2 0xAFB JUMPI PUSH1 0x40 MLOAD PUSH32 0x8C379A000000000000000000000000000000000000000000000000000000000 DUP2 MSTORE PUSH1 0x4 ADD PUSH2 0xAF2 SWAP1 PUSH2 0x5818 JUMP JUMPDEST PUSH1 0x40 MLOAD DUP1 SWAP2 SUB SWAP1 REVERT JUMPDEST PUSH1 0x40 MLOAD DUP1 PUSH1 0xA0 ADD PUSH1 0x40 MSTORE DUP1 DUP11 DUP11 DUP1 DUP1 PUSH1 0x1F ADD PUSH1 0x20 DUP1 SWAP2 DIV MUL PUSH1 0x20 ADD PUSH1 0x40 MLOAD SWAP1 DUP2 ADD PUSH1 0x40 MSTORE DUP1 SWAP4 SWAP3 SWAP2 SWAP1 DUP2 DUP2 MSTORE PUSH1 0x20 ADD DUP4 DUP4 DUP1 DUP3 DUP5 CALLDATACOPY PUSH1 0x0 DUP2 DUP5 ADD MSTORE PUSH1 0x1F NOT PUSH1 0x1F DUP3 ADD AND SWAP1 POP DUP1 DUP4 ADD SWAP3 POP POP POP POP POP POP POP DUP2 MSTORE PUSH1 0x20 ADD DUP9 DUP9 DUP1 DUP1 PUSH1 0x1F ADD PUSH1 0x20 DUP1 SWAP2 DIV MUL PUSH1 0x20 ADD PUSH1 0x40 MLOAD SWAP1 DUP2 ADD PUSH1 0x40 MSTORE DUP1 SWAP4 SWAP3 SWAP2 SWAP1 DUP2 DUP2 MSTORE PUSH1 0x20 ADD DUP4 DUP4 DUP1 DUP3 DUP5 CALLDATACOPY PUSH1 0x0 DUP2 DUP5 ADD MSTORE PUSH1 0x1F NOT PUSH1 0x1F DUP3 ADD AND SWAP1 POP DUP1 DUP4 ADD SWAP3 POP POP POP POP POP POP POP DUP2 MSTORE PUSH1 0x20 ADD DUP7 DUP7 DUP1 DUP1 PUSH1 0x1F ADD PUSH1 0x20 DUP1 SWAP2 DIV MUL PUSH1 0x20 ADD PUSH1 0x40 MLOAD SWAP1 DUP2 ADD PUSH1 0x40 MSTORE DUP1 SWAP4 SWAP3 SWAP2 SWAP1 DUP2 DUP2 MSTORE PUSH1 0x20 ADD DUP4 DUP4 DUP1 DUP3 DUP5 CALLDATACOPY PUSH1 0x0 DUP2 DUP5 ADD MSTORE PUSH1 0x1F NOT PUSH1 0x1F DUP3 ADD AND SWAP1 POP DUP1 DUP4 ADD SWAP3 POP POP POP POP POP POP POP DUP2 MSTORE PUSH1 0x20 ADD DUP5 DUP5 DUP1 DUP1 PUSH1 0x1F ADD PUSH1 0x20 DUP1 SWAP2 DIV MUL PUSH1 0x20 ADD PUSH1 0x40 MLOAD SWAP1 DUP2 ADD PUSH1 0x40 MSTORE DUP1 SWAP4 SWAP3 SWAP2 SWAP1 DUP2 DUP2 MSTORE PUSH1 0x20 ADD DUP4 DUP4 DUP1 DUP3 DUP5 CALLDATACOPY PUSH1 0x0 DUP2 DUP5 ADD MSTORE PUSH1 0x1F NOT PUSH1 0x1F DUP3 ADD AND SWAP1 POP DUP1 DUP4 ADD SWAP3 POP POP POP POP POP POP POP DUP2 MSTORE PUSH1 0x20 ADD DUP3 PUSH2 0xFFFF AND DUP2 MSTORE POP PUSH1 0xA DUP11 DUP11 PUSH1 0x40 MLOAD PUSH2 0xC48 SWAP3 SWAP2 SWAP1 PUSH2 0x57B3 JUMP JUMPDEST SWAP1 DUP2 MSTORE PUSH1 0x20 ADD PUSH1 0x40 MLOAD DUP1 SWAP2 SUB SWAP1 KECCAK256 PUSH1 0x0 DUP3 ADD MLOAD DUP2 PUSH1 0x0 ADD SWAP1 DUP2 PUSH2 0xC6B SWAP2 SWAP1 PUSH2 0x59E4 JUMP JUMPDEST POP PUSH1 0x20 DUP3 ADD MLOAD DUP2 PUSH1 0x1 ADD SWAP1 DUP2 PUSH2 0xC81 SWAP2 SWAP1 PUSH2 0x59E4 JUMP JUMPDEST POP PUSH1 0x40 DUP3 ADD MLOAD DUP2 PUSH1 0x2 ADD SWAP1 DUP2 PUSH2 0xC97 SWAP2 SWAP1 PUSH2 0x59E4 JUMP JUMPDEST POP PUSH1 0x60 DUP3 ADD MLOAD DUP2 PUSH1 0x3 ADD SWAP1 DUP2 PUSH2 0xCAD SWAP2 SWAP1 PUSH2 0x59E4 JUMP JUMPDEST POP PUSH1 0x80 DUP3 ADD MLOAD DUP2 PUSH1 0x4 ADD PUSH1 0x0 PUSH2 0x100 EXP DUP2 SLOAD DUP2 PUSH2 0xFFFF MUL NOT AND SWAP1 DUP4 PUSH2 0xFFFF AND MUL OR SWAP1 SSTORE POP SWAP1 POP POP PUSH1 0xD DUP10 DUP10 SWAP1 SWAP2 DUP1 PUSH1 0x1 DUP2 SLOAD ADD DUP1 DUP3 SSTORE DUP1 SWAP2 POP POP PUSH1 0x1 SWAP1 SUB SWAP1 PUSH1 0x0 MSTORE PUSH1 0x20 PUSH1 0x0 KECCAK256 ADD PUSH1 0x0 SWAP1 SWAP2 SWAP3 SWAP1 SWAP2 SWAP3 SWAP1 SWAP2 SWAP3 SWAP1 SWAP2 SWAP3 POP SWAP2 DUP3 PUSH2 0xD11 SWAP3 SWAP2 SWAP1 PUSH2 0x5AC1 JUMP JUMPDEST POP DUP9 DUP9 PUSH1 0x40 MLOAD PUSH2 0xD22 SWAP3 SWAP2 SWAP1 PUSH2 0x57B3 JUMP JUMPDEST PUSH1 0x40 MLOAD DUP1 SWAP2 SUB SWAP1 KECCAK256 PUSH32 0x3B9E932F435EC1DA30497B3E70808CE4F0FFE940F26624043073CF416D3F9693 DUP5 DUP5 DUP5 PUSH1 0x40 MLOAD PUSH2 0xD5D SWAP4 SWAP3 SWAP2 SWAP1 PUSH2 0x5BCD JUMP JUMPDEST PUSH1 0x40 MLOAD DUP1 SWAP2 SUB SWAP1 LOG2 POP POP POP POP POP POP POP POP POP JUMP JUMPDEST PUSH1 0xC PUSH1 0x20 MSTORE DUP1 PUSH1 0x0 MSTORE PUSH1 0x40 PUSH1 0x0 KECCAK256 PUSH1 0x0 SWAP2 POP SWAP1 POP DUP1 SLOAD PUSH2 0xD8F SWAP1 PUSH2 0x5530 JUMP JUMPDEST DUP1 PUSH1 0x1F ADD PUSH1 0x20 DUP1 SWAP2 DIV MUL PUSH1 0x20 ADD PUSH1 0x40 MLOAD SWAP1 DUP2 ADD PUSH1 0x40 MSTORE DUP1 SWAP3 SWAP2 SWAP1 DUP2 DUP2 MSTORE PUSH1 0x20 ADD DUP3 DUP1 SLOAD PUSH2 0xDBB SWAP1 PUSH2 0x5530 JUMP JUMPDEST DUP1 ISZERO PUSH2 0xE08 JUMPI DUP1 PUSH1 0x1F LT PUSH2 0xDDD JUMPI PUSH2 0x100 DUP1 DUP4 SLOAD DIV MUL DUP4 MSTORE SWAP2 PUSH1 0x20 ADD SWAP2 PUSH2 0xE08 JUMP JUMPDEST DUP3 ADD SWAP2 SWAP1 PUSH1 0x0 MSTORE PUSH1 0x20 PUSH1 0x0 KECCAK256 SWAP1 JUMPDEST DUP2 SLOAD DUP2 MSTORE SWAP1 PUSH1 0x1 ADD SWAP1 PUSH1 0x20 ADD DUP1 DUP4 GT PUSH2 0xDEB JUMPI DUP3 SWAP1 SUB PUSH1 0x1F AND DUP3 ADD SWAP2 JUMPDEST POP POP POP POP POP DUP2 JUMP JUMPDEST PUSH1 0x0 PUSH1 0x9 PUSH1 0x0 CALLER PUSH20 0xFFFFFFFFFFFFFFFFFFFFFFFFFFFFFFFFFFFFFFFF AND PUSH20 0xFFFFFFFFFFFFFFFFFFFFFFFFFFFFFFFFFFFFFFFF AND DUP2 MSTORE PUSH1 0x20 ADD SWAP1 DUP2 MSTORE PUSH1 0x20 ADD PUSH1 0x0 KECCAK256 PUSH1 0x7 ADD PUSH1 0x0 SWAP1 SLOAD SWAP1 PUSH2 0x100 EXP SWAP1 DIV PUSH1 0xFF AND PUSH2 0xEA1 JUMPI PUSH1 0x40 MLOAD PUSH32 0x8C379A000000000000000000000000000000000000000000000000000000000 DUP2 MSTORE PUSH1 0x4 ADD PUSH2 0xE98 SWAP1 PUSH2 0x5C4B JUMP JUMPDEST PUSH1 0x40 MLOAD DUP1 SWAP2 SUB SWAP1 REVERT JUMPDEST PUSH1 0x0 PUSH2 0xEAD PUSH1 0x6 PUSH2 0x3773 JUMP JUMPDEST SWAP1 POP PUSH2 0xEB9 PUSH1 0x6 PUSH2 0x3781 JUMP JUMPDEST PUSH2 0xEC3 CALLER DUP3 PUSH2 0x3797 JUMP JUMPDEST DUP3 PUSH1 0xC PUSH1 0x0 DUP4 DUP2 MSTORE PUSH1 0x20 ADD SWAP1 DUP2 MSTORE PUSH1 0x20 ADD PUSH1 0x0 KECCAK256 SWAP1 DUP2 PUSH2 0xEE3 SWAP2 SWAP1 PUSH2 0x59E4 JUMP JUMPDEST POP PUSH1 0x9 PUSH1 0x0 CALLER PUSH20 0xFFFFFFFFFFFFFFFFFFFFFFFFFFFFFFFFFFFFFFFF AND PUSH20 0xFFFFFFFFFFFFFFFFFFFFFFFFFFFFFFFFFFFFFFFF AND DUP2 MSTORE PUSH1 0x20 ADD SWAP1 DUP2 MSTORE PUSH1 0x20 ADD PUSH1 0x0 KECCAK256 PUSH1 0x6 ADD DUP2 SWAP1 DUP1 PUSH1 0x1 DUP2 SLOAD ADD DUP1 DUP3 SSTORE DUP1 SWAP2 POP POP PUSH1 0x1 SWAP1 SUB SWAP1 PUSH1 0x0 MSTORE PUSH1 0x20 PUSH1 0x0 KECCAK256 ADD PUSH1 0x0 SWAP1 SWAP2 SWAP1 SWAP2 SWAP1 SWAP2 POP SSTORE DUP1 SWAP2 POP POP SWAP2 SWAP1 POP JUMP JUMPDEST PUSH2 0xF67 PUSH2 0xF61 PUSH2 0x36B2 JUMP JUMPDEST DUP3 PUSH2 0x3970 JUMP JUMPDEST PUSH2 0xFA6 JUMPI PUSH1 0x40 MLOAD PUSH32 0x8C379A000000000000000000000000000000000000000000000000000000000 DUP2 MSTORE PUSH1 0x4 ADD PUSH2 0xF9D SWAP1 PUSH2 0x5CDD JUMP JUMPDEST PUSH1 0x40 MLOAD DUP1 SWAP2 SUB SWAP1 REVERT JUMPDEST PUSH2 0xFB1 DUP4 DUP4 DUP4 PUSH2 0x3A4E JUMP JUMPDEST POP POP POP JUMP JUMPDEST PUSH2 0xFD1 DUP4 DUP4 DUP4 PUSH1 0x40 MLOAD DUP1 PUSH1 0x20 ADD PUSH1 0x40 MSTORE DUP1 PUSH1 0x0 DUP2 MSTORE POP PUSH2 0x33B1 JUMP JUMPDEST POP POP POP JUMP JUMPDEST PUSH1 0x9 PUSH1 0x0 CALLER PUSH20 0xFFFFFFFFFFFFFFFFFFFFFFFFFFFFFFFFFFFFFFFF AND PUSH20 0xFFFFFFFFFFFFFFFFFFFFFFFFFFFFFFFFFFFFFFFF AND DUP2 MSTORE PUSH1 0x20 ADD SWAP1 DUP2 MSTORE PUSH1 0x20 ADD PUSH1 0x0 KECCAK256 PUSH1 0x7 ADD PUSH1 0x0 SWAP1 SLOAD SWAP1 PUSH2 0x100 EXP SWAP1 DIV PUSH1 0xFF AND PUSH2 0x1065 JUMPI PUSH1 0x40 MLOAD PUSH32 0x8C379A000000000000000000000000000000000000000000000000000000000 DUP2 MSTORE PUSH1 0x4 ADD PUSH2 0x105C SWAP1 PUSH2 0x5C4B JUMP JUMPDEST PUSH1 0x40 MLOAD DUP1 SWAP2 SUB SWAP1 REVERT JUMPDEST PUSH1 0x0 PUSH1 0xB DUP4 DUP4 PUSH1 0x40 MLOAD PUSH2 0x1079 SWAP3 SWAP2 SWAP1 PUSH2 0x57B3 JUMP JUMPDEST SWAP1 DUP2 MSTORE PUSH1 0x20 ADD PUSH1 0x40 MLOAD DUP1 SWAP2 SUB SWAP1 KECCAK256 SWAP1 POP PUSH1 0x0 DUP2 PUSH1 0x0 ADD DUP1 SLOAD PUSH2 0x109A SWAP1 PUSH2 0x5530 JUMP JUMPDEST SWAP1 POP GT PUSH2 0x10DC JUMPI PUSH1 0x40 MLOAD PUSH32 0x8C379A000000000000000000000000000000000000000000000000000000000 DUP2 MSTORE PUSH1 0x4 ADD PUSH2 0x10D3 SWAP1 PUSH2 0x5D49 JUMP JUMPDEST PUSH1 0x40 MLOAD DUP1 SWAP2 SUB SWAP1 REVERT JUMPDEST PUSH1 0x0 JUMPDEST DUP2 PUSH1 0x4 ADD DUP1 SLOAD SWAP1 POP DUP2 LT ISZERO PUSH2 0x11AF JUMPI CALLER PUSH20 0xFFFFFFFFFFFFFFFFFFFFFFFFFFFFFFFFFFFFFFFF AND DUP3 PUSH1 0x4 ADD DUP3 DUP2 SLOAD DUP2 LT PUSH2 0x111B JUMPI PUSH2 0x111A PUSH2 0x5D69 JUMP JUMPDEST JUMPDEST SWAP1 PUSH1 0x0 MSTORE PUSH1 0x20 PUSH1 0x0 KECCAK256 ADD PUSH1 0x0 SWAP1 SLOAD SWAP1 PUSH2 0x100 EXP SWAP1 DIV PUSH20 0xFFFFFFFFFFFFFFFFFFFFFFFFFFFFFFFFFFFFFFFF AND PUSH20 0xFFFFFFFFFFFFFFFFFFFFFFFFFFFFFFFFFFFFFFFF AND SUB PUSH2 0x119C JUMPI PUSH1 0x40 MLOAD PUSH32 0x8C379A000000000000000000000000000000000000000000000000000000000 DUP2 MSTORE PUSH1 0x4 ADD PUSH2 0x1193 SWAP1 PUSH2 0x5DE4 JUMP JUMPDEST PUSH1 0x40 MLOAD DUP1 SWAP2 SUB SWAP1 REVERT JUMPDEST DUP1 DUP1 PUSH2 0x11A7 SWAP1 PUSH2 0x5E33 JUMP JUMPDEST SWAP2 POP POP PUSH2 0x10DF JUMP JUMPDEST POP DUP1 PUSH1 0x4 ADD CALLER SWAP1 DUP1 PUSH1 0x1 DUP2 SLOAD ADD DUP1 DUP3 SSTORE DUP1 SWAP2 POP POP PUSH1 0x1 SWAP1 SUB SWAP1 PUSH1 0x0 MSTORE PUSH1 0x20 PUSH1 0x0 KECCAK256 ADD PUSH1 0x0 SWAP1 SWAP2 SWAP1 SWAP2 SWAP1 SWAP2 PUSH2 0x100 EXP DUP2 SLOAD DUP2 PUSH20 0xFFFFFFFFFFFFFFFFFFFFFFFFFFFFFFFFFFFFFFFF MUL NOT AND SWAP1 DUP4 PUSH20 0xFFFFFFFFFFFFFFFFFFFFFFFFFFFFFFFFFFFFFFFF AND MUL OR SWAP1 SSTORE POP PUSH1 0x9 PUSH1 0x0 CALLER PUSH20 0xFFFFFFFFFFFFFFFFFFFFFFFFFFFFFFFFFFFFFFFF AND PUSH20 0xFFFFFFFFFFFFFFFFFFFFFFFFFFFFFFFFFFFFFFFF AND DUP2 MSTORE PUSH1 0x20 ADD SWAP1 DUP2 MSTORE PUSH1 0x20 ADD PUSH1 0x0 KECCAK256 PUSH1 0x8 ADD DUP4 DUP4 SWAP1 SWAP2 DUP1 PUSH1 0x1 DUP2 SLOAD ADD DUP1 DUP3 SSTORE DUP1 SWAP2 POP POP PUSH1 0x1 SWAP1 SUB SWAP1 PUSH1 0x0 MSTORE PUSH1 0x20 PUSH1 0x0 KECCAK256 ADD PUSH1 0x0 SWAP1 SWAP2 SWAP3 SWAP1 SWAP2 SWAP3 SWAP1 SWAP2 SWAP3 SWAP1 SWAP2 SWAP3 POP SWAP2 DUP3 PUSH2 0x1292 SWAP3 SWAP2 SWAP1 PUSH2 0x5AC1 JUMP JUMPDEST POP CALLER PUSH20 0xFFFFFFFFFFFFFFFFFFFFFFFFFFFFFFFFFFFFFFFF AND PUSH32 0x48BC22B3EAB0C993CD29049A8E0A06FA00E13EC87407C1EABD56C3100205D6AD DUP5 DUP5 PUSH1 0x40 MLOAD PUSH2 0x12DB SWAP3 SWAP2 SWAP1 PUSH2 0x5E7B JUMP JUMPDEST PUSH1 0x40 MLOAD DUP1 SWAP2 SUB SWAP1 LOG2 POP POP POP JUMP JUMPDEST PUSH2 0x12F0 PUSH2 0x4222 JUMP JUMPDEST PUSH1 0x0 PUSH1 0xB DUP5 DUP5 PUSH1 0x40 MLOAD PUSH2 0x1304 SWAP3 SWAP2 SWAP1 PUSH2 0x57B3 JUMP JUMPDEST SWAP1 DUP2 MSTORE PUSH1 0x20 ADD PUSH1 0x40 MLOAD DUP1 SWAP2 SUB SWAP1 KECCAK256 PUSH1 0x0 ADD DUP1 SLOAD PUSH2 0x1320 SWAP1 PUSH2 0x5530 JUMP JUMPDEST SWAP1 POP GT PUSH2 0x1362 JUMPI PUSH1 0x40 MLOAD PUSH32 0x8C379A000000000000000000000000000000000000000000000000000000000 DUP2 MSTORE PUSH1 0x4 ADD PUSH2 0x1359 SWAP1 PUSH2 0x5EEB JUMP JUMPDEST PUSH1 0x40 MLOAD DUP1 SWAP2 SUB SWAP1 REVERT JUMPDEST PUSH1 0xB DUP4 DUP4 PUSH1 0x40 MLOAD PUSH2 0x1374 SWAP3 SWAP2 SWAP1 PUSH2 0x57B3 JUMP JUMPDEST SWAP1 DUP2 MSTORE PUSH1 0x20 ADD PUSH1 0x40 MLOAD DUP1 SWAP2 SUB SWAP1 KECCAK256 PUSH1 0x40 MLOAD DUP1 PUSH1 0xC0 ADD PUSH1 0x40 MSTORE SWAP1 DUP2 PUSH1 0x0 DUP3 ADD DUP1 SLOAD PUSH2 0x139D SWAP1 PUSH2 0x5530 JUMP JUMPDEST DUP1 PUSH1 0x1F ADD PUSH1 0x20 DUP1 SWAP2 DIV MUL PUSH1 0x20 ADD PUSH1 0x40 MLOAD SWAP1 DUP2 ADD PUSH1 0x40 MSTORE DUP1 SWAP3 SWAP2 SWAP1 DUP2 DUP2 MSTORE PUSH1 0x20 ADD DUP3 DUP1 SLOAD PUSH2 0x13C9 SWAP1 PUSH2 0x5530 JUMP JUMPDEST DUP1 ISZERO PUSH2 0x1416 JUMPI DUP1 PUSH1 0x1F LT PUSH2 0x13EB JUMPI PUSH2 0x100 DUP1 DUP4 SLOAD DIV MUL DUP4 MSTORE SWAP2 PUSH1 0x20 ADD SWAP2 PUSH2 0x1416 JUMP JUMPDEST DUP3 ADD SWAP2 SWAP1 PUSH1 0x0 MSTORE PUSH1 0x20 PUSH1 0x0 KECCAK256 SWAP1 JUMPDEST DUP2 SLOAD DUP2 MSTORE SWAP1 PUSH1 0x1 ADD SWAP1 PUSH1 0x20 ADD DUP1 DUP4 GT PUSH2 0x13F9 JUMPI DUP3 SWAP1 SUB PUSH1 0x1F AND DUP3 ADD SWAP2 JUMPDEST POP POP POP POP POP DUP2 MSTORE PUSH1 0x20 ADD PUSH1 0x1 DUP3 ADD DUP1 SLOAD PUSH2 0x142F SWAP1 PUSH2 0x5530 JUMP JUMPDEST DUP1 PUSH1 0x1F ADD PUSH1 0x20 DUP1 SWAP2 DIV MUL PUSH1 0x20 ADD PUSH1 0x40 MLOAD SWAP1 DUP2 ADD PUSH1 0x40 MSTORE DUP1 SWAP3 SWAP2 SWAP1 DUP2 DUP2 MSTORE PUSH1 0x20 ADD DUP3 DUP1 SLOAD PUSH2 0x145B SWAP1 PUSH2 0x5530 JUMP JUMPDEST DUP1 ISZERO PUSH2 0x14A8 JUMPI DUP1 PUSH1 0x1F LT PUSH2 0x147D JUMPI PUSH2 0x100 DUP1 DUP4 SLOAD DIV MUL DUP4 MSTORE SWAP2 PUSH1 0x20 ADD SWAP2 PUSH2 0x14A8 JUMP JUMPDEST DUP3 ADD SWAP2 SWAP1 PUSH1 0x0 MSTORE PUSH1 0x20 PUSH1 0x0 KECCAK256 SWAP1 JUMPDEST DUP2 SLOAD DUP2 MSTORE SWAP1 PUSH1 0x1 ADD SWAP1 PUSH1 0x20 ADD DUP1 DUP4 GT PUSH2 0x148B JUMPI DUP3 SWAP1 SUB PUSH1 0x1F AND DUP3 ADD SWAP2 JUMPDEST POP POP POP POP POP DUP2 MSTORE PUSH1 0x20 ADD PUSH1 0x2 DUP3 ADD PUSH1 0x0 SWAP1 SLOAD SWAP1 PUSH2 0x100 EXP SWAP1 DIV PUSH20 0xFFFFFFFFFFFFFFFFFFFFFFFFFFFFFFFFFFFFFFFF AND PUSH20 0xFFFFFFFFFFFFFFFFFFFFFFFFFFFFFFFFFFFFFFFF AND PUSH20 0xFFFFFFFFFFFFFFFFFFFFFFFFFFFFFFFFFFFFFFFF AND DUP2 MSTORE PUSH1 0x20 ADD PUSH1 0x2 DUP3 ADD PUSH1 0x14 SWAP1 SLOAD SWAP1 PUSH2 0x100 EXP SWAP1 DIV PUSH2 0xFFFF AND PUSH2 0xFFFF AND PUSH2 0xFFFF AND DUP2 MSTORE PUSH1 0x20 ADD PUSH1 0x3 DUP3 ADD DUP1 SLOAD DUP1 PUSH1 0x20 MUL PUSH1 0x20 ADD PUSH1 0x40 MLOAD SWAP1 DUP2 ADD PUSH1 0x40 MSTORE DUP1 SWAP3 SWAP2 SWAP1 DUP2 DUP2 MSTORE PUSH1 0x20 ADD PUSH1 0x0 SWAP1 JUMPDEST DUP3 DUP3 LT ISZERO PUSH2 0x15F8 JUMPI DUP4 DUP3 SWAP1 PUSH1 0x0 MSTORE PUSH1 0x20 PUSH1 0x0 KECCAK256 ADD DUP1 SLOAD PUSH2 0x156B SWAP1 PUSH2 0x5530 JUMP JUMPDEST DUP1 PUSH1 0x1F ADD PUSH1 0x20 DUP1 SWAP2 DIV MUL PUSH1 0x20 ADD PUSH1 0x40 MLOAD SWAP1 DUP2 ADD PUSH1 0x40 MSTORE DUP1 SWAP3 SWAP2 SWAP1 DUP2 DUP2 MSTORE PUSH1 0x20 ADD DUP3 DUP1 SLOAD PUSH2 0x1597 SWAP1 PUSH2 0x5530 JUMP JUMPDEST DUP1 ISZERO PUSH2 0x15E4 JUMPI DUP1 PUSH1 0x1F LT PUSH2 0x15B9 JUMPI PUSH2 0x100 DUP1 DUP4 SLOAD DIV MUL DUP4 MSTORE SWAP2 PUSH1 0x20 ADD SWAP2 PUSH2 0x15E4 JUMP JUMPDEST DUP3 ADD SWAP2 SWAP1 PUSH1 0x0 MSTORE PUSH1 0x20 PUSH1 0x0 KECCAK256 SWAP1 JUMPDEST DUP2 SLOAD DUP2 MSTORE SWAP1 PUSH1 0x1 ADD SWAP1 PUSH1 0x20 ADD DUP1 DUP4 GT PUSH2 0x15C7 JUMPI DUP3 SWAP1 SUB PUSH1 0x1F AND DUP3 ADD SWAP2 JUMPDEST POP POP POP POP POP DUP2 MSTORE PUSH1 0x20 ADD SWAP1 PUSH1 0x1 ADD SWAP1 PUSH2 0x154C JUMP JUMPDEST POP POP POP POP DUP2 MSTORE PUSH1 0x20 ADD PUSH1 0x4 DUP3 ADD DUP1 SLOAD DUP1 PUSH1 0x20 MUL PUSH1 0x20 ADD PUSH1 0x40 MLOAD SWAP1 DUP2 ADD PUSH1 0x40 MSTORE DUP1 SWAP3 SWAP2 SWAP1 DUP2 DUP2 MSTORE PUSH1 0x20 ADD DUP3 DUP1 SLOAD DUP1 ISZERO PUSH2 0x1685 JUMPI PUSH1 0x20 MUL DUP3 ADD SWAP2 SWAP1 PUSH1 0x0 MSTORE PUSH1 0x20 PUSH1 0x0 KECCAK256 SWAP1 JUMPDEST DUP2 PUSH1 0x0 SWAP1 SLOAD SWAP1 PUSH2 0x100 EXP SWAP1 DIV PUSH20 0xFFFFFFFFFFFFFFFFFFFFFFFFFFFFFFFFFFFFFFFF AND PUSH20 0xFFFFFFFFFFFFFFFFFFFFFFFFFFFFFFFFFFFFFFFF AND DUP2 MSTORE PUSH1 0x20 ADD SWAP1 PUSH1 0x1 ADD SWAP1 DUP1 DUP4 GT PUSH2 0x163B JUMPI JUMPDEST POP POP POP POP POP DUP2 MSTORE POP POP SWAP1 POP SWAP3 SWAP2 POP POP JUMP JUMPDEST PUSH1 0x9 PUSH1 0x0 CALLER PUSH20 0xFFFFFFFFFFFFFFFFFFFFFFFFFFFFFFFFFFFFFFFF AND PUSH20 0xFFFFFFFFFFFFFFFFFFFFFFFFFFFFFFFFFFFFFFFF AND DUP2 MSTORE PUSH1 0x20 ADD SWAP1 DUP2 MSTORE PUSH1 0x20 ADD PUSH1 0x0 KECCAK256 PUSH1 0x7 ADD PUSH1 0x0 SWAP1 SLOAD SWAP1 PUSH2 0x100 EXP SWAP1 DIV PUSH1 0xFF AND PUSH2 0x1725 JUMPI PUSH1 0x40 MLOAD PUSH32 0x8C379A000000000000000000000000000000000000000000000000000000000 DUP2 MSTORE PUSH1 0x4 ADD PUSH2 0x171C SWAP1 PUSH2 0x5C4B JUMP JUMPDEST PUSH1 0x40 MLOAD DUP1 SWAP2 SUB SWAP1 REVERT JUMPDEST DUP2 DUP2 PUSH1 0x9 PUSH1 0x0 CALLER PUSH20 0xFFFFFFFFFFFFFFFFFFFFFFFFFFFFFFFFFFFFFFFF AND PUSH20 0xFFFFFFFFFFFFFFFFFFFFFFFFFFFFFFFFFFFFFFFF AND DUP2 MSTORE PUSH1 0x20 ADD SWAP1 DUP2 MSTORE PUSH1 0x20 ADD PUSH1 0x0 KECCAK256 PUSH1 0x5 ADD SWAP2 DUP3 PUSH2 0x1776 SWAP3 SWAP2 SWAP1 PUSH2 0x5AC1 JUMP JUMPDEST POP POP POP JUMP JUMPDEST PUSH1 0x9 PUSH1 0x0 CALLER PUSH20 0xFFFFFFFFFFFFFFFFFFFFFFFFFFFFFFFFFFFFFFFF AND PUSH20 0xFFFFFFFFFFFFFFFFFFFFFFFFFFFFFFFFFFFFFFFF AND DUP2 MSTORE PUSH1 0x20 ADD SWAP1 DUP2 MSTORE PUSH1 0x20 ADD PUSH1 0x0 KECCAK256 PUSH1 0x7 ADD PUSH1 0x0 SWAP1 SLOAD SWAP1 PUSH2 0x100 EXP SWAP1 DIV PUSH1 0xFF AND PUSH2 0x180A JUMPI PUSH1 0x40 MLOAD PUSH32 0x8C379A000000000000000000000000000000000000000000000000000000000 DUP2 MSTORE PUSH1 0x4 ADD PUSH2 0x1801 SWAP1 PUSH2 0x5C4B JUMP JUMPDEST PUSH1 0x40 MLOAD DUP1 SWAP2 SUB SWAP1 REVERT JUMPDEST PUSH1 0x0 PUSH1 0xA DUP4 DUP4 PUSH1 0x40 MLOAD PUSH2 0x181E SWAP3 SWAP2 SWAP1 PUSH2 0x57B3 JUMP JUMPDEST SWAP1 DUP2 MSTORE PUSH1 0x20 ADD PUSH1 0x40 MLOAD DUP1 SWAP2 SUB SWAP1 KECCAK256 PUSH1 0x0 ADD DUP1 SLOAD PUSH2 0x183A SWAP1 PUSH2 0x5530 JUMP JUMPDEST SWAP1 POP GT PUSH2 0x187C JUMPI PUSH1 0x40 MLOAD PUSH32 0x8C379A000000000000000000000000000000000000000000000000000000000 DUP2 MSTORE PUSH1 0x4 ADD PUSH2 0x1873 SWAP1 PUSH2 0x5F57 JUMP JUMPDEST PUSH1 0x40 MLOAD DUP1 SWAP2 SUB SWAP1 REVERT JUMPDEST PUSH1 0x0 PUSH1 0xB DUP6 DUP6 PUSH1 0x40 MLOAD PUSH2 0x1890 SWAP3 SWAP2 SWAP1 PUSH2 0x57B3 JUMP JUMPDEST SWAP1 DUP2 MSTORE PUSH1 0x20 ADD PUSH1 0x40 MLOAD DUP1 SWAP2 SUB SWAP1 KECCAK256 PUSH1 0x0 ADD DUP1 SLOAD PUSH2 0x18AC SWAP1 PUSH2 0x5530 JUMP JUMPDEST SWAP1 POP EQ PUSH2 0x18EE JUMPI PUSH1 0x40 MLOAD PUSH32 0x8C379A000000000000000000000000000000000000000000000000000000000 DUP2 MSTORE PUSH1 0x4 ADD PUSH2 0x18E5 SWAP1 PUSH2 0x5FC3 JUMP JUMPDEST PUSH1 0x40 MLOAD DUP1 SWAP2 SUB SWAP1 REVERT JUMPDEST PUSH1 0x0 PUSH1 0xB DUP6 DUP6 PUSH1 0x40 MLOAD PUSH2 0x1902 SWAP3 SWAP2 SWAP1 PUSH2 0x57B3 JUMP JUMPDEST SWAP1 DUP2 MSTORE PUSH1 0x20 ADD PUSH1 0x40 MLOAD DUP1 SWAP2 SUB SWAP1 KECCAK256 SWAP1 POP DUP5 DUP5 DUP3 PUSH1 0x0 ADD SWAP2 DUP3 PUSH2 0x1925 SWAP3 SWAP2 SWAP1 PUSH2 0x5AC1 JUMP JUMPDEST POP DUP3 DUP3 DUP3 PUSH1 0x1 ADD SWAP2 DUP3 PUSH2 0x1939 SWAP3 SWAP2 SWAP1 PUSH2 0x5AC1 JUMP JUMPDEST POP PUSH1 0x8 PUSH1 0x0 DUP2 DUP2 SWAP1 SLOAD SWAP1 PUSH2 0x100 EXP SWAP1 DIV PUSH2 0xFFFF AND PUSH2 0x1956 SWAP1 PUSH2 0x5FE3 JUMP JUMPDEST SWAP2 SWAP1 PUSH2 0x100 EXP DUP2 SLOAD DUP2 PUSH2 0xFFFF MUL NOT AND SWAP1 DUP4 PUSH2 0xFFFF AND MUL OR SWAP1 SSTORE DUP2 PUSH1 0x2 ADD PUSH1 0x14 PUSH2 0x100 EXP DUP2 SLOAD DUP2 PUSH2 0xFFFF MUL NOT AND SWAP1 DUP4 PUSH2 0xFFFF AND MUL OR SWAP1 SSTORE POP CALLER DUP2 PUSH1 0x2 ADD PUSH1 0x0 PUSH2 0x100 EXP DUP2 SLOAD DUP2 PUSH20 0xFFFFFFFFFFFFFFFFFFFFFFFFFFFFFFFFFFFFFFFF MUL NOT AND SWAP1 DUP4 PUSH20 0xFFFFFFFFFFFFFFFFFFFFFFFFFFFFFFFFFFFFFFFF AND MUL OR SWAP1 SSTORE POP DUP1 PUSH1 0x4 ADD CALLER SWAP1 DUP1 PUSH1 0x1 DUP2 SLOAD ADD DUP1 DUP3 SSTORE DUP1 SWAP2 POP POP PUSH1 0x1 SWAP1 SUB SWAP1 PUSH1 0x0 MSTORE PUSH1 0x20 PUSH1 0x0 KECCAK256 ADD PUSH1 0x0 SWAP1 SWAP2 SWAP1 SWAP2 SWAP1 SWAP2 PUSH2 0x100 EXP DUP2 SLOAD DUP2 PUSH20 0xFFFFFFFFFFFFFFFFFFFFFFFFFFFFFFFFFFFFFFFF MUL NOT AND SWAP1 DUP4 PUSH20 0xFFFFFFFFFFFFFFFFFFFFFFFFFFFFFFFFFFFFFFFF AND MUL OR SWAP1 SSTORE POP PUSH1 0xF DUP6 DUP6 SWAP1 SWAP2 DUP1 PUSH1 0x1 DUP2 SLOAD ADD DUP1 DUP3 SSTORE DUP1 SWAP2 POP POP PUSH1 0x1 SWAP1 SUB SWAP1 PUSH1 0x0 MSTORE PUSH1 0x20 PUSH1 0x0 KECCAK256 ADD PUSH1 0x0 SWAP1 SWAP2 SWAP3 SWAP1 SWAP2 SWAP3 SWAP1 SWAP2 SWAP3 SWAP1 SWAP2 SWAP3 POP SWAP2 DUP3 PUSH2 0x1A72 SWAP3 SWAP2 SWAP1 PUSH2 0x5AC1 JUMP JUMPDEST POP PUSH1 0x9 PUSH1 0x0 CALLER PUSH20 0xFFFFFFFFFFFFFFFFFFFFFFFFFFFFFFFFFFFFFFFF AND PUSH20 0xFFFFFFFFFFFFFFFFFFFFFFFFFFFFFFFFFFFFFFFF AND DUP2 MSTORE PUSH1 0x20 ADD SWAP1 DUP2 MSTORE PUSH1 0x20 ADD PUSH1 0x0 KECCAK256 PUSH1 0x8 ADD DUP6 DUP6 SWAP1 SWAP2 DUP1 PUSH1 0x1 DUP2 SLOAD ADD DUP1 DUP3 SSTORE DUP1 SWAP2 POP POP PUSH1 0x1 SWAP1 SUB SWAP1 PUSH1 0x0 MSTORE PUSH1 0x20 PUSH1 0x0 KECCAK256 ADD PUSH1 0x0 SWAP1 SWAP2 SWAP3 SWAP1 SWAP2 SWAP3 SWAP1 SWAP2 SWAP3 SWAP1 SWAP2 SWAP3 POP SWAP2 DUP3 PUSH2 0x1AF0 SWAP3 SWAP2 SWAP1 PUSH2 0x5AC1 JUMP JUMPDEST POP CALLER PUSH20 0xFFFFFFFFFFFFFFFFFFFFFFFFFFFFFFFFFFFFFFFF AND DUP6 DUP6 PUSH1 0x40 MLOAD PUSH2 0x1B18 SWAP3 SWAP2 SWAP1 PUSH2 0x57B3 JUMP JUMPDEST PUSH1 0x40 MLOAD DUP1 SWAP2 SUB SWAP1 KECCAK256 PUSH32 0xF085966E5F5BDADDEB4826A76AFFE2E722A984E4136D44F6576256C9D01761A8 DUP6 DUP6 PUSH1 0x8 PUSH1 0x0 SWAP1 SLOAD SWAP1 PUSH2 0x100 EXP SWAP1 DIV PUSH2 0xFFFF AND PUSH1 0x40 MLOAD PUSH2 0x1B63 SWAP4 SWAP3 SWAP2 SWAP1 PUSH2 0x5BCD JUMP JUMPDEST PUSH1 0x40 MLOAD DUP1 SWAP2 SUB SWAP1 LOG3 POP POP POP POP POP JUMP JUMPDEST PUSH1 0x0 DUP1 PUSH1 0x2 PUSH1 0x0 DUP5 DUP2 MSTORE PUSH1 0x20 ADD SWAP1 DUP2 MSTORE PUSH1 0x20 ADD PUSH1 0x0 KECCAK256 PUSH1 0x0 SWAP1 SLOAD SWAP1 PUSH2 0x100 EXP SWAP1 DIV PUSH20 0xFFFFFFFFFFFFFFFFFFFFFFFFFFFFFFFFFFFFFFFF AND SWAP1 POP PUSH1 0x0 PUSH20 0xFFFFFFFFFFFFFFFFFFFFFFFFFFFFFFFFFFFFFFFF AND DUP2 PUSH20 0xFFFFFFFFFFFFFFFFFFFFFFFFFFFFFFFFFFFFFFFF AND SUB PUSH2 0x1C1A JUMPI PUSH1 0x40 MLOAD PUSH32 0x8C379A000000000000000000000000000000000000000000000000000000000 DUP2 MSTORE PUSH1 0x4 ADD PUSH2 0x1C11 SWAP1 PUSH2 0x607F JUMP JUMPDEST PUSH1 0x40 MLOAD DUP1 SWAP2 SUB SWAP1 REVERT JUMPDEST DUP1 SWAP2 POP POP SWAP2 SWAP1 POP JUMP JUMPDEST PUSH1 0x9 PUSH1 0x0 CALLER PUSH20 0xFFFFFFFFFFFFFFFFFFFFFFFFFFFFFFFFFFFFFFFF AND PUSH20 0xFFFFFFFFFFFFFFFFFFFFFFFFFFFFFFFFFFFFFFFF AND DUP2 MSTORE PUSH1 0x20 ADD SWAP1 DUP2 MSTORE PUSH1 0x20 ADD PUSH1 0x0 KECCAK256 PUSH1 0x7 ADD PUSH1 0x0 SWAP1 SLOAD SWAP1 PUSH2 0x100 EXP SWAP1 DIV PUSH1 0xFF AND ISZERO PUSH2 0x1CB3 JUMPI PUSH1 0x40 MLOAD PUSH32 0x8C379A000000000000000000000000000000000000000000000000000000000 DUP2 MSTORE PUSH1 0x4 ADD PUSH2 0x1CAA SWAP1 PUSH2 0x60EB JUMP JUMPDEST PUSH1 0x40 MLOAD DUP1 SWAP2 SUB SWAP1 REVERT JUMPDEST PUSH1 0x0 PUSH1 0x9 PUSH1 0x0 CALLER PUSH20 0xFFFFFFFFFFFFFFFFFFFFFFFFFFFFFFFFFFFFFFFF AND PUSH20 0xFFFFFFFFFFFFFFFFFFFFFFFFFFFFFFFFFFFFFFFF AND DUP2 MSTORE PUSH1 0x20 ADD SWAP1 DUP2 MSTORE PUSH1 0x20 ADD PUSH1 0x0 KECCAK256 SWAP1 POP PUSH1 0x1 DUP2 PUSH1 0x7 ADD PUSH1 0x0 PUSH2 0x100 EXP DUP2 SLOAD DUP2 PUSH1 0xFF MUL NOT AND SWAP1 DUP4 ISZERO ISZERO MUL OR SWAP1 SSTORE POP DUP3 DUP3 DUP3 PUSH1 0x0 ADD SWAP2 DUP3 PUSH2 0x1D26 SWAP3 SWAP2 SWAP1 PUSH2 0x5AC1 JUMP JUMPDEST POP PUSH1 0x0 PUSH8 0xFFFFFFFFFFFFFFFF DUP2 GT ISZERO PUSH2 0x1D42 JUMPI PUSH2 0x1D41 PUSH2 0x4866 JUMP JUMPDEST JUMPDEST PUSH1 0x40 MLOAD SWAP1 DUP1 DUP3 MSTORE DUP1 PUSH1 0x20 MUL PUSH1 0x20 ADD DUP3 ADD PUSH1 0x40 MSTORE DUP1 ISZERO PUSH2 0x1D75 JUMPI DUP2 PUSH1 0x20 ADD JUMPDEST PUSH1 0x60 DUP2 MSTORE PUSH1 0x20 ADD SWAP1 PUSH1 0x1 SWAP1 SUB SWAP1 DUP2 PUSH2 0x1D60 JUMPI SWAP1 POP JUMPDEST POP DUP2 PUSH1 0x1 ADD SWAP1 DUP1 MLOAD SWAP1 PUSH1 0x20 ADD SWAP1 PUSH2 0x1D8D SWAP3 SWAP2 SWAP1 PUSH2 0x4272 JUMP JUMPDEST POP PUSH1 0x0 PUSH8 0xFFFFFFFFFFFFFFFF DUP2 GT ISZERO PUSH2 0x1DA9 JUMPI PUSH2 0x1DA8 PUSH2 0x4866 JUMP JUMPDEST JUMPDEST PUSH1 0x40 MLOAD SWAP1 DUP1 DUP3 MSTORE DUP1 PUSH1 0x20 MUL PUSH1 0x20 ADD DUP3 ADD PUSH1 0x40 MSTORE DUP1 ISZERO PUSH2 0x1DDC JUMPI DUP2 PUSH1 0x20 ADD JUMPDEST PUSH1 0x60 DUP2 MSTORE PUSH1 0x20 ADD SWAP1 PUSH1 0x1 SWAP1 SUB SWAP1 DUP2 PUSH2 0x1DC7 JUMPI SWAP1 POP JUMPDEST POP DUP2 PUSH1 0x2 ADD SWAP1 DUP1 MLOAD SWAP1 PUSH1 0x20 ADD SWAP1 PUSH2 0x1DF4 SWAP3 SWAP2 SWAP1 PUSH2 0x4272 JUMP JUMPDEST POP PUSH1 0x0 PUSH8 0xFFFFFFFFFFFFFFFF DUP2 GT ISZERO PUSH2 0x1E10 JUMPI PUSH2 0x1E0F PUSH2 0x4866 JUMP JUMPDEST JUMPDEST PUSH1 0x40 MLOAD SWAP1 DUP1 DUP3 MSTORE DUP1 PUSH1 0x20 MUL PUSH1 0x20 ADD DUP3 ADD PUSH1 0x40 MSTORE DUP1 ISZERO PUSH2 0x1E43 JUMPI DUP2 PUSH1 0x20 ADD JUMPDEST PUSH1 0x60 DUP2 MSTORE PUSH1 0x20 ADD SWAP1 PUSH1 0x1 SWAP1 SUB SWAP1 DUP2 PUSH2 0x1E2E JUMPI SWAP1 POP JUMPDEST POP DUP2 PUSH1 0x3 ADD SWAP1 DUP1 MLOAD SWAP1 PUSH1 0x20 ADD SWAP1 PUSH2 0x1E5B SWAP3 SWAP2 SWAP1 PUSH2 0x4272 JUMP JUMPDEST POP PUSH1 0x0 PUSH8 0xFFFFFFFFFFFFFFFF DUP2 GT ISZERO PUSH2 0x1E77 JUMPI PUSH2 0x1E76 PUSH2 0x4866 JUMP JUMPDEST JUMPDEST PUSH1 0x40 MLOAD SWAP1 DUP1 DUP3 MSTORE DUP1 PUSH1 0x20 MUL PUSH1 0x20 ADD DUP3 ADD PUSH1 0x40 MSTORE DUP1 ISZERO PUSH2 0x1EA5 JUMPI DUP2 PUSH1 0x20 ADD PUSH1 0x20 DUP3 MUL DUP1 CALLDATASIZE DUP4 CALLDATACOPY DUP1 DUP3 ADD SWAP2 POP POP SWAP1 POP JUMPDEST POP DUP2 PUSH1 0x6 ADD SWAP1 DUP1 MLOAD SWAP1 PUSH1 0x20 ADD SWAP1 PUSH2 0x1EBD SWAP3 SWAP2 SWAP1 PUSH2 0x42CB JUMP JUMPDEST POP PUSH1 0xE CALLER SWAP1 DUP1 PUSH1 0x1 DUP2 SLOAD ADD DUP1 DUP3 SSTORE DUP1 SWAP2 POP POP PUSH1 0x1 SWAP1 SUB SWAP1 PUSH1 0x0 MSTORE PUSH1 0x20 PUSH1 0x0 KECCAK256 ADD PUSH1 0x0 SWAP1 SWAP2 SWAP1 SWAP2 SWAP1 SWAP2 PUSH2 0x100 EXP DUP2 SLOAD DUP2 PUSH20 0xFFFFFFFFFFFFFFFFFFFFFFFFFFFFFFFFFFFFFFFF MUL NOT AND SWAP1 DUP4 PUSH20 0xFFFFFFFFFFFFFFFFFFFFFFFFFFFFFFFFFFFFFFFF AND MUL OR SWAP1 SSTORE POP CALLER PUSH20 0xFFFFFFFFFFFFFFFFFFFFFFFFFFFFFFFFFFFFFFFF AND PUSH32 0x48CAC28AD4DC618E15F4C2DD5E97751182F166DE97B25618318B2112AA951A2F DUP5 DUP5 PUSH1 0x40 MLOAD PUSH2 0x1F69 SWAP3 SWAP2 SWAP1 PUSH2 0x5E7B JUMP JUMPDEST PUSH1 0x40 MLOAD DUP1 SWAP2 SUB SWAP1 LOG2 POP POP POP JUMP JUMPDEST PUSH1 0x0 DUP1 PUSH20 0xFFFFFFFFFFFFFFFFFFFFFFFFFFFFFFFFFFFFFFFF AND DUP3 PUSH20 0xFFFFFFFFFFFFFFFFFFFFFFFFFFFFFFFFFFFFFFFF AND SUB PUSH2 0x1FE6 JUMPI PUSH1 0x40 MLOAD PUSH32 0x8C379A000000000000000000000000000000000000000000000000000000000 DUP2 MSTORE PUSH1 0x4 ADD PUSH2 0x1FDD SWAP1 PUSH2 0x617D JUMP JUMPDEST PUSH1 0x40 MLOAD DUP1 SWAP2 SUB SWAP1 REVERT JUMPDEST PUSH1 0x3 PUSH1 0x0 DUP4 PUSH20 0xFFFFFFFFFFFFFFFFFFFFFFFFFFFFFFFFFFFFFFFF AND PUSH20 0xFFFFFFFFFFFFFFFFFFFFFFFFFFFFFFFFFFFFFFFF AND DUP2 MSTORE PUSH1 0x20 ADD SWAP1 DUP2 MSTORE PUSH1 0x20 ADD PUSH1 0x0 KECCAK256 SLOAD SWAP1 POP SWAP2 SWAP1 POP JUMP JUMPDEST PUSH2 0x2035 PUSH2 0x4318 JUMP JUMPDEST PUSH1 0x0 PUSH1 0xA DUP5 DUP5 PUSH1 0x40 MLOAD PUSH2 0x2049 SWAP3 SWAP2 SWAP1 PUSH2 0x57B3 JUMP JUMPDEST SWAP1 DUP2 MSTORE PUSH1 0x20 ADD PUSH1 0x40 MLOAD DUP1 SWAP2 SUB SWAP1 KECCAK256 PUSH1 0x0 ADD DUP1 SLOAD PUSH2 0x2065 SWAP1 PUSH2 0x5530 JUMP JUMPDEST SWAP1 POP GT PUSH2 0x20A7 JUMPI PUSH1 0x40 MLOAD PUSH32 0x8C379A000000000000000000000000000000000000000000000000000000000 DUP2 MSTORE PUSH1 0x4 ADD PUSH2 0x209E SWAP1 PUSH2 0x5F57 JUMP JUMPDEST PUSH1 0x40 MLOAD DUP1 SWAP2 SUB SWAP1 REVERT JUMPDEST PUSH1 0xA DUP4 DUP4 PUSH1 0x40 MLOAD PUSH2 0x20B9 SWAP3 SWAP2 SWAP1 PUSH2 0x57B3 JUMP JUMPDEST SWAP1 DUP2 MSTORE PUSH1 0x20 ADD PUSH1 0x40 MLOAD DUP1 SWAP2 SUB SWAP1 KECCAK256 PUSH1 0x40 MLOAD DUP1 PUSH1 0xA0 ADD PUSH1 0x40 MSTORE SWAP1 DUP2 PUSH1 0x0 DUP3 ADD DUP1 SLOAD PUSH2 0x20E2 SWAP1 PUSH2 0x5530 JUMP JUMPDEST DUP1 PUSH1 0x1F ADD PUSH1 0x20 DUP1 SWAP2 DIV MUL PUSH1 0x20 ADD PUSH1 0x40 MLOAD SWAP1 DUP2 ADD PUSH1 0x40 MSTORE DUP1 SWAP3 SWAP2 SWAP1 DUP2 DUP2 MSTORE PUSH1 0x20 ADD DUP3 DUP1 SLOAD PUSH2 0x210E SWAP1 PUSH2 0x5530 JUMP JUMPDEST DUP1 ISZERO PUSH2 0x215B JUMPI DUP1 PUSH1 0x1F LT PUSH2 0x2130 JUMPI PUSH2 0x100 DUP1 DUP4 SLOAD DIV MUL DUP4 MSTORE SWAP2 PUSH1 0x20 ADD SWAP2 PUSH2 0x215B JUMP JUMPDEST DUP3 ADD SWAP2 SWAP1 PUSH1 0x0 MSTORE PUSH1 0x20 PUSH1 0x0 KECCAK256 SWAP1 JUMPDEST DUP2 SLOAD DUP2 MSTORE SWAP1 PUSH1 0x1 ADD SWAP1 PUSH1 0x20 ADD DUP1 DUP4 GT PUSH2 0x213E JUMPI DUP3 SWAP1 SUB PUSH1 0x1F AND DUP3 ADD SWAP2 JUMPDEST POP POP POP POP POP DUP2 MSTORE PUSH1 0x20 ADD PUSH1 0x1 DUP3 ADD DUP1 SLOAD PUSH2 0x2174 SWAP1 PUSH2 0x5530 JUMP JUMPDEST DUP1 PUSH1 0x1F ADD PUSH1 0x20 DUP1 SWAP2 DIV MUL PUSH1 0x20 ADD PUSH1 0x40 MLOAD SWAP1 DUP2 ADD PUSH1 0x40 MSTORE DUP1 SWAP3 SWAP2 SWAP1 DUP2 DUP2 MSTORE PUSH1 0x20 ADD DUP3 DUP1 SLOAD PUSH2 0x21A0 SWAP1 PUSH2 0x5530 JUMP JUMPDEST DUP1 ISZERO PUSH2 0x21ED JUMPI DUP1 PUSH1 0x1F LT PUSH2 0x21C2 JUMPI PUSH2 0x100 DUP1 DUP4 SLOAD DIV MUL DUP4 MSTORE SWAP2 PUSH1 0x20 ADD SWAP2 PUSH2 0x21ED JUMP JUMPDEST DUP3 ADD SWAP2 SWAP1 PUSH1 0x0 MSTORE PUSH1 0x20 PUSH1 0x0 KECCAK256 SWAP1 JUMPDEST DUP2 SLOAD DUP2 MSTORE SWAP1 PUSH1 0x1 ADD SWAP1 PUSH1 0x20 ADD DUP1 DUP4 GT PUSH2 0x21D0 JUMPI DUP3 SWAP1 SUB PUSH1 0x1F AND DUP3 ADD SWAP2 JUMPDEST POP POP POP POP POP DUP2 MSTORE PUSH1 0x20 ADD PUSH1 0x2 DUP3 ADD DUP1 SLOAD PUSH2 0x2206 SWAP1 PUSH2 0x5530 JUMP JUMPDEST DUP1 PUSH1 0x1F ADD PUSH1 0x20 DUP1 SWAP2 DIV MUL PUSH1 0x20 ADD PUSH1 0x40 MLOAD SWAP1 DUP2 ADD PUSH1 0x40 MSTORE DUP1 SWAP3 SWAP2 SWAP1 DUP2 DUP2 MSTORE PUSH1 0x20 ADD DUP3 DUP1 SLOAD PUSH2 0x2232 SWAP1 PUSH2 0x5530 JUMP JUMPDEST DUP1 ISZERO PUSH2 0x227F JUMPI DUP1 PUSH1 0x1F LT PUSH2 0x2254 JUMPI PUSH2 0x100 DUP1 DUP4 SLOAD DIV MUL DUP4 MSTORE SWAP2 PUSH1 0x20 ADD SWAP2 PUSH2 0x227F JUMP JUMPDEST DUP3 ADD SWAP2 SWAP1 PUSH1 0x0 MSTORE PUSH1 0x20 PUSH1 0x0 KECCAK256 SWAP1 JUMPDEST DUP2 SLOAD DUP2 MSTORE SWAP1 PUSH1 0x1 ADD SWAP1 PUSH1 0x20 ADD DUP1 DUP4 GT PUSH2 0x2262 JUMPI DUP3 SWAP1 SUB PUSH1 0x1F AND DUP3 ADD SWAP2 JUMPDEST POP POP POP POP POP DUP2 MSTORE PUSH1 0x20 ADD PUSH1 0x3 DUP3 ADD DUP1 SLOAD PUSH2 0x2298 SWAP1 PUSH2 0x5530 JUMP JUMPDEST DUP1 PUSH1 0x1F ADD PUSH1 0x20 DUP1 SWAP2 DIV MUL PUSH1 0x20 ADD PUSH1 0x40 MLOAD SWAP1 DUP2 ADD PUSH1 0x40 MSTORE DUP1 SWAP3 SWAP2 SWAP1 DUP2 DUP2 MSTORE PUSH1 0x20 ADD DUP3 DUP1 SLOAD PUSH2 0x22C4 SWAP1 PUSH2 0x5530 JUMP JUMPDEST DUP1 ISZERO PUSH2 0x2311 JUMPI DUP1 PUSH1 0x1F LT PUSH2 0x22E6 JUMPI PUSH2 0x100 DUP1 DUP4 SLOAD DIV MUL DUP4 MSTORE SWAP2 PUSH1 0x20 ADD SWAP2 PUSH2 0x2311 JUMP JUMPDEST DUP3 ADD SWAP2 SWAP1 PUSH1 0x0 MSTORE PUSH1 0x20 PUSH1 0x0 KECCAK256 SWAP1 JUMPDEST DUP2 SLOAD DUP2 MSTORE SWAP1 PUSH1 0x1 ADD SWAP1 PUSH1 0x20 ADD DUP1 DUP4 GT PUSH2 0x22F4 JUMPI DUP3 SWAP1 SUB PUSH1 0x1F AND DUP3 ADD SWAP2 JUMPDEST POP POP POP POP POP DUP2 MSTORE PUSH1 0x20 ADD PUSH1 0x4 DUP3 ADD PUSH1 0x0 SWAP1 SLOAD SWAP1 PUSH2 0x100 EXP SWAP1 DIV PUSH2 0xFFFF AND PUSH2 0xFFFF AND PUSH2 0xFFFF AND DUP2 MSTORE POP POP SWAP1 POP SWAP3 SWAP2 POP POP JUMP JUMPDEST PUSH1 0x60 PUSH1 0xF DUP1 SLOAD DUP1 PUSH1 0x20 MUL PUSH1 0x20 ADD PUSH1 0x40 MLOAD SWAP1 DUP2 ADD PUSH1 0x40 MSTORE DUP1 SWAP3 SWAP2 SWAP1 DUP2 DUP2 MSTORE PUSH1 0x20 ADD PUSH1 0x0 SWAP1 JUMPDEST DUP3 DUP3 LT ISZERO PUSH2 0x2412 JUMPI DUP4 DUP3 SWAP1 PUSH1 0x0 MSTORE PUSH1 0x20 PUSH1 0x0 KECCAK256 ADD DUP1 SLOAD PUSH2 0x2385 SWAP1 PUSH2 0x5530 JUMP JUMPDEST DUP1 PUSH1 0x1F ADD PUSH1 0x20 DUP1 SWAP2 DIV MUL PUSH1 0x20 ADD PUSH1 0x40 MLOAD SWAP1 DUP2 ADD PUSH1 0x40 MSTORE DUP1 SWAP3 SWAP2 SWAP1 DUP2 DUP2 MSTORE PUSH1 0x20 ADD DUP3 DUP1 SLOAD PUSH2 0x23B1 SWAP1 PUSH2 0x5530 JUMP JUMPDEST DUP1 ISZERO PUSH2 0x23FE JUMPI DUP1 PUSH1 0x1F LT PUSH2 0x23D3 JUMPI PUSH2 0x100 DUP1 DUP4 SLOAD DIV MUL DUP4 MSTORE SWAP2 PUSH1 0x20 ADD SWAP2 PUSH2 0x23FE JUMP JUMPDEST DUP3 ADD SWAP2 SWAP1 PUSH1 0x0 MSTORE PUSH1 0x20 PUSH1 0x0 KECCAK256 SWAP1 JUMPDEST DUP2 SLOAD DUP2 MSTORE SWAP1 PUSH1 0x1 ADD SWAP1 PUSH1 0x20 ADD DUP1 DUP4 GT PUSH2 0x23E1 JUMPI DUP3 SWAP1 SUB PUSH1 0x1F AND DUP3 ADD SWAP2 JUMPDEST POP POP POP POP POP DUP2 MSTORE PUSH1 0x20 ADD SWAP1 PUSH1 0x1 ADD SWAP1 PUSH2 0x2366 JUMP JUMPDEST POP POP POP POP SWAP1 POP SWAP1 JUMP JUMPDEST PUSH1 0x9 PUSH1 0x0 CALLER PUSH20 0xFFFFFFFFFFFFFFFFFFFFFFFFFFFFFFFFFFFFFFFF AND PUSH20 0xFFFFFFFFFFFFFFFFFFFFFFFFFFFFFFFFFFFFFFFF AND DUP2 MSTORE PUSH1 0x20 ADD SWAP1 DUP2 MSTORE PUSH1 0x20 ADD PUSH1 0x0 KECCAK256 PUSH1 0x7 ADD PUSH1 0x0 SWAP1 SLOAD SWAP1 PUSH2 0x100 EXP SWAP1 DIV PUSH1 0xFF AND PUSH2 0x24AA JUMPI PUSH1 0x40 MLOAD PUSH32 0x8C379A000000000000000000000000000000000000000000000000000000000 DUP2 MSTORE PUSH1 0x4 ADD PUSH2 0x24A1 SWAP1 PUSH2 0x5C4B JUMP JUMPDEST PUSH1 0x40 MLOAD DUP1 SWAP2 SUB SWAP1 REVERT JUMPDEST PUSH1 0x0 DUP3 DUP3 PUSH1 0x40 MLOAD PUSH1 0x20 ADD PUSH2 0x24BF SWAP3 SWAP2 SWAP1 PUSH2 0x57B3 JUMP JUMPDEST PUSH1 0x40 MLOAD PUSH1 0x20 DUP2 DUP4 SUB SUB DUP2 MSTORE SWAP1 PUSH1 0x40 MSTORE DUP1 MLOAD SWAP1 PUSH1 0x20 ADD KECCAK256 SWAP1 POP PUSH1 0x40 MLOAD PUSH1 0x20 ADD PUSH2 0x24E6 SWAP1 PUSH2 0x61E9 JUMP JUMPDEST PUSH1 0x40 MLOAD PUSH1 0x20 DUP2 DUP4 SUB SUB DUP2 MSTORE SWAP1 PUSH1 0x40 MSTORE DUP1 MLOAD SWAP1 PUSH1 0x20 ADD KECCAK256 DUP2 SUB PUSH2 0x257C JUMPI PUSH1 0x9 PUSH1 0x0 CALLER PUSH20 0xFFFFFFFFFFFFFFFFFFFFFFFFFFFFFFFFFFFFFFFF AND PUSH20 0xFFFFFFFFFFFFFFFFFFFFFFFFFFFFFFFFFFFFFFFF AND DUP2 MSTORE PUSH1 0x20 ADD SWAP1 DUP2 MSTORE PUSH1 0x20 ADD PUSH1 0x0 KECCAK256 PUSH1 0x3 ADD DUP5 SWAP1 DUP1 PUSH1 0x1 DUP2 SLOAD ADD DUP1 DUP3 SSTORE DUP1 SWAP2 POP POP PUSH1 0x1 SWAP1 SUB SWAP1 PUSH1 0x0 MSTORE PUSH1 0x20 PUSH1 0x0 KECCAK256 ADD PUSH1 0x0 SWAP1 SWAP2 SWAP1 SWAP2 SWAP1 SWAP2 POP SWAP1 DUP2 PUSH2 0x2576 SWAP2 SWAP1 PUSH2 0x59E4 JUMP JUMPDEST POP PUSH2 0x265D JUMP JUMPDEST PUSH1 0x40 MLOAD PUSH1 0x20 ADD PUSH2 0x258B SWAP1 PUSH2 0x624A JUMP JUMPDEST PUSH1 0x40 MLOAD PUSH1 0x20 DUP2 DUP4 SUB SUB DUP2 MSTORE SWAP1 PUSH1 0x40 MSTORE DUP1 MLOAD SWAP1 PUSH1 0x20 ADD KECCAK256 DUP2 SUB PUSH2 0x2621 JUMPI PUSH1 0x9 PUSH1 0x0 CALLER PUSH20 0xFFFFFFFFFFFFFFFFFFFFFFFFFFFFFFFFFFFFFFFF AND PUSH20 0xFFFFFFFFFFFFFFFFFFFFFFFFFFFFFFFFFFFFFFFF AND DUP2 MSTORE PUSH1 0x20 ADD SWAP1 DUP2 MSTORE PUSH1 0x20 ADD PUSH1 0x0 KECCAK256 PUSH1 0x2 ADD DUP5 SWAP1 DUP1 PUSH1 0x1 DUP2 SLOAD ADD DUP1 DUP3 SSTORE DUP1 SWAP2 POP POP PUSH1 0x1 SWAP1 SUB SWAP1 PUSH1 0x0 MSTORE PUSH1 0x20 PUSH1 0x0 KECCAK256 ADD PUSH1 0x0 SWAP1 SWAP2 SWAP1 SWAP2 SWAP1 SWAP2 POP SWAP1 DUP2 PUSH2 0x261B SWAP2 SWAP1 PUSH2 0x59E4 JUMP JUMPDEST POP PUSH2 0x265C JUMP JUMPDEST PUSH1 0x40 MLOAD PUSH32 0x8C379A000000000000000000000000000000000000000000000000000000000 DUP2 MSTORE PUSH1 0x4 ADD PUSH2 0x2653 SWAP1 PUSH2 0x62AB JUMP JUMPDEST PUSH1 0x40 MLOAD DUP1 SWAP2 SUB SWAP1 REVERT JUMPDEST JUMPDEST CALLER PUSH20 0xFFFFFFFFFFFFFFFFFFFFFFFFFFFFFFFFFFFFFFFF AND PUSH32 0x4B91165A689896F9262F48B04F31915F16A411F35147DA8B992ADDAEAA509B39 DUP6 PUSH1 0x40 MLOAD PUSH2 0x26A3 SWAP2 SWAP1 PUSH2 0x4579 JUMP JUMPDEST PUSH1 0x40 MLOAD DUP1 SWAP2 SUB SWAP1 LOG2 POP POP POP POP JUMP JUMPDEST PUSH2 0x26B9 PUSH2 0x434B JUMP JUMPDEST PUSH1 0x9 PUSH1 0x0 CALLER PUSH20 0xFFFFFFFFFFFFFFFFFFFFFFFFFFFFFFFFFFFFFFFF AND PUSH20 0xFFFFFFFFFFFFFFFFFFFFFFFFFFFFFFFFFFFFFFFF AND DUP2 MSTORE PUSH1 0x20 ADD SWAP1 DUP2 MSTORE PUSH1 0x20 ADD PUSH1 0x0 KECCAK256 PUSH1 0x7 ADD PUSH1 0x0 SWAP1 SLOAD SWAP1 PUSH2 0x100 EXP SWAP1 DIV PUSH1 0xFF AND PUSH2 0x2748 JUMPI PUSH1 0x40 MLOAD PUSH32 0x8C379A000000000000000000000000000000000000000000000000000000000 DUP2 MSTORE PUSH1 0x4 ADD PUSH2 0x273F SWAP1 PUSH2 0x5C4B JUMP JUMPDEST PUSH1 0x40 MLOAD DUP1 SWAP2 SUB SWAP1 REVERT JUMPDEST PUSH1 0x9 PUSH1 0x0 CALLER PUSH20 0xFFFFFFFFFFFFFFFFFFFFFFFFFFFFFFFFFFFFFFFF AND PUSH20 0xFFFFFFFFFFFFFFFFFFFFFFFFFFFFFFFFFFFFFFFF AND DUP2 MSTORE PUSH1 0x20 ADD SWAP1 DUP2 MSTORE PUSH1 0x20 ADD PUSH1 0x0 KECCAK256 PUSH1 0x40 MLOAD DUP1 PUSH2 0x120 ADD PUSH1 0x40 MSTORE SWAP1 DUP2 PUSH1 0x0 DUP3 ADD DUP1 SLOAD PUSH2 0x27A3 SWAP1 PUSH2 0x5530 JUMP JUMPDEST DUP1 PUSH1 0x1F ADD PUSH1 0x20 DUP1 SWAP2 DIV MUL PUSH1 0x20 ADD PUSH1 0x40 MLOAD SWAP1 DUP2 ADD PUSH1 0x40 MSTORE DUP1 SWAP3 SWAP2 SWAP1 DUP2 DUP2 MSTORE PUSH1 0x20 ADD DUP3 DUP1 SLOAD PUSH2 0x27CF SWAP1 PUSH2 0x5530 JUMP JUMPDEST DUP1 ISZERO PUSH2 0x281C JUMPI DUP1 PUSH1 0x1F LT PUSH2 0x27F1 JUMPI PUSH2 0x100 DUP1 DUP4 SLOAD DIV MUL DUP4 MSTORE SWAP2 PUSH1 0x20 ADD SWAP2 PUSH2 0x281C JUMP JUMPDEST DUP3 ADD SWAP2 SWAP1 PUSH1 0x0 MSTORE PUSH1 0x20 PUSH1 0x0 KECCAK256 SWAP1 JUMPDEST DUP2 SLOAD DUP2 MSTORE SWAP1 PUSH1 0x1 ADD SWAP1 PUSH1 0x20 ADD DUP1 DUP4 GT PUSH2 0x27FF JUMPI DUP3 SWAP1 SUB PUSH1 0x1F AND DUP3 ADD SWAP2 JUMPDEST POP POP POP POP POP DUP2 MSTORE PUSH1 0x20 ADD PUSH1 0x1 DUP3 ADD DUP1 SLOAD DUP1 PUSH1 0x20 MUL PUSH1 0x20 ADD PUSH1 0x40 MLOAD SWAP1 DUP2 ADD PUSH1 0x40 MSTORE DUP1 SWAP3 SWAP2 SWAP1 DUP2 DUP2 MSTORE PUSH1 0x20 ADD PUSH1 0x0 SWAP1 JUMPDEST DUP3 DUP3 LT ISZERO PUSH2 0x28F6 JUMPI DUP4 DUP3 SWAP1 PUSH1 0x0 MSTORE PUSH1 0x20 PUSH1 0x0 KECCAK256 ADD DUP1 SLOAD PUSH2 0x2869 SWAP1 PUSH2 0x5530 JUMP JUMPDEST DUP1 PUSH1 0x1F ADD PUSH1 0x20 DUP1 SWAP2 DIV MUL PUSH1 0x20 ADD PUSH1 0x40 MLOAD SWAP1 DUP2 ADD PUSH1 0x40 MSTORE DUP1 SWAP3 SWAP2 SWAP1 DUP2 DUP2 MSTORE PUSH1 0x20 ADD DUP3 DUP1 SLOAD PUSH2 0x2895 SWAP1 PUSH2 0x5530 JUMP JUMPDEST DUP1 ISZERO PUSH2 0x28E2 JUMPI DUP1 PUSH1 0x1F LT PUSH2 0x28B7 JUMPI PUSH2 0x100 DUP1 DUP4 SLOAD DIV MUL DUP4 MSTORE SWAP2 PUSH1 0x20 ADD SWAP2 PUSH2 0x28E2 JUMP JUMPDEST DUP3 ADD SWAP2 SWAP1 PUSH1 0x0 MSTORE PUSH1 0x20 PUSH1 0x0 KECCAK256 SWAP1 JUMPDEST DUP2 SLOAD DUP2 MSTORE SWAP1 PUSH1 0x1 ADD SWAP1 PUSH1 0x20 ADD DUP1 DUP4 GT PUSH2 0x28C5 JUMPI DUP3 SWAP1 SUB PUSH1 0x1F AND DUP3 ADD SWAP2 JUMPDEST POP POP POP POP POP DUP2 MSTORE PUSH1 0x20 ADD SWAP1 PUSH1 0x1 ADD SWAP1 PUSH2 0x284A JUMP JUMPDEST POP POP POP POP DUP2 MSTORE PUSH1 0x20 ADD PUSH1 0x2 DUP3 ADD DUP1 SLOAD DUP1 PUSH1 0x20 MUL PUSH1 0x20 ADD PUSH1 0x40 MLOAD SWAP1 DUP2 ADD PUSH1 0x40 MSTORE DUP1 SWAP3 SWAP2 SWAP1 DUP2 DUP2 MSTORE PUSH1 0x20 ADD PUSH1 0x0 SWAP1 JUMPDEST DUP3 DUP3 LT ISZERO PUSH2 0x29CF JUMPI DUP4 DUP3 SWAP1 PUSH1 0x0 MSTORE PUSH1 0x20 PUSH1 0x0 KECCAK256 ADD DUP1 SLOAD PUSH2 0x2942 SWAP1 PUSH2 0x5530 JUMP JUMPDEST DUP1 PUSH1 0x1F ADD PUSH1 0x20 DUP1 SWAP2 DIV MUL PUSH1 0x20 ADD PUSH1 0x40 MLOAD SWAP1 DUP2 ADD PUSH1 0x40 MSTORE DUP1 SWAP3 SWAP2 SWAP1 DUP2 DUP2 MSTORE PUSH1 0x20 ADD DUP3 DUP1 SLOAD PUSH2 0x296E SWAP1 PUSH2 0x5530 JUMP JUMPDEST DUP1 ISZERO PUSH2 0x29BB JUMPI DUP1 PUSH1 0x1F LT PUSH2 0x2990 JUMPI PUSH2 0x100 DUP1 DUP4 SLOAD DIV MUL DUP4 MSTORE SWAP2 PUSH1 0x20 ADD SWAP2 PUSH2 0x29BB JUMP JUMPDEST DUP3 ADD SWAP2 SWAP1 PUSH1 0x0 MSTORE PUSH1 0x20 PUSH1 0x0 KECCAK256 SWAP1 JUMPDEST DUP2 SLOAD DUP2 MSTORE SWAP1 PUSH1 0x1 ADD SWAP1 PUSH1 0x20 ADD DUP1 DUP4 GT PUSH2 0x299E JUMPI DUP3 SWAP1 SUB PUSH1 0x1F AND DUP3 ADD SWAP2 JUMPDEST POP POP POP POP POP DUP2 MSTORE PUSH1 0x20 ADD SWAP1 PUSH1 0x1 ADD SWAP1 PUSH2 0x2923 JUMP JUMPDEST POP POP POP POP DUP2 MSTORE PUSH1 0x20 ADD PUSH1 0x3 DUP3 ADD DUP1 SLOAD DUP1 PUSH1 0x20 MUL PUSH1 0x20 ADD PUSH1 0x40 MLOAD SWAP1 DUP2 ADD PUSH1 0x40 MSTORE DUP1 SWAP3 SWAP2 SWAP1 DUP2 DUP2 MSTORE PUSH1 0x20 ADD PUSH1 0x0 SWAP1 JUMPDEST DUP3 DUP3 LT ISZERO PUSH2 0x2AA8 JUMPI DUP4 DUP3 SWAP1 PUSH1 0x0 MSTORE PUSH1 0x20 PUSH1 0x0 KECCAK256 ADD DUP1 SLOAD PUSH2 0x2A1B SWAP1 PUSH2 0x5530 JUMP JUMPDEST DUP1 PUSH1 0x1F ADD PUSH1 0x20 DUP1 SWAP2 DIV MUL PUSH1 0x20 ADD PUSH1 0x40 MLOAD SWAP1 DUP2 ADD PUSH1 0x40 MSTORE DUP1 SWAP3 SWAP2 SWAP1 DUP2 DUP2 MSTORE PUSH1 0x20 ADD DUP3 DUP1 SLOAD PUSH2 0x2A47 SWAP1 PUSH2 0x5530 JUMP JUMPDEST DUP1 ISZERO PUSH2 0x2A94 JUMPI DUP1 PUSH1 0x1F LT PUSH2 0x2A69 JUMPI PUSH2 0x100 DUP1 DUP4 SLOAD DIV MUL DUP4 MSTORE SWAP2 PUSH1 0x20 ADD SWAP2 PUSH2 0x2A94 JUMP JUMPDEST DUP3 ADD SWAP2 SWAP1 PUSH1 0x0 MSTORE PUSH1 0x20 PUSH1 0x0 KECCAK256 SWAP1 JUMPDEST DUP2 SLOAD DUP2 MSTORE SWAP1 PUSH1 0x1 ADD SWAP1 PUSH1 0x20 ADD DUP1 DUP4 GT PUSH2 0x2A77 JUMPI DUP3 SWAP1 SUB PUSH1 0x1F AND DUP3 ADD SWAP2 JUMPDEST POP POP POP POP POP DUP2 MSTORE PUSH1 0x20 ADD SWAP1 PUSH1 0x1 ADD SWAP1 PUSH2 0x29FC JUMP JUMPDEST POP POP POP POP DUP2 MSTORE PUSH1 0x20 ADD PUSH1 0x4 DUP3 ADD DUP1 SLOAD DUP1 PUSH1 0x20 MUL PUSH1 0x20 ADD PUSH1 0x40 MLOAD SWAP1 DUP2 ADD PUSH1 0x40 MSTORE DUP1 SWAP3 SWAP2 SWAP1 DUP2 DUP2 MSTORE PUSH1 0x20 ADD PUSH1 0x0 SWAP1 JUMPDEST DUP3 DUP3 LT ISZERO PUSH2 0x2BB9 JUMPI DUP4 DUP3 SWAP1 PUSH1 0x0 MSTORE PUSH1 0x20 PUSH1 0x0 KECCAK256 SWAP1 PUSH1 0x2 MUL ADD PUSH1 0x40 MLOAD DUP1 PUSH1 0x40 ADD PUSH1 0x40 MSTORE SWAP1 DUP2 PUSH1 0x0 DUP3 ADD DUP1 SLOAD PUSH2 0x2B08 SWAP1 PUSH2 0x5530 JUMP JUMPDEST DUP1 PUSH1 0x1F ADD PUSH1 0x20 DUP1 SWAP2 DIV MUL PUSH1 0x20 ADD PUSH1 0x40 MLOAD SWAP1 DUP2 ADD PUSH1 0x40 MSTORE DUP1 SWAP3 SWAP2 SWAP1 DUP2 DUP2 MSTORE PUSH1 0x20 ADD DUP3 DUP1 SLOAD PUSH2 0x2B34 SWAP1 PUSH2 0x5530 JUMP JUMPDEST DUP1 ISZERO PUSH2 0x2B81 JUMPI DUP1 PUSH1 0x1F LT PUSH2 0x2B56 JUMPI PUSH2 0x100 DUP1 DUP4 SLOAD DIV MUL DUP4 MSTORE SWAP2 PUSH1 0x20 ADD SWAP2 PUSH2 0x2B81 JUMP JUMPDEST DUP3 ADD SWAP2 SWAP1 PUSH1 0x0 MSTORE PUSH1 0x20 PUSH1 0x0 KECCAK256 SWAP1 JUMPDEST DUP2 SLOAD DUP2 MSTORE SWAP1 PUSH1 0x1 ADD SWAP1 PUSH1 0x20 ADD DUP1 DUP4 GT PUSH2 0x2B64 JUMPI DUP3 SWAP1 SUB PUSH1 0x1F AND DUP3 ADD SWAP2 JUMPDEST POP POP POP POP POP DUP2 MSTORE PUSH1 0x20 ADD PUSH1 0x1 DUP3 ADD PUSH1 0x0 SWAP1 SLOAD SWAP1 PUSH2 0x100 EXP SWAP1 DIV PUSH2 0xFFFF AND PUSH2 0xFFFF AND PUSH2 0xFFFF AND DUP2 MSTORE POP POP DUP2 MSTORE PUSH1 0x20 ADD SWAP1 PUSH1 0x1 ADD SWAP1 PUSH2 0x2AD5 JUMP JUMPDEST POP POP POP POP DUP2 MSTORE PUSH1 0x20 ADD PUSH1 0x5 DUP3 ADD DUP1 SLOAD PUSH2 0x2BD1 SWAP1 PUSH2 0x5530 JUMP JUMPDEST DUP1 PUSH1 0x1F ADD PUSH1 0x20 DUP1 SWAP2 DIV MUL PUSH1 0x20 ADD PUSH1 0x40 MLOAD SWAP1 DUP2 ADD PUSH1 0x40 MSTORE DUP1 SWAP3 SWAP2 SWAP1 DUP2 DUP2 MSTORE PUSH1 0x20 ADD DUP3 DUP1 SLOAD PUSH2 0x2BFD SWAP1 PUSH2 0x5530 JUMP JUMPDEST DUP1 ISZERO PUSH2 0x2C4A JUMPI DUP1 PUSH1 0x1F LT PUSH2 0x2C1F JUMPI PUSH2 0x100 DUP1 DUP4 SLOAD DIV MUL DUP4 MSTORE SWAP2 PUSH1 0x20 ADD SWAP2 PUSH2 0x2C4A JUMP JUMPDEST DUP3 ADD SWAP2 SWAP1 PUSH1 0x0 MSTORE PUSH1 0x20 PUSH1 0x0 KECCAK256 SWAP1 JUMPDEST DUP2 SLOAD DUP2 MSTORE SWAP1 PUSH1 0x1 ADD SWAP1 PUSH1 0x20 ADD DUP1 DUP4 GT PUSH2 0x2C2D JUMPI DUP3 SWAP1 SUB PUSH1 0x1F AND DUP3 ADD SWAP2 JUMPDEST POP POP POP POP POP DUP2 MSTORE PUSH1 0x20 ADD PUSH1 0x6 DUP3 ADD DUP1 SLOAD DUP1 PUSH1 0x20 MUL PUSH1 0x20 ADD PUSH1 0x40 MLOAD SWAP1 DUP2 ADD PUSH1 0x40 MSTORE DUP1 SWAP3 SWAP2 SWAP1 DUP2 DUP2 MSTORE PUSH1 0x20 ADD DUP3 DUP1 SLOAD DUP1 ISZERO PUSH2 0x2CA2 JUMPI PUSH1 0x20 MUL DUP3 ADD SWAP2 SWAP1 PUSH1 0x0 MSTORE PUSH1 0x20 PUSH1 0x0 KECCAK256 SWAP1 JUMPDEST DUP2 SLOAD DUP2 MSTORE PUSH1 0x20 ADD SWAP1 PUSH1 0x1 ADD SWAP1 DUP1 DUP4 GT PUSH2 0x2C8E JUMPI JUMPDEST POP POP POP POP POP DUP2 MSTORE PUSH1 0x20 ADD PUSH1 0x7 DUP3 ADD PUSH1 0x0 SWAP1 SLOAD SWAP1 PUSH2 0x100 EXP SWAP1 DIV PUSH1 0xFF AND ISZERO ISZERO ISZERO ISZERO DUP2 MSTORE PUSH1 0x20 ADD PUSH1 0x8 DUP3 ADD DUP1 SLOAD DUP1 PUSH1 0x20 MUL PUSH1 0x20 ADD PUSH1 0x40 MLOAD SWAP1 DUP2 ADD PUSH1 0x40 MSTORE DUP1 SWAP3 SWAP2 SWAP1 DUP2 DUP2 MSTORE PUSH1 0x20 ADD PUSH1 0x0 SWAP1 JUMPDEST DUP3 DUP3 LT ISZERO PUSH2 0x2D97 JUMPI DUP4 DUP3 SWAP1 PUSH1 0x0 MSTORE PUSH1 0x20 PUSH1 0x0 KECCAK256 ADD DUP1 SLOAD PUSH2 0x2D0A SWAP1 PUSH2 0x5530 JUMP JUMPDEST DUP1 PUSH1 0x1F ADD PUSH1 0x20 DUP1 SWAP2 DIV MUL PUSH1 0x20 ADD PUSH1 0x40 MLOAD SWAP1 DUP2 ADD PUSH1 0x40 MSTORE DUP1 SWAP3 SWAP2 SWAP1 DUP2 DUP2 MSTORE PUSH1 0x20 ADD DUP3 DUP1 SLOAD PUSH2 0x2D36 SWAP1 PUSH2 0x5530 JUMP JUMPDEST DUP1 ISZERO PUSH2 0x2D83 JUMPI DUP1 PUSH1 0x1F LT PUSH2 0x2D58 JUMPI PUSH2 0x100 DUP1 DUP4 SLOAD DIV MUL DUP4 MSTORE SWAP2 PUSH1 0x20 ADD SWAP2 PUSH2 0x2D83 JUMP JUMPDEST DUP3 ADD SWAP2 SWAP1 PUSH1 0x0 MSTORE PUSH1 0x20 PUSH1 0x0 KECCAK256 SWAP1 JUMPDEST DUP2 SLOAD DUP2 MSTORE SWAP1 PUSH1 0x1 ADD SWAP1 PUSH1 0x20 ADD DUP1 DUP4 GT PUSH2 0x2D66 JUMPI DUP3 SWAP1 SUB PUSH1 0x1F AND DUP3 ADD SWAP2 JUMPDEST POP POP POP POP POP DUP2 MSTORE PUSH1 0x20 ADD SWAP1 PUSH1 0x1 ADD SWAP1 PUSH2 0x2CEB JUMP JUMPDEST POP POP POP POP DUP2 MSTORE POP POP SWAP1 POP SWAP1 JUMP JUMPDEST PUSH1 0x60 PUSH1 0x1 DUP1 SLOAD PUSH2 0x2DB3 SWAP1 PUSH2 0x5530 JUMP JUMPDEST DUP1 PUSH1 0x1F ADD PUSH1 0x20 DUP1 SWAP2 DIV MUL PUSH1 0x20 ADD PUSH1 0x40 MLOAD SWAP1 DUP2 ADD PUSH1 0x40 MSTORE DUP1 SWAP3 SWAP2 SWAP1 DUP2 DUP2 MSTORE PUSH1 0x20 ADD DUP3 DUP1 SLOAD PUSH2 0x2DDF SWAP1 PUSH2 0x5530 JUMP JUMPDEST DUP1 ISZERO PUSH2 0x2E2C JUMPI DUP1 PUSH1 0x1F LT PUSH2 0x2E01 JUMPI PUSH2 0x100 DUP1 DUP4 SLOAD DIV MUL DUP4 MSTORE SWAP2 PUSH1 0x20 ADD SWAP2 PUSH2 0x2E2C JUMP JUMPDEST DUP3 ADD SWAP2 SWAP1 PUSH1 0x0 MSTORE PUSH1 0x20 PUSH1 0x0 KECCAK256 SWAP1 JUMPDEST DUP2 SLOAD DUP2 MSTORE SWAP1 PUSH1 0x1 ADD SWAP1 PUSH1 0x20 ADD DUP1 DUP4 GT PUSH2 0x2E0F JUMPI DUP3 SWAP1 SUB PUSH1 0x1F AND DUP3 ADD SWAP2 JUMPDEST POP POP POP POP POP SWAP1 POP SWAP1 JUMP JUMPDEST PUSH2 0x2E48 PUSH2 0x2E41 PUSH2 0x36B2 JUMP JUMPDEST DUP4 DUP4 PUSH2 0x3CB4 JUMP JUMPDEST POP POP JUMP JUMPDEST PUSH1 0x60 PUSH1 0xD DUP1 SLOAD DUP1 PUSH1 0x20 MUL PUSH1 0x20 ADD PUSH1 0x40 MLOAD SWAP1 DUP2 ADD PUSH1 0x40 MSTORE DUP1 SWAP3 SWAP2 SWAP1 DUP2 DUP2 MSTORE PUSH1 0x20 ADD PUSH1 0x0 SWAP1 JUMPDEST DUP3 DUP3 LT ISZERO PUSH2 0x2F1C JUMPI DUP4 DUP3 SWAP1 PUSH1 0x0 MSTORE PUSH1 0x20 PUSH1 0x0 KECCAK256 ADD DUP1 SLOAD PUSH2 0x2E8F SWAP1 PUSH2 0x5530 JUMP JUMPDEST DUP1 PUSH1 0x1F ADD PUSH1 0x20 DUP1 SWAP2 DIV MUL PUSH1 0x20 ADD PUSH1 0x40 MLOAD SWAP1 DUP2 ADD PUSH1 0x40 MSTORE DUP1 SWAP3 SWAP2 SWAP1 DUP2 DUP2 MSTORE PUSH1 0x20 ADD DUP3 DUP1 SLOAD PUSH2 0x2EBB SWAP1 PUSH2 0x5530 JUMP JUMPDEST DUP1 ISZERO PUSH2 0x2F08 JUMPI DUP1 PUSH1 0x1F LT PUSH2 0x2EDD JUMPI PUSH2 0x100 DUP1 DUP4 SLOAD DIV MUL DUP4 MSTORE SWAP2 PUSH1 0x20 ADD SWAP2 PUSH2 0x2F08 JUMP JUMPDEST DUP3 ADD SWAP2 SWAP1 PUSH1 0x0 MSTORE PUSH1 0x20 PUSH1 0x0 KECCAK256 SWAP1 JUMPDEST DUP2 SLOAD DUP2 MSTORE SWAP1 PUSH1 0x1 ADD SWAP1 PUSH1 0x20 ADD DUP1 DUP4 GT PUSH2 0x2EEB JUMPI DUP3 SWAP1 SUB PUSH1 0x1F AND DUP3 ADD SWAP2 JUMPDEST POP POP POP POP POP DUP2 MSTORE PUSH1 0x20 ADD SWAP1 PUSH1 0x1 ADD SWAP1 PUSH2 0x2E70 JUMP JUMPDEST POP POP POP POP SWAP1 POP SWAP1 JUMP JUMPDEST PUSH1 0x9 PUSH1 0x0 CALLER PUSH20 0xFFFFFFFFFFFFFFFFFFFFFFFFFFFFFFFFFFFFFFFF AND PUSH20 0xFFFFFFFFFFFFFFFFFFFFFFFFFFFFFFFFFFFFFFFF AND DUP2 MSTORE PUSH1 0x20 ADD SWAP1 DUP2 MSTORE PUSH1 0x20 ADD PUSH1 0x0 KECCAK256 PUSH1 0x7 ADD PUSH1 0x0 SWAP1 SLOAD SWAP1 PUSH2 0x100 EXP SWAP1 DIV PUSH1 0xFF AND PUSH2 0x2FB4 JUMPI PUSH1 0x40 MLOAD PUSH32 0x8C379A000000000000000000000000000000000000000000000000000000000 DUP2 MSTORE PUSH1 0x4 ADD PUSH2 0x2FAB SWAP1 PUSH2 0x5C4B JUMP JUMPDEST PUSH1 0x40 MLOAD DUP1 SWAP2 SUB SWAP1 REVERT JUMPDEST PUSH1 0x9 PUSH1 0x0 CALLER PUSH20 0xFFFFFFFFFFFFFFFFFFFFFFFFFFFFFFFFFFFFFFFF AND PUSH20 0xFFFFFFFFFFFFFFFFFFFFFFFFFFFFFFFFFFFFFFFF AND DUP2 MSTORE PUSH1 0x20 ADD SWAP1 DUP2 MSTORE PUSH1 0x20 ADD PUSH1 0x0 KECCAK256 PUSH1 0x1 ADD DUP3 DUP3 SWAP1 SWAP2 DUP1 PUSH1 0x1 DUP2 SLOAD ADD DUP1 DUP3 SSTORE DUP1 SWAP2 POP POP PUSH1 0x1 SWAP1 SUB SWAP1 PUSH1 0x0 MSTORE PUSH1 0x20 PUSH1 0x0 KECCAK256 ADD PUSH1 0x0 SWAP1 SWAP2 SWAP3 SWAP1 SWAP2 SWAP3 SWAP1 SWAP2 SWAP3 SWAP1 SWAP2 SWAP3 POP SWAP2 DUP3 PUSH2 0x3031 SWAP3 SWAP2 SWAP1 PUSH2 0x5AC1 JUMP JUMPDEST POP CALLER PUSH20 0xFFFFFFFFFFFFFFFFFFFFFFFFFFFFFFFFFFFFFFFF AND PUSH32 0x9DC5C994CEE1FFA2E2C3FC4D4D0D9E24511EB0CEEF3EFE59FF6F57EDA374BB27 DUP4 DUP4 PUSH1 0x40 MLOAD PUSH2 0x307A SWAP3 SWAP2 SWAP1 PUSH2 0x5E7B JUMP JUMPDEST PUSH1 0x40 MLOAD DUP1 SWAP2 SUB SWAP1 LOG2 POP POP JUMP JUMPDEST PUSH1 0x9 PUSH1 0x0 CALLER PUSH20 0xFFFFFFFFFFFFFFFFFFFFFFFFFFFFFFFFFFFFFFFF AND PUSH20 0xFFFFFFFFFFFFFFFFFFFFFFFFFFFFFFFFFFFFFFFF AND DUP2 MSTORE PUSH1 0x20 ADD SWAP1 DUP2 MSTORE PUSH1 0x20 ADD PUSH1 0x0 KECCAK256 PUSH1 0x7 ADD PUSH1 0x0 SWAP1 SLOAD SWAP1 PUSH2 0x100 EXP SWAP1 DIV PUSH1 0xFF AND PUSH2 0x3115 JUMPI PUSH1 0x40 MLOAD PUSH32 0x8C379A000000000000000000000000000000000000000000000000000000000 DUP2 MSTORE PUSH1 0x4 ADD PUSH2 0x310C SWAP1 PUSH2 0x5C4B JUMP JUMPDEST PUSH1 0x40 MLOAD DUP1 SWAP2 SUB SWAP1 REVERT JUMPDEST PUSH1 0x0 PUSH1 0xA DUP4 DUP4 PUSH1 0x40 MLOAD PUSH2 0x3129 SWAP3 SWAP2 SWAP1 PUSH2 0x57B3 JUMP JUMPDEST SWAP1 DUP2 MSTORE PUSH1 0x20 ADD PUSH1 0x40 MLOAD DUP1 SWAP2 SUB SWAP1 KECCAK256 PUSH1 0x0 ADD DUP1 SLOAD PUSH2 0x3145 SWAP1 PUSH2 0x5530 JUMP JUMPDEST SWAP1 POP GT PUSH2 0x3187 JUMPI PUSH1 0x40 MLOAD PUSH32 0x8C379A000000000000000000000000000000000000000000000000000000000 DUP2 MSTORE PUSH1 0x4 ADD PUSH2 0x317E SWAP1 PUSH2 0x5F57 JUMP JUMPDEST PUSH1 0x40 MLOAD DUP1 SWAP2 SUB SWAP1 REVERT JUMPDEST PUSH4 0x3B9ACA00 PUSH1 0xA DUP4 DUP4 PUSH1 0x40 MLOAD PUSH2 0x319E SWAP3 SWAP2 SWAP1 PUSH2 0x57B3 JUMP JUMPDEST SWAP1 DUP2 MSTORE PUSH1 0x20 ADD PUSH1 0x40 MLOAD DUP1 SWAP2 SUB SWAP1 KECCAK256 PUSH1 0x4 ADD PUSH1 0x0 SWAP1 SLOAD SWAP1 PUSH2 0x100 EXP SWAP1 DIV PUSH2 0xFFFF AND PUSH2 0xFFFF AND PUSH2 0x31CC SWAP2 SWAP1 PUSH2 0x62DB JUMP JUMPDEST PUSH4 0xFFFFFFFF AND CALLVALUE LT ISZERO PUSH2 0x3214 JUMPI PUSH1 0x40 MLOAD PUSH32 0x8C379A000000000000000000000000000000000000000000000000000000000 DUP2 MSTORE PUSH1 0x4 ADD PUSH2 0x320B SWAP1 PUSH2 0x6364 JUMP JUMPDEST PUSH1 0x40 MLOAD DUP1 SWAP2 SUB SWAP1 REVERT JUMPDEST PUSH1 0x9 PUSH1 0x0 CALLER PUSH20 0xFFFFFFFFFFFFFFFFFFFFFFFFFFFFFFFFFFFFFFFF AND PUSH20 0xFFFFFFFFFFFFFFFFFFFFFFFFFFFFFFFFFFFFFFFF AND DUP2 MSTORE PUSH1 0x20 ADD SWAP1 DUP2 MSTORE PUSH1 0x20 ADD PUSH1 0x0 KECCAK256 PUSH1 0x4 ADD PUSH1 0x40 MLOAD DUP1 PUSH1 0x40 ADD PUSH1 0x40 MSTORE DUP1 DUP5 DUP5 DUP1 DUP1 PUSH1 0x1F ADD PUSH1 0x20 DUP1 SWAP2 DIV MUL PUSH1 0x20 ADD PUSH1 0x40 MLOAD SWAP1 DUP2 ADD PUSH1 0x40 MSTORE DUP1 SWAP4 SWAP3 SWAP2 SWAP1 DUP2 DUP2 MSTORE PUSH1 0x20 ADD DUP4 DUP4 DUP1 DUP3 DUP5 CALLDATACOPY PUSH1 0x0 DUP2 DUP5 ADD MSTORE PUSH1 0x1F NOT PUSH1 0x1F DUP3 ADD AND SWAP1 POP DUP1 DUP4 ADD SWAP3 POP POP POP POP POP POP POP DUP2 MSTORE PUSH1 0x20 ADD PUSH1 0x8 PUSH1 0x0 DUP2 DUP2 SWAP1 SLOAD SWAP1 PUSH2 0x100 EXP SWAP1 DIV PUSH2 0xFFFF AND PUSH2 0x32C7 SWAP1 PUSH2 0x5FE3 JUMP JUMPDEST SWAP2 SWAP1 PUSH2 0x100 EXP DUP2 SLOAD DUP2 PUSH2 0xFFFF MUL NOT AND SWAP1 DUP4 PUSH2 0xFFFF AND MUL OR SWAP1 SSTORE PUSH2 0xFFFF AND DUP2 MSTORE POP SWAP1 DUP1 PUSH1 0x1 DUP2 SLOAD ADD DUP1 DUP3 SSTORE DUP1 SWAP2 POP POP PUSH1 0x1 SWAP1 SUB SWAP1 PUSH1 0x0 MSTORE PUSH1 0x20 PUSH1 0x0 KECCAK256 SWAP1 PUSH1 0x2 MUL ADD PUSH1 0x0 SWAP1 SWAP2 SWAP1 SWAP2 SWAP1 SWAP2 POP PUSH1 0x0 DUP3 ADD MLOAD DUP2 PUSH1 0x0 ADD SWAP1 DUP2 PUSH2 0x3325 SWAP2 SWAP1 PUSH2 0x59E4 JUMP JUMPDEST POP PUSH1 0x20 DUP3 ADD MLOAD DUP2 PUSH1 0x1 ADD PUSH1 0x0 PUSH2 0x100 EXP DUP2 SLOAD DUP2 PUSH2 0xFFFF MUL NOT AND SWAP1 DUP4 PUSH2 0xFFFF AND MUL OR SWAP1 SSTORE POP POP POP CALLER PUSH20 0xFFFFFFFFFFFFFFFFFFFFFFFFFFFFFFFFFFFFFFFF AND PUSH32 0x4AA5059BBF6AE1DE63BCD4CACEC483049BE0F12780453958E246D0C34D87C844 DUP4 DUP4 PUSH1 0x8 PUSH1 0x0 SWAP1 SLOAD SWAP1 PUSH2 0x100 EXP SWAP1 DIV PUSH2 0xFFFF AND PUSH1 0x40 MLOAD PUSH2 0x33A5 SWAP4 SWAP3 SWAP2 SWAP1 PUSH2 0x5BCD JUMP JUMPDEST PUSH1 0x40 MLOAD DUP1 SWAP2 SUB SWAP1 LOG2 POP POP JUMP JUMPDEST PUSH2 0x33C2 PUSH2 0x33BC PUSH2 0x36B2 JUMP JUMPDEST DUP4 PUSH2 0x3970 JUMP JUMPDEST PUSH2 0x3401 JUMPI PUSH1 0x40 MLOAD PUSH32 0x8C379A000000000000000000000000000000000000000000000000000000000 DUP2 MSTORE PUSH1 0x4 ADD PUSH2 0x33F8 SWAP1 PUSH2 0x5CDD JUMP JUMPDEST PUSH1 0x40 MLOAD DUP1 SWAP2 SUB SWAP1 REVERT JUMPDEST PUSH2 0x340D DUP5 DUP5 DUP5 DUP5 PUSH2 0x3E20 JUMP JUMPDEST POP POP POP POP JUMP JUMPDEST PUSH1 0x60 PUSH2 0x341E DUP3 PUSH2 0x3646 JUMP JUMPDEST PUSH2 0x345D JUMPI PUSH1 0x40 MLOAD PUSH32 0x8C379A000000000000000000000000000000000000000000000000000000000 DUP2 MSTORE PUSH1 0x4 ADD PUSH2 0x3454 SWAP1 PUSH2 0x63F6 JUMP JUMPDEST PUSH1 0x40 MLOAD DUP1 SWAP2 SUB SWAP1 REVERT JUMPDEST PUSH1 0x0 PUSH2 0x3467 PUSH2 0x3E7C JUMP JUMPDEST SWAP1 POP PUSH1 0x0 DUP2 MLOAD GT PUSH2 0x3487 JUMPI PUSH1 0x40 MLOAD DUP1 PUSH1 0x20 ADD PUSH1 0x40 MSTORE DUP1 PUSH1 0x0 DUP2 MSTORE POP PUSH2 0x34B2 JUMP JUMPDEST DUP1 PUSH2 0x3491 DUP5 PUSH2 0x3F0E JUMP JUMPDEST PUSH1 0x40 MLOAD PUSH1 0x20 ADD PUSH2 0x34A2 SWAP3 SWAP2 SWAP1 PUSH2 0x6447 JUMP JUMPDEST PUSH1 0x40 MLOAD PUSH1 0x20 DUP2 DUP4 SUB SUB DUP2 MSTORE SWAP1 PUSH1 0x40 MSTORE JUMPDEST SWAP2 POP POP SWAP2 SWAP1 POP JUMP JUMPDEST PUSH1 0x60 PUSH1 0xE DUP1 SLOAD DUP1 PUSH1 0x20 MUL PUSH1 0x20 ADD PUSH1 0x40 MLOAD SWAP1 DUP2 ADD PUSH1 0x40 MSTORE DUP1 SWAP3 SWAP2 SWAP1 DUP2 DUP2 MSTORE PUSH1 0x20 ADD DUP3 DUP1 SLOAD DUP1 ISZERO PUSH2 0x353E JUMPI PUSH1 0x20 MUL DUP3 ADD SWAP2 SWAP1 PUSH1 0x0 MSTORE PUSH1 0x20 PUSH1 0x0 KECCAK256 SWAP1 JUMPDEST DUP2 PUSH1 0x0 SWAP1 SLOAD SWAP1 PUSH2 0x100 EXP SWAP1 DIV PUSH20 0xFFFFFFFFFFFFFFFFFFFFFFFFFFFFFFFFFFFFFFFF AND PUSH20 0xFFFFFFFFFFFFFFFFFFFFFFFFFFFFFFFFFFFFFFFF AND DUP2 MSTORE PUSH1 0x20 ADD SWAP1 PUSH1 0x1 ADD SWAP1 DUP1 DUP4 GT PUSH2 0x34F4 JUMPI JUMPDEST POP POP POP POP POP SWAP1 POP SWAP1 JUMP JUMPDEST PUSH1 0x0 PUSH1 0x5 PUSH1 0x0 DUP5 PUSH20 0xFFFFFFFFFFFFFFFFFFFFFFFFFFFFFFFFFFFFFFFF AND PUSH20 0xFFFFFFFFFFFFFFFFFFFFFFFFFFFFFFFFFFFFFFFF AND DUP2 MSTORE PUSH1 0x20 ADD SWAP1 DUP2 MSTORE PUSH1 0x20 ADD PUSH1 0x0 KECCAK256 PUSH1 0x0 DUP4 PUSH20 0xFFFFFFFFFFFFFFFFFFFFFFFFFFFFFFFFFFFFFFFF AND PUSH20 0xFFFFFFFFFFFFFFFFFFFFFFFFFFFFFFFFFFFFFFFF AND DUP2 MSTORE PUSH1 0x20 ADD SWAP1 DUP2 MSTORE PUSH1 0x20 ADD PUSH1 0x0 KECCAK256 PUSH1 0x0 SWAP1 SLOAD SWAP1 PUSH2 0x100 EXP SWAP1 DIV PUSH1 0xFF AND SWAP1 POP SWAP3 SWAP2 POP POP JUMP JUMPDEST PUSH1 0x0 PUSH32 0x1FFC9A700000000000000000000000000000000000000000000000000000000 PUSH28 0xFFFFFFFFFFFFFFFFFFFFFFFFFFFFFFFFFFFFFFFFFFFFFFFFFFFFFFFF NOT AND DUP3 PUSH28 0xFFFFFFFFFFFFFFFFFFFFFFFFFFFFFFFFFFFFFFFFFFFFFFFFFFFFFFFF NOT AND EQ SWAP1 POP SWAP2 SWAP1 POP JUMP JUMPDEST PUSH1 0x0 DUP1 PUSH20 0xFFFFFFFFFFFFFFFFFFFFFFFFFFFFFFFFFFFFFFFF AND PUSH1 0x2 PUSH1 0x0 DUP5 DUP2 MSTORE PUSH1 0x20 ADD SWAP1 DUP2 MSTORE PUSH1 0x20 ADD PUSH1 0x0 KECCAK256 PUSH1 0x0 SWAP1 SLOAD SWAP1 PUSH2 0x100 EXP SWAP1 DIV PUSH20 0xFFFFFFFFFFFFFFFFFFFFFFFFFFFFFFFFFFFFFFFF AND PUSH20 0xFFFFFFFFFFFFFFFFFFFFFFFFFFFFFFFFFFFFFFFF AND EQ ISZERO SWAP1 POP SWAP2 SWAP1 POP JUMP JUMPDEST PUSH1 0x0 CALLER SWAP1 POP SWAP1 JUMP JUMPDEST DUP2 PUSH1 0x4 PUSH1 0x0 DUP4 DUP2 MSTORE PUSH1 0x20 ADD SWAP1 DUP2 MSTORE PUSH1 0x20 ADD PUSH1 0x0 KECCAK256 PUSH1 0x0 PUSH2 0x100 EXP DUP2 SLOAD DUP2 PUSH20 0xFFFFFFFFFFFFFFFFFFFFFFFFFFFFFFFFFFFFFFFF MUL NOT AND SWAP1 DUP4 PUSH20 0xFFFFFFFFFFFFFFFFFFFFFFFFFFFFFFFFFFFFFFFF AND MUL OR SWAP1 SSTORE POP DUP1 DUP3 PUSH20 0xFFFFFFFFFFFFFFFFFFFFFFFFFFFFFFFFFFFFFFFF AND PUSH2 0x372D DUP4 PUSH2 0x1B72 JUMP JUMPDEST PUSH20 0xFFFFFFFFFFFFFFFFFFFFFFFFFFFFFFFFFFFFFFFF AND PUSH32 0x8C5BE1E5EBEC7D5BD14F71427D1E84F3DD0314C0F7B2291E5B200AC8C7C3B925 PUSH1 0x40 MLOAD PUSH1 0x40 MLOAD DUP1 SWAP2 SUB SWAP1 LOG4 POP POP JUMP JUMPDEST PUSH1 0x0 DUP2 PUSH1 0x0 ADD SLOAD SWAP1 POP SWAP2 SWAP1 POP JUMP JUMPDEST PUSH1 0x1 DUP2 PUSH1 0x0 ADD PUSH1 0x0 DUP3 DUP3 SLOAD ADD SWAP3 POP POP DUP2 SWAP1 SSTORE POP POP JUMP JUMPDEST PUSH1 0x0 PUSH20 0xFFFFFFFFFFFFFFFFFFFFFFFFFFFFFFFFFFFFFFFF AND DUP3 PUSH20 0xFFFFFFFFFFFFFFFFFFFFFFFFFFFFFFFFFFFFFFFF AND SUB PUSH2 0x3806 JUMPI PUSH1 0x40 MLOAD PUSH32 0x8C379A000000000000000000000000000000000000000000000000000000000 DUP2 MSTORE PUSH1 0x4 ADD PUSH2 0x37FD SWAP1 PUSH2 0x64B7 JUMP JUMPDEST PUSH1 0x40 MLOAD DUP1 SWAP2 SUB SWAP1 REVERT JUMPDEST PUSH2 0x380F DUP2 PUSH2 0x3646 JUMP JUMPDEST ISZERO PUSH2 0x384F JUMPI PUSH1 0x40 MLOAD PUSH32 0x8C379A000000000000000000000000000000000000000000000000000000000 DUP2 MSTORE PUSH1 0x4 ADD PUSH2 0x3846 SWAP1 PUSH2 0x6523 JUMP JUMPDEST PUSH1 0x40 MLOAD DUP1 SWAP2 SUB SWAP1 REVERT JUMPDEST PUSH2 0x385B PUSH1 0x0 DUP4 DUP4 PUSH2 0x406E JUMP JUMPDEST PUSH1 0x1 PUSH1 0x3 PUSH1 0x0 DUP5 PUSH20 0xFFFFFFFFFFFFFFFFFFFFFFFFFFFFFFFFFFFFFFFF AND PUSH20 0xFFFFFFFFFFFFFFFFFFFFFFFFFFFFFFFFFFFFFFFF AND DUP2 MSTORE PUSH1 0x20 ADD SWAP1 DUP2 MSTORE PUSH1 0x20 ADD PUSH1 0x0 KECCAK256 PUSH1 0x0 DUP3 DUP3 SLOAD PUSH2 0x38AB SWAP2 SWAP1 PUSH2 0x6543 JUMP JUMPDEST SWAP3 POP POP DUP2 SWAP1 SSTORE POP DUP2 PUSH1 0x2 PUSH1 0x0 DUP4 DUP2 MSTORE PUSH1 0x20 ADD SWAP1 DUP2 MSTORE PUSH1 0x20 ADD PUSH1 0x0 KECCAK256 PUSH1 0x0 PUSH2 0x100 EXP DUP2 SLOAD DUP2 PUSH20 0xFFFFFFFFFFFFFFFFFFFFFFFFFFFFFFFFFFFFFFFF MUL NOT AND SWAP1 DUP4 PUSH20 0xFFFFFFFFFFFFFFFFFFFFFFFFFFFFFFFFFFFFFFFF AND MUL OR SWAP1 SSTORE POP DUP1 DUP3 PUSH20 0xFFFFFFFFFFFFFFFFFFFFFFFFFFFFFFFFFFFFFFFF AND PUSH1 0x0 PUSH20 0xFFFFFFFFFFFFFFFFFFFFFFFFFFFFFFFFFFFFFFFF AND PUSH32 0xDDF252AD1BE2C89B69C2B068FC378DAA952BA7F163C4A11628F55A4DF523B3EF PUSH1 0x40 MLOAD PUSH1 0x40 MLOAD DUP1 SWAP2 SUB SWAP1 LOG4 PUSH2 0x396C PUSH1 0x0 DUP4 DUP4 PUSH2 0x4073 JUMP JUMPDEST POP POP JUMP JUMPDEST PUSH1 0x0 PUSH2 0x397B DUP3 PUSH2 0x3646 JUMP JUMPDEST PUSH2 0x39BA JUMPI PUSH1 0x40 MLOAD PUSH32 0x8C379A000000000000000000000000000000000000000000000000000000000 DUP2 MSTORE PUSH1 0x4 ADD PUSH2 0x39B1 SWAP1 PUSH2 0x65E9 JUMP JUMPDEST PUSH1 0x40 MLOAD DUP1 SWAP2 SUB SWAP1 REVERT JUMPDEST PUSH1 0x0 PUSH2 0x39C5 DUP4 PUSH2 0x1B72 JUMP JUMPDEST SWAP1 POP DUP1 PUSH20 0xFFFFFFFFFFFFFFFFFFFFFFFFFFFFFFFFFFFFFFFF AND DUP5 PUSH20 0xFFFFFFFFFFFFFFFFFFFFFFFFFFFFFFFFFFFFFFFF AND EQ DUP1 PUSH2 0x3A07 JUMPI POP PUSH2 0x3A06 DUP2 DUP6 PUSH2 0x3548 JUMP JUMPDEST JUMPDEST DUP1 PUSH2 0x3A45 JUMPI POP DUP4 PUSH20 0xFFFFFFFFFFFFFFFFFFFFFFFFFFFFFFFFFFFFFFFF AND PUSH2 0x3A2D DUP5 PUSH2 0x8A7 JUMP JUMPDEST PUSH20 0xFFFFFFFFFFFFFFFFFFFFFFFFFFFFFFFFFFFFFFFF AND EQ JUMPDEST SWAP2 POP POP SWAP3 SWAP2 POP POP JUMP JUMPDEST DUP3 PUSH20 0xFFFFFFFFFFFFFFFFFFFFFFFFFFFFFFFFFFFFFFFF AND PUSH2 0x3A6E DUP3 PUSH2 0x1B72 JUMP JUMPDEST PUSH20 0xFFFFFFFFFFFFFFFFFFFFFFFFFFFFFFFFFFFFFFFF AND EQ PUSH2 0x3AC4 JUMPI PUSH1 0x40 MLOAD PUSH32 0x8C379A000000000000000000000000000000000000000000000000000000000 DUP2 MSTORE PUSH1 0x4 ADD PUSH2 0x3ABB SWAP1 PUSH2 0x667B JUMP JUMPDEST PUSH1 0x40 MLOAD DUP1 SWAP2 SUB SWAP1 REVERT JUMPDEST PUSH1 0x0 PUSH20 0xFFFFFFFFFFFFFFFFFFFFFFFFFFFFFFFFFFFFFFFF AND DUP3 PUSH20 0xFFFFFFFFFFFFFFFFFFFFFFFFFFFFFFFFFFFFFFFF AND SUB PUSH2 0x3B33 JUMPI PUSH1 0x40 MLOAD PUSH32 0x8C379A000000000000000000000000000000000000000000000000000000000 DUP2 MSTORE PUSH1 0x4 ADD PUSH2 0x3B2A SWAP1 PUSH2 0x670D JUMP JUMPDEST PUSH1 0x40 MLOAD DUP1 SWAP2 SUB SWAP1 REVERT JUMPDEST PUSH2 0x3B3E DUP4 DUP4 DUP4 PUSH2 0x406E JUMP JUMPDEST PUSH2 0x3B49 PUSH1 0x0 DUP3 PUSH2 0x36BA JUMP JUMPDEST PUSH1 0x1 PUSH1 0x3 PUSH1 0x0 DUP6 PUSH20 0xFFFFFFFFFFFFFFFFFFFFFFFFFFFFFFFFFFFFFFFF AND PUSH20 0xFFFFFFFFFFFFFFFFFFFFFFFFFFFFFFFFFFFFFFFF AND DUP2 MSTORE PUSH1 0x20 ADD SWAP1 DUP2 MSTORE PUSH1 0x20 ADD PUSH1 0x0 KECCAK256 PUSH1 0x0 DUP3 DUP3 SLOAD PUSH2 0x3B99 SWAP2 SWAP1 PUSH2 0x672D JUMP JUMPDEST SWAP3 POP POP DUP2 SWAP1 SSTORE POP PUSH1 0x1 PUSH1 0x3 PUSH1 0x0 DUP5 PUSH20 0xFFFFFFFFFFFFFFFFFFFFFFFFFFFFFFFFFFFFFFFF AND PUSH20 0xFFFFFFFFFFFFFFFFFFFFFFFFFFFFFFFFFFFFFFFF AND DUP2 MSTORE PUSH1 0x20 ADD SWAP1 DUP2 MSTORE PUSH1 0x20 ADD PUSH1 0x0 KECCAK256 PUSH1 0x0 DUP3 DUP3 SLOAD PUSH2 0x3BF0 SWAP2 SWAP1 PUSH2 0x6543 JUMP JUMPDEST SWAP3 POP POP DUP2 SWAP1 SSTORE POP DUP2 PUSH1 0x2 PUSH1 0x0 DUP4 DUP2 MSTORE PUSH1 0x20 ADD SWAP1 DUP2 MSTORE PUSH1 0x20 ADD PUSH1 0x0 KECCAK256 PUSH1 0x0 PUSH2 0x100 EXP DUP2 SLOAD DUP2 PUSH20 0xFFFFFFFFFFFFFFFFFFFFFFFFFFFFFFFFFFFFFFFF MUL NOT AND SWAP1 DUP4 PUSH20 0xFFFFFFFFFFFFFFFFFFFFFFFFFFFFFFFFFFFFFFFF AND MUL OR SWAP1 SSTORE POP DUP1 DUP3 PUSH20 0xFFFFFFFFFFFFFFFFFFFFFFFFFFFFFFFFFFFFFFFF AND DUP5 PUSH20 0xFFFFFFFFFFFFFFFFFFFFFFFFFFFFFFFFFFFFFFFF AND PUSH32 0xDDF252AD1BE2C89B69C2B068FC378DAA952BA7F163C4A11628F55A4DF523B3EF PUSH1 0x40 MLOAD PUSH1 0x40 MLOAD DUP1 SWAP2 SUB SWAP1 LOG4 PUSH2 0x3CAF DUP4 DUP4 DUP4 PUSH2 0x4073 JUMP JUMPDEST POP POP POP JUMP JUMPDEST DUP2 PUSH20 0xFFFFFFFFFFFFFFFFFFFFFFFFFFFFFFFFFFFFFFFF AND DUP4 PUSH20 0xFFFFFFFFFFFFFFFFFFFFFFFFFFFFFFFFFFFFFFFF AND SUB PUSH2 0x3D22 JUMPI PUSH1 0x40 MLOAD PUSH32 0x8C379A000000000000000000000000000000000000000000000000000000000 DUP2 MSTORE PUSH1 0x4 ADD PUSH2 0x3D19 SWAP1 PUSH2 0x67AD JUMP JUMPDEST PUSH1 0x40 MLOAD DUP1 SWAP2 SUB SWAP1 REVERT JUMPDEST DUP1 PUSH1 0x5 PUSH1 0x0 DUP6 PUSH20 0xFFFFFFFFFFFFFFFFFFFFFFFFFFFFFFFFFFFFFFFF AND PUSH20 0xFFFFFFFFFFFFFFFFFFFFFFFFFFFFFFFFFFFFFFFF AND DUP2 MSTORE PUSH1 0x20 ADD SWAP1 DUP2 MSTORE PUSH1 0x20 ADD PUSH1 0x0 KECCAK256 PUSH1 0x0 DUP5 PUSH20 0xFFFFFFFFFFFFFFFFFFFFFFFFFFFFFFFFFFFFFFFF AND PUSH20 0xFFFFFFFFFFFFFFFFFFFFFFFFFFFFFFFFFFFFFFFF AND DUP2 MSTORE PUSH1 0x20 ADD SWAP1 DUP2 MSTORE PUSH1 0x20 ADD PUSH1 0x0 KECCAK256 PUSH1 0x0 PUSH2 0x100 EXP DUP2 SLOAD DUP2 PUSH1 0xFF MUL NOT AND SWAP1 DUP4 ISZERO ISZERO MUL OR SWAP1 SSTORE POP DUP2 PUSH20 0xFFFFFFFFFFFFFFFFFFFFFFFFFFFFFFFFFFFFFFFF AND DUP4 PUSH20 0xFFFFFFFFFFFFFFFFFFFFFFFFFFFFFFFFFFFFFFFF AND PUSH32 0x17307EAB39AB6107E8899845AD3D59BD9653F200F220920489CA2B5937696C31 DUP4 PUSH1 0x40 MLOAD PUSH2 0x3E13 SWAP2 SWAP1 PUSH2 0x44CE JUMP JUMPDEST PUSH1 0x40 MLOAD DUP1 SWAP2 SUB SWAP1 LOG3 POP POP POP JUMP JUMPDEST PUSH2 0x3E2B DUP5 DUP5 DUP5 PUSH2 0x3A4E JUMP JUMPDEST PUSH2 0x3E37 DUP5 DUP5 DUP5 DUP5 PUSH2 0x4078 JUMP JUMPDEST PUSH2 0x3E76 JUMPI PUSH1 0x40 MLOAD PUSH32 0x8C379A000000000000000000000000000000000000000000000000000000000 DUP2 MSTORE PUSH1 0x4 ADD PUSH2 0x3E6D SWAP1 PUSH2 0x683F JUMP JUMPDEST PUSH1 0x40 MLOAD DUP1 SWAP2 SUB SWAP1 REVERT JUMPDEST POP POP POP POP JUMP JUMPDEST PUSH1 0x60 PUSH1 0x7 DUP1 SLOAD PUSH2 0x3E8B SWAP1 PUSH2 0x5530 JUMP JUMPDEST DUP1 PUSH1 0x1F ADD PUSH1 0x20 DUP1 SWAP2 DIV MUL PUSH1 0x20 ADD PUSH1 0x40 MLOAD SWAP1 DUP2 ADD PUSH1 0x40 MSTORE DUP1 SWAP3 SWAP2 SWAP1 DUP2 DUP2 MSTORE PUSH1 0x20 ADD DUP3 DUP1 SLOAD PUSH2 0x3EB7 SWAP1 PUSH2 0x5530 JUMP JUMPDEST DUP1 ISZERO PUSH2 0x3F04 JUMPI DUP1 PUSH1 0x1F LT PUSH2 0x3ED9 JUMPI PUSH2 0x100 DUP1 DUP4 SLOAD DIV MUL DUP4 MSTORE SWAP2 PUSH1 0x20 ADD SWAP2 PUSH2 0x3F04 JUMP JUMPDEST DUP3 ADD SWAP2 SWAP1 PUSH1 0x0 MSTORE PUSH1 0x20 PUSH1 0x0 KECCAK256 SWAP1 JUMPDEST DUP2 SLOAD DUP2 MSTORE SWAP1 PUSH1 0x1 ADD SWAP1 PUSH1 0x20 ADD DUP1 DUP4 GT PUSH2 0x3EE7 JUMPI DUP3 SWAP1 SUB PUSH1 0x1F AND DUP3 ADD SWAP2 JUMPDEST POP POP POP POP POP SWAP1 POP SWAP1 JUMP JUMPDEST PUSH1 0x60 PUSH1 0x0 DUP3 SUB PUSH2 0x3F55 JUMPI PUSH1 0x40 MLOAD DUP1 PUSH1 0x40 ADD PUSH1 0x40 MSTORE DUP1 PUSH1 0x1 DUP2 MSTORE PUSH1 0x20 ADD PUSH32 0x3000000000000000000000000000000000000000000000000000000000000000 DUP2 MSTORE POP SWAP1 POP PUSH2 0x4069 JUMP JUMPDEST PUSH1 0x0 DUP3 SWAP1 POP PUSH1 0x0 JUMPDEST PUSH1 0x0 DUP3 EQ PUSH2 0x3F87 JUMPI DUP1 DUP1 PUSH2 0x3F70 SWAP1 PUSH2 0x5E33 JUMP JUMPDEST SWAP2 POP POP PUSH1 0xA DUP3 PUSH2 0x3F80 SWAP2 SWAP1 PUSH2 0x688E JUMP JUMPDEST SWAP2 POP PUSH2 0x3F5D JUMP JUMPDEST PUSH1 0x0 DUP2 PUSH8 0xFFFFFFFFFFFFFFFF DUP2 GT ISZERO PUSH2 0x3FA3 JUMPI PUSH2 0x3FA2 PUSH2 0x4866 JUMP JUMPDEST JUMPDEST PUSH1 0x40 MLOAD SWAP1 DUP1 DUP3 MSTORE DUP1 PUSH1 0x1F ADD PUSH1 0x1F NOT AND PUSH1 0x20 ADD DUP3 ADD PUSH1 0x40 MSTORE DUP1 ISZERO PUSH2 0x3FD5 JUMPI DUP2 PUSH1 0x20 ADD PUSH1 0x1 DUP3 MUL DUP1 CALLDATASIZE DUP4 CALLDATACOPY DUP1 DUP3 ADD SWAP2 POP POP SWAP1 POP JUMPDEST POP SWAP1 POP JUMPDEST PUSH1 0x0 DUP6 EQ PUSH2 0x4062 JUMPI PUSH1 0x1 DUP3 PUSH2 0x3FEE SWAP2 SWAP1 PUSH2 0x672D JUMP JUMPDEST SWAP2 POP PUSH1 0xA DUP6 PUSH2 0x3FFD SWAP2 SWAP1 PUSH2 0x68BF JUMP JUMPDEST PUSH1 0x30 PUSH2 0x4009 SWAP2 SWAP1 PUSH2 0x6543 JUMP JUMPDEST PUSH1 0xF8 SHL DUP2 DUP4 DUP2 MLOAD DUP2 LT PUSH2 0x401F JUMPI PUSH2 0x401E PUSH2 0x5D69 JUMP JUMPDEST JUMPDEST PUSH1 0x20 ADD ADD SWAP1 PUSH31 0xFFFFFFFFFFFFFFFFFFFFFFFFFFFFFFFFFFFFFFFFFFFFFFFFFFFFFFFFFFFFFF NOT AND SWAP1 DUP2 PUSH1 0x0 BYTE SWAP1 MSTORE8 POP PUSH1 0xA DUP6 PUSH2 0x405B SWAP2 SWAP1 PUSH2 0x688E JUMP JUMPDEST SWAP5 POP PUSH2 0x3FD9 JUMP JUMPDEST DUP1 SWAP4 POP POP POP POP JUMPDEST SWAP2 SWAP1 POP JUMP JUMPDEST POP POP POP JUMP JUMPDEST POP POP POP JUMP JUMPDEST PUSH1 0x0 PUSH2 0x4099 DUP5 PUSH20 0xFFFFFFFFFFFFFFFFFFFFFFFFFFFFFFFFFFFFFFFF AND PUSH2 0x41FF JUMP JUMPDEST ISZERO PUSH2 0x41F2 JUMPI DUP4 PUSH20 0xFFFFFFFFFFFFFFFFFFFFFFFFFFFFFFFFFFFFFFFF AND PUSH4 0x150B7A02 PUSH2 0x40C2 PUSH2 0x36B2 JUMP JUMPDEST DUP8 DUP7 DUP7 PUSH1 0x40 MLOAD DUP6 PUSH4 0xFFFFFFFF AND PUSH1 0xE0 SHL DUP2 MSTORE PUSH1 0x4 ADD PUSH2 0x40E4 SWAP5 SWAP4 SWAP3 SWAP2 SWAP1 PUSH2 0x6945 JUMP JUMPDEST PUSH1 0x20 PUSH1 0x40 MLOAD DUP1 DUP4 SUB DUP2 PUSH1 0x0 DUP8 GAS CALL SWAP3 POP POP POP DUP1 ISZERO PUSH2 0x4120 JUMPI POP PUSH1 0x40 MLOAD RETURNDATASIZE PUSH1 0x1F NOT PUSH1 0x1F DUP3 ADD AND DUP3 ADD DUP1 PUSH1 0x40 MSTORE POP DUP2 ADD SWAP1 PUSH2 0x411D SWAP2 SWAP1 PUSH2 0x69A6 JUMP JUMPDEST PUSH1 0x1 JUMPDEST PUSH2 0x41A2 JUMPI RETURNDATASIZE DUP1 PUSH1 0x0 DUP2 EQ PUSH2 0x4150 JUMPI PUSH1 0x40 MLOAD SWAP2 POP PUSH1 0x1F NOT PUSH1 0x3F RETURNDATASIZE ADD AND DUP3 ADD PUSH1 0x40 MSTORE RETURNDATASIZE DUP3 MSTORE RETURNDATASIZE PUSH1 0x0 PUSH1 0x20 DUP5 ADD RETURNDATACOPY PUSH2 0x4155 JUMP JUMPDEST PUSH1 0x60 SWAP2 POP JUMPDEST POP PUSH1 0x0 DUP2 MLOAD SUB PUSH2 0x419A JUMPI PUSH1 0x40 MLOAD PUSH32 0x8C379A000000000000000000000000000000000000000000000000000000000 DUP2 MSTORE PUSH1 0x4 ADD PUSH2 0x4191 SWAP1 PUSH2 0x683F JUMP JUMPDEST PUSH1 0x40 MLOAD DUP1 SWAP2 SUB SWAP1 REVERT JUMPDEST DUP1 MLOAD DUP2 PUSH1 0x20 ADD REVERT JUMPDEST PUSH4 0x150B7A02 PUSH1 0xE0 SHL PUSH28 0xFFFFFFFFFFFFFFFFFFFFFFFFFFFFFFFFFFFFFFFFFFFFFFFFFFFFFFFF NOT AND DUP2 PUSH28 0xFFFFFFFFFFFFFFFFFFFFFFFFFFFFFFFFFFFFFFFFFFFFFFFFFFFFFFFF NOT AND EQ SWAP2 POP POP PUSH2 0x41F7 JUMP JUMPDEST PUSH1 0x1 SWAP1 POP JUMPDEST SWAP5 SWAP4 POP POP POP POP JUMP JUMPDEST PUSH1 0x0 DUP1 DUP3 PUSH20 0xFFFFFFFFFFFFFFFFFFFFFFFFFFFFFFFFFFFFFFFF AND EXTCODESIZE GT SWAP1 POP SWAP2 SWAP1 POP JUMP JUMPDEST PUSH1 0x40 MLOAD DUP1 PUSH1 0xC0 ADD PUSH1 0x40 MSTORE DUP1 PUSH1 0x60 DUP2 MSTORE PUSH1 0x20 ADD PUSH1 0x60 DUP2 MSTORE PUSH1 0x20 ADD PUSH1 0x0 PUSH20 0xFFFFFFFFFFFFFFFFFFFFFFFFFFFFFFFFFFFFFFFF AND DUP2 MSTORE PUSH1 0x20 ADD PUSH1 0x0 PUSH2 0xFFFF AND DUP2 MSTORE PUSH1 0x20 ADD PUSH1 0x60 DUP2 MSTORE PUSH1 0x20 ADD PUSH1 0x60 DUP2 MSTORE POP SWAP1 JUMP JUMPDEST DUP3 DUP1 SLOAD DUP3 DUP3 SSTORE SWAP1 PUSH1 0x0 MSTORE PUSH1 0x20 PUSH1 0x0 KECCAK256 SWAP1 DUP2 ADD SWAP3 DUP3 ISZERO PUSH2 0x42BA JUMPI SWAP2 PUSH1 0x20 MUL DUP3 ADD JUMPDEST DUP3 DUP2 GT ISZERO PUSH2 0x42B9 JUMPI DUP3 MLOAD DUP3 SWAP1 DUP2 PUSH2 0x42A9 SWAP2 SWAP1 PUSH2 0x59E4 JUMP JUMPDEST POP SWAP2 PUSH1 0x20 ADD SWAP2 SWAP1 PUSH1 0x1 ADD SWAP1 PUSH2 0x4292 JUMP JUMPDEST JUMPDEST POP SWAP1 POP PUSH2 0x42C7 SWAP2 SWAP1 PUSH2 0x4399 JUMP JUMPDEST POP SWAP1 JUMP JUMPDEST DUP3 DUP1 SLOAD DUP3 DUP3 SSTORE SWAP1 PUSH1 0x0 MSTORE PUSH1 0x20 PUSH1 0x0 KECCAK256 SWAP1 DUP2 ADD SWAP3 DUP3 ISZERO PUSH2 0x4307 JUMPI SWAP2 PUSH1 0x20 MUL DUP3 ADD JUMPDEST DUP3 DUP2 GT ISZERO PUSH2 0x4306 JUMPI DUP3 MLOAD DUP3 SSTORE SWAP2 PUSH1 0x20 ADD SWAP2 SWAP1 PUSH1 0x1 ADD SWAP1 PUSH2 0x42EB JUMP JUMPDEST JUMPDEST POP SWAP1 POP PUSH2 0x4314 SWAP2 SWAP1 PUSH2 0x43BD JUMP JUMPDEST POP SWAP1 JUMP JUMPDEST PUSH1 0x40 MLOAD DUP1 PUSH1 0xA0 ADD PUSH1 0x40 MSTORE DUP1 PUSH1 0x60 DUP2 MSTORE PUSH1 0x20 ADD PUSH1 0x60 DUP2 MSTORE PUSH1 0x20 ADD PUSH1 0x60 DUP2 MSTORE PUSH1 0x20 ADD PUSH1 0x60 DUP2 MSTORE PUSH1 0x20 ADD PUSH1 0x0 PUSH2 0xFFFF AND DUP2 MSTORE POP SWAP1 JUMP JUMPDEST PUSH1 0x40 MLOAD DUP1 PUSH2 0x120 ADD PUSH1 0x40 MSTORE DUP1 PUSH1 0x60 DUP2 MSTORE PUSH1 0x20 ADD PUSH1 0x60 DUP2 MSTORE PUSH1 0x20 ADD PUSH1 0x60 DUP2 MSTORE PUSH1 0x20 ADD PUSH1 0x60 DUP2 MSTORE PUSH1 0x20 ADD PUSH1 0x60 DUP2 MSTORE PUSH1 0x20 ADD PUSH1 0x60 DUP2 MSTORE PUSH1 0x20 ADD PUSH1 0x60 DUP2 MSTORE PUSH1 0x20 ADD PUSH1 0x0 ISZERO ISZERO DUP2 MSTORE PUSH1 0x20 ADD PUSH1 0x60 DUP2 MSTORE POP SWAP1 JUMP JUMPDEST JUMPDEST DUP1 DUP3 GT ISZERO PUSH2 0x43B9 JUMPI PUSH1 0x0 DUP2 DUP2 PUSH2 0x43B0 SWAP2 SWAP1 PUSH2 0x43DA JUMP JUMPDEST POP PUSH1 0x1 ADD PUSH2 0x439A JUMP JUMPDEST POP SWAP1 JUMP JUMPDEST JUMPDEST DUP1 DUP3 GT ISZERO PUSH2 0x43D6 JUMPI PUSH1 0x0 DUP2 PUSH1 0x0 SWAP1 SSTORE POP PUSH1 0x1 ADD PUSH2 0x43BE JUMP JUMPDEST POP SWAP1 JUMP JUMPDEST POP DUP1 SLOAD PUSH2 0x43E6 SWAP1 PUSH2 0x5530 JUMP JUMPDEST PUSH1 0x0 DUP3 SSTORE DUP1 PUSH1 0x1F LT PUSH2 0x43F8 JUMPI POP PUSH2 0x4417 JUMP JUMPDEST PUSH1 0x1F ADD PUSH1 0x20 SWAP1 DIV SWAP1 PUSH1 0x0 MSTORE PUSH1 0x20 PUSH1 0x0 KECCAK256 SWAP1 DUP2 ADD SWAP1 PUSH2 0x4416 SWAP2 SWAP1 PUSH2 0x43BD JUMP JUMPDEST JUMPDEST POP JUMP JUMPDEST PUSH1 0x0 PUSH1 0x40 MLOAD SWAP1 POP SWAP1 JUMP JUMPDEST PUSH1 0x0 DUP1 REVERT JUMPDEST PUSH1 0x0 DUP1 REVERT JUMPDEST PUSH1 0x0 PUSH32 0xFFFFFFFF00000000000000000000000000000000000000000000000000000000 DUP3 AND SWAP1 POP SWAP2 SWAP1 POP JUMP JUMPDEST PUSH2 0x4463 DUP2 PUSH2 0x442E JUMP JUMPDEST DUP2 EQ PUSH2 0x446E JUMPI PUSH1 0x0 DUP1 REVERT JUMPDEST POP JUMP JUMPDEST PUSH1 0x0 DUP2 CALLDATALOAD SWAP1 POP PUSH2 0x4480 DUP2 PUSH2 0x445A JUMP JUMPDEST SWAP3 SWAP2 POP POP JUMP JUMPDEST PUSH1 0x0 PUSH1 0x20 DUP3 DUP5 SUB SLT ISZERO PUSH2 0x449C JUMPI PUSH2 0x449B PUSH2 0x4424 JUMP JUMPDEST JUMPDEST PUSH1 0x0 PUSH2 0x44AA DUP5 DUP3 DUP6 ADD PUSH2 0x4471 JUMP JUMPDEST SWAP2 POP POP SWAP3 SWAP2 POP POP JUMP JUMPDEST PUSH1 0x0 DUP2 ISZERO ISZERO SWAP1 POP SWAP2 SWAP1 POP JUMP JUMPDEST PUSH2 0x44C8 DUP2 PUSH2 0x44B3 JUMP JUMPDEST DUP3 MSTORE POP POP JUMP JUMPDEST PUSH1 0x0 PUSH1 0x20 DUP3 ADD SWAP1 POP PUSH2 0x44E3 PUSH1 0x0 DUP4 ADD DUP5 PUSH2 0x44BF JUMP JUMPDEST SWAP3 SWAP2 POP POP JUMP JUMPDEST PUSH1 0x0 DUP2 MLOAD SWAP1 POP SWAP2 SWAP1 POP JUMP JUMPDEST PUSH1 0x0 DUP3 DUP3 MSTORE PUSH1 0x20 DUP3 ADD SWAP1 POP SWAP3 SWAP2 POP POP JUMP JUMPDEST PUSH1 0x0 JUMPDEST DUP4 DUP2 LT ISZERO PUSH2 0x4523 JUMPI DUP1 DUP3 ADD MLOAD DUP2 DUP5 ADD MSTORE PUSH1 0x20 DUP2 ADD SWAP1 POP PUSH2 0x4508 JUMP JUMPDEST PUSH1 0x0 DUP5 DUP5 ADD MSTORE POP POP POP POP JUMP JUMPDEST PUSH1 0x0 PUSH1 0x1F NOT PUSH1 0x1F DUP4 ADD AND SWAP1 POP SWAP2 SWAP1 POP JUMP JUMPDEST PUSH1 0x0 PUSH2 0x454B DUP3 PUSH2 0x44E9 JUMP JUMPDEST PUSH2 0x4555 DUP2 DUP6 PUSH2 0x44F4 JUMP JUMPDEST SWAP4 POP PUSH2 0x4565 DUP2 DUP6 PUSH1 0x20 DUP7 ADD PUSH2 0x4505 JUMP JUMPDEST PUSH2 0x456E DUP2 PUSH2 0x452F JUMP JUMPDEST DUP5 ADD SWAP2 POP POP SWAP3 SWAP2 POP POP JUMP JUMPDEST PUSH1 0x0 PUSH1 0x20 DUP3 ADD SWAP1 POP DUP2 DUP2 SUB PUSH1 0x0 DUP4 ADD MSTORE PUSH2 0x4593 DUP2 DUP5 PUSH2 0x4540 JUMP JUMPDEST SWAP1 POP SWAP3 SWAP2 POP POP JUMP JUMPDEST PUSH1 0x0 DUP2 SWAP1 POP SWAP2 SWAP1 POP JUMP JUMPDEST PUSH2 0x45AE DUP2 PUSH2 0x459B JUMP JUMPDEST DUP2 EQ PUSH2 0x45B9 JUMPI PUSH1 0x0 DUP1 REVERT JUMPDEST POP JUMP JUMPDEST PUSH1 0x0 DUP2 CALLDATALOAD SWAP1 POP PUSH2 0x45CB DUP2 PUSH2 0x45A5 JUMP JUMPDEST SWAP3 SWAP2 POP POP JUMP JUMPDEST PUSH1 0x0 PUSH1 0x20 DUP3 DUP5 SUB SLT ISZERO PUSH2 0x45E7 JUMPI PUSH2 0x45E6 PUSH2 0x4424 JUMP JUMPDEST JUMPDEST PUSH1 0x0 PUSH2 0x45F5 DUP5 DUP3 DUP6 ADD PUSH2 0x45BC JUMP JUMPDEST SWAP2 POP POP SWAP3 SWAP2 POP POP JUMP JUMPDEST PUSH1 0x0 PUSH20 0xFFFFFFFFFFFFFFFFFFFFFFFFFFFFFFFFFFFFFFFF DUP3 AND SWAP1 POP SWAP2 SWAP1 POP JUMP JUMPDEST PUSH1 0x0 PUSH2 0x4629 DUP3 PUSH2 0x45FE JUMP JUMPDEST SWAP1 POP SWAP2 SWAP1 POP JUMP JUMPDEST PUSH2 0x4639 DUP2 PUSH2 0x461E JUMP JUMPDEST DUP3 MSTORE POP POP JUMP JUMPDEST PUSH1 0x0 PUSH1 0x20 DUP3 ADD SWAP1 POP PUSH2 0x4654 PUSH1 0x0 DUP4 ADD DUP5 PUSH2 0x4630 JUMP JUMPDEST SWAP3 SWAP2 POP POP JUMP JUMPDEST PUSH2 0x4663 DUP2 PUSH2 0x461E JUMP JUMPDEST DUP2 EQ PUSH2 0x466E JUMPI PUSH1 0x0 DUP1 REVERT JUMPDEST POP JUMP JUMPDEST PUSH1 0x0 DUP2 CALLDATALOAD SWAP1 POP PUSH2 0x4680 DUP2 PUSH2 0x465A JUMP JUMPDEST SWAP3 SWAP2 POP POP JUMP JUMPDEST PUSH1 0x0 DUP1 PUSH1 0x40 DUP4 DUP6 SUB SLT ISZERO PUSH2 0x469D JUMPI PUSH2 0x469C PUSH2 0x4424 JUMP JUMPDEST JUMPDEST PUSH1 0x0 PUSH2 0x46AB DUP6 DUP3 DUP7 ADD PUSH2 0x4671 JUMP JUMPDEST SWAP3 POP POP PUSH1 0x20 PUSH2 0x46BC DUP6 DUP3 DUP7 ADD PUSH2 0x45BC JUMP JUMPDEST SWAP2 POP POP SWAP3 POP SWAP3 SWAP1 POP JUMP JUMPDEST PUSH1 0x0 DUP1 REVERT JUMPDEST PUSH1 0x0 DUP1 REVERT JUMPDEST PUSH1 0x0 DUP1 REVERT JUMPDEST PUSH1 0x0 DUP1 DUP4 PUSH1 0x1F DUP5 ADD SLT PUSH2 0x46EB JUMPI PUSH2 0x46EA PUSH2 0x46C6 JUMP JUMPDEST JUMPDEST DUP3 CALLDATALOAD SWAP1 POP PUSH8 0xFFFFFFFFFFFFFFFF DUP2 GT ISZERO PUSH2 0x4708 JUMPI PUSH2 0x4707 PUSH2 0x46CB JUMP JUMPDEST JUMPDEST PUSH1 0x20 DUP4 ADD SWAP2 POP DUP4 PUSH1 0x1 DUP3 MUL DUP4 ADD GT ISZERO PUSH2 0x4724 JUMPI PUSH2 0x4723 PUSH2 0x46D0 JUMP JUMPDEST JUMPDEST SWAP3 POP SWAP3 SWAP1 POP JUMP JUMPDEST PUSH1 0x0 PUSH2 0xFFFF DUP3 AND SWAP1 POP SWAP2 SWAP1 POP JUMP JUMPDEST PUSH2 0x4742 DUP2 PUSH2 0x472B JUMP JUMPDEST DUP2 EQ PUSH2 0x474D JUMPI PUSH1 0x0 DUP1 REVERT JUMPDEST POP JUMP JUMPDEST PUSH1 0x0 DUP2 CALLDATALOAD SWAP1 POP PUSH2 0x475F DUP2 PUSH2 0x4739 JUMP JUMPDEST SWAP3 SWAP2 POP POP JUMP JUMPDEST PUSH1 0x0 DUP1 PUSH1 0x0 DUP1 PUSH1 0x0 DUP1 PUSH1 0x0 DUP1 PUSH1 0x0 PUSH1 0xA0 DUP11 DUP13 SUB SLT ISZERO PUSH2 0x4787 JUMPI PUSH2 0x4786 PUSH2 0x4424 JUMP JUMPDEST JUMPDEST PUSH1 0x0 DUP11 ADD CALLDATALOAD PUSH8 0xFFFFFFFFFFFFFFFF DUP2 GT ISZERO PUSH2 0x47A5 JUMPI PUSH2 0x47A4 PUSH2 0x4429 JUMP JUMPDEST JUMPDEST PUSH2 0x47B1 DUP13 DUP3 DUP14 ADD PUSH2 0x46D5 JUMP JUMPDEST SWAP10 POP SWAP10 POP POP PUSH1 0x20 DUP11 ADD CALLDATALOAD PUSH8 0xFFFFFFFFFFFFFFFF DUP2 GT ISZERO PUSH2 0x47D4 JUMPI PUSH2 0x47D3 PUSH2 0x4429 JUMP JUMPDEST JUMPDEST PUSH2 0x47E0 DUP13 DUP3 DUP14 ADD PUSH2 0x46D5 JUMP JUMPDEST SWAP8 POP SWAP8 POP POP PUSH1 0x40 DUP11 ADD CALLDATALOAD PUSH8 0xFFFFFFFFFFFFFFFF DUP2 GT ISZERO PUSH2 0x4803 JUMPI PUSH2 0x4802 PUSH2 0x4429 JUMP JUMPDEST JUMPDEST PUSH2 0x480F DUP13 DUP3 DUP14 ADD PUSH2 0x46D5 JUMP JUMPDEST SWAP6 POP SWAP6 POP POP PUSH1 0x60 DUP11 ADD CALLDATALOAD PUSH8 0xFFFFFFFFFFFFFFFF DUP2 GT ISZERO PUSH2 0x4832 JUMPI PUSH2 0x4831 PUSH2 0x4429 JUMP JUMPDEST JUMPDEST PUSH2 0x483E DUP13 DUP3 DUP14 ADD PUSH2 0x46D5 JUMP JUMPDEST SWAP4 POP SWAP4 POP POP PUSH1 0x80 PUSH2 0x4851 DUP13 DUP3 DUP14 ADD PUSH2 0x4750 JUMP JUMPDEST SWAP2 POP POP SWAP3 SWAP6 SWAP9 POP SWAP3 SWAP6 SWAP9 POP SWAP3 SWAP6 SWAP9 JUMP JUMPDEST PUSH1 0x0 DUP1 REVERT JUMPDEST PUSH32 0x4E487B7100000000000000000000000000000000000000000000000000000000 PUSH1 0x0 MSTORE PUSH1 0x41 PUSH1 0x4 MSTORE PUSH1 0x24 PUSH1 0x0 REVERT JUMPDEST PUSH2 0x489E DUP3 PUSH2 0x452F JUMP JUMPDEST DUP2 ADD DUP2 DUP2 LT PUSH8 0xFFFFFFFFFFFFFFFF DUP3 GT OR ISZERO PUSH2 0x48BD JUMPI PUSH2 0x48BC PUSH2 0x4866 JUMP JUMPDEST JUMPDEST DUP1 PUSH1 0x40 MSTORE POP POP POP JUMP JUMPDEST PUSH1 0x0 PUSH2 0x48D0 PUSH2 0x441A JUMP JUMPDEST SWAP1 POP PUSH2 0x48DC DUP3 DUP3 PUSH2 0x4895 JUMP JUMPDEST SWAP2 SWAP1 POP JUMP JUMPDEST PUSH1 0x0 PUSH8 0xFFFFFFFFFFFFFFFF DUP3 GT ISZERO PUSH2 0x48FC JUMPI PUSH2 0x48FB PUSH2 0x4866 JUMP JUMPDEST JUMPDEST PUSH2 0x4905 DUP3 PUSH2 0x452F JUMP JUMPDEST SWAP1 POP PUSH1 0x20 DUP2 ADD SWAP1 POP SWAP2 SWAP1 POP JUMP JUMPDEST DUP3 DUP2 DUP4 CALLDATACOPY PUSH1 0x0 DUP4 DUP4 ADD MSTORE POP POP POP JUMP JUMPDEST PUSH1 0x0 PUSH2 0x4934 PUSH2 0x492F DUP5 PUSH2 0x48E1 JUMP JUMPDEST PUSH2 0x48C6 JUMP JUMPDEST SWAP1 POP DUP3 DUP2 MSTORE PUSH1 0x20 DUP2 ADD DUP5 DUP5 DUP5 ADD GT ISZERO PUSH2 0x4950 JUMPI PUSH2 0x494F PUSH2 0x4861 JUMP JUMPDEST JUMPDEST PUSH2 0x495B DUP5 DUP3 DUP6 PUSH2 0x4912 JUMP JUMPDEST POP SWAP4 SWAP3 POP POP POP JUMP JUMPDEST PUSH1 0x0 DUP3 PUSH1 0x1F DUP4 ADD SLT PUSH2 0x4978 JUMPI PUSH2 0x4977 PUSH2 0x46C6 JUMP JUMPDEST JUMPDEST DUP2 CALLDATALOAD PUSH2 0x4988 DUP5 DUP3 PUSH1 0x20 DUP7 ADD PUSH2 0x4921 JUMP JUMPDEST SWAP2 POP POP SWAP3 SWAP2 POP POP JUMP JUMPDEST PUSH1 0x0 PUSH1 0x20 DUP3 DUP5 SUB SLT ISZERO PUSH2 0x49A7 JUMPI PUSH2 0x49A6 PUSH2 0x4424 JUMP JUMPDEST JUMPDEST PUSH1 0x0 DUP3 ADD CALLDATALOAD PUSH8 0xFFFFFFFFFFFFFFFF DUP2 GT ISZERO PUSH2 0x49C5 JUMPI PUSH2 0x49C4 PUSH2 0x4429 JUMP JUMPDEST JUMPDEST PUSH2 0x49D1 DUP5 DUP3 DUP6 ADD PUSH2 0x4963 JUMP JUMPDEST SWAP2 POP POP SWAP3 SWAP2 POP POP JUMP JUMPDEST PUSH2 0x49E3 DUP2 PUSH2 0x459B JUMP JUMPDEST DUP3 MSTORE POP POP JUMP JUMPDEST PUSH1 0x0 PUSH1 0x20 DUP3 ADD SWAP1 POP PUSH2 0x49FE PUSH1 0x0 DUP4 ADD DUP5 PUSH2 0x49DA JUMP JUMPDEST SWAP3 SWAP2 POP POP JUMP JUMPDEST PUSH1 0x0 DUP1 PUSH1 0x0 PUSH1 0x60 DUP5 DUP7 SUB SLT ISZERO PUSH2 0x4A1D JUMPI PUSH2 0x4A1C PUSH2 0x4424 JUMP JUMPDEST JUMPDEST PUSH1 0x0 PUSH2 0x4A2B DUP7 DUP3 DUP8 ADD PUSH2 0x4671 JUMP JUMPDEST SWAP4 POP POP PUSH1 0x20 PUSH2 0x4A3C DUP7 DUP3 DUP8 ADD PUSH2 0x4671 JUMP JUMPDEST SWAP3 POP POP PUSH1 0x40 PUSH2 0x4A4D DUP7 DUP3 DUP8 ADD PUSH2 0x45BC JUMP JUMPDEST SWAP2 POP POP SWAP3 POP SWAP3 POP SWAP3 JUMP JUMPDEST PUSH1 0x0 DUP1 PUSH1 0x20 DUP4 DUP6 SUB SLT ISZERO PUSH2 0x4A6E JUMPI PUSH2 0x4A6D PUSH2 0x4424 JUMP JUMPDEST JUMPDEST PUSH1 0x0 DUP4 ADD CALLDATALOAD PUSH8 0xFFFFFFFFFFFFFFFF DUP2 GT ISZERO PUSH2 0x4A8C JUMPI PUSH2 0x4A8B PUSH2 0x4429 JUMP JUMPDEST JUMPDEST PUSH2 0x4A98 DUP6 DUP3 DUP7 ADD PUSH2 0x46D5 JUMP JUMPDEST SWAP3 POP SWAP3 POP POP SWAP3 POP SWAP3 SWAP1 POP JUMP JUMPDEST PUSH1 0x0 DUP3 DUP3 MSTORE PUSH1 0x20 DUP3 ADD SWAP1 POP SWAP3 SWAP2 POP POP JUMP JUMPDEST PUSH1 0x0 PUSH2 0x4AC0 DUP3 PUSH2 0x44E9 JUMP JUMPDEST PUSH2 0x4ACA DUP2 DUP6 PUSH2 0x4AA4 JUMP JUMPDEST SWAP4 POP PUSH2 0x4ADA DUP2 DUP6 PUSH1 0x20 DUP7 ADD PUSH2 0x4505 JUMP JUMPDEST PUSH2 0x4AE3 DUP2 PUSH2 0x452F JUMP JUMPDEST DUP5 ADD SWAP2 POP POP SWAP3 SWAP2 POP POP JUMP JUMPDEST PUSH2 0x4AF7 DUP2 PUSH2 0x461E JUMP JUMPDEST DUP3 MSTORE POP POP JUMP JUMPDEST PUSH2 0x4B06 DUP2 PUSH2 0x472B JUMP JUMPDEST DUP3 MSTORE POP POP JUMP JUMPDEST PUSH1 0x0 DUP2 MLOAD SWAP1 POP SWAP2 SWAP1 POP JUMP JUMPDEST PUSH1 0x0 DUP3 DUP3 MSTORE PUSH1 0x20 DUP3 ADD SWAP1 POP SWAP3 SWAP2 POP POP JUMP JUMPDEST PUSH1 0x0 DUP2 SWAP1 POP PUSH1 0x20 DUP3 ADD SWAP1 POP SWAP2 SWAP1 POP JUMP JUMPDEST PUSH1 0x0 PUSH2 0x4B44 DUP4 DUP4 PUSH2 0x4AB5 JUMP JUMPDEST SWAP1 POP SWAP3 SWAP2 POP POP JUMP JUMPDEST PUSH1 0x0 PUSH1 0x20 DUP3 ADD SWAP1 POP SWAP2 SWAP1 POP JUMP JUMPDEST PUSH1 0x0 PUSH2 0x4B64 DUP3 PUSH2 0x4B0C JUMP JUMPDEST PUSH2 0x4B6E DUP2 DUP6 PUSH2 0x4B17 JUMP JUMPDEST SWAP4 POP DUP4 PUSH1 0x20 DUP3 MUL DUP6 ADD PUSH2 0x4B80 DUP6 PUSH2 0x4B28 JUMP JUMPDEST DUP1 PUSH1 0x0 JUMPDEST DUP6 DUP2 LT ISZERO PUSH2 0x4BBC JUMPI DUP5 DUP5 SUB DUP10 MSTORE DUP2 MLOAD PUSH2 0x4B9D DUP6 DUP3 PUSH2 0x4B38 JUMP JUMPDEST SWAP5 POP PUSH2 0x4BA8 DUP4 PUSH2 0x4B4C JUMP JUMPDEST SWAP3 POP PUSH1 0x20 DUP11 ADD SWAP10 POP POP PUSH1 0x1 DUP2 ADD SWAP1 POP PUSH2 0x4B84 JUMP JUMPDEST POP DUP3 SWAP8 POP DUP8 SWAP6 POP POP POP POP POP POP SWAP3 SWAP2 POP POP JUMP JUMPDEST PUSH1 0x0 DUP2 MLOAD SWAP1 POP SWAP2 SWAP1 POP JUMP JUMPDEST PUSH1 0x0 DUP3 DUP3 MSTORE PUSH1 0x20 DUP3 ADD SWAP1 POP SWAP3 SWAP2 POP POP JUMP JUMPDEST PUSH1 0x0 DUP2 SWAP1 POP PUSH1 0x20 DUP3 ADD SWAP1 POP SWAP2 SWAP1 POP JUMP JUMPDEST PUSH1 0x0 PUSH2 0x4C06 DUP4 DUP4 PUSH2 0x4AEE JUMP JUMPDEST PUSH1 0x20 DUP4 ADD SWAP1 POP SWAP3 SWAP2 POP POP JUMP JUMPDEST PUSH1 0x0 PUSH1 0x20 DUP3 ADD SWAP1 POP SWAP2 SWAP1 POP JUMP JUMPDEST PUSH1 0x0 PUSH2 0x4C2A DUP3 PUSH2 0x4BCE JUMP JUMPDEST PUSH2 0x4C34 DUP2 DUP6 PUSH2 0x4BD9 JUMP JUMPDEST SWAP4 POP PUSH2 0x4C3F DUP4 PUSH2 0x4BEA JUMP JUMPDEST DUP1 PUSH1 0x0 JUMPDEST DUP4 DUP2 LT ISZERO PUSH2 0x4C70 JUMPI DUP2 MLOAD PUSH2 0x4C57 DUP9 DUP3 PUSH2 0x4BFA JUMP JUMPDEST SWAP8 POP PUSH2 0x4C62 DUP4 PUSH2 0x4C12 JUMP JUMPDEST SWAP3 POP POP PUSH1 0x1 DUP2 ADD SWAP1 POP PUSH2 0x4C43 JUMP JUMPDEST POP DUP6 SWAP4 POP POP POP POP SWAP3 SWAP2 POP POP JUMP JUMPDEST PUSH1 0x0 PUSH1 0xC0 DUP4 ADD PUSH1 0x0 DUP4 ADD MLOAD DUP5 DUP3 SUB PUSH1 0x0 DUP7 ADD MSTORE PUSH2 0x4C9A DUP3 DUP3 PUSH2 0x4AB5 JUMP JUMPDEST SWAP2 POP POP PUSH1 0x20 DUP4 ADD MLOAD DUP5 DUP3 SUB PUSH1 0x20 DUP7 ADD MSTORE PUSH2 0x4CB4 DUP3 DUP3 PUSH2 0x4AB5 JUMP JUMPDEST SWAP2 POP POP PUSH1 0x40 DUP4 ADD MLOAD PUSH2 0x4CC9 PUSH1 0x40 DUP7 ADD DUP3 PUSH2 0x4AEE JUMP JUMPDEST POP PUSH1 0x60 DUP4 ADD MLOAD PUSH2 0x4CDC PUSH1 0x60 DUP7 ADD DUP3 PUSH2 0x4AFD JUMP JUMPDEST POP PUSH1 0x80 DUP4 ADD MLOAD DUP5 DUP3 SUB PUSH1 0x80 DUP7 ADD MSTORE PUSH2 0x4CF4 DUP3 DUP3 PUSH2 0x4B59 JUMP JUMPDEST SWAP2 POP POP PUSH1 0xA0 DUP4 ADD MLOAD DUP5 DUP3 SUB PUSH1 0xA0 DUP7 ADD MSTORE PUSH2 0x4D0E DUP3 DUP3 PUSH2 0x4C1F JUMP JUMPDEST SWAP2 POP POP DUP1 SWAP2 POP POP SWAP3 SWAP2 POP POP JUMP JUMPDEST PUSH1 0x0 PUSH1 0x20 DUP3 ADD SWAP1 POP DUP2 DUP2 SUB PUSH1 0x0 DUP4 ADD MSTORE PUSH2 0x4D35 DUP2 DUP5 PUSH2 0x4C7D JUMP JUMPDEST SWAP1 POP SWAP3 SWAP2 POP POP JUMP JUMPDEST PUSH1 0x0 DUP1 PUSH1 0x0 DUP1 PUSH1 0x40 DUP6 DUP8 SUB SLT ISZERO PUSH2 0x4D57 JUMPI PUSH2 0x4D56 PUSH2 0x4424 JUMP JUMPDEST JUMPDEST PUSH1 0x0 DUP6 ADD CALLDATALOAD PUSH8 0xFFFFFFFFFFFFFFFF DUP2 GT ISZERO PUSH2 0x4D75 JUMPI PUSH2 0x4D74 PUSH2 0x4429 JUMP JUMPDEST JUMPDEST PUSH2 0x4D81 DUP8 DUP3 DUP9 ADD PUSH2 0x46D5 JUMP JUMPDEST SWAP5 POP SWAP5 POP POP PUSH1 0x20 DUP6 ADD CALLDATALOAD PUSH8 0xFFFFFFFFFFFFFFFF DUP2 GT ISZERO PUSH2 0x4DA4 JUMPI PUSH2 0x4DA3 PUSH2 0x4429 JUMP JUMPDEST JUMPDEST PUSH2 0x4DB0 DUP8 DUP3 DUP9 ADD PUSH2 0x46D5 JUMP JUMPDEST SWAP3 POP SWAP3 POP POP SWAP3 SWAP6 SWAP2 SWAP5 POP SWAP3 POP JUMP JUMPDEST PUSH1 0x0 PUSH1 0x20 DUP3 DUP5 SUB SLT ISZERO PUSH2 0x4DD4 JUMPI PUSH2 0x4DD3 PUSH2 0x4424 JUMP JUMPDEST JUMPDEST PUSH1 0x0 PUSH2 0x4DE2 DUP5 DUP3 DUP6 ADD PUSH2 0x4671 JUMP JUMPDEST SWAP2 POP POP SWAP3 SWAP2 POP POP JUMP JUMPDEST PUSH1 0x0 PUSH1 0xA0 DUP4 ADD PUSH1 0x0 DUP4 ADD MLOAD DUP5 DUP3 SUB PUSH1 0x0 DUP7 ADD MSTORE PUSH2 0x4E08 DUP3 DUP3 PUSH2 0x4AB5 JUMP JUMPDEST SWAP2 POP POP PUSH1 0x20 DUP4 ADD MLOAD DUP5 DUP3 SUB PUSH1 0x20 DUP7 ADD MSTORE PUSH2 0x4E22 DUP3 DUP3 PUSH2 0x4AB5 JUMP JUMPDEST SWAP2 POP POP PUSH1 0x40 DUP4 ADD MLOAD DUP5 DUP3 SUB PUSH1 0x40 DUP7 ADD MSTORE PUSH2 0x4E3C DUP3 DUP3 PUSH2 0x4AB5 JUMP JUMPDEST SWAP2 POP POP PUSH1 0x60 DUP4 ADD MLOAD DUP5 DUP3 SUB PUSH1 0x60 DUP7 ADD MSTORE PUSH2 0x4E56 DUP3 DUP3 PUSH2 0x4AB5 JUMP JUMPDEST SWAP2 POP POP PUSH1 0x80 DUP4 ADD MLOAD PUSH2 0x4E6B PUSH1 0x80 DUP7 ADD DUP3 PUSH2 0x4AFD JUMP JUMPDEST POP DUP1 SWAP2 POP POP SWAP3 SWAP2 POP POP JUMP JUMPDEST PUSH1 0x0 PUSH1 0x20 DUP3 ADD SWAP1 POP DUP2 DUP2 SUB PUSH1 0x0 DUP4 ADD MSTORE PUSH2 0x4E90 DUP2 DUP5 PUSH2 0x4DEB JUMP JUMPDEST SWAP1 POP SWAP3 SWAP2 POP POP JUMP JUMPDEST PUSH1 0x0 DUP3 DUP3 MSTORE PUSH1 0x20 DUP3 ADD SWAP1 POP SWAP3 SWAP2 POP POP JUMP JUMPDEST PUSH1 0x0 PUSH2 0x4EB4 DUP3 PUSH2 0x4B0C JUMP JUMPDEST PUSH2 0x4EBE DUP2 DUP6 PUSH2 0x4E98 JUMP JUMPDEST SWAP4 POP DUP4 PUSH1 0x20 DUP3 MUL DUP6 ADD PUSH2 0x4ED0 DUP6 PUSH2 0x4B28 JUMP JUMPDEST DUP1 PUSH1 0x0 JUMPDEST DUP6 DUP2 LT ISZERO PUSH2 0x4F0C JUMPI DUP5 DUP5 SUB DUP10 MSTORE DUP2 MLOAD PUSH2 0x4EED DUP6 DUP3 PUSH2 0x4B38 JUMP JUMPDEST SWAP5 POP PUSH2 0x4EF8 DUP4 PUSH2 0x4B4C JUMP JUMPDEST SWAP3 POP PUSH1 0x20 DUP11 ADD SWAP10 POP POP PUSH1 0x1 DUP2 ADD SWAP1 POP PUSH2 0x4ED4 JUMP JUMPDEST POP DUP3 SWAP8 POP DUP8 SWAP6 POP POP POP POP POP POP SWAP3 SWAP2 POP POP JUMP JUMPDEST PUSH1 0x0 PUSH1 0x20 DUP3 ADD SWAP1 POP DUP2 DUP2 SUB PUSH1 0x0 DUP4 ADD MSTORE PUSH2 0x4F38 DUP2 DUP5 PUSH2 0x4EA9 JUMP JUMPDEST SWAP1 POP SWAP3 SWAP2 POP POP JUMP JUMPDEST PUSH1 0x0 DUP1 PUSH1 0x0 PUSH1 0x40 DUP5 DUP7 SUB SLT ISZERO PUSH2 0x4F59 JUMPI PUSH2 0x4F58 PUSH2 0x4424 JUMP JUMPDEST JUMPDEST PUSH1 0x0 DUP5 ADD CALLDATALOAD PUSH8 0xFFFFFFFFFFFFFFFF DUP2 GT ISZERO PUSH2 0x4F77 JUMPI PUSH2 0x4F76 PUSH2 0x4429 JUMP JUMPDEST JUMPDEST PUSH2 0x4F83 DUP7 DUP3 DUP8 ADD PUSH2 0x4963 JUMP JUMPDEST SWAP4 POP POP PUSH1 0x20 DUP5 ADD CALLDATALOAD PUSH8 0xFFFFFFFFFFFFFFFF DUP2 GT ISZERO PUSH2 0x4FA4 JUMPI PUSH2 0x4FA3 PUSH2 0x4429 JUMP JUMPDEST JUMPDEST PUSH2 0x4FB0 DUP7 DUP3 DUP8 ADD PUSH2 0x46D5 JUMP JUMPDEST SWAP3 POP SWAP3 POP POP SWAP3 POP SWAP3 POP SWAP3 JUMP JUMPDEST PUSH1 0x0 DUP2 MLOAD SWAP1 POP SWAP2 SWAP1 POP JUMP JUMPDEST PUSH1 0x0 DUP3 DUP3 MSTORE PUSH1 0x20 DUP3 ADD SWAP1 POP SWAP3 SWAP2 POP POP JUMP JUMPDEST PUSH1 0x0 DUP2 SWAP1 POP PUSH1 0x20 DUP3 ADD SWAP1 POP SWAP2 SWAP1 POP JUMP JUMPDEST PUSH1 0x0 PUSH1 0x40 DUP4 ADD PUSH1 0x0 DUP4 ADD MLOAD DUP5 DUP3 SUB PUSH1 0x0 DUP7 ADD MSTORE PUSH2 0x5005 DUP3 DUP3 PUSH2 0x4AB5 JUMP JUMPDEST SWAP2 POP POP PUSH1 0x20 DUP4 ADD MLOAD PUSH2 0x501A PUSH1 0x20 DUP7 ADD DUP3 PUSH2 0x4AFD JUMP JUMPDEST POP DUP1 SWAP2 POP POP SWAP3 SWAP2 POP POP JUMP JUMPDEST PUSH1 0x0 PUSH2 0x5031 DUP4 DUP4 PUSH2 0x4FE8 JUMP JUMPDEST SWAP1 POP SWAP3 SWAP2 POP POP JUMP JUMPDEST PUSH1 0x0 PUSH1 0x20 DUP3 ADD SWAP1 POP SWAP2 SWAP1 POP JUMP JUMPDEST PUSH1 0x0 PUSH2 0x5051 DUP3 PUSH2 0x4FBC JUMP JUMPDEST PUSH2 0x505B DUP2 DUP6 PUSH2 0x4FC7 JUMP JUMPDEST SWAP4 POP DUP4 PUSH1 0x20 DUP3 MUL DUP6 ADD PUSH2 0x506D DUP6 PUSH2 0x4FD8 JUMP JUMPDEST DUP1 PUSH1 0x0 JUMPDEST DUP6 DUP2 LT ISZERO PUSH2 0x50A9 JUMPI DUP5 DUP5 SUB DUP10 MSTORE DUP2 MLOAD PUSH2 0x508A DUP6 DUP3 PUSH2 0x5025 JUMP JUMPDEST SWAP5 POP PUSH2 0x5095 DUP4 PUSH2 0x5039 JUMP JUMPDEST SWAP3 POP PUSH1 0x20 DUP11 ADD SWAP10 POP POP PUSH1 0x1 DUP2 ADD SWAP1 POP PUSH2 0x5071 JUMP JUMPDEST POP DUP3 SWAP8 POP DUP8 SWAP6 POP POP POP POP POP POP SWAP3 SWAP2 POP POP JUMP JUMPDEST PUSH1 0x0 DUP2 MLOAD SWAP1 POP SWAP2 SWAP1 POP JUMP JUMPDEST PUSH1 0x0 DUP3 DUP3 MSTORE PUSH1 0x20 DUP3 ADD SWAP1 POP SWAP3 SWAP2 POP POP JUMP JUMPDEST PUSH1 0x0 DUP2 SWAP1 POP PUSH1 0x20 DUP3 ADD SWAP1 POP SWAP2 SWAP1 POP JUMP JUMPDEST PUSH2 0x50F0 DUP2 PUSH2 0x459B JUMP JUMPDEST DUP3 MSTORE POP POP JUMP JUMPDEST PUSH1 0x0 PUSH2 0x5102 DUP4 DUP4 PUSH2 0x50E7 JUMP JUMPDEST PUSH1 0x20 DUP4 ADD SWAP1 POP SWAP3 SWAP2 POP POP JUMP JUMPDEST PUSH1 0x0 PUSH1 0x20 DUP3 ADD SWAP1 POP SWAP2 SWAP1 POP JUMP JUMPDEST PUSH1 0x0 PUSH2 0x5126 DUP3 PUSH2 0x50BB JUMP JUMPDEST PUSH2 0x5130 DUP2 DUP6 PUSH2 0x50C6 JUMP JUMPDEST SWAP4 POP PUSH2 0x513B DUP4 PUSH2 0x50D7 JUMP JUMPDEST DUP1 PUSH1 0x0 JUMPDEST DUP4 DUP2 LT ISZERO PUSH2 0x516C JUMPI DUP2 MLOAD PUSH2 0x5153 DUP9 DUP3 PUSH2 0x50F6 JUMP JUMPDEST SWAP8 POP PUSH2 0x515E DUP4 PUSH2 0x510E JUMP JUMPDEST SWAP3 POP POP PUSH1 0x1 DUP2 ADD SWAP1 POP PUSH2 0x513F JUMP JUMPDEST POP DUP6 SWAP4 POP POP POP POP SWAP3 SWAP2 POP POP JUMP JUMPDEST PUSH2 0x5182 DUP2 PUSH2 0x44B3 JUMP JUMPDEST DUP3 MSTORE POP POP JUMP JUMPDEST PUSH1 0x0 PUSH2 0x120 DUP4 ADD PUSH1 0x0 DUP4 ADD MLOAD DUP5 DUP3 SUB PUSH1 0x0 DUP7 ADD MSTORE PUSH2 0x51A6 DUP3 DUP3 PUSH2 0x4AB5 JUMP JUMPDEST SWAP2 POP POP PUSH1 0x20 DUP4 ADD MLOAD DUP5 DUP3 SUB PUSH1 0x20 DUP7 ADD MSTORE PUSH2 0x51C0 DUP3 DUP3 PUSH2 0x4B59 JUMP JUMPDEST SWAP2 POP POP PUSH1 0x40 DUP4 ADD MLOAD DUP5 DUP3 SUB PUSH1 0x40 DUP7 ADD MSTORE PUSH2 0x51DA DUP3 DUP3 PUSH2 0x4B59 JUMP JUMPDEST SWAP2 POP POP PUSH1 0x60 DUP4 ADD MLOAD DUP5 DUP3 SUB PUSH1 0x60 DUP7 ADD MSTORE PUSH2 0x51F4 DUP3 DUP3 PUSH2 0x4B59 JUMP JUMPDEST SWAP2 POP POP PUSH1 0x80 DUP4 ADD MLOAD DUP5 DUP3 SUB PUSH1 0x80 DUP7 ADD MSTORE PUSH2 0x520E DUP3 DUP3 PUSH2 0x5046 JUMP JUMPDEST SWAP2 POP POP PUSH1 0xA0 DUP4 ADD MLOAD DUP5 DUP3 SUB PUSH1 0xA0 DUP7 ADD MSTORE PUSH2 0x5228 DUP3 DUP3 PUSH2 0x4AB5 JUMP JUMPDEST SWAP2 POP POP PUSH1 0xC0 DUP4 ADD MLOAD DUP5 DUP3 SUB PUSH1 0xC0 DUP7 ADD MSTORE PUSH2 0x5242 DUP3 DUP3 PUSH2 0x511B JUMP JUMPDEST SWAP2 POP POP PUSH1 0xE0 DUP4 ADD MLOAD PUSH2 0x5257 PUSH1 0xE0 DUP7 ADD DUP3 PUSH2 0x5179 JUMP JUMPDEST POP PUSH2 0x100 DUP4 ADD MLOAD DUP5 DUP3 SUB PUSH2 0x100 DUP7 ADD MSTORE PUSH2 0x5271 DUP3 DUP3 PUSH2 0x4B59 JUMP JUMPDEST SWAP2 POP POP DUP1 SWAP2 POP POP SWAP3 SWAP2 POP POP JUMP JUMPDEST PUSH1 0x0 PUSH1 0x20 DUP3 ADD SWAP1 POP DUP2 DUP2 SUB PUSH1 0x0 DUP4 ADD MSTORE PUSH2 0x5298 DUP2 DUP5 PUSH2 0x5188 JUMP JUMPDEST SWAP1 POP SWAP3 SWAP2 POP POP JUMP JUMPDEST PUSH2 0x52A9 DUP2 PUSH2 0x44B3 JUMP JUMPDEST DUP2 EQ PUSH2 0x52B4 JUMPI PUSH1 0x0 DUP1 REVERT JUMPDEST POP JUMP JUMPDEST PUSH1 0x0 DUP2 CALLDATALOAD SWAP1 POP PUSH2 0x52C6 DUP2 PUSH2 0x52A0 JUMP JUMPDEST SWAP3 SWAP2 POP POP JUMP JUMPDEST PUSH1 0x0 DUP1 PUSH1 0x40 DUP4 DUP6 SUB SLT ISZERO PUSH2 0x52E3 JUMPI PUSH2 0x52E2 PUSH2 0x4424 JUMP JUMPDEST JUMPDEST PUSH1 0x0 PUSH2 0x52F1 DUP6 DUP3 DUP7 ADD PUSH2 0x4671 JUMP JUMPDEST SWAP3 POP POP PUSH1 0x20 PUSH2 0x5302 DUP6 DUP3 DUP7 ADD PUSH2 0x52B7 JUMP JUMPDEST SWAP2 POP POP SWAP3 POP SWAP3 SWAP1 POP JUMP JUMPDEST PUSH1 0x0 PUSH8 0xFFFFFFFFFFFFFFFF DUP3 GT ISZERO PUSH2 0x5327 JUMPI PUSH2 0x5326 PUSH2 0x4866 JUMP JUMPDEST JUMPDEST PUSH2 0x5330 DUP3 PUSH2 0x452F JUMP JUMPDEST SWAP1 POP PUSH1 0x20 DUP2 ADD SWAP1 POP SWAP2 SWAP1 POP JUMP JUMPDEST PUSH1 0x0 PUSH2 0x5350 PUSH2 0x534B DUP5 PUSH2 0x530C JUMP JUMPDEST PUSH2 0x48C6 JUMP JUMPDEST SWAP1 POP DUP3 DUP2 MSTORE PUSH1 0x20 DUP2 ADD DUP5 DUP5 DUP5 ADD GT ISZERO PUSH2 0x536C JUMPI PUSH2 0x536B PUSH2 0x4861 JUMP JUMPDEST JUMPDEST PUSH2 0x5377 DUP5 DUP3 DUP6 PUSH2 0x4912 JUMP JUMPDEST POP SWAP4 SWAP3 POP POP POP JUMP JUMPDEST PUSH1 0x0 DUP3 PUSH1 0x1F DUP4 ADD SLT PUSH2 0x5394 JUMPI PUSH2 0x5393 PUSH2 0x46C6 JUMP JUMPDEST JUMPDEST DUP2 CALLDATALOAD PUSH2 0x53A4 DUP5 DUP3 PUSH1 0x20 DUP7 ADD PUSH2 0x533D JUMP JUMPDEST SWAP2 POP POP SWAP3 SWAP2 POP POP JUMP JUMPDEST PUSH1 0x0 DUP1 PUSH1 0x0 DUP1 PUSH1 0x80 DUP6 DUP8 SUB SLT ISZERO PUSH2 0x53C7 JUMPI PUSH2 0x53C6 PUSH2 0x4424 JUMP JUMPDEST JUMPDEST PUSH1 0x0 PUSH2 0x53D5 DUP8 DUP3 DUP9 ADD PUSH2 0x4671 JUMP JUMPDEST SWAP5 POP POP PUSH1 0x20 PUSH2 0x53E6 DUP8 DUP3 DUP9 ADD PUSH2 0x4671 JUMP JUMPDEST SWAP4 POP POP PUSH1 0x40 PUSH2 0x53F7 DUP8 DUP3 DUP9 ADD PUSH2 0x45BC JUMP JUMPDEST SWAP3 POP POP PUSH1 0x60 DUP6 ADD CALLDATALOAD PUSH8 0xFFFFFFFFFFFFFFFF DUP2 GT ISZERO PUSH2 0x5418 JUMPI PUSH2 0x5417 PUSH2 0x4429 JUMP JUMPDEST JUMPDEST PUSH2 0x5424 DUP8 DUP3 DUP9 ADD PUSH2 0x537F JUMP JUMPDEST SWAP2 POP POP SWAP3 SWAP6 SWAP2 SWAP5 POP SWAP3 POP JUMP JUMPDEST PUSH1 0x0 DUP3 DUP3 MSTORE PUSH1 0x20 DUP3 ADD SWAP1 POP SWAP3 SWAP2 POP POP JUMP JUMPDEST PUSH1 0x0 PUSH2 0x544C DUP3 PUSH2 0x4BCE JUMP JUMPDEST PUSH2 0x5456 DUP2 DUP6 PUSH2 0x5430 JUMP JUMPDEST SWAP4 POP PUSH2 0x5461 DUP4 PUSH2 0x4BEA JUMP JUMPDEST DUP1 PUSH1 0x0 JUMPDEST DUP4 DUP2 LT ISZERO PUSH2 0x5492 JUMPI DUP2 MLOAD PUSH2 0x5479 DUP9 DUP3 PUSH2 0x4BFA JUMP JUMPDEST SWAP8 POP PUSH2 0x5484 DUP4 PUSH2 0x4C12 JUMP JUMPDEST SWAP3 POP POP PUSH1 0x1 DUP2 ADD SWAP1 POP PUSH2 0x5465 JUMP JUMPDEST POP DUP6 SWAP4 POP POP POP POP SWAP3 SWAP2 POP POP JUMP JUMPDEST PUSH1 0x0 PUSH1 0x20 DUP3 ADD SWAP1 POP DUP2 DUP2 SUB PUSH1 0x0 DUP4 ADD MSTORE PUSH2 0x54B9 DUP2 DUP5 PUSH2 0x5441 JUMP JUMPDEST SWAP1 POP SWAP3 SWAP2 POP POP JUMP JUMPDEST PUSH1 0x0 DUP1 PUSH1 0x40 DUP4 DUP6 SUB SLT ISZERO PUSH2 0x54D8 JUMPI PUSH2 0x54D7 PUSH2 0x4424 JUMP JUMPDEST JUMPDEST PUSH1 0x0 PUSH2 0x54E6 DUP6 DUP3 DUP7 ADD PUSH2 0x4671 JUMP JUMPDEST SWAP3 POP POP PUSH1 0x20 PUSH2 0x54F7 DUP6 DUP3 DUP7 ADD PUSH2 0x4671 JUMP JUMPDEST SWAP2 POP POP SWAP3 POP SWAP3 SWAP1 POP JUMP JUMPDEST PUSH32 0x4E487B7100000000000000000000000000000000000000000000000000000000 PUSH1 0x0 MSTORE PUSH1 0x22 PUSH1 0x4 MSTORE PUSH1 0x24 PUSH1 0x0 REVERT JUMPDEST PUSH1 0x0 PUSH1 0x2 DUP3 DIV SWAP1 POP PUSH1 0x1 DUP3 AND DUP1 PUSH2 0x5548 JUMPI PUSH1 0x7F DUP3 AND SWAP2 POP JUMPDEST PUSH1 0x20 DUP3 LT DUP2 SUB PUSH2 0x555B JUMPI PUSH2 0x555A PUSH2 0x5501 JUMP JUMPDEST JUMPDEST POP SWAP2 SWAP1 POP JUMP JUMPDEST PUSH32 0x4552433732313A20617070726F76656420717565727920666F72206E6F6E6578 PUSH1 0x0 DUP3 ADD MSTORE PUSH32 0x697374656E7420746F6B656E0000000000000000000000000000000000000000 PUSH1 0x20 DUP3 ADD MSTORE POP JUMP JUMPDEST PUSH1 0x0 PUSH2 0x55BD PUSH1 0x2C DUP4 PUSH2 0x44F4 JUMP JUMPDEST SWAP2 POP PUSH2 0x55C8 DUP3 PUSH2 0x5561 JUMP JUMPDEST PUSH1 0x40 DUP3 ADD SWAP1 POP SWAP2 SWAP1 POP JUMP JUMPDEST PUSH1 0x0 PUSH1 0x20 DUP3 ADD SWAP1 POP DUP2 DUP2 SUB PUSH1 0x0 DUP4 ADD MSTORE PUSH2 0x55EC DUP2 PUSH2 0x55B0 JUMP JUMPDEST SWAP1 POP SWAP2 SWAP1 POP JUMP JUMPDEST PUSH32 0x4552433732313A20617070726F76616C20746F2063757272656E74206F776E65 PUSH1 0x0 DUP3 ADD MSTORE PUSH32 0x7200000000000000000000000000000000000000000000000000000000000000 PUSH1 0x20 DUP3 ADD MSTORE POP JUMP JUMPDEST PUSH1 0x0 PUSH2 0x564F PUSH1 0x21 DUP4 PUSH2 0x44F4 JUMP JUMPDEST SWAP2 POP PUSH2 0x565A DUP3 PUSH2 0x55F3 JUMP JUMPDEST PUSH1 0x40 DUP3 ADD SWAP1 POP SWAP2 SWAP1 POP JUMP JUMPDEST PUSH1 0x0 PUSH1 0x20 DUP3 ADD SWAP1 POP DUP2 DUP2 SUB PUSH1 0x0 DUP4 ADD MSTORE PUSH2 0x567E DUP2 PUSH2 0x5642 JUMP JUMPDEST SWAP1 POP SWAP2 SWAP1 POP JUMP JUMPDEST PUSH32 0x4552433732313A20617070726F76652063616C6C6572206973206E6F74206F77 PUSH1 0x0 DUP3 ADD MSTORE PUSH32 0x6E6572206E6F7220617070726F76656420666F7220616C6C0000000000000000 PUSH1 0x20 DUP3 ADD MSTORE POP JUMP JUMPDEST PUSH1 0x0 PUSH2 0x56E1 PUSH1 0x38 DUP4 PUSH2 0x44F4 JUMP JUMPDEST SWAP2 POP PUSH2 0x56EC DUP3 PUSH2 0x5685 JUMP JUMPDEST PUSH1 0x40 DUP3 ADD SWAP1 POP SWAP2 SWAP1 POP JUMP JUMPDEST PUSH1 0x0 PUSH1 0x20 DUP3 ADD SWAP1 POP DUP2 DUP2 SUB PUSH1 0x0 DUP4 ADD MSTORE PUSH2 0x5710 DUP2 PUSH2 0x56D4 JUMP JUMPDEST SWAP1 POP SWAP2 SWAP1 POP JUMP JUMPDEST PUSH32 0x426F74206E616D652063616E6E6F7420626520656D7074792100000000000000 PUSH1 0x0 DUP3 ADD MSTORE POP JUMP JUMPDEST PUSH1 0x0 PUSH2 0x574D PUSH1 0x19 DUP4 PUSH2 0x44F4 JUMP JUMPDEST SWAP2 POP PUSH2 0x5758 DUP3 PUSH2 0x5717 JUMP JUMPDEST PUSH1 0x20 DUP3 ADD SWAP1 POP SWAP2 SWAP1 POP JUMP JUMPDEST PUSH1 0x0 PUSH1 0x20 DUP3 ADD SWAP1 POP DUP2 DUP2 SUB PUSH1 0x0 DUP4 ADD MSTORE PUSH2 0x577C DUP2 PUSH2 0x5740 JUMP JUMPDEST SWAP1 POP SWAP2 SWAP1 POP JUMP JUMPDEST PUSH1 0x0 DUP2 SWAP1 POP SWAP3 SWAP2 POP POP JUMP JUMPDEST PUSH1 0x0 PUSH2 0x579A DUP4 DUP6 PUSH2 0x5783 JUMP JUMPDEST SWAP4 POP PUSH2 0x57A7 DUP4 DUP6 DUP5 PUSH2 0x4912 JUMP JUMPDEST DUP3 DUP5 ADD SWAP1 POP SWAP4 SWAP3 POP POP POP JUMP JUMPDEST PUSH1 0x0 PUSH2 0x57C0 DUP3 DUP5 DUP7 PUSH2 0x578E JUMP JUMPDEST SWAP2 POP DUP2 SWAP1 POP SWAP4 SWAP3 POP POP POP JUMP JUMPDEST PUSH32 0x426F7420616C7265616479206578697374732100000000000000000000000000 PUSH1 0x0 DUP3 ADD MSTORE POP JUMP JUMPDEST PUSH1 0x0 PUSH2 0x5802 PUSH1 0x13 DUP4 PUSH2 0x44F4 JUMP JUMPDEST SWAP2 POP PUSH2 0x580D DUP3 PUSH2 0x57CC JUMP JUMPDEST PUSH1 0x20 DUP3 ADD SWAP1 POP SWAP2 SWAP1 POP JUMP JUMPDEST PUSH1 0x0 PUSH1 0x20 DUP3 ADD SWAP1 POP DUP2 DUP2 SUB PUSH1 0x0 DUP4 ADD MSTORE PUSH2 0x5831 DUP2 PUSH2 0x57F5 JUMP JUMPDEST SWAP1 POP SWAP2 SWAP1 POP JUMP JUMPDEST PUSH1 0x0 DUP2 SWAP1 POP DUP2 PUSH1 0x0 MSTORE PUSH1 0x20 PUSH1 0x0 KECCAK256 SWAP1 POP SWAP2 SWAP1 POP JUMP JUMPDEST PUSH1 0x0 PUSH1 0x20 PUSH1 0x1F DUP4 ADD DIV SWAP1 POP SWAP2 SWAP1 POP JUMP JUMPDEST PUSH1 0x0 DUP3 DUP3 SHL SWAP1 POP SWAP3 SWAP2 POP POP JUMP JUMPDEST PUSH1 0x0 PUSH1 0x8 DUP4 MUL PUSH2 0x589A PUSH32 0xFFFFFFFFFFFFFFFFFFFFFFFFFFFFFFFFFFFFFFFFFFFFFFFFFFFFFFFFFFFFFFFF DUP3 PUSH2 0x585D JUMP JUMPDEST PUSH2 0x58A4 DUP7 DUP4 PUSH2 0x585D JUMP JUMPDEST SWAP6 POP DUP1 NOT DUP5 AND SWAP4 POP DUP1 DUP7 AND DUP5 OR SWAP3 POP POP POP SWAP4 SWAP3 POP POP POP JUMP JUMPDEST PUSH1 0x0 DUP2 SWAP1 POP SWAP2 SWAP1 POP JUMP JUMPDEST PUSH1 0x0 PUSH2 0x58E1 PUSH2 0x58DC PUSH2 0x58D7 DUP5 PUSH2 0x459B JUMP JUMPDEST PUSH2 0x58BC JUMP JUMPDEST PUSH2 0x459B JUMP JUMPDEST SWAP1 POP SWAP2 SWAP1 POP JUMP JUMPDEST PUSH1 0x0 DUP2 SWAP1 POP SWAP2 SWAP1 POP JUMP JUMPDEST PUSH2 0x58FB DUP4 PUSH2 0x58C6 JUMP JUMPDEST PUSH2 0x590F PUSH2 0x5907 DUP3 PUSH2 0x58E8 JUMP JUMPDEST DUP5 DUP5 SLOAD PUSH2 0x586A JUMP JUMPDEST DUP3 SSTORE POP POP POP POP JUMP JUMPDEST PUSH1 0x0 SWAP1 JUMP JUMPDEST PUSH2 0x5924 PUSH2 0x5917 JUMP JUMPDEST PUSH2 0x592F DUP2 DUP5 DUP5 PUSH2 0x58F2 JUMP JUMPDEST POP POP POP JUMP JUMPDEST JUMPDEST DUP2 DUP2 LT ISZERO PUSH2 0x5953 JUMPI PUSH2 0x5948 PUSH1 0x0 DUP3 PUSH2 0x591C JUMP JUMPDEST PUSH1 0x1 DUP2 ADD SWAP1 POP PUSH2 0x5935 JUMP JUMPDEST POP POP JUMP JUMPDEST PUSH1 0x1F DUP3 GT ISZERO PUSH2 0x5998 JUMPI PUSH2 0x5969 DUP2 PUSH2 0x5838 JUMP JUMPDEST PUSH2 0x5972 DUP5 PUSH2 0x584D JUMP JUMPDEST DUP2 ADD PUSH1 0x20 DUP6 LT ISZERO PUSH2 0x5981 JUMPI DUP2 SWAP1 POP JUMPDEST PUSH2 0x5995 PUSH2 0x598D DUP6 PUSH2 0x584D JUMP JUMPDEST DUP4 ADD DUP3 PUSH2 0x5934 JUMP JUMPDEST POP POP JUMPDEST POP POP POP JUMP JUMPDEST PUSH1 0x0 DUP3 DUP3 SHR SWAP1 POP SWAP3 SWAP2 POP POP JUMP JUMPDEST PUSH1 0x0 PUSH2 0x59BB PUSH1 0x0 NOT DUP5 PUSH1 0x8 MUL PUSH2 0x599D JUMP JUMPDEST NOT DUP1 DUP4 AND SWAP2 POP POP SWAP3 SWAP2 POP POP JUMP JUMPDEST PUSH1 0x0 PUSH2 0x59D4 DUP4 DUP4 PUSH2 0x59AA JUMP JUMPDEST SWAP2 POP DUP3 PUSH1 0x2 MUL DUP3 OR SWAP1 POP SWAP3 SWAP2 POP POP JUMP JUMPDEST PUSH2 0x59ED DUP3 PUSH2 0x44E9 JUMP JUMPDEST PUSH8 0xFFFFFFFFFFFFFFFF DUP2 GT ISZERO PUSH2 0x5A06 JUMPI PUSH2 0x5A05 PUSH2 0x4866 JUMP JUMPDEST JUMPDEST PUSH2 0x5A10 DUP3 SLOAD PUSH2 0x5530 JUMP JUMPDEST PUSH2 0x5A1B DUP3 DUP3 DUP6 PUSH2 0x5957 JUMP JUMPDEST PUSH1 0x0 PUSH1 0x20 SWAP1 POP PUSH1 0x1F DUP4 GT PUSH1 0x1 DUP2 EQ PUSH2 0x5A4E JUMPI PUSH1 0x0 DUP5 ISZERO PUSH2 0x5A3C JUMPI DUP3 DUP8 ADD MLOAD SWAP1 POP JUMPDEST PUSH2 0x5A46 DUP6 DUP3 PUSH2 0x59C8 JUMP JUMPDEST DUP7 SSTORE POP PUSH2 0x5AAE JUMP JUMPDEST PUSH1 0x1F NOT DUP5 AND PUSH2 0x5A5C DUP7 PUSH2 0x5838 JUMP JUMPDEST PUSH1 0x0 JUMPDEST DUP3 DUP2 LT ISZERO PUSH2 0x5A84 JUMPI DUP5 DUP10 ADD MLOAD DUP3 SSTORE PUSH1 0x1 DUP3 ADD SWAP2 POP PUSH1 0x20 DUP6 ADD SWAP5 POP PUSH1 0x20 DUP2 ADD SWAP1 POP PUSH2 0x5A5F JUMP JUMPDEST DUP7 DUP4 LT ISZERO PUSH2 0x5AA1 JUMPI DUP5 DUP10 ADD MLOAD PUSH2 0x5A9D PUSH1 0x1F DUP10 AND DUP3 PUSH2 0x59AA JUMP JUMPDEST DUP4 SSTORE POP JUMPDEST PUSH1 0x1 PUSH1 0x2 DUP9 MUL ADD DUP9 SSTORE POP POP POP JUMPDEST POP POP POP POP POP POP JUMP JUMPDEST PUSH1 0x0 DUP3 SWAP1 POP SWAP3 SWAP2 POP POP JUMP JUMPDEST PUSH2 0x5ACB DUP4 DUP4 PUSH2 0x5AB6 JUMP JUMPDEST PUSH8 0xFFFFFFFFFFFFFFFF DUP2 GT ISZERO PUSH2 0x5AE4 JUMPI PUSH2 0x5AE3 PUSH2 0x4866 JUMP JUMPDEST JUMPDEST PUSH2 0x5AEE DUP3 SLOAD PUSH2 0x5530 JUMP JUMPDEST PUSH2 0x5AF9 DUP3 DUP3 DUP6 PUSH2 0x5957 JUMP JUMPDEST PUSH1 0x0 PUSH1 0x1F DUP4 GT PUSH1 0x1 DUP2 EQ PUSH2 0x5B28 JUMPI PUSH1 0x0 DUP5 ISZERO PUSH2 0x5B16 JUMPI DUP3 DUP8 ADD CALLDATALOAD SWAP1 POP JUMPDEST PUSH2 0x5B20 DUP6 DUP3 PUSH2 0x59C8 JUMP JUMPDEST DUP7 SSTORE POP PUSH2 0x5B88 JUMP JUMPDEST PUSH1 0x1F NOT DUP5 AND PUSH2 0x5B36 DUP7 PUSH2 0x5838 JUMP JUMPDEST PUSH1 0x0 JUMPDEST DUP3 DUP2 LT ISZERO PUSH2 0x5B5E JUMPI DUP5 DUP10 ADD CALLDATALOAD DUP3 SSTORE PUSH1 0x1 DUP3 ADD SWAP2 POP PUSH1 0x20 DUP6 ADD SWAP5 POP PUSH1 0x20 DUP2 ADD SWAP1 POP PUSH2 0x5B39 JUMP JUMPDEST DUP7 DUP4 LT ISZERO PUSH2 0x5B7B JUMPI DUP5 DUP10 ADD CALLDATALOAD PUSH2 0x5B77 PUSH1 0x1F DUP10 AND DUP3 PUSH2 0x59AA JUMP JUMPDEST DUP4 SSTORE POP JUMPDEST PUSH1 0x1 PUSH1 0x2 DUP9 MUL ADD DUP9 SSTORE POP POP POP JUMPDEST POP POP POP POP POP POP POP JUMP JUMPDEST PUSH1 0x0 PUSH2 0x5B9D DUP4 DUP6 PUSH2 0x44F4 JUMP JUMPDEST SWAP4 POP PUSH2 0x5BAA DUP4 DUP6 DUP5 PUSH2 0x4912 JUMP JUMPDEST PUSH2 0x5BB3 DUP4 PUSH2 0x452F JUMP JUMPDEST DUP5 ADD SWAP1 POP SWAP4 SWAP3 POP POP POP JUMP JUMPDEST PUSH2 0x5BC7 DUP2 PUSH2 0x472B JUMP JUMPDEST DUP3 MSTORE POP POP JUMP JUMPDEST PUSH1 0x0 PUSH1 0x40 DUP3 ADD SWAP1 POP DUP2 DUP2 SUB PUSH1 0x0 DUP4 ADD MSTORE PUSH2 0x5BE8 DUP2 DUP6 DUP8 PUSH2 0x5B91 JUMP JUMPDEST SWAP1 POP PUSH2 0x5BF7 PUSH1 0x20 DUP4 ADD DUP5 PUSH2 0x5BBE JUMP JUMPDEST SWAP5 SWAP4 POP POP POP POP JUMP JUMPDEST PUSH32 0x4E6F742072656769737465726564000000000000000000000000000000000000 PUSH1 0x0 DUP3 ADD MSTORE POP JUMP JUMPDEST PUSH1 0x0 PUSH2 0x5C35 PUSH1 0xE DUP4 PUSH2 0x44F4 JUMP JUMPDEST SWAP2 POP PUSH2 0x5C40 DUP3 PUSH2 0x5BFF JUMP JUMPDEST PUSH1 0x20 DUP3 ADD SWAP1 POP SWAP2 SWAP1 POP JUMP JUMPDEST PUSH1 0x0 PUSH1 0x20 DUP3 ADD SWAP1 POP DUP2 DUP2 SUB PUSH1 0x0 DUP4 ADD MSTORE PUSH2 0x5C64 DUP2 PUSH2 0x5C28 JUMP JUMPDEST SWAP1 POP SWAP2 SWAP1 POP JUMP JUMPDEST PUSH32 0x4552433732313A207472616E736665722063616C6C6572206973206E6F74206F PUSH1 0x0 DUP3 ADD MSTORE PUSH32 0x776E6572206E6F7220617070726F766564000000000000000000000000000000 PUSH1 0x20 DUP3 ADD MSTORE POP JUMP JUMPDEST PUSH1 0x0 PUSH2 0x5CC7 PUSH1 0x31 DUP4 PUSH2 0x44F4 JUMP JUMPDEST SWAP2 POP PUSH2 0x5CD2 DUP3 PUSH2 0x5C6B JUMP JUMPDEST PUSH1 0x40 DUP3 ADD SWAP1 POP SWAP2 SWAP1 POP JUMP JUMPDEST PUSH1 0x0 PUSH1 0x20 DUP3 ADD SWAP1 POP DUP2 DUP2 SUB PUSH1 0x0 DUP4 ADD MSTORE PUSH2 0x5CF6 DUP2 PUSH2 0x5CBA JUMP JUMPDEST SWAP1 POP SWAP2 SWAP1 POP JUMP JUMPDEST PUSH32 0x436F6D6D756E69747920726F6F6D20646F6573206E6F74206578697374210000 PUSH1 0x0 DUP3 ADD MSTORE POP JUMP JUMPDEST PUSH1 0x0 PUSH2 0x5D33 PUSH1 0x1E DUP4 PUSH2 0x44F4 JUMP JUMPDEST SWAP2 POP PUSH2 0x5D3E DUP3 PUSH2 0x5CFD JUMP JUMPDEST PUSH1 0x20 DUP3 ADD SWAP1 POP SWAP2 SWAP1 POP JUMP JUMPDEST PUSH1 0x0 PUSH1 0x20 DUP3 ADD SWAP1 POP DUP2 DUP2 SUB PUSH1 0x0 DUP4 ADD MSTORE PUSH2 0x5D62 DUP2 PUSH2 0x5D26 JUMP JUMPDEST SWAP1 POP SWAP2 SWAP1 POP JUMP JUMPDEST PUSH32 0x4E487B7100000000000000000000000000000000000000000000000000000000 PUSH1 0x0 MSTORE PUSH1 0x32 PUSH1 0x4 MSTORE PUSH1 0x24 PUSH1 0x0 REVERT JUMPDEST PUSH32 0x416C72656164792061206D656D62657221000000000000000000000000000000 PUSH1 0x0 DUP3 ADD MSTORE POP JUMP JUMPDEST PUSH1 0x0 PUSH2 0x5DCE PUSH1 0x11 DUP4 PUSH2 0x44F4 JUMP JUMPDEST SWAP2 POP PUSH2 0x5DD9 DUP3 PUSH2 0x5D98 JUMP JUMPDEST PUSH1 0x20 DUP3 ADD SWAP1 POP SWAP2 SWAP1 POP JUMP JUMPDEST PUSH1 0x0 PUSH1 0x20 DUP3 ADD SWAP1 POP DUP2 DUP2 SUB PUSH1 0x0 DUP4 ADD MSTORE PUSH2 0x5DFD DUP2 PUSH2 0x5DC1 JUMP JUMPDEST SWAP1 POP SWAP2 SWAP1 POP JUMP JUMPDEST PUSH32 0x4E487B7100000000000000000000000000000000000000000000000000000000 PUSH1 0x0 MSTORE PUSH1 0x11 PUSH1 0x4 MSTORE PUSH1 0x24 PUSH1 0x0 REVERT JUMPDEST PUSH1 0x0 PUSH2 0x5E3E DUP3 PUSH2 0x459B JUMP JUMPDEST SWAP2 POP PUSH32 0xFFFFFFFFFFFFFFFFFFFFFFFFFFFFFFFFFFFFFFFFFFFFFFFFFFFFFFFFFFFFFFFF DUP3 SUB PUSH2 0x5E70 JUMPI PUSH2 0x5E6F PUSH2 0x5E04 JUMP JUMPDEST JUMPDEST PUSH1 0x1 DUP3 ADD SWAP1 POP SWAP2 SWAP1 POP JUMP JUMPDEST PUSH1 0x0 PUSH1 0x20 DUP3 ADD SWAP1 POP DUP2 DUP2 SUB PUSH1 0x0 DUP4 ADD MSTORE PUSH2 0x5E96 DUP2 DUP5 DUP7 PUSH2 0x5B91 JUMP JUMPDEST SWAP1 POP SWAP4 SWAP3 POP POP POP JUMP JUMPDEST PUSH32 0x436F6D6D756E69747920646F6573206E6F742065786973742100000000000000 PUSH1 0x0 DUP3 ADD MSTORE POP JUMP JUMPDEST PUSH1 0x0 PUSH2 0x5ED5 PUSH1 0x19 DUP4 PUSH2 0x44F4 JUMP JUMPDEST SWAP2 POP PUSH2 0x5EE0 DUP3 PUSH2 0x5E9F JUMP JUMPDEST PUSH1 0x20 DUP3 ADD SWAP1 POP SWAP2 SWAP1 POP JUMP JUMPDEST PUSH1 0x0 PUSH1 0x20 DUP3 ADD SWAP1 POP DUP2 DUP2 SUB PUSH1 0x0 DUP4 ADD MSTORE PUSH2 0x5F04 DUP2 PUSH2 0x5EC8 JUMP JUMPDEST SWAP1 POP SWAP2 SWAP1 POP JUMP JUMPDEST PUSH32 0x426F7420646F6573206E6F742065786973742100000000000000000000000000 PUSH1 0x0 DUP3 ADD MSTORE POP JUMP JUMPDEST PUSH1 0x0 PUSH2 0x5F41 PUSH1 0x13 DUP4 PUSH2 0x44F4 JUMP JUMPDEST SWAP2 POP PUSH2 0x5F4C DUP3 PUSH2 0x5F0B JUMP JUMPDEST PUSH1 0x20 DUP3 ADD SWAP1 POP SWAP2 SWAP1 POP JUMP JUMPDEST PUSH1 0x0 PUSH1 0x20 DUP3 ADD SWAP1 POP DUP2 DUP2 SUB PUSH1 0x0 DUP4 ADD MSTORE PUSH2 0x5F70 DUP2 PUSH2 0x5F34 JUMP JUMPDEST SWAP1 POP SWAP2 SWAP1 POP JUMP JUMPDEST PUSH32 0x436F6D6D756E69747920616C7265616479206578697374732100000000000000 PUSH1 0x0 DUP3 ADD MSTORE POP JUMP JUMPDEST PUSH1 0x0 PUSH2 0x5FAD PUSH1 0x19 DUP4 PUSH2 0x44F4 JUMP JUMPDEST SWAP2 POP PUSH2 0x5FB8 DUP3 PUSH2 0x5F77 JUMP JUMPDEST PUSH1 0x20 DUP3 ADD SWAP1 POP SWAP2 SWAP1 POP JUMP JUMPDEST PUSH1 0x0 PUSH1 0x20 DUP3 ADD SWAP1 POP DUP2 DUP2 SUB PUSH1 0x0 DUP4 ADD MSTORE PUSH2 0x5FDC DUP2 PUSH2 0x5FA0 JUMP JUMPDEST SWAP1 POP SWAP2 SWAP1 POP JUMP JUMPDEST PUSH1 0x0 PUSH2 0x5FEE DUP3 PUSH2 0x472B JUMP JUMPDEST SWAP2 POP PUSH2 0xFFFF DUP3 SUB PUSH2 0x6002 JUMPI PUSH2 0x6001 PUSH2 0x5E04 JUMP JUMPDEST JUMPDEST PUSH1 0x1 DUP3 ADD SWAP1 POP SWAP2 SWAP1 POP JUMP JUMPDEST PUSH32 0x4552433732313A206F776E657220717565727920666F72206E6F6E6578697374 PUSH1 0x0 DUP3 ADD MSTORE PUSH32 0x656E7420746F6B656E0000000000000000000000000000000000000000000000 PUSH1 0x20 DUP3 ADD MSTORE POP JUMP JUMPDEST PUSH1 0x0 PUSH2 0x6069 PUSH1 0x29 DUP4 PUSH2 0x44F4 JUMP JUMPDEST SWAP2 POP PUSH2 0x6074 DUP3 PUSH2 0x600D JUMP JUMPDEST PUSH1 0x40 DUP3 ADD SWAP1 POP SWAP2 SWAP1 POP JUMP JUMPDEST PUSH1 0x0 PUSH1 0x20 DUP3 ADD SWAP1 POP DUP2 DUP2 SUB PUSH1 0x0 DUP4 ADD MSTORE PUSH2 0x6098 DUP2 PUSH2 0x605C JUMP JUMPDEST SWAP1 POP SWAP2 SWAP1 POP JUMP JUMPDEST PUSH32 0x5573657220616C72656164792072656769737465726564210000000000000000 PUSH1 0x0 DUP3 ADD MSTORE POP JUMP JUMPDEST PUSH1 0x0 PUSH2 0x60D5 PUSH1 0x18 DUP4 PUSH2 0x44F4 JUMP JUMPDEST SWAP2 POP PUSH2 0x60E0 DUP3 PUSH2 0x609F JUMP JUMPDEST PUSH1 0x20 DUP3 ADD SWAP1 POP SWAP2 SWAP1 POP JUMP JUMPDEST PUSH1 0x0 PUSH1 0x20 DUP3 ADD SWAP1 POP DUP2 DUP2 SUB PUSH1 0x0 DUP4 ADD MSTORE PUSH2 0x6104 DUP2 PUSH2 0x60C8 JUMP JUMPDEST SWAP1 POP SWAP2 SWAP1 POP JUMP JUMPDEST PUSH32 0x4552433732313A2062616C616E636520717565727920666F7220746865207A65 PUSH1 0x0 DUP3 ADD MSTORE PUSH32 0x726F206164647265737300000000000000000000000000000000000000000000 PUSH1 0x20 DUP3 ADD MSTORE POP JUMP JUMPDEST PUSH1 0x0 PUSH2 0x6167 PUSH1 0x2A DUP4 PUSH2 0x44F4 JUMP JUMPDEST SWAP2 POP PUSH2 0x6172 DUP3 PUSH2 0x610B JUMP JUMPDEST PUSH1 0x40 DUP3 ADD SWAP1 POP SWAP2 SWAP1 POP JUMP JUMPDEST PUSH1 0x0 PUSH1 0x20 DUP3 ADD SWAP1 POP DUP2 DUP2 SUB PUSH1 0x0 DUP4 ADD MSTORE PUSH2 0x6196 DUP2 PUSH2 0x615A JUMP JUMPDEST SWAP1 POP SWAP2 SWAP1 POP JUMP JUMPDEST PUSH32 0x6E7574726974696F6E0000000000000000000000000000000000000000000000 PUSH1 0x0 DUP3 ADD MSTORE POP JUMP JUMPDEST PUSH1 0x0 PUSH2 0x61D3 PUSH1 0x9 DUP4 PUSH2 0x5783 JUMP JUMPDEST SWAP2 POP PUSH2 0x61DE DUP3 PUSH2 0x619D JUMP JUMPDEST PUSH1 0x9 DUP3 ADD SWAP1 POP SWAP2 SWAP1 POP JUMP JUMPDEST PUSH1 0x0 PUSH2 0x61F4 DUP3 PUSH2 0x61C6 JUMP JUMPDEST SWAP2 POP DUP2 SWAP1 POP SWAP2 SWAP1 POP JUMP JUMPDEST PUSH32 0x73706F7274000000000000000000000000000000000000000000000000000000 PUSH1 0x0 DUP3 ADD MSTORE POP JUMP JUMPDEST PUSH1 0x0 PUSH2 0x6234 PUSH1 0x5 DUP4 PUSH2 0x5783 JUMP JUMPDEST SWAP2 POP PUSH2 0x623F DUP3 PUSH2 0x61FE JUMP JUMPDEST PUSH1 0x5 DUP3 ADD SWAP1 POP SWAP2 SWAP1 POP JUMP JUMPDEST PUSH1 0x0 PUSH2 0x6255 DUP3 PUSH2 0x6227 JUMP JUMPDEST SWAP2 POP DUP2 SWAP1 POP SWAP2 SWAP1 POP JUMP JUMPDEST PUSH32 0x496E76616C696420676F616C2074797065000000000000000000000000000000 PUSH1 0x0 DUP3 ADD MSTORE POP JUMP JUMPDEST PUSH1 0x0 PUSH2 0x6295 PUSH1 0x11 DUP4 PUSH2 0x44F4 JUMP JUMPDEST SWAP2 POP PUSH2 0x62A0 DUP3 PUSH2 0x625F JUMP JUMPDEST PUSH1 0x20 DUP3 ADD SWAP1 POP SWAP2 SWAP1 POP JUMP JUMPDEST PUSH1 0x0 PUSH1 0x20 DUP3 ADD SWAP1 POP DUP2 DUP2 SUB PUSH1 0x0 DUP4 ADD MSTORE PUSH2 0x62C4 DUP2 PUSH2 0x6288 JUMP JUMPDEST SWAP1 POP SWAP2 SWAP1 POP JUMP JUMPDEST PUSH1 0x0 PUSH4 0xFFFFFFFF DUP3 AND SWAP1 POP SWAP2 SWAP1 POP JUMP JUMPDEST PUSH1 0x0 PUSH2 0x62E6 DUP3 PUSH2 0x62CB JUMP JUMPDEST SWAP2 POP PUSH2 0x62F1 DUP4 PUSH2 0x62CB JUMP JUMPDEST SWAP3 POP DUP3 DUP3 MUL PUSH2 0x62FF DUP2 PUSH2 0x62CB JUMP JUMPDEST SWAP2 POP DUP1 DUP3 EQ PUSH2 0x6311 JUMPI PUSH2 0x6310 PUSH2 0x5E04 JUMP JUMPDEST JUMPDEST POP SWAP3 SWAP2 POP POP JUMP JUMPDEST PUSH32 0x496E73756666696369656E74207061796D656E74000000000000000000000000 PUSH1 0x0 DUP3 ADD MSTORE POP JUMP JUMPDEST PUSH1 0x0 PUSH2 0x634E PUSH1 0x14 DUP4 PUSH2 0x44F4 JUMP JUMPDEST SWAP2 POP PUSH2 0x6359 DUP3 PUSH2 0x6318 JUMP JUMPDEST PUSH1 0x20 DUP3 ADD SWAP1 POP SWAP2 SWAP1 POP JUMP JUMPDEST PUSH1 0x0 PUSH1 0x20 DUP3 ADD SWAP1 POP DUP2 DUP2 SUB PUSH1 0x0 DUP4 ADD MSTORE PUSH2 0x637D DUP2 PUSH2 0x6341 JUMP JUMPDEST SWAP1 POP SWAP2 SWAP1 POP JUMP JUMPDEST PUSH32 0x4552433732314D657461646174613A2055524920717565727920666F72206E6F PUSH1 0x0 DUP3 ADD MSTORE PUSH32 0x6E6578697374656E7420746F6B656E0000000000000000000000000000000000 PUSH1 0x20 DUP3 ADD MSTORE POP JUMP JUMPDEST PUSH1 0x0 PUSH2 0x63E0 PUSH1 0x2F DUP4 PUSH2 0x44F4 JUMP JUMPDEST SWAP2 POP PUSH2 0x63EB DUP3 PUSH2 0x6384 JUMP JUMPDEST PUSH1 0x40 DUP3 ADD SWAP1 POP SWAP2 SWAP1 POP JUMP JUMPDEST PUSH1 0x0 PUSH1 0x20 DUP3 ADD SWAP1 POP DUP2 DUP2 SUB PUSH1 0x0 DUP4 ADD MSTORE PUSH2 0x640F DUP2 PUSH2 0x63D3 JUMP JUMPDEST SWAP1 POP SWAP2 SWAP1 POP JUMP JUMPDEST PUSH1 0x0 PUSH2 0x6421 DUP3 PUSH2 0x44E9 JUMP JUMPDEST PUSH2 0x642B DUP2 DUP6 PUSH2 0x5783 JUMP JUMPDEST SWAP4 POP PUSH2 0x643B DUP2 DUP6 PUSH1 0x20 DUP7 ADD PUSH2 0x4505 JUMP JUMPDEST DUP1 DUP5 ADD SWAP2 POP POP SWAP3 SWAP2 POP POP JUMP JUMPDEST PUSH1 0x0 PUSH2 0x6453 DUP3 DUP6 PUSH2 0x6416 JUMP JUMPDEST SWAP2 POP PUSH2 0x645F DUP3 DUP5 PUSH2 0x6416 JUMP JUMPDEST SWAP2 POP DUP2 SWAP1 POP SWAP4 SWAP3 POP POP POP JUMP JUMPDEST PUSH32 0x4552433732313A206D696E7420746F20746865207A65726F2061646472657373 PUSH1 0x0 DUP3 ADD MSTORE POP JUMP JUMPDEST PUSH1 0x0 PUSH2 0x64A1 PUSH1 0x20 DUP4 PUSH2 0x44F4 JUMP JUMPDEST SWAP2 POP PUSH2 0x64AC DUP3 PUSH2 0x646B JUMP JUMPDEST PUSH1 0x20 DUP3 ADD SWAP1 POP SWAP2 SWAP1 POP JUMP JUMPDEST PUSH1 0x0 PUSH1 0x20 DUP3 ADD SWAP1 POP DUP2 DUP2 SUB PUSH1 0x0 DUP4 ADD MSTORE PUSH2 0x64D0 DUP2 PUSH2 0x6494 JUMP JUMPDEST SWAP1 POP SWAP2 SWAP1 POP JUMP JUMPDEST PUSH32 0x4552433732313A20746F6B656E20616C7265616479206D696E74656400000000 PUSH1 0x0 DUP3 ADD MSTORE POP JUMP JUMPDEST PUSH1 0x0 PUSH2 0x650D PUSH1 0x1C DUP4 PUSH2 0x44F4 JUMP JUMPDEST SWAP2 POP PUSH2 0x6518 DUP3 PUSH2 0x64D7 JUMP JUMPDEST PUSH1 0x20 DUP3 ADD SWAP1 POP SWAP2 SWAP1 POP JUMP JUMPDEST PUSH1 0x0 PUSH1 0x20 DUP3 ADD SWAP1 POP DUP2 DUP2 SUB PUSH1 0x0 DUP4 ADD MSTORE PUSH2 0x653C DUP2 PUSH2 0x6500 JUMP JUMPDEST SWAP1 POP SWAP2 SWAP1 POP JUMP JUMPDEST PUSH1 0x0 PUSH2 0x654E DUP3 PUSH2 0x459B JUMP JUMPDEST SWAP2 POP PUSH2 0x6559 DUP4 PUSH2 0x459B JUMP JUMPDEST SWAP3 POP DUP3 DUP3 ADD SWAP1 POP DUP1 DUP3 GT ISZERO PUSH2 0x6571 JUMPI PUSH2 0x6570 PUSH2 0x5E04 JUMP JUMPDEST JUMPDEST SWAP3 SWAP2 POP POP JUMP JUMPDEST PUSH32 0x4552433732313A206F70657261746F7220717565727920666F72206E6F6E6578 PUSH1 0x0 DUP3 ADD MSTORE PUSH32 0x697374656E7420746F6B656E0000000000000000000000000000000000000000 PUSH1 0x20 DUP3 ADD MSTORE POP JUMP JUMPDEST PUSH1 0x0 PUSH2 0x65D3 PUSH1 0x2C DUP4 PUSH2 0x44F4 JUMP JUMPDEST SWAP2 POP PUSH2 0x65DE DUP3 PUSH2 0x6577 JUMP JUMPDEST PUSH1 0x40 DUP3 ADD SWAP1 POP SWAP2 SWAP1 POP JUMP JUMPDEST PUSH1 0x0 PUSH1 0x20 DUP3 ADD SWAP1 POP DUP2 DUP2 SUB PUSH1 0x0 DUP4 ADD MSTORE PUSH2 0x6602 DUP2 PUSH2 0x65C6 JUMP JUMPDEST SWAP1 POP SWAP2 SWAP1 POP JUMP JUMPDEST PUSH32 0x4552433732313A207472616E736665722066726F6D20696E636F727265637420 PUSH1 0x0 DUP3 ADD MSTORE PUSH32 0x6F776E6572000000000000000000000000000000000000000000000000000000 PUSH1 0x20 DUP3 ADD MSTORE POP JUMP JUMPDEST PUSH1 0x0 PUSH2 0x6665 PUSH1 0x25 DUP4 PUSH2 0x44F4 JUMP JUMPDEST SWAP2 POP PUSH2 0x6670 DUP3 PUSH2 0x6609 JUMP JUMPDEST PUSH1 0x40 DUP3 ADD SWAP1 POP SWAP2 SWAP1 POP JUMP JUMPDEST PUSH1 0x0 PUSH1 0x20 DUP3 ADD SWAP1 POP DUP2 DUP2 SUB PUSH1 0x0 DUP4 ADD MSTORE PUSH2 0x6694 DUP2 PUSH2 0x6658 JUMP JUMPDEST SWAP1 POP SWAP2 SWAP1 POP JUMP JUMPDEST PUSH32 0x4552433732313A207472616E7366657220746F20746865207A65726F20616464 PUSH1 0x0 DUP3 ADD MSTORE PUSH32 0x7265737300000000000000000000000000000000000000000000000000000000 PUSH1 0x20 DUP3 ADD MSTORE POP JUMP JUMPDEST PUSH1 0x0 PUSH2 0x66F7 PUSH1 0x24 DUP4 PUSH2 0x44F4 JUMP JUMPDEST SWAP2 POP PUSH2 0x6702 DUP3 PUSH2 0x669B JUMP JUMPDEST PUSH1 0x40 DUP3 ADD SWAP1 POP SWAP2 SWAP1 POP JUMP JUMPDEST PUSH1 0x0 PUSH1 0x20 DUP3 ADD SWAP1 POP DUP2 DUP2 SUB PUSH1 0x0 DUP4 ADD MSTORE PUSH2 0x6726 DUP2 PUSH2 0x66EA JUMP JUMPDEST SWAP1 POP SWAP2 SWAP1 POP JUMP JUMPDEST PUSH1 0x0 PUSH2 0x6738 DUP3 PUSH2 0x459B JUMP JUMPDEST SWAP2 POP PUSH2 0x6743 DUP4 PUSH2 0x459B JUMP JUMPDEST SWAP3 POP DUP3 DUP3 SUB SWAP1 POP DUP2 DUP2 GT ISZERO PUSH2 0x675B JUMPI PUSH2 0x675A PUSH2 0x5E04 JUMP JUMPDEST JUMPDEST SWAP3 SWAP2 POP POP JUMP JUMPDEST PUSH32 0x4552433732313A20617070726F766520746F2063616C6C657200000000000000 PUSH1 0x0 DUP3 ADD MSTORE POP JUMP JUMPDEST PUSH1 0x0 PUSH2 0x6797 PUSH1 0x19 DUP4 PUSH2 0x44F4 JUMP JUMPDEST SWAP2 POP PUSH2 0x67A2 DUP3 PUSH2 0x6761 JUMP JUMPDEST PUSH1 0x20 DUP3 ADD SWAP1 POP SWAP2 SWAP1 POP JUMP JUMPDEST PUSH1 0x0 PUSH1 0x20 DUP3 ADD SWAP1 POP DUP2 DUP2 SUB PUSH1 0x0 DUP4 ADD MSTORE PUSH2 0x67C6 DUP2 PUSH2 0x678A JUMP JUMPDEST SWAP1 POP SWAP2 SWAP1 POP JUMP JUMPDEST PUSH32 0x4552433732313A207472616E7366657220746F206E6F6E204552433732315265 PUSH1 0x0 DUP3 ADD MSTORE PUSH32 0x63656976657220696D706C656D656E7465720000000000000000000000000000 PUSH1 0x20 DUP3 ADD MSTORE POP JUMP JUMPDEST PUSH1 0x0 PUSH2 0x6829 PUSH1 0x32 DUP4 PUSH2 0x44F4 JUMP JUMPDEST SWAP2 POP PUSH2 0x6834 DUP3 PUSH2 0x67CD JUMP JUMPDEST PUSH1 0x40 DUP3 ADD SWAP1 POP SWAP2 SWAP1 POP JUMP JUMPDEST PUSH1 0x0 PUSH1 0x20 DUP3 ADD SWAP1 POP DUP2 DUP2 SUB PUSH1 0x0 DUP4 ADD MSTORE PUSH2 0x6858 DUP2 PUSH2 0x681C JUMP JUMPDEST SWAP1 POP SWAP2 SWAP1 POP JUMP JUMPDEST PUSH32 0x4E487B7100000000000000000000000000000000000000000000000000000000 PUSH1 0x0 MSTORE PUSH1 0x12 PUSH1 0x4 MSTORE PUSH1 0x24 PUSH1 0x0 REVERT JUMPDEST PUSH1 0x0 PUSH2 0x6899 DUP3 PUSH2 0x459B JUMP JUMPDEST SWAP2 POP PUSH2 0x68A4 DUP4 PUSH2 0x459B JUMP JUMPDEST SWAP3 POP DUP3 PUSH2 0x68B4 JUMPI PUSH2 0x68B3 PUSH2 0x685F JUMP JUMPDEST JUMPDEST DUP3 DUP3 DIV SWAP1 POP SWAP3 SWAP2 POP POP JUMP JUMPDEST PUSH1 0x0 PUSH2 0x68CA DUP3 PUSH2 0x459B JUMP JUMPDEST SWAP2 POP PUSH2 0x68D5 DUP4 PUSH2 0x459B JUMP JUMPDEST SWAP3 POP DUP3 PUSH2 0x68E5 JUMPI PUSH2 0x68E4 PUSH2 0x685F JUMP JUMPDEST JUMPDEST DUP3 DUP3 MOD SWAP1 POP SWAP3 SWAP2 POP POP JUMP JUMPDEST PUSH1 0x0 DUP2 MLOAD SWAP1 POP SWAP2 SWAP1 POP JUMP JUMPDEST PUSH1 0x0 DUP3 DUP3 MSTORE PUSH1 0x20 DUP3 ADD SWAP1 POP SWAP3 SWAP2 POP POP JUMP JUMPDEST PUSH1 0x0 PUSH2 0x6917 DUP3 PUSH2 0x68F0 JUMP JUMPDEST PUSH2 0x6921 DUP2 DUP6 PUSH2 0x68FB JUMP JUMPDEST SWAP4 POP PUSH2 0x6931 DUP2 DUP6 PUSH1 0x20 DUP7 ADD PUSH2 0x4505 JUMP JUMPDEST PUSH2 0x693A DUP2 PUSH2 0x452F JUMP JUMPDEST DUP5 ADD SWAP2 POP POP SWAP3 SWAP2 POP POP JUMP JUMPDEST PUSH1 0x0 PUSH1 0x80 DUP3 ADD SWAP1 POP PUSH2 0x695A PUSH1 0x0 DUP4 ADD DUP8 PUSH2 0x4630 JUMP JUMPDEST PUSH2 0x6967 PUSH1 0x20 DUP4 ADD DUP7 PUSH2 0x4630 JUMP JUMPDEST PUSH2 0x6974 PUSH1 0x40 DUP4 ADD DUP6 PUSH2 0x49DA JUMP JUMPDEST DUP2 DUP2 SUB PUSH1 0x60 DUP4 ADD MSTORE PUSH2 0x6986 DUP2 DUP5 PUSH2 0x690C JUMP JUMPDEST SWAP1 POP SWAP6 SWAP5 POP POP POP POP POP JUMP JUMPDEST PUSH1 0x0 DUP2 MLOAD SWAP1 POP PUSH2 0x69A0 DUP2 PUSH2 0x445A JUMP JUMPDEST SWAP3 SWAP2 POP POP JUMP JUMPDEST PUSH1 0x0 PUSH1 0x20 DUP3 DUP5 SUB SLT ISZERO PUSH2 0x69BC JUMPI PUSH2 0x69BB PUSH2 0x4424 JUMP JUMPDEST JUMPDEST PUSH1 0x0 PUSH2 0x69CA DUP5 DUP3 DUP6 ADD PUSH2 0x6991 JUMP JUMPDEST SWAP2 POP POP SWAP3 SWAP2 POP POP JUMP INVALID LOG2 PUSH5 0x6970667358 0x22 SLT KECCAK256 0x4E PUSH1 0x33 0xEA 0xE3 PUSH19 0x68B847BB03E22E5C6613CED0D9A202991D7A1D 0xBC SWAP1 ADDRESS 0xDF 0xC PUSH28 0x7764736F6C6343000814003300000000000000000000000000000000 "},"methodIdentifiers":{"_tokenURIs(uint256)":"0bb78ec1","addActivity(string)":"b841e45a","addGoal(string,string)":"9298f424","approve(address,uint256)":"095ea7b3","balanceOf(address)":"70a08231","buyBot(string)":"b84f14b7","createBot(string,string,string,string,uint16)":"0986f185","createCommunityRoom(string,string)":"61a88441","getAllBotNames()":"b028e967","getAllCommunityNames()":"8272e1d4","getAllUsers()":"e2842d79","getApproved(uint256)":"081812fc","getBotDetails(string)":"79181eea","getCommunityRoomDetails(string)":"54d9ea15","getUserDetails()":"942886be","isApprovedForAll(address,address)":"e985e9c5","joinCommunityRoom(string)":"43dfc73c","mintNftWithUri(string)":"226e4fd5","name()":"06fdde03","ownerOf(uint256)":"6352211e","registerUser(string)":"704f1b94","safeTransferFrom(address,address,uint256)":"42842e0e","safeTransferFrom(address,address,uint256,bytes)":"b88d4fde","setApprovalForAll(address,bool)":"a22cb465","supportsInterface(bytes4)":"01ffc9a7","symbol()":"95d89b41","tokenURI(uint256)":"c87b56dd","transferFrom(address,address,uint256)":"23b872dd","updateInjury(string)":"610693e7"}}}}}