{"contracts/CommunityRoom.sol":{"CommunityRoom":{"abi":[{"inputs":[{"internalType":"address","name":"_creator","type":"address"},{"internalType":"string","name":"_communityName","type":"string"},{"internalType":"string","name":"_communityLogo","type":"string"},{"internalType":"string","name":"_systemPrompt","type":"string"},{"internalType":"uint256","name":"_assistantUnlockCost","type":"uint256"}],"stateMutability":"nonpayable","type":"constructor"},{"anonymous":false,"inputs":[{"indexed":true,"internalType":"address","name":"user","type":"address"}],"name":"MemberJoined","type":"event"},{"anonymous":false,"inputs":[{"indexed":true,"internalType":"address","name":"user","type":"address"}],"name":"MemberLeft","type":"event"},{"anonymous":false,"inputs":[{"indexed":true,"internalType":"address","name":"user","type":"address"},{"indexed":false,"internalType":"string","name":"text","type":"string"},{"indexed":false,"internalType":"string","name":"ipfsImageUrl","type":"string"},{"indexed":false,"internalType":"uint256","name":"timestamp","type":"uint256"}],"name":"MessageSent","type":"event"},{"anonymous":false,"inputs":[{"indexed":true,"internalType":"address","name":"user","type":"address"},{"indexed":true,"internalType":"address","name":"assistantAddress","type":"address"}],"name":"PersonalAssistantUnlocked","type":"event"},{"inputs":[{"internalType":"string","name":"_text","type":"string"},{"internalType":"string","name":"_ipfsImageUrl","type":"string"}],"name":"aiSendMessage","outputs":[],"stateMutability":"nonpayable","type":"function"},{"inputs":[],"name":"assistantUnlockCostInEth","outputs":[{"internalType":"uint256","name":"","type":"uint256"}],"stateMutability":"view","type":"function"},{"inputs":[],"name":"communityLogo","outputs":[{"internalType":"string","name":"","type":"string"}],"stateMutability":"view","type":"function"},{"inputs":[],"name":"communityName","outputs":[{"internalType":"string","name":"","type":"string"}],"stateMutability":"view","type":"function"},{"inputs":[],"name":"createdBy","outputs":[{"internalType":"address","name":"","type":"address"}],"stateMutability":"view","type":"function"},{"inputs":[],"name":"getDeployedPersonalAssistants","outputs":[{"internalType":"address[]","name":"","type":"address[]"}],"stateMutability":"view","type":"function"},{"inputs":[{"internalType":"address","name":"_user","type":"address"}],"name":"getMemberStatus","outputs":[{"internalType":"bool","name":"","type":"bool"}],"stateMutability":"view","type":"function"},{"inputs":[],"name":"getMessages","outputs":[{"components":[{"internalType":"string","name":"text","type":"string"},{"internalType":"address","name":"userAddress","type":"address"},{"internalType":"string","name":"ipfsImageUrl","type":"string"},{"internalType":"uint256","name":"timestamp","type":"uint256"}],"internalType":"struct CommunityRoom.Message[]","name":"","type":"tuple[]"}],"stateMutability":"view","type":"function"},{"inputs":[],"name":"joinCommunity","outputs":[],"stateMutability":"nonpayable","type":"function"},{"inputs":[],"name":"leaveCommunity","outputs":[],"stateMutability":"nonpayable","type":"function"},{"inputs":[],"name":"systemPrompt","outputs":[{"internalType":"string","name":"","type":"string"}],"stateMutability":"view","type":"function"},{"inputs":[],"name":"unlockPersonalAssistant","outputs":[],"stateMutability":"payable","type":"function"},{"inputs":[{"internalType":"string","name":"_text","type":"string"},{"internalType":"string","name":"_ipfsImageUrl","type":"string"}],"name":"userSendMessage","outputs":[],"stateMutability":"nonpayable","type":"function"}],"evm":{"bytecode":{"linkReferences":{},"object":"60806040523480156200001157600080fd5b5060405162003d9e38038062003d9e833981810160405281019062000037919062000349565b846000806101000a81548173ffffffffffffffffffffffffffffffffffffffff021916908373ffffffffffffffffffffffffffffffffffffffff16021790555083600590816200008891906200066f565b5082600690816200009a91906200066f565b508160079081620000ac91906200066f565b5060018060008773ffffffffffffffffffffffffffffffffffffffff1673ffffffffffffffffffffffffffffffffffffffff16815260200190815260200160002060006101000a81548160ff02191690831515021790555080600381905550505050505062000756565b6000604051905090565b600080fd5b600080fd5b600073ffffffffffffffffffffffffffffffffffffffff82169050919050565b600062000157826200012a565b9050919050565b62000169816200014a565b81146200017557600080fd5b50565b60008151905062000189816200015e565b92915050565b600080fd5b600080fd5b6000601f19601f8301169050919050565b7f4e487b7100000000000000000000000000000000000000000000000000000000600052604160045260246000fd5b620001e48262000199565b810181811067ffffffffffffffff82111715620002065762000205620001aa565b5b80604052505050565b60006200021b62000116565b9050620002298282620001d9565b919050565b600067ffffffffffffffff8211156200024c576200024b620001aa565b5b620002578262000199565b9050602081019050919050565b60005b838110156200028457808201518184015260208101905062000267565b60008484015250505050565b6000620002a7620002a1846200022e565b6200020f565b905082815260208101848484011115620002c657620002c562000194565b5b620002d384828562000264565b509392505050565b600082601f830112620002f357620002f26200018f565b5b81516200030584826020860162000290565b91505092915050565b6000819050919050565b62000323816200030e565b81146200032f57600080fd5b50565b600081519050620003438162000318565b92915050565b600080600080600060a0868803121562000368576200036762000120565b5b6000620003788882890162000178565b955050602086015167ffffffffffffffff8111156200039c576200039b62000125565b5b620003aa88828901620002db565b945050604086015167ffffffffffffffff811115620003ce57620003cd62000125565b5b620003dc88828901620002db565b935050606086015167ffffffffffffffff8111156200040057620003ff62000125565b5b6200040e88828901620002db565b9250506080620004218882890162000332565b9150509295509295909350565b600081519050919050565b7f4e487b7100000000000000000000000000000000000000000000000000000000600052602260045260246000fd5b600060028204905060018216806200048157607f821691505b60208210810362000497576200049662000439565b5b50919050565b60008190508160005260206000209050919050565b60006020601f8301049050919050565b600082821b905092915050565b600060088302620005017fffffffffffffffffffffffffffffffffffffffffffffffffffffffffffffffff82620004c2565b6200050d8683620004c2565b95508019841693508086168417925050509392505050565b6000819050919050565b6000620005506200054a62000544846200030e565b62000525565b6200030e565b9050919050565b6000819050919050565b6200056c836200052f565b620005846200057b8262000557565b848454620004cf565b825550505050565b600090565b6200059b6200058c565b620005a881848462000561565b505050565b5b81811015620005d057620005c460008262000591565b600181019050620005ae565b5050565b601f8211156200061f57620005e9816200049d565b620005f484620004b2565b8101602085101562000604578190505b6200061c6200061385620004b2565b830182620005ad565b50505b505050565b600082821c905092915050565b6000620006446000198460080262000624565b1980831691505092915050565b60006200065f838362000631565b9150826002028217905092915050565b6200067a826200042e565b67ffffffffffffffff811115620006965762000695620001aa565b5b620006a2825462000468565b620006af828285620005d4565b600060209050601f831160018114620006e75760008415620006d2578287015190505b620006de858262000651565b8655506200074e565b601f198416620006f7866200049d565b60005b828110156200072157848901518255600182019150602085019450602081019050620006fa565b868310156200074157848901516200073d601f89168262000631565b8355505b6001600288020188555050505b505050505050565b61363880620007666000396000f3fe608060405260043610620000d35760003560e01c80635e164843116200008b578063b9e596001162000061578063b9e596001462000258578063be52ab661462000288578063c6d572ae1462000294578063dde8535f14620002c457620000d3565b80635e16484314620001de5780635ff6cbf314620001f857806368a549e8146200022857620000d3565b8062b16fee14620000d8578063092b300e14620000f25780632662ad0014620001205780632dd2bd44146200014e5780633a5673a4146200017e5780634559a90414620001ae575b600080fd5b348015620000e557600080fd5b50620000f062000308565b005b348015620000ff57600080fd5b506200011e6004803603810190620001189190620011e3565b62000434565b005b3480156200012d57600080fd5b506200014c6004803603810190620001469190620011e3565b62000573565b005b3480156200015b57600080fd5b50620001666200073f565b604051620001759190620012f1565b60405180910390f35b3480156200018b57600080fd5b5062000196620007d5565b604051620001a591906200135a565b60405180910390f35b348015620001bb57600080fd5b50620001c6620007f9565b604051620001d5919062001392565b60405180910390f35b348015620001eb57600080fd5b50620001f6620007ff565b005b3480156200020557600080fd5b50620002106200092b565b6040516200021f919062001565565b60405180910390f35b3480156200023557600080fd5b506200024062000b20565b6040516200024f919062001646565b60405180910390f35b3480156200026557600080fd5b506200027062000bb0565b6040516200027f9190620012f1565b60405180910390f35b6200029262000c46565b005b348015620002a157600080fd5b50620002ac62000f73565b604051620002bb9190620012f1565b60405180910390f35b348015620002d157600080fd5b50620002f06004803603810190620002ea91906200169b565b62001009565b604051620002ff9190620016ea565b60405180910390f35b600160003373ffffffffffffffffffffffffffffffffffffffff1673ffffffffffffffffffffffffffffffffffffffff16815260200190815260200160002060009054906101000a900460ff161562000398576040517f08c379a00000000000000000000000000000000000000000000000000000000081526004016200038f9062001757565b60405180910390fd5b60018060003373ffffffffffffffffffffffffffffffffffffffff1673ffffffffffffffffffffffffffffffffffffffff16815260200190815260200160002060006101000a81548160ff0219169083151502179055503373ffffffffffffffffffffffffffffffffffffffff167f0abf3b3f643594d958297062a019458e27d7766629590ac621aa1000fa1298ab60405160405180910390a2565b60046040518060800160405280848152602001600073ffffffffffffffffffffffffffffffffffffffff1681526020018381526020014281525090806001815401808255809150506001900390600052602060002090600402016000909190919091506000820151816000019081620004ae9190620019af565b5060208201518160010160006101000a81548173ffffffffffffffffffffffffffffffffffffffff021916908373ffffffffffffffffffffffffffffffffffffffff16021790555060408201518160020190816200050d9190620019af565b50606082015181600301555050600073ffffffffffffffffffffffffffffffffffffffff167fe89e2f68b504e014dcbd447cc8d1d45903e27deb2a197f25b6dc81698a0ce559838342604051620005679392919062001a96565b60405180910390a25050565b600160003373ffffffffffffffffffffffffffffffffffffffff1673ffffffffffffffffffffffffffffffffffffffff16815260200190815260200160002060009054906101000a900460ff1662000602576040517f08c379a0000000000000000000000000000000000000000000000000000000008152600401620005f99062001b31565b60405180910390fd5b600460405180608001604052808481526020013373ffffffffffffffffffffffffffffffffffffffff16815260200183815260200142815250908060018154018082558091505060019003906000526020600020906004020160009091909190915060008201518160000190816200067b9190620019af565b5060208201518160010160006101000a81548173ffffffffffffffffffffffffffffffffffffffff021916908373ffffffffffffffffffffffffffffffffffffffff1602179055506040820151816002019081620006da9190620019af565b506060820151816003015550503373ffffffffffffffffffffffffffffffffffffffff167fe89e2f68b504e014dcbd447cc8d1d45903e27deb2a197f25b6dc81698a0ce559838342604051620007339392919062001a96565b60405180910390a25050565b600780546200074e90620017a8565b80601f01602080910402602001604051908101604052809291908181526020018280546200077c90620017a8565b8015620007cd5780601f10620007a157610100808354040283529160200191620007cd565b820191906000526020600020905b815481529060010190602001808311620007af57829003601f168201915b505050505081565b60008054906101000a900473ffffffffffffffffffffffffffffffffffffffff1681565b60035481565b600160003373ffffffffffffffffffffffffffffffffffffffff1673ffffffffffffffffffffffffffffffffffffffff16815260200190815260200160002060009054906101000a900460ff166200088e576040517f08c379a0000000000000000000000000000000000000000000000000000000008152600401620008859062001ba3565b60405180910390fd5b6000600160003373ffffffffffffffffffffffffffffffffffffffff1673ffffffffffffffffffffffffffffffffffffffff16815260200190815260200160002060006101000a81548160ff0219169083151502179055503373ffffffffffffffffffffffffffffffffffffffff167fbea911b50ccdd2233b28faa49766c3cbd0631608f32e5a724d7b83b32b681ad060405160405180910390a2565b60606004805480602002602001604051908101604052809291908181526020016000905b8282101562000b1757838290600052602060002090600402016040518060800160405290816000820180546200098590620017a8565b80601f0160208091040260200160405190810160405280929190818152602001828054620009b390620017a8565b801562000a045780601f10620009d85761010080835404028352916020019162000a04565b820191906000526020600020905b815481529060010190602001808311620009e657829003601f168201915b505050505081526020016001820160009054906101000a900473ffffffffffffffffffffffffffffffffffffffff1673ffffffffffffffffffffffffffffffffffffffff1673ffffffffffffffffffffffffffffffffffffffff16815260200160028201805462000a7590620017a8565b80601f016020809104026020016040519081016040528092919081815260200182805462000aa390620017a8565b801562000af45780601f1062000ac85761010080835404028352916020019162000af4565b820191906000526020600020905b81548152906001019060200180831162000ad657829003601f168201915b50505050508152602001600382015481525050815260200190600101906200094f565b50505050905090565b6060600880548060200260200160405190810160405280929190818152602001828054801562000ba657602002820191906000526020600020905b8160009054906101000a900473ffffffffffffffffffffffffffffffffffffffff1673ffffffffffffffffffffffffffffffffffffffff168152602001906001019080831162000b5b575b5050505050905090565b6006805462000bbf90620017a8565b80601f016020809104026020016040519081016040528092919081815260200182805462000bed90620017a8565b801562000c3e5780601f1062000c125761010080835404028352916020019162000c3e565b820191906000526020600020905b81548152906001019060200180831162000c2057829003601f168201915b505050505081565b600160003373ffffffffffffffffffffffffffffffffffffffff1673ffffffffffffffffffffffffffffffffffffffff16815260200190815260200160002060009054906101000a900460ff161562000cd6576040517f08c379a000000000000000000000000000000000000000000000000000000000815260040162000ccd9062001c3b565b60405180910390fd5b600260003373ffffffffffffffffffffffffffffffffffffffff1673ffffffffffffffffffffffffffffffffffffffff16815260200190815260200160002060009054906101000a900460ff161562000d66576040517f08c379a000000000000000000000000000000000000000000000000000000000815260040162000d5d9062001cd3565b60405180910390fd5b600354341462000dad576040517f08c379a000000000000000000000000000000000000000000000000000000000815260040162000da49062001d45565b60405180910390fd5b60008054906101000a900473ffffffffffffffffffffffffffffffffffffffff1673ffffffffffffffffffffffffffffffffffffffff166108fc349081150290604051600060405180830381858888f1935050505015801562000e14573d6000803e3d6000fd5b5060003360076005600660405162000e2c906200105f565b62000e3b949392919062001df7565b604051809103906000f08015801562000e58573d6000803e3d6000fd5b5090506008819080600181540180825580915050600190039060005260206000200160009091909190916101000a81548173ffffffffffffffffffffffffffffffffffffffff021916908373ffffffffffffffffffffffffffffffffffffffff1602179055506001600260003373ffffffffffffffffffffffffffffffffffffffff1673ffffffffffffffffffffffffffffffffffffffff16815260200190815260200160002060006101000a81548160ff0219169083151502179055508073ffffffffffffffffffffffffffffffffffffffff163373ffffffffffffffffffffffffffffffffffffffff167f706b8ef835c24b521d1f532df9a3cb5d89541f52b03fbe298e8a6aff50cbc39360405160405180910390a350565b6005805462000f8290620017a8565b80601f016020809104026020016040519081016040528092919081815260200182805462000fb090620017a8565b8015620010015780601f1062000fd55761010080835404028352916020019162001001565b820191906000526020600020905b81548152906001019060200180831162000fe357829003601f168201915b505050505081565b6000600160008373ffffffffffffffffffffffffffffffffffffffff1673ffffffffffffffffffffffffffffffffffffffff16815260200190815260200160002060009054906101000a900460ff169050919050565b6117a98062001e5a83390190565b6000604051905090565b600080fd5b600080fd5b600080fd5b600080fd5b6000601f19601f8301169050919050565b7f4e487b7100000000000000000000000000000000000000000000000000000000600052604160045260246000fd5b620010d6826200108b565b810181811067ffffffffffffffff82111715620010f857620010f76200109c565b5b80604052505050565b60006200110d6200106d565b90506200111b8282620010cb565b919050565b600067ffffffffffffffff8211156200113e576200113d6200109c565b5b62001149826200108b565b9050602081019050919050565b82818337600083830152505050565b60006200117c620011768462001120565b62001101565b9050828152602081018484840111156200119b576200119a62001086565b5b620011a884828562001156565b509392505050565b600082601f830112620011c857620011c762001081565b5b8135620011da84826020860162001165565b91505092915050565b60008060408385031215620011fd57620011fc62001077565b5b600083013567ffffffffffffffff8111156200121e576200121d6200107c565b5b6200122c85828601620011b0565b925050602083013567ffffffffffffffff81111562001250576200124f6200107c565b5b6200125e85828601620011b0565b9150509250929050565b600081519050919050565b600082825260208201905092915050565b60005b83811015620012a457808201518184015260208101905062001287565b60008484015250505050565b6000620012bd8262001268565b620012c9818562001273565b9350620012db81856020860162001284565b620012e6816200108b565b840191505092915050565b600060208201905081810360008301526200130d8184620012b0565b905092915050565b600073ffffffffffffffffffffffffffffffffffffffff82169050919050565b6000620013428262001315565b9050919050565b620013548162001335565b82525050565b600060208201905062001371600083018462001349565b92915050565b6000819050919050565b6200138c8162001377565b82525050565b6000602082019050620013a9600083018462001381565b92915050565b600081519050919050565b600082825260208201905092915050565b6000819050602082019050919050565b600082825260208201905092915050565b6000620013f98262001268565b620014058185620013db565b93506200141781856020860162001284565b62001422816200108b565b840191505092915050565b620014388162001335565b82525050565b620014498162001377565b82525050565b600060808301600083015184820360008601526200146e8282620013ec565b91505060208301516200148560208601826200142d565b50604083015184820360408601526200149f8282620013ec565b9150506060830151620014b660608601826200143e565b508091505092915050565b6000620014cf83836200144f565b905092915050565b6000602082019050919050565b6000620014f182620013af565b620014fd8185620013ba565b9350836020820285016200151185620013cb565b8060005b85811015620015535784840389528151620015318582620014c1565b94506200153e83620014d7565b925060208a0199505060018101905062001515565b50829750879550505050505092915050565b60006020820190508181036000830152620015818184620014e4565b905092915050565b600081519050919050565b600082825260208201905092915050565b6000819050602082019050919050565b6000620015c383836200142d565b60208301905092915050565b6000602082019050919050565b6000620015e98262001589565b620015f5818562001594565b93506200160283620015a5565b8060005b83811015620016395781516200161d8882620015b5565b97506200162a83620015cf565b92505060018101905062001606565b5085935050505092915050565b60006020820190508181036000830152620016628184620015dc565b905092915050565b620016758162001335565b81146200168157600080fd5b50565b60008135905062001695816200166a565b92915050565b600060208284031215620016b457620016b362001077565b5b6000620016c48482850162001684565b91505092915050565b60008115159050919050565b620016e481620016cd565b82525050565b6000602082019050620017016000830184620016d9565b92915050565b7f5573657220697320616c72656164792061206d656d6265720000000000000000600082015250565b60006200173f60188362001273565b91506200174c8262001707565b602082019050919050565b60006020820190508181036000830152620017728162001730565b9050919050565b7f4e487b7100000000000000000000000000000000000000000000000000000000600052602260045260246000fd5b60006002820490506001821680620017c157607f821691505b602082108103620017d757620017d662001779565b5b50919050565b60008190508160005260206000209050919050565b60006020601f8301049050919050565b600082821b905092915050565b600060088302620018417fffffffffffffffffffffffffffffffffffffffffffffffffffffffffffffffff8262001802565b6200184d868362001802565b95508019841693508086168417925050509392505050565b6000819050919050565b6000620018906200188a620018848462001377565b62001865565b62001377565b9050919050565b6000819050919050565b620018ac836200186f565b620018c4620018bb8262001897565b8484546200180f565b825550505050565b600090565b620018db620018cc565b620018e8818484620018a1565b505050565b5b81811015620019105762001904600082620018d1565b600181019050620018ee565b5050565b601f8211156200195f576200192981620017dd565b6200193484620017f2565b8101602085101562001944578190505b6200195c6200195385620017f2565b830182620018ed565b50505b505050565b600082821c905092915050565b6000620019846000198460080262001964565b1980831691505092915050565b60006200199f838362001971565b9150826002028217905092915050565b620019ba8262001268565b67ffffffffffffffff811115620019d657620019d56200109c565b5b620019e28254620017a8565b620019ef82828562001914565b600060209050601f83116001811462001a27576000841562001a12578287015190505b62001a1e858262001991565b86555062001a8e565b601f19841662001a3786620017dd565b60005b8281101562001a615784890151825560018201915060208501945060208101905062001a3a565b8683101562001a81578489015162001a7d601f89168262001971565b8355505b6001600288020188555050505b505050505050565b6000606082019050818103600083015262001ab28186620012b0565b9050818103602083015262001ac88185620012b0565b905062001ad9604083018462001381565b949350505050565b7f4f6e6c79206d656d626572732063616e2073656e64206d657373616765730000600082015250565b600062001b19601e8362001273565b915062001b268262001ae1565b602082019050919050565b6000602082019050818103600083015262001b4c8162001b0a565b9050919050565b7f55736572206973206e6f742061206d656d626572000000000000000000000000600082015250565b600062001b8b60148362001273565b915062001b988262001b53565b602082019050919050565b6000602082019050818103600083015262001bbe8162001b7c565b9050919050565b7f55736572206973206e6f742061206d656d626572206f662074686520636f6d6d60008201527f756e6974792e0000000000000000000000000000000000000000000000000000602082015250565b600062001c2360268362001273565b915062001c308262001bc5565b604082019050919050565b6000602082019050818103600083015262001c568162001c14565b9050919050565b7f5573657220616c726561647920686173206120706572736f6e616c206173736960008201527f7374616e742e0000000000000000000000000000000000000000000000000000602082015250565b600062001cbb60268362001273565b915062001cc88262001c5d565b604082019050919050565b6000602082019050818103600083015262001cee8162001cac565b9050919050565b7f496e636f7272656374207061796d656e7420616d6f756e742e00000000000000600082015250565b600062001d2d60198362001273565b915062001d3a8262001cf5565b602082019050919050565b6000602082019050818103600083015262001d608162001d1e565b9050919050565b6000815462001d7681620017a8565b62001d82818662001273565b9450600182166000811462001da0576001811462001db75762001dee565b60ff19831686528115156020028601935062001dee565b62001dc285620017dd565b60005b8381101562001de65781548189015260018201915060208101905062001dc5565b808801955050505b50505092915050565b600060808201905062001e0e600083018762001349565b818103602083015262001e22818662001d67565b9050818103604083015262001e38818562001d67565b9050818103606083015262001e4e818462001d67565b90509594505050505056fe60806040523480156200001157600080fd5b50604051620017a9380380620017a98339818101604052810190620000379190620002af565b836000806101000a81548173ffffffffffffffffffffffffffffffffffffffff021916908373ffffffffffffffffffffffffffffffffffffffff1602179055508260039081620000889190620005c9565b5081600190816200009a9190620005c9565b508060029081620000ac9190620005c9565b5050505050620006b0565b6000604051905090565b600080fd5b600080fd5b600073ffffffffffffffffffffffffffffffffffffffff82169050919050565b6000620000f882620000cb565b9050919050565b6200010a81620000eb565b81146200011657600080fd5b50565b6000815190506200012a81620000ff565b92915050565b600080fd5b600080fd5b6000601f19601f8301169050919050565b7f4e487b7100000000000000000000000000000000000000000000000000000000600052604160045260246000fd5b62000185826200013a565b810181811067ffffffffffffffff82111715620001a757620001a66200014b565b5b80604052505050565b6000620001bc620000b7565b9050620001ca82826200017a565b919050565b600067ffffffffffffffff821115620001ed57620001ec6200014b565b5b620001f8826200013a565b9050602081019050919050565b60005b838110156200022557808201518184015260208101905062000208565b60008484015250505050565b6000620002486200024284620001cf565b620001b0565b90508281526020810184848401111562000267576200026662000135565b5b6200027484828562000205565b509392505050565b600082601f83011262000294576200029362000130565b5b8151620002a684826020860162000231565b91505092915050565b60008060008060808587031215620002cc57620002cb620000c1565b5b6000620002dc8782880162000119565b945050602085015167ffffffffffffffff8111156200030057620002ff620000c6565b5b6200030e878288016200027c565b935050604085015167ffffffffffffffff811115620003325762000331620000c6565b5b62000340878288016200027c565b925050606085015167ffffffffffffffff811115620003645762000363620000c6565b5b62000372878288016200027c565b91505092959194509250565b600081519050919050565b7f4e487b7100000000000000000000000000000000000000000000000000000000600052602260045260246000fd5b60006002820490506001821680620003d157607f821691505b602082108103620003e757620003e662000389565b5b50919050565b60008190508160005260206000209050919050565b60006020601f8301049050919050565b600082821b905092915050565b600060088302620004517fffffffffffffffffffffffffffffffffffffffffffffffffffffffffffffffff8262000412565b6200045d868362000412565b95508019841693508086168417925050509392505050565b6000819050919050565b6000819050919050565b6000620004aa620004a46200049e8462000475565b6200047f565b62000475565b9050919050565b6000819050919050565b620004c68362000489565b620004de620004d582620004b1565b8484546200041f565b825550505050565b600090565b620004f5620004e6565b62000502818484620004bb565b505050565b5b818110156200052a576200051e600082620004eb565b60018101905062000508565b5050565b601f82111562000579576200054381620003ed565b6200054e8462000402565b810160208510156200055e578190505b620005766200056d8562000402565b83018262000507565b50505b505050565b600082821c905092915050565b60006200059e600019846008026200057e565b1980831691505092915050565b6000620005b983836200058b565b9150826002028217905092915050565b620005d4826200037e565b67ffffffffffffffff811115620005f057620005ef6200014b565b5b620005fc8254620003b8565b620006098282856200052e565b600060209050601f8311600181146200064157600084156200062c578287015190505b620006388582620005ab565b865550620006a8565b601f1984166200065186620003ed565b60005b828110156200067b5784890151825560018201915060208501945060208101905062000654565b868310156200069b578489015162000697601f8916826200058b565b8355505b6001600288020188555050505b505050505050565b6110e980620006c06000396000f3fe608060405234801561001057600080fd5b50600436106100625760003560e01c8063092b300e14610067578063467fba0f146100835780635ff6cbf31461009f5780638da5cb5b146100bd578063b9e59600146100db578063c6d572ae146100f9575b600080fd5b610081600480360381019061007c91906109ba565b610117565b005b61009d600480360381019061009891906109ba565b6102e4565b005b6100a76104af565b6040516100b49190610c37565b60405180910390f35b6100c5610720565b6040516100d29190610c68565b60405180910390f35b6100e3610744565b6040516100f09190610ccd565b60405180910390f35b6101016107d2565b60405161010e9190610ccd565b60405180910390f35b60008054906101000a900473ffffffffffffffffffffffffffffffffffffffff1673ffffffffffffffffffffffffffffffffffffffff163373ffffffffffffffffffffffffffffffffffffffff16146101a5576040517f08c379a000000000000000000000000000000000000000000000000000000000815260040161019c90610d61565b60405180910390fd5b60006040518060800160405280848152602001600073ffffffffffffffffffffffffffffffffffffffff168152602001838152602001428152509050600481908060018154018082558091505060019003906000526020600020906004020160009091909190915060008201518160000190816102229190610f8d565b5060208201518160010160006101000a81548173ffffffffffffffffffffffffffffffffffffffff021916908373ffffffffffffffffffffffffffffffffffffffff160217905550604082015181600201908161027f9190610f8d565b50606082015181600301555050600073ffffffffffffffffffffffffffffffffffffffff167fe89e2f68b504e014dcbd447cc8d1d45903e27deb2a197f25b6dc81698a0ce5598484426040516102d79392919061106e565b60405180910390a2505050565b60008054906101000a900473ffffffffffffffffffffffffffffffffffffffff1673ffffffffffffffffffffffffffffffffffffffff163373ffffffffffffffffffffffffffffffffffffffff1614610372576040517f08c379a000000000000000000000000000000000000000000000000000000000815260040161036990610d61565b60405180910390fd5b600060405180608001604052808481526020013373ffffffffffffffffffffffffffffffffffffffff168152602001838152602001428152509050600481908060018154018082558091505060019003906000526020600020906004020160009091909190915060008201518160000190816103ee9190610f8d565b5060208201518160010160006101000a81548173ffffffffffffffffffffffffffffffffffffffff021916908373ffffffffffffffffffffffffffffffffffffffff160217905550604082015181600201908161044b9190610f8d565b506060820151816003015550503373ffffffffffffffffffffffffffffffffffffffff167fe89e2f68b504e014dcbd447cc8d1d45903e27deb2a197f25b6dc81698a0ce5598484426040516104a29392919061106e565b60405180910390a2505050565b606060008054906101000a900473ffffffffffffffffffffffffffffffffffffffff1673ffffffffffffffffffffffffffffffffffffffff163373ffffffffffffffffffffffffffffffffffffffff161461053f576040517f08c379a000000000000000000000000000000000000000000000000000000000815260040161053690610d61565b60405180910390fd5b6004805480602002602001604051908101604052809291908181526020016000905b82821015610717578382906000526020600020906004020160405180608001604052908160008201805461059490610db0565b80601f01602080910402602001604051908101604052809291908181526020018280546105c090610db0565b801561060d5780601f106105e25761010080835404028352916020019161060d565b820191906000526020600020905b8154815290600101906020018083116105f057829003601f168201915b505050505081526020016001820160009054906101000a900473ffffffffffffffffffffffffffffffffffffffff1673ffffffffffffffffffffffffffffffffffffffff1673ffffffffffffffffffffffffffffffffffffffff16815260200160028201805461067c90610db0565b80601f01602080910402602001604051908101604052809291908181526020018280546106a890610db0565b80156106f55780601f106106ca576101008083540402835291602001916106f5565b820191906000526020600020905b8154815290600101906020018083116106d857829003601f168201915b5050505050815260200160038201548152505081526020019060010190610561565b50505050905090565b60008054906101000a900473ffffffffffffffffffffffffffffffffffffffff1681565b6002805461075190610db0565b80601f016020809104026020016040519081016040528092919081815260200182805461077d90610db0565b80156107ca5780601f1061079f576101008083540402835291602001916107ca565b820191906000526020600020905b8154815290600101906020018083116107ad57829003601f168201915b505050505081565b600180546107df90610db0565b80601f016020809104026020016040519081016040528092919081815260200182805461080b90610db0565b80156108585780601f1061082d57610100808354040283529160200191610858565b820191906000526020600020905b81548152906001019060200180831161083b57829003601f168201915b505050505081565b6000604051905090565b600080fd5b600080fd5b600080fd5b600080fd5b6000601f19601f8301169050919050565b7f4e487b7100000000000000000000000000000000000000000000000000000000600052604160045260246000fd5b6108c78261087e565b810181811067ffffffffffffffff821117156108e6576108e561088f565b5b80604052505050565b60006108f9610860565b905061090582826108be565b919050565b600067ffffffffffffffff8211156109255761092461088f565b5b61092e8261087e565b9050602081019050919050565b82818337600083830152505050565b600061095d6109588461090a565b6108ef565b90508281526020810184848401111561097957610978610879565b5b61098484828561093b565b509392505050565b600082601f8301126109a1576109a0610874565b5b81356109b184826020860161094a565b91505092915050565b600080604083850312156109d1576109d061086a565b5b600083013567ffffffffffffffff8111156109ef576109ee61086f565b5b6109fb8582860161098c565b925050602083013567ffffffffffffffff811115610a1c57610a1b61086f565b5b610a288582860161098c565b9150509250929050565b600081519050919050565b600082825260208201905092915050565b6000819050602082019050919050565b600081519050919050565b600082825260208201905092915050565b60005b83811015610a98578082015181840152602081019050610a7d565b60008484015250505050565b6000610aaf82610a5e565b610ab98185610a69565b9350610ac9818560208601610a7a565b610ad28161087e565b840191505092915050565b600073ffffffffffffffffffffffffffffffffffffffff82169050919050565b6000610b0882610add565b9050919050565b610b1881610afd565b82525050565b6000819050919050565b610b3181610b1e565b82525050565b60006080830160008301518482036000860152610b548282610aa4565b9150506020830151610b696020860182610b0f565b5060408301518482036040860152610b818282610aa4565b9150506060830151610b966060860182610b28565b508091505092915050565b6000610bad8383610b37565b905092915050565b6000602082019050919050565b6000610bcd82610a32565b610bd78185610a3d565b935083602082028501610be985610a4e565b8060005b85811015610c255784840389528151610c068582610ba1565b9450610c1183610bb5565b925060208a01995050600181019050610bed565b50829750879550505050505092915050565b60006020820190508181036000830152610c518184610bc2565b905092915050565b610c6281610afd565b82525050565b6000602082019050610c7d6000830184610c59565b92915050565b600082825260208201905092915050565b6000610c9f82610a5e565b610ca98185610c83565b9350610cb9818560208601610a7a565b610cc28161087e565b840191505092915050565b60006020820190508181036000830152610ce78184610c94565b905092915050565b7f4f6e6c79206f776e65722063616e20696e74657261637420776974682074686560008201527f20617373697374616e742e000000000000000000000000000000000000000000602082015250565b6000610d4b602b83610c83565b9150610d5682610cef565b604082019050919050565b60006020820190508181036000830152610d7a81610d3e565b9050919050565b7f4e487b7100000000000000000000000000000000000000000000000000000000600052602260045260246000fd5b60006002820490506001821680610dc857607f821691505b602082108103610ddb57610dda610d81565b5b50919050565b60008190508160005260206000209050919050565b60006020601f8301049050919050565b600082821b905092915050565b600060088302610e437fffffffffffffffffffffffffffffffffffffffffffffffffffffffffffffffff82610e06565b610e4d8683610e06565b95508019841693508086168417925050509392505050565b6000819050919050565b6000610e8a610e85610e8084610b1e565b610e65565b610b1e565b9050919050565b6000819050919050565b610ea483610e6f565b610eb8610eb082610e91565b848454610e13565b825550505050565b600090565b610ecd610ec0565b610ed8818484610e9b565b505050565b5b81811015610efc57610ef1600082610ec5565b600181019050610ede565b5050565b601f821115610f4157610f1281610de1565b610f1b84610df6565b81016020851015610f2a578190505b610f3e610f3685610df6565b830182610edd565b50505b505050565b600082821c905092915050565b6000610f6460001984600802610f46565b1980831691505092915050565b6000610f7d8383610f53565b9150826002028217905092915050565b610f9682610a5e565b67ffffffffffffffff811115610faf57610fae61088f565b5b610fb98254610db0565b610fc4828285610f00565b600060209050601f831160018114610ff75760008415610fe5578287015190505b610fef8582610f71565b865550611057565b601f19841661100586610de1565b60005b8281101561102d57848901518255600182019150602085019450602081019050611008565b8683101561104a5784890151611046601f891682610f53565b8355505b6001600288020188555050505b505050505050565b61106881610b1e565b82525050565b600060608201905081810360008301526110888186610c94565b9050818103602083015261109c8185610c94565b90506110ab604083018461105f565b94935050505056fea26469706673582212202beea269df91c9d08b120e04ea42cd8aacda2702e7254d15c7a11e248aea4d0e64736f6c63430008140033a2646970667358221220752ea86c0fce27a7eae1c44398bde1bf337ea124875ef660f2ea07712c5ae92664736f6c63430008140033","opcodes":"PUSH1 0x80 PUSH1 0x40 MSTORE CALLVALUE DUP1 ISZERO PUSH3 0x11 JUMPI PUSH1 0x0 DUP1 REVERT JUMPDEST POP PUSH1 0x40 MLOAD PUSH3 0x3D9E CODESIZE SUB DUP1 PUSH3 0x3D9E DUP4 CODECOPY DUP2 DUP2 ADD PUSH1 0x40 MSTORE DUP2 ADD SWAP1 PUSH3 0x37 SWAP2 SWAP1 PUSH3 0x349 JUMP JUMPDEST DUP5 PUSH1 0x0 DUP1 PUSH2 0x100 EXP DUP2 SLOAD DUP2 PUSH20 0xFFFFFFFFFFFFFFFFFFFFFFFFFFFFFFFFFFFFFFFF MUL NOT AND SWAP1 DUP4 PUSH20 0xFFFFFFFFFFFFFFFFFFFFFFFFFFFFFFFFFFFFFFFF AND MUL OR SWAP1 SSTORE POP DUP4 PUSH1 0x5 SWAP1 DUP2 PUSH3 0x88 SWAP2 SWAP1 PUSH3 0x66F JUMP JUMPDEST POP DUP3 PUSH1 0x6 SWAP1 DUP2 PUSH3 0x9A SWAP2 SWAP1 PUSH3 0x66F JUMP JUMPDEST POP DUP2 PUSH1 0x7 SWAP1 DUP2 PUSH3 0xAC SWAP2 SWAP1 PUSH3 0x66F JUMP JUMPDEST POP PUSH1 0x1 DUP1 PUSH1 0x0 DUP8 PUSH20 0xFFFFFFFFFFFFFFFFFFFFFFFFFFFFFFFFFFFFFFFF AND PUSH20 0xFFFFFFFFFFFFFFFFFFFFFFFFFFFFFFFFFFFFFFFF AND DUP2 MSTORE PUSH1 0x20 ADD SWAP1 DUP2 MSTORE PUSH1 0x20 ADD PUSH1 0x0 KECCAK256 PUSH1 0x0 PUSH2 0x100 EXP DUP2 SLOAD DUP2 PUSH1 0xFF MUL NOT AND SWAP1 DUP4 ISZERO ISZERO MUL OR SWAP1 SSTORE POP DUP1 PUSH1 0x3 DUP2 SWAP1 SSTORE POP POP POP POP POP POP PUSH3 0x756 JUMP JUMPDEST PUSH1 0x0 PUSH1 0x40 MLOAD SWAP1 POP SWAP1 JUMP JUMPDEST PUSH1 0x0 DUP1 REVERT JUMPDEST PUSH1 0x0 DUP1 REVERT JUMPDEST PUSH1 0x0 PUSH20 0xFFFFFFFFFFFFFFFFFFFFFFFFFFFFFFFFFFFFFFFF DUP3 AND SWAP1 POP SWAP2 SWAP1 POP JUMP JUMPDEST PUSH1 0x0 PUSH3 0x157 DUP3 PUSH3 0x12A JUMP JUMPDEST SWAP1 POP SWAP2 SWAP1 POP JUMP JUMPDEST PUSH3 0x169 DUP2 PUSH3 0x14A JUMP JUMPDEST DUP2 EQ PUSH3 0x175 JUMPI PUSH1 0x0 DUP1 REVERT JUMPDEST POP JUMP JUMPDEST PUSH1 0x0 DUP2 MLOAD SWAP1 POP PUSH3 0x189 DUP2 PUSH3 0x15E JUMP JUMPDEST SWAP3 SWAP2 POP POP JUMP JUMPDEST PUSH1 0x0 DUP1 REVERT JUMPDEST PUSH1 0x0 DUP1 REVERT JUMPDEST PUSH1 0x0 PUSH1 0x1F NOT PUSH1 0x1F DUP4 ADD AND SWAP1 POP SWAP2 SWAP1 POP JUMP JUMPDEST PUSH32 0x4E487B7100000000000000000000000000000000000000000000000000000000 PUSH1 0x0 MSTORE PUSH1 0x41 PUSH1 0x4 MSTORE PUSH1 0x24 PUSH1 0x0 REVERT JUMPDEST PUSH3 0x1E4 DUP3 PUSH3 0x199 JUMP JUMPDEST DUP2 ADD DUP2 DUP2 LT PUSH8 0xFFFFFFFFFFFFFFFF DUP3 GT OR ISZERO PUSH3 0x206 JUMPI PUSH3 0x205 PUSH3 0x1AA JUMP JUMPDEST JUMPDEST DUP1 PUSH1 0x40 MSTORE POP POP POP JUMP JUMPDEST PUSH1 0x0 PUSH3 0x21B PUSH3 0x116 JUMP JUMPDEST SWAP1 POP PUSH3 0x229 DUP3 DUP3 PUSH3 0x1D9 JUMP JUMPDEST SWAP2 SWAP1 POP JUMP JUMPDEST PUSH1 0x0 PUSH8 0xFFFFFFFFFFFFFFFF DUP3 GT ISZERO PUSH3 0x24C JUMPI PUSH3 0x24B PUSH3 0x1AA JUMP JUMPDEST JUMPDEST PUSH3 0x257 DUP3 PUSH3 0x199 JUMP JUMPDEST SWAP1 POP PUSH1 0x20 DUP2 ADD SWAP1 POP SWAP2 SWAP1 POP JUMP JUMPDEST PUSH1 0x0 JUMPDEST DUP4 DUP2 LT ISZERO PUSH3 0x284 JUMPI DUP1 DUP3 ADD MLOAD DUP2 DUP5 ADD MSTORE PUSH1 0x20 DUP2 ADD SWAP1 POP PUSH3 0x267 JUMP JUMPDEST PUSH1 0x0 DUP5 DUP5 ADD MSTORE POP POP POP POP JUMP JUMPDEST PUSH1 0x0 PUSH3 0x2A7 PUSH3 0x2A1 DUP5 PUSH3 0x22E JUMP JUMPDEST PUSH3 0x20F JUMP JUMPDEST SWAP1 POP DUP3 DUP2 MSTORE PUSH1 0x20 DUP2 ADD DUP5 DUP5 DUP5 ADD GT ISZERO PUSH3 0x2C6 JUMPI PUSH3 0x2C5 PUSH3 0x194 JUMP JUMPDEST JUMPDEST PUSH3 0x2D3 DUP5 DUP3 DUP6 PUSH3 0x264 JUMP JUMPDEST POP SWAP4 SWAP3 POP POP POP JUMP JUMPDEST PUSH1 0x0 DUP3 PUSH1 0x1F DUP4 ADD SLT PUSH3 0x2F3 JUMPI PUSH3 0x2F2 PUSH3 0x18F JUMP JUMPDEST JUMPDEST DUP2 MLOAD PUSH3 0x305 DUP5 DUP3 PUSH1 0x20 DUP7 ADD PUSH3 0x290 JUMP JUMPDEST SWAP2 POP POP SWAP3 SWAP2 POP POP JUMP JUMPDEST PUSH1 0x0 DUP2 SWAP1 POP SWAP2 SWAP1 POP JUMP JUMPDEST PUSH3 0x323 DUP2 PUSH3 0x30E JUMP JUMPDEST DUP2 EQ PUSH3 0x32F JUMPI PUSH1 0x0 DUP1 REVERT JUMPDEST POP JUMP JUMPDEST PUSH1 0x0 DUP2 MLOAD SWAP1 POP PUSH3 0x343 DUP2 PUSH3 0x318 JUMP JUMPDEST SWAP3 SWAP2 POP POP JUMP JUMPDEST PUSH1 0x0 DUP1 PUSH1 0x0 DUP1 PUSH1 0x0 PUSH1 0xA0 DUP7 DUP9 SUB SLT ISZERO PUSH3 0x368 JUMPI PUSH3 0x367 PUSH3 0x120 JUMP JUMPDEST JUMPDEST PUSH1 0x0 PUSH3 0x378 DUP9 DUP3 DUP10 ADD PUSH3 0x178 JUMP JUMPDEST SWAP6 POP POP PUSH1 0x20 DUP7 ADD MLOAD PUSH8 0xFFFFFFFFFFFFFFFF DUP2 GT ISZERO PUSH3 0x39C JUMPI PUSH3 0x39B PUSH3 0x125 JUMP JUMPDEST JUMPDEST PUSH3 0x3AA DUP9 DUP3 DUP10 ADD PUSH3 0x2DB JUMP JUMPDEST SWAP5 POP POP PUSH1 0x40 DUP7 ADD MLOAD PUSH8 0xFFFFFFFFFFFFFFFF DUP2 GT ISZERO PUSH3 0x3CE JUMPI PUSH3 0x3CD PUSH3 0x125 JUMP JUMPDEST JUMPDEST PUSH3 0x3DC DUP9 DUP3 DUP10 ADD PUSH3 0x2DB JUMP JUMPDEST SWAP4 POP POP PUSH1 0x60 DUP7 ADD MLOAD PUSH8 0xFFFFFFFFFFFFFFFF DUP2 GT ISZERO PUSH3 0x400 JUMPI PUSH3 0x3FF PUSH3 0x125 JUMP JUMPDEST JUMPDEST PUSH3 0x40E DUP9 DUP3 DUP10 ADD PUSH3 0x2DB JUMP JUMPDEST SWAP3 POP POP PUSH1 0x80 PUSH3 0x421 DUP9 DUP3 DUP10 ADD PUSH3 0x332 JUMP JUMPDEST SWAP2 POP POP SWAP3 SWAP6 POP SWAP3 SWAP6 SWAP1 SWAP4 POP JUMP JUMPDEST PUSH1 0x0 DUP2 MLOAD SWAP1 POP SWAP2 SWAP1 POP JUMP JUMPDEST PUSH32 0x4E487B7100000000000000000000000000000000000000000000000000000000 PUSH1 0x0 MSTORE PUSH1 0x22 PUSH1 0x4 MSTORE PUSH1 0x24 PUSH1 0x0 REVERT JUMPDEST PUSH1 0x0 PUSH1 0x2 DUP3 DIV SWAP1 POP PUSH1 0x1 DUP3 AND DUP1 PUSH3 0x481 JUMPI PUSH1 0x7F DUP3 AND SWAP2 POP JUMPDEST PUSH1 0x20 DUP3 LT DUP2 SUB PUSH3 0x497 JUMPI PUSH3 0x496 PUSH3 0x439 JUMP JUMPDEST JUMPDEST POP SWAP2 SWAP1 POP JUMP JUMPDEST PUSH1 0x0 DUP2 SWAP1 POP DUP2 PUSH1 0x0 MSTORE PUSH1 0x20 PUSH1 0x0 KECCAK256 SWAP1 POP SWAP2 SWAP1 POP JUMP JUMPDEST PUSH1 0x0 PUSH1 0x20 PUSH1 0x1F DUP4 ADD DIV SWAP1 POP SWAP2 SWAP1 POP JUMP JUMPDEST PUSH1 0x0 DUP3 DUP3 SHL SWAP1 POP SWAP3 SWAP2 POP POP JUMP JUMPDEST PUSH1 0x0 PUSH1 0x8 DUP4 MUL PUSH3 0x501 PUSH32 0xFFFFFFFFFFFFFFFFFFFFFFFFFFFFFFFFFFFFFFFFFFFFFFFFFFFFFFFFFFFFFFFF DUP3 PUSH3 0x4C2 JUMP JUMPDEST PUSH3 0x50D DUP7 DUP4 PUSH3 0x4C2 JUMP JUMPDEST SWAP6 POP DUP1 NOT DUP5 AND SWAP4 POP DUP1 DUP7 AND DUP5 OR SWAP3 POP POP POP SWAP4 SWAP3 POP POP POP JUMP JUMPDEST PUSH1 0x0 DUP2 SWAP1 POP SWAP2 SWAP1 POP JUMP JUMPDEST PUSH1 0x0 PUSH3 0x550 PUSH3 0x54A PUSH3 0x544 DUP5 PUSH3 0x30E JUMP JUMPDEST PUSH3 0x525 JUMP JUMPDEST PUSH3 0x30E JUMP JUMPDEST SWAP1 POP SWAP2 SWAP1 POP JUMP JUMPDEST PUSH1 0x0 DUP2 SWAP1 POP SWAP2 SWAP1 POP JUMP JUMPDEST PUSH3 0x56C DUP4 PUSH3 0x52F JUMP JUMPDEST PUSH3 0x584 PUSH3 0x57B DUP3 PUSH3 0x557 JUMP JUMPDEST DUP5 DUP5 SLOAD PUSH3 0x4CF JUMP JUMPDEST DUP3 SSTORE POP POP POP POP JUMP JUMPDEST PUSH1 0x0 SWAP1 JUMP JUMPDEST PUSH3 0x59B PUSH3 0x58C JUMP JUMPDEST PUSH3 0x5A8 DUP2 DUP5 DUP5 PUSH3 0x561 JUMP JUMPDEST POP POP POP JUMP JUMPDEST JUMPDEST DUP2 DUP2 LT ISZERO PUSH3 0x5D0 JUMPI PUSH3 0x5C4 PUSH1 0x0 DUP3 PUSH3 0x591 JUMP JUMPDEST PUSH1 0x1 DUP2 ADD SWAP1 POP PUSH3 0x5AE JUMP JUMPDEST POP POP JUMP JUMPDEST PUSH1 0x1F DUP3 GT ISZERO PUSH3 0x61F JUMPI PUSH3 0x5E9 DUP2 PUSH3 0x49D JUMP JUMPDEST PUSH3 0x5F4 DUP5 PUSH3 0x4B2 JUMP JUMPDEST DUP2 ADD PUSH1 0x20 DUP6 LT ISZERO PUSH3 0x604 JUMPI DUP2 SWAP1 POP JUMPDEST PUSH3 0x61C PUSH3 0x613 DUP6 PUSH3 0x4B2 JUMP JUMPDEST DUP4 ADD DUP3 PUSH3 0x5AD JUMP JUMPDEST POP POP JUMPDEST POP POP POP JUMP JUMPDEST PUSH1 0x0 DUP3 DUP3 SHR SWAP1 POP SWAP3 SWAP2 POP POP JUMP JUMPDEST PUSH1 0x0 PUSH3 0x644 PUSH1 0x0 NOT DUP5 PUSH1 0x8 MUL PUSH3 0x624 JUMP JUMPDEST NOT DUP1 DUP4 AND SWAP2 POP POP SWAP3 SWAP2 POP POP JUMP JUMPDEST PUSH1 0x0 PUSH3 0x65F DUP4 DUP4 PUSH3 0x631 JUMP JUMPDEST SWAP2 POP DUP3 PUSH1 0x2 MUL DUP3 OR SWAP1 POP SWAP3 SWAP2 POP POP JUMP JUMPDEST PUSH3 0x67A DUP3 PUSH3 0x42E JUMP JUMPDEST PUSH8 0xFFFFFFFFFFFFFFFF DUP2 GT ISZERO PUSH3 0x696 JUMPI PUSH3 0x695 PUSH3 0x1AA JUMP JUMPDEST JUMPDEST PUSH3 0x6A2 DUP3 SLOAD PUSH3 0x468 JUMP JUMPDEST PUSH3 0x6AF DUP3 DUP3 DUP6 PUSH3 0x5D4 JUMP JUMPDEST PUSH1 0x0 PUSH1 0x20 SWAP1 POP PUSH1 0x1F DUP4 GT PUSH1 0x1 DUP2 EQ PUSH3 0x6E7 JUMPI PUSH1 0x0 DUP5 ISZERO PUSH3 0x6D2 JUMPI DUP3 DUP8 ADD MLOAD SWAP1 POP JUMPDEST PUSH3 0x6DE DUP6 DUP3 PUSH3 0x651 JUMP JUMPDEST DUP7 SSTORE POP PUSH3 0x74E JUMP JUMPDEST PUSH1 0x1F NOT DUP5 AND PUSH3 0x6F7 DUP7 PUSH3 0x49D JUMP JUMPDEST PUSH1 0x0 JUMPDEST DUP3 DUP2 LT ISZERO PUSH3 0x721 JUMPI DUP5 DUP10 ADD MLOAD DUP3 SSTORE PUSH1 0x1 DUP3 ADD SWAP2 POP PUSH1 0x20 DUP6 ADD SWAP5 POP PUSH1 0x20 DUP2 ADD SWAP1 POP PUSH3 0x6FA JUMP JUMPDEST DUP7 DUP4 LT ISZERO PUSH3 0x741 JUMPI DUP5 DUP10 ADD MLOAD PUSH3 0x73D PUSH1 0x1F DUP10 AND DUP3 PUSH3 0x631 JUMP JUMPDEST DUP4 SSTORE POP JUMPDEST PUSH1 0x1 PUSH1 0x2 DUP9 MUL ADD DUP9 SSTORE POP POP POP JUMPDEST POP POP POP POP POP POP JUMP JUMPDEST PUSH2 0x3638 DUP1 PUSH3 0x766 PUSH1 0x0 CODECOPY PUSH1 0x0 RETURN INVALID PUSH1 0x80 PUSH1 0x40 MSTORE PUSH1 0x4 CALLDATASIZE LT PUSH3 0xD3 JUMPI PUSH1 0x0 CALLDATALOAD PUSH1 0xE0 SHR DUP1 PUSH4 0x5E164843 GT PUSH3 0x8B JUMPI DUP1 PUSH4 0xB9E59600 GT PUSH3 0x61 JUMPI DUP1 PUSH4 0xB9E59600 EQ PUSH3 0x258 JUMPI DUP1 PUSH4 0xBE52AB66 EQ PUSH3 0x288 JUMPI DUP1 PUSH4 0xC6D572AE EQ PUSH3 0x294 JUMPI DUP1 PUSH4 0xDDE8535F EQ PUSH3 0x2C4 JUMPI PUSH3 0xD3 JUMP JUMPDEST DUP1 PUSH4 0x5E164843 EQ PUSH3 0x1DE JUMPI DUP1 PUSH4 0x5FF6CBF3 EQ PUSH3 0x1F8 JUMPI DUP1 PUSH4 0x68A549E8 EQ PUSH3 0x228 JUMPI PUSH3 0xD3 JUMP JUMPDEST DUP1 PUSH3 0xB16FEE EQ PUSH3 0xD8 JUMPI DUP1 PUSH4 0x92B300E EQ PUSH3 0xF2 JUMPI DUP1 PUSH4 0x2662AD00 EQ PUSH3 0x120 JUMPI DUP1 PUSH4 0x2DD2BD44 EQ PUSH3 0x14E JUMPI DUP1 PUSH4 0x3A5673A4 EQ PUSH3 0x17E JUMPI DUP1 PUSH4 0x4559A904 EQ PUSH3 0x1AE JUMPI JUMPDEST PUSH1 0x0 DUP1 REVERT JUMPDEST CALLVALUE DUP1 ISZERO PUSH3 0xE5 JUMPI PUSH1 0x0 DUP1 REVERT JUMPDEST POP PUSH3 0xF0 PUSH3 0x308 JUMP JUMPDEST STOP JUMPDEST CALLVALUE DUP1 ISZERO PUSH3 0xFF JUMPI PUSH1 0x0 DUP1 REVERT JUMPDEST POP PUSH3 0x11E PUSH1 0x4 DUP1 CALLDATASIZE SUB DUP2 ADD SWAP1 PUSH3 0x118 SWAP2 SWAP1 PUSH3 0x11E3 JUMP JUMPDEST PUSH3 0x434 JUMP JUMPDEST STOP JUMPDEST CALLVALUE DUP1 ISZERO PUSH3 0x12D JUMPI PUSH1 0x0 DUP1 REVERT JUMPDEST POP PUSH3 0x14C PUSH1 0x4 DUP1 CALLDATASIZE SUB DUP2 ADD SWAP1 PUSH3 0x146 SWAP2 SWAP1 PUSH3 0x11E3 JUMP JUMPDEST PUSH3 0x573 JUMP JUMPDEST STOP JUMPDEST CALLVALUE DUP1 ISZERO PUSH3 0x15B JUMPI PUSH1 0x0 DUP1 REVERT JUMPDEST POP PUSH3 0x166 PUSH3 0x73F JUMP JUMPDEST PUSH1 0x40 MLOAD PUSH3 0x175 SWAP2 SWAP1 PUSH3 0x12F1 JUMP JUMPDEST PUSH1 0x40 MLOAD DUP1 SWAP2 SUB SWAP1 RETURN JUMPDEST CALLVALUE DUP1 ISZERO PUSH3 0x18B JUMPI PUSH1 0x0 DUP1 REVERT JUMPDEST POP PUSH3 0x196 PUSH3 0x7D5 JUMP JUMPDEST PUSH1 0x40 MLOAD PUSH3 0x1A5 SWAP2 SWAP1 PUSH3 0x135A JUMP JUMPDEST PUSH1 0x40 MLOAD DUP1 SWAP2 SUB SWAP1 RETURN JUMPDEST CALLVALUE DUP1 ISZERO PUSH3 0x1BB JUMPI PUSH1 0x0 DUP1 REVERT JUMPDEST POP PUSH3 0x1C6 PUSH3 0x7F9 JUMP JUMPDEST PUSH1 0x40 MLOAD PUSH3 0x1D5 SWAP2 SWAP1 PUSH3 0x1392 JUMP JUMPDEST PUSH1 0x40 MLOAD DUP1 SWAP2 SUB SWAP1 RETURN JUMPDEST CALLVALUE DUP1 ISZERO PUSH3 0x1EB JUMPI PUSH1 0x0 DUP1 REVERT JUMPDEST POP PUSH3 0x1F6 PUSH3 0x7FF JUMP JUMPDEST STOP JUMPDEST CALLVALUE DUP1 ISZERO PUSH3 0x205 JUMPI PUSH1 0x0 DUP1 REVERT JUMPDEST POP PUSH3 0x210 PUSH3 0x92B JUMP JUMPDEST PUSH1 0x40 MLOAD PUSH3 0x21F SWAP2 SWAP1 PUSH3 0x1565 JUMP JUMPDEST PUSH1 0x40 MLOAD DUP1 SWAP2 SUB SWAP1 RETURN JUMPDEST CALLVALUE DUP1 ISZERO PUSH3 0x235 JUMPI PUSH1 0x0 DUP1 REVERT JUMPDEST POP PUSH3 0x240 PUSH3 0xB20 JUMP JUMPDEST PUSH1 0x40 MLOAD PUSH3 0x24F SWAP2 SWAP1 PUSH3 0x1646 JUMP JUMPDEST PUSH1 0x40 MLOAD DUP1 SWAP2 SUB SWAP1 RETURN JUMPDEST CALLVALUE DUP1 ISZERO PUSH3 0x265 JUMPI PUSH1 0x0 DUP1 REVERT JUMPDEST POP PUSH3 0x270 PUSH3 0xBB0 JUMP JUMPDEST PUSH1 0x40 MLOAD PUSH3 0x27F SWAP2 SWAP1 PUSH3 0x12F1 JUMP JUMPDEST PUSH1 0x40 MLOAD DUP1 SWAP2 SUB SWAP1 RETURN JUMPDEST PUSH3 0x292 PUSH3 0xC46 JUMP JUMPDEST STOP JUMPDEST CALLVALUE DUP1 ISZERO PUSH3 0x2A1 JUMPI PUSH1 0x0 DUP1 REVERT JUMPDEST POP PUSH3 0x2AC PUSH3 0xF73 JUMP JUMPDEST PUSH1 0x40 MLOAD PUSH3 0x2BB SWAP2 SWAP1 PUSH3 0x12F1 JUMP JUMPDEST PUSH1 0x40 MLOAD DUP1 SWAP2 SUB SWAP1 RETURN JUMPDEST CALLVALUE DUP1 ISZERO PUSH3 0x2D1 JUMPI PUSH1 0x0 DUP1 REVERT JUMPDEST POP PUSH3 0x2F0 PUSH1 0x4 DUP1 CALLDATASIZE SUB DUP2 ADD SWAP1 PUSH3 0x2EA SWAP2 SWAP1 PUSH3 0x169B JUMP JUMPDEST PUSH3 0x1009 JUMP JUMPDEST PUSH1 0x40 MLOAD PUSH3 0x2FF SWAP2 SWAP1 PUSH3 0x16EA JUMP JUMPDEST PUSH1 0x40 MLOAD DUP1 SWAP2 SUB SWAP1 RETURN JUMPDEST PUSH1 0x1 PUSH1 0x0 CALLER PUSH20 0xFFFFFFFFFFFFFFFFFFFFFFFFFFFFFFFFFFFFFFFF AND PUSH20 0xFFFFFFFFFFFFFFFFFFFFFFFFFFFFFFFFFFFFFFFF AND DUP2 MSTORE PUSH1 0x20 ADD SWAP1 DUP2 MSTORE PUSH1 0x20 ADD PUSH1 0x0 KECCAK256 PUSH1 0x0 SWAP1 SLOAD SWAP1 PUSH2 0x100 EXP SWAP1 DIV PUSH1 0xFF AND ISZERO PUSH3 0x398 JUMPI PUSH1 0x40 MLOAD PUSH32 0x8C379A000000000000000000000000000000000000000000000000000000000 DUP2 MSTORE PUSH1 0x4 ADD PUSH3 0x38F SWAP1 PUSH3 0x1757 JUMP JUMPDEST PUSH1 0x40 MLOAD DUP1 SWAP2 SUB SWAP1 REVERT JUMPDEST PUSH1 0x1 DUP1 PUSH1 0x0 CALLER PUSH20 0xFFFFFFFFFFFFFFFFFFFFFFFFFFFFFFFFFFFFFFFF AND PUSH20 0xFFFFFFFFFFFFFFFFFFFFFFFFFFFFFFFFFFFFFFFF AND DUP2 MSTORE PUSH1 0x20 ADD SWAP1 DUP2 MSTORE PUSH1 0x20 ADD PUSH1 0x0 KECCAK256 PUSH1 0x0 PUSH2 0x100 EXP DUP2 SLOAD DUP2 PUSH1 0xFF MUL NOT AND SWAP1 DUP4 ISZERO ISZERO MUL OR SWAP1 SSTORE POP CALLER PUSH20 0xFFFFFFFFFFFFFFFFFFFFFFFFFFFFFFFFFFFFFFFF AND PUSH32 0xABF3B3F643594D958297062A019458E27D7766629590AC621AA1000FA1298AB PUSH1 0x40 MLOAD PUSH1 0x40 MLOAD DUP1 SWAP2 SUB SWAP1 LOG2 JUMP JUMPDEST PUSH1 0x4 PUSH1 0x40 MLOAD DUP1 PUSH1 0x80 ADD PUSH1 0x40 MSTORE DUP1 DUP5 DUP2 MSTORE PUSH1 0x20 ADD PUSH1 0x0 PUSH20 0xFFFFFFFFFFFFFFFFFFFFFFFFFFFFFFFFFFFFFFFF AND DUP2 MSTORE PUSH1 0x20 ADD DUP4 DUP2 MSTORE PUSH1 0x20 ADD TIMESTAMP DUP2 MSTORE POP SWAP1 DUP1 PUSH1 0x1 DUP2 SLOAD ADD DUP1 DUP3 SSTORE DUP1 SWAP2 POP POP PUSH1 0x1 SWAP1 SUB SWAP1 PUSH1 0x0 MSTORE PUSH1 0x20 PUSH1 0x0 KECCAK256 SWAP1 PUSH1 0x4 MUL ADD PUSH1 0x0 SWAP1 SWAP2 SWAP1 SWAP2 SWAP1 SWAP2 POP PUSH1 0x0 DUP3 ADD MLOAD DUP2 PUSH1 0x0 ADD SWAP1 DUP2 PUSH3 0x4AE SWAP2 SWAP1 PUSH3 0x19AF JUMP JUMPDEST POP PUSH1 0x20 DUP3 ADD MLOAD DUP2 PUSH1 0x1 ADD PUSH1 0x0 PUSH2 0x100 EXP DUP2 SLOAD DUP2 PUSH20 0xFFFFFFFFFFFFFFFFFFFFFFFFFFFFFFFFFFFFFFFF MUL NOT AND SWAP1 DUP4 PUSH20 0xFFFFFFFFFFFFFFFFFFFFFFFFFFFFFFFFFFFFFFFF AND MUL OR SWAP1 SSTORE POP PUSH1 0x40 DUP3 ADD MLOAD DUP2 PUSH1 0x2 ADD SWAP1 DUP2 PUSH3 0x50D SWAP2 SWAP1 PUSH3 0x19AF JUMP JUMPDEST POP PUSH1 0x60 DUP3 ADD MLOAD DUP2 PUSH1 0x3 ADD SSTORE POP POP PUSH1 0x0 PUSH20 0xFFFFFFFFFFFFFFFFFFFFFFFFFFFFFFFFFFFFFFFF AND PUSH32 0xE89E2F68B504E014DCBD447CC8D1D45903E27DEB2A197F25B6DC81698A0CE559 DUP4 DUP4 TIMESTAMP PUSH1 0x40 MLOAD PUSH3 0x567 SWAP4 SWAP3 SWAP2 SWAP1 PUSH3 0x1A96 JUMP JUMPDEST PUSH1 0x40 MLOAD DUP1 SWAP2 SUB SWAP1 LOG2 POP POP JUMP JUMPDEST PUSH1 0x1 PUSH1 0x0 CALLER PUSH20 0xFFFFFFFFFFFFFFFFFFFFFFFFFFFFFFFFFFFFFFFF AND PUSH20 0xFFFFFFFFFFFFFFFFFFFFFFFFFFFFFFFFFFFFFFFF AND DUP2 MSTORE PUSH1 0x20 ADD SWAP1 DUP2 MSTORE PUSH1 0x20 ADD PUSH1 0x0 KECCAK256 PUSH1 0x0 SWAP1 SLOAD SWAP1 PUSH2 0x100 EXP SWAP1 DIV PUSH1 0xFF AND PUSH3 0x602 JUMPI PUSH1 0x40 MLOAD PUSH32 0x8C379A000000000000000000000000000000000000000000000000000000000 DUP2 MSTORE PUSH1 0x4 ADD PUSH3 0x5F9 SWAP1 PUSH3 0x1B31 JUMP JUMPDEST PUSH1 0x40 MLOAD DUP1 SWAP2 SUB SWAP1 REVERT JUMPDEST PUSH1 0x4 PUSH1 0x40 MLOAD DUP1 PUSH1 0x80 ADD PUSH1 0x40 MSTORE DUP1 DUP5 DUP2 MSTORE PUSH1 0x20 ADD CALLER PUSH20 0xFFFFFFFFFFFFFFFFFFFFFFFFFFFFFFFFFFFFFFFF AND DUP2 MSTORE PUSH1 0x20 ADD DUP4 DUP2 MSTORE PUSH1 0x20 ADD TIMESTAMP DUP2 MSTORE POP SWAP1 DUP1 PUSH1 0x1 DUP2 SLOAD ADD DUP1 DUP3 SSTORE DUP1 SWAP2 POP POP PUSH1 0x1 SWAP1 SUB SWAP1 PUSH1 0x0 MSTORE PUSH1 0x20 PUSH1 0x0 KECCAK256 SWAP1 PUSH1 0x4 MUL ADD PUSH1 0x0 SWAP1 SWAP2 SWAP1 SWAP2 SWAP1 SWAP2 POP PUSH1 0x0 DUP3 ADD MLOAD DUP2 PUSH1 0x0 ADD SWAP1 DUP2 PUSH3 0x67B SWAP2 SWAP1 PUSH3 0x19AF JUMP JUMPDEST POP PUSH1 0x20 DUP3 ADD MLOAD DUP2 PUSH1 0x1 ADD PUSH1 0x0 PUSH2 0x100 EXP DUP2 SLOAD DUP2 PUSH20 0xFFFFFFFFFFFFFFFFFFFFFFFFFFFFFFFFFFFFFFFF MUL NOT AND SWAP1 DUP4 PUSH20 0xFFFFFFFFFFFFFFFFFFFFFFFFFFFFFFFFFFFFFFFF AND MUL OR SWAP1 SSTORE POP PUSH1 0x40 DUP3 ADD MLOAD DUP2 PUSH1 0x2 ADD SWAP1 DUP2 PUSH3 0x6DA SWAP2 SWAP1 PUSH3 0x19AF JUMP JUMPDEST POP PUSH1 0x60 DUP3 ADD MLOAD DUP2 PUSH1 0x3 ADD SSTORE POP POP CALLER PUSH20 0xFFFFFFFFFFFFFFFFFFFFFFFFFFFFFFFFFFFFFFFF AND PUSH32 0xE89E2F68B504E014DCBD447CC8D1D45903E27DEB2A197F25B6DC81698A0CE559 DUP4 DUP4 TIMESTAMP PUSH1 0x40 MLOAD PUSH3 0x733 SWAP4 SWAP3 SWAP2 SWAP1 PUSH3 0x1A96 JUMP JUMPDEST PUSH1 0x40 MLOAD DUP1 SWAP2 SUB SWAP1 LOG2 POP POP JUMP JUMPDEST PUSH1 0x7 DUP1 SLOAD PUSH3 0x74E SWAP1 PUSH3 0x17A8 JUMP JUMPDEST DUP1 PUSH1 0x1F ADD PUSH1 0x20 DUP1 SWAP2 DIV MUL PUSH1 0x20 ADD PUSH1 0x40 MLOAD SWAP1 DUP2 ADD PUSH1 0x40 MSTORE DUP1 SWAP3 SWAP2 SWAP1 DUP2 DUP2 MSTORE PUSH1 0x20 ADD DUP3 DUP1 SLOAD PUSH3 0x77C SWAP1 PUSH3 0x17A8 JUMP JUMPDEST DUP1 ISZERO PUSH3 0x7CD JUMPI DUP1 PUSH1 0x1F LT PUSH3 0x7A1 JUMPI PUSH2 0x100 DUP1 DUP4 SLOAD DIV MUL DUP4 MSTORE SWAP2 PUSH1 0x20 ADD SWAP2 PUSH3 0x7CD JUMP JUMPDEST DUP3 ADD SWAP2 SWAP1 PUSH1 0x0 MSTORE PUSH1 0x20 PUSH1 0x0 KECCAK256 SWAP1 JUMPDEST DUP2 SLOAD DUP2 MSTORE SWAP1 PUSH1 0x1 ADD SWAP1 PUSH1 0x20 ADD DUP1 DUP4 GT PUSH3 0x7AF JUMPI DUP3 SWAP1 SUB PUSH1 0x1F AND DUP3 ADD SWAP2 JUMPDEST POP POP POP POP POP DUP2 JUMP JUMPDEST PUSH1 0x0 DUP1 SLOAD SWAP1 PUSH2 0x100 EXP SWAP1 DIV PUSH20 0xFFFFFFFFFFFFFFFFFFFFFFFFFFFFFFFFFFFFFFFF AND DUP2 JUMP JUMPDEST PUSH1 0x3 SLOAD DUP2 JUMP JUMPDEST PUSH1 0x1 PUSH1 0x0 CALLER PUSH20 0xFFFFFFFFFFFFFFFFFFFFFFFFFFFFFFFFFFFFFFFF AND PUSH20 0xFFFFFFFFFFFFFFFFFFFFFFFFFFFFFFFFFFFFFFFF AND DUP2 MSTORE PUSH1 0x20 ADD SWAP1 DUP2 MSTORE PUSH1 0x20 ADD PUSH1 0x0 KECCAK256 PUSH1 0x0 SWAP1 SLOAD SWAP1 PUSH2 0x100 EXP SWAP1 DIV PUSH1 0xFF AND PUSH3 0x88E JUMPI PUSH1 0x40 MLOAD PUSH32 0x8C379A000000000000000000000000000000000000000000000000000000000 DUP2 MSTORE PUSH1 0x4 ADD PUSH3 0x885 SWAP1 PUSH3 0x1BA3 JUMP JUMPDEST PUSH1 0x40 MLOAD DUP1 SWAP2 SUB SWAP1 REVERT JUMPDEST PUSH1 0x0 PUSH1 0x1 PUSH1 0x0 CALLER PUSH20 0xFFFFFFFFFFFFFFFFFFFFFFFFFFFFFFFFFFFFFFFF AND PUSH20 0xFFFFFFFFFFFFFFFFFFFFFFFFFFFFFFFFFFFFFFFF AND DUP2 MSTORE PUSH1 0x20 ADD SWAP1 DUP2 MSTORE PUSH1 0x20 ADD PUSH1 0x0 KECCAK256 PUSH1 0x0 PUSH2 0x100 EXP DUP2 SLOAD DUP2 PUSH1 0xFF MUL NOT AND SWAP1 DUP4 ISZERO ISZERO MUL OR SWAP1 SSTORE POP CALLER PUSH20 0xFFFFFFFFFFFFFFFFFFFFFFFFFFFFFFFFFFFFFFFF AND PUSH32 0xBEA911B50CCDD2233B28FAA49766C3CBD0631608F32E5A724D7B83B32B681AD0 PUSH1 0x40 MLOAD PUSH1 0x40 MLOAD DUP1 SWAP2 SUB SWAP1 LOG2 JUMP JUMPDEST PUSH1 0x60 PUSH1 0x4 DUP1 SLOAD DUP1 PUSH1 0x20 MUL PUSH1 0x20 ADD PUSH1 0x40 MLOAD SWAP1 DUP2 ADD PUSH1 0x40 MSTORE DUP1 SWAP3 SWAP2 SWAP1 DUP2 DUP2 MSTORE PUSH1 0x20 ADD PUSH1 0x0 SWAP1 JUMPDEST DUP3 DUP3 LT ISZERO PUSH3 0xB17 JUMPI DUP4 DUP3 SWAP1 PUSH1 0x0 MSTORE PUSH1 0x20 PUSH1 0x0 KECCAK256 SWAP1 PUSH1 0x4 MUL ADD PUSH1 0x40 MLOAD DUP1 PUSH1 0x80 ADD PUSH1 0x40 MSTORE SWAP1 DUP2 PUSH1 0x0 DUP3 ADD DUP1 SLOAD PUSH3 0x985 SWAP1 PUSH3 0x17A8 JUMP JUMPDEST DUP1 PUSH1 0x1F ADD PUSH1 0x20 DUP1 SWAP2 DIV MUL PUSH1 0x20 ADD PUSH1 0x40 MLOAD SWAP1 DUP2 ADD PUSH1 0x40 MSTORE DUP1 SWAP3 SWAP2 SWAP1 DUP2 DUP2 MSTORE PUSH1 0x20 ADD DUP3 DUP1 SLOAD PUSH3 0x9B3 SWAP1 PUSH3 0x17A8 JUMP JUMPDEST DUP1 ISZERO PUSH3 0xA04 JUMPI DUP1 PUSH1 0x1F LT PUSH3 0x9D8 JUMPI PUSH2 0x100 DUP1 DUP4 SLOAD DIV MUL DUP4 MSTORE SWAP2 PUSH1 0x20 ADD SWAP2 PUSH3 0xA04 JUMP JUMPDEST DUP3 ADD SWAP2 SWAP1 PUSH1 0x0 MSTORE PUSH1 0x20 PUSH1 0x0 KECCAK256 SWAP1 JUMPDEST DUP2 SLOAD DUP2 MSTORE SWAP1 PUSH1 0x1 ADD SWAP1 PUSH1 0x20 ADD DUP1 DUP4 GT PUSH3 0x9E6 JUMPI DUP3 SWAP1 SUB PUSH1 0x1F AND DUP3 ADD SWAP2 JUMPDEST POP POP POP POP POP DUP2 MSTORE PUSH1 0x20 ADD PUSH1 0x1 DUP3 ADD PUSH1 0x0 SWAP1 SLOAD SWAP1 PUSH2 0x100 EXP SWAP1 DIV PUSH20 0xFFFFFFFFFFFFFFFFFFFFFFFFFFFFFFFFFFFFFFFF AND PUSH20 0xFFFFFFFFFFFFFFFFFFFFFFFFFFFFFFFFFFFFFFFF AND PUSH20 0xFFFFFFFFFFFFFFFFFFFFFFFFFFFFFFFFFFFFFFFF AND DUP2 MSTORE PUSH1 0x20 ADD PUSH1 0x2 DUP3 ADD DUP1 SLOAD PUSH3 0xA75 SWAP1 PUSH3 0x17A8 JUMP JUMPDEST DUP1 PUSH1 0x1F ADD PUSH1 0x20 DUP1 SWAP2 DIV MUL PUSH1 0x20 ADD PUSH1 0x40 MLOAD SWAP1 DUP2 ADD PUSH1 0x40 MSTORE DUP1 SWAP3 SWAP2 SWAP1 DUP2 DUP2 MSTORE PUSH1 0x20 ADD DUP3 DUP1 SLOAD PUSH3 0xAA3 SWAP1 PUSH3 0x17A8 JUMP JUMPDEST DUP1 ISZERO PUSH3 0xAF4 JUMPI DUP1 PUSH1 0x1F LT PUSH3 0xAC8 JUMPI PUSH2 0x100 DUP1 DUP4 SLOAD DIV MUL DUP4 MSTORE SWAP2 PUSH1 0x20 ADD SWAP2 PUSH3 0xAF4 JUMP JUMPDEST DUP3 ADD SWAP2 SWAP1 PUSH1 0x0 MSTORE PUSH1 0x20 PUSH1 0x0 KECCAK256 SWAP1 JUMPDEST DUP2 SLOAD DUP2 MSTORE SWAP1 PUSH1 0x1 ADD SWAP1 PUSH1 0x20 ADD DUP1 DUP4 GT PUSH3 0xAD6 JUMPI DUP3 SWAP1 SUB PUSH1 0x1F AND DUP3 ADD SWAP2 JUMPDEST POP POP POP POP POP DUP2 MSTORE PUSH1 0x20 ADD PUSH1 0x3 DUP3 ADD SLOAD DUP2 MSTORE POP POP DUP2 MSTORE PUSH1 0x20 ADD SWAP1 PUSH1 0x1 ADD SWAP1 PUSH3 0x94F JUMP JUMPDEST POP POP POP POP SWAP1 POP SWAP1 JUMP JUMPDEST PUSH1 0x60 PUSH1 0x8 DUP1 SLOAD DUP1 PUSH1 0x20 MUL PUSH1 0x20 ADD PUSH1 0x40 MLOAD SWAP1 DUP2 ADD PUSH1 0x40 MSTORE DUP1 SWAP3 SWAP2 SWAP1 DUP2 DUP2 MSTORE PUSH1 0x20 ADD DUP3 DUP1 SLOAD DUP1 ISZERO PUSH3 0xBA6 JUMPI PUSH1 0x20 MUL DUP3 ADD SWAP2 SWAP1 PUSH1 0x0 MSTORE PUSH1 0x20 PUSH1 0x0 KECCAK256 SWAP1 JUMPDEST DUP2 PUSH1 0x0 SWAP1 SLOAD SWAP1 PUSH2 0x100 EXP SWAP1 DIV PUSH20 0xFFFFFFFFFFFFFFFFFFFFFFFFFFFFFFFFFFFFFFFF AND PUSH20 0xFFFFFFFFFFFFFFFFFFFFFFFFFFFFFFFFFFFFFFFF AND DUP2 MSTORE PUSH1 0x20 ADD SWAP1 PUSH1 0x1 ADD SWAP1 DUP1 DUP4 GT PUSH3 0xB5B JUMPI JUMPDEST POP POP POP POP POP SWAP1 POP SWAP1 JUMP JUMPDEST PUSH1 0x6 DUP1 SLOAD PUSH3 0xBBF SWAP1 PUSH3 0x17A8 JUMP JUMPDEST DUP1 PUSH1 0x1F ADD PUSH1 0x20 DUP1 SWAP2 DIV MUL PUSH1 0x20 ADD PUSH1 0x40 MLOAD SWAP1 DUP2 ADD PUSH1 0x40 MSTORE DUP1 SWAP3 SWAP2 SWAP1 DUP2 DUP2 MSTORE PUSH1 0x20 ADD DUP3 DUP1 SLOAD PUSH3 0xBED SWAP1 PUSH3 0x17A8 JUMP JUMPDEST DUP1 ISZERO PUSH3 0xC3E JUMPI DUP1 PUSH1 0x1F LT PUSH3 0xC12 JUMPI PUSH2 0x100 DUP1 DUP4 SLOAD DIV MUL DUP4 MSTORE SWAP2 PUSH1 0x20 ADD SWAP2 PUSH3 0xC3E JUMP JUMPDEST DUP3 ADD SWAP2 SWAP1 PUSH1 0x0 MSTORE PUSH1 0x20 PUSH1 0x0 KECCAK256 SWAP1 JUMPDEST DUP2 SLOAD DUP2 MSTORE SWAP1 PUSH1 0x1 ADD SWAP1 PUSH1 0x20 ADD DUP1 DUP4 GT PUSH3 0xC20 JUMPI DUP3 SWAP1 SUB PUSH1 0x1F AND DUP3 ADD SWAP2 JUMPDEST POP POP POP POP POP DUP2 JUMP JUMPDEST PUSH1 0x1 PUSH1 0x0 CALLER PUSH20 0xFFFFFFFFFFFFFFFFFFFFFFFFFFFFFFFFFFFFFFFF AND PUSH20 0xFFFFFFFFFFFFFFFFFFFFFFFFFFFFFFFFFFFFFFFF AND DUP2 MSTORE PUSH1 0x20 ADD SWAP1 DUP2 MSTORE PUSH1 0x20 ADD PUSH1 0x0 KECCAK256 PUSH1 0x0 SWAP1 SLOAD SWAP1 PUSH2 0x100 EXP SWAP1 DIV PUSH1 0xFF AND ISZERO PUSH3 0xCD6 JUMPI PUSH1 0x40 MLOAD PUSH32 0x8C379A000000000000000000000000000000000000000000000000000000000 DUP2 MSTORE PUSH1 0x4 ADD PUSH3 0xCCD SWAP1 PUSH3 0x1C3B JUMP JUMPDEST PUSH1 0x40 MLOAD DUP1 SWAP2 SUB SWAP1 REVERT JUMPDEST PUSH1 0x2 PUSH1 0x0 CALLER PUSH20 0xFFFFFFFFFFFFFFFFFFFFFFFFFFFFFFFFFFFFFFFF AND PUSH20 0xFFFFFFFFFFFFFFFFFFFFFFFFFFFFFFFFFFFFFFFF AND DUP2 MSTORE PUSH1 0x20 ADD SWAP1 DUP2 MSTORE PUSH1 0x20 ADD PUSH1 0x0 KECCAK256 PUSH1 0x0 SWAP1 SLOAD SWAP1 PUSH2 0x100 EXP SWAP1 DIV PUSH1 0xFF AND ISZERO PUSH3 0xD66 JUMPI PUSH1 0x40 MLOAD PUSH32 0x8C379A000000000000000000000000000000000000000000000000000000000 DUP2 MSTORE PUSH1 0x4 ADD PUSH3 0xD5D SWAP1 PUSH3 0x1CD3 JUMP JUMPDEST PUSH1 0x40 MLOAD DUP1 SWAP2 SUB SWAP1 REVERT JUMPDEST PUSH1 0x3 SLOAD CALLVALUE EQ PUSH3 0xDAD JUMPI PUSH1 0x40 MLOAD PUSH32 0x8C379A000000000000000000000000000000000000000000000000000000000 DUP2 MSTORE PUSH1 0x4 ADD PUSH3 0xDA4 SWAP1 PUSH3 0x1D45 JUMP JUMPDEST PUSH1 0x40 MLOAD DUP1 SWAP2 SUB SWAP1 REVERT JUMPDEST PUSH1 0x0 DUP1 SLOAD SWAP1 PUSH2 0x100 EXP SWAP1 DIV PUSH20 0xFFFFFFFFFFFFFFFFFFFFFFFFFFFFFFFFFFFFFFFF AND PUSH20 0xFFFFFFFFFFFFFFFFFFFFFFFFFFFFFFFFFFFFFFFF AND PUSH2 0x8FC CALLVALUE SWAP1 DUP2 ISZERO MUL SWAP1 PUSH1 0x40 MLOAD PUSH1 0x0 PUSH1 0x40 MLOAD DUP1 DUP4 SUB DUP2 DUP6 DUP9 DUP9 CALL SWAP4 POP POP POP POP ISZERO DUP1 ISZERO PUSH3 0xE14 JUMPI RETURNDATASIZE PUSH1 0x0 DUP1 RETURNDATACOPY RETURNDATASIZE PUSH1 0x0 REVERT JUMPDEST POP PUSH1 0x0 CALLER PUSH1 0x7 PUSH1 0x5 PUSH1 0x6 PUSH1 0x40 MLOAD PUSH3 0xE2C SWAP1 PUSH3 0x105F JUMP JUMPDEST PUSH3 0xE3B SWAP5 SWAP4 SWAP3 SWAP2 SWAP1 PUSH3 0x1DF7 JUMP JUMPDEST PUSH1 0x40 MLOAD DUP1 SWAP2 SUB SWAP1 PUSH1 0x0 CREATE DUP1 ISZERO DUP1 ISZERO PUSH3 0xE58 JUMPI RETURNDATASIZE PUSH1 0x0 DUP1 RETURNDATACOPY RETURNDATASIZE PUSH1 0x0 REVERT JUMPDEST POP SWAP1 POP PUSH1 0x8 DUP2 SWAP1 DUP1 PUSH1 0x1 DUP2 SLOAD ADD DUP1 DUP3 SSTORE DUP1 SWAP2 POP POP PUSH1 0x1 SWAP1 SUB SWAP1 PUSH1 0x0 MSTORE PUSH1 0x20 PUSH1 0x0 KECCAK256 ADD PUSH1 0x0 SWAP1 SWAP2 SWAP1 SWAP2 SWAP1 SWAP2 PUSH2 0x100 EXP DUP2 SLOAD DUP2 PUSH20 0xFFFFFFFFFFFFFFFFFFFFFFFFFFFFFFFFFFFFFFFF MUL NOT AND SWAP1 DUP4 PUSH20 0xFFFFFFFFFFFFFFFFFFFFFFFFFFFFFFFFFFFFFFFF AND MUL OR SWAP1 SSTORE POP PUSH1 0x1 PUSH1 0x2 PUSH1 0x0 CALLER PUSH20 0xFFFFFFFFFFFFFFFFFFFFFFFFFFFFFFFFFFFFFFFF AND PUSH20 0xFFFFFFFFFFFFFFFFFFFFFFFFFFFFFFFFFFFFFFFF AND DUP2 MSTORE PUSH1 0x20 ADD SWAP1 DUP2 MSTORE PUSH1 0x20 ADD PUSH1 0x0 KECCAK256 PUSH1 0x0 PUSH2 0x100 EXP DUP2 SLOAD DUP2 PUSH1 0xFF MUL NOT AND SWAP1 DUP4 ISZERO ISZERO MUL OR SWAP1 SSTORE POP DUP1 PUSH20 0xFFFFFFFFFFFFFFFFFFFFFFFFFFFFFFFFFFFFFFFF AND CALLER PUSH20 0xFFFFFFFFFFFFFFFFFFFFFFFFFFFFFFFFFFFFFFFF AND PUSH32 0x706B8EF835C24B521D1F532DF9A3CB5D89541F52B03FBE298E8A6AFF50CBC393 PUSH1 0x40 MLOAD PUSH1 0x40 MLOAD DUP1 SWAP2 SUB SWAP1 LOG3 POP JUMP JUMPDEST PUSH1 0x5 DUP1 SLOAD PUSH3 0xF82 SWAP1 PUSH3 0x17A8 JUMP JUMPDEST DUP1 PUSH1 0x1F ADD PUSH1 0x20 DUP1 SWAP2 DIV MUL PUSH1 0x20 ADD PUSH1 0x40 MLOAD SWAP1 DUP2 ADD PUSH1 0x40 MSTORE DUP1 SWAP3 SWAP2 SWAP1 DUP2 DUP2 MSTORE PUSH1 0x20 ADD DUP3 DUP1 SLOAD PUSH3 0xFB0 SWAP1 PUSH3 0x17A8 JUMP JUMPDEST DUP1 ISZERO PUSH3 0x1001 JUMPI DUP1 PUSH1 0x1F LT PUSH3 0xFD5 JUMPI PUSH2 0x100 DUP1 DUP4 SLOAD DIV MUL DUP4 MSTORE SWAP2 PUSH1 0x20 ADD SWAP2 PUSH3 0x1001 JUMP JUMPDEST DUP3 ADD SWAP2 SWAP1 PUSH1 0x0 MSTORE PUSH1 0x20 PUSH1 0x0 KECCAK256 SWAP1 JUMPDEST DUP2 SLOAD DUP2 MSTORE SWAP1 PUSH1 0x1 ADD SWAP1 PUSH1 0x20 ADD DUP1 DUP4 GT PUSH3 0xFE3 JUMPI DUP3 SWAP1 SUB PUSH1 0x1F AND DUP3 ADD SWAP2 JUMPDEST POP POP POP POP POP DUP2 JUMP JUMPDEST PUSH1 0x0 PUSH1 0x1 PUSH1 0x0 DUP4 PUSH20 0xFFFFFFFFFFFFFFFFFFFFFFFFFFFFFFFFFFFFFFFF AND PUSH20 0xFFFFFFFFFFFFFFFFFFFFFFFFFFFFFFFFFFFFFFFF AND DUP2 MSTORE PUSH1 0x20 ADD SWAP1 DUP2 MSTORE PUSH1 0x20 ADD PUSH1 0x0 KECCAK256 PUSH1 0x0 SWAP1 SLOAD SWAP1 PUSH2 0x100 EXP SWAP1 DIV PUSH1 0xFF AND SWAP1 POP SWAP2 SWAP1 POP JUMP JUMPDEST PUSH2 0x17A9 DUP1 PUSH3 0x1E5A DUP4 CODECOPY ADD SWAP1 JUMP JUMPDEST PUSH1 0x0 PUSH1 0x40 MLOAD SWAP1 POP SWAP1 JUMP JUMPDEST PUSH1 0x0 DUP1 REVERT JUMPDEST PUSH1 0x0 DUP1 REVERT JUMPDEST PUSH1 0x0 DUP1 REVERT JUMPDEST PUSH1 0x0 DUP1 REVERT JUMPDEST PUSH1 0x0 PUSH1 0x1F NOT PUSH1 0x1F DUP4 ADD AND SWAP1 POP SWAP2 SWAP1 POP JUMP JUMPDEST PUSH32 0x4E487B7100000000000000000000000000000000000000000000000000000000 PUSH1 0x0 MSTORE PUSH1 0x41 PUSH1 0x4 MSTORE PUSH1 0x24 PUSH1 0x0 REVERT JUMPDEST PUSH3 0x10D6 DUP3 PUSH3 0x108B JUMP JUMPDEST DUP2 ADD DUP2 DUP2 LT PUSH8 0xFFFFFFFFFFFFFFFF DUP3 GT OR ISZERO PUSH3 0x10F8 JUMPI PUSH3 0x10F7 PUSH3 0x109C JUMP JUMPDEST JUMPDEST DUP1 PUSH1 0x40 MSTORE POP POP POP JUMP JUMPDEST PUSH1 0x0 PUSH3 0x110D PUSH3 0x106D JUMP JUMPDEST SWAP1 POP PUSH3 0x111B DUP3 DUP3 PUSH3 0x10CB JUMP JUMPDEST SWAP2 SWAP1 POP JUMP JUMPDEST PUSH1 0x0 PUSH8 0xFFFFFFFFFFFFFFFF DUP3 GT ISZERO PUSH3 0x113E JUMPI PUSH3 0x113D PUSH3 0x109C JUMP JUMPDEST JUMPDEST PUSH3 0x1149 DUP3 PUSH3 0x108B JUMP JUMPDEST SWAP1 POP PUSH1 0x20 DUP2 ADD SWAP1 POP SWAP2 SWAP1 POP JUMP JUMPDEST DUP3 DUP2 DUP4 CALLDATACOPY PUSH1 0x0 DUP4 DUP4 ADD MSTORE POP POP POP JUMP JUMPDEST PUSH1 0x0 PUSH3 0x117C PUSH3 0x1176 DUP5 PUSH3 0x1120 JUMP JUMPDEST PUSH3 0x1101 JUMP JUMPDEST SWAP1 POP DUP3 DUP2 MSTORE PUSH1 0x20 DUP2 ADD DUP5 DUP5 DUP5 ADD GT ISZERO PUSH3 0x119B JUMPI PUSH3 0x119A PUSH3 0x1086 JUMP JUMPDEST JUMPDEST PUSH3 0x11A8 DUP5 DUP3 DUP6 PUSH3 0x1156 JUMP JUMPDEST POP SWAP4 SWAP3 POP POP POP JUMP JUMPDEST PUSH1 0x0 DUP3 PUSH1 0x1F DUP4 ADD SLT PUSH3 0x11C8 JUMPI PUSH3 0x11C7 PUSH3 0x1081 JUMP JUMPDEST JUMPDEST DUP2 CALLDATALOAD PUSH3 0x11DA DUP5 DUP3 PUSH1 0x20 DUP7 ADD PUSH3 0x1165 JUMP JUMPDEST SWAP2 POP POP SWAP3 SWAP2 POP POP JUMP JUMPDEST PUSH1 0x0 DUP1 PUSH1 0x40 DUP4 DUP6 SUB SLT ISZERO PUSH3 0x11FD JUMPI PUSH3 0x11FC PUSH3 0x1077 JUMP JUMPDEST JUMPDEST PUSH1 0x0 DUP4 ADD CALLDATALOAD PUSH8 0xFFFFFFFFFFFFFFFF DUP2 GT ISZERO PUSH3 0x121E JUMPI PUSH3 0x121D PUSH3 0x107C JUMP JUMPDEST JUMPDEST PUSH3 0x122C DUP6 DUP3 DUP7 ADD PUSH3 0x11B0 JUMP JUMPDEST SWAP3 POP POP PUSH1 0x20 DUP4 ADD CALLDATALOAD PUSH8 0xFFFFFFFFFFFFFFFF DUP2 GT ISZERO PUSH3 0x1250 JUMPI PUSH3 0x124F PUSH3 0x107C JUMP JUMPDEST JUMPDEST PUSH3 0x125E DUP6 DUP3 DUP7 ADD PUSH3 0x11B0 JUMP JUMPDEST SWAP2 POP POP SWAP3 POP SWAP3 SWAP1 POP JUMP JUMPDEST PUSH1 0x0 DUP2 MLOAD SWAP1 POP SWAP2 SWAP1 POP JUMP JUMPDEST PUSH1 0x0 DUP3 DUP3 MSTORE PUSH1 0x20 DUP3 ADD SWAP1 POP SWAP3 SWAP2 POP POP JUMP JUMPDEST PUSH1 0x0 JUMPDEST DUP4 DUP2 LT ISZERO PUSH3 0x12A4 JUMPI DUP1 DUP3 ADD MLOAD DUP2 DUP5 ADD MSTORE PUSH1 0x20 DUP2 ADD SWAP1 POP PUSH3 0x1287 JUMP JUMPDEST PUSH1 0x0 DUP5 DUP5 ADD MSTORE POP POP POP POP JUMP JUMPDEST PUSH1 0x0 PUSH3 0x12BD DUP3 PUSH3 0x1268 JUMP JUMPDEST PUSH3 0x12C9 DUP2 DUP6 PUSH3 0x1273 JUMP JUMPDEST SWAP4 POP PUSH3 0x12DB DUP2 DUP6 PUSH1 0x20 DUP7 ADD PUSH3 0x1284 JUMP JUMPDEST PUSH3 0x12E6 DUP2 PUSH3 0x108B JUMP JUMPDEST DUP5 ADD SWAP2 POP POP SWAP3 SWAP2 POP POP JUMP JUMPDEST PUSH1 0x0 PUSH1 0x20 DUP3 ADD SWAP1 POP DUP2 DUP2 SUB PUSH1 0x0 DUP4 ADD MSTORE PUSH3 0x130D DUP2 DUP5 PUSH3 0x12B0 JUMP JUMPDEST SWAP1 POP SWAP3 SWAP2 POP POP JUMP JUMPDEST PUSH1 0x0 PUSH20 0xFFFFFFFFFFFFFFFFFFFFFFFFFFFFFFFFFFFFFFFF DUP3 AND SWAP1 POP SWAP2 SWAP1 POP JUMP JUMPDEST PUSH1 0x0 PUSH3 0x1342 DUP3 PUSH3 0x1315 JUMP JUMPDEST SWAP1 POP SWAP2 SWAP1 POP JUMP JUMPDEST PUSH3 0x1354 DUP2 PUSH3 0x1335 JUMP JUMPDEST DUP3 MSTORE POP POP JUMP JUMPDEST PUSH1 0x0 PUSH1 0x20 DUP3 ADD SWAP1 POP PUSH3 0x1371 PUSH1 0x0 DUP4 ADD DUP5 PUSH3 0x1349 JUMP JUMPDEST SWAP3 SWAP2 POP POP JUMP JUMPDEST PUSH1 0x0 DUP2 SWAP1 POP SWAP2 SWAP1 POP JUMP JUMPDEST PUSH3 0x138C DUP2 PUSH3 0x1377 JUMP JUMPDEST DUP3 MSTORE POP POP JUMP JUMPDEST PUSH1 0x0 PUSH1 0x20 DUP3 ADD SWAP1 POP PUSH3 0x13A9 PUSH1 0x0 DUP4 ADD DUP5 PUSH3 0x1381 JUMP JUMPDEST SWAP3 SWAP2 POP POP JUMP JUMPDEST PUSH1 0x0 DUP2 MLOAD SWAP1 POP SWAP2 SWAP1 POP JUMP JUMPDEST PUSH1 0x0 DUP3 DUP3 MSTORE PUSH1 0x20 DUP3 ADD SWAP1 POP SWAP3 SWAP2 POP POP JUMP JUMPDEST PUSH1 0x0 DUP2 SWAP1 POP PUSH1 0x20 DUP3 ADD SWAP1 POP SWAP2 SWAP1 POP JUMP JUMPDEST PUSH1 0x0 DUP3 DUP3 MSTORE PUSH1 0x20 DUP3 ADD SWAP1 POP SWAP3 SWAP2 POP POP JUMP JUMPDEST PUSH1 0x0 PUSH3 0x13F9 DUP3 PUSH3 0x1268 JUMP JUMPDEST PUSH3 0x1405 DUP2 DUP6 PUSH3 0x13DB JUMP JUMPDEST SWAP4 POP PUSH3 0x1417 DUP2 DUP6 PUSH1 0x20 DUP7 ADD PUSH3 0x1284 JUMP JUMPDEST PUSH3 0x1422 DUP2 PUSH3 0x108B JUMP JUMPDEST DUP5 ADD SWAP2 POP POP SWAP3 SWAP2 POP POP JUMP JUMPDEST PUSH3 0x1438 DUP2 PUSH3 0x1335 JUMP JUMPDEST DUP3 MSTORE POP POP JUMP JUMPDEST PUSH3 0x1449 DUP2 PUSH3 0x1377 JUMP JUMPDEST DUP3 MSTORE POP POP JUMP JUMPDEST PUSH1 0x0 PUSH1 0x80 DUP4 ADD PUSH1 0x0 DUP4 ADD MLOAD DUP5 DUP3 SUB PUSH1 0x0 DUP7 ADD MSTORE PUSH3 0x146E DUP3 DUP3 PUSH3 0x13EC JUMP JUMPDEST SWAP2 POP POP PUSH1 0x20 DUP4 ADD MLOAD PUSH3 0x1485 PUSH1 0x20 DUP7 ADD DUP3 PUSH3 0x142D JUMP JUMPDEST POP PUSH1 0x40 DUP4 ADD MLOAD DUP5 DUP3 SUB PUSH1 0x40 DUP7 ADD MSTORE PUSH3 0x149F DUP3 DUP3 PUSH3 0x13EC JUMP JUMPDEST SWAP2 POP POP PUSH1 0x60 DUP4 ADD MLOAD PUSH3 0x14B6 PUSH1 0x60 DUP7 ADD DUP3 PUSH3 0x143E JUMP JUMPDEST POP DUP1 SWAP2 POP POP SWAP3 SWAP2 POP POP JUMP JUMPDEST PUSH1 0x0 PUSH3 0x14CF DUP4 DUP4 PUSH3 0x144F JUMP JUMPDEST SWAP1 POP SWAP3 SWAP2 POP POP JUMP JUMPDEST PUSH1 0x0 PUSH1 0x20 DUP3 ADD SWAP1 POP SWAP2 SWAP1 POP JUMP JUMPDEST PUSH1 0x0 PUSH3 0x14F1 DUP3 PUSH3 0x13AF JUMP JUMPDEST PUSH3 0x14FD DUP2 DUP6 PUSH3 0x13BA JUMP JUMPDEST SWAP4 POP DUP4 PUSH1 0x20 DUP3 MUL DUP6 ADD PUSH3 0x1511 DUP6 PUSH3 0x13CB JUMP JUMPDEST DUP1 PUSH1 0x0 JUMPDEST DUP6 DUP2 LT ISZERO PUSH3 0x1553 JUMPI DUP5 DUP5 SUB DUP10 MSTORE DUP2 MLOAD PUSH3 0x1531 DUP6 DUP3 PUSH3 0x14C1 JUMP JUMPDEST SWAP5 POP PUSH3 0x153E DUP4 PUSH3 0x14D7 JUMP JUMPDEST SWAP3 POP PUSH1 0x20 DUP11 ADD SWAP10 POP POP PUSH1 0x1 DUP2 ADD SWAP1 POP PUSH3 0x1515 JUMP JUMPDEST POP DUP3 SWAP8 POP DUP8 SWAP6 POP POP POP POP POP POP SWAP3 SWAP2 POP POP JUMP JUMPDEST PUSH1 0x0 PUSH1 0x20 DUP3 ADD SWAP1 POP DUP2 DUP2 SUB PUSH1 0x0 DUP4 ADD MSTORE PUSH3 0x1581 DUP2 DUP5 PUSH3 0x14E4 JUMP JUMPDEST SWAP1 POP SWAP3 SWAP2 POP POP JUMP JUMPDEST PUSH1 0x0 DUP2 MLOAD SWAP1 POP SWAP2 SWAP1 POP JUMP JUMPDEST PUSH1 0x0 DUP3 DUP3 MSTORE PUSH1 0x20 DUP3 ADD SWAP1 POP SWAP3 SWAP2 POP POP JUMP JUMPDEST PUSH1 0x0 DUP2 SWAP1 POP PUSH1 0x20 DUP3 ADD SWAP1 POP SWAP2 SWAP1 POP JUMP JUMPDEST PUSH1 0x0 PUSH3 0x15C3 DUP4 DUP4 PUSH3 0x142D JUMP JUMPDEST PUSH1 0x20 DUP4 ADD SWAP1 POP SWAP3 SWAP2 POP POP JUMP JUMPDEST PUSH1 0x0 PUSH1 0x20 DUP3 ADD SWAP1 POP SWAP2 SWAP1 POP JUMP JUMPDEST PUSH1 0x0 PUSH3 0x15E9 DUP3 PUSH3 0x1589 JUMP JUMPDEST PUSH3 0x15F5 DUP2 DUP6 PUSH3 0x1594 JUMP JUMPDEST SWAP4 POP PUSH3 0x1602 DUP4 PUSH3 0x15A5 JUMP JUMPDEST DUP1 PUSH1 0x0 JUMPDEST DUP4 DUP2 LT ISZERO PUSH3 0x1639 JUMPI DUP2 MLOAD PUSH3 0x161D DUP9 DUP3 PUSH3 0x15B5 JUMP JUMPDEST SWAP8 POP PUSH3 0x162A DUP4 PUSH3 0x15CF JUMP JUMPDEST SWAP3 POP POP PUSH1 0x1 DUP2 ADD SWAP1 POP PUSH3 0x1606 JUMP JUMPDEST POP DUP6 SWAP4 POP POP POP POP SWAP3 SWAP2 POP POP JUMP JUMPDEST PUSH1 0x0 PUSH1 0x20 DUP3 ADD SWAP1 POP DUP2 DUP2 SUB PUSH1 0x0 DUP4 ADD MSTORE PUSH3 0x1662 DUP2 DUP5 PUSH3 0x15DC JUMP JUMPDEST SWAP1 POP SWAP3 SWAP2 POP POP JUMP JUMPDEST PUSH3 0x1675 DUP2 PUSH3 0x1335 JUMP JUMPDEST DUP2 EQ PUSH3 0x1681 JUMPI PUSH1 0x0 DUP1 REVERT JUMPDEST POP JUMP JUMPDEST PUSH1 0x0 DUP2 CALLDATALOAD SWAP1 POP PUSH3 0x1695 DUP2 PUSH3 0x166A JUMP JUMPDEST SWAP3 SWAP2 POP POP JUMP JUMPDEST PUSH1 0x0 PUSH1 0x20 DUP3 DUP5 SUB SLT ISZERO PUSH3 0x16B4 JUMPI PUSH3 0x16B3 PUSH3 0x1077 JUMP JUMPDEST JUMPDEST PUSH1 0x0 PUSH3 0x16C4 DUP5 DUP3 DUP6 ADD PUSH3 0x1684 JUMP JUMPDEST SWAP2 POP POP SWAP3 SWAP2 POP POP JUMP JUMPDEST PUSH1 0x0 DUP2 ISZERO ISZERO SWAP1 POP SWAP2 SWAP1 POP JUMP JUMPDEST PUSH3 0x16E4 DUP2 PUSH3 0x16CD JUMP JUMPDEST DUP3 MSTORE POP POP JUMP JUMPDEST PUSH1 0x0 PUSH1 0x20 DUP3 ADD SWAP1 POP PUSH3 0x1701 PUSH1 0x0 DUP4 ADD DUP5 PUSH3 0x16D9 JUMP JUMPDEST SWAP3 SWAP2 POP POP JUMP JUMPDEST PUSH32 0x5573657220697320616C72656164792061206D656D6265720000000000000000 PUSH1 0x0 DUP3 ADD MSTORE POP JUMP JUMPDEST PUSH1 0x0 PUSH3 0x173F PUSH1 0x18 DUP4 PUSH3 0x1273 JUMP JUMPDEST SWAP2 POP PUSH3 0x174C DUP3 PUSH3 0x1707 JUMP JUMPDEST PUSH1 0x20 DUP3 ADD SWAP1 POP SWAP2 SWAP1 POP JUMP JUMPDEST PUSH1 0x0 PUSH1 0x20 DUP3 ADD SWAP1 POP DUP2 DUP2 SUB PUSH1 0x0 DUP4 ADD MSTORE PUSH3 0x1772 DUP2 PUSH3 0x1730 JUMP JUMPDEST SWAP1 POP SWAP2 SWAP1 POP JUMP JUMPDEST PUSH32 0x4E487B7100000000000000000000000000000000000000000000000000000000 PUSH1 0x0 MSTORE PUSH1 0x22 PUSH1 0x4 MSTORE PUSH1 0x24 PUSH1 0x0 REVERT JUMPDEST PUSH1 0x0 PUSH1 0x2 DUP3 DIV SWAP1 POP PUSH1 0x1 DUP3 AND DUP1 PUSH3 0x17C1 JUMPI PUSH1 0x7F DUP3 AND SWAP2 POP JUMPDEST PUSH1 0x20 DUP3 LT DUP2 SUB PUSH3 0x17D7 JUMPI PUSH3 0x17D6 PUSH3 0x1779 JUMP JUMPDEST JUMPDEST POP SWAP2 SWAP1 POP JUMP JUMPDEST PUSH1 0x0 DUP2 SWAP1 POP DUP2 PUSH1 0x0 MSTORE PUSH1 0x20 PUSH1 0x0 KECCAK256 SWAP1 POP SWAP2 SWAP1 POP JUMP JUMPDEST PUSH1 0x0 PUSH1 0x20 PUSH1 0x1F DUP4 ADD DIV SWAP1 POP SWAP2 SWAP1 POP JUMP JUMPDEST PUSH1 0x0 DUP3 DUP3 SHL SWAP1 POP SWAP3 SWAP2 POP POP JUMP JUMPDEST PUSH1 0x0 PUSH1 0x8 DUP4 MUL PUSH3 0x1841 PUSH32 0xFFFFFFFFFFFFFFFFFFFFFFFFFFFFFFFFFFFFFFFFFFFFFFFFFFFFFFFFFFFFFFFF DUP3 PUSH3 0x1802 JUMP JUMPDEST PUSH3 0x184D DUP7 DUP4 PUSH3 0x1802 JUMP JUMPDEST SWAP6 POP DUP1 NOT DUP5 AND SWAP4 POP DUP1 DUP7 AND DUP5 OR SWAP3 POP POP POP SWAP4 SWAP3 POP POP POP JUMP JUMPDEST PUSH1 0x0 DUP2 SWAP1 POP SWAP2 SWAP1 POP JUMP JUMPDEST PUSH1 0x0 PUSH3 0x1890 PUSH3 0x188A PUSH3 0x1884 DUP5 PUSH3 0x1377 JUMP JUMPDEST PUSH3 0x1865 JUMP JUMPDEST PUSH3 0x1377 JUMP JUMPDEST SWAP1 POP SWAP2 SWAP1 POP JUMP JUMPDEST PUSH1 0x0 DUP2 SWAP1 POP SWAP2 SWAP1 POP JUMP JUMPDEST PUSH3 0x18AC DUP4 PUSH3 0x186F JUMP JUMPDEST PUSH3 0x18C4 PUSH3 0x18BB DUP3 PUSH3 0x1897 JUMP JUMPDEST DUP5 DUP5 SLOAD PUSH3 0x180F JUMP JUMPDEST DUP3 SSTORE POP POP POP POP JUMP JUMPDEST PUSH1 0x0 SWAP1 JUMP JUMPDEST PUSH3 0x18DB PUSH3 0x18CC JUMP JUMPDEST PUSH3 0x18E8 DUP2 DUP5 DUP5 PUSH3 0x18A1 JUMP JUMPDEST POP POP POP JUMP JUMPDEST JUMPDEST DUP2 DUP2 LT ISZERO PUSH3 0x1910 JUMPI PUSH3 0x1904 PUSH1 0x0 DUP3 PUSH3 0x18D1 JUMP JUMPDEST PUSH1 0x1 DUP2 ADD SWAP1 POP PUSH3 0x18EE JUMP JUMPDEST POP POP JUMP JUMPDEST PUSH1 0x1F DUP3 GT ISZERO PUSH3 0x195F JUMPI PUSH3 0x1929 DUP2 PUSH3 0x17DD JUMP JUMPDEST PUSH3 0x1934 DUP5 PUSH3 0x17F2 JUMP JUMPDEST DUP2 ADD PUSH1 0x20 DUP6 LT ISZERO PUSH3 0x1944 JUMPI DUP2 SWAP1 POP JUMPDEST PUSH3 0x195C PUSH3 0x1953 DUP6 PUSH3 0x17F2 JUMP JUMPDEST DUP4 ADD DUP3 PUSH3 0x18ED JUMP JUMPDEST POP POP JUMPDEST POP POP POP JUMP JUMPDEST PUSH1 0x0 DUP3 DUP3 SHR SWAP1 POP SWAP3 SWAP2 POP POP JUMP JUMPDEST PUSH1 0x0 PUSH3 0x1984 PUSH1 0x0 NOT DUP5 PUSH1 0x8 MUL PUSH3 0x1964 JUMP JUMPDEST NOT DUP1 DUP4 AND SWAP2 POP POP SWAP3 SWAP2 POP POP JUMP JUMPDEST PUSH1 0x0 PUSH3 0x199F DUP4 DUP4 PUSH3 0x1971 JUMP JUMPDEST SWAP2 POP DUP3 PUSH1 0x2 MUL DUP3 OR SWAP1 POP SWAP3 SWAP2 POP POP JUMP JUMPDEST PUSH3 0x19BA DUP3 PUSH3 0x1268 JUMP JUMPDEST PUSH8 0xFFFFFFFFFFFFFFFF DUP2 GT ISZERO PUSH3 0x19D6 JUMPI PUSH3 0x19D5 PUSH3 0x109C JUMP JUMPDEST JUMPDEST PUSH3 0x19E2 DUP3 SLOAD PUSH3 0x17A8 JUMP JUMPDEST PUSH3 0x19EF DUP3 DUP3 DUP6 PUSH3 0x1914 JUMP JUMPDEST PUSH1 0x0 PUSH1 0x20 SWAP1 POP PUSH1 0x1F DUP4 GT PUSH1 0x1 DUP2 EQ PUSH3 0x1A27 JUMPI PUSH1 0x0 DUP5 ISZERO PUSH3 0x1A12 JUMPI DUP3 DUP8 ADD MLOAD SWAP1 POP JUMPDEST PUSH3 0x1A1E DUP6 DUP3 PUSH3 0x1991 JUMP JUMPDEST DUP7 SSTORE POP PUSH3 0x1A8E JUMP JUMPDEST PUSH1 0x1F NOT DUP5 AND PUSH3 0x1A37 DUP7 PUSH3 0x17DD JUMP JUMPDEST PUSH1 0x0 JUMPDEST DUP3 DUP2 LT ISZERO PUSH3 0x1A61 JUMPI DUP5 DUP10 ADD MLOAD DUP3 SSTORE PUSH1 0x1 DUP3 ADD SWAP2 POP PUSH1 0x20 DUP6 ADD SWAP5 POP PUSH1 0x20 DUP2 ADD SWAP1 POP PUSH3 0x1A3A JUMP JUMPDEST DUP7 DUP4 LT ISZERO PUSH3 0x1A81 JUMPI DUP5 DUP10 ADD MLOAD PUSH3 0x1A7D PUSH1 0x1F DUP10 AND DUP3 PUSH3 0x1971 JUMP JUMPDEST DUP4 SSTORE POP JUMPDEST PUSH1 0x1 PUSH1 0x2 DUP9 MUL ADD DUP9 SSTORE POP POP POP JUMPDEST POP POP POP POP POP POP JUMP JUMPDEST PUSH1 0x0 PUSH1 0x60 DUP3 ADD SWAP1 POP DUP2 DUP2 SUB PUSH1 0x0 DUP4 ADD MSTORE PUSH3 0x1AB2 DUP2 DUP7 PUSH3 0x12B0 JUMP JUMPDEST SWAP1 POP DUP2 DUP2 SUB PUSH1 0x20 DUP4 ADD MSTORE PUSH3 0x1AC8 DUP2 DUP6 PUSH3 0x12B0 JUMP JUMPDEST SWAP1 POP PUSH3 0x1AD9 PUSH1 0x40 DUP4 ADD DUP5 PUSH3 0x1381 JUMP JUMPDEST SWAP5 SWAP4 POP POP POP POP JUMP JUMPDEST PUSH32 0x4F6E6C79206D656D626572732063616E2073656E64206D657373616765730000 PUSH1 0x0 DUP3 ADD MSTORE POP JUMP JUMPDEST PUSH1 0x0 PUSH3 0x1B19 PUSH1 0x1E DUP4 PUSH3 0x1273 JUMP JUMPDEST SWAP2 POP PUSH3 0x1B26 DUP3 PUSH3 0x1AE1 JUMP JUMPDEST PUSH1 0x20 DUP3 ADD SWAP1 POP SWAP2 SWAP1 POP JUMP JUMPDEST PUSH1 0x0 PUSH1 0x20 DUP3 ADD SWAP1 POP DUP2 DUP2 SUB PUSH1 0x0 DUP4 ADD MSTORE PUSH3 0x1B4C DUP2 PUSH3 0x1B0A JUMP JUMPDEST SWAP1 POP SWAP2 SWAP1 POP JUMP JUMPDEST PUSH32 0x55736572206973206E6F742061206D656D626572000000000000000000000000 PUSH1 0x0 DUP3 ADD MSTORE POP JUMP JUMPDEST PUSH1 0x0 PUSH3 0x1B8B PUSH1 0x14 DUP4 PUSH3 0x1273 JUMP JUMPDEST SWAP2 POP PUSH3 0x1B98 DUP3 PUSH3 0x1B53 JUMP JUMPDEST PUSH1 0x20 DUP3 ADD SWAP1 POP SWAP2 SWAP1 POP JUMP JUMPDEST PUSH1 0x0 PUSH1 0x20 DUP3 ADD SWAP1 POP DUP2 DUP2 SUB PUSH1 0x0 DUP4 ADD MSTORE PUSH3 0x1BBE DUP2 PUSH3 0x1B7C JUMP JUMPDEST SWAP1 POP SWAP2 SWAP1 POP JUMP JUMPDEST PUSH32 0x55736572206973206E6F742061206D656D626572206F662074686520636F6D6D PUSH1 0x0 DUP3 ADD MSTORE PUSH32 0x756E6974792E0000000000000000000000000000000000000000000000000000 PUSH1 0x20 DUP3 ADD MSTORE POP JUMP JUMPDEST PUSH1 0x0 PUSH3 0x1C23 PUSH1 0x26 DUP4 PUSH3 0x1273 JUMP JUMPDEST SWAP2 POP PUSH3 0x1C30 DUP3 PUSH3 0x1BC5 JUMP JUMPDEST PUSH1 0x40 DUP3 ADD SWAP1 POP SWAP2 SWAP1 POP JUMP JUMPDEST PUSH1 0x0 PUSH1 0x20 DUP3 ADD SWAP1 POP DUP2 DUP2 SUB PUSH1 0x0 DUP4 ADD MSTORE PUSH3 0x1C56 DUP2 PUSH3 0x1C14 JUMP JUMPDEST SWAP1 POP SWAP2 SWAP1 POP JUMP JUMPDEST PUSH32 0x5573657220616C726561647920686173206120706572736F6E616C2061737369 PUSH1 0x0 DUP3 ADD MSTORE PUSH32 0x7374616E742E0000000000000000000000000000000000000000000000000000 PUSH1 0x20 DUP3 ADD MSTORE POP JUMP JUMPDEST PUSH1 0x0 PUSH3 0x1CBB PUSH1 0x26 DUP4 PUSH3 0x1273 JUMP JUMPDEST SWAP2 POP PUSH3 0x1CC8 DUP3 PUSH3 0x1C5D JUMP JUMPDEST PUSH1 0x40 DUP3 ADD SWAP1 POP SWAP2 SWAP1 POP JUMP JUMPDEST PUSH1 0x0 PUSH1 0x20 DUP3 ADD SWAP1 POP DUP2 DUP2 SUB PUSH1 0x0 DUP4 ADD MSTORE PUSH3 0x1CEE DUP2 PUSH3 0x1CAC JUMP JUMPDEST SWAP1 POP SWAP2 SWAP1 POP JUMP JUMPDEST PUSH32 0x496E636F7272656374207061796D656E7420616D6F756E742E00000000000000 PUSH1 0x0 DUP3 ADD MSTORE POP JUMP JUMPDEST PUSH1 0x0 PUSH3 0x1D2D PUSH1 0x19 DUP4 PUSH3 0x1273 JUMP JUMPDEST SWAP2 POP PUSH3 0x1D3A DUP3 PUSH3 0x1CF5 JUMP JUMPDEST PUSH1 0x20 DUP3 ADD SWAP1 POP SWAP2 SWAP1 POP JUMP JUMPDEST PUSH1 0x0 PUSH1 0x20 DUP3 ADD SWAP1 POP DUP2 DUP2 SUB PUSH1 0x0 DUP4 ADD MSTORE PUSH3 0x1D60 DUP2 PUSH3 0x1D1E JUMP JUMPDEST SWAP1 POP SWAP2 SWAP1 POP JUMP JUMPDEST PUSH1 0x0 DUP2 SLOAD PUSH3 0x1D76 DUP2 PUSH3 0x17A8 JUMP JUMPDEST PUSH3 0x1D82 DUP2 DUP7 PUSH3 0x1273 JUMP JUMPDEST SWAP5 POP PUSH1 0x1 DUP3 AND PUSH1 0x0 DUP2 EQ PUSH3 0x1DA0 JUMPI PUSH1 0x1 DUP2 EQ PUSH3 0x1DB7 JUMPI PUSH3 0x1DEE JUMP JUMPDEST PUSH1 0xFF NOT DUP4 AND DUP7 MSTORE DUP2 ISZERO ISZERO PUSH1 0x20 MUL DUP7 ADD SWAP4 POP PUSH3 0x1DEE JUMP JUMPDEST PUSH3 0x1DC2 DUP6 PUSH3 0x17DD JUMP JUMPDEST PUSH1 0x0 JUMPDEST DUP4 DUP2 LT ISZERO PUSH3 0x1DE6 JUMPI DUP2 SLOAD DUP2 DUP10 ADD MSTORE PUSH1 0x1 DUP3 ADD SWAP2 POP PUSH1 0x20 DUP2 ADD SWAP1 POP PUSH3 0x1DC5 JUMP JUMPDEST DUP1 DUP9 ADD SWAP6 POP POP POP JUMPDEST POP POP POP SWAP3 SWAP2 POP POP JUMP JUMPDEST PUSH1 0x0 PUSH1 0x80 DUP3 ADD SWAP1 POP PUSH3 0x1E0E PUSH1 0x0 DUP4 ADD DUP8 PUSH3 0x1349 JUMP JUMPDEST DUP2 DUP2 SUB PUSH1 0x20 DUP4 ADD MSTORE PUSH3 0x1E22 DUP2 DUP7 PUSH3 0x1D67 JUMP JUMPDEST SWAP1 POP DUP2 DUP2 SUB PUSH1 0x40 DUP4 ADD MSTORE PUSH3 0x1E38 DUP2 DUP6 PUSH3 0x1D67 JUMP JUMPDEST SWAP1 POP DUP2 DUP2 SUB PUSH1 0x60 DUP4 ADD MSTORE PUSH3 0x1E4E DUP2 DUP5 PUSH3 0x1D67 JUMP JUMPDEST SWAP1 POP SWAP6 SWAP5 POP POP POP POP POP JUMP INVALID PUSH1 0x80 PUSH1 0x40 MSTORE CALLVALUE DUP1 ISZERO PUSH3 0x11 JUMPI PUSH1 0x0 DUP1 REVERT JUMPDEST POP PUSH1 0x40 MLOAD PUSH3 0x17A9 CODESIZE SUB DUP1 PUSH3 0x17A9 DUP4 CODECOPY DUP2 DUP2 ADD PUSH1 0x40 MSTORE DUP2 ADD SWAP1 PUSH3 0x37 SWAP2 SWAP1 PUSH3 0x2AF JUMP JUMPDEST DUP4 PUSH1 0x0 DUP1 PUSH2 0x100 EXP DUP2 SLOAD DUP2 PUSH20 0xFFFFFFFFFFFFFFFFFFFFFFFFFFFFFFFFFFFFFFFF MUL NOT AND SWAP1 DUP4 PUSH20 0xFFFFFFFFFFFFFFFFFFFFFFFFFFFFFFFFFFFFFFFF AND MUL OR SWAP1 SSTORE POP DUP3 PUSH1 0x3 SWAP1 DUP2 PUSH3 0x88 SWAP2 SWAP1 PUSH3 0x5C9 JUMP JUMPDEST POP DUP2 PUSH1 0x1 SWAP1 DUP2 PUSH3 0x9A SWAP2 SWAP1 PUSH3 0x5C9 JUMP JUMPDEST POP DUP1 PUSH1 0x2 SWAP1 DUP2 PUSH3 0xAC SWAP2 SWAP1 PUSH3 0x5C9 JUMP JUMPDEST POP POP POP POP POP PUSH3 0x6B0 JUMP JUMPDEST PUSH1 0x0 PUSH1 0x40 MLOAD SWAP1 POP SWAP1 JUMP JUMPDEST PUSH1 0x0 DUP1 REVERT JUMPDEST PUSH1 0x0 DUP1 REVERT JUMPDEST PUSH1 0x0 PUSH20 0xFFFFFFFFFFFFFFFFFFFFFFFFFFFFFFFFFFFFFFFF DUP3 AND SWAP1 POP SWAP2 SWAP1 POP JUMP JUMPDEST PUSH1 0x0 PUSH3 0xF8 DUP3 PUSH3 0xCB JUMP JUMPDEST SWAP1 POP SWAP2 SWAP1 POP JUMP JUMPDEST PUSH3 0x10A DUP2 PUSH3 0xEB JUMP JUMPDEST DUP2 EQ PUSH3 0x116 JUMPI PUSH1 0x0 DUP1 REVERT JUMPDEST POP JUMP JUMPDEST PUSH1 0x0 DUP2 MLOAD SWAP1 POP PUSH3 0x12A DUP2 PUSH3 0xFF JUMP JUMPDEST SWAP3 SWAP2 POP POP JUMP JUMPDEST PUSH1 0x0 DUP1 REVERT JUMPDEST PUSH1 0x0 DUP1 REVERT JUMPDEST PUSH1 0x0 PUSH1 0x1F NOT PUSH1 0x1F DUP4 ADD AND SWAP1 POP SWAP2 SWAP1 POP JUMP JUMPDEST PUSH32 0x4E487B7100000000000000000000000000000000000000000000000000000000 PUSH1 0x0 MSTORE PUSH1 0x41 PUSH1 0x4 MSTORE PUSH1 0x24 PUSH1 0x0 REVERT JUMPDEST PUSH3 0x185 DUP3 PUSH3 0x13A JUMP JUMPDEST DUP2 ADD DUP2 DUP2 LT PUSH8 0xFFFFFFFFFFFFFFFF DUP3 GT OR ISZERO PUSH3 0x1A7 JUMPI PUSH3 0x1A6 PUSH3 0x14B JUMP JUMPDEST JUMPDEST DUP1 PUSH1 0x40 MSTORE POP POP POP JUMP JUMPDEST PUSH1 0x0 PUSH3 0x1BC PUSH3 0xB7 JUMP JUMPDEST SWAP1 POP PUSH3 0x1CA DUP3 DUP3 PUSH3 0x17A JUMP JUMPDEST SWAP2 SWAP1 POP JUMP JUMPDEST PUSH1 0x0 PUSH8 0xFFFFFFFFFFFFFFFF DUP3 GT ISZERO PUSH3 0x1ED JUMPI PUSH3 0x1EC PUSH3 0x14B JUMP JUMPDEST JUMPDEST PUSH3 0x1F8 DUP3 PUSH3 0x13A JUMP JUMPDEST SWAP1 POP PUSH1 0x20 DUP2 ADD SWAP1 POP SWAP2 SWAP1 POP JUMP JUMPDEST PUSH1 0x0 JUMPDEST DUP4 DUP2 LT ISZERO PUSH3 0x225 JUMPI DUP1 DUP3 ADD MLOAD DUP2 DUP5 ADD MSTORE PUSH1 0x20 DUP2 ADD SWAP1 POP PUSH3 0x208 JUMP JUMPDEST PUSH1 0x0 DUP5 DUP5 ADD MSTORE POP POP POP POP JUMP JUMPDEST PUSH1 0x0 PUSH3 0x248 PUSH3 0x242 DUP5 PUSH3 0x1CF JUMP JUMPDEST PUSH3 0x1B0 JUMP JUMPDEST SWAP1 POP DUP3 DUP2 MSTORE PUSH1 0x20 DUP2 ADD DUP5 DUP5 DUP5 ADD GT ISZERO PUSH3 0x267 JUMPI PUSH3 0x266 PUSH3 0x135 JUMP JUMPDEST JUMPDEST PUSH3 0x274 DUP5 DUP3 DUP6 PUSH3 0x205 JUMP JUMPDEST POP SWAP4 SWAP3 POP POP POP JUMP JUMPDEST PUSH1 0x0 DUP3 PUSH1 0x1F DUP4 ADD SLT PUSH3 0x294 JUMPI PUSH3 0x293 PUSH3 0x130 JUMP JUMPDEST JUMPDEST DUP2 MLOAD PUSH3 0x2A6 DUP5 DUP3 PUSH1 0x20 DUP7 ADD PUSH3 0x231 JUMP JUMPDEST SWAP2 POP POP SWAP3 SWAP2 POP POP JUMP JUMPDEST PUSH1 0x0 DUP1 PUSH1 0x0 DUP1 PUSH1 0x80 DUP6 DUP8 SUB SLT ISZERO PUSH3 0x2CC JUMPI PUSH3 0x2CB PUSH3 0xC1 JUMP JUMPDEST JUMPDEST PUSH1 0x0 PUSH3 0x2DC DUP8 DUP3 DUP9 ADD PUSH3 0x119 JUMP JUMPDEST SWAP5 POP POP PUSH1 0x20 DUP6 ADD MLOAD PUSH8 0xFFFFFFFFFFFFFFFF DUP2 GT ISZERO PUSH3 0x300 JUMPI PUSH3 0x2FF PUSH3 0xC6 JUMP JUMPDEST JUMPDEST PUSH3 0x30E DUP8 DUP3 DUP9 ADD PUSH3 0x27C JUMP JUMPDEST SWAP4 POP POP PUSH1 0x40 DUP6 ADD MLOAD PUSH8 0xFFFFFFFFFFFFFFFF DUP2 GT ISZERO PUSH3 0x332 JUMPI PUSH3 0x331 PUSH3 0xC6 JUMP JUMPDEST JUMPDEST PUSH3 0x340 DUP8 DUP3 DUP9 ADD PUSH3 0x27C JUMP JUMPDEST SWAP3 POP POP PUSH1 0x60 DUP6 ADD MLOAD PUSH8 0xFFFFFFFFFFFFFFFF DUP2 GT ISZERO PUSH3 0x364 JUMPI PUSH3 0x363 PUSH3 0xC6 JUMP JUMPDEST JUMPDEST PUSH3 0x372 DUP8 DUP3 DUP9 ADD PUSH3 0x27C JUMP JUMPDEST SWAP2 POP POP SWAP3 SWAP6 SWAP2 SWAP5 POP SWAP3 POP JUMP JUMPDEST PUSH1 0x0 DUP2 MLOAD SWAP1 POP SWAP2 SWAP1 POP JUMP JUMPDEST PUSH32 0x4E487B7100000000000000000000000000000000000000000000000000000000 PUSH1 0x0 MSTORE PUSH1 0x22 PUSH1 0x4 MSTORE PUSH1 0x24 PUSH1 0x0 REVERT JUMPDEST PUSH1 0x0 PUSH1 0x2 DUP3 DIV SWAP1 POP PUSH1 0x1 DUP3 AND DUP1 PUSH3 0x3D1 JUMPI PUSH1 0x7F DUP3 AND SWAP2 POP JUMPDEST PUSH1 0x20 DUP3 LT DUP2 SUB PUSH3 0x3E7 JUMPI PUSH3 0x3E6 PUSH3 0x389 JUMP JUMPDEST JUMPDEST POP SWAP2 SWAP1 POP JUMP JUMPDEST PUSH1 0x0 DUP2 SWAP1 POP DUP2 PUSH1 0x0 MSTORE PUSH1 0x20 PUSH1 0x0 KECCAK256 SWAP1 POP SWAP2 SWAP1 POP JUMP JUMPDEST PUSH1 0x0 PUSH1 0x20 PUSH1 0x1F DUP4 ADD DIV SWAP1 POP SWAP2 SWAP1 POP JUMP JUMPDEST PUSH1 0x0 DUP3 DUP3 SHL SWAP1 POP SWAP3 SWAP2 POP POP JUMP JUMPDEST PUSH1 0x0 PUSH1 0x8 DUP4 MUL PUSH3 0x451 PUSH32 0xFFFFFFFFFFFFFFFFFFFFFFFFFFFFFFFFFFFFFFFFFFFFFFFFFFFFFFFFFFFFFFFF DUP3 PUSH3 0x412 JUMP JUMPDEST PUSH3 0x45D DUP7 DUP4 PUSH3 0x412 JUMP JUMPDEST SWAP6 POP DUP1 NOT DUP5 AND SWAP4 POP DUP1 DUP7 AND DUP5 OR SWAP3 POP POP POP SWAP4 SWAP3 POP POP POP JUMP JUMPDEST PUSH1 0x0 DUP2 SWAP1 POP SWAP2 SWAP1 POP JUMP JUMPDEST PUSH1 0x0 DUP2 SWAP1 POP SWAP2 SWAP1 POP JUMP JUMPDEST PUSH1 0x0 PUSH3 0x4AA PUSH3 0x4A4 PUSH3 0x49E DUP5 PUSH3 0x475 JUMP JUMPDEST PUSH3 0x47F JUMP JUMPDEST PUSH3 0x475 JUMP JUMPDEST SWAP1 POP SWAP2 SWAP1 POP JUMP JUMPDEST PUSH1 0x0 DUP2 SWAP1 POP SWAP2 SWAP1 POP JUMP JUMPDEST PUSH3 0x4C6 DUP4 PUSH3 0x489 JUMP JUMPDEST PUSH3 0x4DE PUSH3 0x4D5 DUP3 PUSH3 0x4B1 JUMP JUMPDEST DUP5 DUP5 SLOAD PUSH3 0x41F JUMP JUMPDEST DUP3 SSTORE POP POP POP POP JUMP JUMPDEST PUSH1 0x0 SWAP1 JUMP JUMPDEST PUSH3 0x4F5 PUSH3 0x4E6 JUMP JUMPDEST PUSH3 0x502 DUP2 DUP5 DUP5 PUSH3 0x4BB JUMP JUMPDEST POP POP POP JUMP JUMPDEST JUMPDEST DUP2 DUP2 LT ISZERO PUSH3 0x52A JUMPI PUSH3 0x51E PUSH1 0x0 DUP3 PUSH3 0x4EB JUMP JUMPDEST PUSH1 0x1 DUP2 ADD SWAP1 POP PUSH3 0x508 JUMP JUMPDEST POP POP JUMP JUMPDEST PUSH1 0x1F DUP3 GT ISZERO PUSH3 0x579 JUMPI PUSH3 0x543 DUP2 PUSH3 0x3ED JUMP JUMPDEST PUSH3 0x54E DUP5 PUSH3 0x402 JUMP JUMPDEST DUP2 ADD PUSH1 0x20 DUP6 LT ISZERO PUSH3 0x55E JUMPI DUP2 SWAP1 POP JUMPDEST PUSH3 0x576 PUSH3 0x56D DUP6 PUSH3 0x402 JUMP JUMPDEST DUP4 ADD DUP3 PUSH3 0x507 JUMP JUMPDEST POP POP JUMPDEST POP POP POP JUMP JUMPDEST PUSH1 0x0 DUP3 DUP3 SHR SWAP1 POP SWAP3 SWAP2 POP POP JUMP JUMPDEST PUSH1 0x0 PUSH3 0x59E PUSH1 0x0 NOT DUP5 PUSH1 0x8 MUL PUSH3 0x57E JUMP JUMPDEST NOT DUP1 DUP4 AND SWAP2 POP POP SWAP3 SWAP2 POP POP JUMP JUMPDEST PUSH1 0x0 PUSH3 0x5B9 DUP4 DUP4 PUSH3 0x58B JUMP JUMPDEST SWAP2 POP DUP3 PUSH1 0x2 MUL DUP3 OR SWAP1 POP SWAP3 SWAP2 POP POP JUMP JUMPDEST PUSH3 0x5D4 DUP3 PUSH3 0x37E JUMP JUMPDEST PUSH8 0xFFFFFFFFFFFFFFFF DUP2 GT ISZERO PUSH3 0x5F0 JUMPI PUSH3 0x5EF PUSH3 0x14B JUMP JUMPDEST JUMPDEST PUSH3 0x5FC DUP3 SLOAD PUSH3 0x3B8 JUMP JUMPDEST PUSH3 0x609 DUP3 DUP3 DUP6 PUSH3 0x52E JUMP JUMPDEST PUSH1 0x0 PUSH1 0x20 SWAP1 POP PUSH1 0x1F DUP4 GT PUSH1 0x1 DUP2 EQ PUSH3 0x641 JUMPI PUSH1 0x0 DUP5 ISZERO PUSH3 0x62C JUMPI DUP3 DUP8 ADD MLOAD SWAP1 POP JUMPDEST PUSH3 0x638 DUP6 DUP3 PUSH3 0x5AB JUMP JUMPDEST DUP7 SSTORE POP PUSH3 0x6A8 JUMP JUMPDEST PUSH1 0x1F NOT DUP5 AND PUSH3 0x651 DUP7 PUSH3 0x3ED JUMP JUMPDEST PUSH1 0x0 JUMPDEST DUP3 DUP2 LT ISZERO PUSH3 0x67B JUMPI DUP5 DUP10 ADD MLOAD DUP3 SSTORE PUSH1 0x1 DUP3 ADD SWAP2 POP PUSH1 0x20 DUP6 ADD SWAP5 POP PUSH1 0x20 DUP2 ADD SWAP1 POP PUSH3 0x654 JUMP JUMPDEST DUP7 DUP4 LT ISZERO PUSH3 0x69B JUMPI DUP5 DUP10 ADD MLOAD PUSH3 0x697 PUSH1 0x1F DUP10 AND DUP3 PUSH3 0x58B JUMP JUMPDEST DUP4 SSTORE POP JUMPDEST PUSH1 0x1 PUSH1 0x2 DUP9 MUL ADD DUP9 SSTORE POP POP POP JUMPDEST POP POP POP POP POP POP JUMP JUMPDEST PUSH2 0x10E9 DUP1 PUSH3 0x6C0 PUSH1 0x0 CODECOPY PUSH1 0x0 RETURN INVALID PUSH1 0x80 PUSH1 0x40 MSTORE CALLVALUE DUP1 ISZERO PUSH2 0x10 JUMPI PUSH1 0x0 DUP1 REVERT JUMPDEST POP PUSH1 0x4 CALLDATASIZE LT PUSH2 0x62 JUMPI PUSH1 0x0 CALLDATALOAD PUSH1 0xE0 SHR DUP1 PUSH4 0x92B300E EQ PUSH2 0x67 JUMPI DUP1 PUSH4 0x467FBA0F EQ PUSH2 0x83 JUMPI DUP1 PUSH4 0x5FF6CBF3 EQ PUSH2 0x9F JUMPI DUP1 PUSH4 0x8DA5CB5B EQ PUSH2 0xBD JUMPI DUP1 PUSH4 0xB9E59600 EQ PUSH2 0xDB JUMPI DUP1 PUSH4 0xC6D572AE EQ PUSH2 0xF9 JUMPI JUMPDEST PUSH1 0x0 DUP1 REVERT JUMPDEST PUSH2 0x81 PUSH1 0x4 DUP1 CALLDATASIZE SUB DUP2 ADD SWAP1 PUSH2 0x7C SWAP2 SWAP1 PUSH2 0x9BA JUMP JUMPDEST PUSH2 0x117 JUMP JUMPDEST STOP JUMPDEST PUSH2 0x9D PUSH1 0x4 DUP1 CALLDATASIZE SUB DUP2 ADD SWAP1 PUSH2 0x98 SWAP2 SWAP1 PUSH2 0x9BA JUMP JUMPDEST PUSH2 0x2E4 JUMP JUMPDEST STOP JUMPDEST PUSH2 0xA7 PUSH2 0x4AF JUMP JUMPDEST PUSH1 0x40 MLOAD PUSH2 0xB4 SWAP2 SWAP1 PUSH2 0xC37 JUMP JUMPDEST PUSH1 0x40 MLOAD DUP1 SWAP2 SUB SWAP1 RETURN JUMPDEST PUSH2 0xC5 PUSH2 0x720 JUMP JUMPDEST PUSH1 0x40 MLOAD PUSH2 0xD2 SWAP2 SWAP1 PUSH2 0xC68 JUMP JUMPDEST PUSH1 0x40 MLOAD DUP1 SWAP2 SUB SWAP1 RETURN JUMPDEST PUSH2 0xE3 PUSH2 0x744 JUMP JUMPDEST PUSH1 0x40 MLOAD PUSH2 0xF0 SWAP2 SWAP1 PUSH2 0xCCD JUMP JUMPDEST PUSH1 0x40 MLOAD DUP1 SWAP2 SUB SWAP1 RETURN JUMPDEST PUSH2 0x101 PUSH2 0x7D2 JUMP JUMPDEST PUSH1 0x40 MLOAD PUSH2 0x10E SWAP2 SWAP1 PUSH2 0xCCD JUMP JUMPDEST PUSH1 0x40 MLOAD DUP1 SWAP2 SUB SWAP1 RETURN JUMPDEST PUSH1 0x0 DUP1 SLOAD SWAP1 PUSH2 0x100 EXP SWAP1 DIV PUSH20 0xFFFFFFFFFFFFFFFFFFFFFFFFFFFFFFFFFFFFFFFF AND PUSH20 0xFFFFFFFFFFFFFFFFFFFFFFFFFFFFFFFFFFFFFFFF AND CALLER PUSH20 0xFFFFFFFFFFFFFFFFFFFFFFFFFFFFFFFFFFFFFFFF AND EQ PUSH2 0x1A5 JUMPI PUSH1 0x40 MLOAD PUSH32 0x8C379A000000000000000000000000000000000000000000000000000000000 DUP2 MSTORE PUSH1 0x4 ADD PUSH2 0x19C SWAP1 PUSH2 0xD61 JUMP JUMPDEST PUSH1 0x40 MLOAD DUP1 SWAP2 SUB SWAP1 REVERT JUMPDEST PUSH1 0x0 PUSH1 0x40 MLOAD DUP1 PUSH1 0x80 ADD PUSH1 0x40 MSTORE DUP1 DUP5 DUP2 MSTORE PUSH1 0x20 ADD PUSH1 0x0 PUSH20 0xFFFFFFFFFFFFFFFFFFFFFFFFFFFFFFFFFFFFFFFF AND DUP2 MSTORE PUSH1 0x20 ADD DUP4 DUP2 MSTORE PUSH1 0x20 ADD TIMESTAMP DUP2 MSTORE POP SWAP1 POP PUSH1 0x4 DUP2 SWAP1 DUP1 PUSH1 0x1 DUP2 SLOAD ADD DUP1 DUP3 SSTORE DUP1 SWAP2 POP POP PUSH1 0x1 SWAP1 SUB SWAP1 PUSH1 0x0 MSTORE PUSH1 0x20 PUSH1 0x0 KECCAK256 SWAP1 PUSH1 0x4 MUL ADD PUSH1 0x0 SWAP1 SWAP2 SWAP1 SWAP2 SWAP1 SWAP2 POP PUSH1 0x0 DUP3 ADD MLOAD DUP2 PUSH1 0x0 ADD SWAP1 DUP2 PUSH2 0x222 SWAP2 SWAP1 PUSH2 0xF8D JUMP JUMPDEST POP PUSH1 0x20 DUP3 ADD MLOAD DUP2 PUSH1 0x1 ADD PUSH1 0x0 PUSH2 0x100 EXP DUP2 SLOAD DUP2 PUSH20 0xFFFFFFFFFFFFFFFFFFFFFFFFFFFFFFFFFFFFFFFF MUL NOT AND SWAP1 DUP4 PUSH20 0xFFFFFFFFFFFFFFFFFFFFFFFFFFFFFFFFFFFFFFFF AND MUL OR SWAP1 SSTORE POP PUSH1 0x40 DUP3 ADD MLOAD DUP2 PUSH1 0x2 ADD SWAP1 DUP2 PUSH2 0x27F SWAP2 SWAP1 PUSH2 0xF8D JUMP JUMPDEST POP PUSH1 0x60 DUP3 ADD MLOAD DUP2 PUSH1 0x3 ADD SSTORE POP POP PUSH1 0x0 PUSH20 0xFFFFFFFFFFFFFFFFFFFFFFFFFFFFFFFFFFFFFFFF AND PUSH32 0xE89E2F68B504E014DCBD447CC8D1D45903E27DEB2A197F25B6DC81698A0CE559 DUP5 DUP5 TIMESTAMP PUSH1 0x40 MLOAD PUSH2 0x2D7 SWAP4 SWAP3 SWAP2 SWAP1 PUSH2 0x106E JUMP JUMPDEST PUSH1 0x40 MLOAD DUP1 SWAP2 SUB SWAP1 LOG2 POP POP POP JUMP JUMPDEST PUSH1 0x0 DUP1 SLOAD SWAP1 PUSH2 0x100 EXP SWAP1 DIV PUSH20 0xFFFFFFFFFFFFFFFFFFFFFFFFFFFFFFFFFFFFFFFF AND PUSH20 0xFFFFFFFFFFFFFFFFFFFFFFFFFFFFFFFFFFFFFFFF AND CALLER PUSH20 0xFFFFFFFFFFFFFFFFFFFFFFFFFFFFFFFFFFFFFFFF AND EQ PUSH2 0x372 JUMPI PUSH1 0x40 MLOAD PUSH32 0x8C379A000000000000000000000000000000000000000000000000000000000 DUP2 MSTORE PUSH1 0x4 ADD PUSH2 0x369 SWAP1 PUSH2 0xD61 JUMP JUMPDEST PUSH1 0x40 MLOAD DUP1 SWAP2 SUB SWAP1 REVERT JUMPDEST PUSH1 0x0 PUSH1 0x40 MLOAD DUP1 PUSH1 0x80 ADD PUSH1 0x40 MSTORE DUP1 DUP5 DUP2 MSTORE PUSH1 0x20 ADD CALLER PUSH20 0xFFFFFFFFFFFFFFFFFFFFFFFFFFFFFFFFFFFFFFFF AND DUP2 MSTORE PUSH1 0x20 ADD DUP4 DUP2 MSTORE PUSH1 0x20 ADD TIMESTAMP DUP2 MSTORE POP SWAP1 POP PUSH1 0x4 DUP2 SWAP1 DUP1 PUSH1 0x1 DUP2 SLOAD ADD DUP1 DUP3 SSTORE DUP1 SWAP2 POP POP PUSH1 0x1 SWAP1 SUB SWAP1 PUSH1 0x0 MSTORE PUSH1 0x20 PUSH1 0x0 KECCAK256 SWAP1 PUSH1 0x4 MUL ADD PUSH1 0x0 SWAP1 SWAP2 SWAP1 SWAP2 SWAP1 SWAP2 POP PUSH1 0x0 DUP3 ADD MLOAD DUP2 PUSH1 0x0 ADD SWAP1 DUP2 PUSH2 0x3EE SWAP2 SWAP1 PUSH2 0xF8D JUMP JUMPDEST POP PUSH1 0x20 DUP3 ADD MLOAD DUP2 PUSH1 0x1 ADD PUSH1 0x0 PUSH2 0x100 EXP DUP2 SLOAD DUP2 PUSH20 0xFFFFFFFFFFFFFFFFFFFFFFFFFFFFFFFFFFFFFFFF MUL NOT AND SWAP1 DUP4 PUSH20 0xFFFFFFFFFFFFFFFFFFFFFFFFFFFFFFFFFFFFFFFF AND MUL OR SWAP1 SSTORE POP PUSH1 0x40 DUP3 ADD MLOAD DUP2 PUSH1 0x2 ADD SWAP1 DUP2 PUSH2 0x44B SWAP2 SWAP1 PUSH2 0xF8D JUMP JUMPDEST POP PUSH1 0x60 DUP3 ADD MLOAD DUP2 PUSH1 0x3 ADD SSTORE POP POP CALLER PUSH20 0xFFFFFFFFFFFFFFFFFFFFFFFFFFFFFFFFFFFFFFFF AND PUSH32 0xE89E2F68B504E014DCBD447CC8D1D45903E27DEB2A197F25B6DC81698A0CE559 DUP5 DUP5 TIMESTAMP PUSH1 0x40 MLOAD PUSH2 0x4A2 SWAP4 SWAP3 SWAP2 SWAP1 PUSH2 0x106E JUMP JUMPDEST PUSH1 0x40 MLOAD DUP1 SWAP2 SUB SWAP1 LOG2 POP POP POP JUMP JUMPDEST PUSH1 0x60 PUSH1 0x0 DUP1 SLOAD SWAP1 PUSH2 0x100 EXP SWAP1 DIV PUSH20 0xFFFFFFFFFFFFFFFFFFFFFFFFFFFFFFFFFFFFFFFF AND PUSH20 0xFFFFFFFFFFFFFFFFFFFFFFFFFFFFFFFFFFFFFFFF AND CALLER PUSH20 0xFFFFFFFFFFFFFFFFFFFFFFFFFFFFFFFFFFFFFFFF AND EQ PUSH2 0x53F JUMPI PUSH1 0x40 MLOAD PUSH32 0x8C379A000000000000000000000000000000000000000000000000000000000 DUP2 MSTORE PUSH1 0x4 ADD PUSH2 0x536 SWAP1 PUSH2 0xD61 JUMP JUMPDEST PUSH1 0x40 MLOAD DUP1 SWAP2 SUB SWAP1 REVERT JUMPDEST PUSH1 0x4 DUP1 SLOAD DUP1 PUSH1 0x20 MUL PUSH1 0x20 ADD PUSH1 0x40 MLOAD SWAP1 DUP2 ADD PUSH1 0x40 MSTORE DUP1 SWAP3 SWAP2 SWAP1 DUP2 DUP2 MSTORE PUSH1 0x20 ADD PUSH1 0x0 SWAP1 JUMPDEST DUP3 DUP3 LT ISZERO PUSH2 0x717 JUMPI DUP4 DUP3 SWAP1 PUSH1 0x0 MSTORE PUSH1 0x20 PUSH1 0x0 KECCAK256 SWAP1 PUSH1 0x4 MUL ADD PUSH1 0x40 MLOAD DUP1 PUSH1 0x80 ADD PUSH1 0x40 MSTORE SWAP1 DUP2 PUSH1 0x0 DUP3 ADD DUP1 SLOAD PUSH2 0x594 SWAP1 PUSH2 0xDB0 JUMP JUMPDEST DUP1 PUSH1 0x1F ADD PUSH1 0x20 DUP1 SWAP2 DIV MUL PUSH1 0x20 ADD PUSH1 0x40 MLOAD SWAP1 DUP2 ADD PUSH1 0x40 MSTORE DUP1 SWAP3 SWAP2 SWAP1 DUP2 DUP2 MSTORE PUSH1 0x20 ADD DUP3 DUP1 SLOAD PUSH2 0x5C0 SWAP1 PUSH2 0xDB0 JUMP JUMPDEST DUP1 ISZERO PUSH2 0x60D JUMPI DUP1 PUSH1 0x1F LT PUSH2 0x5E2 JUMPI PUSH2 0x100 DUP1 DUP4 SLOAD DIV MUL DUP4 MSTORE SWAP2 PUSH1 0x20 ADD SWAP2 PUSH2 0x60D JUMP JUMPDEST DUP3 ADD SWAP2 SWAP1 PUSH1 0x0 MSTORE PUSH1 0x20 PUSH1 0x0 KECCAK256 SWAP1 JUMPDEST DUP2 SLOAD DUP2 MSTORE SWAP1 PUSH1 0x1 ADD SWAP1 PUSH1 0x20 ADD DUP1 DUP4 GT PUSH2 0x5F0 JUMPI DUP3 SWAP1 SUB PUSH1 0x1F AND DUP3 ADD SWAP2 JUMPDEST POP POP POP POP POP DUP2 MSTORE PUSH1 0x20 ADD PUSH1 0x1 DUP3 ADD PUSH1 0x0 SWAP1 SLOAD SWAP1 PUSH2 0x100 EXP SWAP1 DIV PUSH20 0xFFFFFFFFFFFFFFFFFFFFFFFFFFFFFFFFFFFFFFFF AND PUSH20 0xFFFFFFFFFFFFFFFFFFFFFFFFFFFFFFFFFFFFFFFF AND PUSH20 0xFFFFFFFFFFFFFFFFFFFFFFFFFFFFFFFFFFFFFFFF AND DUP2 MSTORE PUSH1 0x20 ADD PUSH1 0x2 DUP3 ADD DUP1 SLOAD PUSH2 0x67C SWAP1 PUSH2 0xDB0 JUMP JUMPDEST DUP1 PUSH1 0x1F ADD PUSH1 0x20 DUP1 SWAP2 DIV MUL PUSH1 0x20 ADD PUSH1 0x40 MLOAD SWAP1 DUP2 ADD PUSH1 0x40 MSTORE DUP1 SWAP3 SWAP2 SWAP1 DUP2 DUP2 MSTORE PUSH1 0x20 ADD DUP3 DUP1 SLOAD PUSH2 0x6A8 SWAP1 PUSH2 0xDB0 JUMP JUMPDEST DUP1 ISZERO PUSH2 0x6F5 JUMPI DUP1 PUSH1 0x1F LT PUSH2 0x6CA JUMPI PUSH2 0x100 DUP1 DUP4 SLOAD DIV MUL DUP4 MSTORE SWAP2 PUSH1 0x20 ADD SWAP2 PUSH2 0x6F5 JUMP JUMPDEST DUP3 ADD SWAP2 SWAP1 PUSH1 0x0 MSTORE PUSH1 0x20 PUSH1 0x0 KECCAK256 SWAP1 JUMPDEST DUP2 SLOAD DUP2 MSTORE SWAP1 PUSH1 0x1 ADD SWAP1 PUSH1 0x20 ADD DUP1 DUP4 GT PUSH2 0x6D8 JUMPI DUP3 SWAP1 SUB PUSH1 0x1F AND DUP3 ADD SWAP2 JUMPDEST POP POP POP POP POP DUP2 MSTORE PUSH1 0x20 ADD PUSH1 0x3 DUP3 ADD SLOAD DUP2 MSTORE POP POP DUP2 MSTORE PUSH1 0x20 ADD SWAP1 PUSH1 0x1 ADD SWAP1 PUSH2 0x561 JUMP JUMPDEST POP POP POP POP SWAP1 POP SWAP1 JUMP JUMPDEST PUSH1 0x0 DUP1 SLOAD SWAP1 PUSH2 0x100 EXP SWAP1 DIV PUSH20 0xFFFFFFFFFFFFFFFFFFFFFFFFFFFFFFFFFFFFFFFF AND DUP2 JUMP JUMPDEST PUSH1 0x2 DUP1 SLOAD PUSH2 0x751 SWAP1 PUSH2 0xDB0 JUMP JUMPDEST DUP1 PUSH1 0x1F ADD PUSH1 0x20 DUP1 SWAP2 DIV MUL PUSH1 0x20 ADD PUSH1 0x40 MLOAD SWAP1 DUP2 ADD PUSH1 0x40 MSTORE DUP1 SWAP3 SWAP2 SWAP1 DUP2 DUP2 MSTORE PUSH1 0x20 ADD DUP3 DUP1 SLOAD PUSH2 0x77D SWAP1 PUSH2 0xDB0 JUMP JUMPDEST DUP1 ISZERO PUSH2 0x7CA JUMPI DUP1 PUSH1 0x1F LT PUSH2 0x79F JUMPI PUSH2 0x100 DUP1 DUP4 SLOAD DIV MUL DUP4 MSTORE SWAP2 PUSH1 0x20 ADD SWAP2 PUSH2 0x7CA JUMP JUMPDEST DUP3 ADD SWAP2 SWAP1 PUSH1 0x0 MSTORE PUSH1 0x20 PUSH1 0x0 KECCAK256 SWAP1 JUMPDEST DUP2 SLOAD DUP2 MSTORE SWAP1 PUSH1 0x1 ADD SWAP1 PUSH1 0x20 ADD DUP1 DUP4 GT PUSH2 0x7AD JUMPI DUP3 SWAP1 SUB PUSH1 0x1F AND DUP3 ADD SWAP2 JUMPDEST POP POP POP POP POP DUP2 JUMP JUMPDEST PUSH1 0x1 DUP1 SLOAD PUSH2 0x7DF SWAP1 PUSH2 0xDB0 JUMP JUMPDEST DUP1 PUSH1 0x1F ADD PUSH1 0x20 DUP1 SWAP2 DIV MUL PUSH1 0x20 ADD PUSH1 0x40 MLOAD SWAP1 DUP2 ADD PUSH1 0x40 MSTORE DUP1 SWAP3 SWAP2 SWAP1 DUP2 DUP2 MSTORE PUSH1 0x20 ADD DUP3 DUP1 SLOAD PUSH2 0x80B SWAP1 PUSH2 0xDB0 JUMP JUMPDEST DUP1 ISZERO PUSH2 0x858 JUMPI DUP1 PUSH1 0x1F LT PUSH2 0x82D JUMPI PUSH2 0x100 DUP1 DUP4 SLOAD DIV MUL DUP4 MSTORE SWAP2 PUSH1 0x20 ADD SWAP2 PUSH2 0x858 JUMP JUMPDEST DUP3 ADD SWAP2 SWAP1 PUSH1 0x0 MSTORE PUSH1 0x20 PUSH1 0x0 KECCAK256 SWAP1 JUMPDEST DUP2 SLOAD DUP2 MSTORE SWAP1 PUSH1 0x1 ADD SWAP1 PUSH1 0x20 ADD DUP1 DUP4 GT PUSH2 0x83B JUMPI DUP3 SWAP1 SUB PUSH1 0x1F AND DUP3 ADD SWAP2 JUMPDEST POP POP POP POP POP DUP2 JUMP JUMPDEST PUSH1 0x0 PUSH1 0x40 MLOAD SWAP1 POP SWAP1 JUMP JUMPDEST PUSH1 0x0 DUP1 REVERT JUMPDEST PUSH1 0x0 DUP1 REVERT JUMPDEST PUSH1 0x0 DUP1 REVERT JUMPDEST PUSH1 0x0 DUP1 REVERT JUMPDEST PUSH1 0x0 PUSH1 0x1F NOT PUSH1 0x1F DUP4 ADD AND SWAP1 POP SWAP2 SWAP1 POP JUMP JUMPDEST PUSH32 0x4E487B7100000000000000000000000000000000000000000000000000000000 PUSH1 0x0 MSTORE PUSH1 0x41 PUSH1 0x4 MSTORE PUSH1 0x24 PUSH1 0x0 REVERT JUMPDEST PUSH2 0x8C7 DUP3 PUSH2 0x87E JUMP JUMPDEST DUP2 ADD DUP2 DUP2 LT PUSH8 0xFFFFFFFFFFFFFFFF DUP3 GT OR ISZERO PUSH2 0x8E6 JUMPI PUSH2 0x8E5 PUSH2 0x88F JUMP JUMPDEST JUMPDEST DUP1 PUSH1 0x40 MSTORE POP POP POP JUMP JUMPDEST PUSH1 0x0 PUSH2 0x8F9 PUSH2 0x860 JUMP JUMPDEST SWAP1 POP PUSH2 0x905 DUP3 DUP3 PUSH2 0x8BE JUMP JUMPDEST SWAP2 SWAP1 POP JUMP JUMPDEST PUSH1 0x0 PUSH8 0xFFFFFFFFFFFFFFFF DUP3 GT ISZERO PUSH2 0x925 JUMPI PUSH2 0x924 PUSH2 0x88F JUMP JUMPDEST JUMPDEST PUSH2 0x92E DUP3 PUSH2 0x87E JUMP JUMPDEST SWAP1 POP PUSH1 0x20 DUP2 ADD SWAP1 POP SWAP2 SWAP1 POP JUMP JUMPDEST DUP3 DUP2 DUP4 CALLDATACOPY PUSH1 0x0 DUP4 DUP4 ADD MSTORE POP POP POP JUMP JUMPDEST PUSH1 0x0 PUSH2 0x95D PUSH2 0x958 DUP5 PUSH2 0x90A JUMP JUMPDEST PUSH2 0x8EF JUMP JUMPDEST SWAP1 POP DUP3 DUP2 MSTORE PUSH1 0x20 DUP2 ADD DUP5 DUP5 DUP5 ADD GT ISZERO PUSH2 0x979 JUMPI PUSH2 0x978 PUSH2 0x879 JUMP JUMPDEST JUMPDEST PUSH2 0x984 DUP5 DUP3 DUP6 PUSH2 0x93B JUMP JUMPDEST POP SWAP4 SWAP3 POP POP POP JUMP JUMPDEST PUSH1 0x0 DUP3 PUSH1 0x1F DUP4 ADD SLT PUSH2 0x9A1 JUMPI PUSH2 0x9A0 PUSH2 0x874 JUMP JUMPDEST JUMPDEST DUP2 CALLDATALOAD PUSH2 0x9B1 DUP5 DUP3 PUSH1 0x20 DUP7 ADD PUSH2 0x94A JUMP JUMPDEST SWAP2 POP POP SWAP3 SWAP2 POP POP JUMP JUMPDEST PUSH1 0x0 DUP1 PUSH1 0x40 DUP4 DUP6 SUB SLT ISZERO PUSH2 0x9D1 JUMPI PUSH2 0x9D0 PUSH2 0x86A JUMP JUMPDEST JUMPDEST PUSH1 0x0 DUP4 ADD CALLDATALOAD PUSH8 0xFFFFFFFFFFFFFFFF DUP2 GT ISZERO PUSH2 0x9EF JUMPI PUSH2 0x9EE PUSH2 0x86F JUMP JUMPDEST JUMPDEST PUSH2 0x9FB DUP6 DUP3 DUP7 ADD PUSH2 0x98C JUMP JUMPDEST SWAP3 POP POP PUSH1 0x20 DUP4 ADD CALLDATALOAD PUSH8 0xFFFFFFFFFFFFFFFF DUP2 GT ISZERO PUSH2 0xA1C JUMPI PUSH2 0xA1B PUSH2 0x86F JUMP JUMPDEST JUMPDEST PUSH2 0xA28 DUP6 DUP3 DUP7 ADD PUSH2 0x98C JUMP JUMPDEST SWAP2 POP POP SWAP3 POP SWAP3 SWAP1 POP JUMP JUMPDEST PUSH1 0x0 DUP2 MLOAD SWAP1 POP SWAP2 SWAP1 POP JUMP JUMPDEST PUSH1 0x0 DUP3 DUP3 MSTORE PUSH1 0x20 DUP3 ADD SWAP1 POP SWAP3 SWAP2 POP POP JUMP JUMPDEST PUSH1 0x0 DUP2 SWAP1 POP PUSH1 0x20 DUP3 ADD SWAP1 POP SWAP2 SWAP1 POP JUMP JUMPDEST PUSH1 0x0 DUP2 MLOAD SWAP1 POP SWAP2 SWAP1 POP JUMP JUMPDEST PUSH1 0x0 DUP3 DUP3 MSTORE PUSH1 0x20 DUP3 ADD SWAP1 POP SWAP3 SWAP2 POP POP JUMP JUMPDEST PUSH1 0x0 JUMPDEST DUP4 DUP2 LT ISZERO PUSH2 0xA98 JUMPI DUP1 DUP3 ADD MLOAD DUP2 DUP5 ADD MSTORE PUSH1 0x20 DUP2 ADD SWAP1 POP PUSH2 0xA7D JUMP JUMPDEST PUSH1 0x0 DUP5 DUP5 ADD MSTORE POP POP POP POP JUMP JUMPDEST PUSH1 0x0 PUSH2 0xAAF DUP3 PUSH2 0xA5E JUMP JUMPDEST PUSH2 0xAB9 DUP2 DUP6 PUSH2 0xA69 JUMP JUMPDEST SWAP4 POP PUSH2 0xAC9 DUP2 DUP6 PUSH1 0x20 DUP7 ADD PUSH2 0xA7A JUMP JUMPDEST PUSH2 0xAD2 DUP2 PUSH2 0x87E JUMP JUMPDEST DUP5 ADD SWAP2 POP POP SWAP3 SWAP2 POP POP JUMP JUMPDEST PUSH1 0x0 PUSH20 0xFFFFFFFFFFFFFFFFFFFFFFFFFFFFFFFFFFFFFFFF DUP3 AND SWAP1 POP SWAP2 SWAP1 POP JUMP JUMPDEST PUSH1 0x0 PUSH2 0xB08 DUP3 PUSH2 0xADD JUMP JUMPDEST SWAP1 POP SWAP2 SWAP1 POP JUMP JUMPDEST PUSH2 0xB18 DUP2 PUSH2 0xAFD JUMP JUMPDEST DUP3 MSTORE POP POP JUMP JUMPDEST PUSH1 0x0 DUP2 SWAP1 POP SWAP2 SWAP1 POP JUMP JUMPDEST PUSH2 0xB31 DUP2 PUSH2 0xB1E JUMP JUMPDEST DUP3 MSTORE POP POP JUMP JUMPDEST PUSH1 0x0 PUSH1 0x80 DUP4 ADD PUSH1 0x0 DUP4 ADD MLOAD DUP5 DUP3 SUB PUSH1 0x0 DUP7 ADD MSTORE PUSH2 0xB54 DUP3 DUP3 PUSH2 0xAA4 JUMP JUMPDEST SWAP2 POP POP PUSH1 0x20 DUP4 ADD MLOAD PUSH2 0xB69 PUSH1 0x20 DUP7 ADD DUP3 PUSH2 0xB0F JUMP JUMPDEST POP PUSH1 0x40 DUP4 ADD MLOAD DUP5 DUP3 SUB PUSH1 0x40 DUP7 ADD MSTORE PUSH2 0xB81 DUP3 DUP3 PUSH2 0xAA4 JUMP JUMPDEST SWAP2 POP POP PUSH1 0x60 DUP4 ADD MLOAD PUSH2 0xB96 PUSH1 0x60 DUP7 ADD DUP3 PUSH2 0xB28 JUMP JUMPDEST POP DUP1 SWAP2 POP POP SWAP3 SWAP2 POP POP JUMP JUMPDEST PUSH1 0x0 PUSH2 0xBAD DUP4 DUP4 PUSH2 0xB37 JUMP JUMPDEST SWAP1 POP SWAP3 SWAP2 POP POP JUMP JUMPDEST PUSH1 0x0 PUSH1 0x20 DUP3 ADD SWAP1 POP SWAP2 SWAP1 POP JUMP JUMPDEST PUSH1 0x0 PUSH2 0xBCD DUP3 PUSH2 0xA32 JUMP JUMPDEST PUSH2 0xBD7 DUP2 DUP6 PUSH2 0xA3D JUMP JUMPDEST SWAP4 POP DUP4 PUSH1 0x20 DUP3 MUL DUP6 ADD PUSH2 0xBE9 DUP6 PUSH2 0xA4E JUMP JUMPDEST DUP1 PUSH1 0x0 JUMPDEST DUP6 DUP2 LT ISZERO PUSH2 0xC25 JUMPI DUP5 DUP5 SUB DUP10 MSTORE DUP2 MLOAD PUSH2 0xC06 DUP6 DUP3 PUSH2 0xBA1 JUMP JUMPDEST SWAP5 POP PUSH2 0xC11 DUP4 PUSH2 0xBB5 JUMP JUMPDEST SWAP3 POP PUSH1 0x20 DUP11 ADD SWAP10 POP POP PUSH1 0x1 DUP2 ADD SWAP1 POP PUSH2 0xBED JUMP JUMPDEST POP DUP3 SWAP8 POP DUP8 SWAP6 POP POP POP POP POP POP SWAP3 SWAP2 POP POP JUMP JUMPDEST PUSH1 0x0 PUSH1 0x20 DUP3 ADD SWAP1 POP DUP2 DUP2 SUB PUSH1 0x0 DUP4 ADD MSTORE PUSH2 0xC51 DUP2 DUP5 PUSH2 0xBC2 JUMP JUMPDEST SWAP1 POP SWAP3 SWAP2 POP POP JUMP JUMPDEST PUSH2 0xC62 DUP2 PUSH2 0xAFD JUMP JUMPDEST DUP3 MSTORE POP POP JUMP JUMPDEST PUSH1 0x0 PUSH1 0x20 DUP3 ADD SWAP1 POP PUSH2 0xC7D PUSH1 0x0 DUP4 ADD DUP5 PUSH2 0xC59 JUMP JUMPDEST SWAP3 SWAP2 POP POP JUMP JUMPDEST PUSH1 0x0 DUP3 DUP3 MSTORE PUSH1 0x20 DUP3 ADD SWAP1 POP SWAP3 SWAP2 POP POP JUMP JUMPDEST PUSH1 0x0 PUSH2 0xC9F DUP3 PUSH2 0xA5E JUMP JUMPDEST PUSH2 0xCA9 DUP2 DUP6 PUSH2 0xC83 JUMP JUMPDEST SWAP4 POP PUSH2 0xCB9 DUP2 DUP6 PUSH1 0x20 DUP7 ADD PUSH2 0xA7A JUMP JUMPDEST PUSH2 0xCC2 DUP2 PUSH2 0x87E JUMP JUMPDEST DUP5 ADD SWAP2 POP POP SWAP3 SWAP2 POP POP JUMP JUMPDEST PUSH1 0x0 PUSH1 0x20 DUP3 ADD SWAP1 POP DUP2 DUP2 SUB PUSH1 0x0 DUP4 ADD MSTORE PUSH2 0xCE7 DUP2 DUP5 PUSH2 0xC94 JUMP JUMPDEST SWAP1 POP SWAP3 SWAP2 POP POP JUMP JUMPDEST PUSH32 0x4F6E6C79206F776E65722063616E20696E746572616374207769746820746865 PUSH1 0x0 DUP3 ADD MSTORE PUSH32 0x20617373697374616E742E000000000000000000000000000000000000000000 PUSH1 0x20 DUP3 ADD MSTORE POP JUMP JUMPDEST PUSH1 0x0 PUSH2 0xD4B PUSH1 0x2B DUP4 PUSH2 0xC83 JUMP JUMPDEST SWAP2 POP PUSH2 0xD56 DUP3 PUSH2 0xCEF JUMP JUMPDEST PUSH1 0x40 DUP3 ADD SWAP1 POP SWAP2 SWAP1 POP JUMP JUMPDEST PUSH1 0x0 PUSH1 0x20 DUP3 ADD SWAP1 POP DUP2 DUP2 SUB PUSH1 0x0 DUP4 ADD MSTORE PUSH2 0xD7A DUP2 PUSH2 0xD3E JUMP JUMPDEST SWAP1 POP SWAP2 SWAP1 POP JUMP JUMPDEST PUSH32 0x4E487B7100000000000000000000000000000000000000000000000000000000 PUSH1 0x0 MSTORE PUSH1 0x22 PUSH1 0x4 MSTORE PUSH1 0x24 PUSH1 0x0 REVERT JUMPDEST PUSH1 0x0 PUSH1 0x2 DUP3 DIV SWAP1 POP PUSH1 0x1 DUP3 AND DUP1 PUSH2 0xDC8 JUMPI PUSH1 0x7F DUP3 AND SWAP2 POP JUMPDEST PUSH1 0x20 DUP3 LT DUP2 SUB PUSH2 0xDDB JUMPI PUSH2 0xDDA PUSH2 0xD81 JUMP JUMPDEST JUMPDEST POP SWAP2 SWAP1 POP JUMP JUMPDEST PUSH1 0x0 DUP2 SWAP1 POP DUP2 PUSH1 0x0 MSTORE PUSH1 0x20 PUSH1 0x0 KECCAK256 SWAP1 POP SWAP2 SWAP1 POP JUMP JUMPDEST PUSH1 0x0 PUSH1 0x20 PUSH1 0x1F DUP4 ADD DIV SWAP1 POP SWAP2 SWAP1 POP JUMP JUMPDEST PUSH1 0x0 DUP3 DUP3 SHL SWAP1 POP SWAP3 SWAP2 POP POP JUMP JUMPDEST PUSH1 0x0 PUSH1 0x8 DUP4 MUL PUSH2 0xE43 PUSH32 0xFFFFFFFFFFFFFFFFFFFFFFFFFFFFFFFFFFFFFFFFFFFFFFFFFFFFFFFFFFFFFFFF DUP3 PUSH2 0xE06 JUMP JUMPDEST PUSH2 0xE4D DUP7 DUP4 PUSH2 0xE06 JUMP JUMPDEST SWAP6 POP DUP1 NOT DUP5 AND SWAP4 POP DUP1 DUP7 AND DUP5 OR SWAP3 POP POP POP SWAP4 SWAP3 POP POP POP JUMP JUMPDEST PUSH1 0x0 DUP2 SWAP1 POP SWAP2 SWAP1 POP JUMP JUMPDEST PUSH1 0x0 PUSH2 0xE8A PUSH2 0xE85 PUSH2 0xE80 DUP5 PUSH2 0xB1E JUMP JUMPDEST PUSH2 0xE65 JUMP JUMPDEST PUSH2 0xB1E JUMP JUMPDEST SWAP1 POP SWAP2 SWAP1 POP JUMP JUMPDEST PUSH1 0x0 DUP2 SWAP1 POP SWAP2 SWAP1 POP JUMP JUMPDEST PUSH2 0xEA4 DUP4 PUSH2 0xE6F JUMP JUMPDEST PUSH2 0xEB8 PUSH2 0xEB0 DUP3 PUSH2 0xE91 JUMP JUMPDEST DUP5 DUP5 SLOAD PUSH2 0xE13 JUMP JUMPDEST DUP3 SSTORE POP POP POP POP JUMP JUMPDEST PUSH1 0x0 SWAP1 JUMP JUMPDEST PUSH2 0xECD PUSH2 0xEC0 JUMP JUMPDEST PUSH2 0xED8 DUP2 DUP5 DUP5 PUSH2 0xE9B JUMP JUMPDEST POP POP POP JUMP JUMPDEST JUMPDEST DUP2 DUP2 LT ISZERO PUSH2 0xEFC JUMPI PUSH2 0xEF1 PUSH1 0x0 DUP3 PUSH2 0xEC5 JUMP JUMPDEST PUSH1 0x1 DUP2 ADD SWAP1 POP PUSH2 0xEDE JUMP JUMPDEST POP POP JUMP JUMPDEST PUSH1 0x1F DUP3 GT ISZERO PUSH2 0xF41 JUMPI PUSH2 0xF12 DUP2 PUSH2 0xDE1 JUMP JUMPDEST PUSH2 0xF1B DUP5 PUSH2 0xDF6 JUMP JUMPDEST DUP2 ADD PUSH1 0x20 DUP6 LT ISZERO PUSH2 0xF2A JUMPI DUP2 SWAP1 POP JUMPDEST PUSH2 0xF3E PUSH2 0xF36 DUP6 PUSH2 0xDF6 JUMP JUMPDEST DUP4 ADD DUP3 PUSH2 0xEDD JUMP JUMPDEST POP POP JUMPDEST POP POP POP JUMP JUMPDEST PUSH1 0x0 DUP3 DUP3 SHR SWAP1 POP SWAP3 SWAP2 POP POP JUMP JUMPDEST PUSH1 0x0 PUSH2 0xF64 PUSH1 0x0 NOT DUP5 PUSH1 0x8 MUL PUSH2 0xF46 JUMP JUMPDEST NOT DUP1 DUP4 AND SWAP2 POP POP SWAP3 SWAP2 POP POP JUMP JUMPDEST PUSH1 0x0 PUSH2 0xF7D DUP4 DUP4 PUSH2 0xF53 JUMP JUMPDEST SWAP2 POP DUP3 PUSH1 0x2 MUL DUP3 OR SWAP1 POP SWAP3 SWAP2 POP POP JUMP JUMPDEST PUSH2 0xF96 DUP3 PUSH2 0xA5E JUMP JUMPDEST PUSH8 0xFFFFFFFFFFFFFFFF DUP2 GT ISZERO PUSH2 0xFAF JUMPI PUSH2 0xFAE PUSH2 0x88F JUMP JUMPDEST JUMPDEST PUSH2 0xFB9 DUP3 SLOAD PUSH2 0xDB0 JUMP JUMPDEST PUSH2 0xFC4 DUP3 DUP3 DUP6 PUSH2 0xF00 JUMP JUMPDEST PUSH1 0x0 PUSH1 0x20 SWAP1 POP PUSH1 0x1F DUP4 GT PUSH1 0x1 DUP2 EQ PUSH2 0xFF7 JUMPI PUSH1 0x0 DUP5 ISZERO PUSH2 0xFE5 JUMPI DUP3 DUP8 ADD MLOAD SWAP1 POP JUMPDEST PUSH2 0xFEF DUP6 DUP3 PUSH2 0xF71 JUMP JUMPDEST DUP7 SSTORE POP PUSH2 0x1057 JUMP JUMPDEST PUSH1 0x1F NOT DUP5 AND PUSH2 0x1005 DUP7 PUSH2 0xDE1 JUMP JUMPDEST PUSH1 0x0 JUMPDEST DUP3 DUP2 LT ISZERO PUSH2 0x102D JUMPI DUP5 DUP10 ADD MLOAD DUP3 SSTORE PUSH1 0x1 DUP3 ADD SWAP2 POP PUSH1 0x20 DUP6 ADD SWAP5 POP PUSH1 0x20 DUP2 ADD SWAP1 POP PUSH2 0x1008 JUMP JUMPDEST DUP7 DUP4 LT ISZERO PUSH2 0x104A JUMPI DUP5 DUP10 ADD MLOAD PUSH2 0x1046 PUSH1 0x1F DUP10 AND DUP3 PUSH2 0xF53 JUMP JUMPDEST DUP4 SSTORE POP JUMPDEST PUSH1 0x1 PUSH1 0x2 DUP9 MUL ADD DUP9 SSTORE POP POP POP JUMPDEST POP POP POP POP POP POP JUMP JUMPDEST PUSH2 0x1068 DUP2 PUSH2 0xB1E JUMP JUMPDEST DUP3 MSTORE POP POP JUMP JUMPDEST PUSH1 0x0 PUSH1 0x60 DUP3 ADD SWAP1 POP DUP2 DUP2 SUB PUSH1 0x0 DUP4 ADD MSTORE PUSH2 0x1088 DUP2 DUP7 PUSH2 0xC94 JUMP JUMPDEST SWAP1 POP DUP2 DUP2 SUB PUSH1 0x20 DUP4 ADD MSTORE PUSH2 0x109C DUP2 DUP6 PUSH2 0xC94 JUMP JUMPDEST SWAP1 POP PUSH2 0x10AB PUSH1 0x40 DUP4 ADD DUP5 PUSH2 0x105F JUMP JUMPDEST SWAP5 SWAP4 POP POP POP POP JUMP INVALID LOG2 PUSH5 0x6970667358 0x22 SLT KECCAK256 0x2B 0xEE LOG2 PUSH10 0xDF91C9D08B120E04EA42 0xCD DUP11 0xAC 0xDA 0x27 MUL 0xE7 0x25 0x4D ISZERO 0xC7 LOG1 0x1E 0x24 DUP11 0xEA 0x4D 0xE PUSH5 0x736F6C6343 STOP ADDMOD EQ STOP CALLER LOG2 PUSH5 0x6970667358 0x22 SLT KECCAK256 PUSH22 0x2EA86C0FCE27A7EAE1C44398BDE1BF337EA124875EF6 PUSH1 0xF2 0xEA SMOD PUSH18 0x2C5AE92664736F6C63430008140033000000 "},"methodIdentifiers":{"aiSendMessage(string,string)":"092b300e","assistantUnlockCostInEth()":"4559a904","communityLogo()":"b9e59600","communityName()":"c6d572ae","createdBy()":"3a5673a4","getDeployedPersonalAssistants()":"68a549e8","getMemberStatus(address)":"dde8535f","getMessages()":"5ff6cbf3","joinCommunity()":"00b16fee","leaveCommunity()":"5e164843","systemPrompt()":"2dd2bd44","unlockPersonalAssistant()":"be52ab66","userSendMessage(string,string)":"2662ad00"}}}}}